{
  "_format": "hh-sol-artifact-1",
  "contractName": "AaveFlashLoan3",
  "sourceName": "contracts/AaveFlashLoan.sol",
  "abi": [
    {
      "inputs": [
        {
          "internalType": "address",
          "name": "_addressProvider",
          "type": "address"
        },
        {
          "internalType": "address",
          "name": "_WETHBase",
          "type": "address"
        }
      ],
      "stateMutability": "nonpayable",
      "type": "constructor"
    },
    {
      "anonymous": false,
      "inputs": [
        {
          "indexed": false,
          "internalType": "address",
          "name": "BaseToken",
          "type": "address"
        },
        {
          "indexed": false,
          "internalType": "address",
          "name": "Pair1",
          "type": "address"
        },
        {
          "indexed": false,
          "internalType": "address",
          "name": "Pair2",
          "type": "address"
        }
      ],
      "name": "ArbitrageDataAddr",
      "type": "event"
    },
    {
      "anonymous": false,
      "inputs": [
        {
          "indexed": false,
          "internalType": "uint256",
          "name": "BorrowedAmount",
          "type": "uint256"
        },
        {
          "indexed": false,
          "internalType": "uint256",
          "name": "Profit",
          "type": "uint256"
        }
      ],
      "name": "ArbitrageDataValue",
      "type": "event"
    },
    {
      "anonymous": false,
      "inputs": [
        {
          "indexed": true,
          "internalType": "address",
          "name": "token",
          "type": "address"
        }
      ],
      "name": "BaseTokenAdded",
      "type": "event"
    },
    {
      "anonymous": false,
      "inputs": [
        {
          "indexed": true,
          "internalType": "address",
          "name": "token",
          "type": "address"
        }
      ],
      "name": "BaseTokenRemoved",
      "type": "event"
    },
    {
      "anonymous": false,
      "inputs": [
        {
          "indexed": true,
          "internalType": "address",
          "name": "_from",
          "type": "address"
        },
        {
          "indexed": true,
          "internalType": "address",
          "name": "_assetAddress",
          "type": "address"
        },
        {
          "indexed": false,
          "internalType": "uint256",
          "name": "amount",
          "type": "uint256"
        }
      ],
      "name": "LogWithdraw",
      "type": "event"
    },
    {
      "anonymous": false,
      "inputs": [
        {
          "indexed": true,
          "internalType": "address",
          "name": "previousOwner",
          "type": "address"
        },
        {
          "indexed": true,
          "internalType": "address",
          "name": "newOwner",
          "type": "address"
        }
      ],
      "name": "OwnershipTransferred",
      "type": "event"
    },
    {
      "anonymous": false,
      "inputs": [
        {
          "indexed": true,
          "internalType": "address",
          "name": "to",
          "type": "address"
        },
        {
          "indexed": true,
          "internalType": "uint256",
          "name": "value",
          "type": "uint256"
        }
      ],
      "name": "Withdrawn",
      "type": "event"
    },
    {
      "inputs": [],
      "name": "ADDRESSES_PROVIDER",
      "outputs": [
        {
          "internalType": "contract IPoolAddressesProvider",
          "name": "",
          "type": "address"
        }
      ],
      "stateMutability": "view",
      "type": "function"
    },
    {
      "inputs": [],
      "name": "BalanceBefore",
      "outputs": [
        {
          "internalType": "uint256",
          "name": "",
          "type": "uint256"
        }
      ],
      "stateMutability": "view",
      "type": "function"
    },
    {
      "inputs": [],
      "name": "POOL",
      "outputs": [
        {
          "internalType": "contract IPool",
          "name": "",
          "type": "address"
        }
      ],
      "stateMutability": "view",
      "type": "function"
    },
    {
      "inputs": [],
      "name": "_asset",
      "outputs": [
        {
          "internalType": "address",
          "name": "",
          "type": "address"
        }
      ],
      "stateMutability": "view",
      "type": "function"
    },
    {
      "inputs": [
        {
          "internalType": "address",
          "name": "token",
          "type": "address"
        }
      ],
      "name": "addBaseToken",
      "outputs": [],
      "stateMutability": "nonpayable",
      "type": "function"
    },
    {
      "inputs": [],
      "name": "baseTokenAave",
      "outputs": [
        {
          "internalType": "address",
          "name": "",
          "type": "address"
        }
      ],
      "stateMutability": "view",
      "type": "function"
    },
    {
      "inputs": [],
      "name": "baseTokenSmaller",
      "outputs": [
        {
          "internalType": "bool",
          "name": "",
          "type": "bool"
        }
      ],
      "stateMutability": "view",
      "type": "function"
    },
    {
      "inputs": [
        {
          "internalType": "address",
          "name": "token",
          "type": "address"
        }
      ],
      "name": "baseTokensContains",
      "outputs": [
        {
          "internalType": "bool",
          "name": "",
          "type": "bool"
        }
      ],
      "stateMutability": "view",
      "type": "function"
    },
    {
      "inputs": [
        {
          "internalType": "address",
          "name": "asset",
          "type": "address"
        },
        {
          "internalType": "uint256",
          "name": "amount",
          "type": "uint256"
        },
        {
          "internalType": "uint256",
          "name": "premium",
          "type": "uint256"
        },
        {
          "internalType": "address",
          "name": "initiator",
          "type": "address"
        },
        {
          "internalType": "bytes",
          "name": "params",
          "type": "bytes"
        }
      ],
      "name": "executeOperation",
      "outputs": [
        {
          "internalType": "bool",
          "name": "",
          "type": "bool"
        }
      ],
      "stateMutability": "nonpayable",
      "type": "function"
    },
    {
      "inputs": [
        {
          "internalType": "address",
          "name": "_token",
          "type": "address"
        },
        {
          "internalType": "uint256",
          "name": "_amount",
          "type": "uint256"
        }
      ],
      "name": "fn_RequestFlashLoan",
      "outputs": [],
      "stateMutability": "nonpayable",
      "type": "function"
    },
    {
      "inputs": [
        {
          "internalType": "uint256",
          "name": "amountOut",
          "type": "uint256"
        },
        {
          "internalType": "uint256",
          "name": "reserveIn",
          "type": "uint256"
        },
        {
          "internalType": "uint256",
          "name": "reserveOut",
          "type": "uint256"
        }
      ],
      "name": "getAmountIn",
      "outputs": [
        {
          "internalType": "uint256",
          "name": "amountIn",
          "type": "uint256"
        }
      ],
      "stateMutability": "pure",
      "type": "function"
    },
    {
      "inputs": [
        {
          "internalType": "uint256",
          "name": "amountIn",
          "type": "uint256"
        },
        {
          "internalType": "uint256",
          "name": "reserveIn",
          "type": "uint256"
        },
        {
          "internalType": "uint256",
          "name": "reserveOut",
          "type": "uint256"
        }
      ],
      "name": "getAmountOut",
      "outputs": [
        {
          "internalType": "uint256",
          "name": "amountOut",
          "type": "uint256"
        }
      ],
      "stateMutability": "pure",
      "type": "function"
    },
    {
      "inputs": [],
      "name": "getBaseTokens",
      "outputs": [
        {
          "internalType": "address[]",
          "name": "tokens",
          "type": "address[]"
        }
      ],
      "stateMutability": "view",
      "type": "function"
    },
    {
      "inputs": [
        {
          "internalType": "address",
          "name": "pool0",
          "type": "address"
        },
        {
          "internalType": "address",
          "name": "pool1",
          "type": "address"
        }
      ],
      "name": "getProfit",
      "outputs": [
        {
          "internalType": "uint256",
          "name": "profit",
          "type": "uint256"
        },
        {
          "internalType": "address",
          "name": "baseToken",
          "type": "address"
        }
      ],
      "stateMutability": "view",
      "type": "function"
    },
    {
      "inputs": [],
      "name": "owner",
      "outputs": [
        {
          "internalType": "address",
          "name": "",
          "type": "address"
        }
      ],
      "stateMutability": "view",
      "type": "function"
    },
    {
      "inputs": [],
      "name": "profitaave",
      "outputs": [
        {
          "internalType": "uint256",
          "name": "",
          "type": "uint256"
        }
      ],
      "stateMutability": "view",
      "type": "function"
    },
    {
      "inputs": [
        {
          "internalType": "address",
          "name": "token",
          "type": "address"
        }
      ],
      "name": "removeBaseToken",
      "outputs": [],
      "stateMutability": "nonpayable",
      "type": "function"
    },
    {
      "inputs": [],
      "name": "renounceOwnership",
      "outputs": [],
      "stateMutability": "nonpayable",
      "type": "function"
    },
    {
      "inputs": [
        {
          "internalType": "address",
          "name": "newOwner",
          "type": "address"
        }
      ],
      "name": "transferOwnership",
      "outputs": [],
      "stateMutability": "nonpayable",
      "type": "function"
    },
    {
      "inputs": [
        {
          "internalType": "address",
          "name": "sender",
          "type": "address"
        },
        {
          "internalType": "uint256",
          "name": "amount0",
          "type": "uint256"
        },
        {
          "internalType": "uint256",
          "name": "amount1",
          "type": "uint256"
        },
        {
          "internalType": "bytes",
          "name": "data",
          "type": "bytes"
        }
      ],
      "name": "uniswapV2Call",
      "outputs": [],
      "stateMutability": "nonpayable",
      "type": "function"
    },
    {
      "inputs": [
        {
          "internalType": "address",
          "name": "_assetAddress",
          "type": "address"
        }
      ],
      "name": "withdraw",
      "outputs": [],
      "stateMutability": "nonpayable",
      "type": "function"
    },
    {
      "stateMutability": "payable",
      "type": "receive"
    }
  ],
  "bytecode": "0x60e0604052600180546001600160a01b0319908116821790915560048054821673ae99444803acf9afe96665bc1e9ddf23221136b9179055600580549091167394ea055bf547bc9d871b3b72c3ffe74e8a6d7e3c1790553480156200006357600080fd5b50604051620033773803806200337783398101604081905262000086916200022c565b81806001600160a01b03166080816001600160a01b031681525050806001600160a01b031663026b1d5f6040518163ffffffff1660e01b8152600401602060405180830381865afa158015620000e0573d6000803e3d6000fd5b505050506040513d601f19601f8201168201806040525081019062000106919062000264565b6001600160a01b031660a052506200011e336200014d565b6001600160a01b03811660c052620001446002826200019d602090811b6200121817901c565b50505062000282565b600080546001600160a01b038381166001600160a01b0319831681178455604051919092169283917f8be0079c531659141344cd1fd0a4f28419497f9722a3daafe3b4186f6b6457e09190a35050565b6000620001b4836001600160a01b038416620001bd565b90505b92915050565b60008181526001830160205260408120546200020657508154600181810184556000848152602080822090930184905584548482528286019093526040902091909155620001b7565b506000620001b7565b80516001600160a01b03811681146200022757600080fd5b919050565b600080604083850312156200024057600080fd5b6200024b836200020f565b91506200025b602084016200020f565b90509250929050565b6000602082840312156200027757600080fd5b620001b4826200020f565b60805160a05160c0516130ba620002bd6000396000505060008181610292015281816109a10152610f280152600061014c01526130ba6000f3fe60806040526004361061012e5760003560e01c806383e280d9116100ab5780638da5cb5b1161006f5780638da5cb5b14610388578063a863baf9146103a6578063bbd1e122146103bc578063bed64c2f146103dc578063f2fde38b146103fe578063fcea5e291461041e57600080fd5b806383e280d9146102f157806385f8c2591461031157806386b6fccb146103315780638772fa251461035257806387c7f0ac1461036857600080fd5b806351cff8d9116100f257806351cff8d91461022b578063536e35e11461024b578063715018a61461026b5780637535d24614610280578063759eee10146102b457600080fd5b80630542975c1461013a578063054d50d41461018b57806310d1e85c146101b95780631b11d0ff146101db57806321d094261461020b57600080fd5b3661013557005b600080fd5b34801561014657600080fd5b5061016e7f000000000000000000000000000000000000000000000000000000000000000081565b6040516001600160a01b0390911681526020015b60405180910390f35b34801561019757600080fd5b506101ab6101a636600461268e565b61043e565b604051908152602001610182565b3480156101c557600080fd5b506101d96101d4366004612716565b610521565b005b3480156101e757600080fd5b506101fb6101f63660046127d1565b61095a565b6040519015158152602001610182565b34801561021757600080fd5b506101fb61022636600461287b565b610a2f565b34801561023757600080fd5b506101d961024636600461287b565b610a81565b34801561025757600080fd5b5060095461016e906001600160a01b031681565b34801561027757600080fd5b506101d9610c4c565b34801561028c57600080fd5b5061016e7f000000000000000000000000000000000000000000000000000000000000000081565b3480156102c057600080fd5b506102d46102cf366004612898565b610c60565b604080519283526001600160a01b03909116602083015201610182565b3480156102fd57600080fd5b506101d961030c36600461287b565b610db9565b34801561031d57600080fd5b506101ab61032c36600461268e565b610e04565b34801561033d57600080fd5b506009546101fb90600160a01b900460ff1681565b34801561035e57600080fd5b506101ab60075481565b34801561037457600080fd5b506101d96103833660046128d1565b610edd565b34801561039457600080fd5b506000546001600160a01b031661016e565b3480156103b257600080fd5b506101ab60085481565b3480156103c857600080fd5b506101d96103d736600461287b565b610fa0565b3480156103e857600080fd5b506103f16110f3565b60405161018291906128fd565b34801561040a57600080fd5b506101d961041936600461287b565b61119f565b34801561042a57600080fd5b5060065461016e906001600160a01b031681565b60008084116104a85760405162461bcd60e51b815260206004820152602b60248201527f556e697377617056324c6962726172793a20494e53554646494349454e545f4960448201526a1394155517d05353d5539560aa1b60648201526084015b60405180910390fd5b6000831180156104b85750600082115b6104d45760405162461bcd60e51b815260040161049f9061294a565b60006104e2856103e5611234565b905060006104f08285611234565b9050600061050a83610504886103e8611234565b90611240565b905061051681836129be565b979650505050505050565b6001546001600160a01b0316331461057b5760405162461bcd60e51b815260206004820152601d60248201527f4e6f6e207065726d697373696f6e656420616464726573732063616c6c000000604482015260640161049f565b6001600160a01b03841630146105cc5760405162461bcd60e51b8152602060048201526016602482015275139bdd08199c9bdb481d1a1a5cc818dbdb9d1c9858dd60521b604482015260640161049f565b61060a6040518060400160405280601b81526020017f6869692069276d2063616c6c6564206279206c6f616e2070616972000000000081525061124c565b6000808411610619578261061b565b835b905060008280602001905181019061063391906129e7565b6060810151602082015160405163a9059cbb60e01b81526001600160a01b03918216600482015260248101869052929350169063a9059cbb906044016020604051808303816000875af115801561068e573d6000803e3d6000fd5b505050506040513d601f19601f820116820180604052508101906106b29190612a93565b5060008082604001516106cb5760008360c001516106d3565b8260c0015160005b60408051808201825260208082527f6265666f726520737761702062617365746f6b656e2042616c616e63653d3d3e90820152608087015191516370a0823160e01b8152306004820152939550919350610783926001600160a01b03909116906370a08231906024015b602060405180830381865afa15801561075a573d6000803e3d6000fd5b505050506040513d601f19601f8201168201806040525081019061077e9190612aae565b61128f565b60208301516001600160a01b031663022c0d9f83833060006040519080825280601f01601f1916602001820160405280156107c5576020820181803683370190505b506040518563ffffffff1660e01b81526004016107e59493929190612b14565b600060405180830381600087803b1580156107ff57600080fd5b505af1158015610813573d6000803e3d6000fd5b5050604080518082018252601f81527f616674657220737761702062617365746f6b656e2042616c616e63653d3d3e006020820152608087015191516370a0823160e01b815230600482015261088194509092506001600160a01b03909116906370a082319060240161073d565b6080830151835160a085015160405163a9059cbb60e01b81526001600160a01b039283166004820152602481019190915291169063a9059cbb906044016020604051808303816000875af11580156108dd573d6000803e3d6000fd5b505050506040513d601f19601f820116820180604052508101906109019190612a93565b5061095060405180606001604052806021815260200161300e6021913960808501516040516370a0823160e01b81523060048201526001600160a01b03909116906370a082319060240161073d565b5050505050505050565b600454600554600091829161097c916001600160a01b039081169116896112d8565b9050600061098a8789612b41565b60405163095ea7b360e01b81526001600160a01b037f00000000000000000000000000000000000000000000000000000000000000008116600483015260248201839052919250908a169063095ea7b3906044016020604051808303816000875af11580156109fd573d6000803e3d6000fd5b505050506040513d601f19601f82011682018060405250810190610a219190612a93565b509098975050505050505050565b6000610a706040518060400160405280601a81526020017f62617365546f6b656e73436f6e7461696e732061646472657373000000000000815250836116e3565b610a7b600283611728565b92915050565b610a8961174a565b60006001600160a01b038216610b2a57604051600090339047908381818185875af1925050503d8060008114610adb576040519150601f19603f3d011682016040523d82523d6000602084013e610ae0565b606091505b5050905080610b245760405162461bcd60e51b815260206004820152601060248201526f5472616e73666572206661696c65642160801b604482015260640161049f565b50610c08565b6040516370a0823160e01b81523060048201526001600160a01b038316906370a0823190602401602060405180830381865afa158015610b6e573d6000803e3d6000fd5b505050506040513d601f19601f82011682018060405250810190610b929190612aae565b60405163a9059cbb60e01b8152336004820152602481018290529091506001600160a01b0383169063a9059cbb906044016020604051808303816000875af1158015610be2573d6000803e3d6000fd5b505050506040513d601f19601f82011682018060405250810190610c069190612a93565b505b6040518181526001600160a01b0383169033907f9207361cc2a04b9c7a06691df1eb87c6a63957ae88bf01d0d18c81e3d12720999060200160405180910390a35050565b610c5461174a565b610c5e60006117a4565b565b6000806000610c6f85856117f4565b5050905080610cdf57846001600160a01b031663d21220a76040518163ffffffff1660e01b8152600401602060405180830381865afa158015610cb6573d6000803e3d6000fd5b505050506040513d601f19601f82011682018060405250810190610cda9190612b59565b610d41565b846001600160a01b0316630dfe16816040518163ffffffff1660e01b8152600401602060405180830381865afa158015610d1d573d6000803e3d6000fd5b505050506040513d601f19601f82011682018060405250810190610d419190612b59565b91506000610d50868684611b6a565b925050506000610d5f82611dc7565b90506000610d768284600001518560200151610e04565b90506000610d8d838560600151866040015161043e565b905081811015610da05760009650610dad565b610daa8282612b76565b96505b50505050509250929050565b610dc161174a565b610dcc600282611218565b506040516001600160a01b038216907ffa1388d6e7328e9c711a539b0addfc27de8bfb6f5924cce26f80f41023b1525390600090a250565b6000808411610e6a5760405162461bcd60e51b815260206004820152602c60248201527f556e697377617056324c6962726172793a20494e53554646494349454e545f4f60448201526b155514155517d05353d5539560a21b606482015260840161049f565b600083118015610e7a5750600082115b610e965760405162461bcd60e51b815260040161049f9061294a565b6000610eae6103e8610ea88688611234565b90611234565b90506000610ec26103e5610ea88689612132565b9050610ed3600161050483856129be565b9695505050505050565b610ee561174a565b600680546001600160a01b0319166001600160a01b0384811691821790925560408051602081018252600080825291516310ac2ddf60e21b8152309486949293927f0000000000000000000000000000000000000000000000000000000000000000909116916342b0b77c91610f6691889190889088908890600401612b8d565b600060405180830381600087803b158015610f8057600080fd5b505af1158015610f94573d6000803e3d6000fd5b50505050505050505050565b610fa861174a565b6040516370a0823160e01b81523060048201526000906001600160a01b038316906370a0823190602401602060405180830381865afa158015610fef573d6000803e3d6000fd5b505050506040513d601f19601f820116820180604052508101906110139190612aae565b905080156110af57816001600160a01b031663a9059cbb61103c6000546001600160a01b031690565b6040516001600160e01b031960e084901b1681526001600160a01b039091166004820152602481018490526044016020604051808303816000875af1158015611089573d6000803e3d6000fd5b505050506040513d601f19601f820116820180604052508101906110ad9190612a93565b505b6110ba60028361213e565b506040516001600160a01b038316907fdc23a849435922f20a9732eb85192a9d0c1cb34725ebe6d7de0be10212ba02fb90600090a25050565b606060006111016002612153565b90508067ffffffffffffffff81111561111c5761111c6126cf565b604051908082528060200260200182016040528015611145578160200160208202803683370190505b50915060005b8181101561119a5761115e60028261215d565b83828151811061117057611170612bd6565b6001600160a01b03909216602092830291909101909101528061119281612bec565b91505061114b565b505090565b6111a761174a565b6001600160a01b03811661120c5760405162461bcd60e51b815260206004820152602660248201527f4f776e61626c653a206e6577206f776e657220697320746865207a65726f206160448201526564647265737360d01b606482015260840161049f565b611215816117a4565b50565b600061122d836001600160a01b038416612169565b9392505050565b600061122d8284612c07565b600061122d8284612b41565b611215816040516024016112609190612c26565b60408051601f198184030181529190526020810180516001600160e01b031663104c13eb60e21b1790526121b8565b6112d482826040516024016112a5929190612c39565b60408051601f198184030181529190526020810180516001600160e01b0316632d839cb360e21b1790526121b8565b5050565b60008060006112e78686610c60565b6007829055600980546001600160a01b0319166001600160a01b0383161790556040805160a081018252600080825260208201819052918101829052606081018290526080810191909152919350915061134187876117f4565b6001600160a01b039081166020858101919091529116835290151560408084018290526009805460ff60a01b1916600160a01b909302929092179091558051608081018252600080825292810183905290810182905260608101919091526113ae88888460400151611b6a565b6001600160a01b03918216608086015291811660608501819052600180546001600160a01b031916909117905583516040516370a0823160e01b81523060048201529293506000929116906370a0823190602401602060405180830381865afa15801561141f573d6000803e3d6000fd5b505050506040513d601f19601f820116820180604052508101906114439190612aae565b90508060088190555061147c6040518060400160405280600e81526020016d03137b93937bba0b6b7bab73a1d160951b8152508861128f565b600080846040015161149057886000611494565b6000895b915091506114ec6040518060400160405280600c81526020016b30b6b7bab73a1827baba1e9f60a11b815250836040518060400160405280600c81526020016b30b6b7bab73a18a7baba1e9f60a11b815250846121c1565b60006115018a86600001518760200151610e04565b905061152560405180606001604052806026815260200161305f602691398261128f565b600061153a8b8760600151886040015161043e565b905061155e60405180606001604052806030815260200161302f603091398261128f565b6040805160e081018252600080825260208201819052918101829052606081018290526080810182905260a0810182905260c08101919091526060808901516001600160a01b0390811683526080808b015182166020808601919091526040808d0151151581870152818d01518416948601949094528b519092169084015260a0830185905260c0830184905290516000916116549184910181516001600160a01b0390811682526020808401518216908301526040808401511515908301526060808401518216908301526080808401519091169082015260a0828101519082015260c0918201519181019190915260e00190565b60408051601f198184030181529082905260608b015163022c0d9f60e01b83529092506001600160a01b03169063022c0d9f9061169b908990899030908790600401612b14565b600060405180830381600087803b1580156116b557600080fd5b505af11580156116c9573d6000803e3d6000fd5b5050505060019b5050505050505050505050509392505050565b6112d482826040516024016116f9929190612c5b565b60408051601f198184030181529190526020810180516001600160e01b031663319af33360e01b1790526121b8565b6001600160a01b0381166000908152600183016020526040812054151561122d565b6000546001600160a01b03163314610c5e5760405162461bcd60e51b815260206004820181905260248201527f4f776e61626c653a2063616c6c6572206973206e6f7420746865206f776e6572604482015260640161049f565b600080546001600160a01b038381166001600160a01b0319831681178455604051919092169283917f8be0079c531659141344cd1fd0a4f28419497f9722a3daafe3b4186f6b6457e09190a35050565b6000806000836001600160a01b0316856001600160a01b0316141561184f5760405162461bcd60e51b815260206004820152601160248201527053616d652070616972206164647265737360781b604482015260640161049f565b600080866001600160a01b0316630dfe16816040518163ffffffff1660e01b8152600401602060405180830381865afa158015611890573d6000803e3d6000fd5b505050506040513d601f19601f820116820180604052508101906118b49190612b59565b876001600160a01b031663d21220a76040518163ffffffff1660e01b8152600401602060405180830381865afa1580156118f2573d6000803e3d6000fd5b505050506040513d601f19601f820116820180604052508101906119169190612b59565b91509150600080876001600160a01b0316630dfe16816040518163ffffffff1660e01b8152600401602060405180830381865afa15801561195b573d6000803e3d6000fd5b505050506040513d601f19601f8201168201806040525081019061197f9190612b59565b886001600160a01b031663d21220a76040518163ffffffff1660e01b8152600401602060405180830381865afa1580156119bd573d6000803e3d6000fd5b505050506040513d601f19601f820116820180604052508101906119e19190612b59565b91509150826001600160a01b0316846001600160a01b0316108015611a175750806001600160a01b0316826001600160a01b0316105b611a635760405162461bcd60e51b815260206004820152601d60248201527f4e6f6e207374616e6461726420756e697377617020414d4d2070616972000000604482015260640161049f565b816001600160a01b0316846001600160a01b0316148015611a955750806001600160a01b0316836001600160a01b0316145b611ae15760405162461bcd60e51b815260206004820152601760248201527f526571756972652073616d6520746f6b656e2070616972000000000000000000604482015260640161049f565b611aea84610a2f565b80611af95750611af983610a2f565b611b3d5760405162461bcd60e51b81526020600482015260156024820152742737903130b9b2903a37b5b2b71034b7103830b4b960591b604482015260640161049f565b611b4684610a2f565b611b535760008385611b58565b600184845b919b909a509098509650505050505050565b600080611b986040518060800160405280600081526020016000815260200160008152602001600081525090565b600080876001600160a01b0316630902f1ac6040518163ffffffff1660e01b8152600401606060405180830381865afa158015611bd9573d6000803e3d6000fd5b505050506040513d601f19601f82011682018060405250810190611bfd9190612c9c565b506001600160701b031691506001600160701b03169150600080886001600160a01b0316630902f1ac6040518163ffffffff1660e01b8152600401606060405180830381865afa158015611c55573d6000803e3d6000fd5b505050506040513d601f19601f82011682018060405250810190611c799190612c9c565b506001600160701b031691506001600160701b0316915060008089611cbd57611cab86611ca587612210565b90612245565b611cb885611ca586612210565b611cd7565b611cca85611ca588612210565b611cd784611ca587612210565b9092509050611ce68282612276565b15611d615760408051808201909152601f81527f6865726520707269636530206973206c657373207468656e20707269636531006020820152611d3290611d2d8484612276565b61228a565b8b98508a975089611d465784868486611d4b565b858585855b60608b015260408a015260208901528752611db8565b611d8d6040518060400160405280600b81526020016a68657265696e20656c736560a81b81525061124c565b8a98508b975089611da15782848688611da6565b838387875b60608b015260408a0152602089015287525b50505050505093509350939050565b6000808260200151836000015110611de3578260200151611de6565b82515b905060008360600151846040015110611e03578360600151611e09565b83604001515b90506000818310611e1a5781611e1c565b825b9050600069d3c21bcecceda1000000821115611e42575068056bc75e2d63100000611f59565b69152d02c7e14af6800000821115611e635750678ac7230489e80000611f59565b69021e19e0c9bab2400000821115611e845750670de0b6b3a7640000611f59565b683635c9adc5dea00000821115611ea4575067016345785d8a0000611f59565b68056bc75e2d63100000821115611ec35750662386f26fc10000611f59565b678ac7230489e80000821115611ee1575066038d7ea4c68000611f59565b670de0b6b3a7640000821115611efe5750655af3107a4000611f59565b67016345785d8a0000821115611f1b57506509184e72a000611f59565b662386f26fc10000821115611f36575064e8d4a51000611f59565b66038d7ea4c68000821115611f51575064174876e800611f59565b506402540be4005b611f866040518060400160405280600b81526020016a191919191919191919191960aa1b8152508261128f565b600080600080848a60000151611f9c91906129be565b858b60400151611fac91906129be565b868c60200151611fbc91906129be565b878d60600151611fcc91906129be565b935093509350935060008184611fe29190612cec565b611fec8487612cec565b611ff69190612d71565b905060006120048587612db0565b83612010866002612cec565b61201a9190612cec565b6120249190612cec565b905060006120328587612cec565b61203c8589612cec565b6120469190612d71565b6120508587612cec565b61205a9190612cec565b905060008061206a8585856122cf565b9150915060008213801561207d57508682125b801561208857508582125b806120a8575060008113801561209d57508681125b80156120a857508581125b6120e85760405162461bcd60e51b81526020600482015260116024820152702bb937b7339034b7383aba1037b93232b960791b604482015260640161049f565b6000821380156120f757508682125b801561210257508582125b612115576121108a82612c07565b61211f565b61211f8a83612c07565b9f9e505050505050505050505050505050565b600061122d8284612b76565b600061122d836001600160a01b0384166123ae565b6000610a7b825490565b600061122d83836124a1565b60008181526001830160205260408120546121b057508154600181810184556000848152602080822090930184905584548482528286019093526040902091909155610a7b565b506000610a7b565b611215816124cb565b61220a848484846040516024016121db9493929190612df1565b60408051601f198184030181529190526020810180516001600160e01b031663c67ea9d160e01b1790526121b8565b50505050565b60408051602081019091526000815260408051602081019091528061223d84670de0b6b3a76400006124ec565b905292915050565b60408051602081019091526000815260408051602081019091528351819061226d908561256b565b90529392505050565b600061228283836125ad565b159392505050565b6112d482826040516024016122a0929190612e2e565b60408051601f198184030181529190526020810180516001600160e01b031663c3b5563560e01b1790526121b8565b60008080836122df876004612cec565b6122e99190612cec565b6122f4600287612f87565b6122fe9190612d71565b9050600081136123415760405162461bcd60e51b815260206004820152600e60248201526d21b7b6b83632bc10373ab6b132b960911b604482015260640161049f565b600061234c826125df565b9050612359876002612cec565b8161236388612f96565b61236d9190612db0565b6123779190612fb3565b9350612384876002612cec565b8161238e88612f96565b6123989190612d71565b6123a29190612fb3565b92505050935093915050565b600081815260018301602052604081205480156124975760006123d2600183612b76565b85549091506000906123e690600190612b76565b905081811461244b57600086600001828154811061240657612406612bd6565b906000526020600020015490508087600001848154811061242957612429612bd6565b6000918252602080832090910192909255918252600188019052604090208390555b855486908061245c5761245c612fe1565b600190038181906000526020600020016000905590558560010160008681526020019081526020016000206000905560019350505050610a7b565b6000915050610a7b565b60008260000182815481106124b8576124b8612bd6565b9060005260206000200154905092915050565b60006a636f6e736f6c652e6c6f679050600080835160208501845afa505050565b6000826124fb57506000610a7b565b60006125078385612c07565b90508261251485836129be565b1461122d5760405162461bcd60e51b815260206004820152602160248201527f536166654d6174683a206d756c7469706c69636174696f6e206f766572666c6f6044820152607760f81b606482015260840161049f565b600061122d83836040518060400160405280601a81526020017f536166654d6174683a206469766973696f6e206279207a65726f000000000000815250612660565b8051825160009114156125c257506001610a7b565b81518351116125d25760006125d5565b60025b60ff169392505050565b6000600182116125f1576125f1612ff7565b600061260083620f4240612c07565b91508190508060005b600261261585846129be565b61261f9086612b41565b61262991906129be565b90506103e86126388286612b76565b10156126435761264b565b809350612609565b6126576103e8856129be565b95945050505050565b600081836126815760405162461bcd60e51b815260040161049f9190612c26565b50600061265784866129be565b6000806000606084860312156126a357600080fd5b505081359360208301359350604090920135919050565b6001600160a01b038116811461121557600080fd5b634e487b7160e01b600052604160045260246000fd5b604051601f8201601f1916810167ffffffffffffffff8111828210171561270e5761270e6126cf565b604052919050565b6000806000806080858703121561272c57600080fd5b8435612737816126ba565b9350602085810135935060408601359250606086013567ffffffffffffffff8082111561276357600080fd5b818801915088601f83011261277757600080fd5b813581811115612789576127896126cf565b61279b601f8201601f191685016126e5565b915080825289848285010111156127b157600080fd5b808484018584013760008482840101525080935050505092959194509250565b60008060008060008060a087890312156127ea57600080fd5b86356127f5816126ba565b955060208701359450604087013593506060870135612813816126ba565b9250608087013567ffffffffffffffff8082111561283057600080fd5b818901915089601f83011261284457600080fd5b81358181111561285357600080fd5b8a602082850101111561286557600080fd5b6020830194508093505050509295509295509295565b60006020828403121561288d57600080fd5b813561122d816126ba565b600080604083850312156128ab57600080fd5b82356128b6816126ba565b915060208301356128c6816126ba565b809150509250929050565b600080604083850312156128e457600080fd5b82356128ef816126ba565b946020939093013593505050565b6020808252825182820181905260009190848201906040850190845b8181101561293e5783516001600160a01b031683529284019291840191600101612919565b50909695505050505050565b60208082526028908201527f556e697377617056324c6962726172793a20494e53554646494349454e545f4c604082015267495155494449545960c01b606082015260800190565b634e487b7160e01b600052601260045260246000fd5b634e487b7160e01b600052601160045260246000fd5b6000826129cd576129cd612992565b500490565b805180151581146129e257600080fd5b919050565b600060e082840312156129f957600080fd5b60405160e0810181811067ffffffffffffffff82111715612a1c57612a1c6126cf565b6040528251612a2a816126ba565b81526020830151612a3a816126ba565b6020820152612a4b604084016129d2565b60408201526060830151612a5e816126ba565b60608201526080830151612a71816126ba565b608082015260a0838101519082015260c0928301519281019290925250919050565b600060208284031215612aa557600080fd5b61122d826129d2565b600060208284031215612ac057600080fd5b5051919050565b6000815180845260005b81811015612aed57602081850181015186830182015201612ad1565b81811115612aff576000602083870101525b50601f01601f19169290920160200192915050565b84815283602082015260018060a01b0383166040820152608060608201526000610ed36080830184612ac7565b60008219821115612b5457612b546129a8565b500190565b600060208284031215612b6b57600080fd5b815161122d816126ba565b600082821015612b8857612b886129a8565b500390565b6001600160a01b038681168252851660208201526040810184905260a060608201819052600090612bc090830185612ac7565b905061ffff831660808301529695505050505050565b634e487b7160e01b600052603260045260246000fd5b6000600019821415612c0057612c006129a8565b5060010190565b6000816000190483118215151615612c2157612c216129a8565b500290565b60208152600061122d6020830184612ac7565b604081526000612c4c6040830185612ac7565b90508260208301529392505050565b604081526000612c6e6040830185612ac7565b905060018060a01b03831660208301529392505050565b80516001600160701b03811681146129e257600080fd5b600080600060608486031215612cb157600080fd5b612cba84612c85565b9250612cc860208501612c85565b9150604084015163ffffffff81168114612ce157600080fd5b809150509250925092565b60006001600160ff1b0381841382841380821686840486111615612d1257612d126129a8565b600160ff1b6000871282811687830589121615612d3157612d316129a8565b60008712925087820587128484161615612d4d57612d4d6129a8565b87850587128184161615612d6357612d636129a8565b505050929093029392505050565b60008083128015600160ff1b850184121615612d8f57612d8f6129a8565b6001600160ff1b0384018313811615612daa57612daa6129a8565b50500390565b600080821280156001600160ff1b0384900385131615612dd257612dd26129a8565b600160ff1b8390038412811615612deb57612deb6129a8565b50500190565b608081526000612e046080830187612ac7565b8560208401528281036040840152612e1c8186612ac7565b91505082606083015295945050505050565b604081526000612e416040830185612ac7565b905082151560208301529392505050565b80825b6001808611612e645750612e97565b6001600160ff1b03829004821115612e7e57612e7e6129a8565b80861615612e8b57918102915b9490941c938002612e55565b935093915050565b6000828015612eb55760018114612ebf57612ec8565b6001915050610a7b565b82915050610a7b565b5081612ed657506000610a7b565b50600160008213808214612eef578015612f0e57612f28565b6001600160ff1b03839004831115612f0957612f096129a8565b612f28565b6001600160ff1b03839005831215612f2857612f286129a8565b5080831615612f345750805b612f448360011c83840283612e52565b600082136001600160ff1b0382900483111615612f6357612f636129a8565b60008212600160ff1b82900583121615612f7f57612f7f6129a8565b029392505050565b600061122d60ff841683612e9f565b6000600160ff1b821415612fac57612fac6129a8565b5060000390565b600082612fc257612fc2612992565b600160ff1b821460001984141615612fdc57612fdc6129a8565b500590565b634e487b7160e01b600052603160045260246000fd5b634e487b7160e01b600052600160045260246000fdfe6166746572207061796f66662062617365746f6b656e2042616c616e63653d3d3e73656c6c20626f72726f7765642071756f746520746f6b656e206f6e206869676865722070726963653d3d3d3d3e3e20626f72726f772071756f746520746f6b656e2066726f6d20636865617020706f6f6c3d3d3e20a264697066735822122039c396f6cedb181710fe1c22e758ef272249b845c56aa4f75a9ae88a05d53bf064736f6c634300080a0033",
  "linkReferences": {},
  "deployedLinkReferences": {}
}