{
  "_format": "hh-sol-artifact-1",
  "contractName": "MockL2Pool",
  "sourceName": "contracts/contractsAave/mocks/helpers/MockL2Pool.sol",
  "abi": [
    {
      "inputs": [
        {
          "internalType": "contract IPoolAddressesProvider",
          "name": "provider",
          "type": "address"
        }
      ],
      "stateMutability": "nonpayable",
      "type": "constructor"
    },
    {
      "anonymous": false,
      "inputs": [
        {
          "indexed": true,
          "internalType": "address",
          "name": "reserve",
          "type": "address"
        },
        {
          "indexed": true,
          "internalType": "address",
          "name": "backer",
          "type": "address"
        },
        {
          "indexed": false,
          "internalType": "uint256",
          "name": "amount",
          "type": "uint256"
        },
        {
          "indexed": false,
          "internalType": "uint256",
          "name": "fee",
          "type": "uint256"
        }
      ],
      "name": "BackUnbacked",
      "type": "event"
    },
    {
      "anonymous": false,
      "inputs": [
        {
          "indexed": true,
          "internalType": "address",
          "name": "reserve",
          "type": "address"
        },
        {
          "indexed": false,
          "internalType": "address",
          "name": "user",
          "type": "address"
        },
        {
          "indexed": true,
          "internalType": "address",
          "name": "onBehalfOf",
          "type": "address"
        },
        {
          "indexed": false,
          "internalType": "uint256",
          "name": "amount",
          "type": "uint256"
        },
        {
          "indexed": false,
          "internalType": "enum DataTypes.InterestRateMode",
          "name": "interestRateMode",
          "type": "uint8"
        },
        {
          "indexed": false,
          "internalType": "uint256",
          "name": "borrowRate",
          "type": "uint256"
        },
        {
          "indexed": true,
          "internalType": "uint16",
          "name": "referralCode",
          "type": "uint16"
        }
      ],
      "name": "Borrow",
      "type": "event"
    },
    {
      "anonymous": false,
      "inputs": [
        {
          "indexed": true,
          "internalType": "address",
          "name": "target",
          "type": "address"
        },
        {
          "indexed": false,
          "internalType": "address",
          "name": "initiator",
          "type": "address"
        },
        {
          "indexed": true,
          "internalType": "address",
          "name": "asset",
          "type": "address"
        },
        {
          "indexed": false,
          "internalType": "uint256",
          "name": "amount",
          "type": "uint256"
        },
        {
          "indexed": false,
          "internalType": "enum DataTypes.InterestRateMode",
          "name": "interestRateMode",
          "type": "uint8"
        },
        {
          "indexed": false,
          "internalType": "uint256",
          "name": "premium",
          "type": "uint256"
        },
        {
          "indexed": true,
          "internalType": "uint16",
          "name": "referralCode",
          "type": "uint16"
        }
      ],
      "name": "FlashLoan",
      "type": "event"
    },
    {
      "anonymous": false,
      "inputs": [
        {
          "indexed": true,
          "internalType": "address",
          "name": "asset",
          "type": "address"
        },
        {
          "indexed": false,
          "internalType": "uint256",
          "name": "totalDebt",
          "type": "uint256"
        }
      ],
      "name": "IsolationModeTotalDebtUpdated",
      "type": "event"
    },
    {
      "anonymous": false,
      "inputs": [
        {
          "indexed": true,
          "internalType": "address",
          "name": "collateralAsset",
          "type": "address"
        },
        {
          "indexed": true,
          "internalType": "address",
          "name": "debtAsset",
          "type": "address"
        },
        {
          "indexed": true,
          "internalType": "address",
          "name": "user",
          "type": "address"
        },
        {
          "indexed": false,
          "internalType": "uint256",
          "name": "debtToCover",
          "type": "uint256"
        },
        {
          "indexed": false,
          "internalType": "uint256",
          "name": "liquidatedCollateralAmount",
          "type": "uint256"
        },
        {
          "indexed": false,
          "internalType": "address",
          "name": "liquidator",
          "type": "address"
        },
        {
          "indexed": false,
          "internalType": "bool",
          "name": "receiveAToken",
          "type": "bool"
        }
      ],
      "name": "LiquidationCall",
      "type": "event"
    },
    {
      "anonymous": false,
      "inputs": [
        {
          "indexed": true,
          "internalType": "address",
          "name": "reserve",
          "type": "address"
        },
        {
          "indexed": false,
          "internalType": "address",
          "name": "user",
          "type": "address"
        },
        {
          "indexed": true,
          "internalType": "address",
          "name": "onBehalfOf",
          "type": "address"
        },
        {
          "indexed": false,
          "internalType": "uint256",
          "name": "amount",
          "type": "uint256"
        },
        {
          "indexed": true,
          "internalType": "uint16",
          "name": "referralCode",
          "type": "uint16"
        }
      ],
      "name": "MintUnbacked",
      "type": "event"
    },
    {
      "anonymous": false,
      "inputs": [
        {
          "indexed": true,
          "internalType": "address",
          "name": "reserve",
          "type": "address"
        },
        {
          "indexed": false,
          "internalType": "uint256",
          "name": "amountMinted",
          "type": "uint256"
        }
      ],
      "name": "MintedToTreasury",
      "type": "event"
    },
    {
      "anonymous": false,
      "inputs": [
        {
          "indexed": true,
          "internalType": "address",
          "name": "reserve",
          "type": "address"
        },
        {
          "indexed": true,
          "internalType": "address",
          "name": "user",
          "type": "address"
        }
      ],
      "name": "RebalanceStableBorrowRate",
      "type": "event"
    },
    {
      "anonymous": false,
      "inputs": [
        {
          "indexed": true,
          "internalType": "address",
          "name": "reserve",
          "type": "address"
        },
        {
          "indexed": true,
          "internalType": "address",
          "name": "user",
          "type": "address"
        },
        {
          "indexed": true,
          "internalType": "address",
          "name": "repayer",
          "type": "address"
        },
        {
          "indexed": false,
          "internalType": "uint256",
          "name": "amount",
          "type": "uint256"
        },
        {
          "indexed": false,
          "internalType": "bool",
          "name": "useATokens",
          "type": "bool"
        }
      ],
      "name": "Repay",
      "type": "event"
    },
    {
      "anonymous": false,
      "inputs": [
        {
          "indexed": true,
          "internalType": "address",
          "name": "reserve",
          "type": "address"
        },
        {
          "indexed": false,
          "internalType": "uint256",
          "name": "liquidityRate",
          "type": "uint256"
        },
        {
          "indexed": false,
          "internalType": "uint256",
          "name": "stableBorrowRate",
          "type": "uint256"
        },
        {
          "indexed": false,
          "internalType": "uint256",
          "name": "variableBorrowRate",
          "type": "uint256"
        },
        {
          "indexed": false,
          "internalType": "uint256",
          "name": "liquidityIndex",
          "type": "uint256"
        },
        {
          "indexed": false,
          "internalType": "uint256",
          "name": "variableBorrowIndex",
          "type": "uint256"
        }
      ],
      "name": "ReserveDataUpdated",
      "type": "event"
    },
    {
      "anonymous": false,
      "inputs": [
        {
          "indexed": true,
          "internalType": "address",
          "name": "reserve",
          "type": "address"
        },
        {
          "indexed": true,
          "internalType": "address",
          "name": "user",
          "type": "address"
        }
      ],
      "name": "ReserveUsedAsCollateralDisabled",
      "type": "event"
    },
    {
      "anonymous": false,
      "inputs": [
        {
          "indexed": true,
          "internalType": "address",
          "name": "reserve",
          "type": "address"
        },
        {
          "indexed": true,
          "internalType": "address",
          "name": "user",
          "type": "address"
        }
      ],
      "name": "ReserveUsedAsCollateralEnabled",
      "type": "event"
    },
    {
      "anonymous": false,
      "inputs": [
        {
          "indexed": true,
          "internalType": "address",
          "name": "reserve",
          "type": "address"
        },
        {
          "indexed": false,
          "internalType": "address",
          "name": "user",
          "type": "address"
        },
        {
          "indexed": true,
          "internalType": "address",
          "name": "onBehalfOf",
          "type": "address"
        },
        {
          "indexed": false,
          "internalType": "uint256",
          "name": "amount",
          "type": "uint256"
        },
        {
          "indexed": true,
          "internalType": "uint16",
          "name": "referralCode",
          "type": "uint16"
        }
      ],
      "name": "Supply",
      "type": "event"
    },
    {
      "anonymous": false,
      "inputs": [
        {
          "indexed": true,
          "internalType": "address",
          "name": "reserve",
          "type": "address"
        },
        {
          "indexed": true,
          "internalType": "address",
          "name": "user",
          "type": "address"
        },
        {
          "indexed": false,
          "internalType": "enum DataTypes.InterestRateMode",
          "name": "interestRateMode",
          "type": "uint8"
        }
      ],
      "name": "SwapBorrowRateMode",
      "type": "event"
    },
    {
      "anonymous": false,
      "inputs": [
        {
          "indexed": true,
          "internalType": "address",
          "name": "user",
          "type": "address"
        },
        {
          "indexed": false,
          "internalType": "uint8",
          "name": "categoryId",
          "type": "uint8"
        }
      ],
      "name": "UserEModeSet",
      "type": "event"
    },
    {
      "anonymous": false,
      "inputs": [
        {
          "indexed": true,
          "internalType": "address",
          "name": "reserve",
          "type": "address"
        },
        {
          "indexed": true,
          "internalType": "address",
          "name": "user",
          "type": "address"
        },
        {
          "indexed": true,
          "internalType": "address",
          "name": "to",
          "type": "address"
        },
        {
          "indexed": false,
          "internalType": "uint256",
          "name": "amount",
          "type": "uint256"
        }
      ],
      "name": "Withdraw",
      "type": "event"
    },
    {
      "inputs": [],
      "name": "ADDRESSES_PROVIDER",
      "outputs": [
        {
          "internalType": "contract IPoolAddressesProvider",
          "name": "",
          "type": "address"
        }
      ],
      "stateMutability": "view",
      "type": "function"
    },
    {
      "inputs": [],
      "name": "BRIDGE_PROTOCOL_FEE",
      "outputs": [
        {
          "internalType": "uint256",
          "name": "",
          "type": "uint256"
        }
      ],
      "stateMutability": "view",
      "type": "function"
    },
    {
      "inputs": [],
      "name": "FLASHLOAN_PREMIUM_TOTAL",
      "outputs": [
        {
          "internalType": "uint128",
          "name": "",
          "type": "uint128"
        }
      ],
      "stateMutability": "view",
      "type": "function"
    },
    {
      "inputs": [],
      "name": "FLASHLOAN_PREMIUM_TO_PROTOCOL",
      "outputs": [
        {
          "internalType": "uint128",
          "name": "",
          "type": "uint128"
        }
      ],
      "stateMutability": "view",
      "type": "function"
    },
    {
      "inputs": [],
      "name": "MAX_NUMBER_RESERVES",
      "outputs": [
        {
          "internalType": "uint16",
          "name": "",
          "type": "uint16"
        }
      ],
      "stateMutability": "view",
      "type": "function"
    },
    {
      "inputs": [],
      "name": "MAX_STABLE_RATE_BORROW_SIZE_PERCENT",
      "outputs": [
        {
          "internalType": "uint256",
          "name": "",
          "type": "uint256"
        }
      ],
      "stateMutability": "view",
      "type": "function"
    },
    {
      "inputs": [],
      "name": "POOL_REVISION",
      "outputs": [
        {
          "internalType": "uint256",
          "name": "",
          "type": "uint256"
        }
      ],
      "stateMutability": "view",
      "type": "function"
    },
    {
      "inputs": [
        {
          "internalType": "address",
          "name": "asset",
          "type": "address"
        },
        {
          "internalType": "uint256",
          "name": "amount",
          "type": "uint256"
        },
        {
          "internalType": "uint256",
          "name": "fee",
          "type": "uint256"
        }
      ],
      "name": "backUnbacked",
      "outputs": [
        {
          "internalType": "uint256",
          "name": "",
          "type": "uint256"
        }
      ],
      "stateMutability": "nonpayable",
      "type": "function"
    },
    {
      "inputs": [
        {
          "internalType": "address",
          "name": "asset",
          "type": "address"
        },
        {
          "internalType": "uint256",
          "name": "amount",
          "type": "uint256"
        },
        {
          "internalType": "uint256",
          "name": "interestRateMode",
          "type": "uint256"
        },
        {
          "internalType": "uint16",
          "name": "referralCode",
          "type": "uint16"
        },
        {
          "internalType": "address",
          "name": "onBehalfOf",
          "type": "address"
        }
      ],
      "name": "borrow",
      "outputs": [],
      "stateMutability": "nonpayable",
      "type": "function"
    },
    {
      "inputs": [
        {
          "internalType": "bytes32",
          "name": "args",
          "type": "bytes32"
        }
      ],
      "name": "borrow",
      "outputs": [],
      "stateMutability": "nonpayable",
      "type": "function"
    },
    {
      "inputs": [
        {
          "internalType": "uint8",
          "name": "id",
          "type": "uint8"
        },
        {
          "components": [
            {
              "internalType": "uint16",
              "name": "ltv",
              "type": "uint16"
            },
            {
              "internalType": "uint16",
              "name": "liquidationThreshold",
              "type": "uint16"
            },
            {
              "internalType": "uint16",
              "name": "liquidationBonus",
              "type": "uint16"
            },
            {
              "internalType": "address",
              "name": "priceSource",
              "type": "address"
            },
            {
              "internalType": "string",
              "name": "label",
              "type": "string"
            }
          ],
          "internalType": "struct DataTypes.EModeCategory",
          "name": "category",
          "type": "tuple"
        }
      ],
      "name": "configureEModeCategory",
      "outputs": [],
      "stateMutability": "nonpayable",
      "type": "function"
    },
    {
      "inputs": [
        {
          "internalType": "address",
          "name": "asset",
          "type": "address"
        },
        {
          "internalType": "uint256",
          "name": "amount",
          "type": "uint256"
        },
        {
          "internalType": "address",
          "name": "onBehalfOf",
          "type": "address"
        },
        {
          "internalType": "uint16",
          "name": "referralCode",
          "type": "uint16"
        }
      ],
      "name": "deposit",
      "outputs": [],
      "stateMutability": "nonpayable",
      "type": "function"
    },
    {
      "inputs": [
        {
          "internalType": "address",
          "name": "asset",
          "type": "address"
        }
      ],
      "name": "dropReserve",
      "outputs": [],
      "stateMutability": "nonpayable",
      "type": "function"
    },
    {
      "inputs": [
        {
          "internalType": "address",
          "name": "asset",
          "type": "address"
        },
        {
          "internalType": "address",
          "name": "from",
          "type": "address"
        },
        {
          "internalType": "address",
          "name": "to",
          "type": "address"
        },
        {
          "internalType": "uint256",
          "name": "amount",
          "type": "uint256"
        },
        {
          "internalType": "uint256",
          "name": "balanceFromBefore",
          "type": "uint256"
        },
        {
          "internalType": "uint256",
          "name": "balanceToBefore",
          "type": "uint256"
        }
      ],
      "name": "finalizeTransfer",
      "outputs": [],
      "stateMutability": "nonpayable",
      "type": "function"
    },
    {
      "inputs": [
        {
          "internalType": "address",
          "name": "receiverAddress",
          "type": "address"
        },
        {
          "internalType": "address[]",
          "name": "assets",
          "type": "address[]"
        },
        {
          "internalType": "uint256[]",
          "name": "amounts",
          "type": "uint256[]"
        },
        {
          "internalType": "uint256[]",
          "name": "interestRateModes",
          "type": "uint256[]"
        },
        {
          "internalType": "address",
          "name": "onBehalfOf",
          "type": "address"
        },
        {
          "internalType": "bytes",
          "name": "params",
          "type": "bytes"
        },
        {
          "internalType": "uint16",
          "name": "referralCode",
          "type": "uint16"
        }
      ],
      "name": "flashLoan",
      "outputs": [],
      "stateMutability": "nonpayable",
      "type": "function"
    },
    {
      "inputs": [
        {
          "internalType": "address",
          "name": "receiverAddress",
          "type": "address"
        },
        {
          "internalType": "address",
          "name": "asset",
          "type": "address"
        },
        {
          "internalType": "uint256",
          "name": "amount",
          "type": "uint256"
        },
        {
          "internalType": "bytes",
          "name": "params",
          "type": "bytes"
        },
        {
          "internalType": "uint16",
          "name": "referralCode",
          "type": "uint16"
        }
      ],
      "name": "flashLoanSimple",
      "outputs": [],
      "stateMutability": "nonpayable",
      "type": "function"
    },
    {
      "inputs": [
        {
          "internalType": "address",
          "name": "asset",
          "type": "address"
        }
      ],
      "name": "getConfiguration",
      "outputs": [
        {
          "components": [
            {
              "internalType": "uint256",
              "name": "data",
              "type": "uint256"
            }
          ],
          "internalType": "struct DataTypes.ReserveConfigurationMap",
          "name": "",
          "type": "tuple"
        }
      ],
      "stateMutability": "view",
      "type": "function"
    },
    {
      "inputs": [
        {
          "internalType": "uint8",
          "name": "id",
          "type": "uint8"
        }
      ],
      "name": "getEModeCategoryData",
      "outputs": [
        {
          "components": [
            {
              "internalType": "uint16",
              "name": "ltv",
              "type": "uint16"
            },
            {
              "internalType": "uint16",
              "name": "liquidationThreshold",
              "type": "uint16"
            },
            {
              "internalType": "uint16",
              "name": "liquidationBonus",
              "type": "uint16"
            },
            {
              "internalType": "address",
              "name": "priceSource",
              "type": "address"
            },
            {
              "internalType": "string",
              "name": "label",
              "type": "string"
            }
          ],
          "internalType": "struct DataTypes.EModeCategory",
          "name": "",
          "type": "tuple"
        }
      ],
      "stateMutability": "view",
      "type": "function"
    },
    {
      "inputs": [
        {
          "internalType": "uint16",
          "name": "id",
          "type": "uint16"
        }
      ],
      "name": "getReserveAddressById",
      "outputs": [
        {
          "internalType": "address",
          "name": "",
          "type": "address"
        }
      ],
      "stateMutability": "view",
      "type": "function"
    },
    {
      "inputs": [
        {
          "internalType": "address",
          "name": "asset",
          "type": "address"
        }
      ],
      "name": "getReserveData",
      "outputs": [
        {
          "components": [
            {
              "components": [
                {
                  "internalType": "uint256",
                  "name": "data",
                  "type": "uint256"
                }
              ],
              "internalType": "struct DataTypes.ReserveConfigurationMap",
              "name": "configuration",
              "type": "tuple"
            },
            {
              "internalType": "uint128",
              "name": "liquidityIndex",
              "type": "uint128"
            },
            {
              "internalType": "uint128",
              "name": "currentLiquidityRate",
              "type": "uint128"
            },
            {
              "internalType": "uint128",
              "name": "variableBorrowIndex",
              "type": "uint128"
            },
            {
              "internalType": "uint128",
              "name": "currentVariableBorrowRate",
              "type": "uint128"
            },
            {
              "internalType": "uint128",
              "name": "currentStableBorrowRate",
              "type": "uint128"
            },
            {
              "internalType": "uint40",
              "name": "lastUpdateTimestamp",
              "type": "uint40"
            },
            {
              "internalType": "uint16",
              "name": "id",
              "type": "uint16"
            },
            {
              "internalType": "address",
              "name": "aTokenAddress",
              "type": "address"
            },
            {
              "internalType": "address",
              "name": "stableDebtTokenAddress",
              "type": "address"
            },
            {
              "internalType": "address",
              "name": "variableDebtTokenAddress",
              "type": "address"
            },
            {
              "internalType": "address",
              "name": "interestRateStrategyAddress",
              "type": "address"
            },
            {
              "internalType": "uint128",
              "name": "accruedToTreasury",
              "type": "uint128"
            },
            {
              "internalType": "uint128",
              "name": "unbacked",
              "type": "uint128"
            },
            {
              "internalType": "uint128",
              "name": "isolationModeTotalDebt",
              "type": "uint128"
            }
          ],
          "internalType": "struct DataTypes.ReserveData",
          "name": "",
          "type": "tuple"
        }
      ],
      "stateMutability": "view",
      "type": "function"
    },
    {
      "inputs": [
        {
          "internalType": "address",
          "name": "asset",
          "type": "address"
        }
      ],
      "name": "getReserveNormalizedIncome",
      "outputs": [
        {
          "internalType": "uint256",
          "name": "",
          "type": "uint256"
        }
      ],
      "stateMutability": "view",
      "type": "function"
    },
    {
      "inputs": [
        {
          "internalType": "address",
          "name": "asset",
          "type": "address"
        }
      ],
      "name": "getReserveNormalizedVariableDebt",
      "outputs": [
        {
          "internalType": "uint256",
          "name": "",
          "type": "uint256"
        }
      ],
      "stateMutability": "view",
      "type": "function"
    },
    {
      "inputs": [],
      "name": "getReservesList",
      "outputs": [
        {
          "internalType": "address[]",
          "name": "",
          "type": "address[]"
        }
      ],
      "stateMutability": "view",
      "type": "function"
    },
    {
      "inputs": [
        {
          "internalType": "address",
          "name": "user",
          "type": "address"
        }
      ],
      "name": "getUserAccountData",
      "outputs": [
        {
          "internalType": "uint256",
          "name": "totalCollateralBase",
          "type": "uint256"
        },
        {
          "internalType": "uint256",
          "name": "totalDebtBase",
          "type": "uint256"
        },
        {
          "internalType": "uint256",
          "name": "availableBorrowsBase",
          "type": "uint256"
        },
        {
          "internalType": "uint256",
          "name": "currentLiquidationThreshold",
          "type": "uint256"
        },
        {
          "internalType": "uint256",
          "name": "ltv",
          "type": "uint256"
        },
        {
          "internalType": "uint256",
          "name": "healthFactor",
          "type": "uint256"
        }
      ],
      "stateMutability": "view",
      "type": "function"
    },
    {
      "inputs": [
        {
          "internalType": "address",
          "name": "user",
          "type": "address"
        }
      ],
      "name": "getUserConfiguration",
      "outputs": [
        {
          "components": [
            {
              "internalType": "uint256",
              "name": "data",
              "type": "uint256"
            }
          ],
          "internalType": "struct DataTypes.UserConfigurationMap",
          "name": "",
          "type": "tuple"
        }
      ],
      "stateMutability": "view",
      "type": "function"
    },
    {
      "inputs": [
        {
          "internalType": "address",
          "name": "user",
          "type": "address"
        }
      ],
      "name": "getUserEMode",
      "outputs": [
        {
          "internalType": "uint256",
          "name": "",
          "type": "uint256"
        }
      ],
      "stateMutability": "view",
      "type": "function"
    },
    {
      "inputs": [
        {
          "internalType": "address",
          "name": "asset",
          "type": "address"
        },
        {
          "internalType": "address",
          "name": "aTokenAddress",
          "type": "address"
        },
        {
          "internalType": "address",
          "name": "stableDebtAddress",
          "type": "address"
        },
        {
          "internalType": "address",
          "name": "variableDebtAddress",
          "type": "address"
        },
        {
          "internalType": "address",
          "name": "interestRateStrategyAddress",
          "type": "address"
        }
      ],
      "name": "initReserve",
      "outputs": [],
      "stateMutability": "nonpayable",
      "type": "function"
    },
    {
      "inputs": [
        {
          "internalType": "contract IPoolAddressesProvider",
          "name": "provider",
          "type": "address"
        }
      ],
      "name": "initialize",
      "outputs": [],
      "stateMutability": "nonpayable",
      "type": "function"
    },
    {
      "inputs": [
        {
          "internalType": "address",
          "name": "collateralAsset",
          "type": "address"
        },
        {
          "internalType": "address",
          "name": "debtAsset",
          "type": "address"
        },
        {
          "internalType": "address",
          "name": "user",
          "type": "address"
        },
        {
          "internalType": "uint256",
          "name": "debtToCover",
          "type": "uint256"
        },
        {
          "internalType": "bool",
          "name": "receiveAToken",
          "type": "bool"
        }
      ],
      "name": "liquidationCall",
      "outputs": [],
      "stateMutability": "nonpayable",
      "type": "function"
    },
    {
      "inputs": [
        {
          "internalType": "bytes32",
          "name": "args1",
          "type": "bytes32"
        },
        {
          "internalType": "bytes32",
          "name": "args2",
          "type": "bytes32"
        }
      ],
      "name": "liquidationCall",
      "outputs": [],
      "stateMutability": "nonpayable",
      "type": "function"
    },
    {
      "inputs": [
        {
          "internalType": "address[]",
          "name": "assets",
          "type": "address[]"
        }
      ],
      "name": "mintToTreasury",
      "outputs": [],
      "stateMutability": "nonpayable",
      "type": "function"
    },
    {
      "inputs": [
        {
          "internalType": "address",
          "name": "asset",
          "type": "address"
        },
        {
          "internalType": "uint256",
          "name": "amount",
          "type": "uint256"
        },
        {
          "internalType": "address",
          "name": "onBehalfOf",
          "type": "address"
        },
        {
          "internalType": "uint16",
          "name": "referralCode",
          "type": "uint16"
        }
      ],
      "name": "mintUnbacked",
      "outputs": [],
      "stateMutability": "nonpayable",
      "type": "function"
    },
    {
      "inputs": [
        {
          "internalType": "bytes32",
          "name": "args",
          "type": "bytes32"
        }
      ],
      "name": "rebalanceStableBorrowRate",
      "outputs": [],
      "stateMutability": "nonpayable",
      "type": "function"
    },
    {
      "inputs": [
        {
          "internalType": "address",
          "name": "asset",
          "type": "address"
        },
        {
          "internalType": "address",
          "name": "user",
          "type": "address"
        }
      ],
      "name": "rebalanceStableBorrowRate",
      "outputs": [],
      "stateMutability": "nonpayable",
      "type": "function"
    },
    {
      "inputs": [
        {
          "internalType": "bytes32",
          "name": "args",
          "type": "bytes32"
        }
      ],
      "name": "repay",
      "outputs": [
        {
          "internalType": "uint256",
          "name": "",
          "type": "uint256"
        }
      ],
      "stateMutability": "nonpayable",
      "type": "function"
    },
    {
      "inputs": [
        {
          "internalType": "address",
          "name": "asset",
          "type": "address"
        },
        {
          "internalType": "uint256",
          "name": "amount",
          "type": "uint256"
        },
        {
          "internalType": "uint256",
          "name": "interestRateMode",
          "type": "uint256"
        },
        {
          "internalType": "address",
          "name": "onBehalfOf",
          "type": "address"
        }
      ],
      "name": "repay",
      "outputs": [
        {
          "internalType": "uint256",
          "name": "",
          "type": "uint256"
        }
      ],
      "stateMutability": "nonpayable",
      "type": "function"
    },
    {
      "inputs": [
        {
          "internalType": "address",
          "name": "asset",
          "type": "address"
        },
        {
          "internalType": "uint256",
          "name": "amount",
          "type": "uint256"
        },
        {
          "internalType": "uint256",
          "name": "interestRateMode",
          "type": "uint256"
        }
      ],
      "name": "repayWithATokens",
      "outputs": [
        {
          "internalType": "uint256",
          "name": "",
          "type": "uint256"
        }
      ],
      "stateMutability": "nonpayable",
      "type": "function"
    },
    {
      "inputs": [
        {
          "internalType": "bytes32",
          "name": "args",
          "type": "bytes32"
        }
      ],
      "name": "repayWithATokens",
      "outputs": [
        {
          "internalType": "uint256",
          "name": "",
          "type": "uint256"
        }
      ],
      "stateMutability": "nonpayable",
      "type": "function"
    },
    {
      "inputs": [
        {
          "internalType": "bytes32",
          "name": "args",
          "type": "bytes32"
        },
        {
          "internalType": "bytes32",
          "name": "r",
          "type": "bytes32"
        },
        {
          "internalType": "bytes32",
          "name": "s",
          "type": "bytes32"
        }
      ],
      "name": "repayWithPermit",
      "outputs": [
        {
          "internalType": "uint256",
          "name": "",
          "type": "uint256"
        }
      ],
      "stateMutability": "nonpayable",
      "type": "function"
    },
    {
      "inputs": [
        {
          "internalType": "address",
          "name": "asset",
          "type": "address"
        },
        {
          "internalType": "uint256",
          "name": "amount",
          "type": "uint256"
        },
        {
          "internalType": "uint256",
          "name": "interestRateMode",
          "type": "uint256"
        },
        {
          "internalType": "address",
          "name": "onBehalfOf",
          "type": "address"
        },
        {
          "internalType": "uint256",
          "name": "deadline",
          "type": "uint256"
        },
        {
          "internalType": "uint8",
          "name": "permitV",
          "type": "uint8"
        },
        {
          "internalType": "bytes32",
          "name": "permitR",
          "type": "bytes32"
        },
        {
          "internalType": "bytes32",
          "name": "permitS",
          "type": "bytes32"
        }
      ],
      "name": "repayWithPermit",
      "outputs": [
        {
          "internalType": "uint256",
          "name": "",
          "type": "uint256"
        }
      ],
      "stateMutability": "nonpayable",
      "type": "function"
    },
    {
      "inputs": [
        {
          "internalType": "address",
          "name": "token",
          "type": "address"
        },
        {
          "internalType": "address",
          "name": "to",
          "type": "address"
        },
        {
          "internalType": "uint256",
          "name": "amount",
          "type": "uint256"
        }
      ],
      "name": "rescueTokens",
      "outputs": [],
      "stateMutability": "nonpayable",
      "type": "function"
    },
    {
      "inputs": [
        {
          "internalType": "address",
          "name": "asset",
          "type": "address"
        }
      ],
      "name": "resetIsolationModeTotalDebt",
      "outputs": [],
      "stateMutability": "nonpayable",
      "type": "function"
    },
    {
      "inputs": [
        {
          "internalType": "address",
          "name": "asset",
          "type": "address"
        },
        {
          "components": [
            {
              "internalType": "uint256",
              "name": "data",
              "type": "uint256"
            }
          ],
          "internalType": "struct DataTypes.ReserveConfigurationMap",
          "name": "configuration",
          "type": "tuple"
        }
      ],
      "name": "setConfiguration",
      "outputs": [],
      "stateMutability": "nonpayable",
      "type": "function"
    },
    {
      "inputs": [
        {
          "internalType": "address",
          "name": "asset",
          "type": "address"
        },
        {
          "internalType": "address",
          "name": "rateStrategyAddress",
          "type": "address"
        }
      ],
      "name": "setReserveInterestRateStrategyAddress",
      "outputs": [],
      "stateMutability": "nonpayable",
      "type": "function"
    },
    {
      "inputs": [
        {
          "internalType": "uint8",
          "name": "categoryId",
          "type": "uint8"
        }
      ],
      "name": "setUserEMode",
      "outputs": [],
      "stateMutability": "nonpayable",
      "type": "function"
    },
    {
      "inputs": [
        {
          "internalType": "bytes32",
          "name": "args",
          "type": "bytes32"
        }
      ],
      "name": "setUserUseReserveAsCollateral",
      "outputs": [],
      "stateMutability": "nonpayable",
      "type": "function"
    },
    {
      "inputs": [
        {
          "internalType": "address",
          "name": "asset",
          "type": "address"
        },
        {
          "internalType": "bool",
          "name": "useAsCollateral",
          "type": "bool"
        }
      ],
      "name": "setUserUseReserveAsCollateral",
      "outputs": [],
      "stateMutability": "nonpayable",
      "type": "function"
    },
    {
      "inputs": [
        {
          "internalType": "address",
          "name": "asset",
          "type": "address"
        },
        {
          "internalType": "uint256",
          "name": "amount",
          "type": "uint256"
        },
        {
          "internalType": "address",
          "name": "onBehalfOf",
          "type": "address"
        },
        {
          "internalType": "uint16",
          "name": "referralCode",
          "type": "uint16"
        }
      ],
      "name": "supply",
      "outputs": [],
      "stateMutability": "nonpayable",
      "type": "function"
    },
    {
      "inputs": [
        {
          "internalType": "bytes32",
          "name": "args",
          "type": "bytes32"
        }
      ],
      "name": "supply",
      "outputs": [],
      "stateMutability": "nonpayable",
      "type": "function"
    },
    {
      "inputs": [
        {
          "internalType": "address",
          "name": "asset",
          "type": "address"
        },
        {
          "internalType": "uint256",
          "name": "amount",
          "type": "uint256"
        },
        {
          "internalType": "address",
          "name": "onBehalfOf",
          "type": "address"
        },
        {
          "internalType": "uint16",
          "name": "referralCode",
          "type": "uint16"
        },
        {
          "internalType": "uint256",
          "name": "deadline",
          "type": "uint256"
        },
        {
          "internalType": "uint8",
          "name": "permitV",
          "type": "uint8"
        },
        {
          "internalType": "bytes32",
          "name": "permitR",
          "type": "bytes32"
        },
        {
          "internalType": "bytes32",
          "name": "permitS",
          "type": "bytes32"
        }
      ],
      "name": "supplyWithPermit",
      "outputs": [],
      "stateMutability": "nonpayable",
      "type": "function"
    },
    {
      "inputs": [
        {
          "internalType": "bytes32",
          "name": "args",
          "type": "bytes32"
        },
        {
          "internalType": "bytes32",
          "name": "r",
          "type": "bytes32"
        },
        {
          "internalType": "bytes32",
          "name": "s",
          "type": "bytes32"
        }
      ],
      "name": "supplyWithPermit",
      "outputs": [],
      "stateMutability": "nonpayable",
      "type": "function"
    },
    {
      "inputs": [
        {
          "internalType": "bytes32",
          "name": "args",
          "type": "bytes32"
        }
      ],
      "name": "swapBorrowRateMode",
      "outputs": [],
      "stateMutability": "nonpayable",
      "type": "function"
    },
    {
      "inputs": [
        {
          "internalType": "address",
          "name": "asset",
          "type": "address"
        },
        {
          "internalType": "uint256",
          "name": "interestRateMode",
          "type": "uint256"
        }
      ],
      "name": "swapBorrowRateMode",
      "outputs": [],
      "stateMutability": "nonpayable",
      "type": "function"
    },
    {
      "inputs": [
        {
          "internalType": "uint256",
          "name": "protocolFee",
          "type": "uint256"
        }
      ],
      "name": "updateBridgeProtocolFee",
      "outputs": [],
      "stateMutability": "nonpayable",
      "type": "function"
    },
    {
      "inputs": [
        {
          "internalType": "uint128",
          "name": "flashLoanPremiumTotal",
          "type": "uint128"
        },
        {
          "internalType": "uint128",
          "name": "flashLoanPremiumToProtocol",
          "type": "uint128"
        }
      ],
      "name": "updateFlashloanPremiums",
      "outputs": [],
      "stateMutability": "nonpayable",
      "type": "function"
    },
    {
      "inputs": [
        {
          "internalType": "address",
          "name": "asset",
          "type": "address"
        },
        {
          "internalType": "uint256",
          "name": "amount",
          "type": "uint256"
        },
        {
          "internalType": "address",
          "name": "to",
          "type": "address"
        }
      ],
      "name": "withdraw",
      "outputs": [
        {
          "internalType": "uint256",
          "name": "",
          "type": "uint256"
        }
      ],
      "stateMutability": "nonpayable",
      "type": "function"
    },
    {
      "inputs": [
        {
          "internalType": "bytes32",
          "name": "args",
          "type": "bytes32"
        }
      ],
      "name": "withdraw",
      "outputs": [
        {
          "internalType": "uint256",
          "name": "",
          "type": "uint256"
        }
      ],
      "stateMutability": "nonpayable",
      "type": "function"
    }
  ],
  "bytecode": "0x60a0604052600080553480156200001557600080fd5b5060405162004c2138038062004c2183398101604081905262000038916200004a565b6001600160a01b03166080526200007c565b6000602082840312156200005d57600080fd5b81516001600160a01b03811681146200007557600080fd5b9392505050565b608051614b27620000fa600039600081816103cf01528181610ad301528181610b9201528181610f36015281816114ac015281816117a101528181611dd701528181611e8201528181612086015281816122db015281816124d00152818161294901528181612e6d0152818161305e015261320e0152614b276000f3fe608060405234801561001057600080fd5b50600436106103825760003560e01c80637a708e92116101de578063d1946dbc1161010f578063e82fec2f116100ad578063f51e435b1161007c578063f51e435b14610a06578063f7a7384014610a19578063f8119d5114610a2c578063fd21ecff14610a3b57600080fd5b8063e82fec2f146109b5578063e8eda9df14610731578063eddf1b79146109c7578063ee3e210b146109f357600080fd5b8063d5eed868116100e9578063d5eed86814610969578063d65dc7a11461097c578063dc7c0bff1461098f578063e43e88a1146109a257600080fd5b8063d1946dbc1461092e578063d579ea7d14610943578063d5ed39331461095657600080fd5b8063bcb6e5221161017c578063c4d66de811610156578063c4d66de8146108e2578063cd112382146108f5578063cea9d26f14610908578063d15e00531461091b57600080fd5b8063bcb6e5221461084d578063bf92857c14610860578063c44b11f7146108a057600080fd5b806394ba89a2116101b857806394ba89a2146108015780639cd1999614610814578063a415bcad14610827578063ab9c4b5d1461083a57600080fd5b80637a708e92146107c85780638e19899e146107db57806394b576de146107ee57600080fd5b806342b0b77c116102b8578063617ba0371161025657806369328dec1161023057806369328dec1461076a57806369a933a51461077d5780636a99c036146107905780636c6f6ae1146107a857600080fd5b8063617ba0371461073157806363c9b86014610744578063680dd47c1461075757600080fd5b8063527517971161029257806352751797146106cb578063563dd613146106f8578063573ade811461070b5780635a3b74b91461071e57600080fd5b806342b0b77c146106545780634417a583146106675780634d013f03146106b857600080fd5b8063272d9072116103255780633036b439116102ff5780633036b4391461048257806335ea6a7514610495578063386497fd1461062e578063427da1771461064157600080fd5b8063272d90721461045457806328530a471461045c5780632dad97d41461046f57600080fd5b80630542975c116103615780630542975c146103ca578063074b2e43146104095780631d2118f91461042e5780631fe3c6f31461044157600080fd5b8062a718a9146103875780630148170e1461039c57806302c205f0146103b7575b600080fd5b61039a6103953660046136c9565b610a4e565b005b6103a4600181565b6040519081526020015b60405180910390f35b61039a6103c5366004613754565b610c62565b6103f17f000000000000000000000000000000000000000000000000000000000000000081565b6040516001600160a01b0390911681526020016103ae565b603a546001600160801b03165b6040516001600160801b0390911681526020016103ae565b61039a61043c3660046137d3565b610d81565b61039a61044f36600461380c565b610ea7565b6039546103a4565b61039a61046a366004613825565b610ec8565b6103a461047d366004613840565b611066565b61039a61049036600461380c565b61116b565b6106216104a3366004613875565b604080516102008101825260006101e08201818152825260208201819052918101829052606081018290526080810182905260a0810182905260c0810182905260e08101829052610100810182905261012081018290526101408101829052610160810182905261018081018290526101a081018290526101c0810191909152506001600160a01b0390811660009081526034602090815260409182902082516102008101845281546101e08201908152815260018201546001600160801b0380821694830194909452600160801b908190048416948201949094526002820154808416606083015284900483166080820152600382015480841660a083015284810464ffffffffff1660c0830152600160a81b900461ffff1660e0820152600482015485166101008201526005820154851661012082015260068201548516610140820152600782015490941661016085015260088101548083166101808601529290920481166101a0840152600990910154166101c082015290565b6040516103ae9190613892565b6103a461063c366004613875565b611178565b61039a61064f36600461380c565b61119f565b61039a610662366004613a0e565b6111cf565b6106a9610675366004613875565b60408051602080820183526000918290526001600160a01b0393909316815260358352819020815192830190915254815290565b604051905181526020016103ae565b61039a6106c636600461380c565b6112f3565b6103f16106d9366004613a90565b61ffff166000908152603660205260409020546001600160a01b031690565b6103a461070636600461380c565b611322565b6103a4610719366004613aab565b61134e565b61039a61072c366004613af5565b611452565b61039a61073f366004613b23565b6115db565b61039a610752366004613875565b61168c565b61039a610765366004613b74565b6116e2565b6103a4610778366004613ba0565b61170f565b61039a61078b366004613b23565b6118c8565b603a54600160801b90046001600160801b0316610416565b6107bb6107b6366004613825565b61194f565b6040516103ae9190613c2f565b61039a6107d6366004613c84565b611a7c565b6103a46107e936600461380c565b611bc2565b6103a46107fc366004613b74565b611be9565b61039a61080f366004613ce7565b611c24565b61039a610822366004613d58565b611c98565b61039a610835366004613d9a565b611cd4565b61039a610848366004613dd9565b611f1b565b61039a61085b366004613eea565b61222d565b61087361086e366004613875565b61224e565b604080519687526020870195909552938501929092526060840152608083015260a082015260c0016103ae565b6106a96108ae366004613875565b60408051602080820183526000918290526001600160a01b0393909316815260348352819020815192830190915254815290565b61039a6108f0366004613875565b61242d565b61039a6109033660046137d3565b61256c565b61039a610916366004613f1d565b6125cf565b6103a4610929366004613875565b612656565b610936612677565b6040516103ae9190613f5e565b61039a61095136600461401b565b61277a565b61039a610964366004614135565b612863565b61039a61097736600461380c565b612a4f565b6103a461098a366004613840565b612ab0565b6103a461099d36600461380c565b612b2a565b61039a6109b0366004613875565b612b4c565b603b5467ffffffffffffffff166103a4565b6103a46109d5366004613875565b6001600160a01b031660009081526038602052604090205460ff1690565b6103a4610a0136600461419a565b612b9b565b61039a610a143660046141e0565b612d03565b61039a610a2736600461380c565b612e14565b604051608081526020016103ae565b61039a610a49366004614221565b612e36565b73__$7aaac89d2be56e6264cee9b7123dcdf497$__6383c1087d6034603660356037604051806101200160405280603b60089054906101000a900461ffff1661ffff1681526020018981526020018c6001600160a01b031681526020018b6001600160a01b031681526020018a6001600160a01b0316815260200188151581526020017f00000000000000000000000000000000000000000000000000000000000000006001600160a01b031663fca513a86040518163ffffffff1660e01b8152600401602060405180830381865afa158015610b2f573d6000803e3d6000fd5b505050506040513d601f19601f82011682018060405250810190610b539190614243565b6001600160a01b0390811682528b81166000908152603860209081526040918290205460ff16818501528151635eb88d3d60e01b8152825192909401937f000000000000000000000000000000000000000000000000000000000000000090931692635eb88d3d92600480830193928290030181865afa158015610bdb573d6000803e3d6000fd5b505050506040513d601f19601f82011682018060405250810190610bff9190614243565b6001600160a01b03168152506040518663ffffffff1660e01b8152600401610c2b959493929190614260565b60006040518083038186803b158015610c4357600080fd5b505af4158015610c57573d6000803e3d6000fd5b505050505050505050565b60405163d505accf60e01b81526001600160a01b0389169063d505accf90610c9a90339030908c908a908a908a908a90600401614319565b600060405180830381600087803b158015610cb457600080fd5b505af1158015610cc8573d6000803e3d6000fd5b5050506001600160a01b038088166000818152603560209081526040918290208251608081018452948e1685529084018c90528382019290925261ffff8916606084015251631913f16160e01b815273__$0364c6926b1a7324f59aa0c5e0b1cd1543$__9350631913f16192610d47926034926036929060040161435a565b60006040518083038186803b158015610d5f57600080fd5b505af4158015610d73573d6000803e3d6000fd5b505050505050505050505050565b610d89612e61565b604080518082019091526002815261373760f01b60208201526001600160a01b038316610dd25760405162461bcd60e51b8152600401610dc991906143ab565b60405180910390fd5b506001600160a01b038216600090815260346020526040902060030154600160a81b900461ffff16151580610e3c57506000805260366020527f4cb2b152c1b54ce671907a93c300fd5aa72383a9d4ec19a81e3333632ae92e00546001600160a01b038381169116145b604051806040016040528060028152602001611c1960f11b81525090610e755760405162461bcd60e51b8152600401610dc991906143ab565b506001600160a01b03918216600090815260346020526040902060070180546001600160a01b03191691909216179055565b600080610eb5603684612f33565b91509150610ec38282611c24565b505050565b73__$771104f9f9dd53286b2b9142b9b61a21e3$__635d5dc313603460366037603860356000336001600160a01b03166001600160a01b031681526020019081526020016000206040518060600160405280603b60089054906101000a900461ffff1661ffff1681526020017f00000000000000000000000000000000000000000000000000000000000000006001600160a01b031663fca513a86040518163ffffffff1660e01b8152600401602060405180830381865afa158015610f92573d6000803e3d6000fd5b505050506040513d601f19601f82011682018060405250810190610fb69190614243565b6001600160a01b031681526020018960ff168152506040518763ffffffff1660e01b81526004016110339695949392919095865260208087019590955260408087019490945260608601929092526080850152805160a0850152918201516001600160a01b031660c0840152015160ff1660e08201526101000190565b60006040518083038186803b15801561104b57600080fd5b505af415801561105f573d6000803e3d6000fd5b5050505050565b600073__$da80a5dff72a24efc0f16ade3f36bfde6f$__6340e95de66034603660356000336001600160a01b03166001600160a01b031681526020019081526020016000206040518060a001604052808a6001600160a01b031681526020018981526020018860028111156110dd576110dd6143be565b60028111156110ee576110ee6143be565b81523360208201526001604091820152516001600160e01b031960e087901b16815261112094939291906004016143f6565b602060405180830381865af415801561113d573d6000803e3d6000fd5b505050506040513d601f19601f82011682018060405250810190611161919061445c565b90505b9392505050565b611173612e61565b603955565b6001600160a01b038116600090815260346020526040812061119990612f60565b92915050565b61ffff81166000908152603660205260409020546001600160a01b0390811690601083901c16610ec3828261256c565b60006040518060e00160405280886001600160a01b03168152602001876001600160a01b0316815260200186815260200185858080601f016020809104026020016040519081016040528093929190818152602001838380828437600092018290525093855250505061ffff8516602080840191909152603a546001600160801b03600160801b8204811660408087019190915291166060909401939093526001600160a01b038a16825260349052819020905163a1fe0e8d60e01b815291925073__$d54d53bb51161a4f44e079b4b99f7ce900$__9163a1fe0e8d916112ba918590600401614475565b60006040518083038186803b1580156112d257600080fd5b505af41580156112e6573d6000803e3d6000fd5b5050505050505050505050565b61ffff81166000908152603660205260409020546001600160a01b0316601082901c600116610ec38282611452565b600080600080611333603686612fc4565b9250925092506113458383833361134e565b95945050505050565b600073__$da80a5dff72a24efc0f16ade3f36bfde6f$__6340e95de66034603660356000876001600160a01b03166001600160a01b031681526020019081526020016000206040518060a001604052808b6001600160a01b031681526020018a81526020018960028111156113c5576113c56143be565b60028111156113d6576113d66143be565b81526001600160a01b03891660208201526000604091820152516001600160e01b031960e087901b16815261141194939291906004016143f6565b602060405180830381865af415801561142e573d6000803e3d6000fd5b505050506040513d601f19601f82011682018060405250810190611345919061445c565b73__$0364c6926b1a7324f59aa0c5e0b1cd1543$__63bf697a2660346036603760356000336001600160a01b03166001600160a01b031681526020019081526020016000208787603b60089054906101000a900461ffff167f00000000000000000000000000000000000000000000000000000000000000006001600160a01b031663fca513a86040518163ffffffff1660e01b8152600401602060405180830381865afa158015611508573d6000803e3d6000fd5b505050506040513d601f19601f8201168201806040525081019061152c9190614243565b336000908152603860205260409081902054905160e08b901b6001600160e01b031916815260048101999099526024890197909752604488019590955260648701939093526001600160a01b039182166084870152151560a486015261ffff90911660c48501521660e483015260ff16610104820152610124015b60006040518083038186803b1580156115bf57600080fd5b505af41580156115d3573d6000803e3d6000fd5b505050505050565b6001600160a01b03808316600081815260356020908152604091829020825160808101845294891685529084018790528382019290925261ffff8416606084015251631913f16160e01b815273__$0364c6926b1a7324f59aa0c5e0b1cd1543$__92631913f16192611656926034926036929160040161435a565b60006040518083038186803b15801561166e57600080fd5b505af4158015611682573d6000803e3d6000fd5b5050505050505050565b611694612e61565b604051639cf5702360e01b815260346004820152603660248201526001600160a01b038216604482015273__$b281229c50ea71be8b79a0acc9d121fc39$__90639cf5702390606401611033565b60008060008060006116f560368961301e565b945094509450945094506116828585338686868d8d610c62565b600073__$0364c6926b1a7324f59aa0c5e0b1cd1543$__63186dea4460346036603760356000336001600160a01b03166001600160a01b031681526020019081526020016000206040518060c001604052808b6001600160a01b031681526020018a8152602001896001600160a01b03168152602001603b60089054906101000a900461ffff1661ffff1681526020017f00000000000000000000000000000000000000000000000000000000000000006001600160a01b031663fca513a86040518163ffffffff1660e01b8152600401602060405180830381865afa1580156117fd573d6000803e3d6000fd5b505050506040513d601f19601f820116820180604052508101906118219190614243565b6001600160a01b039081168252336000908152603860209081526040918290205460ff90811694820194909452815160e08b901b6001600160e01b031916815260048101999099526024890197909752604488019590955260648701939093528151831660848701529381015160a486015291820151811660c4850152606082015160e485015260808201511661010484015260a001511661012482015261014401611120565b6118d061305c565b6001600160a01b03828116600081815260356020526040908190209051630413c86f60e01b81526034600482015260366024820152604481019190915291861660648301526084820185905260a482015261ffff821660c482015273__$0d3486b3d61ae0d148a0cb9be698e540c7$__90630413c86f9060e401611656565b6040805160a081018252600080825260208201819052918101829052606080820192909252608081019190915260ff8216600090815260376020908152604091829020825160a081018452815461ffff808216835262010000820481169483019490945264010000000081049093169381019390935266010000000000009091046001600160a01b031660608301526001810180546080840191906119f3906144f2565b80601f0160208091040260200160405190810160405280929190818152602001828054611a1f906144f2565b8015611a6c5780601f10611a4157610100808354040283529160200191611a6c565b820191906000526020600020905b815481529060010190602001808311611a4f57829003601f168201915b5050505050815250509050919050565b611a84612e61565b73__$b281229c50ea71be8b79a0acc9d121fc39$__6369fc1bdf603460366040518060e001604052808a6001600160a01b03168152602001896001600160a01b03168152602001886001600160a01b03168152602001876001600160a01b03168152602001866001600160a01b03168152602001603b60089054906101000a900461ffff1661ffff168152602001611b1a608090565b61ffff168152506040518463ffffffff1660e01b8152600401611b3f93929190614527565b602060405180830381865af4158015611b5c573d6000803e3d6000fd5b505050506040513d601f19601f82011682018060405250810190611b8091906145a9565b1561105f57603b8054600160401b900461ffff16906008611ba0836145dc565b91906101000a81548161ffff021916908361ffff160217905550505050505050565b6000806000611bd2603685613180565b91509150611be182823361170f565b949350505050565b600080600080600080611bfd60368a6131cc565b94509450945094509450611c178585853386868e8e612b9b565b9998505050505050505050565b6001600160a01b0382166000908152603460209081526040808320338452603590925290912073__$da80a5dff72a24efc0f16ade3f36bfde6f$__9163eac4d7039185856002811115611c7957611c796143be565b6040518563ffffffff1660e01b81526004016115a794939291906145fe565b604051631230b2a360e21b815273__$b281229c50ea71be8b79a0acc9d121fc39$__906348c2ca8c906115a79060349086908690600401614628565b73__$da80a5dff72a24efc0f16ade3f36bfde6f$__631e6473f960346036603760356000876001600160a01b03166001600160a01b031681526020019081526020016000206040518061018001604052808c6001600160a01b03168152602001336001600160a01b03168152602001886001600160a01b031681526020018b81526020018a6002811115611d6a57611d6a6143be565b6002811115611d7b57611d7b6143be565b815261ffff808b166020808401919091526001604080850191909152603b5467ffffffffffffffff81166060860152600160401b900490921660808401528151631f94a27560e31b8152915160a0909301926001600160a01b037f0000000000000000000000000000000000000000000000000000000000000000169263fca513a89260048083019391928290030181865afa158015611e1f573d6000803e3d6000fd5b505050506040513d601f19601f82011682018060405250810190611e439190614243565b6001600160a01b0390811682528981166000908152603860209081526040918290205460ff16818501528151635eb88d3d60e01b8152825192909401937f000000000000000000000000000000000000000000000000000000000000000090931692635eb88d3d92600480830193928290030181865afa158015611ecb573d6000803e3d6000fd5b505050506040513d601f19601f82011682018060405250810190611eef9190614243565b6001600160a01b03168152506040518663ffffffff1660e01b8152600401610c2b959493929190614680565b6000604051806101c001604052808d6001600160a01b031681526020018c8c808060200260200160405190810160405280939291908181526020018383602002808284376000920191909152505050908252506040805160208c810282810182019093528c82529283019290918d918d9182918501908490808284376000920191909152505050908252506040805160208a810282810182019093528a82529283019290918b918b9182918501908490808284376000920191909152505050908252506001600160a01b03871660208083019190915260408051601f88018390048302810183018252878152920191908790879081908401838280828437600092018290525093855250505061ffff808616602080850191909152603a546001600160801b03600160801b8204811660408088019190915291166060860152603b5467ffffffffffffffff81166080870152600160401b900490921660a08501526001600160a01b037f0000000000000000000000000000000000000000000000000000000000000000811660c08601819052908b16845260388252928290205460ff1660e0850152815163383e6b8b60e11b815291516101009094019363707cd7169260048082019392918290030181865afa158015612100573d6000803e3d6000fd5b505050506040513d601f19601f820116820180604052508101906121249190614243565b60405163fa50f29760e01b81523360048201526001600160a01b03919091169063fa50f29790602401602060405180830381865afa15801561216a573d6000803e3d6000fd5b505050506040513d601f19601f8201168201806040525081019061218e91906145a9565b151590526001600160a01b03861660009081526035602052604090819020905163173931f560e11b815291925073__$d54d53bb51161a4f44e079b4b99f7ce900$__91632e7263ea916121ef916034916036916037919088906004016147e8565b60006040518083038186803b15801561220757600080fd5b505af415801561221b573d6000803e3d6000fd5b50505050505050505050505050505050565b612235612e61565b6001600160801b03908116600160801b02911617603a55565b604080516001600160a01b0383811660008181526035602090815285822060c0860187525460a086019081528552603b54600160401b900461ffff1681860152848601929092528451631f94a27560e31b8152945190948594859485948594859473__$b281229c50ea71be8b79a0acc9d121fc39$__946326ec273f9460349460369460379460608501937f0000000000000000000000000000000000000000000000000000000000000000169263fca513a8926004808401938290030181865afa158015612321573d6000803e3d6000fd5b505050506040513d601f19601f820116820180604052508101906123459190614243565b6001600160a01b0390811682528e81166000908152603860209081526040918290205460ff90811694820194909452815160e08a901b6001600160e01b0319168152600481019890985260248801969096526044870194909452825151606487015293820151608486015291810151831660a4850152606081015190921660c48401526080909101511660e48201526101040160c060405180830381865af41580156123f5573d6000803e3d6000fd5b505050506040513d601f19601f820116820180604052508101906124199190614949565b949c939b5091995097509550909350915050565b60015460039060ff16806124405750303b155b8061244c575060005481115b6124af5760405162461bcd60e51b815260206004820152602e60248201527f436f6e747261637420696e7374616e63652068617320616c726561647920626560448201526d195b881a5b9a5d1a585b1a5e995960921b6064820152608401610dc9565b60015460ff161580156124ce576001805460ff19168117905560008290555b7f00000000000000000000000000000000000000000000000000000000000000006001600160a01b0316836001600160a01b03161460405180604001604052806002815260200161189960f11b8152509061253c5760405162461bcd60e51b8152600401610dc991906143ab565b50603b805467ffffffffffffffff19166109c41790556009603a558015610ec3576001805460ff19169055505050565b6001600160a01b03828116600081815260346020526040908190209051631a5cfdd160e21b815260048101919091526024810191909152908216604482015273__$da80a5dff72a24efc0f16ade3f36bfde6f$__90636973f744906064016115a7565b6125d761320c565b6040516343d9915960e11b81526001600160a01b038085166004830152831660248201526044810182905273__$b281229c50ea71be8b79a0acc9d121fc39$__906387b322b29060640160006040518083038186803b15801561263957600080fd5b505af415801561264d573d6000803e3d6000fd5b50505050505050565b6001600160a01b038116600090815260346020526040812061119990613330565b603b54606090600160401b900461ffff166000808267ffffffffffffffff8111156126a4576126a4613fab565b6040519080825280602002602001820160405280156126cd578160200160208202803683370190505b50905060005b83811015612770576000818152603660205260409020546001600160a01b031615612750576000818152603660205260409020546001600160a01b03168261271b8584614993565b8151811061272b5761272b6149aa565b60200260200101906001600160a01b031690816001600160a01b03168152505061275e565b8261275a816149c0565b9350505b80612768816149c0565b9150506126d3565b5091038152919050565b612782612e61565b604080518082019091526002815261189b60f11b602082015260ff83166127bc5760405162461bcd60e51b8152600401610dc991906143ab565b5060ff821660009081526037602090815260409182902083518154838601519486015160608701516001600160a01b03166601000000000000026601000000000000600160d01b031961ffff9283166401000000000216640100000000600160d01b0319978316620100000263ffffffff1990941692909416919091179190911794909416179290921782556080830151805184939261105f9260018501929101906135fd565b6001600160a01b038681166000908152603460209081526040918290206004015482518084019093526002835261313160f01b9183019190915290911633146128bf5760405162461bcd60e51b8152600401610dc991906143ab565b5073__$0364c6926b1a7324f59aa0c5e0b1cd1543$__638a5dadd160346036603760356040518061012001604052808d6001600160a01b031681526020018c6001600160a01b031681526020018b6001600160a01b031681526020018a8152602001898152602001888152602001603b60089054906101000a900461ffff1661ffff1681526020017f00000000000000000000000000000000000000000000000000000000000000006001600160a01b031663fca513a86040518163ffffffff1660e01b8152600401602060405180830381865afa1580156129a5573d6000803e3d6000fd5b505050506040513d601f19601f820116820180604052508101906129c99190614243565b6001600160a01b0390811682528d166000908152603860209081526040918290205460ff16920191909152516001600160e01b031960e088901b168152612a179594939291906004016149db565b60006040518083038186803b158015612a2f57600080fd5b505af4158015612a43573d6000803e3d6000fd5b50505050505050505050565b600080600080612a9b60368661ffff81811660009081526020939093526040909220546001600160a01b0316926001600160801b03601083901c169260ff609084901c169260981c1690565b935093509350935061105f8484848433611cd4565b6000612aba61305c565b6001600160a01b0384166000818152603460205260409081902060395491516311ce864960e31b8152600481019190915260248101929092526044820185905260648201849052608482015273__$0d3486b3d61ae0d148a0cb9be698e540c7$__90638e7432489060a401611120565b600080600080612b3b603686612fc4565b925092509250611345838383611066565b612b54612e61565b604051631e3b414560e01b8152603460048201526001600160a01b038216602482015273__$b281229c50ea71be8b79a0acc9d121fc39$__90631e3b414590604401611033565b60405163d505accf60e01b81526000906001600160a01b038a169063d505accf90612bd690339030908d908b908b908b908b90600401614319565b600060405180830381600087803b158015612bf057600080fd5b505af1158015612c04573d6000803e3d6000fd5b5050505060006040518060a001604052808b6001600160a01b031681526020018a8152602001896002811115612c3c57612c3c6143be565b6002811115612c4d57612c4d6143be565b81526001600160a01b038916602080830182905260006040938401819052918252603590528190209051632074aef360e11b815291925073__$da80a5dff72a24efc0f16ade3f36bfde6f$__916340e95de691612cb49160349160369187906004016143f6565b602060405180830381865af4158015612cd1573d6000803e3d6000fd5b505050506040513d601f19601f82011682018060405250810190612cf5919061445c565b9a9950505050505050505050565b612d0b612e61565b604080518082019091526002815261373760f01b60208201526001600160a01b038316612d4b5760405162461bcd60e51b8152600401610dc991906143ab565b506001600160a01b038216600090815260346020526040902060030154600160a81b900461ffff16151580612db557506000805260366020527f4cb2b152c1b54ce671907a93c300fd5aa72383a9d4ec19a81e3333632ae92e00546001600160a01b038381169116145b604051806040016040528060028152602001611c1960f11b81525090612dee5760405162461bcd60e51b8152600401610dc991906143ab565b506001600160a01b03821660009081526034602052604090208135815581905b50505050565b6000806000612e24603685613388565b925092509250612e0e838333846115db565b6000806000806000612e4a603688886133c3565b9450945094509450945061264d8585858585610a4e565b336001600160a01b03167f00000000000000000000000000000000000000000000000000000000000000006001600160a01b031663631adfca6040518163ffffffff1660e01b8152600401602060405180830381865afa158015612ec9573d6000803e3d6000fd5b505050506040513d601f19601f82011682018060405250810190612eed9190614243565b6001600160a01b03161460405180604001604052806002815260200161031360f41b81525090612f305760405162461bcd60e51b8152600401610dc991906143ab565b50565b61ffff81166000908152602083905260409020546001600160a01b0316601082901c60ff165b9250929050565b6003810154600090600160801b900464ffffffffff1642811415612f90575050600201546001600160801b031690565b6002830154611164906001600160801b0380821691612fb891600160801b9091041684613446565b90613453565b50919050565b6000808061ffff84166001600160801b03601086901c81169060ff609088901c1690821415612ff35760001991505b61ffff9092166000908152602088905260409020546001600160a01b03169450925090509250925092565b60008080808060a086901c63ffffffff1660c087901c60ff168280806130448c8c613388565b919e909d50909b509499509297509295505050505050565b7f00000000000000000000000000000000000000000000000000000000000000006001600160a01b031663707cd7166040518163ffffffff1660e01b8152600401602060405180830381865afa1580156130ba573d6000803e3d6000fd5b505050506040513d601f19601f820116820180604052508101906130de9190614243565b604051633933006760e11b81523360048201526001600160a01b03919091169063726600ce90602401602060405180830381865afa158015613124573d6000803e3d6000fd5b505050506040513d601f19601f8201168201806040525081019061314891906145a9565b604051806040016040528060018152602001601b60f91b81525090612f305760405162461bcd60e51b8152600401610dc991906143ab565b60008061ffff83166001600160801b03601085901c8116908114156131a457506000195b61ffff9190911660009081526020959095526040909420546001600160a01b03169492505050565b6000806000806000806000806000806131e58c8c612fc4565b919e909d50909b609881901c63ffffffff169b5060b81c60ff169950975050505050505050565b7f00000000000000000000000000000000000000000000000000000000000000006001600160a01b031663707cd7166040518163ffffffff1660e01b8152600401602060405180830381865afa15801561326a573d6000803e3d6000fd5b505050506040513d601f19601f8201168201806040525081019061328e9190614243565b604051637be53ca160e01b81523360048201526001600160a01b039190911690637be53ca190602401602060405180830381865afa1580156132d4573d6000803e3d6000fd5b505050506040513d601f19601f820116820180604052508101906132f891906145a9565b604051806040016040528060018152602001603160f81b81525090612f305760405162461bcd60e51b8152600401610dc991906143ab565b6003810154600090600160801b900464ffffffffff1642811415613360575050600101546001600160801b031690565b6001830154611164906001600160801b0380821691612fb891600160801b9091041684613497565b61ffff8181166000908152602084905260409020546001600160a01b031690601083901c6001600160801b031690609084901c169250925092565b60008080808061ffff87811690601089901c16602089901c6001600160a01b03166001600160801b038981169060808b901c600116908214156134065760001991505b61ffff948516600090815260209d909d526040808e2054949095168d5293909b20546001600160a01b039283169c92169a90995097509095509350505050565b60006111648383426134d4565b600081156b019d971e4fe8401e74000000198390048411151761347557600080fd5b506b033b2e3c9fd0803ce800000091026b019d971e4fe8401e74000000010490565b6000806134ab64ffffffffff841642614993565b6134b59085614a82565b6301e1338090049050611be1816b033b2e3c9fd0803ce8000000614ab7565b6000806134e864ffffffffff851684614993565b905080613504576b033b2e3c9fd0803ce8000000915050611164565b6000198101600080806002851161351c576000613521565b600285035b925066038882915c40006135358a80613453565b8161354257613542614aa1565b0491506301e13380613554838b613453565b8161356157613561614aa1565b0490506000826135718688614a82565b61357b9190614a82565b6002900490506000828561358f888a614a82565b6135999190614a82565b6135a39190614a82565b60069004905080826301e133806135ba8a8f614a82565b6135c49190614acf565b6135da906b033b2e3c9fd0803ce8000000614ab7565b6135e49190614ab7565b6135ee9190614ab7565b9b9a5050505050505050505050565b828054613609906144f2565b90600052602060002090601f01602090048101928261362b5760008555613671565b82601f1061364457805160ff1916838001178555613671565b82800160010185558215613671579182015b82811115613671578251825591602001919060010190613656565b5061367d929150613681565b5090565b5b8082111561367d5760008155600101613682565b6001600160a01b0381168114612f3057600080fd5b80356136b681613696565b919050565b8015158114612f3057600080fd5b600080600080600060a086880312156136e157600080fd5b85356136ec81613696565b945060208601356136fc81613696565b9350604086013561370c81613696565b9250606086013591506080860135613723816136bb565b809150509295509295909350565b803561ffff811681146136b657600080fd5b803560ff811681146136b657600080fd5b600080600080600080600080610100898b03121561377157600080fd5b883561377c81613696565b975060208901359650604089013561379381613696565b95506137a160608a01613731565b9450608089013593506137b660a08a01613743565b925060c0890135915060e089013590509295985092959890939650565b600080604083850312156137e657600080fd5b82356137f181613696565b9150602083013561380181613696565b809150509250929050565b60006020828403121561381e57600080fd5b5035919050565b60006020828403121561383757600080fd5b61116482613743565b60008060006060848603121561385557600080fd5b833561386081613696565b95602085013595506040909401359392505050565b60006020828403121561388757600080fd5b813561116481613696565b81515181526101e0810160208301516138b660208401826001600160801b03169052565b5060408301516138d160408401826001600160801b03169052565b5060608301516138ec60608401826001600160801b03169052565b50608083015161390760808401826001600160801b03169052565b5060a083015161392260a08401826001600160801b03169052565b5060c083015161393b60c084018264ffffffffff169052565b5060e083015161395160e084018261ffff169052565b50610100838101516001600160a01b039081169184019190915261012080850151821690840152610140808501518216908401526101608085015190911690830152610180808401516001600160801b03908116918401919091526101a0808501518216908401526101c09384015116929091019190915290565b60008083601f8401126139de57600080fd5b50813567ffffffffffffffff8111156139f657600080fd5b602083019150836020828501011115612f5957600080fd5b60008060008060008060a08789031215613a2757600080fd5b8635613a3281613696565b95506020870135613a4281613696565b945060408701359350606087013567ffffffffffffffff811115613a6557600080fd5b613a7189828a016139cc565b9094509250613a84905060808801613731565b90509295509295509295565b600060208284031215613aa257600080fd5b61116482613731565b60008060008060808587031215613ac157600080fd5b8435613acc81613696565b935060208501359250604085013591506060850135613aea81613696565b939692955090935050565b60008060408385031215613b0857600080fd5b8235613b1381613696565b91506020830135613801816136bb565b60008060008060808587031215613b3957600080fd5b8435613b4481613696565b9350602085013592506040850135613b5b81613696565b9150613b6960608601613731565b905092959194509250565b600080600060608486031215613b8957600080fd5b505081359360208301359350604090920135919050565b600080600060608486031215613bb557600080fd5b8335613bc081613696565b9250602084013591506040840135613bd781613696565b809150509250925092565b6000815180845260005b81811015613c0857602081850181015186830182015201613bec565b81811115613c1a576000602083870101525b50601f01601f19169290920160200192915050565b60208152600061ffff8084511660208401528060208501511660408401528060408501511660608401525060018060a01b036060840151166080830152608083015160a080840152611be160c0840182613be2565b600080600080600060a08688031215613c9c57600080fd5b8535613ca781613696565b94506020860135613cb781613696565b93506040860135613cc781613696565b92506060860135613cd781613696565b9150608086013561372381613696565b60008060408385031215613cfa57600080fd5b8235613d0581613696565b946020939093013593505050565b60008083601f840112613d2557600080fd5b50813567ffffffffffffffff811115613d3d57600080fd5b6020830191508360208260051b8501011115612f5957600080fd5b60008060208385031215613d6b57600080fd5b823567ffffffffffffffff811115613d8257600080fd5b613d8e85828601613d13565b90969095509350505050565b600080600080600060a08688031215613db257600080fd5b8535613dbd81613696565b94506020860135935060408601359250613cd760608701613731565b600080600080600080600080600080600060e08c8e031215613dfa57600080fd5b613e038c6136ab565b9a5067ffffffffffffffff8060208e01351115613e1f57600080fd5b613e2f8e60208f01358f01613d13565b909b50995060408d0135811015613e4557600080fd5b613e558e60408f01358f01613d13565b909950975060608d0135811015613e6b57600080fd5b613e7b8e60608f01358f01613d13565b9097509550613e8c60808e016136ab565b94508060a08e01351115613e9f57600080fd5b50613eb08d60a08e01358e016139cc565b9093509150613ec160c08d01613731565b90509295989b509295989b9093969950565b80356001600160801b03811681146136b657600080fd5b60008060408385031215613efd57600080fd5b613f0683613ed3565b9150613f1460208401613ed3565b90509250929050565b600080600060608486031215613f3257600080fd5b8335613f3d81613696565b92506020840135613f4d81613696565b929592945050506040919091013590565b6020808252825182820181905260009190848201906040850190845b81811015613f9f5783516001600160a01b031683529284019291840191600101613f7a565b50909695505050505050565b634e487b7160e01b600052604160045260246000fd5b60405160a0810167ffffffffffffffff81118282101715613fe457613fe4613fab565b60405290565b604051601f8201601f1916810167ffffffffffffffff8111828210171561401357614013613fab565b604052919050565b6000806040838503121561402e57600080fd5b61403783613743565b915060208084013567ffffffffffffffff8082111561405557600080fd5b9085019060a0828803121561406957600080fd5b614071613fc1565b61407a83613731565b8152614087848401613731565b8482015261409760408401613731565b604082015260608301356140aa81613696565b60608201526080830135828111156140c157600080fd5b80840193505087601f8401126140d657600080fd5b8235828111156140e8576140e8613fab565b6140fa601f8201601f19168601613fea565b9250808352888582860101111561411057600080fd5b8085850186850137600085828501015250816080820152809450505050509250929050565b60008060008060008060c0878903121561414e57600080fd5b863561415981613696565b9550602087013561416981613696565b9450604087013561417981613696565b959894975094956060810135955060808101359460a0909101359350915050565b600080600080600080600080610100898b0312156141b757600080fd5b88356141c281613696565b9750602089013596506040890135955060608901356137a181613696565b60008082840360408112156141f457600080fd5b83356141ff81613696565b92506020601f198201121561421357600080fd5b506020830190509250929050565b6000806040838503121561423457600080fd5b50508035926020909101359150565b60006020828403121561425557600080fd5b815161116481613696565b60006101a08201905086825285602083015284604083015283606083015282516080830152602083015160a0830152604083015160018060a01b0380821660c08501528060608601511660e0850152505060808301516101006142cd818501836001600160a01b03169052565b60a0850151151561012085015260c08501516001600160a01b0390811661014086015260e086015160ff166101608601529085015190811661018085015290505b509695505050505050565b6001600160a01b0397881681529590961660208601526040850193909352606084019190915260ff16608083015260a082015260c081019190915260e00190565b93845260208085019390935260408085019290925280516001600160a01b039081166060808701919091529382015160808601529181015190911660a0840152015161ffff1660c082015260e00190565b6020815260006111646020830184613be2565b634e487b7160e01b600052602160045260246000fd5b600381106143f257634e487b7160e01b600052602160045260246000fd5b9052565b8481526020808201859052604080830185905283516001600160a01b0390811660608501529184015160808401528301516101008301919061443b60a08501826143d4565b5060608401511660c0830152608090920151151560e0909101529392505050565b60006020828403121561446e57600080fd5b5051919050565b82815260406020820152600060018060a01b038084511660408401528060208501511660608401525060408301516080830152606083015160e060a08401526144c2610120840182613be2565b905061ffff60808501511660c084015260a084015160e084015260c0840151610100840152809150509392505050565b600181811c9082168061450657607f821691505b60208210811415612fbe57634e487b7160e01b600052602260045260246000fd5b60006101208201905084825283602083015260018060a01b038084511660408401528060208501511660608401528060408501511660808401528060608501511660a08401528060808501511660c08401525060a083015161458f60e084018261ffff169052565b5060c083015161ffff811661010084015250949350505050565b6000602082840312156145bb57600080fd5b8151611164816136bb565b634e487b7160e01b600052601160045260246000fd5b600061ffff808316818114156145f4576145f46145c6565b6001019392505050565b848152602081018490526001600160a01b03831660408201526080810161134560608301846143d4565b83815260406020808301829052908201839052600090849060608401835b8681101561467457833561465981613696565b6001600160a01b031682529282019290820190600101614646565b50979650505050505050565b85815260208101859052604081018490526060810183905281516001600160a01b03166080820152610200810160208301516001600160a01b03811660a08401525060408301516001600160a01b03811660c084015250606083015160e083015260808301516101006146f5818501836143d4565b60a0850151915061012061470e8186018461ffff169052565b60c086015192506101406147258187018515159052565b60e08701516101608781019190915292870151610180870152908601516001600160a01b039081166101a08701529086015160ff166101c0860152908501519081166101e0850152905061430e565b600081518084526020808501945080840160005b838110156147ad5781516001600160a01b031687529582019590820190600101614788565b509495945050505050565b600081518084526020808501945080840160005b838110156147ad578151875295820195908201906001016147cc565b85815284602082015283604082015282606082015260a0608082015261481a60a0820183516001600160a01b03169052565b600060208301516101c08060c0850152614838610260850183614774565b91506040850151609f19808685030160e087015261485684836147b8565b93506060870151915061010081878603018188015261487585846147b8565b945060808801519250610120614895818901856001600160a01b03169052565b60a089015193506101408389880301818a01526148b28786613be2565b965060c08a0151945061016093506148cf848a018661ffff169052565b60e08a0151945061018085818b0152838b015195506101a0935085848b0152828b0151878b0152818b01516101e08b0152848b0151965061491c6102008b01886001600160a01b03169052565b8a015160ff81166102208b01529550614933915050565b8701518015156102408801529250614674915050565b60008060008060008060c0878903121561496257600080fd5b865195506020870151945060408701519350606087015192506080870151915060a087015190509295509295509295565b6000828210156149a5576149a56145c6565b500390565b634e487b7160e01b600052603260045260246000fd5b60006000198214156149d4576149d46145c6565b5060010190565b858152602080820186905260408083018690526060830185905283516001600160a01b03908116608085015291840151821660a084015283015190811660c08301526101a082019050606083015160e08301526080830151610100818185015260a085015161012085015260c085015161014085015260e08501519150614a6e6101608501836001600160a01b03169052565b84015160ff8116610180850152905061430e565b6000816000190483118215151615614a9c57614a9c6145c6565b500290565b634e487b7160e01b600052601260045260246000fd5b60008219821115614aca57614aca6145c6565b500190565b600082614aec57634e487b7160e01b600052601260045260246000fd5b50049056fea264697066735822122041132965799094fcef205dc0fb61fccdc61c45f363278091d2a2b7cd0c5d3c7264736f6c634300080a0033",
  "linkReferences": {
    "contracts/contractsAave/protocol/libraries/logic/BorrowLogic.sol": {
      "BorrowLogic": [
        {
          "length": 20,
          "start": 4452
        },
        {
          "length": 20,
          "start": 5196
        },
        {
          "length": 20,
          "start": 7494
        },
        {
          "length": 20,
          "start": 7632
        },
        {
          "length": 20,
          "start": 9895
        },
        {
          "length": 20,
          "start": 11648
        }
      ]
    },
    "contracts/contractsAave/protocol/libraries/logic/BridgeLogic.sol": {
      "BridgeLogic": [
        {
          "length": 20,
          "start": 6695
        },
        {
          "length": 20,
          "start": 11266
        }
      ]
    },
    "contracts/contractsAave/protocol/libraries/logic/EModeLogic.sol": {
      "EModeLogic": [
        {
          "length": 20,
          "start": 4036
        }
      ]
    },
    "contracts/contractsAave/protocol/libraries/logic/FlashLoanLogic.sol": {
      "FlashLoanLogic": [
        {
          "length": 20,
          "start": 5004
        },
        {
          "length": 20,
          "start": 8887
        }
      ]
    },
    "contracts/contractsAave/protocol/libraries/logic/LiquidationLogic.sol": {
      "LiquidationLogic": [
        {
          "length": 20,
          "start": 2890
        }
      ]
    },
    "contracts/contractsAave/protocol/libraries/logic/PoolLogic.sol": {
      "PoolLogic": [
        {
          "length": 20,
          "start": 6074
        },
        {
          "length": 20,
          "start": 7040
        },
        {
          "length": 20,
          "start": 7585
        },
        {
          "length": 20,
          "start": 9131
        },
        {
          "length": 20,
          "start": 9982
        },
        {
          "length": 20,
          "start": 11379
        }
      ]
    },
    "contracts/contractsAave/protocol/libraries/logic/SupplyLogic.sol": {
      "SupplyLogic": [
        {
          "length": 20,
          "start": 3603
        },
        {
          "length": 20,
          "start": 5454
        },
        {
          "length": 20,
          "start": 5923
        },
        {
          "length": 20,
          "start": 6157
        },
        {
          "length": 20,
          "start": 10684
        }
      ]
    }
  },
  "deployedLinkReferences": {
    "contracts/contractsAave/protocol/libraries/logic/BorrowLogic.sol": {
      "BorrowLogic": [
        {
          "length": 20,
          "start": 4202
        },
        {
          "length": 20,
          "start": 4946
        },
        {
          "length": 20,
          "start": 7244
        },
        {
          "length": 20,
          "start": 7382
        },
        {
          "length": 20,
          "start": 9645
        },
        {
          "length": 20,
          "start": 11398
        }
      ]
    },
    "contracts/contractsAave/protocol/libraries/logic/BridgeLogic.sol": {
      "BridgeLogic": [
        {
          "length": 20,
          "start": 6445
        },
        {
          "length": 20,
          "start": 11016
        }
      ]
    },
    "contracts/contractsAave/protocol/libraries/logic/EModeLogic.sol": {
      "EModeLogic": [
        {
          "length": 20,
          "start": 3786
        }
      ]
    },
    "contracts/contractsAave/protocol/libraries/logic/FlashLoanLogic.sol": {
      "FlashLoanLogic": [
        {
          "length": 20,
          "start": 4754
        },
        {
          "length": 20,
          "start": 8637
        }
      ]
    },
    "contracts/contractsAave/protocol/libraries/logic/LiquidationLogic.sol": {
      "LiquidationLogic": [
        {
          "length": 20,
          "start": 2640
        }
      ]
    },
    "contracts/contractsAave/protocol/libraries/logic/PoolLogic.sol": {
      "PoolLogic": [
        {
          "length": 20,
          "start": 5824
        },
        {
          "length": 20,
          "start": 6790
        },
        {
          "length": 20,
          "start": 7335
        },
        {
          "length": 20,
          "start": 8881
        },
        {
          "length": 20,
          "start": 9732
        },
        {
          "length": 20,
          "start": 11129
        }
      ]
    },
    "contracts/contractsAave/protocol/libraries/logic/SupplyLogic.sol": {
      "SupplyLogic": [
        {
          "length": 20,
          "start": 3353
        },
        {
          "length": 20,
          "start": 5204
        },
        {
          "length": 20,
          "start": 5673
        },
        {
          "length": 20,
          "start": 5907
        },
        {
          "length": 20,
          "start": 10434
        }
      ]
    }
  }
}