{
  "_format": "hh-sol-artifact-1",
  "contractName": "MockStableDebtToken",
  "sourceName": "contracts/contractsAave/mocks/upgradeability/MockStableDebtToken.sol",
  "abi": [
    {
      "inputs": [
        {
          "internalType": "contract IPool",
          "name": "pool",
          "type": "address"
        }
      ],
      "stateMutability": "nonpayable",
      "type": "constructor"
    },
    {
      "anonymous": false,
      "inputs": [
        {
          "indexed": true,
          "internalType": "address",
          "name": "owner",
          "type": "address"
        },
        {
          "indexed": true,
          "internalType": "address",
          "name": "spender",
          "type": "address"
        },
        {
          "indexed": false,
          "internalType": "uint256",
          "name": "value",
          "type": "uint256"
        }
      ],
      "name": "Approval",
      "type": "event"
    },
    {
      "anonymous": false,
      "inputs": [
        {
          "indexed": true,
          "internalType": "address",
          "name": "fromUser",
          "type": "address"
        },
        {
          "indexed": true,
          "internalType": "address",
          "name": "toUser",
          "type": "address"
        },
        {
          "indexed": true,
          "internalType": "address",
          "name": "asset",
          "type": "address"
        },
        {
          "indexed": false,
          "internalType": "uint256",
          "name": "amount",
          "type": "uint256"
        }
      ],
      "name": "BorrowAllowanceDelegated",
      "type": "event"
    },
    {
      "anonymous": false,
      "inputs": [
        {
          "indexed": true,
          "internalType": "address",
          "name": "from",
          "type": "address"
        },
        {
          "indexed": false,
          "internalType": "uint256",
          "name": "amount",
          "type": "uint256"
        },
        {
          "indexed": false,
          "internalType": "uint256",
          "name": "currentBalance",
          "type": "uint256"
        },
        {
          "indexed": false,
          "internalType": "uint256",
          "name": "balanceIncrease",
          "type": "uint256"
        },
        {
          "indexed": false,
          "internalType": "uint256",
          "name": "avgStableRate",
          "type": "uint256"
        },
        {
          "indexed": false,
          "internalType": "uint256",
          "name": "newTotalSupply",
          "type": "uint256"
        }
      ],
      "name": "Burn",
      "type": "event"
    },
    {
      "anonymous": false,
      "inputs": [
        {
          "indexed": true,
          "internalType": "address",
          "name": "underlyingAsset",
          "type": "address"
        },
        {
          "indexed": true,
          "internalType": "address",
          "name": "pool",
          "type": "address"
        },
        {
          "indexed": false,
          "internalType": "address",
          "name": "incentivesController",
          "type": "address"
        },
        {
          "indexed": false,
          "internalType": "uint8",
          "name": "debtTokenDecimals",
          "type": "uint8"
        },
        {
          "indexed": false,
          "internalType": "string",
          "name": "debtTokenName",
          "type": "string"
        },
        {
          "indexed": false,
          "internalType": "string",
          "name": "debtTokenSymbol",
          "type": "string"
        },
        {
          "indexed": false,
          "internalType": "bytes",
          "name": "params",
          "type": "bytes"
        }
      ],
      "name": "Initialized",
      "type": "event"
    },
    {
      "anonymous": false,
      "inputs": [
        {
          "indexed": true,
          "internalType": "address",
          "name": "user",
          "type": "address"
        },
        {
          "indexed": true,
          "internalType": "address",
          "name": "onBehalfOf",
          "type": "address"
        },
        {
          "indexed": false,
          "internalType": "uint256",
          "name": "amount",
          "type": "uint256"
        },
        {
          "indexed": false,
          "internalType": "uint256",
          "name": "currentBalance",
          "type": "uint256"
        },
        {
          "indexed": false,
          "internalType": "uint256",
          "name": "balanceIncrease",
          "type": "uint256"
        },
        {
          "indexed": false,
          "internalType": "uint256",
          "name": "newRate",
          "type": "uint256"
        },
        {
          "indexed": false,
          "internalType": "uint256",
          "name": "avgStableRate",
          "type": "uint256"
        },
        {
          "indexed": false,
          "internalType": "uint256",
          "name": "newTotalSupply",
          "type": "uint256"
        }
      ],
      "name": "Mint",
      "type": "event"
    },
    {
      "anonymous": false,
      "inputs": [
        {
          "indexed": true,
          "internalType": "address",
          "name": "from",
          "type": "address"
        },
        {
          "indexed": true,
          "internalType": "address",
          "name": "to",
          "type": "address"
        },
        {
          "indexed": false,
          "internalType": "uint256",
          "name": "value",
          "type": "uint256"
        }
      ],
      "name": "Transfer",
      "type": "event"
    },
    {
      "inputs": [],
      "name": "DEBT_TOKEN_REVISION",
      "outputs": [
        {
          "internalType": "uint256",
          "name": "",
          "type": "uint256"
        }
      ],
      "stateMutability": "view",
      "type": "function"
    },
    {
      "inputs": [],
      "name": "DELEGATION_WITH_SIG_TYPEHASH",
      "outputs": [
        {
          "internalType": "bytes32",
          "name": "",
          "type": "bytes32"
        }
      ],
      "stateMutability": "view",
      "type": "function"
    },
    {
      "inputs": [],
      "name": "DOMAIN_SEPARATOR",
      "outputs": [
        {
          "internalType": "bytes32",
          "name": "",
          "type": "bytes32"
        }
      ],
      "stateMutability": "view",
      "type": "function"
    },
    {
      "inputs": [],
      "name": "EIP712_REVISION",
      "outputs": [
        {
          "internalType": "bytes",
          "name": "",
          "type": "bytes"
        }
      ],
      "stateMutability": "view",
      "type": "function"
    },
    {
      "inputs": [],
      "name": "POOL",
      "outputs": [
        {
          "internalType": "contract IPool",
          "name": "",
          "type": "address"
        }
      ],
      "stateMutability": "view",
      "type": "function"
    },
    {
      "inputs": [],
      "name": "UNDERLYING_ASSET_ADDRESS",
      "outputs": [
        {
          "internalType": "address",
          "name": "",
          "type": "address"
        }
      ],
      "stateMutability": "view",
      "type": "function"
    },
    {
      "inputs": [
        {
          "internalType": "address",
          "name": "",
          "type": "address"
        },
        {
          "internalType": "address",
          "name": "",
          "type": "address"
        }
      ],
      "name": "allowance",
      "outputs": [
        {
          "internalType": "uint256",
          "name": "",
          "type": "uint256"
        }
      ],
      "stateMutability": "view",
      "type": "function"
    },
    {
      "inputs": [
        {
          "internalType": "address",
          "name": "",
          "type": "address"
        },
        {
          "internalType": "uint256",
          "name": "",
          "type": "uint256"
        }
      ],
      "name": "approve",
      "outputs": [
        {
          "internalType": "bool",
          "name": "",
          "type": "bool"
        }
      ],
      "stateMutability": "nonpayable",
      "type": "function"
    },
    {
      "inputs": [
        {
          "internalType": "address",
          "name": "delegatee",
          "type": "address"
        },
        {
          "internalType": "uint256",
          "name": "amount",
          "type": "uint256"
        }
      ],
      "name": "approveDelegation",
      "outputs": [],
      "stateMutability": "nonpayable",
      "type": "function"
    },
    {
      "inputs": [
        {
          "internalType": "address",
          "name": "account",
          "type": "address"
        }
      ],
      "name": "balanceOf",
      "outputs": [
        {
          "internalType": "uint256",
          "name": "",
          "type": "uint256"
        }
      ],
      "stateMutability": "view",
      "type": "function"
    },
    {
      "inputs": [
        {
          "internalType": "address",
          "name": "fromUser",
          "type": "address"
        },
        {
          "internalType": "address",
          "name": "toUser",
          "type": "address"
        }
      ],
      "name": "borrowAllowance",
      "outputs": [
        {
          "internalType": "uint256",
          "name": "",
          "type": "uint256"
        }
      ],
      "stateMutability": "view",
      "type": "function"
    },
    {
      "inputs": [
        {
          "internalType": "address",
          "name": "from",
          "type": "address"
        },
        {
          "internalType": "uint256",
          "name": "amount",
          "type": "uint256"
        }
      ],
      "name": "burn",
      "outputs": [
        {
          "internalType": "uint256",
          "name": "",
          "type": "uint256"
        },
        {
          "internalType": "uint256",
          "name": "",
          "type": "uint256"
        }
      ],
      "stateMutability": "nonpayable",
      "type": "function"
    },
    {
      "inputs": [],
      "name": "decimals",
      "outputs": [
        {
          "internalType": "uint8",
          "name": "",
          "type": "uint8"
        }
      ],
      "stateMutability": "view",
      "type": "function"
    },
    {
      "inputs": [
        {
          "internalType": "address",
          "name": "",
          "type": "address"
        },
        {
          "internalType": "uint256",
          "name": "",
          "type": "uint256"
        }
      ],
      "name": "decreaseAllowance",
      "outputs": [
        {
          "internalType": "bool",
          "name": "",
          "type": "bool"
        }
      ],
      "stateMutability": "nonpayable",
      "type": "function"
    },
    {
      "inputs": [
        {
          "internalType": "address",
          "name": "delegator",
          "type": "address"
        },
        {
          "internalType": "address",
          "name": "delegatee",
          "type": "address"
        },
        {
          "internalType": "uint256",
          "name": "value",
          "type": "uint256"
        },
        {
          "internalType": "uint256",
          "name": "deadline",
          "type": "uint256"
        },
        {
          "internalType": "uint8",
          "name": "v",
          "type": "uint8"
        },
        {
          "internalType": "bytes32",
          "name": "r",
          "type": "bytes32"
        },
        {
          "internalType": "bytes32",
          "name": "s",
          "type": "bytes32"
        }
      ],
      "name": "delegationWithSig",
      "outputs": [],
      "stateMutability": "nonpayable",
      "type": "function"
    },
    {
      "inputs": [],
      "name": "getAverageStableRate",
      "outputs": [
        {
          "internalType": "uint256",
          "name": "",
          "type": "uint256"
        }
      ],
      "stateMutability": "view",
      "type": "function"
    },
    {
      "inputs": [],
      "name": "getIncentivesController",
      "outputs": [
        {
          "internalType": "contract IAaveIncentivesController",
          "name": "",
          "type": "address"
        }
      ],
      "stateMutability": "view",
      "type": "function"
    },
    {
      "inputs": [],
      "name": "getSupplyData",
      "outputs": [
        {
          "internalType": "uint256",
          "name": "",
          "type": "uint256"
        },
        {
          "internalType": "uint256",
          "name": "",
          "type": "uint256"
        },
        {
          "internalType": "uint256",
          "name": "",
          "type": "uint256"
        },
        {
          "internalType": "uint40",
          "name": "",
          "type": "uint40"
        }
      ],
      "stateMutability": "view",
      "type": "function"
    },
    {
      "inputs": [],
      "name": "getTotalSupplyAndAvgRate",
      "outputs": [
        {
          "internalType": "uint256",
          "name": "",
          "type": "uint256"
        },
        {
          "internalType": "uint256",
          "name": "",
          "type": "uint256"
        }
      ],
      "stateMutability": "view",
      "type": "function"
    },
    {
      "inputs": [],
      "name": "getTotalSupplyLastUpdated",
      "outputs": [
        {
          "internalType": "uint40",
          "name": "",
          "type": "uint40"
        }
      ],
      "stateMutability": "view",
      "type": "function"
    },
    {
      "inputs": [
        {
          "internalType": "address",
          "name": "user",
          "type": "address"
        }
      ],
      "name": "getUserLastUpdated",
      "outputs": [
        {
          "internalType": "uint40",
          "name": "",
          "type": "uint40"
        }
      ],
      "stateMutability": "view",
      "type": "function"
    },
    {
      "inputs": [
        {
          "internalType": "address",
          "name": "user",
          "type": "address"
        }
      ],
      "name": "getUserStableRate",
      "outputs": [
        {
          "internalType": "uint256",
          "name": "",
          "type": "uint256"
        }
      ],
      "stateMutability": "view",
      "type": "function"
    },
    {
      "inputs": [
        {
          "internalType": "address",
          "name": "",
          "type": "address"
        },
        {
          "internalType": "uint256",
          "name": "",
          "type": "uint256"
        }
      ],
      "name": "increaseAllowance",
      "outputs": [
        {
          "internalType": "bool",
          "name": "",
          "type": "bool"
        }
      ],
      "stateMutability": "nonpayable",
      "type": "function"
    },
    {
      "inputs": [
        {
          "internalType": "contract IPool",
          "name": "initializingPool",
          "type": "address"
        },
        {
          "internalType": "address",
          "name": "underlyingAsset",
          "type": "address"
        },
        {
          "internalType": "contract IAaveIncentivesController",
          "name": "incentivesController",
          "type": "address"
        },
        {
          "internalType": "uint8",
          "name": "debtTokenDecimals",
          "type": "uint8"
        },
        {
          "internalType": "string",
          "name": "debtTokenName",
          "type": "string"
        },
        {
          "internalType": "string",
          "name": "debtTokenSymbol",
          "type": "string"
        },
        {
          "internalType": "bytes",
          "name": "params",
          "type": "bytes"
        }
      ],
      "name": "initialize",
      "outputs": [],
      "stateMutability": "nonpayable",
      "type": "function"
    },
    {
      "inputs": [
        {
          "internalType": "address",
          "name": "user",
          "type": "address"
        },
        {
          "internalType": "address",
          "name": "onBehalfOf",
          "type": "address"
        },
        {
          "internalType": "uint256",
          "name": "amount",
          "type": "uint256"
        },
        {
          "internalType": "uint256",
          "name": "rate",
          "type": "uint256"
        }
      ],
      "name": "mint",
      "outputs": [
        {
          "internalType": "bool",
          "name": "",
          "type": "bool"
        },
        {
          "internalType": "uint256",
          "name": "",
          "type": "uint256"
        },
        {
          "internalType": "uint256",
          "name": "",
          "type": "uint256"
        }
      ],
      "stateMutability": "nonpayable",
      "type": "function"
    },
    {
      "inputs": [],
      "name": "name",
      "outputs": [
        {
          "internalType": "string",
          "name": "",
          "type": "string"
        }
      ],
      "stateMutability": "view",
      "type": "function"
    },
    {
      "inputs": [
        {
          "internalType": "address",
          "name": "owner",
          "type": "address"
        }
      ],
      "name": "nonces",
      "outputs": [
        {
          "internalType": "uint256",
          "name": "",
          "type": "uint256"
        }
      ],
      "stateMutability": "view",
      "type": "function"
    },
    {
      "inputs": [
        {
          "internalType": "address",
          "name": "user",
          "type": "address"
        }
      ],
      "name": "principalBalanceOf",
      "outputs": [
        {
          "internalType": "uint256",
          "name": "",
          "type": "uint256"
        }
      ],
      "stateMutability": "view",
      "type": "function"
    },
    {
      "inputs": [
        {
          "internalType": "contract IAaveIncentivesController",
          "name": "controller",
          "type": "address"
        }
      ],
      "name": "setIncentivesController",
      "outputs": [],
      "stateMutability": "nonpayable",
      "type": "function"
    },
    {
      "inputs": [],
      "name": "symbol",
      "outputs": [
        {
          "internalType": "string",
          "name": "",
          "type": "string"
        }
      ],
      "stateMutability": "view",
      "type": "function"
    },
    {
      "inputs": [],
      "name": "totalSupply",
      "outputs": [
        {
          "internalType": "uint256",
          "name": "",
          "type": "uint256"
        }
      ],
      "stateMutability": "view",
      "type": "function"
    },
    {
      "inputs": [
        {
          "internalType": "address",
          "name": "",
          "type": "address"
        },
        {
          "internalType": "uint256",
          "name": "",
          "type": "uint256"
        }
      ],
      "name": "transfer",
      "outputs": [
        {
          "internalType": "bool",
          "name": "",
          "type": "bool"
        }
      ],
      "stateMutability": "nonpayable",
      "type": "function"
    },
    {
      "inputs": [
        {
          "internalType": "address",
          "name": "",
          "type": "address"
        },
        {
          "internalType": "address",
          "name": "",
          "type": "address"
        },
        {
          "internalType": "uint256",
          "name": "",
          "type": "uint256"
        }
      ],
      "name": "transferFrom",
      "outputs": [
        {
          "internalType": "bool",
          "name": "",
          "type": "bool"
        }
      ],
      "stateMutability": "nonpayable",
      "type": "function"
    }
  ],
  "bytecode": "0x60e0604052600080553480156200001557600080fd5b50604051620023a5380380620023a5833981016040819052620000389162000237565b80806040518060400160405280601681526020017f535441424c455f444542545f544f4b454e5f494d504c000000000000000000008152506040518060400160405280601681526020017f535441424c455f444542545f544f4b454e5f494d504c0000000000000000000081525060004660808181525050836001600160a01b0316630542975c6040518163ffffffff1660e01b8152600401602060405180830381865afa158015620000ef573d6000803e3d6000fd5b505050506040513d601f19601f8201168201806040525081019062000115919062000237565b6001600160a01b031660a05282516200013690603b90602086019062000178565b5081516200014c90603c90602085019062000178565b50603d805460ff191660ff9290921691909117905550506001600160a01b031660c052506200029b9050565b82805462000186906200025e565b90600052602060002090601f016020900481019282620001aa5760008555620001f5565b82601f10620001c557805160ff1916838001178555620001f5565b82800160010185558215620001f5579182015b82811115620001f5578251825591602001919060010190620001d8565b506200020392915062000207565b5090565b5b8082111562000203576000815560010162000208565b6001600160a01b03811681146200023457600080fd5b50565b6000602082840312156200024a57600080fd5b815162000257816200021e565b9392505050565b600181811c908216806200027357607f821691505b602082108114156200029557634e487b7160e01b600052602260045260246000fd5b50919050565b60805160a05160c0516120be620002e7600039600081816102e8015281816109a301528181610d42015281816111440152611213015260006112b80152600061087101526120be6000f3fe608060405234801561001057600080fd5b50600436106101fb5760003560e01c806390f6fcf21161011a578063c04a8a10116100ad578063e655dbd81161007c578063e655dbd8146104c7578063e7484890146104da578063e78c9b3b146104f0578063f3bfc73814610529578063f731e9be1461055057600080fd5b8063c04a8a1014610480578063c222ec8a14610493578063c634dfaa146104a6578063dd62ed3e146104b957600080fd5b8063a9059cbb116100e9578063a9059cbb1461021e578063b16a19de14610437578063b3f1c93d14610448578063b9a7b6221461047857600080fd5b806390f6fcf2146103f657806395d89b41146104075780639dc29fac1461040f578063a457c2d71461021e57600080fd5b80636bd76d241161019257806378160376116101615780637816037614610338578063797743381461035857806379ce6b8c146103875780637ecebe00146103cd57600080fd5b80636bd76d241461029757806370a08231146102d05780637535d246146102e357806375d264131461032257600080fd5b806323b872dd116101ce57806323b872dd1461026c578063313ce5671461027a5780633644e5151461028f578063395093511461021e57600080fd5b806306fdde0314610200578063095ea7b31461021e5780630b52d5581461024157806318160ddd14610256575b600080fd5b610208610558565b6040516102159190611b30565b60405180910390f35b61023161022c366004611b66565b6105ea565b6040519015158152602001610215565b61025461024f366004611ba3565b610625565b005b61025e610850565b604051908152602001610215565b61023161022c366004611c11565b603d5460405160ff9091168152602001610215565b61025e61086d565b61025e6102a5366004611c52565b6001600160a01b03918216600090815260366020908152604080832093909416825291909152205490565b61025e6102de366004611c8b565b6108a6565b61030a7f000000000000000000000000000000000000000000000000000000000000000081565b6040516001600160a01b039091168152602001610215565b603d5461010090046001600160a01b031661030a565b610208604051806040016040528060018152602001603160f81b81525081565b61036061092d565b6040805194855260208501939093529183015264ffffffffff166060820152608001610215565b6103b7610395366004611c8b565b6001600160a01b03166000908152603e602052604090205464ffffffffff1690565b60405164ffffffffff9091168152602001610215565b61025e6103db366004611c8b565b6001600160a01b031660009081526034602052604090205490565b603f546001600160801b031661025e565b610208610973565b61042261041d366004611b66565b610982565b60408051928352602083019190915201610215565b6037546001600160a01b031661030a565b61045b610456366004611ca8565b610d34565b604080519315158452602084019290925290820152606001610215565b61025e600181565b61025461048e366004611b66565b611092565b6102546104a1366004611dd3565b6110a1565b61025e6104b4366004611c8b565b6112a3565b61025e61022c366004611c52565b6102546104d5366004611c8b565b6112b4565b603f54600160801b900464ffffffffff166103b7565b61025e6104fe366004611c8b565b6001600160a01b0316600090815260386020526040902054600160801b90046001600160801b031690565b61025e7f323db0410fecc107e39e2af5908671f4c8d106123b35a51501bb805c5fa36aa081565b610422611405565b6060603b805461056790611ea8565b80601f016020809104026020016040519081016040528092919081815260200182805461059390611ea8565b80156105e05780601f106105b5576101008083540402835291602001916105e0565b820191906000526020600020905b8154815290600101906020018083116105c357829003601f168201915b5050505050905090565b6040805180820182526002815261038360f41b6020820152905162461bcd60e51b815260009161061c91600401611b30565b60405180910390fd5b604080518082019091526002815261373760f01b60208201526001600160a01b0388166106655760405162461bcd60e51b815260040161061c9190611b30565b50834211156040518060400160405280600281526020016106e760f31b815250906106a35760405162461bcd60e51b815260040161061c9190611b30565b506001600160a01b038716600090815260346020526040812054906106c661086d565b604080517f323db0410fecc107e39e2af5908671f4c8d106123b35a51501bb805c5fa36aa060208201526001600160a01b038b1691810191909152606081018990526080810184905260a0810188905260c0016040516020818303038152906040528051906020012060405160200161075692919061190160f01b81526002810192909252602282015260420190565b60408051601f1981840301815282825280516020918201206000845290830180835281905260ff8816918301919091526060820186905260808201859052915060019060a0016020604051602081039080840390855afa1580156107be573d6000803e3d6000fd5b505050602060405103516001600160a01b0316896001600160a01b03161460405180604001604052806002815260200161373960f01b815250906108155760405162461bcd60e51b815260040161061c9190611b30565b50610821826001611ef9565b6001600160a01b038a16600090815260346020526040902055610845898989611427565b505050505050505050565b603f54600090610868906001600160801b0316611491565b905090565b60007f000000000000000000000000000000000000000000000000000000000000000046141561089e575060355490565b6108686114e0565b6000806108b283611589565b6001600160a01b038416600090815260386020526040902054909150600160801b90046001600160801b0316816108ed575060009392505050565b6001600160a01b0384166000908152603e602052604081205461091890839064ffffffffff166115ad565b905061092483826115c1565b95945050505050565b603f546000908190819081906001600160801b031661094b603a5490565b61095482611491565b603f549197909650919450600160801b900464ffffffffff1692509050565b6060603c805461056790611ea8565b604080518082019091526002815261323360f01b60208201526000908190337f00000000000000000000000000000000000000000000000000000000000000006001600160a01b0316146109e95760405162461bcd60e51b815260040161061c9190611b30565b506000806109f686611605565b92509250506000610a05610850565b6001600160a01b038816600090815260386020526040812054919250908190600160801b90046001600160801b0316888411610a5557603f80546001600160801b03191690556000603a55610b0d565b610a5f8985611f11565b603a81905591506000610a86610a7486611655565b603f546001600160801b0316906115c1565b90506000610a9d610a968c611655565b84906115c1565b9050818110610ac457603f80546001600160801b03191690556000603a8190559450610b0a565b610ae8610ae3610ad386611655565b610add8486611f11565b90611670565b6116af565b603f80546001600160801b0319166001600160801b0392909216918217905594505b50505b85891415610b55576001600160a01b038a16600090815260386020908152604080832080546001600160801b03169055603e9091529020805464ffffffffff19169055610b83565b6001600160a01b038a166000908152603e60205260409020805464ffffffffff19164264ffffffffff161790555b603f805464ffffffffff60801b1916600160801b4264ffffffffff160217905588851115610c6e576000610bb78a87611f11565b9050610bc48b828761171c565b6040518181526001600160a01b038c16906000907fddf252ad1be2c89b69c2b068fc378daa952ba7f163c4a11628f55a4df523b3ef9060200160405180910390a36040805182815260208101899052908101879052606081018390526080810185905260a081018490526001600160a01b038c169081907fc16f4e4ca34d790de4c656c72fd015c667d688f20be64eea360618545c4c530f9060c00160405180910390a350610d24565b6000610c7a868b611f11565b9050610c878b828761181a565b6040518181526000906001600160a01b038d16907fddf252ad1be2c89b69c2b068fc378daa952ba7f163c4a11628f55a4df523b3ef9060200160405180910390a3604080518281526020810189905290810187905260608101859052608081018490526001600160a01b038c16907f44bd20a79e993bdcc7cbedf54a3b4d19fb78490124b6b90d04fe3242eea579e89060a00160405180910390a2505b50955093505050505b9250929050565b600080806001600160a01b037f000000000000000000000000000000000000000000000000000000000000000016336001600160a01b03161460405180604001604052806002815260200161323360f01b81525090610da65760405162461bcd60e51b815260040161061c9190611b30565b50610de06040518060c001604052806000815260200160008152602001600081526020016000815260200160008152602001600081525090565b866001600160a01b0316886001600160a01b031614610e0457610e04878988611854565b600080610e1089611605565b9250925050610e1d610850565b808452603f546001600160801b031660a0850152610e3c908990611ef9565b603a8190556020840152610e4f88611655565b6040848101919091526001600160a01b038a16600090815260386020522054600160801b90046001600160801b03166060840152610ec8610e98610e938a85611ef9565b611655565b6040850151610ea7908a6115c1565b610ebe610eb386611655565b6060880151906115c1565b610add9190611ef9565b60808401819052610ed8906116af565b6001600160a01b038a16600090815260386020908152604080832080546001600160801b03908116600160801b969091168602179055603e8252909120805464ffffffffff19164264ffffffffff16908117909155603f805464ffffffffff60801b19169190930217909155830151610f8390610ae390610f5890611655565b6040860151610f68908b906115c1565b610ebe610f788860000151611655565b60a0890151906115c1565b603f80546001600160801b0319166001600160801b0392909216918217905560a08401526000610fb3828a611ef9565b9050610fc48a82866000015161171c565b6040518181526001600160a01b038b16906000907fddf252ad1be2c89b69c2b068fc378daa952ba7f163c4a11628f55a4df523b3ef9060200160405180910390a360808085015160a080870151602080890151604080518881529283018a905282018890526060820194909452938401528201526001600160a01b03808c1691908d16907fc16f4e4ca34d790de4c656c72fd015c667d688f20be64eea360618545c4c530f9060c00160405180910390a35050602082015160a0909201519015999198509650945050505050565b61109d338383611427565b5050565b60015460039060ff16806110b45750303b155b806110c0575060005481115b6111235760405162461bcd60e51b815260206004820152602e60248201527f436f6e747261637420696e7374616e63652068617320616c726561647920626560448201526d195b881a5b9a5d1a585b1a5e995960921b606482015260840161061c565b60015460ff16158015611142576001805460ff19168117905560008290555b7f00000000000000000000000000000000000000000000000000000000000000006001600160a01b03168a6001600160a01b03161460405180604001604052806002815260200161383760f01b815250906111b05760405162461bcd60e51b815260040161061c9190611b30565b506111ba866118fa565b6111c38561190d565b603d8054603780546001600160a01b038d81166001600160a01b0319909216919091179091558a16610100026001600160a81b031990911660ff8a161717905561120b6114e0565b6035819055507f00000000000000000000000000000000000000000000000000000000000000006001600160a01b0316896001600160a01b03167f40251fbfb6656cfa65a00d7879029fec1fad21d28fdcff2f4f68f52795b74f2c8a8a8a8a8a8a60405161127e96959493929190611f28565b60405180910390a38015611297576001805460ff191690555b50505050505050505050565b60006112ae82611589565b92915050565b60007f00000000000000000000000000000000000000000000000000000000000000006001600160a01b031663707cd7166040518163ffffffff1660e01b8152600401602060405180830381865afa158015611314573d6000803e3d6000fd5b505050506040513d601f19601f820116820180604052508101906113389190611f9f565b604051637be53ca160e01b81523360048201529091506001600160a01b03821690637be53ca190602401602060405180830381865afa15801561137f573d6000803e3d6000fd5b505050506040513d601f19601f820116820180604052508101906113a39190611fbc565b604051806040016040528060018152602001603160f81b815250906113db5760405162461bcd60e51b815260040161061c9190611b30565b5050603d80546001600160a01b0390921661010002610100600160a81b0319909216919091179055565b603f5460009081906001600160801b031661141f81611491565b939092509050565b6001600160a01b0383811660008181526036602090815260408083208786168085529083529281902086905560375490518681529416939192917fda919360433220e13b51e8c211e490d148e61a3bd53de8c097194e458b97f3e1910160405180910390a4505050565b60008061149d603a5490565b9050806114ad5750600092915050565b60006114cc84603f60109054906101000a900464ffffffffff166115ad565b90506114d882826115c1565b949350505050565b60007f8b73c3c69bb8fe3d512ecc4cf759cc79239f7b179b0ffacaa9a75d522b39400f61150b611920565b805160209182012060408051808201825260018152603160f81b90840152805192830193909352918101919091527fc89efdaa54c0f20c7adf612882df0950f5a951637e0307cdcb4c672f298b8bc660608201524660808201523060a082015260c00160405160208183030381529060405280519060200120905090565b6001600160a01b03166000908152603860205260409020546001600160801b031690565b60006115ba83834261192a565b9392505050565b600081156b019d971e4fe8401e7400000019839004841115176115e357600080fd5b506b033b2e3c9fd0803ce800000091026b019d971e4fe8401e74000000010490565b60008060008061161485611589565b90508061162c5760008060009350935093505061164e565b6000611637866108a6565b905081816116458282611f11565b94509450945050505b9193909250565b633b9aca00818102908104821461166b57600080fd5b919050565b600081156b033b2e3c9fd0803ce80000006002840419048411171561169457600080fd5b506b033b2e3c9fd0803ce80000009190910260028204010490565b60006001600160801b038211156117185760405162461bcd60e51b815260206004820152602760248201527f53616665436173743a2076616c756520646f65736e27742066697420696e20316044820152663238206269747360c81b606482015260840161061c565b5090565b6000611727836116af565b6001600160a01b0385166000908152603860205260409020549091506001600160801b03166117568282611fde565b6001600160a01b03868116600090815260386020526040902080546001600160801b0319166001600160801b039390931692909217909155603d546101009004161561181357603d546040516318c39f1760e11b81526001600160a01b038781166004830152602482018690526001600160801b0384166044830152610100909204909116906331873e2e90606401600060405180830381600087803b1580156117ff57600080fd5b505af1158015610845573d6000803e3d6000fd5b5050505050565b6000611825836116af565b6001600160a01b0385166000908152603860205260409020549091506001600160801b03166117568282612009565b6001600160a01b038084166000908152603660209081526040808320938616835292905290812054611887908390611f11565b6001600160a01b03808616600081815260366020908152604080832089861680855292529182902085905560375491519495509216927fda919360433220e13b51e8c211e490d148e61a3bd53de8c097194e458b97f3e1906118ec9086815260200190565b60405180910390a450505050565b805161109d90603b906020840190611a53565b805161109d90603c906020840190611a53565b6060610868610558565b60008061193e64ffffffffff851684611f11565b90508061195a576b033b2e3c9fd0803ce80000009150506115ba565b60001981016000808060028511611972576000611977565b600285035b925066038882915c400061198b8a806115c1565b8161199857611998612031565b0491506301e133806119aa838b6115c1565b816119b7576119b7612031565b0490506000826119c78688612047565b6119d19190612047565b600290049050600082856119e5888a612047565b6119ef9190612047565b6119f99190612047565b60069004905080826301e13380611a108a8f612047565b611a1a9190612066565b611a30906b033b2e3c9fd0803ce8000000611ef9565b611a3a9190611ef9565b611a449190611ef9565b9b9a5050505050505050505050565b828054611a5f90611ea8565b90600052602060002090601f016020900481019282611a815760008555611ac7565b82601f10611a9a57805160ff1916838001178555611ac7565b82800160010185558215611ac7579182015b82811115611ac7578251825591602001919060010190611aac565b506117189291505b808211156117185760008155600101611acf565b6000815180845260005b81811015611b0957602081850181015186830182015201611aed565b81811115611b1b576000602083870101525b50601f01601f19169290920160200192915050565b6020815260006115ba6020830184611ae3565b6001600160a01b0381168114611b5857600080fd5b50565b803561166b81611b43565b60008060408385031215611b7957600080fd5b8235611b8481611b43565b946020939093013593505050565b803560ff8116811461166b57600080fd5b600080600080600080600060e0888a031215611bbe57600080fd5b8735611bc981611b43565b96506020880135611bd981611b43565b95506040880135945060608801359350611bf560808901611b92565b925060a0880135915060c0880135905092959891949750929550565b600080600060608486031215611c2657600080fd5b8335611c3181611b43565b92506020840135611c4181611b43565b929592945050506040919091013590565b60008060408385031215611c6557600080fd5b8235611c7081611b43565b91506020830135611c8081611b43565b809150509250929050565b600060208284031215611c9d57600080fd5b81356115ba81611b43565b60008060008060808587031215611cbe57600080fd5b8435611cc981611b43565b93506020850135611cd981611b43565b93969395505050506040820135916060013590565b634e487b7160e01b600052604160045260246000fd5b600082601f830112611d1557600080fd5b813567ffffffffffffffff80821115611d3057611d30611cee565b604051601f8301601f19908116603f01168101908282118183101715611d5857611d58611cee565b81604052838152866020858801011115611d7157600080fd5b836020870160208301376000602085830101528094505050505092915050565b60008083601f840112611da357600080fd5b50813567ffffffffffffffff811115611dbb57600080fd5b602083019150836020828501011115610d2d57600080fd5b60008060008060008060008060e0898b031215611def57600080fd5b8835611dfa81611b43565b97506020890135611e0a81611b43565b9650611e1860408a01611b5b565b9550611e2660608a01611b92565b9450608089013567ffffffffffffffff80821115611e4357600080fd5b611e4f8c838d01611d04565b955060a08b0135915080821115611e6557600080fd5b611e718c838d01611d04565b945060c08b0135915080821115611e8757600080fd5b50611e948b828c01611d91565b999c989b5096995094979396929594505050565b600181811c90821680611ebc57607f821691505b60208210811415611edd57634e487b7160e01b600052602260045260246000fd5b50919050565b634e487b7160e01b600052601160045260246000fd5b60008219821115611f0c57611f0c611ee3565b500190565b600082821015611f2357611f23611ee3565b500390565b6001600160a01b038716815260ff8616602082015260a060408201819052600090611f5590830187611ae3565b8281036060840152611f678187611ae3565b90508281036080840152838152838560208301376000602085830101526020601f19601f860116820101915050979650505050505050565b600060208284031215611fb157600080fd5b81516115ba81611b43565b600060208284031215611fce57600080fd5b815180151581146115ba57600080fd5b60006001600160801b0380831681851680830382111561200057612000611ee3565b01949350505050565b60006001600160801b038381169083168181101561202957612029611ee3565b039392505050565b634e487b7160e01b600052601260045260246000fd5b600081600019048311821515161561206157612061611ee3565b500290565b60008261208357634e487b7160e01b600052601260045260246000fd5b50049056fea26469706673582212201d9efceb6ec34bf9a0e5807ac71ecbccb5fc79c90c306f36c19d79aa23f3520a64736f6c634300080a0033",
  "linkReferences": {},
  "deployedLinkReferences": {}
}