{
  "_format": "hh-sol-artifact-1",
  "contractName": "MockPoolInherited",
  "sourceName": "contracts/contractsAave/mocks/helpers/MockPool.sol",
  "abi": [
    {
      "inputs": [
        {
          "internalType": "contract IPoolAddressesProvider",
          "name": "provider",
          "type": "address"
        }
      ],
      "stateMutability": "nonpayable",
      "type": "constructor"
    },
    {
      "anonymous": false,
      "inputs": [
        {
          "indexed": true,
          "internalType": "address",
          "name": "reserve",
          "type": "address"
        },
        {
          "indexed": true,
          "internalType": "address",
          "name": "backer",
          "type": "address"
        },
        {
          "indexed": false,
          "internalType": "uint256",
          "name": "amount",
          "type": "uint256"
        },
        {
          "indexed": false,
          "internalType": "uint256",
          "name": "fee",
          "type": "uint256"
        }
      ],
      "name": "BackUnbacked",
      "type": "event"
    },
    {
      "anonymous": false,
      "inputs": [
        {
          "indexed": true,
          "internalType": "address",
          "name": "reserve",
          "type": "address"
        },
        {
          "indexed": false,
          "internalType": "address",
          "name": "user",
          "type": "address"
        },
        {
          "indexed": true,
          "internalType": "address",
          "name": "onBehalfOf",
          "type": "address"
        },
        {
          "indexed": false,
          "internalType": "uint256",
          "name": "amount",
          "type": "uint256"
        },
        {
          "indexed": false,
          "internalType": "enum DataTypes.InterestRateMode",
          "name": "interestRateMode",
          "type": "uint8"
        },
        {
          "indexed": false,
          "internalType": "uint256",
          "name": "borrowRate",
          "type": "uint256"
        },
        {
          "indexed": true,
          "internalType": "uint16",
          "name": "referralCode",
          "type": "uint16"
        }
      ],
      "name": "Borrow",
      "type": "event"
    },
    {
      "anonymous": false,
      "inputs": [
        {
          "indexed": true,
          "internalType": "address",
          "name": "target",
          "type": "address"
        },
        {
          "indexed": false,
          "internalType": "address",
          "name": "initiator",
          "type": "address"
        },
        {
          "indexed": true,
          "internalType": "address",
          "name": "asset",
          "type": "address"
        },
        {
          "indexed": false,
          "internalType": "uint256",
          "name": "amount",
          "type": "uint256"
        },
        {
          "indexed": false,
          "internalType": "enum DataTypes.InterestRateMode",
          "name": "interestRateMode",
          "type": "uint8"
        },
        {
          "indexed": false,
          "internalType": "uint256",
          "name": "premium",
          "type": "uint256"
        },
        {
          "indexed": true,
          "internalType": "uint16",
          "name": "referralCode",
          "type": "uint16"
        }
      ],
      "name": "FlashLoan",
      "type": "event"
    },
    {
      "anonymous": false,
      "inputs": [
        {
          "indexed": true,
          "internalType": "address",
          "name": "asset",
          "type": "address"
        },
        {
          "indexed": false,
          "internalType": "uint256",
          "name": "totalDebt",
          "type": "uint256"
        }
      ],
      "name": "IsolationModeTotalDebtUpdated",
      "type": "event"
    },
    {
      "anonymous": false,
      "inputs": [
        {
          "indexed": true,
          "internalType": "address",
          "name": "collateralAsset",
          "type": "address"
        },
        {
          "indexed": true,
          "internalType": "address",
          "name": "debtAsset",
          "type": "address"
        },
        {
          "indexed": true,
          "internalType": "address",
          "name": "user",
          "type": "address"
        },
        {
          "indexed": false,
          "internalType": "uint256",
          "name": "debtToCover",
          "type": "uint256"
        },
        {
          "indexed": false,
          "internalType": "uint256",
          "name": "liquidatedCollateralAmount",
          "type": "uint256"
        },
        {
          "indexed": false,
          "internalType": "address",
          "name": "liquidator",
          "type": "address"
        },
        {
          "indexed": false,
          "internalType": "bool",
          "name": "receiveAToken",
          "type": "bool"
        }
      ],
      "name": "LiquidationCall",
      "type": "event"
    },
    {
      "anonymous": false,
      "inputs": [
        {
          "indexed": true,
          "internalType": "address",
          "name": "reserve",
          "type": "address"
        },
        {
          "indexed": false,
          "internalType": "address",
          "name": "user",
          "type": "address"
        },
        {
          "indexed": true,
          "internalType": "address",
          "name": "onBehalfOf",
          "type": "address"
        },
        {
          "indexed": false,
          "internalType": "uint256",
          "name": "amount",
          "type": "uint256"
        },
        {
          "indexed": true,
          "internalType": "uint16",
          "name": "referralCode",
          "type": "uint16"
        }
      ],
      "name": "MintUnbacked",
      "type": "event"
    },
    {
      "anonymous": false,
      "inputs": [
        {
          "indexed": true,
          "internalType": "address",
          "name": "reserve",
          "type": "address"
        },
        {
          "indexed": false,
          "internalType": "uint256",
          "name": "amountMinted",
          "type": "uint256"
        }
      ],
      "name": "MintedToTreasury",
      "type": "event"
    },
    {
      "anonymous": false,
      "inputs": [
        {
          "indexed": true,
          "internalType": "address",
          "name": "reserve",
          "type": "address"
        },
        {
          "indexed": true,
          "internalType": "address",
          "name": "user",
          "type": "address"
        }
      ],
      "name": "RebalanceStableBorrowRate",
      "type": "event"
    },
    {
      "anonymous": false,
      "inputs": [
        {
          "indexed": true,
          "internalType": "address",
          "name": "reserve",
          "type": "address"
        },
        {
          "indexed": true,
          "internalType": "address",
          "name": "user",
          "type": "address"
        },
        {
          "indexed": true,
          "internalType": "address",
          "name": "repayer",
          "type": "address"
        },
        {
          "indexed": false,
          "internalType": "uint256",
          "name": "amount",
          "type": "uint256"
        },
        {
          "indexed": false,
          "internalType": "bool",
          "name": "useATokens",
          "type": "bool"
        }
      ],
      "name": "Repay",
      "type": "event"
    },
    {
      "anonymous": false,
      "inputs": [
        {
          "indexed": true,
          "internalType": "address",
          "name": "reserve",
          "type": "address"
        },
        {
          "indexed": false,
          "internalType": "uint256",
          "name": "liquidityRate",
          "type": "uint256"
        },
        {
          "indexed": false,
          "internalType": "uint256",
          "name": "stableBorrowRate",
          "type": "uint256"
        },
        {
          "indexed": false,
          "internalType": "uint256",
          "name": "variableBorrowRate",
          "type": "uint256"
        },
        {
          "indexed": false,
          "internalType": "uint256",
          "name": "liquidityIndex",
          "type": "uint256"
        },
        {
          "indexed": false,
          "internalType": "uint256",
          "name": "variableBorrowIndex",
          "type": "uint256"
        }
      ],
      "name": "ReserveDataUpdated",
      "type": "event"
    },
    {
      "anonymous": false,
      "inputs": [
        {
          "indexed": true,
          "internalType": "address",
          "name": "reserve",
          "type": "address"
        },
        {
          "indexed": true,
          "internalType": "address",
          "name": "user",
          "type": "address"
        }
      ],
      "name": "ReserveUsedAsCollateralDisabled",
      "type": "event"
    },
    {
      "anonymous": false,
      "inputs": [
        {
          "indexed": true,
          "internalType": "address",
          "name": "reserve",
          "type": "address"
        },
        {
          "indexed": true,
          "internalType": "address",
          "name": "user",
          "type": "address"
        }
      ],
      "name": "ReserveUsedAsCollateralEnabled",
      "type": "event"
    },
    {
      "anonymous": false,
      "inputs": [
        {
          "indexed": true,
          "internalType": "address",
          "name": "reserve",
          "type": "address"
        },
        {
          "indexed": false,
          "internalType": "address",
          "name": "user",
          "type": "address"
        },
        {
          "indexed": true,
          "internalType": "address",
          "name": "onBehalfOf",
          "type": "address"
        },
        {
          "indexed": false,
          "internalType": "uint256",
          "name": "amount",
          "type": "uint256"
        },
        {
          "indexed": true,
          "internalType": "uint16",
          "name": "referralCode",
          "type": "uint16"
        }
      ],
      "name": "Supply",
      "type": "event"
    },
    {
      "anonymous": false,
      "inputs": [
        {
          "indexed": true,
          "internalType": "address",
          "name": "reserve",
          "type": "address"
        },
        {
          "indexed": true,
          "internalType": "address",
          "name": "user",
          "type": "address"
        },
        {
          "indexed": false,
          "internalType": "enum DataTypes.InterestRateMode",
          "name": "interestRateMode",
          "type": "uint8"
        }
      ],
      "name": "SwapBorrowRateMode",
      "type": "event"
    },
    {
      "anonymous": false,
      "inputs": [
        {
          "indexed": true,
          "internalType": "address",
          "name": "user",
          "type": "address"
        },
        {
          "indexed": false,
          "internalType": "uint8",
          "name": "categoryId",
          "type": "uint8"
        }
      ],
      "name": "UserEModeSet",
      "type": "event"
    },
    {
      "anonymous": false,
      "inputs": [
        {
          "indexed": true,
          "internalType": "address",
          "name": "reserve",
          "type": "address"
        },
        {
          "indexed": true,
          "internalType": "address",
          "name": "user",
          "type": "address"
        },
        {
          "indexed": true,
          "internalType": "address",
          "name": "to",
          "type": "address"
        },
        {
          "indexed": false,
          "internalType": "uint256",
          "name": "amount",
          "type": "uint256"
        }
      ],
      "name": "Withdraw",
      "type": "event"
    },
    {
      "inputs": [],
      "name": "ADDRESSES_PROVIDER",
      "outputs": [
        {
          "internalType": "contract IPoolAddressesProvider",
          "name": "",
          "type": "address"
        }
      ],
      "stateMutability": "view",
      "type": "function"
    },
    {
      "inputs": [],
      "name": "BRIDGE_PROTOCOL_FEE",
      "outputs": [
        {
          "internalType": "uint256",
          "name": "",
          "type": "uint256"
        }
      ],
      "stateMutability": "view",
      "type": "function"
    },
    {
      "inputs": [],
      "name": "FLASHLOAN_PREMIUM_TOTAL",
      "outputs": [
        {
          "internalType": "uint128",
          "name": "",
          "type": "uint128"
        }
      ],
      "stateMutability": "view",
      "type": "function"
    },
    {
      "inputs": [],
      "name": "FLASHLOAN_PREMIUM_TO_PROTOCOL",
      "outputs": [
        {
          "internalType": "uint128",
          "name": "",
          "type": "uint128"
        }
      ],
      "stateMutability": "view",
      "type": "function"
    },
    {
      "inputs": [],
      "name": "MAX_NUMBER_RESERVES",
      "outputs": [
        {
          "internalType": "uint16",
          "name": "",
          "type": "uint16"
        }
      ],
      "stateMutability": "view",
      "type": "function"
    },
    {
      "inputs": [],
      "name": "MAX_STABLE_RATE_BORROW_SIZE_PERCENT",
      "outputs": [
        {
          "internalType": "uint256",
          "name": "",
          "type": "uint256"
        }
      ],
      "stateMutability": "view",
      "type": "function"
    },
    {
      "inputs": [],
      "name": "POOL_REVISION",
      "outputs": [
        {
          "internalType": "uint256",
          "name": "",
          "type": "uint256"
        }
      ],
      "stateMutability": "view",
      "type": "function"
    },
    {
      "inputs": [
        {
          "internalType": "address",
          "name": "asset",
          "type": "address"
        },
        {
          "internalType": "uint256",
          "name": "amount",
          "type": "uint256"
        },
        {
          "internalType": "uint256",
          "name": "fee",
          "type": "uint256"
        }
      ],
      "name": "backUnbacked",
      "outputs": [
        {
          "internalType": "uint256",
          "name": "",
          "type": "uint256"
        }
      ],
      "stateMutability": "nonpayable",
      "type": "function"
    },
    {
      "inputs": [
        {
          "internalType": "address",
          "name": "asset",
          "type": "address"
        },
        {
          "internalType": "uint256",
          "name": "amount",
          "type": "uint256"
        },
        {
          "internalType": "uint256",
          "name": "interestRateMode",
          "type": "uint256"
        },
        {
          "internalType": "uint16",
          "name": "referralCode",
          "type": "uint16"
        },
        {
          "internalType": "address",
          "name": "onBehalfOf",
          "type": "address"
        }
      ],
      "name": "borrow",
      "outputs": [],
      "stateMutability": "nonpayable",
      "type": "function"
    },
    {
      "inputs": [
        {
          "internalType": "uint8",
          "name": "id",
          "type": "uint8"
        },
        {
          "components": [
            {
              "internalType": "uint16",
              "name": "ltv",
              "type": "uint16"
            },
            {
              "internalType": "uint16",
              "name": "liquidationThreshold",
              "type": "uint16"
            },
            {
              "internalType": "uint16",
              "name": "liquidationBonus",
              "type": "uint16"
            },
            {
              "internalType": "address",
              "name": "priceSource",
              "type": "address"
            },
            {
              "internalType": "string",
              "name": "label",
              "type": "string"
            }
          ],
          "internalType": "struct DataTypes.EModeCategory",
          "name": "category",
          "type": "tuple"
        }
      ],
      "name": "configureEModeCategory",
      "outputs": [],
      "stateMutability": "nonpayable",
      "type": "function"
    },
    {
      "inputs": [
        {
          "internalType": "address",
          "name": "asset",
          "type": "address"
        },
        {
          "internalType": "uint256",
          "name": "amount",
          "type": "uint256"
        },
        {
          "internalType": "address",
          "name": "onBehalfOf",
          "type": "address"
        },
        {
          "internalType": "uint16",
          "name": "referralCode",
          "type": "uint16"
        }
      ],
      "name": "deposit",
      "outputs": [],
      "stateMutability": "nonpayable",
      "type": "function"
    },
    {
      "inputs": [
        {
          "internalType": "address",
          "name": "asset",
          "type": "address"
        }
      ],
      "name": "dropReserve",
      "outputs": [],
      "stateMutability": "nonpayable",
      "type": "function"
    },
    {
      "inputs": [
        {
          "internalType": "address",
          "name": "asset",
          "type": "address"
        },
        {
          "internalType": "address",
          "name": "from",
          "type": "address"
        },
        {
          "internalType": "address",
          "name": "to",
          "type": "address"
        },
        {
          "internalType": "uint256",
          "name": "amount",
          "type": "uint256"
        },
        {
          "internalType": "uint256",
          "name": "balanceFromBefore",
          "type": "uint256"
        },
        {
          "internalType": "uint256",
          "name": "balanceToBefore",
          "type": "uint256"
        }
      ],
      "name": "finalizeTransfer",
      "outputs": [],
      "stateMutability": "nonpayable",
      "type": "function"
    },
    {
      "inputs": [
        {
          "internalType": "address",
          "name": "receiverAddress",
          "type": "address"
        },
        {
          "internalType": "address[]",
          "name": "assets",
          "type": "address[]"
        },
        {
          "internalType": "uint256[]",
          "name": "amounts",
          "type": "uint256[]"
        },
        {
          "internalType": "uint256[]",
          "name": "interestRateModes",
          "type": "uint256[]"
        },
        {
          "internalType": "address",
          "name": "onBehalfOf",
          "type": "address"
        },
        {
          "internalType": "bytes",
          "name": "params",
          "type": "bytes"
        },
        {
          "internalType": "uint16",
          "name": "referralCode",
          "type": "uint16"
        }
      ],
      "name": "flashLoan",
      "outputs": [],
      "stateMutability": "nonpayable",
      "type": "function"
    },
    {
      "inputs": [
        {
          "internalType": "address",
          "name": "receiverAddress",
          "type": "address"
        },
        {
          "internalType": "address",
          "name": "asset",
          "type": "address"
        },
        {
          "internalType": "uint256",
          "name": "amount",
          "type": "uint256"
        },
        {
          "internalType": "bytes",
          "name": "params",
          "type": "bytes"
        },
        {
          "internalType": "uint16",
          "name": "referralCode",
          "type": "uint16"
        }
      ],
      "name": "flashLoanSimple",
      "outputs": [],
      "stateMutability": "nonpayable",
      "type": "function"
    },
    {
      "inputs": [
        {
          "internalType": "address",
          "name": "asset",
          "type": "address"
        }
      ],
      "name": "getConfiguration",
      "outputs": [
        {
          "components": [
            {
              "internalType": "uint256",
              "name": "data",
              "type": "uint256"
            }
          ],
          "internalType": "struct DataTypes.ReserveConfigurationMap",
          "name": "",
          "type": "tuple"
        }
      ],
      "stateMutability": "view",
      "type": "function"
    },
    {
      "inputs": [
        {
          "internalType": "uint8",
          "name": "id",
          "type": "uint8"
        }
      ],
      "name": "getEModeCategoryData",
      "outputs": [
        {
          "components": [
            {
              "internalType": "uint16",
              "name": "ltv",
              "type": "uint16"
            },
            {
              "internalType": "uint16",
              "name": "liquidationThreshold",
              "type": "uint16"
            },
            {
              "internalType": "uint16",
              "name": "liquidationBonus",
              "type": "uint16"
            },
            {
              "internalType": "address",
              "name": "priceSource",
              "type": "address"
            },
            {
              "internalType": "string",
              "name": "label",
              "type": "string"
            }
          ],
          "internalType": "struct DataTypes.EModeCategory",
          "name": "",
          "type": "tuple"
        }
      ],
      "stateMutability": "view",
      "type": "function"
    },
    {
      "inputs": [
        {
          "internalType": "uint16",
          "name": "id",
          "type": "uint16"
        }
      ],
      "name": "getReserveAddressById",
      "outputs": [
        {
          "internalType": "address",
          "name": "",
          "type": "address"
        }
      ],
      "stateMutability": "view",
      "type": "function"
    },
    {
      "inputs": [
        {
          "internalType": "address",
          "name": "asset",
          "type": "address"
        }
      ],
      "name": "getReserveData",
      "outputs": [
        {
          "components": [
            {
              "components": [
                {
                  "internalType": "uint256",
                  "name": "data",
                  "type": "uint256"
                }
              ],
              "internalType": "struct DataTypes.ReserveConfigurationMap",
              "name": "configuration",
              "type": "tuple"
            },
            {
              "internalType": "uint128",
              "name": "liquidityIndex",
              "type": "uint128"
            },
            {
              "internalType": "uint128",
              "name": "currentLiquidityRate",
              "type": "uint128"
            },
            {
              "internalType": "uint128",
              "name": "variableBorrowIndex",
              "type": "uint128"
            },
            {
              "internalType": "uint128",
              "name": "currentVariableBorrowRate",
              "type": "uint128"
            },
            {
              "internalType": "uint128",
              "name": "currentStableBorrowRate",
              "type": "uint128"
            },
            {
              "internalType": "uint40",
              "name": "lastUpdateTimestamp",
              "type": "uint40"
            },
            {
              "internalType": "uint16",
              "name": "id",
              "type": "uint16"
            },
            {
              "internalType": "address",
              "name": "aTokenAddress",
              "type": "address"
            },
            {
              "internalType": "address",
              "name": "stableDebtTokenAddress",
              "type": "address"
            },
            {
              "internalType": "address",
              "name": "variableDebtTokenAddress",
              "type": "address"
            },
            {
              "internalType": "address",
              "name": "interestRateStrategyAddress",
              "type": "address"
            },
            {
              "internalType": "uint128",
              "name": "accruedToTreasury",
              "type": "uint128"
            },
            {
              "internalType": "uint128",
              "name": "unbacked",
              "type": "uint128"
            },
            {
              "internalType": "uint128",
              "name": "isolationModeTotalDebt",
              "type": "uint128"
            }
          ],
          "internalType": "struct DataTypes.ReserveData",
          "name": "",
          "type": "tuple"
        }
      ],
      "stateMutability": "view",
      "type": "function"
    },
    {
      "inputs": [
        {
          "internalType": "address",
          "name": "asset",
          "type": "address"
        }
      ],
      "name": "getReserveNormalizedIncome",
      "outputs": [
        {
          "internalType": "uint256",
          "name": "",
          "type": "uint256"
        }
      ],
      "stateMutability": "view",
      "type": "function"
    },
    {
      "inputs": [
        {
          "internalType": "address",
          "name": "asset",
          "type": "address"
        }
      ],
      "name": "getReserveNormalizedVariableDebt",
      "outputs": [
        {
          "internalType": "uint256",
          "name": "",
          "type": "uint256"
        }
      ],
      "stateMutability": "view",
      "type": "function"
    },
    {
      "inputs": [],
      "name": "getReservesList",
      "outputs": [
        {
          "internalType": "address[]",
          "name": "",
          "type": "address[]"
        }
      ],
      "stateMutability": "view",
      "type": "function"
    },
    {
      "inputs": [
        {
          "internalType": "address",
          "name": "user",
          "type": "address"
        }
      ],
      "name": "getUserAccountData",
      "outputs": [
        {
          "internalType": "uint256",
          "name": "totalCollateralBase",
          "type": "uint256"
        },
        {
          "internalType": "uint256",
          "name": "totalDebtBase",
          "type": "uint256"
        },
        {
          "internalType": "uint256",
          "name": "availableBorrowsBase",
          "type": "uint256"
        },
        {
          "internalType": "uint256",
          "name": "currentLiquidationThreshold",
          "type": "uint256"
        },
        {
          "internalType": "uint256",
          "name": "ltv",
          "type": "uint256"
        },
        {
          "internalType": "uint256",
          "name": "healthFactor",
          "type": "uint256"
        }
      ],
      "stateMutability": "view",
      "type": "function"
    },
    {
      "inputs": [
        {
          "internalType": "address",
          "name": "user",
          "type": "address"
        }
      ],
      "name": "getUserConfiguration",
      "outputs": [
        {
          "components": [
            {
              "internalType": "uint256",
              "name": "data",
              "type": "uint256"
            }
          ],
          "internalType": "struct DataTypes.UserConfigurationMap",
          "name": "",
          "type": "tuple"
        }
      ],
      "stateMutability": "view",
      "type": "function"
    },
    {
      "inputs": [
        {
          "internalType": "address",
          "name": "user",
          "type": "address"
        }
      ],
      "name": "getUserEMode",
      "outputs": [
        {
          "internalType": "uint256",
          "name": "",
          "type": "uint256"
        }
      ],
      "stateMutability": "view",
      "type": "function"
    },
    {
      "inputs": [
        {
          "internalType": "address",
          "name": "asset",
          "type": "address"
        },
        {
          "internalType": "address",
          "name": "aTokenAddress",
          "type": "address"
        },
        {
          "internalType": "address",
          "name": "stableDebtAddress",
          "type": "address"
        },
        {
          "internalType": "address",
          "name": "variableDebtAddress",
          "type": "address"
        },
        {
          "internalType": "address",
          "name": "interestRateStrategyAddress",
          "type": "address"
        }
      ],
      "name": "initReserve",
      "outputs": [],
      "stateMutability": "nonpayable",
      "type": "function"
    },
    {
      "inputs": [
        {
          "internalType": "contract IPoolAddressesProvider",
          "name": "provider",
          "type": "address"
        }
      ],
      "name": "initialize",
      "outputs": [],
      "stateMutability": "nonpayable",
      "type": "function"
    },
    {
      "inputs": [
        {
          "internalType": "address",
          "name": "collateralAsset",
          "type": "address"
        },
        {
          "internalType": "address",
          "name": "debtAsset",
          "type": "address"
        },
        {
          "internalType": "address",
          "name": "user",
          "type": "address"
        },
        {
          "internalType": "uint256",
          "name": "debtToCover",
          "type": "uint256"
        },
        {
          "internalType": "bool",
          "name": "receiveAToken",
          "type": "bool"
        }
      ],
      "name": "liquidationCall",
      "outputs": [],
      "stateMutability": "nonpayable",
      "type": "function"
    },
    {
      "inputs": [
        {
          "internalType": "address[]",
          "name": "assets",
          "type": "address[]"
        }
      ],
      "name": "mintToTreasury",
      "outputs": [],
      "stateMutability": "nonpayable",
      "type": "function"
    },
    {
      "inputs": [
        {
          "internalType": "address",
          "name": "asset",
          "type": "address"
        },
        {
          "internalType": "uint256",
          "name": "amount",
          "type": "uint256"
        },
        {
          "internalType": "address",
          "name": "onBehalfOf",
          "type": "address"
        },
        {
          "internalType": "uint16",
          "name": "referralCode",
          "type": "uint16"
        }
      ],
      "name": "mintUnbacked",
      "outputs": [],
      "stateMutability": "nonpayable",
      "type": "function"
    },
    {
      "inputs": [
        {
          "internalType": "address",
          "name": "asset",
          "type": "address"
        },
        {
          "internalType": "address",
          "name": "user",
          "type": "address"
        }
      ],
      "name": "rebalanceStableBorrowRate",
      "outputs": [],
      "stateMutability": "nonpayable",
      "type": "function"
    },
    {
      "inputs": [
        {
          "internalType": "address",
          "name": "asset",
          "type": "address"
        },
        {
          "internalType": "uint256",
          "name": "amount",
          "type": "uint256"
        },
        {
          "internalType": "uint256",
          "name": "interestRateMode",
          "type": "uint256"
        },
        {
          "internalType": "address",
          "name": "onBehalfOf",
          "type": "address"
        }
      ],
      "name": "repay",
      "outputs": [
        {
          "internalType": "uint256",
          "name": "",
          "type": "uint256"
        }
      ],
      "stateMutability": "nonpayable",
      "type": "function"
    },
    {
      "inputs": [
        {
          "internalType": "address",
          "name": "asset",
          "type": "address"
        },
        {
          "internalType": "uint256",
          "name": "amount",
          "type": "uint256"
        },
        {
          "internalType": "uint256",
          "name": "interestRateMode",
          "type": "uint256"
        }
      ],
      "name": "repayWithATokens",
      "outputs": [
        {
          "internalType": "uint256",
          "name": "",
          "type": "uint256"
        }
      ],
      "stateMutability": "nonpayable",
      "type": "function"
    },
    {
      "inputs": [
        {
          "internalType": "address",
          "name": "asset",
          "type": "address"
        },
        {
          "internalType": "uint256",
          "name": "amount",
          "type": "uint256"
        },
        {
          "internalType": "uint256",
          "name": "interestRateMode",
          "type": "uint256"
        },
        {
          "internalType": "address",
          "name": "onBehalfOf",
          "type": "address"
        },
        {
          "internalType": "uint256",
          "name": "deadline",
          "type": "uint256"
        },
        {
          "internalType": "uint8",
          "name": "permitV",
          "type": "uint8"
        },
        {
          "internalType": "bytes32",
          "name": "permitR",
          "type": "bytes32"
        },
        {
          "internalType": "bytes32",
          "name": "permitS",
          "type": "bytes32"
        }
      ],
      "name": "repayWithPermit",
      "outputs": [
        {
          "internalType": "uint256",
          "name": "",
          "type": "uint256"
        }
      ],
      "stateMutability": "nonpayable",
      "type": "function"
    },
    {
      "inputs": [
        {
          "internalType": "address",
          "name": "token",
          "type": "address"
        },
        {
          "internalType": "address",
          "name": "to",
          "type": "address"
        },
        {
          "internalType": "uint256",
          "name": "amount",
          "type": "uint256"
        }
      ],
      "name": "rescueTokens",
      "outputs": [],
      "stateMutability": "nonpayable",
      "type": "function"
    },
    {
      "inputs": [
        {
          "internalType": "address",
          "name": "asset",
          "type": "address"
        }
      ],
      "name": "resetIsolationModeTotalDebt",
      "outputs": [],
      "stateMutability": "nonpayable",
      "type": "function"
    },
    {
      "inputs": [
        {
          "internalType": "address",
          "name": "asset",
          "type": "address"
        },
        {
          "components": [
            {
              "internalType": "uint256",
              "name": "data",
              "type": "uint256"
            }
          ],
          "internalType": "struct DataTypes.ReserveConfigurationMap",
          "name": "configuration",
          "type": "tuple"
        }
      ],
      "name": "setConfiguration",
      "outputs": [],
      "stateMutability": "nonpayable",
      "type": "function"
    },
    {
      "inputs": [
        {
          "internalType": "uint16",
          "name": "newMaxNumberOfReserves",
          "type": "uint16"
        }
      ],
      "name": "setMaxNumberOfReserves",
      "outputs": [],
      "stateMutability": "nonpayable",
      "type": "function"
    },
    {
      "inputs": [
        {
          "internalType": "address",
          "name": "asset",
          "type": "address"
        },
        {
          "internalType": "address",
          "name": "rateStrategyAddress",
          "type": "address"
        }
      ],
      "name": "setReserveInterestRateStrategyAddress",
      "outputs": [],
      "stateMutability": "nonpayable",
      "type": "function"
    },
    {
      "inputs": [
        {
          "internalType": "uint8",
          "name": "categoryId",
          "type": "uint8"
        }
      ],
      "name": "setUserEMode",
      "outputs": [],
      "stateMutability": "nonpayable",
      "type": "function"
    },
    {
      "inputs": [
        {
          "internalType": "address",
          "name": "asset",
          "type": "address"
        },
        {
          "internalType": "bool",
          "name": "useAsCollateral",
          "type": "bool"
        }
      ],
      "name": "setUserUseReserveAsCollateral",
      "outputs": [],
      "stateMutability": "nonpayable",
      "type": "function"
    },
    {
      "inputs": [
        {
          "internalType": "address",
          "name": "asset",
          "type": "address"
        },
        {
          "internalType": "uint256",
          "name": "amount",
          "type": "uint256"
        },
        {
          "internalType": "address",
          "name": "onBehalfOf",
          "type": "address"
        },
        {
          "internalType": "uint16",
          "name": "referralCode",
          "type": "uint16"
        }
      ],
      "name": "supply",
      "outputs": [],
      "stateMutability": "nonpayable",
      "type": "function"
    },
    {
      "inputs": [
        {
          "internalType": "address",
          "name": "asset",
          "type": "address"
        },
        {
          "internalType": "uint256",
          "name": "amount",
          "type": "uint256"
        },
        {
          "internalType": "address",
          "name": "onBehalfOf",
          "type": "address"
        },
        {
          "internalType": "uint16",
          "name": "referralCode",
          "type": "uint16"
        },
        {
          "internalType": "uint256",
          "name": "deadline",
          "type": "uint256"
        },
        {
          "internalType": "uint8",
          "name": "permitV",
          "type": "uint8"
        },
        {
          "internalType": "bytes32",
          "name": "permitR",
          "type": "bytes32"
        },
        {
          "internalType": "bytes32",
          "name": "permitS",
          "type": "bytes32"
        }
      ],
      "name": "supplyWithPermit",
      "outputs": [],
      "stateMutability": "nonpayable",
      "type": "function"
    },
    {
      "inputs": [
        {
          "internalType": "address",
          "name": "asset",
          "type": "address"
        },
        {
          "internalType": "uint256",
          "name": "interestRateMode",
          "type": "uint256"
        }
      ],
      "name": "swapBorrowRateMode",
      "outputs": [],
      "stateMutability": "nonpayable",
      "type": "function"
    },
    {
      "inputs": [
        {
          "internalType": "uint256",
          "name": "protocolFee",
          "type": "uint256"
        }
      ],
      "name": "updateBridgeProtocolFee",
      "outputs": [],
      "stateMutability": "nonpayable",
      "type": "function"
    },
    {
      "inputs": [
        {
          "internalType": "uint128",
          "name": "flashLoanPremiumTotal",
          "type": "uint128"
        },
        {
          "internalType": "uint128",
          "name": "flashLoanPremiumToProtocol",
          "type": "uint128"
        }
      ],
      "name": "updateFlashloanPremiums",
      "outputs": [],
      "stateMutability": "nonpayable",
      "type": "function"
    },
    {
      "inputs": [
        {
          "internalType": "address",
          "name": "asset",
          "type": "address"
        },
        {
          "internalType": "uint256",
          "name": "amount",
          "type": "uint256"
        },
        {
          "internalType": "address",
          "name": "to",
          "type": "address"
        }
      ],
      "name": "withdraw",
      "outputs": [
        {
          "internalType": "uint256",
          "name": "",
          "type": "uint256"
        }
      ],
      "stateMutability": "nonpayable",
      "type": "function"
    }
  ],
  "bytecode": "0x60a060405260008055603b805461ffff60501b19166a80000000000000000000001790553480156200003057600080fd5b50604051620046d3380380620046d3833981016040819052620000539162000065565b6001600160a01b031660805262000097565b6000602082840312156200007857600080fd5b81516001600160a01b03811681146200009057600080fd5b9392505050565b6080516145be62000115600039600081816102e101528181610a0701528181610ac601528181610e490152818161133d015281816115af01528181611b9001528181611c3b01528181611e3f01528181612094015281816122890152818161270301528181612b5201528181612c7e0152612da201526145be6000f3fe608060405234801561001057600080fd5b50600436106102945760003560e01c80636c6f6ae111610167578063d15e0053116100ce578063e82fec2f11610087578063e82fec2f146108fd578063e8eda9df14610627578063eddf1b791461090f578063ee3e210b1461093b578063f51e435b1461094e578063f8119d511461096157600080fd5b8063d15e005314610889578063d1946dbc1461089c578063d579ea7d146108b1578063d5ed3933146108c4578063d65dc7a1146108d7578063e43e88a1146108ea57600080fd5b8063bcb6e52211610120578063bcb6e522146107bb578063bf92857c146107ce578063c44b11f71461080e578063c4d66de814610850578063cd11238214610863578063cea9d26f1461087657600080fd5b80636c6f6ae11461073c5780637a708e921461075c57806394ba89a21461076f5780639cd1999614610782578063a415bcad14610795578063ab9c4b5d146107a857600080fd5b8063386497fd1161020b5780635a3b74b9116101c45780635a3b74b914610614578063617ba0371461062757806363c9b8601461063a57806369328dec146106fe57806369a933a5146107115780636a99c0361461072457600080fd5b8063386497fd1461052d57806342b0b77c146105405780634417a5831461055357806352751797146105a4578063573ade81146105d157806357c68dc4146105e457600080fd5b80631d2118f91161025d5780631d2118f914610340578063272d90721461035357806328530a471461035b5780632dad97d41461036e5780633036b4391461038157806335ea6a751461039457600080fd5b8062a718a9146102995780630148170e146102ae57806302c205f0146102c95780630542975c146102dc578063074b2e431461031b575b600080fd5b6102ac6102a73660046131a7565b610982565b005b6102b6600181565b6040519081526020015b60405180910390f35b6102ac6102d7366004613232565b610b96565b6103037f000000000000000000000000000000000000000000000000000000000000000081565b6040516001600160a01b0390911681526020016102c0565b603a546001600160801b03165b6040516001600160801b0390911681526020016102c0565b6102ac61034e3660046132b1565b610cb5565b6039546102b6565b6102ac6103693660046132ea565b610ddb565b6102b661037c366004613305565b610f79565b6102ac61038f36600461333a565b61107e565b6105206103a2366004613353565b604080516102008101825260006101e08201818152825260208201819052918101829052606081018290526080810182905260a0810182905260c0810182905260e08101829052610100810182905261012081018290526101408101829052610160810182905261018081018290526101a081018290526101c0810191909152506001600160a01b0390811660009081526034602090815260409182902082516102008101845281546101e08201908152815260018201546001600160801b0380821694830194909452600160801b908190048416948201949094526002820154808416606083015284900483166080820152600382015480841660a083015284810464ffffffffff1660c0830152600160a81b900461ffff1660e0820152600482015485166101008201526005820154851661012082015260068201548516610140820152600782015490941661016085015260088101548083166101808601529290920481166101a0840152600990910154166101c082015290565b6040516102c09190613370565b6102b661053b366004613353565b61108b565b6102ac61054e3660046134f3565b6110b2565b610595610561366004613353565b60408051602080820183526000918290526001600160a01b0393909316815260358352819020815192830190915254815290565b604051905181526020016102c0565b6103036105b2366004613575565b61ffff166000908152603660205260409020546001600160a01b031690565b6102b66105df366004613590565b6111d6565b6102ac6105f2366004613575565b603b805461ffff909216600160501b0261ffff60501b19909216919091179055565b6102ac6106223660046135da565b6112e3565b6102ac610635366004613608565b61146c565b6102ac610648366004613353565b6001600160a01b03166000818152603460208181526040808420600381018054600160a81b900461ffff1686526036845291852080546001600160a01b031990811690915595855292909152828255600182018390556002820183905580546001600160b81b0319169055600481018054841690556005810180548416905560068101805484169055600781018054909316909255600882015560090180546fffffffffffffffffffffffffffffffff19169055565b6102b661070c366004613659565b61151d565b6102ac61071f366004613608565b6116d6565b603a54600160801b90046001600160801b0316610328565b61074f61074a3660046132ea565b61175d565b6040516102c091906136e8565b6102ac61076a36600461373d565b61188a565b6102ac61077d3660046137a0565b6119dd565b6102ac610790366004613811565b611a51565b6102ac6107a3366004613853565b611a8d565b6102ac6107b6366004613892565b611cd4565b6102ac6107c93660046139a3565b611fe6565b6107e16107dc366004613353565b612007565b604080519687526020870195909552938501929092526060840152608083015260a082015260c0016102c0565b61059561081c366004613353565b60408051602080820183526000918290526001600160a01b0393909316815260348352819020815192830190915254815290565b6102ac61085e366004613353565b6121e6565b6102ac6108713660046132b1565b612326565b6102ac6108843660046139d6565b612389565b6102b6610897366004613353565b612410565b6108a4612431565b6040516102c09190613a17565b6102ac6108bf366004613ad4565b612534565b6102ac6108d2366004613bee565b61261d565b6102b66108e5366004613305565b612809565b6102ac6108f8366004613353565b612883565b603b5467ffffffffffffffff166102b6565b6102b661091d366004613353565b6001600160a01b031660009081526038602052604090205460ff1690565b6102b6610949366004613c53565b6128d2565b6102ac61095c366004613c99565b612a3a565b603b54600160501b900461ffff1660405161ffff90911681526020016102c0565b73__$7aaac89d2be56e6264cee9b7123dcdf497$__6383c1087d6034603660356037604051806101200160405280603b60089054906101000a900461ffff1661ffff1681526020018981526020018c6001600160a01b031681526020018b6001600160a01b031681526020018a6001600160a01b0316815260200188151581526020017f00000000000000000000000000000000000000000000000000000000000000006001600160a01b031663fca513a86040518163ffffffff1660e01b8152600401602060405180830381865afa158015610a63573d6000803e3d6000fd5b505050506040513d601f19601f82011682018060405250810190610a879190613cda565b6001600160a01b0390811682528b81166000908152603860209081526040918290205460ff16818501528151635eb88d3d60e01b8152825192909401937f000000000000000000000000000000000000000000000000000000000000000090931692635eb88d3d92600480830193928290030181865afa158015610b0f573d6000803e3d6000fd5b505050506040513d601f19601f82011682018060405250810190610b339190613cda565b6001600160a01b03168152506040518663ffffffff1660e01b8152600401610b5f959493929190613cf7565b60006040518083038186803b158015610b7757600080fd5b505af4158015610b8b573d6000803e3d6000fd5b505050505050505050565b60405163d505accf60e01b81526001600160a01b0389169063d505accf90610bce90339030908c908a908a908a908a90600401613db0565b600060405180830381600087803b158015610be857600080fd5b505af1158015610bfc573d6000803e3d6000fd5b5050506001600160a01b038088166000818152603560209081526040918290208251608081018452948e1685529084018c90528382019290925261ffff8916606084015251631913f16160e01b815273__$0364c6926b1a7324f59aa0c5e0b1cd1543$__9350631913f16192610c7b9260349260369290600401613df1565b60006040518083038186803b158015610c9357600080fd5b505af4158015610ca7573d6000803e3d6000fd5b505050505050505050505050565b610cbd612b46565b604080518082019091526002815261373760f01b60208201526001600160a01b038316610d065760405162461bcd60e51b8152600401610cfd9190613e42565b60405180910390fd5b506001600160a01b038216600090815260346020526040902060030154600160a81b900461ffff16151580610d7057506000805260366020527f4cb2b152c1b54ce671907a93c300fd5aa72383a9d4ec19a81e3333632ae92e00546001600160a01b038381169116145b604051806040016040528060028152602001611c1960f11b81525090610da95760405162461bcd60e51b8152600401610cfd9190613e42565b506001600160a01b03918216600090815260346020526040902060070180546001600160a01b03191691909216179055565b73__$771104f9f9dd53286b2b9142b9b61a21e3$__635d5dc313603460366037603860356000336001600160a01b03166001600160a01b031681526020019081526020016000206040518060600160405280603b60089054906101000a900461ffff1661ffff1681526020017f00000000000000000000000000000000000000000000000000000000000000006001600160a01b031663fca513a86040518163ffffffff1660e01b8152600401602060405180830381865afa158015610ea5573d6000803e3d6000fd5b505050506040513d601f19601f82011682018060405250810190610ec99190613cda565b6001600160a01b031681526020018960ff168152506040518763ffffffff1660e01b8152600401610f469695949392919095865260208087019590955260408087019490945260608601929092526080850152805160a0850152918201516001600160a01b031660c0840152015160ff1660e08201526101000190565b60006040518083038186803b158015610f5e57600080fd5b505af4158015610f72573d6000803e3d6000fd5b5050505050565b600073__$da80a5dff72a24efc0f16ade3f36bfde6f$__6340e95de66034603660356000336001600160a01b03166001600160a01b031681526020019081526020016000206040518060a001604052808a6001600160a01b03168152602001898152602001886002811115610ff057610ff0613e55565b600281111561100157611001613e55565b81523360208201526001604091820152516001600160e01b031960e087901b1681526110339493929190600401613e8d565b602060405180830381865af4158015611050573d6000803e3d6000fd5b505050506040513d601f19601f820116820180604052508101906110749190613ef3565b90505b9392505050565b611086612b46565b603955565b6001600160a01b03811660009081526034602052604081206110ac90612c18565b92915050565b60006040518060e00160405280886001600160a01b03168152602001876001600160a01b0316815260200186815260200185858080601f016020809104026020016040519081016040528093929190818152602001838380828437600092018290525093855250505061ffff8516602080840191909152603a546001600160801b03600160801b8204811660408087019190915291166060909401939093526001600160a01b038a16825260349052819020905163a1fe0e8d60e01b815291925073__$d54d53bb51161a4f44e079b4b99f7ce900$__9163a1fe0e8d9161119d918590600401613f0c565b60006040518083038186803b1580156111b557600080fd5b505af41580156111c9573d6000803e3d6000fd5b5050505050505050505050565b600073__$da80a5dff72a24efc0f16ade3f36bfde6f$__6340e95de66034603660356000876001600160a01b03166001600160a01b031681526020019081526020016000206040518060a001604052808b6001600160a01b031681526020018a815260200189600281111561124d5761124d613e55565b600281111561125e5761125e613e55565b81526001600160a01b03891660208201526000604091820152516001600160e01b031960e087901b1681526112999493929190600401613e8d565b602060405180830381865af41580156112b6573d6000803e3d6000fd5b505050506040513d601f19601f820116820180604052508101906112da9190613ef3565b95945050505050565b73__$0364c6926b1a7324f59aa0c5e0b1cd1543$__63bf697a2660346036603760356000336001600160a01b03166001600160a01b031681526020019081526020016000208787603b60089054906101000a900461ffff167f00000000000000000000000000000000000000000000000000000000000000006001600160a01b031663fca513a86040518163ffffffff1660e01b8152600401602060405180830381865afa158015611399573d6000803e3d6000fd5b505050506040513d601f19601f820116820180604052508101906113bd9190613cda565b336000908152603860205260409081902054905160e08b901b6001600160e01b031916815260048101999099526024890197909752604488019590955260648701939093526001600160a01b039182166084870152151560a486015261ffff90911660c48501521660e483015260ff16610104820152610124015b60006040518083038186803b15801561145057600080fd5b505af4158015611464573d6000803e3d6000fd5b505050505050565b6001600160a01b03808316600081815260356020908152604091829020825160808101845294891685529084018790528382019290925261ffff8416606084015251631913f16160e01b815273__$0364c6926b1a7324f59aa0c5e0b1cd1543$__92631913f161926114e79260349260369291600401613df1565b60006040518083038186803b1580156114ff57600080fd5b505af4158015611513573d6000803e3d6000fd5b5050505050505050565b600073__$0364c6926b1a7324f59aa0c5e0b1cd1543$__63186dea4460346036603760356000336001600160a01b03166001600160a01b031681526020019081526020016000206040518060c001604052808b6001600160a01b031681526020018a8152602001896001600160a01b03168152602001603b60089054906101000a900461ffff1661ffff1681526020017f00000000000000000000000000000000000000000000000000000000000000006001600160a01b031663fca513a86040518163ffffffff1660e01b8152600401602060405180830381865afa15801561160b573d6000803e3d6000fd5b505050506040513d601f19601f8201168201806040525081019061162f9190613cda565b6001600160a01b039081168252336000908152603860209081526040918290205460ff90811694820194909452815160e08b901b6001600160e01b031916815260048101999099526024890197909752604488019590955260648701939093528151831660848701529381015160a486015291820151811660c4850152606082015160e485015260808201511661010484015260a001511661012482015261014401611033565b6116de612c7c565b6001600160a01b03828116600081815260356020526040908190209051630413c86f60e01b81526034600482015260366024820152604481019190915291861660648301526084820185905260a482015261ffff821660c482015273__$0d3486b3d61ae0d148a0cb9be698e540c7$__90630413c86f9060e4016114e7565b6040805160a081018252600080825260208201819052918101829052606080820192909252608081019190915260ff8216600090815260376020908152604091829020825160a081018452815461ffff808216835262010000820481169483019490945264010000000081049093169381019390935266010000000000009091046001600160a01b0316606083015260018101805460808401919061180190613f89565b80601f016020809104026020016040519081016040528092919081815260200182805461182d90613f89565b801561187a5780601f1061184f5761010080835404028352916020019161187a565b820191906000526020600020905b81548152906001019060200180831161185d57829003601f168201915b5050505050815250509050919050565b611892612b46565b73__$b281229c50ea71be8b79a0acc9d121fc39$__6369fc1bdf603460366040518060e001604052808a6001600160a01b03168152602001896001600160a01b03168152602001886001600160a01b03168152602001876001600160a01b03168152602001866001600160a01b03168152602001603b60089054906101000a900461ffff1661ffff168152602001611935603b5461ffff600160501b9091041690565b61ffff168152506040518463ffffffff1660e01b815260040161195a93929190613fbe565b602060405180830381865af4158015611977573d6000803e3d6000fd5b505050506040513d601f19601f8201168201806040525081019061199b9190614040565b15610f7257603b8054600160401b900461ffff169060086119bb83614073565b91906101000a81548161ffff021916908361ffff160217905550505050505050565b6001600160a01b0382166000908152603460209081526040808320338452603590925290912073__$da80a5dff72a24efc0f16ade3f36bfde6f$__9163eac4d7039185856002811115611a3257611a32613e55565b6040518563ffffffff1660e01b81526004016114389493929190614095565b604051631230b2a360e21b815273__$b281229c50ea71be8b79a0acc9d121fc39$__906348c2ca8c9061143890603490869086906004016140bf565b73__$da80a5dff72a24efc0f16ade3f36bfde6f$__631e6473f960346036603760356000876001600160a01b03166001600160a01b031681526020019081526020016000206040518061018001604052808c6001600160a01b03168152602001336001600160a01b03168152602001886001600160a01b031681526020018b81526020018a6002811115611b2357611b23613e55565b6002811115611b3457611b34613e55565b815261ffff808b166020808401919091526001604080850191909152603b5467ffffffffffffffff81166060860152600160401b900490921660808401528151631f94a27560e31b8152915160a0909301926001600160a01b037f0000000000000000000000000000000000000000000000000000000000000000169263fca513a89260048083019391928290030181865afa158015611bd8573d6000803e3d6000fd5b505050506040513d601f19601f82011682018060405250810190611bfc9190613cda565b6001600160a01b0390811682528981166000908152603860209081526040918290205460ff16818501528151635eb88d3d60e01b8152825192909401937f000000000000000000000000000000000000000000000000000000000000000090931692635eb88d3d92600480830193928290030181865afa158015611c84573d6000803e3d6000fd5b505050506040513d601f19601f82011682018060405250810190611ca89190613cda565b6001600160a01b03168152506040518663ffffffff1660e01b8152600401610b5f959493929190614117565b6000604051806101c001604052808d6001600160a01b031681526020018c8c808060200260200160405190810160405280939291908181526020018383602002808284376000920191909152505050908252506040805160208c810282810182019093528c82529283019290918d918d9182918501908490808284376000920191909152505050908252506040805160208a810282810182019093528a82529283019290918b918b9182918501908490808284376000920191909152505050908252506001600160a01b03871660208083019190915260408051601f88018390048302810183018252878152920191908790879081908401838280828437600092018290525093855250505061ffff808616602080850191909152603a546001600160801b03600160801b8204811660408088019190915291166060860152603b5467ffffffffffffffff81166080870152600160401b900490921660a08501526001600160a01b037f0000000000000000000000000000000000000000000000000000000000000000811660c08601819052908b16845260388252928290205460ff1660e0850152815163383e6b8b60e11b815291516101009094019363707cd7169260048082019392918290030181865afa158015611eb9573d6000803e3d6000fd5b505050506040513d601f19601f82011682018060405250810190611edd9190613cda565b60405163fa50f29760e01b81523360048201526001600160a01b03919091169063fa50f29790602401602060405180830381865afa158015611f23573d6000803e3d6000fd5b505050506040513d601f19601f82011682018060405250810190611f479190614040565b151590526001600160a01b03861660009081526035602052604090819020905163173931f560e11b815291925073__$d54d53bb51161a4f44e079b4b99f7ce900$__91632e7263ea91611fa89160349160369160379190889060040161427f565b60006040518083038186803b158015611fc057600080fd5b505af4158015611fd4573d6000803e3d6000fd5b50505050505050505050505050505050565b611fee612b46565b6001600160801b03908116600160801b02911617603a55565b604080516001600160a01b0383811660008181526035602090815285822060c0860187525460a086019081528552603b54600160401b900461ffff1681860152848601929092528451631f94a27560e31b8152945190948594859485948594859473__$b281229c50ea71be8b79a0acc9d121fc39$__946326ec273f9460349460369460379460608501937f0000000000000000000000000000000000000000000000000000000000000000169263fca513a8926004808401938290030181865afa1580156120da573d6000803e3d6000fd5b505050506040513d601f19601f820116820180604052508101906120fe9190613cda565b6001600160a01b0390811682528e81166000908152603860209081526040918290205460ff90811694820194909452815160e08a901b6001600160e01b0319168152600481019890985260248801969096526044870194909452825151606487015293820151608486015291810151831660a4850152606081015190921660c48401526080909101511660e48201526101040160c060405180830381865af41580156121ae573d6000803e3d6000fd5b505050506040513d601f19601f820116820180604052508101906121d291906143e0565b949c939b5091995097509550909350915050565b60015460039060ff16806121f95750303b155b80612205575060005481115b6122685760405162461bcd60e51b815260206004820152602e60248201527f436f6e747261637420696e7374616e63652068617320616c726561647920626560448201526d195b881a5b9a5d1a585b1a5e995960921b6064820152608401610cfd565b60015460ff16158015612287576001805460ff19168117905560008290555b7f00000000000000000000000000000000000000000000000000000000000000006001600160a01b0316836001600160a01b03161460405180604001604052806002815260200161189960f11b815250906122f55760405162461bcd60e51b8152600401610cfd9190613e42565b50603b805467ffffffffffffffff19166109c41790556009603a558015612321576001805460ff191690555b505050565b6001600160a01b03828116600081815260346020526040908190209051631a5cfdd160e21b815260048101919091526024810191909152908216604482015273__$da80a5dff72a24efc0f16ade3f36bfde6f$__90636973f74490606401611438565b612391612da0565b6040516343d9915960e11b81526001600160a01b038085166004830152831660248201526044810182905273__$b281229c50ea71be8b79a0acc9d121fc39$__906387b322b29060640160006040518083038186803b1580156123f357600080fd5b505af4158015612407573d6000803e3d6000fd5b50505050505050565b6001600160a01b03811660009081526034602052604081206110ac90612ec4565b603b54606090600160401b900461ffff166000808267ffffffffffffffff81111561245e5761245e613a64565b604051908082528060200260200182016040528015612487578160200160208202803683370190505b50905060005b8381101561252a576000818152603660205260409020546001600160a01b03161561250a576000818152603660205260409020546001600160a01b0316826124d5858461442a565b815181106124e5576124e5614441565b60200260200101906001600160a01b031690816001600160a01b031681525050612518565b8261251481614457565b9350505b8061252281614457565b91505061248d565b5091038152919050565b61253c612b46565b604080518082019091526002815261189b60f11b602082015260ff83166125765760405162461bcd60e51b8152600401610cfd9190613e42565b5060ff821660009081526037602090815260409182902083518154838601519486015160608701516001600160a01b03166601000000000000026601000000000000600160d01b031961ffff9283166401000000000216640100000000600160d01b0319978316620100000263ffffffff19909416929094169190911791909117949094161792909217825560808301518051849392610f729260018501929101906130db565b6001600160a01b038681166000908152603460209081526040918290206004015482518084019093526002835261313160f01b9183019190915290911633146126795760405162461bcd60e51b8152600401610cfd9190613e42565b5073__$0364c6926b1a7324f59aa0c5e0b1cd1543$__638a5dadd160346036603760356040518061012001604052808d6001600160a01b031681526020018c6001600160a01b031681526020018b6001600160a01b031681526020018a8152602001898152602001888152602001603b60089054906101000a900461ffff1661ffff1681526020017f00000000000000000000000000000000000000000000000000000000000000006001600160a01b031663fca513a86040518163ffffffff1660e01b8152600401602060405180830381865afa15801561275f573d6000803e3d6000fd5b505050506040513d601f19601f820116820180604052508101906127839190613cda565b6001600160a01b0390811682528d166000908152603860209081526040918290205460ff16920191909152516001600160e01b031960e088901b1681526127d1959493929190600401614472565b60006040518083038186803b1580156127e957600080fd5b505af41580156127fd573d6000803e3d6000fd5b50505050505050505050565b6000612813612c7c565b6001600160a01b0384166000818152603460205260409081902060395491516311ce864960e31b8152600481019190915260248101929092526044820185905260648201849052608482015273__$0d3486b3d61ae0d148a0cb9be698e540c7$__90638e7432489060a401611033565b61288b612b46565b604051631e3b414560e01b8152603460048201526001600160a01b038216602482015273__$b281229c50ea71be8b79a0acc9d121fc39$__90631e3b414590604401610f46565b60405163d505accf60e01b81526000906001600160a01b038a169063d505accf9061290d90339030908d908b908b908b908b90600401613db0565b600060405180830381600087803b15801561292757600080fd5b505af115801561293b573d6000803e3d6000fd5b5050505060006040518060a001604052808b6001600160a01b031681526020018a815260200189600281111561297357612973613e55565b600281111561298457612984613e55565b81526001600160a01b038916602080830182905260006040938401819052918252603590528190209051632074aef360e11b815291925073__$da80a5dff72a24efc0f16ade3f36bfde6f$__916340e95de6916129eb916034916036918790600401613e8d565b602060405180830381865af4158015612a08573d6000803e3d6000fd5b505050506040513d601f19601f82011682018060405250810190612a2c9190613ef3565b9a9950505050505050505050565b612a42612b46565b604080518082019091526002815261373760f01b60208201526001600160a01b038316612a825760405162461bcd60e51b8152600401610cfd9190613e42565b506001600160a01b038216600090815260346020526040902060030154600160a81b900461ffff16151580612aec57506000805260366020527f4cb2b152c1b54ce671907a93c300fd5aa72383a9d4ec19a81e3333632ae92e00546001600160a01b038381169116145b604051806040016040528060028152602001611c1960f11b81525090612b255760405162461bcd60e51b8152600401610cfd9190613e42565b506001600160a01b0391909116600090815260346020526040902090359055565b336001600160a01b03167f00000000000000000000000000000000000000000000000000000000000000006001600160a01b031663631adfca6040518163ffffffff1660e01b8152600401602060405180830381865afa158015612bae573d6000803e3d6000fd5b505050506040513d601f19601f82011682018060405250810190612bd29190613cda565b6001600160a01b03161460405180604001604052806002815260200161031360f41b81525090612c155760405162461bcd60e51b8152600401610cfd9190613e42565b50565b6003810154600090600160801b900464ffffffffff1642811415612c48575050600201546001600160801b031690565b6002830154611077906001600160801b0380821691612c7091600160801b9091041684612f1c565b90612f29565b50919050565b7f00000000000000000000000000000000000000000000000000000000000000006001600160a01b031663707cd7166040518163ffffffff1660e01b8152600401602060405180830381865afa158015612cda573d6000803e3d6000fd5b505050506040513d601f19601f82011682018060405250810190612cfe9190613cda565b604051633933006760e11b81523360048201526001600160a01b03919091169063726600ce90602401602060405180830381865afa158015612d44573d6000803e3d6000fd5b505050506040513d601f19601f82011682018060405250810190612d689190614040565b604051806040016040528060018152602001601b60f91b81525090612c155760405162461bcd60e51b8152600401610cfd9190613e42565b7f00000000000000000000000000000000000000000000000000000000000000006001600160a01b031663707cd7166040518163ffffffff1660e01b8152600401602060405180830381865afa158015612dfe573d6000803e3d6000fd5b505050506040513d601f19601f82011682018060405250810190612e229190613cda565b604051637be53ca160e01b81523360048201526001600160a01b039190911690637be53ca190602401602060405180830381865afa158015612e68573d6000803e3d6000fd5b505050506040513d601f19601f82011682018060405250810190612e8c9190614040565b604051806040016040528060018152602001603160f81b81525090612c155760405162461bcd60e51b8152600401610cfd9190613e42565b6003810154600090600160801b900464ffffffffff1642811415612ef4575050600101546001600160801b031690565b6001830154611077906001600160801b0380821691612c7091600160801b9091041684612f6d565b6000611077838342612fb2565b600081156b019d971e4fe8401e740000001983900484111517612f4b57600080fd5b506b033b2e3c9fd0803ce800000091026b019d971e4fe8401e74000000010490565b600080612f8164ffffffffff84164261442a565b612f8b9085614519565b6301e1338090049050612faa816b033b2e3c9fd0803ce800000061454e565b949350505050565b600080612fc664ffffffffff85168461442a565b905080612fe2576b033b2e3c9fd0803ce8000000915050611077565b60001981016000808060028511612ffa576000612fff565b600285035b925066038882915c40006130138a80612f29565b8161302057613020614538565b0491506301e13380613032838b612f29565b8161303f5761303f614538565b04905060008261304f8688614519565b6130599190614519565b6002900490506000828561306d888a614519565b6130779190614519565b6130819190614519565b60069004905080826301e133806130988a8f614519565b6130a29190614566565b6130b8906b033b2e3c9fd0803ce800000061454e565b6130c2919061454e565b6130cc919061454e565b9b9a5050505050505050505050565b8280546130e790613f89565b90600052602060002090601f016020900481019282613109576000855561314f565b82601f1061312257805160ff191683800117855561314f565b8280016001018555821561314f579182015b8281111561314f578251825591602001919060010190613134565b5061315b92915061315f565b5090565b5b8082111561315b5760008155600101613160565b6001600160a01b0381168114612c1557600080fd5b803561319481613174565b919050565b8015158114612c1557600080fd5b600080600080600060a086880312156131bf57600080fd5b85356131ca81613174565b945060208601356131da81613174565b935060408601356131ea81613174565b925060608601359150608086013561320181613199565b809150509295509295909350565b803561ffff8116811461319457600080fd5b803560ff8116811461319457600080fd5b600080600080600080600080610100898b03121561324f57600080fd5b883561325a81613174565b975060208901359650604089013561327181613174565b955061327f60608a0161320f565b94506080890135935061329460a08a01613221565b925060c0890135915060e089013590509295985092959890939650565b600080604083850312156132c457600080fd5b82356132cf81613174565b915060208301356132df81613174565b809150509250929050565b6000602082840312156132fc57600080fd5b61107782613221565b60008060006060848603121561331a57600080fd5b833561332581613174565b95602085013595506040909401359392505050565b60006020828403121561334c57600080fd5b5035919050565b60006020828403121561336557600080fd5b813561107781613174565b81515181526101e08101602083015161339460208401826001600160801b03169052565b5060408301516133af60408401826001600160801b03169052565b5060608301516133ca60608401826001600160801b03169052565b5060808301516133e560808401826001600160801b03169052565b5060a083015161340060a08401826001600160801b03169052565b5060c083015161341960c084018264ffffffffff169052565b5060e083015161342f60e084018261ffff169052565b50610100838101516001600160a01b039081169184019190915261012080850151821690840152610140808501518216908401526101608085015190911690830152610180808401516001600160801b03908116918401919091526101a0808501518216908401526101c09384015116929091019190915290565b60008083601f8401126134bc57600080fd5b50813567ffffffffffffffff8111156134d457600080fd5b6020830191508360208285010111156134ec57600080fd5b9250929050565b60008060008060008060a0878903121561350c57600080fd5b863561351781613174565b9550602087013561352781613174565b945060408701359350606087013567ffffffffffffffff81111561354a57600080fd5b61355689828a016134aa565b909450925061356990506080880161320f565b90509295509295509295565b60006020828403121561358757600080fd5b6110778261320f565b600080600080608085870312156135a657600080fd5b84356135b181613174565b9350602085013592506040850135915060608501356135cf81613174565b939692955090935050565b600080604083850312156135ed57600080fd5b82356135f881613174565b915060208301356132df81613199565b6000806000806080858703121561361e57600080fd5b843561362981613174565b935060208501359250604085013561364081613174565b915061364e6060860161320f565b905092959194509250565b60008060006060848603121561366e57600080fd5b833561367981613174565b925060208401359150604084013561369081613174565b809150509250925092565b6000815180845260005b818110156136c1576020818501810151868301820152016136a5565b818111156136d3576000602083870101525b50601f01601f19169290920160200192915050565b60208152600061ffff8084511660208401528060208501511660408401528060408501511660608401525060018060a01b036060840151166080830152608083015160a080840152612faa60c084018261369b565b600080600080600060a0868803121561375557600080fd5b853561376081613174565b9450602086013561377081613174565b9350604086013561378081613174565b9250606086013561379081613174565b9150608086013561320181613174565b600080604083850312156137b357600080fd5b82356137be81613174565b946020939093013593505050565b60008083601f8401126137de57600080fd5b50813567ffffffffffffffff8111156137f657600080fd5b6020830191508360208260051b85010111156134ec57600080fd5b6000806020838503121561382457600080fd5b823567ffffffffffffffff81111561383b57600080fd5b613847858286016137cc565b90969095509350505050565b600080600080600060a0868803121561386b57600080fd5b853561387681613174565b945060208601359350604086013592506137906060870161320f565b600080600080600080600080600080600060e08c8e0312156138b357600080fd5b6138bc8c613189565b9a5067ffffffffffffffff8060208e013511156138d857600080fd5b6138e88e60208f01358f016137cc565b909b50995060408d01358110156138fe57600080fd5b61390e8e60408f01358f016137cc565b909950975060608d013581101561392457600080fd5b6139348e60608f01358f016137cc565b909750955061394560808e01613189565b94508060a08e0135111561395857600080fd5b506139698d60a08e01358e016134aa565b909350915061397a60c08d0161320f565b90509295989b509295989b9093969950565b80356001600160801b038116811461319457600080fd5b600080604083850312156139b657600080fd5b6139bf8361398c565b91506139cd6020840161398c565b90509250929050565b6000806000606084860312156139eb57600080fd5b83356139f681613174565b92506020840135613a0681613174565b929592945050506040919091013590565b6020808252825182820181905260009190848201906040850190845b81811015613a585783516001600160a01b031683529284019291840191600101613a33565b50909695505050505050565b634e487b7160e01b600052604160045260246000fd5b60405160a0810167ffffffffffffffff81118282101715613a9d57613a9d613a64565b60405290565b604051601f8201601f1916810167ffffffffffffffff81118282101715613acc57613acc613a64565b604052919050565b60008060408385031215613ae757600080fd5b613af083613221565b915060208084013567ffffffffffffffff80821115613b0e57600080fd5b9085019060a08288031215613b2257600080fd5b613b2a613a7a565b613b338361320f565b8152613b4084840161320f565b84820152613b506040840161320f565b60408201526060830135613b6381613174565b6060820152608083013582811115613b7a57600080fd5b80840193505087601f840112613b8f57600080fd5b823582811115613ba157613ba1613a64565b613bb3601f8201601f19168601613aa3565b92508083528885828601011115613bc957600080fd5b8085850186850137600085828501015250816080820152809450505050509250929050565b60008060008060008060c08789031215613c0757600080fd5b8635613c1281613174565b95506020870135613c2281613174565b94506040870135613c3281613174565b959894975094956060810135955060808101359460a0909101359350915050565b600080600080600080600080610100898b031215613c7057600080fd5b8835613c7b81613174565b97506020890135965060408901359550606089013561327f81613174565b6000808284036040811215613cad57600080fd5b8335613cb881613174565b92506020601f1982011215613ccc57600080fd5b506020830190509250929050565b600060208284031215613cec57600080fd5b815161107781613174565b60006101a08201905086825285602083015284604083015283606083015282516080830152602083015160a0830152604083015160018060a01b0380821660c08501528060608601511660e085015250506080830151610100613d64818501836001600160a01b03169052565b60a0850151151561012085015260c08501516001600160a01b0390811661014086015260e086015160ff166101608601529085015190811661018085015290505b509695505050505050565b6001600160a01b0397881681529590961660208601526040850193909352606084019190915260ff16608083015260a082015260c081019190915260e00190565b93845260208085019390935260408085019290925280516001600160a01b039081166060808701919091529382015160808601529181015190911660a0840152015161ffff1660c082015260e00190565b602081526000611077602083018461369b565b634e487b7160e01b600052602160045260246000fd5b60038110613e8957634e487b7160e01b600052602160045260246000fd5b9052565b8481526020808201859052604080830185905283516001600160a01b03908116606085015291840151608084015283015161010083019190613ed260a0850182613e6b565b5060608401511660c0830152608090920151151560e0909101529392505050565b600060208284031215613f0557600080fd5b5051919050565b82815260406020820152600060018060a01b038084511660408401528060208501511660608401525060408301516080830152606083015160e060a0840152613f5961012084018261369b565b905061ffff60808501511660c084015260a084015160e084015260c0840151610100840152809150509392505050565b600181811c90821680613f9d57607f821691505b60208210811415612c7657634e487b7160e01b600052602260045260246000fd5b60006101208201905084825283602083015260018060a01b038084511660408401528060208501511660608401528060408501511660808401528060608501511660a08401528060808501511660c08401525060a083015161402660e084018261ffff169052565b5060c083015161ffff811661010084015250949350505050565b60006020828403121561405257600080fd5b815161107781613199565b634e487b7160e01b600052601160045260246000fd5b600061ffff8083168181141561408b5761408b61405d565b6001019392505050565b848152602081018490526001600160a01b0383166040820152608081016112da6060830184613e6b565b83815260406020808301829052908201839052600090849060608401835b8681101561410b5783356140f081613174565b6001600160a01b0316825292820192908201906001016140dd565b50979650505050505050565b85815260208101859052604081018490526060810183905281516001600160a01b03166080820152610200810160208301516001600160a01b03811660a08401525060408301516001600160a01b03811660c084015250606083015160e0830152608083015161010061418c81850183613e6b565b60a085015191506101206141a58186018461ffff169052565b60c086015192506101406141bc8187018515159052565b60e08701516101608781019190915292870151610180870152908601516001600160a01b039081166101a08701529086015160ff166101c0860152908501519081166101e08501529050613da5565b600081518084526020808501945080840160005b838110156142445781516001600160a01b03168752958201959082019060010161421f565b509495945050505050565b600081518084526020808501945080840160005b8381101561424457815187529582019590820190600101614263565b85815284602082015283604082015282606082015260a060808201526142b160a0820183516001600160a01b03169052565b600060208301516101c08060c08501526142cf61026085018361420b565b91506040850151609f19808685030160e08701526142ed848361424f565b93506060870151915061010081878603018188015261430c858461424f565b94506080880151925061012061432c818901856001600160a01b03169052565b60a089015193506101408389880301818a0152614349878661369b565b965060c08a015194506101609350614366848a018661ffff169052565b60e08a0151945061018085818b0152838b015195506101a0935085848b0152828b0151878b0152818b01516101e08b0152848b015196506143b36102008b01886001600160a01b03169052565b8a015160ff81166102208b015295506143ca915050565b870151801515610240880152925061410b915050565b60008060008060008060c087890312156143f957600080fd5b865195506020870151945060408701519350606087015192506080870151915060a087015190509295509295509295565b60008282101561443c5761443c61405d565b500390565b634e487b7160e01b600052603260045260246000fd5b600060001982141561446b5761446b61405d565b5060010190565b858152602080820186905260408083018690526060830185905283516001600160a01b03908116608085015291840151821660a084015283015190811660c08301526101a082019050606083015160e08301526080830151610100818185015260a085015161012085015260c085015161014085015260e085015191506145056101608501836001600160a01b03169052565b84015160ff81166101808501529050613da5565b60008160001904831182151516156145335761453361405d565b500290565b634e487b7160e01b600052601260045260246000fd5b600082198211156145615761456161405d565b500190565b60008261458357634e487b7160e01b600052601260045260246000fd5b50049056fea2646970667358221220df285b3eb722e4429a8d14e555c0376a0246287a4ccf2393466ec4d62a98492f64736f6c634300080a0033",
  "linkReferences": {
    "contracts/contractsAave/protocol/libraries/logic/BorrowLogic.sol": {
      "BorrowLogic": [
        {
          "length": 20,
          "start": 4242
        },
        {
          "length": 20,
          "start": 4847
        },
        {
          "length": 20,
          "start": 6938
        },
        {
          "length": 20,
          "start": 7076
        },
        {
          "length": 20,
          "start": 9340
        },
        {
          "length": 20,
          "start": 10962
        }
      ]
    },
    "contracts/contractsAave/protocol/libraries/logic/BridgeLogic.sol": {
      "BridgeLogic": [
        {
          "length": 20,
          "start": 6224
        },
        {
          "length": 20,
          "start": 10614
        }
      ]
    },
    "contracts/contractsAave/protocol/libraries/logic/EModeLogic.sol": {
      "EModeLogic": [
        {
          "length": 20,
          "start": 3826
        }
      ]
    },
    "contracts/contractsAave/protocol/libraries/logic/FlashLoanLogic.sol": {
      "FlashLoanLogic": [
        {
          "length": 20,
          "start": 4746
        },
        {
          "length": 20,
          "start": 8331
        }
      ]
    },
    "contracts/contractsAave/protocol/libraries/logic/LiquidationLogic.sol": {
      "LiquidationLogic": [
        {
          "length": 20,
          "start": 2713
        }
      ]
    },
    "contracts/contractsAave/protocol/libraries/logic/PoolLogic.sol": {
      "PoolLogic": [
        {
          "length": 20,
          "start": 6569
        },
        {
          "length": 20,
          "start": 7029
        },
        {
          "length": 20,
          "start": 8575
        },
        {
          "length": 20,
          "start": 9427
        },
        {
          "length": 20,
          "start": 10693
        }
      ]
    },
    "contracts/contractsAave/protocol/libraries/logic/SupplyLogic.sol": {
      "SupplyLogic": [
        {
          "length": 20,
          "start": 3426
        },
        {
          "length": 20,
          "start": 5114
        },
        {
          "length": 20,
          "start": 5583
        },
        {
          "length": 20,
          "start": 5686
        },
        {
          "length": 20,
          "start": 10129
        }
      ]
    }
  },
  "deployedLinkReferences": {
    "contracts/contractsAave/protocol/libraries/logic/BorrowLogic.sol": {
      "BorrowLogic": [
        {
          "length": 20,
          "start": 3965
        },
        {
          "length": 20,
          "start": 4570
        },
        {
          "length": 20,
          "start": 6661
        },
        {
          "length": 20,
          "start": 6799
        },
        {
          "length": 20,
          "start": 9063
        },
        {
          "length": 20,
          "start": 10685
        }
      ]
    },
    "contracts/contractsAave/protocol/libraries/logic/BridgeLogic.sol": {
      "BridgeLogic": [
        {
          "length": 20,
          "start": 5947
        },
        {
          "length": 20,
          "start": 10337
        }
      ]
    },
    "contracts/contractsAave/protocol/libraries/logic/EModeLogic.sol": {
      "EModeLogic": [
        {
          "length": 20,
          "start": 3549
        }
      ]
    },
    "contracts/contractsAave/protocol/libraries/logic/FlashLoanLogic.sol": {
      "FlashLoanLogic": [
        {
          "length": 20,
          "start": 4469
        },
        {
          "length": 20,
          "start": 8054
        }
      ]
    },
    "contracts/contractsAave/protocol/libraries/logic/LiquidationLogic.sol": {
      "LiquidationLogic": [
        {
          "length": 20,
          "start": 2436
        }
      ]
    },
    "contracts/contractsAave/protocol/libraries/logic/PoolLogic.sol": {
      "PoolLogic": [
        {
          "length": 20,
          "start": 6292
        },
        {
          "length": 20,
          "start": 6752
        },
        {
          "length": 20,
          "start": 8298
        },
        {
          "length": 20,
          "start": 9150
        },
        {
          "length": 20,
          "start": 10416
        }
      ]
    },
    "contracts/contractsAave/protocol/libraries/logic/SupplyLogic.sol": {
      "SupplyLogic": [
        {
          "length": 20,
          "start": 3149
        },
        {
          "length": 20,
          "start": 4837
        },
        {
          "length": 20,
          "start": 5306
        },
        {
          "length": 20,
          "start": 5409
        },
        {
          "length": 20,
          "start": 9852
        }
      ]
    }
  }
}