{
  "_format": "hh-sol-artifact-1",
  "contractName": "MockPool",
  "sourceName": "contracts/contractsAave/mocks/helpers/MockPool.sol",
  "abi": [
    {
      "inputs": [
        {
          "internalType": "address",
          "name": "reserve",
          "type": "address"
        }
      ],
      "name": "addReserveToReservesList",
      "outputs": [],
      "stateMutability": "nonpayable",
      "type": "function"
    },
    {
      "inputs": [],
      "name": "getReservesList",
      "outputs": [
        {
          "internalType": "address[]",
          "name": "",
          "type": "address[]"
        }
      ],
      "stateMutability": "view",
      "type": "function"
    },
    {
      "inputs": [
        {
          "internalType": "address",
          "name": "provider",
          "type": "address"
        }
      ],
      "name": "initialize",
      "outputs": [],
      "stateMutability": "nonpayable",
      "type": "function"
    }
  ],
  "bytecode": "0x608060405234801561001057600080fd5b506102cb806100206000396000f3fe608060405234801561001057600080fd5b50600436106100415760003560e01c8063c4d66de814610046578063d1946dbc14610078578063e636a4f414610096575b600080fd5b6100766100543660046101c3565b606480546001600160a01b0319166001600160a01b0392909216919091179055565b005b6100806100f6565b60405161008d91906101f3565b60405180910390f35b6100766100a43660046101c3565b606580546001810182556000919091527f8ff97419363ffd7000167f130ef7168fbea05faf9251824ca5043f113cc6a7c70180546001600160a01b0319166001600160a01b0392909216919091179055565b60655460609060009067ffffffffffffffff81111561011757610117610240565b604051908082528060200260200182016040528015610140578160200160208202803683370190505b50905060005b6065548110156101bd576065818154811061016357610163610256565b9060005260206000200160009054906101000a90046001600160a01b031682828151811061019357610193610256565b6001600160a01b0390921660209283029190910190910152806101b58161026c565b915050610146565b50919050565b6000602082840312156101d557600080fd5b81356001600160a01b03811681146101ec57600080fd5b9392505050565b6020808252825182820181905260009190848201906040850190845b818110156102345783516001600160a01b03168352928401929184019160010161020f565b50909695505050505050565b634e487b7160e01b600052604160045260246000fd5b634e487b7160e01b600052603260045260246000fd5b600060001982141561028e57634e487b7160e01b600052601160045260246000fd5b506001019056fea2646970667358221220787fb17d45c3751a93758099efdc52bb4f681afa610ac22ce73acfe73f33a03a64736f6c634300080a0033",
  "linkReferences": {},
  "deployedLinkReferences": {}
}