{
  "_format": "hh-sol-artifact-1",
  "contractName": "AaveOracle",
  "sourceName": "contracts/contractsAave/misc/AaveOracle.sol",
  "abi": [
    {
      "inputs": [
        {
          "internalType": "contract IPoolAddressesProvider",
          "name": "provider",
          "type": "address"
        },
        {
          "internalType": "address[]",
          "name": "assets",
          "type": "address[]"
        },
        {
          "internalType": "address[]",
          "name": "sources",
          "type": "address[]"
        },
        {
          "internalType": "address",
          "name": "fallbackOracle",
          "type": "address"
        },
        {
          "internalType": "address",
          "name": "baseCurrency",
          "type": "address"
        },
        {
          "internalType": "uint256",
          "name": "baseCurrencyUnit",
          "type": "uint256"
        }
      ],
      "stateMutability": "nonpayable",
      "type": "constructor"
    },
    {
      "anonymous": false,
      "inputs": [
        {
          "indexed": true,
          "internalType": "address",
          "name": "asset",
          "type": "address"
        },
        {
          "indexed": true,
          "internalType": "address",
          "name": "source",
          "type": "address"
        }
      ],
      "name": "AssetSourceUpdated",
      "type": "event"
    },
    {
      "anonymous": false,
      "inputs": [
        {
          "indexed": true,
          "internalType": "address",
          "name": "baseCurrency",
          "type": "address"
        },
        {
          "indexed": false,
          "internalType": "uint256",
          "name": "baseCurrencyUnit",
          "type": "uint256"
        }
      ],
      "name": "BaseCurrencySet",
      "type": "event"
    },
    {
      "anonymous": false,
      "inputs": [
        {
          "indexed": true,
          "internalType": "address",
          "name": "fallbackOracle",
          "type": "address"
        }
      ],
      "name": "FallbackOracleUpdated",
      "type": "event"
    },
    {
      "inputs": [],
      "name": "ADDRESSES_PROVIDER",
      "outputs": [
        {
          "internalType": "contract IPoolAddressesProvider",
          "name": "",
          "type": "address"
        }
      ],
      "stateMutability": "view",
      "type": "function"
    },
    {
      "inputs": [],
      "name": "BASE_CURRENCY",
      "outputs": [
        {
          "internalType": "address",
          "name": "",
          "type": "address"
        }
      ],
      "stateMutability": "view",
      "type": "function"
    },
    {
      "inputs": [],
      "name": "BASE_CURRENCY_UNIT",
      "outputs": [
        {
          "internalType": "uint256",
          "name": "",
          "type": "uint256"
        }
      ],
      "stateMutability": "view",
      "type": "function"
    },
    {
      "inputs": [
        {
          "internalType": "address",
          "name": "asset",
          "type": "address"
        }
      ],
      "name": "getAssetPrice",
      "outputs": [
        {
          "internalType": "uint256",
          "name": "",
          "type": "uint256"
        }
      ],
      "stateMutability": "view",
      "type": "function"
    },
    {
      "inputs": [
        {
          "internalType": "address[]",
          "name": "assets",
          "type": "address[]"
        }
      ],
      "name": "getAssetsPrices",
      "outputs": [
        {
          "internalType": "uint256[]",
          "name": "",
          "type": "uint256[]"
        }
      ],
      "stateMutability": "view",
      "type": "function"
    },
    {
      "inputs": [],
      "name": "getFallbackOracle",
      "outputs": [
        {
          "internalType": "address",
          "name": "",
          "type": "address"
        }
      ],
      "stateMutability": "view",
      "type": "function"
    },
    {
      "inputs": [
        {
          "internalType": "address",
          "name": "asset",
          "type": "address"
        }
      ],
      "name": "getSourceOfAsset",
      "outputs": [
        {
          "internalType": "address",
          "name": "",
          "type": "address"
        }
      ],
      "stateMutability": "view",
      "type": "function"
    },
    {
      "inputs": [
        {
          "internalType": "address[]",
          "name": "assets",
          "type": "address[]"
        },
        {
          "internalType": "address[]",
          "name": "sources",
          "type": "address[]"
        }
      ],
      "name": "setAssetSources",
      "outputs": [],
      "stateMutability": "nonpayable",
      "type": "function"
    },
    {
      "inputs": [
        {
          "internalType": "address",
          "name": "fallbackOracle",
          "type": "address"
        }
      ],
      "name": "setFallbackOracle",
      "outputs": [],
      "stateMutability": "nonpayable",
      "type": "function"
    }
  ],
  "bytecode": "0x60e06040523480156200001157600080fd5b5060405162000fb538038062000fb583398101604081905262000034916200034e565b6001600160a01b0386166080526200004c83620000ab565b620000588585620000f5565b6001600160a01b03821660a081905260c08290526040518281527fe27c4c1372396a3d15a9922f74f9dfc7c72b1ad6d63868470787249c356454c19060200160405180910390a25050505050506200049a565b600180546001600160a01b0319166001600160a01b0383169081179091556040517fce7a780d33665b1ea097af5f155e3821b809ecbaa839d3b33aa83ba28168cefb90600090a250565b8051825114604051806040016040528060028152602001611b9b60f11b815250906200013f5760405162461bcd60e51b815260040162000136919062000402565b60405180910390fd5b5060005b82518110156200025b578181815181106200016257620001626200045a565b60200260200101516000808584815181106200018257620001826200045a565b60200260200101516001600160a01b03166001600160a01b0316815260200190815260200160002060006101000a8154816001600160a01b0302191690836001600160a01b03160217905550818181518110620001e357620001e36200045a565b60200260200101516001600160a01b03168382815181106200020957620002096200045a565b60200260200101516001600160a01b03167f22c5b7b2d8561d39f7f210b6b326a1aa69f15311163082308ac4877db6339dc160405160405180910390a380620002528162000470565b91505062000143565b505050565b6001600160a01b03811681146200027657600080fd5b50565b634e487b7160e01b600052604160045260246000fd5b80516200029c8162000260565b919050565b600082601f830112620002b357600080fd5b815160206001600160401b0380831115620002d257620002d262000279565b8260051b604051601f19603f83011681018181108482111715620002fa57620002fa62000279565b6040529384528581018301938381019250878511156200031957600080fd5b83870191505b84821015620003435762000333826200028f565b835291830191908301906200031f565b979650505050505050565b60008060008060008060c087890312156200036857600080fd5b8651620003758162000260565b60208801519096506001600160401b03808211156200039357600080fd5b620003a18a838b01620002a1565b96506040890151915080821115620003b857600080fd5b50620003c789828a01620002a1565b9450506060870151620003da8162000260565b6080880151909350620003ed8162000260565b8092505060a087015190509295509295509295565b600060208083528351808285015260005b81811015620004315785810183015185820160400152820162000413565b8181111562000444576000604083870101525b50601f01601f1916929092016040019392505050565b634e487b7160e01b600052603260045260246000fd5b60006000198214156200049357634e487b7160e01b600052601160045260246000fd5b5060010190565b60805160a05160c051610ad7620004de6000396000818161010701526103610152600081816101ae0152610336015260008181609d01526104f90152610ad76000f3fe608060405234801561001057600080fd5b50600436106100935760003560e01c806392bf2be01161006657806392bf2be0146101375780639d23d9f214610163578063abfd531014610183578063b3596f0714610196578063e19f4700146101a957600080fd5b80630542975c14610098578063170aee73146100dc5780636210308c146100f15780638c89b64f14610102575b600080fd5b6100bf7f000000000000000000000000000000000000000000000000000000000000000081565b6040516001600160a01b0390911681526020015b60405180910390f35b6100ef6100ea366004610844565b6101d0565b005b6001546001600160a01b03166100bf565b6101297f000000000000000000000000000000000000000000000000000000000000000081565b6040519081526020016100d3565b6100bf610145366004610844565b6001600160a01b039081166000908152602081905260409020541690565b6101766101713660046108ad565b6101e4565b6040516100d391906108ef565b6100ef610191366004610933565b610299565b6101296101a4366004610844565b610314565b6100bf7f000000000000000000000000000000000000000000000000000000000000000081565b6101d86104f5565b6101e181610696565b50565b606060008267ffffffffffffffff8111156102015761020161099f565b60405190808252806020026020018201604052801561022a578160200160208202803683370190505b50905060005b838110156102915761026285858381811061024d5761024d6109b5565b90506020020160208101906101a49190610844565b828281518110610274576102746109b5565b602090810291909101015280610289816109cb565b915050610230565b509392505050565b6102a16104f5565b61030e848480806020026020016040519081016040528093929190818152602001838360200280828437600092019190915250506040805160208088028281018201909352878252909350879250869182918501908490808284376000920191909152506106e092505050565b50505050565b6001600160a01b038082166000818152602081905260408120549092908116917f0000000000000000000000000000000000000000000000000000000000000000909116141561038657507f000000000000000000000000000000000000000000000000000000000000000092915050565b6001600160a01b0381166104095760015460405163b3596f0760e01b81526001600160a01b0385811660048301529091169063b3596f0790602401602060405180830381865afa1580156103de573d6000803e3d6000fd5b505050506040513d601f19601f8201168201806040525081019061040291906109f4565b9392505050565b6000816001600160a01b03166350d25bcd6040518163ffffffff1660e01b8152600401602060405180830381865afa158015610449573d6000803e3d6000fd5b505050506040513d601f19601f8201168201806040525081019061046d91906109f4565b9050600081131561047f579392505050565b60015460405163b3596f0760e01b81526001600160a01b0386811660048301529091169063b3596f0790602401602060405180830381865afa1580156104c9573d6000803e3d6000fd5b505050506040513d601f19601f820116820180604052508101906104ed91906109f4565b949350505050565b60007f00000000000000000000000000000000000000000000000000000000000000006001600160a01b031663707cd7166040518163ffffffff1660e01b8152600401602060405180830381865afa158015610555573d6000803e3d6000fd5b505050506040513d601f19601f820116820180604052508101906105799190610a0d565b604051629f719760e51b81523360048201529091506001600160a01b038216906313ee32e090602401602060405180830381865afa1580156105bf573d6000803e3d6000fd5b505050506040513d601f19601f820116820180604052508101906105e39190610a2a565b806106515750604051637be53ca160e01b81523360048201526001600160a01b03821690637be53ca190602401602060405180830381865afa15801561062d573d6000803e3d6000fd5b505050506040513d601f19601f820116820180604052508101906106519190610a2a565b604051806040016040528060018152602001603560f81b815250906106925760405162461bcd60e51b81526004016106899190610a4c565b60405180910390fd5b5050565b600180546001600160a01b0319166001600160a01b0383169081179091556040517fce7a780d33665b1ea097af5f155e3821b809ecbaa839d3b33aa83ba28168cefb90600090a250565b8051825114604051806040016040528060028152602001611b9b60f11b8152509061071e5760405162461bcd60e51b81526004016106899190610a4c565b5060005b825181101561082a5781818151811061073d5761073d6109b5565b602002602001015160008085848151811061075a5761075a6109b5565b60200260200101516001600160a01b03166001600160a01b0316815260200190815260200160002060006101000a8154816001600160a01b0302191690836001600160a01b031602179055508181815181106107b8576107b86109b5565b60200260200101516001600160a01b03168382815181106107db576107db6109b5565b60200260200101516001600160a01b03167f22c5b7b2d8561d39f7f210b6b326a1aa69f15311163082308ac4877db6339dc160405160405180910390a380610822816109cb565b915050610722565b505050565b6001600160a01b03811681146101e157600080fd5b60006020828403121561085657600080fd5b81356104028161082f565b60008083601f84011261087357600080fd5b50813567ffffffffffffffff81111561088b57600080fd5b6020830191508360208260051b85010111156108a657600080fd5b9250929050565b600080602083850312156108c057600080fd5b823567ffffffffffffffff8111156108d757600080fd5b6108e385828601610861565b90969095509350505050565b6020808252825182820181905260009190848201906040850190845b818110156109275783518352928401929184019160010161090b565b50909695505050505050565b6000806000806040858703121561094957600080fd5b843567ffffffffffffffff8082111561096157600080fd5b61096d88838901610861565b9096509450602087013591508082111561098657600080fd5b5061099387828801610861565b95989497509550505050565b634e487b7160e01b600052604160045260246000fd5b634e487b7160e01b600052603260045260246000fd5b60006000198214156109ed57634e487b7160e01b600052601160045260246000fd5b5060010190565b600060208284031215610a0657600080fd5b5051919050565b600060208284031215610a1f57600080fd5b81516104028161082f565b600060208284031215610a3c57600080fd5b8151801515811461040257600080fd5b600060208083528351808285015260005b81811015610a7957858101830151858201604001528201610a5d565b81811115610a8b576000604083870101525b50601f01601f191692909201604001939250505056fea264697066735822122093d97558338b86ee09f70a6703c6003f079b46c7e18914e0d7d9c7560dded57a64736f6c634300080a0033",
  "linkReferences": {},
  "deployedLinkReferences": {}
}