{
  "_format": "hh-sol-artifact-1",
  "contractName": "L2Pool",
  "sourceName": "contracts/contractsAave/protocol/pool/L2Pool.sol",
  "abi": [
    {
      "inputs": [
        {
          "internalType": "contract IPoolAddressesProvider",
          "name": "provider",
          "type": "address"
        }
      ],
      "stateMutability": "nonpayable",
      "type": "constructor"
    },
    {
      "anonymous": false,
      "inputs": [
        {
          "indexed": true,
          "internalType": "address",
          "name": "reserve",
          "type": "address"
        },
        {
          "indexed": true,
          "internalType": "address",
          "name": "backer",
          "type": "address"
        },
        {
          "indexed": false,
          "internalType": "uint256",
          "name": "amount",
          "type": "uint256"
        },
        {
          "indexed": false,
          "internalType": "uint256",
          "name": "fee",
          "type": "uint256"
        }
      ],
      "name": "BackUnbacked",
      "type": "event"
    },
    {
      "anonymous": false,
      "inputs": [
        {
          "indexed": true,
          "internalType": "address",
          "name": "reserve",
          "type": "address"
        },
        {
          "indexed": false,
          "internalType": "address",
          "name": "user",
          "type": "address"
        },
        {
          "indexed": true,
          "internalType": "address",
          "name": "onBehalfOf",
          "type": "address"
        },
        {
          "indexed": false,
          "internalType": "uint256",
          "name": "amount",
          "type": "uint256"
        },
        {
          "indexed": false,
          "internalType": "enum DataTypes.InterestRateMode",
          "name": "interestRateMode",
          "type": "uint8"
        },
        {
          "indexed": false,
          "internalType": "uint256",
          "name": "borrowRate",
          "type": "uint256"
        },
        {
          "indexed": true,
          "internalType": "uint16",
          "name": "referralCode",
          "type": "uint16"
        }
      ],
      "name": "Borrow",
      "type": "event"
    },
    {
      "anonymous": false,
      "inputs": [
        {
          "indexed": true,
          "internalType": "address",
          "name": "target",
          "type": "address"
        },
        {
          "indexed": false,
          "internalType": "address",
          "name": "initiator",
          "type": "address"
        },
        {
          "indexed": true,
          "internalType": "address",
          "name": "asset",
          "type": "address"
        },
        {
          "indexed": false,
          "internalType": "uint256",
          "name": "amount",
          "type": "uint256"
        },
        {
          "indexed": false,
          "internalType": "enum DataTypes.InterestRateMode",
          "name": "interestRateMode",
          "type": "uint8"
        },
        {
          "indexed": false,
          "internalType": "uint256",
          "name": "premium",
          "type": "uint256"
        },
        {
          "indexed": true,
          "internalType": "uint16",
          "name": "referralCode",
          "type": "uint16"
        }
      ],
      "name": "FlashLoan",
      "type": "event"
    },
    {
      "anonymous": false,
      "inputs": [
        {
          "indexed": true,
          "internalType": "address",
          "name": "asset",
          "type": "address"
        },
        {
          "indexed": false,
          "internalType": "uint256",
          "name": "totalDebt",
          "type": "uint256"
        }
      ],
      "name": "IsolationModeTotalDebtUpdated",
      "type": "event"
    },
    {
      "anonymous": false,
      "inputs": [
        {
          "indexed": true,
          "internalType": "address",
          "name": "collateralAsset",
          "type": "address"
        },
        {
          "indexed": true,
          "internalType": "address",
          "name": "debtAsset",
          "type": "address"
        },
        {
          "indexed": true,
          "internalType": "address",
          "name": "user",
          "type": "address"
        },
        {
          "indexed": false,
          "internalType": "uint256",
          "name": "debtToCover",
          "type": "uint256"
        },
        {
          "indexed": false,
          "internalType": "uint256",
          "name": "liquidatedCollateralAmount",
          "type": "uint256"
        },
        {
          "indexed": false,
          "internalType": "address",
          "name": "liquidator",
          "type": "address"
        },
        {
          "indexed": false,
          "internalType": "bool",
          "name": "receiveAToken",
          "type": "bool"
        }
      ],
      "name": "LiquidationCall",
      "type": "event"
    },
    {
      "anonymous": false,
      "inputs": [
        {
          "indexed": true,
          "internalType": "address",
          "name": "reserve",
          "type": "address"
        },
        {
          "indexed": false,
          "internalType": "address",
          "name": "user",
          "type": "address"
        },
        {
          "indexed": true,
          "internalType": "address",
          "name": "onBehalfOf",
          "type": "address"
        },
        {
          "indexed": false,
          "internalType": "uint256",
          "name": "amount",
          "type": "uint256"
        },
        {
          "indexed": true,
          "internalType": "uint16",
          "name": "referralCode",
          "type": "uint16"
        }
      ],
      "name": "MintUnbacked",
      "type": "event"
    },
    {
      "anonymous": false,
      "inputs": [
        {
          "indexed": true,
          "internalType": "address",
          "name": "reserve",
          "type": "address"
        },
        {
          "indexed": false,
          "internalType": "uint256",
          "name": "amountMinted",
          "type": "uint256"
        }
      ],
      "name": "MintedToTreasury",
      "type": "event"
    },
    {
      "anonymous": false,
      "inputs": [
        {
          "indexed": true,
          "internalType": "address",
          "name": "reserve",
          "type": "address"
        },
        {
          "indexed": true,
          "internalType": "address",
          "name": "user",
          "type": "address"
        }
      ],
      "name": "RebalanceStableBorrowRate",
      "type": "event"
    },
    {
      "anonymous": false,
      "inputs": [
        {
          "indexed": true,
          "internalType": "address",
          "name": "reserve",
          "type": "address"
        },
        {
          "indexed": true,
          "internalType": "address",
          "name": "user",
          "type": "address"
        },
        {
          "indexed": true,
          "internalType": "address",
          "name": "repayer",
          "type": "address"
        },
        {
          "indexed": false,
          "internalType": "uint256",
          "name": "amount",
          "type": "uint256"
        },
        {
          "indexed": false,
          "internalType": "bool",
          "name": "useATokens",
          "type": "bool"
        }
      ],
      "name": "Repay",
      "type": "event"
    },
    {
      "anonymous": false,
      "inputs": [
        {
          "indexed": true,
          "internalType": "address",
          "name": "reserve",
          "type": "address"
        },
        {
          "indexed": false,
          "internalType": "uint256",
          "name": "liquidityRate",
          "type": "uint256"
        },
        {
          "indexed": false,
          "internalType": "uint256",
          "name": "stableBorrowRate",
          "type": "uint256"
        },
        {
          "indexed": false,
          "internalType": "uint256",
          "name": "variableBorrowRate",
          "type": "uint256"
        },
        {
          "indexed": false,
          "internalType": "uint256",
          "name": "liquidityIndex",
          "type": "uint256"
        },
        {
          "indexed": false,
          "internalType": "uint256",
          "name": "variableBorrowIndex",
          "type": "uint256"
        }
      ],
      "name": "ReserveDataUpdated",
      "type": "event"
    },
    {
      "anonymous": false,
      "inputs": [
        {
          "indexed": true,
          "internalType": "address",
          "name": "reserve",
          "type": "address"
        },
        {
          "indexed": true,
          "internalType": "address",
          "name": "user",
          "type": "address"
        }
      ],
      "name": "ReserveUsedAsCollateralDisabled",
      "type": "event"
    },
    {
      "anonymous": false,
      "inputs": [
        {
          "indexed": true,
          "internalType": "address",
          "name": "reserve",
          "type": "address"
        },
        {
          "indexed": true,
          "internalType": "address",
          "name": "user",
          "type": "address"
        }
      ],
      "name": "ReserveUsedAsCollateralEnabled",
      "type": "event"
    },
    {
      "anonymous": false,
      "inputs": [
        {
          "indexed": true,
          "internalType": "address",
          "name": "reserve",
          "type": "address"
        },
        {
          "indexed": false,
          "internalType": "address",
          "name": "user",
          "type": "address"
        },
        {
          "indexed": true,
          "internalType": "address",
          "name": "onBehalfOf",
          "type": "address"
        },
        {
          "indexed": false,
          "internalType": "uint256",
          "name": "amount",
          "type": "uint256"
        },
        {
          "indexed": true,
          "internalType": "uint16",
          "name": "referralCode",
          "type": "uint16"
        }
      ],
      "name": "Supply",
      "type": "event"
    },
    {
      "anonymous": false,
      "inputs": [
        {
          "indexed": true,
          "internalType": "address",
          "name": "reserve",
          "type": "address"
        },
        {
          "indexed": true,
          "internalType": "address",
          "name": "user",
          "type": "address"
        },
        {
          "indexed": false,
          "internalType": "enum DataTypes.InterestRateMode",
          "name": "interestRateMode",
          "type": "uint8"
        }
      ],
      "name": "SwapBorrowRateMode",
      "type": "event"
    },
    {
      "anonymous": false,
      "inputs": [
        {
          "indexed": true,
          "internalType": "address",
          "name": "user",
          "type": "address"
        },
        {
          "indexed": false,
          "internalType": "uint8",
          "name": "categoryId",
          "type": "uint8"
        }
      ],
      "name": "UserEModeSet",
      "type": "event"
    },
    {
      "anonymous": false,
      "inputs": [
        {
          "indexed": true,
          "internalType": "address",
          "name": "reserve",
          "type": "address"
        },
        {
          "indexed": true,
          "internalType": "address",
          "name": "user",
          "type": "address"
        },
        {
          "indexed": true,
          "internalType": "address",
          "name": "to",
          "type": "address"
        },
        {
          "indexed": false,
          "internalType": "uint256",
          "name": "amount",
          "type": "uint256"
        }
      ],
      "name": "Withdraw",
      "type": "event"
    },
    {
      "inputs": [],
      "name": "ADDRESSES_PROVIDER",
      "outputs": [
        {
          "internalType": "contract IPoolAddressesProvider",
          "name": "",
          "type": "address"
        }
      ],
      "stateMutability": "view",
      "type": "function"
    },
    {
      "inputs": [],
      "name": "BRIDGE_PROTOCOL_FEE",
      "outputs": [
        {
          "internalType": "uint256",
          "name": "",
          "type": "uint256"
        }
      ],
      "stateMutability": "view",
      "type": "function"
    },
    {
      "inputs": [],
      "name": "FLASHLOAN_PREMIUM_TOTAL",
      "outputs": [
        {
          "internalType": "uint128",
          "name": "",
          "type": "uint128"
        }
      ],
      "stateMutability": "view",
      "type": "function"
    },
    {
      "inputs": [],
      "name": "FLASHLOAN_PREMIUM_TO_PROTOCOL",
      "outputs": [
        {
          "internalType": "uint128",
          "name": "",
          "type": "uint128"
        }
      ],
      "stateMutability": "view",
      "type": "function"
    },
    {
      "inputs": [],
      "name": "MAX_NUMBER_RESERVES",
      "outputs": [
        {
          "internalType": "uint16",
          "name": "",
          "type": "uint16"
        }
      ],
      "stateMutability": "view",
      "type": "function"
    },
    {
      "inputs": [],
      "name": "MAX_STABLE_RATE_BORROW_SIZE_PERCENT",
      "outputs": [
        {
          "internalType": "uint256",
          "name": "",
          "type": "uint256"
        }
      ],
      "stateMutability": "view",
      "type": "function"
    },
    {
      "inputs": [],
      "name": "POOL_REVISION",
      "outputs": [
        {
          "internalType": "uint256",
          "name": "",
          "type": "uint256"
        }
      ],
      "stateMutability": "view",
      "type": "function"
    },
    {
      "inputs": [
        {
          "internalType": "address",
          "name": "asset",
          "type": "address"
        },
        {
          "internalType": "uint256",
          "name": "amount",
          "type": "uint256"
        },
        {
          "internalType": "uint256",
          "name": "fee",
          "type": "uint256"
        }
      ],
      "name": "backUnbacked",
      "outputs": [
        {
          "internalType": "uint256",
          "name": "",
          "type": "uint256"
        }
      ],
      "stateMutability": "nonpayable",
      "type": "function"
    },
    {
      "inputs": [
        {
          "internalType": "address",
          "name": "asset",
          "type": "address"
        },
        {
          "internalType": "uint256",
          "name": "amount",
          "type": "uint256"
        },
        {
          "internalType": "uint256",
          "name": "interestRateMode",
          "type": "uint256"
        },
        {
          "internalType": "uint16",
          "name": "referralCode",
          "type": "uint16"
        },
        {
          "internalType": "address",
          "name": "onBehalfOf",
          "type": "address"
        }
      ],
      "name": "borrow",
      "outputs": [],
      "stateMutability": "nonpayable",
      "type": "function"
    },
    {
      "inputs": [
        {
          "internalType": "bytes32",
          "name": "args",
          "type": "bytes32"
        }
      ],
      "name": "borrow",
      "outputs": [],
      "stateMutability": "nonpayable",
      "type": "function"
    },
    {
      "inputs": [
        {
          "internalType": "uint8",
          "name": "id",
          "type": "uint8"
        },
        {
          "components": [
            {
              "internalType": "uint16",
              "name": "ltv",
              "type": "uint16"
            },
            {
              "internalType": "uint16",
              "name": "liquidationThreshold",
              "type": "uint16"
            },
            {
              "internalType": "uint16",
              "name": "liquidationBonus",
              "type": "uint16"
            },
            {
              "internalType": "address",
              "name": "priceSource",
              "type": "address"
            },
            {
              "internalType": "string",
              "name": "label",
              "type": "string"
            }
          ],
          "internalType": "struct DataTypes.EModeCategory",
          "name": "category",
          "type": "tuple"
        }
      ],
      "name": "configureEModeCategory",
      "outputs": [],
      "stateMutability": "nonpayable",
      "type": "function"
    },
    {
      "inputs": [
        {
          "internalType": "address",
          "name": "asset",
          "type": "address"
        },
        {
          "internalType": "uint256",
          "name": "amount",
          "type": "uint256"
        },
        {
          "internalType": "address",
          "name": "onBehalfOf",
          "type": "address"
        },
        {
          "internalType": "uint16",
          "name": "referralCode",
          "type": "uint16"
        }
      ],
      "name": "deposit",
      "outputs": [],
      "stateMutability": "nonpayable",
      "type": "function"
    },
    {
      "inputs": [
        {
          "internalType": "address",
          "name": "asset",
          "type": "address"
        }
      ],
      "name": "dropReserve",
      "outputs": [],
      "stateMutability": "nonpayable",
      "type": "function"
    },
    {
      "inputs": [
        {
          "internalType": "address",
          "name": "asset",
          "type": "address"
        },
        {
          "internalType": "address",
          "name": "from",
          "type": "address"
        },
        {
          "internalType": "address",
          "name": "to",
          "type": "address"
        },
        {
          "internalType": "uint256",
          "name": "amount",
          "type": "uint256"
        },
        {
          "internalType": "uint256",
          "name": "balanceFromBefore",
          "type": "uint256"
        },
        {
          "internalType": "uint256",
          "name": "balanceToBefore",
          "type": "uint256"
        }
      ],
      "name": "finalizeTransfer",
      "outputs": [],
      "stateMutability": "nonpayable",
      "type": "function"
    },
    {
      "inputs": [
        {
          "internalType": "address",
          "name": "receiverAddress",
          "type": "address"
        },
        {
          "internalType": "address[]",
          "name": "assets",
          "type": "address[]"
        },
        {
          "internalType": "uint256[]",
          "name": "amounts",
          "type": "uint256[]"
        },
        {
          "internalType": "uint256[]",
          "name": "interestRateModes",
          "type": "uint256[]"
        },
        {
          "internalType": "address",
          "name": "onBehalfOf",
          "type": "address"
        },
        {
          "internalType": "bytes",
          "name": "params",
          "type": "bytes"
        },
        {
          "internalType": "uint16",
          "name": "referralCode",
          "type": "uint16"
        }
      ],
      "name": "flashLoan",
      "outputs": [],
      "stateMutability": "nonpayable",
      "type": "function"
    },
    {
      "inputs": [
        {
          "internalType": "address",
          "name": "receiverAddress",
          "type": "address"
        },
        {
          "internalType": "address",
          "name": "asset",
          "type": "address"
        },
        {
          "internalType": "uint256",
          "name": "amount",
          "type": "uint256"
        },
        {
          "internalType": "bytes",
          "name": "params",
          "type": "bytes"
        },
        {
          "internalType": "uint16",
          "name": "referralCode",
          "type": "uint16"
        }
      ],
      "name": "flashLoanSimple",
      "outputs": [],
      "stateMutability": "nonpayable",
      "type": "function"
    },
    {
      "inputs": [
        {
          "internalType": "address",
          "name": "asset",
          "type": "address"
        }
      ],
      "name": "getConfiguration",
      "outputs": [
        {
          "components": [
            {
              "internalType": "uint256",
              "name": "data",
              "type": "uint256"
            }
          ],
          "internalType": "struct DataTypes.ReserveConfigurationMap",
          "name": "",
          "type": "tuple"
        }
      ],
      "stateMutability": "view",
      "type": "function"
    },
    {
      "inputs": [
        {
          "internalType": "uint8",
          "name": "id",
          "type": "uint8"
        }
      ],
      "name": "getEModeCategoryData",
      "outputs": [
        {
          "components": [
            {
              "internalType": "uint16",
              "name": "ltv",
              "type": "uint16"
            },
            {
              "internalType": "uint16",
              "name": "liquidationThreshold",
              "type": "uint16"
            },
            {
              "internalType": "uint16",
              "name": "liquidationBonus",
              "type": "uint16"
            },
            {
              "internalType": "address",
              "name": "priceSource",
              "type": "address"
            },
            {
              "internalType": "string",
              "name": "label",
              "type": "string"
            }
          ],
          "internalType": "struct DataTypes.EModeCategory",
          "name": "",
          "type": "tuple"
        }
      ],
      "stateMutability": "view",
      "type": "function"
    },
    {
      "inputs": [
        {
          "internalType": "uint16",
          "name": "id",
          "type": "uint16"
        }
      ],
      "name": "getReserveAddressById",
      "outputs": [
        {
          "internalType": "address",
          "name": "",
          "type": "address"
        }
      ],
      "stateMutability": "view",
      "type": "function"
    },
    {
      "inputs": [
        {
          "internalType": "address",
          "name": "asset",
          "type": "address"
        }
      ],
      "name": "getReserveData",
      "outputs": [
        {
          "components": [
            {
              "components": [
                {
                  "internalType": "uint256",
                  "name": "data",
                  "type": "uint256"
                }
              ],
              "internalType": "struct DataTypes.ReserveConfigurationMap",
              "name": "configuration",
              "type": "tuple"
            },
            {
              "internalType": "uint128",
              "name": "liquidityIndex",
              "type": "uint128"
            },
            {
              "internalType": "uint128",
              "name": "currentLiquidityRate",
              "type": "uint128"
            },
            {
              "internalType": "uint128",
              "name": "variableBorrowIndex",
              "type": "uint128"
            },
            {
              "internalType": "uint128",
              "name": "currentVariableBorrowRate",
              "type": "uint128"
            },
            {
              "internalType": "uint128",
              "name": "currentStableBorrowRate",
              "type": "uint128"
            },
            {
              "internalType": "uint40",
              "name": "lastUpdateTimestamp",
              "type": "uint40"
            },
            {
              "internalType": "uint16",
              "name": "id",
              "type": "uint16"
            },
            {
              "internalType": "address",
              "name": "aTokenAddress",
              "type": "address"
            },
            {
              "internalType": "address",
              "name": "stableDebtTokenAddress",
              "type": "address"
            },
            {
              "internalType": "address",
              "name": "variableDebtTokenAddress",
              "type": "address"
            },
            {
              "internalType": "address",
              "name": "interestRateStrategyAddress",
              "type": "address"
            },
            {
              "internalType": "uint128",
              "name": "accruedToTreasury",
              "type": "uint128"
            },
            {
              "internalType": "uint128",
              "name": "unbacked",
              "type": "uint128"
            },
            {
              "internalType": "uint128",
              "name": "isolationModeTotalDebt",
              "type": "uint128"
            }
          ],
          "internalType": "struct DataTypes.ReserveData",
          "name": "",
          "type": "tuple"
        }
      ],
      "stateMutability": "view",
      "type": "function"
    },
    {
      "inputs": [
        {
          "internalType": "address",
          "name": "asset",
          "type": "address"
        }
      ],
      "name": "getReserveNormalizedIncome",
      "outputs": [
        {
          "internalType": "uint256",
          "name": "",
          "type": "uint256"
        }
      ],
      "stateMutability": "view",
      "type": "function"
    },
    {
      "inputs": [
        {
          "internalType": "address",
          "name": "asset",
          "type": "address"
        }
      ],
      "name": "getReserveNormalizedVariableDebt",
      "outputs": [
        {
          "internalType": "uint256",
          "name": "",
          "type": "uint256"
        }
      ],
      "stateMutability": "view",
      "type": "function"
    },
    {
      "inputs": [],
      "name": "getReservesList",
      "outputs": [
        {
          "internalType": "address[]",
          "name": "",
          "type": "address[]"
        }
      ],
      "stateMutability": "view",
      "type": "function"
    },
    {
      "inputs": [
        {
          "internalType": "address",
          "name": "user",
          "type": "address"
        }
      ],
      "name": "getUserAccountData",
      "outputs": [
        {
          "internalType": "uint256",
          "name": "totalCollateralBase",
          "type": "uint256"
        },
        {
          "internalType": "uint256",
          "name": "totalDebtBase",
          "type": "uint256"
        },
        {
          "internalType": "uint256",
          "name": "availableBorrowsBase",
          "type": "uint256"
        },
        {
          "internalType": "uint256",
          "name": "currentLiquidationThreshold",
          "type": "uint256"
        },
        {
          "internalType": "uint256",
          "name": "ltv",
          "type": "uint256"
        },
        {
          "internalType": "uint256",
          "name": "healthFactor",
          "type": "uint256"
        }
      ],
      "stateMutability": "view",
      "type": "function"
    },
    {
      "inputs": [
        {
          "internalType": "address",
          "name": "user",
          "type": "address"
        }
      ],
      "name": "getUserConfiguration",
      "outputs": [
        {
          "components": [
            {
              "internalType": "uint256",
              "name": "data",
              "type": "uint256"
            }
          ],
          "internalType": "struct DataTypes.UserConfigurationMap",
          "name": "",
          "type": "tuple"
        }
      ],
      "stateMutability": "view",
      "type": "function"
    },
    {
      "inputs": [
        {
          "internalType": "address",
          "name": "user",
          "type": "address"
        }
      ],
      "name": "getUserEMode",
      "outputs": [
        {
          "internalType": "uint256",
          "name": "",
          "type": "uint256"
        }
      ],
      "stateMutability": "view",
      "type": "function"
    },
    {
      "inputs": [
        {
          "internalType": "address",
          "name": "asset",
          "type": "address"
        },
        {
          "internalType": "address",
          "name": "aTokenAddress",
          "type": "address"
        },
        {
          "internalType": "address",
          "name": "stableDebtAddress",
          "type": "address"
        },
        {
          "internalType": "address",
          "name": "variableDebtAddress",
          "type": "address"
        },
        {
          "internalType": "address",
          "name": "interestRateStrategyAddress",
          "type": "address"
        }
      ],
      "name": "initReserve",
      "outputs": [],
      "stateMutability": "nonpayable",
      "type": "function"
    },
    {
      "inputs": [
        {
          "internalType": "contract IPoolAddressesProvider",
          "name": "provider",
          "type": "address"
        }
      ],
      "name": "initialize",
      "outputs": [],
      "stateMutability": "nonpayable",
      "type": "function"
    },
    {
      "inputs": [
        {
          "internalType": "address",
          "name": "collateralAsset",
          "type": "address"
        },
        {
          "internalType": "address",
          "name": "debtAsset",
          "type": "address"
        },
        {
          "internalType": "address",
          "name": "user",
          "type": "address"
        },
        {
          "internalType": "uint256",
          "name": "debtToCover",
          "type": "uint256"
        },
        {
          "internalType": "bool",
          "name": "receiveAToken",
          "type": "bool"
        }
      ],
      "name": "liquidationCall",
      "outputs": [],
      "stateMutability": "nonpayable",
      "type": "function"
    },
    {
      "inputs": [
        {
          "internalType": "bytes32",
          "name": "args1",
          "type": "bytes32"
        },
        {
          "internalType": "bytes32",
          "name": "args2",
          "type": "bytes32"
        }
      ],
      "name": "liquidationCall",
      "outputs": [],
      "stateMutability": "nonpayable",
      "type": "function"
    },
    {
      "inputs": [
        {
          "internalType": "address[]",
          "name": "assets",
          "type": "address[]"
        }
      ],
      "name": "mintToTreasury",
      "outputs": [],
      "stateMutability": "nonpayable",
      "type": "function"
    },
    {
      "inputs": [
        {
          "internalType": "address",
          "name": "asset",
          "type": "address"
        },
        {
          "internalType": "uint256",
          "name": "amount",
          "type": "uint256"
        },
        {
          "internalType": "address",
          "name": "onBehalfOf",
          "type": "address"
        },
        {
          "internalType": "uint16",
          "name": "referralCode",
          "type": "uint16"
        }
      ],
      "name": "mintUnbacked",
      "outputs": [],
      "stateMutability": "nonpayable",
      "type": "function"
    },
    {
      "inputs": [
        {
          "internalType": "bytes32",
          "name": "args",
          "type": "bytes32"
        }
      ],
      "name": "rebalanceStableBorrowRate",
      "outputs": [],
      "stateMutability": "nonpayable",
      "type": "function"
    },
    {
      "inputs": [
        {
          "internalType": "address",
          "name": "asset",
          "type": "address"
        },
        {
          "internalType": "address",
          "name": "user",
          "type": "address"
        }
      ],
      "name": "rebalanceStableBorrowRate",
      "outputs": [],
      "stateMutability": "nonpayable",
      "type": "function"
    },
    {
      "inputs": [
        {
          "internalType": "bytes32",
          "name": "args",
          "type": "bytes32"
        }
      ],
      "name": "repay",
      "outputs": [
        {
          "internalType": "uint256",
          "name": "",
          "type": "uint256"
        }
      ],
      "stateMutability": "nonpayable",
      "type": "function"
    },
    {
      "inputs": [
        {
          "internalType": "address",
          "name": "asset",
          "type": "address"
        },
        {
          "internalType": "uint256",
          "name": "amount",
          "type": "uint256"
        },
        {
          "internalType": "uint256",
          "name": "interestRateMode",
          "type": "uint256"
        },
        {
          "internalType": "address",
          "name": "onBehalfOf",
          "type": "address"
        }
      ],
      "name": "repay",
      "outputs": [
        {
          "internalType": "uint256",
          "name": "",
          "type": "uint256"
        }
      ],
      "stateMutability": "nonpayable",
      "type": "function"
    },
    {
      "inputs": [
        {
          "internalType": "address",
          "name": "asset",
          "type": "address"
        },
        {
          "internalType": "uint256",
          "name": "amount",
          "type": "uint256"
        },
        {
          "internalType": "uint256",
          "name": "interestRateMode",
          "type": "uint256"
        }
      ],
      "name": "repayWithATokens",
      "outputs": [
        {
          "internalType": "uint256",
          "name": "",
          "type": "uint256"
        }
      ],
      "stateMutability": "nonpayable",
      "type": "function"
    },
    {
      "inputs": [
        {
          "internalType": "bytes32",
          "name": "args",
          "type": "bytes32"
        }
      ],
      "name": "repayWithATokens",
      "outputs": [
        {
          "internalType": "uint256",
          "name": "",
          "type": "uint256"
        }
      ],
      "stateMutability": "nonpayable",
      "type": "function"
    },
    {
      "inputs": [
        {
          "internalType": "bytes32",
          "name": "args",
          "type": "bytes32"
        },
        {
          "internalType": "bytes32",
          "name": "r",
          "type": "bytes32"
        },
        {
          "internalType": "bytes32",
          "name": "s",
          "type": "bytes32"
        }
      ],
      "name": "repayWithPermit",
      "outputs": [
        {
          "internalType": "uint256",
          "name": "",
          "type": "uint256"
        }
      ],
      "stateMutability": "nonpayable",
      "type": "function"
    },
    {
      "inputs": [
        {
          "internalType": "address",
          "name": "asset",
          "type": "address"
        },
        {
          "internalType": "uint256",
          "name": "amount",
          "type": "uint256"
        },
        {
          "internalType": "uint256",
          "name": "interestRateMode",
          "type": "uint256"
        },
        {
          "internalType": "address",
          "name": "onBehalfOf",
          "type": "address"
        },
        {
          "internalType": "uint256",
          "name": "deadline",
          "type": "uint256"
        },
        {
          "internalType": "uint8",
          "name": "permitV",
          "type": "uint8"
        },
        {
          "internalType": "bytes32",
          "name": "permitR",
          "type": "bytes32"
        },
        {
          "internalType": "bytes32",
          "name": "permitS",
          "type": "bytes32"
        }
      ],
      "name": "repayWithPermit",
      "outputs": [
        {
          "internalType": "uint256",
          "name": "",
          "type": "uint256"
        }
      ],
      "stateMutability": "nonpayable",
      "type": "function"
    },
    {
      "inputs": [
        {
          "internalType": "address",
          "name": "token",
          "type": "address"
        },
        {
          "internalType": "address",
          "name": "to",
          "type": "address"
        },
        {
          "internalType": "uint256",
          "name": "amount",
          "type": "uint256"
        }
      ],
      "name": "rescueTokens",
      "outputs": [],
      "stateMutability": "nonpayable",
      "type": "function"
    },
    {
      "inputs": [
        {
          "internalType": "address",
          "name": "asset",
          "type": "address"
        }
      ],
      "name": "resetIsolationModeTotalDebt",
      "outputs": [],
      "stateMutability": "nonpayable",
      "type": "function"
    },
    {
      "inputs": [
        {
          "internalType": "address",
          "name": "asset",
          "type": "address"
        },
        {
          "components": [
            {
              "internalType": "uint256",
              "name": "data",
              "type": "uint256"
            }
          ],
          "internalType": "struct DataTypes.ReserveConfigurationMap",
          "name": "configuration",
          "type": "tuple"
        }
      ],
      "name": "setConfiguration",
      "outputs": [],
      "stateMutability": "nonpayable",
      "type": "function"
    },
    {
      "inputs": [
        {
          "internalType": "address",
          "name": "asset",
          "type": "address"
        },
        {
          "internalType": "address",
          "name": "rateStrategyAddress",
          "type": "address"
        }
      ],
      "name": "setReserveInterestRateStrategyAddress",
      "outputs": [],
      "stateMutability": "nonpayable",
      "type": "function"
    },
    {
      "inputs": [
        {
          "internalType": "uint8",
          "name": "categoryId",
          "type": "uint8"
        }
      ],
      "name": "setUserEMode",
      "outputs": [],
      "stateMutability": "nonpayable",
      "type": "function"
    },
    {
      "inputs": [
        {
          "internalType": "bytes32",
          "name": "args",
          "type": "bytes32"
        }
      ],
      "name": "setUserUseReserveAsCollateral",
      "outputs": [],
      "stateMutability": "nonpayable",
      "type": "function"
    },
    {
      "inputs": [
        {
          "internalType": "address",
          "name": "asset",
          "type": "address"
        },
        {
          "internalType": "bool",
          "name": "useAsCollateral",
          "type": "bool"
        }
      ],
      "name": "setUserUseReserveAsCollateral",
      "outputs": [],
      "stateMutability": "nonpayable",
      "type": "function"
    },
    {
      "inputs": [
        {
          "internalType": "address",
          "name": "asset",
          "type": "address"
        },
        {
          "internalType": "uint256",
          "name": "amount",
          "type": "uint256"
        },
        {
          "internalType": "address",
          "name": "onBehalfOf",
          "type": "address"
        },
        {
          "internalType": "uint16",
          "name": "referralCode",
          "type": "uint16"
        }
      ],
      "name": "supply",
      "outputs": [],
      "stateMutability": "nonpayable",
      "type": "function"
    },
    {
      "inputs": [
        {
          "internalType": "bytes32",
          "name": "args",
          "type": "bytes32"
        }
      ],
      "name": "supply",
      "outputs": [],
      "stateMutability": "nonpayable",
      "type": "function"
    },
    {
      "inputs": [
        {
          "internalType": "address",
          "name": "asset",
          "type": "address"
        },
        {
          "internalType": "uint256",
          "name": "amount",
          "type": "uint256"
        },
        {
          "internalType": "address",
          "name": "onBehalfOf",
          "type": "address"
        },
        {
          "internalType": "uint16",
          "name": "referralCode",
          "type": "uint16"
        },
        {
          "internalType": "uint256",
          "name": "deadline",
          "type": "uint256"
        },
        {
          "internalType": "uint8",
          "name": "permitV",
          "type": "uint8"
        },
        {
          "internalType": "bytes32",
          "name": "permitR",
          "type": "bytes32"
        },
        {
          "internalType": "bytes32",
          "name": "permitS",
          "type": "bytes32"
        }
      ],
      "name": "supplyWithPermit",
      "outputs": [],
      "stateMutability": "nonpayable",
      "type": "function"
    },
    {
      "inputs": [
        {
          "internalType": "bytes32",
          "name": "args",
          "type": "bytes32"
        },
        {
          "internalType": "bytes32",
          "name": "r",
          "type": "bytes32"
        },
        {
          "internalType": "bytes32",
          "name": "s",
          "type": "bytes32"
        }
      ],
      "name": "supplyWithPermit",
      "outputs": [],
      "stateMutability": "nonpayable",
      "type": "function"
    },
    {
      "inputs": [
        {
          "internalType": "bytes32",
          "name": "args",
          "type": "bytes32"
        }
      ],
      "name": "swapBorrowRateMode",
      "outputs": [],
      "stateMutability": "nonpayable",
      "type": "function"
    },
    {
      "inputs": [
        {
          "internalType": "address",
          "name": "asset",
          "type": "address"
        },
        {
          "internalType": "uint256",
          "name": "interestRateMode",
          "type": "uint256"
        }
      ],
      "name": "swapBorrowRateMode",
      "outputs": [],
      "stateMutability": "nonpayable",
      "type": "function"
    },
    {
      "inputs": [
        {
          "internalType": "uint256",
          "name": "protocolFee",
          "type": "uint256"
        }
      ],
      "name": "updateBridgeProtocolFee",
      "outputs": [],
      "stateMutability": "nonpayable",
      "type": "function"
    },
    {
      "inputs": [
        {
          "internalType": "uint128",
          "name": "flashLoanPremiumTotal",
          "type": "uint128"
        },
        {
          "internalType": "uint128",
          "name": "flashLoanPremiumToProtocol",
          "type": "uint128"
        }
      ],
      "name": "updateFlashloanPremiums",
      "outputs": [],
      "stateMutability": "nonpayable",
      "type": "function"
    },
    {
      "inputs": [
        {
          "internalType": "address",
          "name": "asset",
          "type": "address"
        },
        {
          "internalType": "uint256",
          "name": "amount",
          "type": "uint256"
        },
        {
          "internalType": "address",
          "name": "to",
          "type": "address"
        }
      ],
      "name": "withdraw",
      "outputs": [
        {
          "internalType": "uint256",
          "name": "",
          "type": "uint256"
        }
      ],
      "stateMutability": "nonpayable",
      "type": "function"
    },
    {
      "inputs": [
        {
          "internalType": "bytes32",
          "name": "args",
          "type": "bytes32"
        }
      ],
      "name": "withdraw",
      "outputs": [
        {
          "internalType": "uint256",
          "name": "",
          "type": "uint256"
        }
      ],
      "stateMutability": "nonpayable",
      "type": "function"
    }
  ],
  "bytecode": "0x60a0604052600080553480156200001557600080fd5b5060405162004c1f38038062004c1f83398101604081905262000038916200004a565b6001600160a01b03166080526200007c565b6000602082840312156200005d57600080fd5b81516001600160a01b03811681146200007557600080fd5b9392505050565b608051614b25620000fa600039600081816103cf01528181610ad301528181610b9201528181610f36015281816114ac015281816117a101528181611dd701528181611e8201528181612086015281816122db015281816124ce0152818161294701528181612e6b0152818161305c015261320c0152614b256000f3fe608060405234801561001057600080fd5b50600436106103825760003560e01c80637a708e92116101de578063d1946dbc1161010f578063e82fec2f116100ad578063f51e435b1161007c578063f51e435b14610a06578063f7a7384014610a19578063f8119d5114610a2c578063fd21ecff14610a3b57600080fd5b8063e82fec2f146109b5578063e8eda9df14610731578063eddf1b79146109c7578063ee3e210b146109f357600080fd5b8063d5eed868116100e9578063d5eed86814610969578063d65dc7a11461097c578063dc7c0bff1461098f578063e43e88a1146109a257600080fd5b8063d1946dbc1461092e578063d579ea7d14610943578063d5ed39331461095657600080fd5b8063bcb6e5221161017c578063c4d66de811610156578063c4d66de8146108e2578063cd112382146108f5578063cea9d26f14610908578063d15e00531461091b57600080fd5b8063bcb6e5221461084d578063bf92857c14610860578063c44b11f7146108a057600080fd5b806394ba89a2116101b857806394ba89a2146108015780639cd1999614610814578063a415bcad14610827578063ab9c4b5d1461083a57600080fd5b80637a708e92146107c85780638e19899e146107db57806394b576de146107ee57600080fd5b806342b0b77c116102b8578063617ba0371161025657806369328dec1161023057806369328dec1461076a57806369a933a51461077d5780636a99c036146107905780636c6f6ae1146107a857600080fd5b8063617ba0371461073157806363c9b86014610744578063680dd47c1461075757600080fd5b8063527517971161029257806352751797146106cb578063563dd613146106f8578063573ade811461070b5780635a3b74b91461071e57600080fd5b806342b0b77c146106545780634417a583146106675780634d013f03146106b857600080fd5b8063272d9072116103255780633036b439116102ff5780633036b4391461048257806335ea6a7514610495578063386497fd1461062e578063427da1771461064157600080fd5b8063272d90721461045457806328530a471461045c5780632dad97d41461046f57600080fd5b80630542975c116103615780630542975c146103ca578063074b2e43146104095780631d2118f91461042e5780631fe3c6f31461044157600080fd5b8062a718a9146103875780630148170e1461039c57806302c205f0146103b7575b600080fd5b61039a6103953660046136c7565b610a4e565b005b6103a4600181565b6040519081526020015b60405180910390f35b61039a6103c5366004613752565b610c62565b6103f17f000000000000000000000000000000000000000000000000000000000000000081565b6040516001600160a01b0390911681526020016103ae565b603a546001600160801b03165b6040516001600160801b0390911681526020016103ae565b61039a61043c3660046137d1565b610d81565b61039a61044f36600461380a565b610ea7565b6039546103a4565b61039a61046a366004613823565b610ec8565b6103a461047d36600461383e565b611066565b61039a61049036600461380a565b61116b565b6106216104a3366004613873565b604080516102008101825260006101e08201818152825260208201819052918101829052606081018290526080810182905260a0810182905260c0810182905260e08101829052610100810182905261012081018290526101408101829052610160810182905261018081018290526101a081018290526101c0810191909152506001600160a01b0390811660009081526034602090815260409182902082516102008101845281546101e08201908152815260018201546001600160801b0380821694830194909452600160801b908190048416948201949094526002820154808416606083015284900483166080820152600382015480841660a083015284810464ffffffffff1660c0830152600160a81b900461ffff1660e0820152600482015485166101008201526005820154851661012082015260068201548516610140820152600782015490941661016085015260088101548083166101808601529290920481166101a0840152600990910154166101c082015290565b6040516103ae9190613890565b6103a461063c366004613873565b611178565b61039a61064f36600461380a565b61119f565b61039a610662366004613a0c565b6111cf565b6106a9610675366004613873565b60408051602080820183526000918290526001600160a01b0393909316815260358352819020815192830190915254815290565b604051905181526020016103ae565b61039a6106c636600461380a565b6112f3565b6103f16106d9366004613a8e565b61ffff166000908152603660205260409020546001600160a01b031690565b6103a461070636600461380a565b611322565b6103a4610719366004613aa9565b61134e565b61039a61072c366004613af3565b611452565b61039a61073f366004613b21565b6115db565b61039a610752366004613873565b61168c565b61039a610765366004613b72565b6116e2565b6103a4610778366004613b9e565b61170f565b61039a61078b366004613b21565b6118c8565b603a54600160801b90046001600160801b0316610416565b6107bb6107b6366004613823565b61194f565b6040516103ae9190613c2d565b61039a6107d6366004613c82565b611a7c565b6103a46107e936600461380a565b611bc2565b6103a46107fc366004613b72565b611be9565b61039a61080f366004613ce5565b611c24565b61039a610822366004613d56565b611c98565b61039a610835366004613d98565b611cd4565b61039a610848366004613dd7565b611f1b565b61039a61085b366004613ee8565b61222d565b61087361086e366004613873565b61224e565b604080519687526020870195909552938501929092526060840152608083015260a082015260c0016103ae565b6106a96108ae366004613873565b60408051602080820183526000918290526001600160a01b0393909316815260348352819020815192830190915254815290565b61039a6108f0366004613873565b61242d565b61039a6109033660046137d1565b61256a565b61039a610916366004613f1b565b6125cd565b6103a4610929366004613873565b612654565b610936612675565b6040516103ae9190613f5c565b61039a610951366004614019565b612778565b61039a610964366004614133565b612861565b61039a61097736600461380a565b612a4d565b6103a461098a36600461383e565b612aae565b6103a461099d36600461380a565b612b28565b61039a6109b0366004613873565b612b4a565b603b5467ffffffffffffffff166103a4565b6103a46109d5366004613873565b6001600160a01b031660009081526038602052604090205460ff1690565b6103a4610a01366004614198565b612b99565b61039a610a143660046141de565b612d01565b61039a610a2736600461380a565b612e12565b604051608081526020016103ae565b61039a610a4936600461421f565b612e34565b73__$7aaac89d2be56e6264cee9b7123dcdf497$__6383c1087d6034603660356037604051806101200160405280603b60089054906101000a900461ffff1661ffff1681526020018981526020018c6001600160a01b031681526020018b6001600160a01b031681526020018a6001600160a01b0316815260200188151581526020017f00000000000000000000000000000000000000000000000000000000000000006001600160a01b031663fca513a86040518163ffffffff1660e01b8152600401602060405180830381865afa158015610b2f573d6000803e3d6000fd5b505050506040513d601f19601f82011682018060405250810190610b539190614241565b6001600160a01b0390811682528b81166000908152603860209081526040918290205460ff16818501528151635eb88d3d60e01b8152825192909401937f000000000000000000000000000000000000000000000000000000000000000090931692635eb88d3d92600480830193928290030181865afa158015610bdb573d6000803e3d6000fd5b505050506040513d601f19601f82011682018060405250810190610bff9190614241565b6001600160a01b03168152506040518663ffffffff1660e01b8152600401610c2b95949392919061425e565b60006040518083038186803b158015610c4357600080fd5b505af4158015610c57573d6000803e3d6000fd5b505050505050505050565b60405163d505accf60e01b81526001600160a01b0389169063d505accf90610c9a90339030908c908a908a908a908a90600401614317565b600060405180830381600087803b158015610cb457600080fd5b505af1158015610cc8573d6000803e3d6000fd5b5050506001600160a01b038088166000818152603560209081526040918290208251608081018452948e1685529084018c90528382019290925261ffff8916606084015251631913f16160e01b815273__$0364c6926b1a7324f59aa0c5e0b1cd1543$__9350631913f16192610d479260349260369290600401614358565b60006040518083038186803b158015610d5f57600080fd5b505af4158015610d73573d6000803e3d6000fd5b505050505050505050505050565b610d89612e5f565b604080518082019091526002815261373760f01b60208201526001600160a01b038316610dd25760405162461bcd60e51b8152600401610dc991906143a9565b60405180910390fd5b506001600160a01b038216600090815260346020526040902060030154600160a81b900461ffff16151580610e3c57506000805260366020527f4cb2b152c1b54ce671907a93c300fd5aa72383a9d4ec19a81e3333632ae92e00546001600160a01b038381169116145b604051806040016040528060028152602001611c1960f11b81525090610e755760405162461bcd60e51b8152600401610dc991906143a9565b506001600160a01b03918216600090815260346020526040902060070180546001600160a01b03191691909216179055565b600080610eb5603684612f31565b91509150610ec38282611c24565b505050565b73__$771104f9f9dd53286b2b9142b9b61a21e3$__635d5dc313603460366037603860356000336001600160a01b03166001600160a01b031681526020019081526020016000206040518060600160405280603b60089054906101000a900461ffff1661ffff1681526020017f00000000000000000000000000000000000000000000000000000000000000006001600160a01b031663fca513a86040518163ffffffff1660e01b8152600401602060405180830381865afa158015610f92573d6000803e3d6000fd5b505050506040513d601f19601f82011682018060405250810190610fb69190614241565b6001600160a01b031681526020018960ff168152506040518763ffffffff1660e01b81526004016110339695949392919095865260208087019590955260408087019490945260608601929092526080850152805160a0850152918201516001600160a01b031660c0840152015160ff1660e08201526101000190565b60006040518083038186803b15801561104b57600080fd5b505af415801561105f573d6000803e3d6000fd5b5050505050565b600073__$da80a5dff72a24efc0f16ade3f36bfde6f$__6340e95de66034603660356000336001600160a01b03166001600160a01b031681526020019081526020016000206040518060a001604052808a6001600160a01b031681526020018981526020018860028111156110dd576110dd6143bc565b60028111156110ee576110ee6143bc565b81523360208201526001604091820152516001600160e01b031960e087901b16815261112094939291906004016143f4565b602060405180830381865af415801561113d573d6000803e3d6000fd5b505050506040513d601f19601f82011682018060405250810190611161919061445a565b90505b9392505050565b611173612e5f565b603955565b6001600160a01b038116600090815260346020526040812061119990612f5e565b92915050565b61ffff81166000908152603660205260409020546001600160a01b0390811690601083901c16610ec3828261256a565b60006040518060e00160405280886001600160a01b03168152602001876001600160a01b0316815260200186815260200185858080601f016020809104026020016040519081016040528093929190818152602001838380828437600092018290525093855250505061ffff8516602080840191909152603a546001600160801b03600160801b8204811660408087019190915291166060909401939093526001600160a01b038a16825260349052819020905163a1fe0e8d60e01b815291925073__$d54d53bb51161a4f44e079b4b99f7ce900$__9163a1fe0e8d916112ba918590600401614473565b60006040518083038186803b1580156112d257600080fd5b505af41580156112e6573d6000803e3d6000fd5b5050505050505050505050565b61ffff81166000908152603660205260409020546001600160a01b0316601082901c600116610ec38282611452565b600080600080611333603686612fc2565b9250925092506113458383833361134e565b95945050505050565b600073__$da80a5dff72a24efc0f16ade3f36bfde6f$__6340e95de66034603660356000876001600160a01b03166001600160a01b031681526020019081526020016000206040518060a001604052808b6001600160a01b031681526020018a81526020018960028111156113c5576113c56143bc565b60028111156113d6576113d66143bc565b81526001600160a01b03891660208201526000604091820152516001600160e01b031960e087901b16815261141194939291906004016143f4565b602060405180830381865af415801561142e573d6000803e3d6000fd5b505050506040513d601f19601f82011682018060405250810190611345919061445a565b73__$0364c6926b1a7324f59aa0c5e0b1cd1543$__63bf697a2660346036603760356000336001600160a01b03166001600160a01b031681526020019081526020016000208787603b60089054906101000a900461ffff167f00000000000000000000000000000000000000000000000000000000000000006001600160a01b031663fca513a86040518163ffffffff1660e01b8152600401602060405180830381865afa158015611508573d6000803e3d6000fd5b505050506040513d601f19601f8201168201806040525081019061152c9190614241565b336000908152603860205260409081902054905160e08b901b6001600160e01b031916815260048101999099526024890197909752604488019590955260648701939093526001600160a01b039182166084870152151560a486015261ffff90911660c48501521660e483015260ff16610104820152610124015b60006040518083038186803b1580156115bf57600080fd5b505af41580156115d3573d6000803e3d6000fd5b505050505050565b6001600160a01b03808316600081815260356020908152604091829020825160808101845294891685529084018790528382019290925261ffff8416606084015251631913f16160e01b815273__$0364c6926b1a7324f59aa0c5e0b1cd1543$__92631913f161926116569260349260369291600401614358565b60006040518083038186803b15801561166e57600080fd5b505af4158015611682573d6000803e3d6000fd5b5050505050505050565b611694612e5f565b604051639cf5702360e01b815260346004820152603660248201526001600160a01b038216604482015273__$b281229c50ea71be8b79a0acc9d121fc39$__90639cf5702390606401611033565b60008060008060006116f560368961301c565b945094509450945094506116828585338686868d8d610c62565b600073__$0364c6926b1a7324f59aa0c5e0b1cd1543$__63186dea4460346036603760356000336001600160a01b03166001600160a01b031681526020019081526020016000206040518060c001604052808b6001600160a01b031681526020018a8152602001896001600160a01b03168152602001603b60089054906101000a900461ffff1661ffff1681526020017f00000000000000000000000000000000000000000000000000000000000000006001600160a01b031663fca513a86040518163ffffffff1660e01b8152600401602060405180830381865afa1580156117fd573d6000803e3d6000fd5b505050506040513d601f19601f820116820180604052508101906118219190614241565b6001600160a01b039081168252336000908152603860209081526040918290205460ff90811694820194909452815160e08b901b6001600160e01b031916815260048101999099526024890197909752604488019590955260648701939093528151831660848701529381015160a486015291820151811660c4850152606082015160e485015260808201511661010484015260a001511661012482015261014401611120565b6118d061305a565b6001600160a01b03828116600081815260356020526040908190209051630413c86f60e01b81526034600482015260366024820152604481019190915291861660648301526084820185905260a482015261ffff821660c482015273__$0d3486b3d61ae0d148a0cb9be698e540c7$__90630413c86f9060e401611656565b6040805160a081018252600080825260208201819052918101829052606080820192909252608081019190915260ff8216600090815260376020908152604091829020825160a081018452815461ffff808216835262010000820481169483019490945264010000000081049093169381019390935266010000000000009091046001600160a01b031660608301526001810180546080840191906119f3906144f0565b80601f0160208091040260200160405190810160405280929190818152602001828054611a1f906144f0565b8015611a6c5780601f10611a4157610100808354040283529160200191611a6c565b820191906000526020600020905b815481529060010190602001808311611a4f57829003601f168201915b5050505050815250509050919050565b611a84612e5f565b73__$b281229c50ea71be8b79a0acc9d121fc39$__6369fc1bdf603460366040518060e001604052808a6001600160a01b03168152602001896001600160a01b03168152602001886001600160a01b03168152602001876001600160a01b03168152602001866001600160a01b03168152602001603b60089054906101000a900461ffff1661ffff168152602001611b1a608090565b61ffff168152506040518463ffffffff1660e01b8152600401611b3f93929190614525565b602060405180830381865af4158015611b5c573d6000803e3d6000fd5b505050506040513d601f19601f82011682018060405250810190611b8091906145a7565b1561105f57603b8054600160401b900461ffff16906008611ba0836145da565b91906101000a81548161ffff021916908361ffff160217905550505050505050565b6000806000611bd260368561317e565b91509150611be182823361170f565b949350505050565b600080600080600080611bfd60368a6131ca565b94509450945094509450611c178585853386868e8e612b99565b9998505050505050505050565b6001600160a01b0382166000908152603460209081526040808320338452603590925290912073__$da80a5dff72a24efc0f16ade3f36bfde6f$__9163eac4d7039185856002811115611c7957611c796143bc565b6040518563ffffffff1660e01b81526004016115a794939291906145fc565b604051631230b2a360e21b815273__$b281229c50ea71be8b79a0acc9d121fc39$__906348c2ca8c906115a79060349086908690600401614626565b73__$da80a5dff72a24efc0f16ade3f36bfde6f$__631e6473f960346036603760356000876001600160a01b03166001600160a01b031681526020019081526020016000206040518061018001604052808c6001600160a01b03168152602001336001600160a01b03168152602001886001600160a01b031681526020018b81526020018a6002811115611d6a57611d6a6143bc565b6002811115611d7b57611d7b6143bc565b815261ffff808b166020808401919091526001604080850191909152603b5467ffffffffffffffff81166060860152600160401b900490921660808401528151631f94a27560e31b8152915160a0909301926001600160a01b037f0000000000000000000000000000000000000000000000000000000000000000169263fca513a89260048083019391928290030181865afa158015611e1f573d6000803e3d6000fd5b505050506040513d601f19601f82011682018060405250810190611e439190614241565b6001600160a01b0390811682528981166000908152603860209081526040918290205460ff16818501528151635eb88d3d60e01b8152825192909401937f000000000000000000000000000000000000000000000000000000000000000090931692635eb88d3d92600480830193928290030181865afa158015611ecb573d6000803e3d6000fd5b505050506040513d601f19601f82011682018060405250810190611eef9190614241565b6001600160a01b03168152506040518663ffffffff1660e01b8152600401610c2b95949392919061467e565b6000604051806101c001604052808d6001600160a01b031681526020018c8c808060200260200160405190810160405280939291908181526020018383602002808284376000920191909152505050908252506040805160208c810282810182019093528c82529283019290918d918d9182918501908490808284376000920191909152505050908252506040805160208a810282810182019093528a82529283019290918b918b9182918501908490808284376000920191909152505050908252506001600160a01b03871660208083019190915260408051601f88018390048302810183018252878152920191908790879081908401838280828437600092018290525093855250505061ffff808616602080850191909152603a546001600160801b03600160801b8204811660408088019190915291166060860152603b5467ffffffffffffffff81166080870152600160401b900490921660a08501526001600160a01b037f0000000000000000000000000000000000000000000000000000000000000000811660c08601819052908b16845260388252928290205460ff1660e0850152815163383e6b8b60e11b815291516101009094019363707cd7169260048082019392918290030181865afa158015612100573d6000803e3d6000fd5b505050506040513d601f19601f820116820180604052508101906121249190614241565b60405163fa50f29760e01b81523360048201526001600160a01b03919091169063fa50f29790602401602060405180830381865afa15801561216a573d6000803e3d6000fd5b505050506040513d601f19601f8201168201806040525081019061218e91906145a7565b151590526001600160a01b03861660009081526035602052604090819020905163173931f560e11b815291925073__$d54d53bb51161a4f44e079b4b99f7ce900$__91632e7263ea916121ef916034916036916037919088906004016147e6565b60006040518083038186803b15801561220757600080fd5b505af415801561221b573d6000803e3d6000fd5b50505050505050505050505050505050565b612235612e5f565b6001600160801b03908116600160801b02911617603a55565b604080516001600160a01b0383811660008181526035602090815285822060c0860187525460a086019081528552603b54600160401b900461ffff1681860152848601929092528451631f94a27560e31b8152945190948594859485948594859473__$b281229c50ea71be8b79a0acc9d121fc39$__946326ec273f9460349460369460379460608501937f0000000000000000000000000000000000000000000000000000000000000000169263fca513a8926004808401938290030181865afa158015612321573d6000803e3d6000fd5b505050506040513d601f19601f820116820180604052508101906123459190614241565b6001600160a01b0390811682528e81166000908152603860209081526040918290205460ff90811694820194909452815160e08a901b6001600160e01b0319168152600481019890985260248801969096526044870194909452825151606487015293820151608486015291810151831660a4850152606081015190921660c48401526080909101511660e48201526101040160c060405180830381865af41580156123f5573d6000803e3d6000fd5b505050506040513d601f19601f820116820180604052508101906124199190614947565b949c939b5091995097509550909350915050565b6001805460ff168061243e5750303b155b8061244a575060005481115b6124ad5760405162461bcd60e51b815260206004820152602e60248201527f436f6e747261637420696e7374616e63652068617320616c726561647920626560448201526d195b881a5b9a5d1a585b1a5e995960921b6064820152608401610dc9565b60015460ff161580156124cc576001805460ff19168117905560008290555b7f00000000000000000000000000000000000000000000000000000000000000006001600160a01b0316836001600160a01b03161460405180604001604052806002815260200161189960f11b8152509061253a5760405162461bcd60e51b8152600401610dc991906143a9565b50603b805467ffffffffffffffff19166109c41790556009603a558015610ec3576001805460ff19169055505050565b6001600160a01b03828116600081815260346020526040908190209051631a5cfdd160e21b815260048101919091526024810191909152908216604482015273__$da80a5dff72a24efc0f16ade3f36bfde6f$__90636973f744906064016115a7565b6125d561320a565b6040516343d9915960e11b81526001600160a01b038085166004830152831660248201526044810182905273__$b281229c50ea71be8b79a0acc9d121fc39$__906387b322b29060640160006040518083038186803b15801561263757600080fd5b505af415801561264b573d6000803e3d6000fd5b50505050505050565b6001600160a01b03811660009081526034602052604081206111999061332e565b603b54606090600160401b900461ffff166000808267ffffffffffffffff8111156126a2576126a2613fa9565b6040519080825280602002602001820160405280156126cb578160200160208202803683370190505b50905060005b8381101561276e576000818152603660205260409020546001600160a01b03161561274e576000818152603660205260409020546001600160a01b0316826127198584614991565b81518110612729576127296149a8565b60200260200101906001600160a01b031690816001600160a01b03168152505061275c565b82612758816149be565b9350505b80612766816149be565b9150506126d1565b5091038152919050565b612780612e5f565b604080518082019091526002815261189b60f11b602082015260ff83166127ba5760405162461bcd60e51b8152600401610dc991906143a9565b5060ff821660009081526037602090815260409182902083518154838601519486015160608701516001600160a01b03166601000000000000026601000000000000600160d01b031961ffff9283166401000000000216640100000000600160d01b0319978316620100000263ffffffff1990941692909416919091179190911794909416179290921782556080830151805184939261105f9260018501929101906135fb565b6001600160a01b038681166000908152603460209081526040918290206004015482518084019093526002835261313160f01b9183019190915290911633146128bd5760405162461bcd60e51b8152600401610dc991906143a9565b5073__$0364c6926b1a7324f59aa0c5e0b1cd1543$__638a5dadd160346036603760356040518061012001604052808d6001600160a01b031681526020018c6001600160a01b031681526020018b6001600160a01b031681526020018a8152602001898152602001888152602001603b60089054906101000a900461ffff1661ffff1681526020017f00000000000000000000000000000000000000000000000000000000000000006001600160a01b031663fca513a86040518163ffffffff1660e01b8152600401602060405180830381865afa1580156129a3573d6000803e3d6000fd5b505050506040513d601f19601f820116820180604052508101906129c79190614241565b6001600160a01b0390811682528d166000908152603860209081526040918290205460ff16920191909152516001600160e01b031960e088901b168152612a159594939291906004016149d9565b60006040518083038186803b158015612a2d57600080fd5b505af4158015612a41573d6000803e3d6000fd5b50505050505050505050565b600080600080612a9960368661ffff81811660009081526020939093526040909220546001600160a01b0316926001600160801b03601083901c169260ff609084901c169260981c1690565b935093509350935061105f8484848433611cd4565b6000612ab861305a565b6001600160a01b0384166000818152603460205260409081902060395491516311ce864960e31b8152600481019190915260248101929092526044820185905260648201849052608482015273__$0d3486b3d61ae0d148a0cb9be698e540c7$__90638e7432489060a401611120565b600080600080612b39603686612fc2565b925092509250611345838383611066565b612b52612e5f565b604051631e3b414560e01b8152603460048201526001600160a01b038216602482015273__$b281229c50ea71be8b79a0acc9d121fc39$__90631e3b414590604401611033565b60405163d505accf60e01b81526000906001600160a01b038a169063d505accf90612bd490339030908d908b908b908b908b90600401614317565b600060405180830381600087803b158015612bee57600080fd5b505af1158015612c02573d6000803e3d6000fd5b5050505060006040518060a001604052808b6001600160a01b031681526020018a8152602001896002811115612c3a57612c3a6143bc565b6002811115612c4b57612c4b6143bc565b81526001600160a01b038916602080830182905260006040938401819052918252603590528190209051632074aef360e11b815291925073__$da80a5dff72a24efc0f16ade3f36bfde6f$__916340e95de691612cb29160349160369187906004016143f4565b602060405180830381865af4158015612ccf573d6000803e3d6000fd5b505050506040513d601f19601f82011682018060405250810190612cf3919061445a565b9a9950505050505050505050565b612d09612e5f565b604080518082019091526002815261373760f01b60208201526001600160a01b038316612d495760405162461bcd60e51b8152600401610dc991906143a9565b506001600160a01b038216600090815260346020526040902060030154600160a81b900461ffff16151580612db357506000805260366020527f4cb2b152c1b54ce671907a93c300fd5aa72383a9d4ec19a81e3333632ae92e00546001600160a01b038381169116145b604051806040016040528060028152602001611c1960f11b81525090612dec5760405162461bcd60e51b8152600401610dc991906143a9565b506001600160a01b03821660009081526034602052604090208135815581905b50505050565b6000806000612e22603685613386565b925092509250612e0c838333846115db565b6000806000806000612e48603688886133c1565b9450945094509450945061264b8585858585610a4e565b336001600160a01b03167f00000000000000000000000000000000000000000000000000000000000000006001600160a01b031663631adfca6040518163ffffffff1660e01b8152600401602060405180830381865afa158015612ec7573d6000803e3d6000fd5b505050506040513d601f19601f82011682018060405250810190612eeb9190614241565b6001600160a01b03161460405180604001604052806002815260200161031360f41b81525090612f2e5760405162461bcd60e51b8152600401610dc991906143a9565b50565b61ffff81166000908152602083905260409020546001600160a01b0316601082901c60ff165b9250929050565b6003810154600090600160801b900464ffffffffff1642811415612f8e575050600201546001600160801b031690565b6002830154611164906001600160801b0380821691612fb691600160801b9091041684613444565b90613451565b50919050565b6000808061ffff84166001600160801b03601086901c81169060ff609088901c1690821415612ff15760001991505b61ffff9092166000908152602088905260409020546001600160a01b03169450925090509250925092565b60008080808060a086901c63ffffffff1660c087901c60ff168280806130428c8c613386565b919e909d50909b509499509297509295505050505050565b7f00000000000000000000000000000000000000000000000000000000000000006001600160a01b031663707cd7166040518163ffffffff1660e01b8152600401602060405180830381865afa1580156130b8573d6000803e3d6000fd5b505050506040513d601f19601f820116820180604052508101906130dc9190614241565b604051633933006760e11b81523360048201526001600160a01b03919091169063726600ce90602401602060405180830381865afa158015613122573d6000803e3d6000fd5b505050506040513d601f19601f8201168201806040525081019061314691906145a7565b604051806040016040528060018152602001601b60f91b81525090612f2e5760405162461bcd60e51b8152600401610dc991906143a9565b60008061ffff83166001600160801b03601085901c8116908114156131a257506000195b61ffff9190911660009081526020959095526040909420546001600160a01b03169492505050565b6000806000806000806000806000806131e38c8c612fc2565b919e909d50909b609881901c63ffffffff169b5060b81c60ff169950975050505050505050565b7f00000000000000000000000000000000000000000000000000000000000000006001600160a01b031663707cd7166040518163ffffffff1660e01b8152600401602060405180830381865afa158015613268573d6000803e3d6000fd5b505050506040513d601f19601f8201168201806040525081019061328c9190614241565b604051637be53ca160e01b81523360048201526001600160a01b039190911690637be53ca190602401602060405180830381865afa1580156132d2573d6000803e3d6000fd5b505050506040513d601f19601f820116820180604052508101906132f691906145a7565b604051806040016040528060018152602001603160f81b81525090612f2e5760405162461bcd60e51b8152600401610dc991906143a9565b6003810154600090600160801b900464ffffffffff164281141561335e575050600101546001600160801b031690565b6001830154611164906001600160801b0380821691612fb691600160801b9091041684613495565b61ffff8181166000908152602084905260409020546001600160a01b031690601083901c6001600160801b031690609084901c169250925092565b60008080808061ffff87811690601089901c16602089901c6001600160a01b03166001600160801b038981169060808b901c600116908214156134045760001991505b61ffff948516600090815260209d909d526040808e2054949095168d5293909b20546001600160a01b039283169c92169a90995097509095509350505050565b60006111648383426134d2565b600081156b019d971e4fe8401e74000000198390048411151761347357600080fd5b506b033b2e3c9fd0803ce800000091026b019d971e4fe8401e74000000010490565b6000806134a964ffffffffff841642614991565b6134b39085614a80565b6301e1338090049050611be1816b033b2e3c9fd0803ce8000000614ab5565b6000806134e664ffffffffff851684614991565b905080613502576b033b2e3c9fd0803ce8000000915050611164565b6000198101600080806002851161351a57600061351f565b600285035b925066038882915c40006135338a80613451565b8161354057613540614a9f565b0491506301e13380613552838b613451565b8161355f5761355f614a9f565b04905060008261356f8688614a80565b6135799190614a80565b6002900490506000828561358d888a614a80565b6135979190614a80565b6135a19190614a80565b60069004905080826301e133806135b88a8f614a80565b6135c29190614acd565b6135d8906b033b2e3c9fd0803ce8000000614ab5565b6135e29190614ab5565b6135ec9190614ab5565b9b9a5050505050505050505050565b828054613607906144f0565b90600052602060002090601f016020900481019282613629576000855561366f565b82601f1061364257805160ff191683800117855561366f565b8280016001018555821561366f579182015b8281111561366f578251825591602001919060010190613654565b5061367b92915061367f565b5090565b5b8082111561367b5760008155600101613680565b6001600160a01b0381168114612f2e57600080fd5b80356136b481613694565b919050565b8015158114612f2e57600080fd5b600080600080600060a086880312156136df57600080fd5b85356136ea81613694565b945060208601356136fa81613694565b9350604086013561370a81613694565b9250606086013591506080860135613721816136b9565b809150509295509295909350565b803561ffff811681146136b457600080fd5b803560ff811681146136b457600080fd5b600080600080600080600080610100898b03121561376f57600080fd5b883561377a81613694565b975060208901359650604089013561379181613694565b955061379f60608a0161372f565b9450608089013593506137b460a08a01613741565b925060c0890135915060e089013590509295985092959890939650565b600080604083850312156137e457600080fd5b82356137ef81613694565b915060208301356137ff81613694565b809150509250929050565b60006020828403121561381c57600080fd5b5035919050565b60006020828403121561383557600080fd5b61116482613741565b60008060006060848603121561385357600080fd5b833561385e81613694565b95602085013595506040909401359392505050565b60006020828403121561388557600080fd5b813561116481613694565b81515181526101e0810160208301516138b460208401826001600160801b03169052565b5060408301516138cf60408401826001600160801b03169052565b5060608301516138ea60608401826001600160801b03169052565b50608083015161390560808401826001600160801b03169052565b5060a083015161392060a08401826001600160801b03169052565b5060c083015161393960c084018264ffffffffff169052565b5060e083015161394f60e084018261ffff169052565b50610100838101516001600160a01b039081169184019190915261012080850151821690840152610140808501518216908401526101608085015190911690830152610180808401516001600160801b03908116918401919091526101a0808501518216908401526101c09384015116929091019190915290565b60008083601f8401126139dc57600080fd5b50813567ffffffffffffffff8111156139f457600080fd5b602083019150836020828501011115612f5757600080fd5b60008060008060008060a08789031215613a2557600080fd5b8635613a3081613694565b95506020870135613a4081613694565b945060408701359350606087013567ffffffffffffffff811115613a6357600080fd5b613a6f89828a016139ca565b9094509250613a8290506080880161372f565b90509295509295509295565b600060208284031215613aa057600080fd5b6111648261372f565b60008060008060808587031215613abf57600080fd5b8435613aca81613694565b935060208501359250604085013591506060850135613ae881613694565b939692955090935050565b60008060408385031215613b0657600080fd5b8235613b1181613694565b915060208301356137ff816136b9565b60008060008060808587031215613b3757600080fd5b8435613b4281613694565b9350602085013592506040850135613b5981613694565b9150613b676060860161372f565b905092959194509250565b600080600060608486031215613b8757600080fd5b505081359360208301359350604090920135919050565b600080600060608486031215613bb357600080fd5b8335613bbe81613694565b9250602084013591506040840135613bd581613694565b809150509250925092565b6000815180845260005b81811015613c0657602081850181015186830182015201613bea565b81811115613c18576000602083870101525b50601f01601f19169290920160200192915050565b60208152600061ffff8084511660208401528060208501511660408401528060408501511660608401525060018060a01b036060840151166080830152608083015160a080840152611be160c0840182613be0565b600080600080600060a08688031215613c9a57600080fd5b8535613ca581613694565b94506020860135613cb581613694565b93506040860135613cc581613694565b92506060860135613cd581613694565b9150608086013561372181613694565b60008060408385031215613cf857600080fd5b8235613d0381613694565b946020939093013593505050565b60008083601f840112613d2357600080fd5b50813567ffffffffffffffff811115613d3b57600080fd5b6020830191508360208260051b8501011115612f5757600080fd5b60008060208385031215613d6957600080fd5b823567ffffffffffffffff811115613d8057600080fd5b613d8c85828601613d11565b90969095509350505050565b600080600080600060a08688031215613db057600080fd5b8535613dbb81613694565b94506020860135935060408601359250613cd56060870161372f565b600080600080600080600080600080600060e08c8e031215613df857600080fd5b613e018c6136a9565b9a5067ffffffffffffffff8060208e01351115613e1d57600080fd5b613e2d8e60208f01358f01613d11565b909b50995060408d0135811015613e4357600080fd5b613e538e60408f01358f01613d11565b909950975060608d0135811015613e6957600080fd5b613e798e60608f01358f01613d11565b9097509550613e8a60808e016136a9565b94508060a08e01351115613e9d57600080fd5b50613eae8d60a08e01358e016139ca565b9093509150613ebf60c08d0161372f565b90509295989b509295989b9093969950565b80356001600160801b03811681146136b457600080fd5b60008060408385031215613efb57600080fd5b613f0483613ed1565b9150613f1260208401613ed1565b90509250929050565b600080600060608486031215613f3057600080fd5b8335613f3b81613694565b92506020840135613f4b81613694565b929592945050506040919091013590565b6020808252825182820181905260009190848201906040850190845b81811015613f9d5783516001600160a01b031683529284019291840191600101613f78565b50909695505050505050565b634e487b7160e01b600052604160045260246000fd5b60405160a0810167ffffffffffffffff81118282101715613fe257613fe2613fa9565b60405290565b604051601f8201601f1916810167ffffffffffffffff8111828210171561401157614011613fa9565b604052919050565b6000806040838503121561402c57600080fd5b61403583613741565b915060208084013567ffffffffffffffff8082111561405357600080fd5b9085019060a0828803121561406757600080fd5b61406f613fbf565b6140788361372f565b815261408584840161372f565b848201526140956040840161372f565b604082015260608301356140a881613694565b60608201526080830135828111156140bf57600080fd5b80840193505087601f8401126140d457600080fd5b8235828111156140e6576140e6613fa9565b6140f8601f8201601f19168601613fe8565b9250808352888582860101111561410e57600080fd5b8085850186850137600085828501015250816080820152809450505050509250929050565b60008060008060008060c0878903121561414c57600080fd5b863561415781613694565b9550602087013561416781613694565b9450604087013561417781613694565b959894975094956060810135955060808101359460a0909101359350915050565b600080600080600080600080610100898b0312156141b557600080fd5b88356141c081613694565b97506020890135965060408901359550606089013561379f81613694565b60008082840360408112156141f257600080fd5b83356141fd81613694565b92506020601f198201121561421157600080fd5b506020830190509250929050565b6000806040838503121561423257600080fd5b50508035926020909101359150565b60006020828403121561425357600080fd5b815161116481613694565b60006101a08201905086825285602083015284604083015283606083015282516080830152602083015160a0830152604083015160018060a01b0380821660c08501528060608601511660e0850152505060808301516101006142cb818501836001600160a01b03169052565b60a0850151151561012085015260c08501516001600160a01b0390811661014086015260e086015160ff166101608601529085015190811661018085015290505b509695505050505050565b6001600160a01b0397881681529590961660208601526040850193909352606084019190915260ff16608083015260a082015260c081019190915260e00190565b93845260208085019390935260408085019290925280516001600160a01b039081166060808701919091529382015160808601529181015190911660a0840152015161ffff1660c082015260e00190565b6020815260006111646020830184613be0565b634e487b7160e01b600052602160045260246000fd5b600381106143f057634e487b7160e01b600052602160045260246000fd5b9052565b8481526020808201859052604080830185905283516001600160a01b0390811660608501529184015160808401528301516101008301919061443960a08501826143d2565b5060608401511660c0830152608090920151151560e0909101529392505050565b60006020828403121561446c57600080fd5b5051919050565b82815260406020820152600060018060a01b038084511660408401528060208501511660608401525060408301516080830152606083015160e060a08401526144c0610120840182613be0565b905061ffff60808501511660c084015260a084015160e084015260c0840151610100840152809150509392505050565b600181811c9082168061450457607f821691505b60208210811415612fbc57634e487b7160e01b600052602260045260246000fd5b60006101208201905084825283602083015260018060a01b038084511660408401528060208501511660608401528060408501511660808401528060608501511660a08401528060808501511660c08401525060a083015161458d60e084018261ffff169052565b5060c083015161ffff811661010084015250949350505050565b6000602082840312156145b957600080fd5b8151611164816136b9565b634e487b7160e01b600052601160045260246000fd5b600061ffff808316818114156145f2576145f26145c4565b6001019392505050565b848152602081018490526001600160a01b03831660408201526080810161134560608301846143d2565b83815260406020808301829052908201839052600090849060608401835b8681101561467257833561465781613694565b6001600160a01b031682529282019290820190600101614644565b50979650505050505050565b85815260208101859052604081018490526060810183905281516001600160a01b03166080820152610200810160208301516001600160a01b03811660a08401525060408301516001600160a01b03811660c084015250606083015160e083015260808301516101006146f3818501836143d2565b60a0850151915061012061470c8186018461ffff169052565b60c086015192506101406147238187018515159052565b60e08701516101608781019190915292870151610180870152908601516001600160a01b039081166101a08701529086015160ff166101c0860152908501519081166101e0850152905061430c565b600081518084526020808501945080840160005b838110156147ab5781516001600160a01b031687529582019590820190600101614786565b509495945050505050565b600081518084526020808501945080840160005b838110156147ab578151875295820195908201906001016147ca565b85815284602082015283604082015282606082015260a0608082015261481860a0820183516001600160a01b03169052565b600060208301516101c08060c0850152614836610260850183614772565b91506040850151609f19808685030160e087015261485484836147b6565b93506060870151915061010081878603018188015261487385846147b6565b945060808801519250610120614893818901856001600160a01b03169052565b60a089015193506101408389880301818a01526148b08786613be0565b965060c08a0151945061016093506148cd848a018661ffff169052565b60e08a0151945061018085818b0152838b015195506101a0935085848b0152828b0151878b0152818b01516101e08b0152848b0151965061491a6102008b01886001600160a01b03169052565b8a015160ff81166102208b01529550614931915050565b8701518015156102408801529250614672915050565b60008060008060008060c0878903121561496057600080fd5b865195506020870151945060408701519350606087015192506080870151915060a087015190509295509295509295565b6000828210156149a3576149a36145c4565b500390565b634e487b7160e01b600052603260045260246000fd5b60006000198214156149d2576149d26145c4565b5060010190565b858152602080820186905260408083018690526060830185905283516001600160a01b03908116608085015291840151821660a084015283015190811660c08301526101a082019050606083015160e08301526080830151610100818185015260a085015161012085015260c085015161014085015260e08501519150614a6c6101608501836001600160a01b03169052565b84015160ff8116610180850152905061430c565b6000816000190483118215151615614a9a57614a9a6145c4565b500290565b634e487b7160e01b600052601260045260246000fd5b60008219821115614ac857614ac86145c4565b500190565b600082614aea57634e487b7160e01b600052601260045260246000fd5b50049056fea264697066735822122076c134f91fae05794ab43c1bbda0be809d68605f8e674b7d8c04595e070cc02964736f6c634300080a0033",
  "linkReferences": {
    "contracts/contractsAave/protocol/libraries/logic/BorrowLogic.sol": {
      "BorrowLogic": [
        {
          "length": 20,
          "start": 4452
        },
        {
          "length": 20,
          "start": 5196
        },
        {
          "length": 20,
          "start": 7494
        },
        {
          "length": 20,
          "start": 7632
        },
        {
          "length": 20,
          "start": 9893
        },
        {
          "length": 20,
          "start": 11646
        }
      ]
    },
    "contracts/contractsAave/protocol/libraries/logic/BridgeLogic.sol": {
      "BridgeLogic": [
        {
          "length": 20,
          "start": 6695
        },
        {
          "length": 20,
          "start": 11264
        }
      ]
    },
    "contracts/contractsAave/protocol/libraries/logic/EModeLogic.sol": {
      "EModeLogic": [
        {
          "length": 20,
          "start": 4036
        }
      ]
    },
    "contracts/contractsAave/protocol/libraries/logic/FlashLoanLogic.sol": {
      "FlashLoanLogic": [
        {
          "length": 20,
          "start": 5004
        },
        {
          "length": 20,
          "start": 8887
        }
      ]
    },
    "contracts/contractsAave/protocol/libraries/logic/LiquidationLogic.sol": {
      "LiquidationLogic": [
        {
          "length": 20,
          "start": 2890
        }
      ]
    },
    "contracts/contractsAave/protocol/libraries/logic/PoolLogic.sol": {
      "PoolLogic": [
        {
          "length": 20,
          "start": 6074
        },
        {
          "length": 20,
          "start": 7040
        },
        {
          "length": 20,
          "start": 7585
        },
        {
          "length": 20,
          "start": 9131
        },
        {
          "length": 20,
          "start": 9980
        },
        {
          "length": 20,
          "start": 11377
        }
      ]
    },
    "contracts/contractsAave/protocol/libraries/logic/SupplyLogic.sol": {
      "SupplyLogic": [
        {
          "length": 20,
          "start": 3603
        },
        {
          "length": 20,
          "start": 5454
        },
        {
          "length": 20,
          "start": 5923
        },
        {
          "length": 20,
          "start": 6157
        },
        {
          "length": 20,
          "start": 10682
        }
      ]
    }
  },
  "deployedLinkReferences": {
    "contracts/contractsAave/protocol/libraries/logic/BorrowLogic.sol": {
      "BorrowLogic": [
        {
          "length": 20,
          "start": 4202
        },
        {
          "length": 20,
          "start": 4946
        },
        {
          "length": 20,
          "start": 7244
        },
        {
          "length": 20,
          "start": 7382
        },
        {
          "length": 20,
          "start": 9643
        },
        {
          "length": 20,
          "start": 11396
        }
      ]
    },
    "contracts/contractsAave/protocol/libraries/logic/BridgeLogic.sol": {
      "BridgeLogic": [
        {
          "length": 20,
          "start": 6445
        },
        {
          "length": 20,
          "start": 11014
        }
      ]
    },
    "contracts/contractsAave/protocol/libraries/logic/EModeLogic.sol": {
      "EModeLogic": [
        {
          "length": 20,
          "start": 3786
        }
      ]
    },
    "contracts/contractsAave/protocol/libraries/logic/FlashLoanLogic.sol": {
      "FlashLoanLogic": [
        {
          "length": 20,
          "start": 4754
        },
        {
          "length": 20,
          "start": 8637
        }
      ]
    },
    "contracts/contractsAave/protocol/libraries/logic/LiquidationLogic.sol": {
      "LiquidationLogic": [
        {
          "length": 20,
          "start": 2640
        }
      ]
    },
    "contracts/contractsAave/protocol/libraries/logic/PoolLogic.sol": {
      "PoolLogic": [
        {
          "length": 20,
          "start": 5824
        },
        {
          "length": 20,
          "start": 6790
        },
        {
          "length": 20,
          "start": 7335
        },
        {
          "length": 20,
          "start": 8881
        },
        {
          "length": 20,
          "start": 9730
        },
        {
          "length": 20,
          "start": 11127
        }
      ]
    },
    "contracts/contractsAave/protocol/libraries/logic/SupplyLogic.sol": {
      "SupplyLogic": [
        {
          "length": 20,
          "start": 3353
        },
        {
          "length": 20,
          "start": 5204
        },
        {
          "length": 20,
          "start": 5673
        },
        {
          "length": 20,
          "start": 5907
        },
        {
          "length": 20,
          "start": 10432
        }
      ]
    }
  }
}