{
  "_format": "hh-sol-artifact-1",
  "contractName": "PriceOracleSentinel",
  "sourceName": "contracts/contractsAave/protocol/configuration/PriceOracleSentinel.sol",
  "abi": [
    {
      "inputs": [
        {
          "internalType": "contract IPoolAddressesProvider",
          "name": "provider",
          "type": "address"
        },
        {
          "internalType": "contract ISequencerOracle",
          "name": "oracle",
          "type": "address"
        },
        {
          "internalType": "uint256",
          "name": "gracePeriod",
          "type": "uint256"
        }
      ],
      "stateMutability": "nonpayable",
      "type": "constructor"
    },
    {
      "anonymous": false,
      "inputs": [
        {
          "indexed": false,
          "internalType": "uint256",
          "name": "newGracePeriod",
          "type": "uint256"
        }
      ],
      "name": "GracePeriodUpdated",
      "type": "event"
    },
    {
      "anonymous": false,
      "inputs": [
        {
          "indexed": false,
          "internalType": "address",
          "name": "newSequencerOracle",
          "type": "address"
        }
      ],
      "name": "SequencerOracleUpdated",
      "type": "event"
    },
    {
      "inputs": [],
      "name": "ADDRESSES_PROVIDER",
      "outputs": [
        {
          "internalType": "contract IPoolAddressesProvider",
          "name": "",
          "type": "address"
        }
      ],
      "stateMutability": "view",
      "type": "function"
    },
    {
      "inputs": [],
      "name": "getGracePeriod",
      "outputs": [
        {
          "internalType": "uint256",
          "name": "",
          "type": "uint256"
        }
      ],
      "stateMutability": "view",
      "type": "function"
    },
    {
      "inputs": [],
      "name": "getSequencerOracle",
      "outputs": [
        {
          "internalType": "address",
          "name": "",
          "type": "address"
        }
      ],
      "stateMutability": "view",
      "type": "function"
    },
    {
      "inputs": [],
      "name": "isBorrowAllowed",
      "outputs": [
        {
          "internalType": "bool",
          "name": "",
          "type": "bool"
        }
      ],
      "stateMutability": "view",
      "type": "function"
    },
    {
      "inputs": [],
      "name": "isLiquidationAllowed",
      "outputs": [
        {
          "internalType": "bool",
          "name": "",
          "type": "bool"
        }
      ],
      "stateMutability": "view",
      "type": "function"
    },
    {
      "inputs": [
        {
          "internalType": "uint256",
          "name": "newGracePeriod",
          "type": "uint256"
        }
      ],
      "name": "setGracePeriod",
      "outputs": [],
      "stateMutability": "nonpayable",
      "type": "function"
    },
    {
      "inputs": [
        {
          "internalType": "address",
          "name": "newSequencerOracle",
          "type": "address"
        }
      ],
      "name": "setSequencerOracle",
      "outputs": [],
      "stateMutability": "nonpayable",
      "type": "function"
    }
  ],
  "bytecode": "0x60a060405234801561001057600080fd5b506040516107c03803806107c083398101604081905261002f91610076565b6001600160a01b03928316608052600080546001600160a01b03191692909316919091179091556001556100b9565b6001600160a01b038116811461007357600080fd5b50565b60008060006060848603121561008b57600080fd5b83516100968161005e565b60208501519093506100a78161005e565b80925050604084015190509250925092565b6080516106df6100e16000396000818160870152818161013b01526102c201526106df6000f3fe608060405234801561001057600080fd5b506004361061007d5760003560e01c80637a5d20ea1161005b5780637a5d20ea146100d7578063dbd18388146100ef578063f0aef31c14610100578063f2f659601461011557600080fd5b80630542975c1461008257806312168dc2146100c657806349aa2e81146100d7575b600080fd5b6100a97f000000000000000000000000000000000000000000000000000000000000000081565b6040516001600160a01b0390911681526020015b60405180910390f35b6000546001600160a01b03166100a9565b6100df610128565b60405190151581526020016100bd565b6001546040519081526020016100bd565b61011361010e366004610544565b610137565b005b610113610123366004610568565b6102be565b6000610132610489565b905090565b60007f00000000000000000000000000000000000000000000000000000000000000006001600160a01b031663707cd7166040518163ffffffff1660e01b8152600401602060405180830381865afa158015610197573d6000803e3d6000fd5b505050506040513d601f19601f820116820180604052508101906101bb9190610581565b604051637be53ca160e01b81523360048201529091506001600160a01b03821690637be53ca190602401602060405180830381865afa158015610202573d6000803e3d6000fd5b505050506040513d601f19601f82011682018060405250810190610226919061059e565b604051806040016040528060018152602001603160f81b815250906102675760405162461bcd60e51b815260040161025e91906105c0565b60405180910390fd5b50600080546001600160a01b0319166001600160a01b0384169081179091556040519081527f95cbf1d8f44ec81ff345ed9cf2fe53b6a6473e072bf046ee412f198c54dba449906020015b60405180910390a15050565b60007f00000000000000000000000000000000000000000000000000000000000000006001600160a01b031663707cd7166040518163ffffffff1660e01b8152600401602060405180830381865afa15801561031e573d6000803e3d6000fd5b505050506040513d601f19601f820116820180604052508101906103429190610581565b60405163674b5e4d60e01b81523360048201529091506001600160a01b0382169063674b5e4d90602401602060405180830381865afa158015610389573d6000803e3d6000fd5b505050506040513d601f19601f820116820180604052508101906103ad919061059e565b8061041b5750604051637be53ca160e01b81523360048201526001600160a01b03821690637be53ca190602401602060405180830381865afa1580156103f7573d6000803e3d6000fd5b505050506040513d601f19601f8201168201806040525081019061041b919061059e565b604051806040016040528060018152602001600d60fa1b815250906104535760405162461bcd60e51b815260040161025e91906105c0565b5060018290556040518281527f33d1191f5a3abfe19d468d51bb5ece97489f1277a912a5b5c65992fc279ad3d4906020016102b2565b60008060008060009054906101000a90046001600160a01b03166001600160a01b031663feaf968c6040518163ffffffff1660e01b815260040160a060405180830381865afa1580156104e0573d6000803e3d6000fd5b505050506040513d601f19601f820116820180604052508101906105049190610634565b5093505092505081600014801561052557506001546105238242610684565b115b9250505090565b6001600160a01b038116811461054157600080fd5b50565b60006020828403121561055657600080fd5b81356105618161052c565b9392505050565b60006020828403121561057a57600080fd5b5035919050565b60006020828403121561059357600080fd5b81516105618161052c565b6000602082840312156105b057600080fd5b8151801515811461056157600080fd5b600060208083528351808285015260005b818110156105ed578581018301518582016040015282016105d1565b818111156105ff576000604083870101525b50601f01601f1916929092016040019392505050565b805169ffffffffffffffffffff8116811461062f57600080fd5b919050565b600080600080600060a0868803121561064c57600080fd5b61065586610615565b945060208601519350604086015192506060860151915061067860808701610615565b90509295509295909350565b6000828210156106a457634e487b7160e01b600052601160045260246000fd5b50039056fea2646970667358221220408a15df6466498a60abc00d0a3b1e1cba187ad63431e7ef3b306786464a12a164736f6c634300080a0033",
  "linkReferences": {},
  "deployedLinkReferences": {}
}