{
  "_format": "hh-sol-artifact-1",
  "contractName": "WETH9Mocked",
  "sourceName": "contracts/contractsAave/mocks/tokens/WETH9Mocked.sol",
  "abi": [
    {
      "anonymous": false,
      "inputs": [
        {
          "indexed": true,
          "internalType": "address",
          "name": "src",
          "type": "address"
        },
        {
          "indexed": true,
          "internalType": "address",
          "name": "guy",
          "type": "address"
        },
        {
          "indexed": false,
          "internalType": "uint256",
          "name": "wad",
          "type": "uint256"
        }
      ],
      "name": "Approval",
      "type": "event"
    },
    {
      "anonymous": false,
      "inputs": [
        {
          "indexed": true,
          "internalType": "address",
          "name": "dst",
          "type": "address"
        },
        {
          "indexed": false,
          "internalType": "uint256",
          "name": "wad",
          "type": "uint256"
        }
      ],
      "name": "Deposit",
      "type": "event"
    },
    {
      "anonymous": false,
      "inputs": [
        {
          "indexed": true,
          "internalType": "address",
          "name": "src",
          "type": "address"
        },
        {
          "indexed": true,
          "internalType": "address",
          "name": "dst",
          "type": "address"
        },
        {
          "indexed": false,
          "internalType": "uint256",
          "name": "wad",
          "type": "uint256"
        }
      ],
      "name": "Transfer",
      "type": "event"
    },
    {
      "anonymous": false,
      "inputs": [
        {
          "indexed": true,
          "internalType": "address",
          "name": "src",
          "type": "address"
        },
        {
          "indexed": false,
          "internalType": "uint256",
          "name": "wad",
          "type": "uint256"
        }
      ],
      "name": "Withdrawal",
      "type": "event"
    },
    {
      "inputs": [
        {
          "internalType": "address",
          "name": "",
          "type": "address"
        },
        {
          "internalType": "address",
          "name": "",
          "type": "address"
        }
      ],
      "name": "allowance",
      "outputs": [
        {
          "internalType": "uint256",
          "name": "",
          "type": "uint256"
        }
      ],
      "stateMutability": "view",
      "type": "function"
    },
    {
      "inputs": [
        {
          "internalType": "address",
          "name": "guy",
          "type": "address"
        },
        {
          "internalType": "uint256",
          "name": "wad",
          "type": "uint256"
        }
      ],
      "name": "approve",
      "outputs": [
        {
          "internalType": "bool",
          "name": "",
          "type": "bool"
        }
      ],
      "stateMutability": "nonpayable",
      "type": "function"
    },
    {
      "inputs": [
        {
          "internalType": "address",
          "name": "",
          "type": "address"
        }
      ],
      "name": "balanceOf",
      "outputs": [
        {
          "internalType": "uint256",
          "name": "",
          "type": "uint256"
        }
      ],
      "stateMutability": "view",
      "type": "function"
    },
    {
      "inputs": [],
      "name": "decimals",
      "outputs": [
        {
          "internalType": "uint8",
          "name": "",
          "type": "uint8"
        }
      ],
      "stateMutability": "view",
      "type": "function"
    },
    {
      "inputs": [],
      "name": "deposit",
      "outputs": [],
      "stateMutability": "payable",
      "type": "function"
    },
    {
      "inputs": [
        {
          "internalType": "address",
          "name": "account",
          "type": "address"
        },
        {
          "internalType": "uint256",
          "name": "value",
          "type": "uint256"
        }
      ],
      "name": "mint",
      "outputs": [
        {
          "internalType": "bool",
          "name": "",
          "type": "bool"
        }
      ],
      "stateMutability": "nonpayable",
      "type": "function"
    },
    {
      "inputs": [
        {
          "internalType": "uint256",
          "name": "value",
          "type": "uint256"
        }
      ],
      "name": "mint",
      "outputs": [
        {
          "internalType": "bool",
          "name": "",
          "type": "bool"
        }
      ],
      "stateMutability": "nonpayable",
      "type": "function"
    },
    {
      "inputs": [],
      "name": "name",
      "outputs": [
        {
          "internalType": "string",
          "name": "",
          "type": "string"
        }
      ],
      "stateMutability": "view",
      "type": "function"
    },
    {
      "inputs": [],
      "name": "symbol",
      "outputs": [
        {
          "internalType": "string",
          "name": "",
          "type": "string"
        }
      ],
      "stateMutability": "view",
      "type": "function"
    },
    {
      "inputs": [],
      "name": "totalSupply",
      "outputs": [
        {
          "internalType": "uint256",
          "name": "",
          "type": "uint256"
        }
      ],
      "stateMutability": "view",
      "type": "function"
    },
    {
      "inputs": [
        {
          "internalType": "address",
          "name": "dst",
          "type": "address"
        },
        {
          "internalType": "uint256",
          "name": "wad",
          "type": "uint256"
        }
      ],
      "name": "transfer",
      "outputs": [
        {
          "internalType": "bool",
          "name": "",
          "type": "bool"
        }
      ],
      "stateMutability": "nonpayable",
      "type": "function"
    },
    {
      "inputs": [
        {
          "internalType": "address",
          "name": "src",
          "type": "address"
        },
        {
          "internalType": "address",
          "name": "dst",
          "type": "address"
        },
        {
          "internalType": "uint256",
          "name": "wad",
          "type": "uint256"
        }
      ],
      "name": "transferFrom",
      "outputs": [
        {
          "internalType": "bool",
          "name": "",
          "type": "bool"
        }
      ],
      "stateMutability": "nonpayable",
      "type": "function"
    },
    {
      "inputs": [
        {
          "internalType": "uint256",
          "name": "wad",
          "type": "uint256"
        }
      ],
      "name": "withdraw",
      "outputs": [],
      "stateMutability": "nonpayable",
      "type": "function"
    },
    {
      "stateMutability": "payable",
      "type": "receive"
    }
  ],
  "bytecode": "0x60c0604052600d60808190526c2bb930b83832b21022ba3432b960991b60a090815261002e916000919061007a565b50604080518082019091526004808252630ae8aa8960e31b602090920191825261005a9160019161007a565b506002805460ff1916601217905534801561007457600080fd5b5061014e565b82805461008690610113565b90600052602060002090601f0160209004810192826100a857600085556100ee565b82601f106100c157805160ff19168380011785556100ee565b828001600101855582156100ee579182015b828111156100ee5782518255916020019190600101906100d3565b506100fa9291506100fe565b5090565b5b808211156100fa57600081556001016100ff565b600181811c9082168061012757607f821691505b6020821081141561014857634e487b7160e01b600052602260045260246000fd5b50919050565b6109078061015d6000396000f3fe6080604052600436106100c65760003560e01c806340c10f191161007f578063a0712d6811610059578063a0712d6814610220578063a9059cbb14610240578063d0e30db014610260578063dd62ed3e1461026857600080fd5b806340c10f19146101be57806370a08231146101de57806395d89b411461020b57600080fd5b806306fdde03146100da578063095ea7b31461010557806318160ddd1461013557806323b872dd146101525780632e1a7d4d14610172578063313ce5671461019257600080fd5b366100d5576100d36102a0565b005b600080fd5b3480156100e657600080fd5b506100ef6102fb565b6040516100fc9190610713565b60405180910390f35b34801561011157600080fd5b50610125610120366004610784565b610389565b60405190151581526020016100fc565b34801561014157600080fd5b50475b6040519081526020016100fc565b34801561015e57600080fd5b5061012561016d3660046107ae565b6103f5565b34801561017e57600080fd5b506100d361018d3660046107ea565b610579565b34801561019e57600080fd5b506002546101ac9060ff1681565b60405160ff90911681526020016100fc565b3480156101ca57600080fd5b506101256101d9366004610784565b61061f565b3480156101ea57600080fd5b506101446101f9366004610803565b60036020526000908152604090205481565b34801561021757600080fd5b506100ef61068c565b34801561022c57600080fd5b5061012561023b3660046107ea565b610699565b34801561024c57600080fd5b5061012561025b366004610784565b6106ff565b6100d36102a0565b34801561027457600080fd5b5061014461028336600461081e565b600460209081526000928352604080842090915290825290205481565b33600090815260036020526040812080543492906102bf908490610867565b909155505060405134815233907fe1fffcc4923d04b559f4d29a8bfc6cda04eb5b0d3c460751c2402c5c5cc9109c9060200160405180910390a2565b600080546103089061087f565b80601f01602080910402602001604051908101604052809291908181526020018280546103349061087f565b80156103815780601f1061035657610100808354040283529160200191610381565b820191906000526020600020905b81548152906001019060200180831161036457829003601f168201915b505050505081565b3360008181526004602090815260408083206001600160a01b038716808552925280832085905551919290917f8c5be1e5ebec7d5bd14f71427d1e84f3dd0314c0f7b2291e5b200ac8c7c3b925906103e49086815260200190565b60405180910390a350600192915050565b6001600160a01b03831660009081526003602052604081205482111561041a57600080fd5b6001600160a01b038416331480159061045857506001600160a01b038416600090815260046020908152604080832033845290915290205460001914155b156104c6576001600160a01b038416600090815260046020908152604080832033845290915290205482111561048d57600080fd5b6001600160a01b0384166000908152600460209081526040808320338452909152812080548492906104c09084906108ba565b90915550505b6001600160a01b038416600090815260036020526040812080548492906104ee9084906108ba565b90915550506001600160a01b0383166000908152600360205260408120805484929061051b908490610867565b92505081905550826001600160a01b0316846001600160a01b03167fddf252ad1be2c89b69c2b068fc378daa952ba7f163c4a11628f55a4df523b3ef8460405161056791815260200190565b60405180910390a35060019392505050565b3360009081526003602052604090205481111561059557600080fd5b33600090815260036020526040812080548392906105b49084906108ba565b9091555050604051339082156108fc029083906000818181858888f193505050501580156105e6573d6000803e3d6000fd5b5060405181815233907f7fcf532c15f0a6db0bd6d0e038bea71d30d808c7d98cb3bf7268a95bf5081b659060200160405180910390a250565b6001600160a01b038216600090815260036020526040812080548391908390610649908490610867565b90915550506040518281526001600160a01b038416906000907fddf252ad1be2c89b69c2b068fc378daa952ba7f163c4a11628f55a4df523b3ef906020016103e4565b600180546103089061087f565b336000908152600360205260408120805483919083906106ba908490610867565b909155505060405182815233906000907fddf252ad1be2c89b69c2b068fc378daa952ba7f163c4a11628f55a4df523b3ef9060200160405180910390a3506001919050565b600061070c3384846103f5565b9392505050565b600060208083528351808285015260005b8181101561074057858101830151858201604001528201610724565b81811115610752576000604083870101525b50601f01601f1916929092016040019392505050565b80356001600160a01b038116811461077f57600080fd5b919050565b6000806040838503121561079757600080fd5b6107a083610768565b946020939093013593505050565b6000806000606084860312156107c357600080fd5b6107cc84610768565b92506107da60208501610768565b9150604084013590509250925092565b6000602082840312156107fc57600080fd5b5035919050565b60006020828403121561081557600080fd5b61070c82610768565b6000806040838503121561083157600080fd5b61083a83610768565b915061084860208401610768565b90509250929050565b634e487b7160e01b600052601160045260246000fd5b6000821982111561087a5761087a610851565b500190565b600181811c9082168061089357607f821691505b602082108114156108b457634e487b7160e01b600052602260045260246000fd5b50919050565b6000828210156108cc576108cc610851565b50039056fea2646970667358221220ceaaad8420c6df0083bee853d1d5110876d1b8fdd19c8c392def4b864a0a51ab64736f6c634300080a0033",
  "linkReferences": {},
  "deployedLinkReferences": {}
}