{
	"contracts/AaveCall.sol": {
		"SimpleFlashLoan": {
			"abi": [
				{
					"inputs": [
						{
							"internalType": "address",
							"name": "_addressProvider",
							"type": "address"
						}
					],
					"stateMutability": "nonpayable",
					"type": "constructor"
				},
				{
					"anonymous": false,
					"inputs": [
						{
							"indexed": true,
							"internalType": "address",
							"name": "_from",
							"type": "address"
						},
						{
							"indexed": true,
							"internalType": "address",
							"name": "_assetAddress",
							"type": "address"
						},
						{
							"indexed": false,
							"internalType": "uint256",
							"name": "amount",
							"type": "uint256"
						}
					],
					"name": "LogWithdraw",
					"type": "event"
				},
				{
					"inputs": [],
					"name": "ADDRESSES_PROVIDER",
					"outputs": [
						{
							"internalType": "contract IPoolAddressesProvider",
							"name": "",
							"type": "address"
						}
					],
					"stateMutability": "view",
					"type": "function"
				},
				{
					"inputs": [],
					"name": "POOL",
					"outputs": [
						{
							"internalType": "contract IPool",
							"name": "",
							"type": "address"
						}
					],
					"stateMutability": "view",
					"type": "function"
				},
				{
					"inputs": [
						{
							"internalType": "address",
							"name": "asset",
							"type": "address"
						},
						{
							"internalType": "uint256",
							"name": "amount",
							"type": "uint256"
						},
						{
							"internalType": "uint256",
							"name": "premium",
							"type": "uint256"
						},
						{
							"internalType": "address",
							"name": "initiator",
							"type": "address"
						},
						{
							"internalType": "bytes",
							"name": "params",
							"type": "bytes"
						}
					],
					"name": "executeOperation",
					"outputs": [
						{
							"internalType": "bool",
							"name": "",
							"type": "bool"
						}
					],
					"stateMutability": "nonpayable",
					"type": "function"
				},
				{
					"inputs": [
						{
							"internalType": "address",
							"name": "_token",
							"type": "address"
						},
						{
							"internalType": "uint256",
							"name": "_amount",
							"type": "uint256"
						}
					],
					"name": "fn_RequestFlashLoan",
					"outputs": [],
					"stateMutability": "nonpayable",
					"type": "function"
				},
				{
					"inputs": [],
					"name": "owner",
					"outputs": [
						{
							"internalType": "address",
							"name": "",
							"type": "address"
						}
					],
					"stateMutability": "view",
					"type": "function"
				},
				{
					"inputs": [
						{
							"internalType": "address",
							"name": "_assetAddress",
							"type": "address"
						}
					],
					"name": "withdraw",
					"outputs": [],
					"stateMutability": "nonpayable",
					"type": "function"
				},
				{
					"stateMutability": "payable",
					"type": "receive"
				}
			],
			"devdoc": {
				"kind": "dev",
				"methods": {
					"executeOperation(address,uint256,uint256,address,bytes)": {
						"details": "Ensure that the contract can return the debt + premium, e.g., has      enough funds to repay and has approved the Pool to pull the total amount",
						"params": {
							"amount": "The amount of the flash-borrowed asset",
							"asset": "The address of the flash-borrowed asset",
							"initiator": "The address of the flashloan initiator",
							"params": "The byte-encoded params passed when initiating the flashloan",
							"premium": "The fee of the flash-borrowed asset"
						},
						"returns": {
							"_0": "True if the execution of the operation succeeds, false otherwise"
						}
					},
					"withdraw(address)": {
						"details": "Withdraw asset.",
						"params": {
							"_assetAddress": "Asset to be withdrawn."
						}
					}
				},
				"version": 1
			},
			"evm": {
				"assembly": "    /* \"contracts/AaveCall.sol\":291:2346  contract SimpleFlashLoan is FlashLoanSimpleReceiverBase {... */\n  mstore(0x40, 0xc0)\n    /* \"contracts/AaveCall.sol\":646:801  constructor(address _addressProvider)... */\n  callvalue\n  dup1\n  iszero\n  tag_1\n  jumpi\n  0x00\n  dup1\n  revert\ntag_1:\n  pop\n  mload(0x40)\n  sub(codesize, bytecodeSize)\n  dup1\n  bytecodeSize\n  dup4\n  codecopy\n  dup2\n  dup2\n  add\n  0x40\n  mstore\n  dup2\n  add\n  swap1\n  tag_2\n  swap2\n  swap1\n  tag_3\n  jump\t// in\ntag_2:\n    /* \"contracts/AaveCall.sol\":743:759  _addressProvider */\n  dup1\n    /* \"@aave/core-v3/contracts/flashloan/base/FlashLoanSimpleReceiverBase.sol\":673:681  provider */\n  dup1\n    /* \"@aave/core-v3/contracts/flashloan/base/FlashLoanSimpleReceiverBase.sol\":652:681  ADDRESSES_PROVIDER = provider */\n  0xffffffffffffffffffffffffffffffffffffffff\n  and\n  0x80\n  dup2\n  0xffffffffffffffffffffffffffffffffffffffff\n  and\n  dup2\n  mstore\n  pop\n  pop\n    /* \"@aave/core-v3/contracts/flashloan/base/FlashLoanSimpleReceiverBase.sol\":700:708  provider */\n  dup1\n    /* \"@aave/core-v3/contracts/flashloan/base/FlashLoanSimpleReceiverBase.sol\":700:716  provider.getPool */\n  0xffffffffffffffffffffffffffffffffffffffff\n  and\n  0x026b1d5f\n    /* \"@aave/core-v3/contracts/flashloan/base/FlashLoanSimpleReceiverBase.sol\":700:718  provider.getPool() */\n  mload(0x40)\n  dup2\n  0xffffffff\n  and\n  0xe0\n  shl\n  dup2\n  mstore\n  0x04\n  add\n  0x20\n  mload(0x40)\n  dup1\n  dup4\n  sub\n  dup2\n  dup7\n  gas\n  staticcall\n  iszero\n  dup1\n  iszero\n  tag_8\n  jumpi\n  returndatasize\n  0x00\n  dup1\n  returndatacopy\n  revert(0x00, returndatasize)\ntag_8:\n  pop\n  pop\n  pop\n  pop\n  mload(0x40)\n  returndatasize\n  not(0x1f)\n  0x1f\n  dup3\n  add\n  and\n  dup3\n  add\n  dup1\n  0x40\n  mstore\n  pop\n  dup2\n  add\n  swap1\n  tag_9\n  swap2\n  swap1\n  tag_3\n  jump\t// in\ntag_9:\n    /* \"@aave/core-v3/contracts/flashloan/base/FlashLoanSimpleReceiverBase.sol\":687:719  POOL = IPool(provider.getPool()) */\n  0xffffffffffffffffffffffffffffffffffffffff\n  and\n  0xa0\n  dup2\n  0xffffffffffffffffffffffffffffffffffffffff\n  and\n  dup2\n  mstore\n  pop\n  pop\n    /* \"@aave/core-v3/contracts/flashloan/base/FlashLoanSimpleReceiverBase.sol\":601:724  constructor(IPoolAddressesProvider provider) {... */\n  pop\n    /* \"contracts/AaveCall.sol\":784:794  msg.sender */\n  caller\n    /* \"contracts/AaveCall.sol\":776:781  owner */\n  0x00\n  dup1\n    /* \"contracts/AaveCall.sol\":776:794  owner = msg.sender */\n  0x0100\n  exp\n  dup2\n  sload\n  dup2\n  0xffffffffffffffffffffffffffffffffffffffff\n  mul\n  not\n  and\n  swap1\n  dup4\n  0xffffffffffffffffffffffffffffffffffffffff\n  and\n  mul\n  or\n  swap1\n  sstore\n  pop\n    /* \"contracts/AaveCall.sol\":646:801  constructor(address _addressProvider)... */\n  pop\n    /* \"contracts/AaveCall.sol\":291:2346  contract SimpleFlashLoan is FlashLoanSimpleReceiverBase {... */\n  jump(tag_11)\n    /* \"#utility.yul\":88:205   */\ntag_13:\n    /* \"#utility.yul\":197:198   */\n  0x00\n    /* \"#utility.yul\":194:195   */\n  dup1\n    /* \"#utility.yul\":187:199   */\n  revert\n    /* \"#utility.yul\":334:460   */\ntag_15:\n    /* \"#utility.yul\":371:378   */\n  0x00\n    /* \"#utility.yul\":411:453   */\n  0xffffffffffffffffffffffffffffffffffffffff\n    /* \"#utility.yul\":404:409   */\n  dup3\n    /* \"#utility.yul\":400:454   */\n  and\n    /* \"#utility.yul\":389:454   */\n  swap1\n  pop\n    /* \"#utility.yul\":334:460   */\n  swap2\n  swap1\n  pop\n  jump\t// out\n    /* \"#utility.yul\":466:562   */\ntag_16:\n    /* \"#utility.yul\":503:510   */\n  0x00\n    /* \"#utility.yul\":532:556   */\n  tag_25\n    /* \"#utility.yul\":550:555   */\n  dup3\n    /* \"#utility.yul\":532:556   */\n  tag_15\n  jump\t// in\ntag_25:\n    /* \"#utility.yul\":521:556   */\n  swap1\n  pop\n    /* \"#utility.yul\":466:562   */\n  swap2\n  swap1\n  pop\n  jump\t// out\n    /* \"#utility.yul\":568:690   */\ntag_17:\n    /* \"#utility.yul\":641:665   */\n  tag_27\n    /* \"#utility.yul\":659:664   */\n  dup2\n    /* \"#utility.yul\":641:665   */\n  tag_16\n  jump\t// in\ntag_27:\n    /* \"#utility.yul\":634:639   */\n  dup2\n    /* \"#utility.yul\":631:666   */\n  eq\n    /* \"#utility.yul\":621:684   */\n  tag_28\n  jumpi\n    /* \"#utility.yul\":680:681   */\n  0x00\n    /* \"#utility.yul\":677:678   */\n  dup1\n    /* \"#utility.yul\":670:682   */\n  revert\n    /* \"#utility.yul\":621:684   */\ntag_28:\n    /* \"#utility.yul\":568:690   */\n  pop\n  jump\t// out\n    /* \"#utility.yul\":696:839   */\ntag_18:\n    /* \"#utility.yul\":753:758   */\n  0x00\n    /* \"#utility.yul\":784:790   */\n  dup2\n    /* \"#utility.yul\":778:791   */\n  mload\n    /* \"#utility.yul\":769:791   */\n  swap1\n  pop\n    /* \"#utility.yul\":800:833   */\n  tag_30\n    /* \"#utility.yul\":827:832   */\n  dup2\n    /* \"#utility.yul\":800:833   */\n  tag_17\n  jump\t// in\ntag_30:\n    /* \"#utility.yul\":696:839   */\n  swap3\n  swap2\n  pop\n  pop\n  jump\t// out\n    /* \"#utility.yul\":845:1196   */\ntag_3:\n    /* \"#utility.yul\":915:921   */\n  0x00\n    /* \"#utility.yul\":964:966   */\n  0x20\n    /* \"#utility.yul\":952:961   */\n  dup3\n    /* \"#utility.yul\":943:950   */\n  dup5\n    /* \"#utility.yul\":939:962   */\n  sub\n    /* \"#utility.yul\":935:967   */\n  slt\n    /* \"#utility.yul\":932:1051   */\n  iszero\n  tag_32\n  jumpi\n    /* \"#utility.yul\":970:1049   */\n  tag_33\n  tag_13\n  jump\t// in\ntag_33:\n    /* \"#utility.yul\":932:1051   */\ntag_32:\n    /* \"#utility.yul\":1090:1091   */\n  0x00\n    /* \"#utility.yul\":1115:1179   */\n  tag_34\n    /* \"#utility.yul\":1171:1178   */\n  dup5\n    /* \"#utility.yul\":1162:1168   */\n  dup3\n    /* \"#utility.yul\":1151:1160   */\n  dup6\n    /* \"#utility.yul\":1147:1169   */\n  add\n    /* \"#utility.yul\":1115:1179   */\n  tag_18\n  jump\t// in\ntag_34:\n    /* \"#utility.yul\":1105:1179   */\n  swap2\n  pop\n    /* \"#utility.yul\":1061:1189   */\n  pop\n    /* \"#utility.yul\":845:1196   */\n  swap3\n  swap2\n  pop\n  pop\n  jump\t// out\n    /* \"contracts/AaveCall.sol\":291:2346  contract SimpleFlashLoan is FlashLoanSimpleReceiverBase {... */\ntag_11:\n  mload(0x80)\n  mload(0xa0)\n  codecopy(0x00, dataOffset(sub_0), dataSize(sub_0))\n  0x00\n  assignImmutable(\"0xdab92d3cfd2fb10847c732668f5be4f526313d660461529e6720c950cca9ea28\")\n  0x00\n  assignImmutable(\"0xaf057546d61dd28804ca035e688a36db5f311bb8c4c9d2e1e5e44c0555cfe3bf\")\n  return(0x00, dataSize(sub_0))\nstop\n\nsub_0: assembly {\n        /* \"contracts/AaveCall.sol\":291:2346  contract SimpleFlashLoan is FlashLoanSimpleReceiverBase {... */\n      mstore(0x40, 0x80)\n      jumpi(tag_1, lt(calldatasize, 0x04))\n      shr(0xe0, calldataload(0x00))\n      dup1\n      0x0542975c\n      eq\n      tag_3\n      jumpi\n      dup1\n      0x1b11d0ff\n      eq\n      tag_4\n      jumpi\n      dup1\n      0x51cff8d9\n      eq\n      tag_5\n      jumpi\n      dup1\n      0x7535d246\n      eq\n      tag_6\n      jumpi\n      dup1\n      0x87c7f0ac\n      eq\n      tag_7\n      jumpi\n      dup1\n      0x8da5cb5b\n      eq\n      tag_8\n      jumpi\n      jump(tag_2)\n    tag_1:\n      jumpi(tag_2, calldatasize)\n      stop\n    tag_2:\n      0x00\n      dup1\n      revert\n        /* \"@aave/core-v3/contracts/flashloan/base/FlashLoanSimpleReceiverBase.sol\":489:556  IPoolAddressesProvider public immutable override ADDRESSES_PROVIDER */\n    tag_3:\n      callvalue\n      dup1\n      iszero\n      tag_11\n      jumpi\n      0x00\n      dup1\n      revert\n    tag_11:\n      pop\n      tag_12\n      tag_13\n      jump\t// in\n    tag_12:\n      mload(0x40)\n      tag_14\n      swap2\n      swap1\n      tag_15\n      jump\t// in\n    tag_14:\n      mload(0x40)\n      dup1\n      swap2\n      sub\n      swap1\n      return\n        /* \"contracts/AaveCall.sol\":1331:1708  function  executeOperation(... */\n    tag_4:\n      callvalue\n      dup1\n      iszero\n      tag_16\n      jumpi\n      0x00\n      dup1\n      revert\n    tag_16:\n      pop\n      tag_17\n      0x04\n      dup1\n      calldatasize\n      sub\n      dup2\n      add\n      swap1\n      tag_18\n      swap2\n      swap1\n      tag_19\n      jump\t// in\n    tag_18:\n      tag_20\n      jump\t// in\n    tag_17:\n      mload(0x40)\n      tag_21\n      swap2\n      swap1\n      tag_22\n      jump\t// in\n    tag_21:\n      mload(0x40)\n      dup1\n      swap2\n      sub\n      swap1\n      return\n        /* \"contracts/AaveCall.sol\":1848:2344  function withdraw(address _assetAddress) public onlyOwner {... */\n    tag_5:\n      callvalue\n      dup1\n      iszero\n      tag_23\n      jumpi\n      0x00\n      dup1\n      revert\n    tag_23:\n      pop\n      tag_24\n      0x04\n      dup1\n      calldatasize\n      sub\n      dup2\n      add\n      swap1\n      tag_25\n      swap2\n      swap1\n      tag_26\n      jump\t// in\n    tag_25:\n      tag_27\n      jump\t// in\n    tag_24:\n      stop\n        /* \"@aave/core-v3/contracts/flashloan/base/FlashLoanSimpleReceiverBase.sol\":560:596  IPool public immutable override POOL */\n    tag_6:\n      callvalue\n      dup1\n      iszero\n      tag_28\n      jumpi\n      0x00\n      dup1\n      revert\n    tag_28:\n      pop\n      tag_29\n      tag_30\n      jump\t// in\n    tag_29:\n      mload(0x40)\n      tag_31\n      swap2\n      swap1\n      tag_32\n      jump\t// in\n    tag_31:\n      mload(0x40)\n      dup1\n      swap2\n      sub\n      swap1\n      return\n        /* \"contracts/AaveCall.sol\":807:1229  function fn_RequestFlashLoan(address _token, uint256 _amount) public onlyOwner{... */\n    tag_7:\n      callvalue\n      dup1\n      iszero\n      tag_33\n      jumpi\n      0x00\n      dup1\n      revert\n    tag_33:\n      pop\n      tag_34\n      0x04\n      dup1\n      calldatasize\n      sub\n      dup2\n      add\n      swap1\n      tag_35\n      swap2\n      swap1\n      tag_36\n      jump\t// in\n    tag_35:\n      tag_37\n      jump\t// in\n    tag_34:\n      stop\n        /* \"contracts/AaveCall.sol\":353:373  address public owner */\n    tag_8:\n      callvalue\n      dup1\n      iszero\n      tag_38\n      jumpi\n      0x00\n      dup1\n      revert\n    tag_38:\n      pop\n      tag_39\n      tag_40\n      jump\t// in\n    tag_39:\n      mload(0x40)\n      tag_41\n      swap2\n      swap1\n      tag_42\n      jump\t// in\n    tag_41:\n      mload(0x40)\n      dup1\n      swap2\n      sub\n      swap1\n      return\n        /* \"@aave/core-v3/contracts/flashloan/base/FlashLoanSimpleReceiverBase.sol\":489:556  IPoolAddressesProvider public immutable override ADDRESSES_PROVIDER */\n    tag_13:\n      immutable(\"0xaf057546d61dd28804ca035e688a36db5f311bb8c4c9d2e1e5e44c0555cfe3bf\")\n      dup2\n      jump\t// out\n        /* \"contracts/AaveCall.sol\":1331:1708  function  executeOperation(... */\n    tag_20:\n        /* \"contracts/AaveCall.sol\":1522:1526  bool */\n      0x00\n        /* \"contracts/AaveCall.sol\":1582:1601  uint256 totalAmount */\n      dup1\n        /* \"contracts/AaveCall.sol\":1613:1620  premium */\n      dup6\n        /* \"contracts/AaveCall.sol\":1604:1610  amount */\n      dup8\n        /* \"contracts/AaveCall.sol\":1604:1620  amount + premium */\n      tag_44\n      swap2\n      swap1\n      tag_45\n      jump\t// in\n    tag_44:\n        /* \"contracts/AaveCall.sol\":1582:1620  uint256 totalAmount = amount + premium */\n      swap1\n      pop\n        /* \"contracts/AaveCall.sol\":1637:1642  asset */\n      dup8\n        /* \"contracts/AaveCall.sol\":1630:1651  IERC20(asset).approve */\n      0xffffffffffffffffffffffffffffffffffffffff\n      and\n      0x095ea7b3\n        /* \"contracts/AaveCall.sol\":1660:1664  POOL */\n      immutable(\"0xdab92d3cfd2fb10847c732668f5be4f526313d660461529e6720c950cca9ea28\")\n        /* \"contracts/AaveCall.sol\":1667:1678  totalAmount */\n      dup4\n        /* \"contracts/AaveCall.sol\":1630:1679  IERC20(asset).approve(address(POOL), totalAmount) */\n      mload(0x40)\n      dup4\n      0xffffffff\n      and\n      0xe0\n      shl\n      dup2\n      mstore\n      0x04\n      add\n      tag_46\n      swap3\n      swap2\n      swap1\n      tag_47\n      jump\t// in\n    tag_46:\n      0x20\n      mload(0x40)\n      dup1\n      dup4\n      sub\n      dup2\n      0x00\n      dup8\n      gas\n      call\n      iszero\n      dup1\n      iszero\n      tag_49\n      jumpi\n      returndatasize\n      0x00\n      dup1\n      returndatacopy\n      revert(0x00, returndatasize)\n    tag_49:\n      pop\n      pop\n      pop\n      pop\n      mload(0x40)\n      returndatasize\n      not(0x1f)\n      0x1f\n      dup3\n      add\n      and\n      dup3\n      add\n      dup1\n      0x40\n      mstore\n      pop\n      dup2\n      add\n      swap1\n      tag_50\n      swap2\n      swap1\n      tag_51\n      jump\t// in\n    tag_50:\n      pop\n        /* \"contracts/AaveCall.sol\":1697:1701  true */\n      0x01\n        /* \"contracts/AaveCall.sol\":1690:1701  return true */\n      swap2\n      pop\n      pop\n        /* \"contracts/AaveCall.sol\":1331:1708  function  executeOperation(... */\n      swap7\n      swap6\n      pop\n      pop\n      pop\n      pop\n      pop\n      pop\n      jump\t// out\n        /* \"contracts/AaveCall.sol\":1848:2344  function withdraw(address _assetAddress) public onlyOwner {... */\n    tag_27:\n        /* \"contracts/AaveCall.sol\":595:600  owner */\n      0x00\n      dup1\n      sload\n      swap1\n      0x0100\n      exp\n      swap1\n      div\n      0xffffffffffffffffffffffffffffffffffffffff\n      and\n        /* \"contracts/AaveCall.sol\":581:600  msg.sender == owner */\n      0xffffffffffffffffffffffffffffffffffffffff\n      and\n        /* \"contracts/AaveCall.sol\":581:591  msg.sender */\n      caller\n        /* \"contracts/AaveCall.sol\":581:600  msg.sender == owner */\n      0xffffffffffffffffffffffffffffffffffffffff\n      and\n      eq\n        /* \"contracts/AaveCall.sol\":573:622  require(msg.sender == owner, \"only owner access\") */\n      tag_53\n      jumpi\n      mload(0x40)\n      0x08c379a000000000000000000000000000000000000000000000000000000000\n      dup2\n      mstore\n      0x04\n      add\n      tag_54\n      swap1\n      tag_55\n      jump\t// in\n    tag_54:\n      mload(0x40)\n      dup1\n      swap2\n      sub\n      swap1\n      revert\n    tag_53:\n        /* \"contracts/AaveCall.sol\":1916:1933  uint assetBalance */\n      0x00\n        /* \"contracts/AaveCall.sol\":412:413  0 */\n      dup1\n        /* \"contracts/AaveCall.sol\":1947:1969  _assetAddress == ETHER */\n      0xffffffffffffffffffffffffffffffffffffffff\n      and\n        /* \"contracts/AaveCall.sol\":1947:1960  _assetAddress */\n      dup3\n        /* \"contracts/AaveCall.sol\":1947:1969  _assetAddress == ETHER */\n      0xffffffffffffffffffffffffffffffffffffffff\n      and\n      eq\n        /* \"contracts/AaveCall.sol\":1943:2271  if (_assetAddress == ETHER) {... */\n      iszero\n      tag_57\n      jumpi\n        /* \"contracts/AaveCall.sol\":1986:1998  bool success */\n      0x00\n        /* \"contracts/AaveCall.sol\":2001:2011  msg.sender */\n      caller\n        /* \"contracts/AaveCall.sol\":2001:2016  msg.sender.call */\n      0xffffffffffffffffffffffffffffffffffffffff\n      and\n        /* \"contracts/AaveCall.sol\":2023:2044  address(this).balance */\n      selfbalance\n        /* \"contracts/AaveCall.sol\":2001:2049  msg.sender.call{value:address(this).balance}(\"\") */\n      mload(0x40)\n      tag_58\n      swap1\n      tag_59\n      jump\t// in\n    tag_58:\n      0x00\n      mload(0x40)\n      dup1\n      dup4\n      sub\n      dup2\n      dup6\n      dup8\n      gas\n      call\n      swap3\n      pop\n      pop\n      pop\n      returndatasize\n      dup1\n      0x00\n      dup2\n      eq\n      tag_62\n      jumpi\n      mload(0x40)\n      swap2\n      pop\n      and(add(returndatasize, 0x3f), not(0x1f))\n      dup3\n      add\n      0x40\n      mstore\n      returndatasize\n      dup3\n      mstore\n      returndatasize\n      0x00\n      0x20\n      dup5\n      add\n      returndatacopy\n      jump(tag_61)\n    tag_62:\n      0x60\n      swap2\n      pop\n    tag_61:\n      pop\n        /* \"contracts/AaveCall.sol\":1985:2049  (bool success,)=msg.sender.call{value:address(this).balance}(\"\") */\n      pop\n      swap1\n      pop\n        /* \"contracts/AaveCall.sol\":2071:2078  success */\n      dup1\n        /* \"contracts/AaveCall.sol\":2063:2098  require(success,\"Transfer failed!\") */\n      tag_63\n      jumpi\n      mload(0x40)\n      0x08c379a000000000000000000000000000000000000000000000000000000000\n      dup2\n      mstore\n      0x04\n      add\n      tag_64\n      swap1\n      tag_65\n      jump\t// in\n    tag_64:\n      mload(0x40)\n      dup1\n      swap2\n      sub\n      swap1\n      revert\n    tag_63:\n        /* \"contracts/AaveCall.sol\":1971:2109  {... */\n      pop\n        /* \"contracts/AaveCall.sol\":1943:2271  if (_assetAddress == ETHER) {... */\n      jump(tag_66)\n    tag_57:\n        /* \"contracts/AaveCall.sol\":2151:2164  _assetAddress */\n      dup2\n        /* \"contracts/AaveCall.sol\":2144:2175  IERC20(_assetAddress).balanceOf */\n      0xffffffffffffffffffffffffffffffffffffffff\n      and\n      0x70a08231\n        /* \"contracts/AaveCall.sol\":2184:2188  this */\n      address\n        /* \"contracts/AaveCall.sol\":2144:2190  IERC20(_assetAddress).balanceOf(address(this)) */\n      mload(0x40)\n      dup3\n      0xffffffff\n      and\n      0xe0\n      shl\n      dup2\n      mstore\n      0x04\n      add\n      tag_67\n      swap2\n      swap1\n      tag_42\n      jump\t// in\n    tag_67:\n      0x20\n      mload(0x40)\n      dup1\n      dup4\n      sub\n      dup2\n      dup7\n      gas\n      staticcall\n      iszero\n      dup1\n      iszero\n      tag_69\n      jumpi\n      returndatasize\n      0x00\n      dup1\n      returndatacopy\n      revert(0x00, returndatasize)\n    tag_69:\n      pop\n      pop\n      pop\n      pop\n      mload(0x40)\n      returndatasize\n      not(0x1f)\n      0x1f\n      dup3\n      add\n      and\n      dup3\n      add\n      dup1\n      0x40\n      mstore\n      pop\n      dup2\n      add\n      swap1\n      tag_70\n      swap2\n      swap1\n      tag_71\n      jump\t// in\n    tag_70:\n        /* \"contracts/AaveCall.sol\":2129:2190  assetBalance = IERC20(_assetAddress).balanceOf(address(this)) */\n      swap1\n      pop\n        /* \"contracts/AaveCall.sol\":2211:2224  _assetAddress */\n      dup2\n        /* \"contracts/AaveCall.sol\":2204:2234  IERC20(_assetAddress).transfer */\n      0xffffffffffffffffffffffffffffffffffffffff\n      and\n      0xa9059cbb\n        /* \"contracts/AaveCall.sol\":2235:2245  msg.sender */\n      caller\n        /* \"contracts/AaveCall.sol\":2247:2259  assetBalance */\n      dup4\n        /* \"contracts/AaveCall.sol\":2204:2260  IERC20(_assetAddress).transfer(msg.sender, assetBalance) */\n      mload(0x40)\n      dup4\n      0xffffffff\n      and\n      0xe0\n      shl\n      dup2\n      mstore\n      0x04\n      add\n      tag_72\n      swap3\n      swap2\n      swap1\n      tag_47\n      jump\t// in\n    tag_72:\n      0x20\n      mload(0x40)\n      dup1\n      dup4\n      sub\n      dup2\n      0x00\n      dup8\n      gas\n      call\n      iszero\n      dup1\n      iszero\n      tag_74\n      jumpi\n      returndatasize\n      0x00\n      dup1\n      returndatacopy\n      revert(0x00, returndatasize)\n    tag_74:\n      pop\n      pop\n      pop\n      pop\n      mload(0x40)\n      returndatasize\n      not(0x1f)\n      0x1f\n      dup3\n      add\n      and\n      dup3\n      add\n      dup1\n      0x40\n      mstore\n      pop\n      dup2\n      add\n      swap1\n      tag_75\n      swap2\n      swap1\n      tag_51\n      jump\t// in\n    tag_75:\n      pop\n        /* \"contracts/AaveCall.sol\":1943:2271  if (_assetAddress == ETHER) {... */\n    tag_66:\n        /* \"contracts/AaveCall.sol\":2309:2322  _assetAddress */\n      dup2\n        /* \"contracts/AaveCall.sol\":2285:2337  LogWithdraw(msg.sender, _assetAddress, assetBalance) */\n      0xffffffffffffffffffffffffffffffffffffffff\n      and\n        /* \"contracts/AaveCall.sol\":2297:2307  msg.sender */\n      caller\n        /* \"contracts/AaveCall.sol\":2285:2337  LogWithdraw(msg.sender, _assetAddress, assetBalance) */\n      0xffffffffffffffffffffffffffffffffffffffff\n      and\n      0x9207361cc2a04b9c7a06691df1eb87c6a63957ae88bf01d0d18c81e3d1272099\n        /* \"contracts/AaveCall.sol\":2324:2336  assetBalance */\n      dup4\n        /* \"contracts/AaveCall.sol\":2285:2337  LogWithdraw(msg.sender, _assetAddress, assetBalance) */\n      mload(0x40)\n      tag_76\n      swap2\n      swap1\n      tag_77\n      jump\t// in\n    tag_76:\n      mload(0x40)\n      dup1\n      swap2\n      sub\n      swap1\n      log3\n        /* \"contracts/AaveCall.sol\":1906:2344  {... */\n      pop\n        /* \"contracts/AaveCall.sol\":1848:2344  function withdraw(address _assetAddress) public onlyOwner {... */\n      pop\n      jump\t// out\n        /* \"@aave/core-v3/contracts/flashloan/base/FlashLoanSimpleReceiverBase.sol\":560:596  IPool public immutable override POOL */\n    tag_30:\n      immutable(\"0xdab92d3cfd2fb10847c732668f5be4f526313d660461529e6720c950cca9ea28\")\n      dup2\n      jump\t// out\n        /* \"contracts/AaveCall.sol\":807:1229  function fn_RequestFlashLoan(address _token, uint256 _amount) public onlyOwner{... */\n    tag_37:\n        /* \"contracts/AaveCall.sol\":595:600  owner */\n      0x00\n      dup1\n      sload\n      swap1\n      0x0100\n      exp\n      swap1\n      div\n      0xffffffffffffffffffffffffffffffffffffffff\n      and\n        /* \"contracts/AaveCall.sol\":581:600  msg.sender == owner */\n      0xffffffffffffffffffffffffffffffffffffffff\n      and\n        /* \"contracts/AaveCall.sol\":581:591  msg.sender */\n      caller\n        /* \"contracts/AaveCall.sol\":581:600  msg.sender == owner */\n      0xffffffffffffffffffffffffffffffffffffffff\n      and\n      eq\n        /* \"contracts/AaveCall.sol\":573:622  require(msg.sender == owner, \"only owner access\") */\n      tag_79\n      jumpi\n      mload(0x40)\n      0x08c379a000000000000000000000000000000000000000000000000000000000\n      dup2\n      mstore\n      0x04\n      add\n      tag_80\n      swap1\n      tag_55\n      jump\t// in\n    tag_80:\n      mload(0x40)\n      dup1\n      swap2\n      sub\n      swap1\n      revert\n    tag_79:\n        /* \"contracts/AaveCall.sol\":895:918  address receiverAddress */\n      0x00\n        /* \"contracts/AaveCall.sol\":929:933  this */\n      address\n        /* \"contracts/AaveCall.sol\":895:934  address receiverAddress = address(this) */\n      swap1\n      pop\n        /* \"contracts/AaveCall.sol\":944:957  address asset */\n      0x00\n        /* \"contracts/AaveCall.sol\":960:966  _token */\n      dup4\n        /* \"contracts/AaveCall.sol\":944:966  address asset = _token */\n      swap1\n      pop\n        /* \"contracts/AaveCall.sol\":976:990  uint256 amount */\n      0x00\n        /* \"contracts/AaveCall.sol\":993:1000  _amount */\n      dup4\n        /* \"contracts/AaveCall.sol\":976:1000  uint256 amount = _amount */\n      swap1\n      pop\n        /* \"contracts/AaveCall.sol\":1010:1029  bytes memory params */\n      0x00\n        /* \"contracts/AaveCall.sol\":1010:1034  bytes memory params = \"\" */\n      mload(0x40)\n      dup1\n      0x20\n      add\n      0x40\n      mstore\n      dup1\n      0x00\n      dup2\n      mstore\n      pop\n      swap1\n      pop\n        /* \"contracts/AaveCall.sol\":1044:1063  uint16 referralCode */\n      0x00\n        /* \"contracts/AaveCall.sol\":1078:1082  POOL */\n      immutable(\"0xdab92d3cfd2fb10847c732668f5be4f526313d660461529e6720c950cca9ea28\")\n        /* \"contracts/AaveCall.sol\":1078:1098  POOL.flashLoanSimple */\n      0xffffffffffffffffffffffffffffffffffffffff\n      and\n      0x42b0b77c\n        /* \"contracts/AaveCall.sol\":1112:1127  receiverAddress */\n      dup7\n        /* \"contracts/AaveCall.sol\":1141:1146  asset */\n      dup7\n        /* \"contracts/AaveCall.sol\":1160:1166  amount */\n      dup7\n        /* \"contracts/AaveCall.sol\":1180:1186  params */\n      dup7\n        /* \"contracts/AaveCall.sol\":1200:1212  referralCode */\n      dup7\n        /* \"contracts/AaveCall.sol\":1078:1222  POOL.flashLoanSimple(... */\n      mload(0x40)\n      dup7\n      0xffffffff\n      and\n      0xe0\n      shl\n      dup2\n      mstore\n      0x04\n      add\n      tag_82\n      swap6\n      swap5\n      swap4\n      swap3\n      swap2\n      swap1\n      tag_83\n      jump\t// in\n    tag_82:\n      0x00\n      mload(0x40)\n      dup1\n      dup4\n      sub\n      dup2\n      0x00\n      dup8\n      dup1\n      extcodesize\n      iszero\n      dup1\n      iszero\n      tag_84\n      jumpi\n      0x00\n      dup1\n      revert\n    tag_84:\n      pop\n      gas\n      call\n      iszero\n      dup1\n      iszero\n      tag_86\n      jumpi\n      returndatasize\n      0x00\n      dup1\n      returndatacopy\n      revert(0x00, returndatasize)\n    tag_86:\n      pop\n      pop\n      pop\n      pop\n        /* \"contracts/AaveCall.sol\":885:1229  {... */\n      pop\n      pop\n      pop\n      pop\n      pop\n        /* \"contracts/AaveCall.sol\":807:1229  function fn_RequestFlashLoan(address _token, uint256 _amount) public onlyOwner{... */\n      pop\n      pop\n      jump\t// out\n        /* \"contracts/AaveCall.sol\":353:373  address public owner */\n    tag_40:\n      0x00\n      dup1\n      sload\n      swap1\n      0x0100\n      exp\n      swap1\n      div\n      0xffffffffffffffffffffffffffffffffffffffff\n      and\n      dup2\n      jump\t// out\n        /* \"#utility.yul\":7:133   */\n    tag_87:\n        /* \"#utility.yul\":44:51   */\n      0x00\n        /* \"#utility.yul\":84:126   */\n      0xffffffffffffffffffffffffffffffffffffffff\n        /* \"#utility.yul\":77:82   */\n      dup3\n        /* \"#utility.yul\":73:127   */\n      and\n        /* \"#utility.yul\":62:127   */\n      swap1\n      pop\n        /* \"#utility.yul\":7:133   */\n      swap2\n      swap1\n      pop\n      jump\t// out\n        /* \"#utility.yul\":139:199   */\n    tag_88:\n        /* \"#utility.yul\":167:170   */\n      0x00\n        /* \"#utility.yul\":188:193   */\n      dup2\n        /* \"#utility.yul\":181:193   */\n      swap1\n      pop\n        /* \"#utility.yul\":139:199   */\n      swap2\n      swap1\n      pop\n      jump\t// out\n        /* \"#utility.yul\":205:347   */\n    tag_89:\n        /* \"#utility.yul\":255:264   */\n      0x00\n        /* \"#utility.yul\":288:341   */\n      tag_135\n        /* \"#utility.yul\":306:340   */\n      tag_136\n        /* \"#utility.yul\":315:339   */\n      tag_137\n        /* \"#utility.yul\":333:338   */\n      dup5\n        /* \"#utility.yul\":315:339   */\n      tag_87\n      jump\t// in\n    tag_137:\n        /* \"#utility.yul\":306:340   */\n      tag_88\n      jump\t// in\n    tag_136:\n        /* \"#utility.yul\":288:341   */\n      tag_87\n      jump\t// in\n    tag_135:\n        /* \"#utility.yul\":275:341   */\n      swap1\n      pop\n        /* \"#utility.yul\":205:347   */\n      swap2\n      swap1\n      pop\n      jump\t// out\n        /* \"#utility.yul\":353:479   */\n    tag_90:\n        /* \"#utility.yul\":403:412   */\n      0x00\n        /* \"#utility.yul\":436:473   */\n      tag_139\n        /* \"#utility.yul\":467:472   */\n      dup3\n        /* \"#utility.yul\":436:473   */\n      tag_89\n      jump\t// in\n    tag_139:\n        /* \"#utility.yul\":423:473   */\n      swap1\n      pop\n        /* \"#utility.yul\":353:479   */\n      swap2\n      swap1\n      pop\n      jump\t// out\n        /* \"#utility.yul\":485:642   */\n    tag_91:\n        /* \"#utility.yul\":566:575   */\n      0x00\n        /* \"#utility.yul\":599:636   */\n      tag_141\n        /* \"#utility.yul\":630:635   */\n      dup3\n        /* \"#utility.yul\":599:636   */\n      tag_90\n      jump\t// in\n    tag_141:\n        /* \"#utility.yul\":586:636   */\n      swap1\n      pop\n        /* \"#utility.yul\":485:642   */\n      swap2\n      swap1\n      pop\n      jump\t// out\n        /* \"#utility.yul\":648:841   */\n    tag_92:\n        /* \"#utility.yul\":766:834   */\n      tag_143\n        /* \"#utility.yul\":828:833   */\n      dup2\n        /* \"#utility.yul\":766:834   */\n      tag_91\n      jump\t// in\n    tag_143:\n        /* \"#utility.yul\":761:764   */\n      dup3\n        /* \"#utility.yul\":754:835   */\n      mstore\n        /* \"#utility.yul\":648:841   */\n      pop\n      pop\n      jump\t// out\n        /* \"#utility.yul\":847:1131   */\n    tag_15:\n        /* \"#utility.yul\":971:975   */\n      0x00\n        /* \"#utility.yul\":1009:1011   */\n      0x20\n        /* \"#utility.yul\":998:1007   */\n      dup3\n        /* \"#utility.yul\":994:1012   */\n      add\n        /* \"#utility.yul\":986:1012   */\n      swap1\n      pop\n        /* \"#utility.yul\":1022:1124   */\n      tag_145\n        /* \"#utility.yul\":1121:1122   */\n      0x00\n        /* \"#utility.yul\":1110:1119   */\n      dup4\n        /* \"#utility.yul\":1106:1123   */\n      add\n        /* \"#utility.yul\":1097:1103   */\n      dup5\n        /* \"#utility.yul\":1022:1124   */\n      tag_92\n      jump\t// in\n    tag_145:\n        /* \"#utility.yul\":847:1131   */\n      swap3\n      swap2\n      pop\n      pop\n      jump\t// out\n        /* \"#utility.yul\":1218:1335   */\n    tag_94:\n        /* \"#utility.yul\":1327:1328   */\n      0x00\n        /* \"#utility.yul\":1324:1325   */\n      dup1\n        /* \"#utility.yul\":1317:1329   */\n      revert\n        /* \"#utility.yul\":1341:1458   */\n    tag_95:\n        /* \"#utility.yul\":1450:1451   */\n      0x00\n        /* \"#utility.yul\":1447:1448   */\n      dup1\n        /* \"#utility.yul\":1440:1452   */\n      revert\n        /* \"#utility.yul\":1464:1560   */\n    tag_96:\n        /* \"#utility.yul\":1501:1508   */\n      0x00\n        /* \"#utility.yul\":1530:1554   */\n      tag_150\n        /* \"#utility.yul\":1548:1553   */\n      dup3\n        /* \"#utility.yul\":1530:1554   */\n      tag_87\n      jump\t// in\n    tag_150:\n        /* \"#utility.yul\":1519:1554   */\n      swap1\n      pop\n        /* \"#utility.yul\":1464:1560   */\n      swap2\n      swap1\n      pop\n      jump\t// out\n        /* \"#utility.yul\":1566:1688   */\n    tag_97:\n        /* \"#utility.yul\":1639:1663   */\n      tag_152\n        /* \"#utility.yul\":1657:1662   */\n      dup2\n        /* \"#utility.yul\":1639:1663   */\n      tag_96\n      jump\t// in\n    tag_152:\n        /* \"#utility.yul\":1632:1637   */\n      dup2\n        /* \"#utility.yul\":1629:1664   */\n      eq\n        /* \"#utility.yul\":1619:1682   */\n      tag_153\n      jumpi\n        /* \"#utility.yul\":1678:1679   */\n      0x00\n        /* \"#utility.yul\":1675:1676   */\n      dup1\n        /* \"#utility.yul\":1668:1680   */\n      revert\n        /* \"#utility.yul\":1619:1682   */\n    tag_153:\n        /* \"#utility.yul\":1566:1688   */\n      pop\n      jump\t// out\n        /* \"#utility.yul\":1694:1833   */\n    tag_98:\n        /* \"#utility.yul\":1740:1745   */\n      0x00\n        /* \"#utility.yul\":1778:1784   */\n      dup2\n        /* \"#utility.yul\":1765:1785   */\n      calldataload\n        /* \"#utility.yul\":1756:1785   */\n      swap1\n      pop\n        /* \"#utility.yul\":1794:1827   */\n      tag_155\n        /* \"#utility.yul\":1821:1826   */\n      dup2\n        /* \"#utility.yul\":1794:1827   */\n      tag_97\n      jump\t// in\n    tag_155:\n        /* \"#utility.yul\":1694:1833   */\n      swap3\n      swap2\n      pop\n      pop\n      jump\t// out\n        /* \"#utility.yul\":1839:1916   */\n    tag_99:\n        /* \"#utility.yul\":1876:1883   */\n      0x00\n        /* \"#utility.yul\":1905:1910   */\n      dup2\n        /* \"#utility.yul\":1894:1910   */\n      swap1\n      pop\n        /* \"#utility.yul\":1839:1916   */\n      swap2\n      swap1\n      pop\n      jump\t// out\n        /* \"#utility.yul\":1922:2044   */\n    tag_100:\n        /* \"#utility.yul\":1995:2019   */\n      tag_158\n        /* \"#utility.yul\":2013:2018   */\n      dup2\n        /* \"#utility.yul\":1995:2019   */\n      tag_99\n      jump\t// in\n    tag_158:\n        /* \"#utility.yul\":1988:1993   */\n      dup2\n        /* \"#utility.yul\":1985:2020   */\n      eq\n        /* \"#utility.yul\":1975:2038   */\n      tag_159\n      jumpi\n        /* \"#utility.yul\":2034:2035   */\n      0x00\n        /* \"#utility.yul\":2031:2032   */\n      dup1\n        /* \"#utility.yul\":2024:2036   */\n      revert\n        /* \"#utility.yul\":1975:2038   */\n    tag_159:\n        /* \"#utility.yul\":1922:2044   */\n      pop\n      jump\t// out\n        /* \"#utility.yul\":2050:2189   */\n    tag_101:\n        /* \"#utility.yul\":2096:2101   */\n      0x00\n        /* \"#utility.yul\":2134:2140   */\n      dup2\n        /* \"#utility.yul\":2121:2141   */\n      calldataload\n        /* \"#utility.yul\":2112:2141   */\n      swap1\n      pop\n        /* \"#utility.yul\":2150:2183   */\n      tag_161\n        /* \"#utility.yul\":2177:2182   */\n      dup2\n        /* \"#utility.yul\":2150:2183   */\n      tag_100\n      jump\t// in\n    tag_161:\n        /* \"#utility.yul\":2050:2189   */\n      swap3\n      swap2\n      pop\n      pop\n      jump\t// out\n        /* \"#utility.yul\":2195:2312   */\n    tag_102:\n        /* \"#utility.yul\":2304:2305   */\n      0x00\n        /* \"#utility.yul\":2301:2302   */\n      dup1\n        /* \"#utility.yul\":2294:2306   */\n      revert\n        /* \"#utility.yul\":2318:2435   */\n    tag_103:\n        /* \"#utility.yul\":2427:2428   */\n      0x00\n        /* \"#utility.yul\":2424:2425   */\n      dup1\n        /* \"#utility.yul\":2417:2429   */\n      revert\n        /* \"#utility.yul\":2441:2558   */\n    tag_104:\n        /* \"#utility.yul\":2550:2551   */\n      0x00\n        /* \"#utility.yul\":2547:2548   */\n      dup1\n        /* \"#utility.yul\":2540:2552   */\n      revert\n        /* \"#utility.yul\":2577:3129   */\n    tag_105:\n        /* \"#utility.yul\":2634:2642   */\n      0x00\n        /* \"#utility.yul\":2644:2650   */\n      dup1\n        /* \"#utility.yul\":2694:2697   */\n      dup4\n        /* \"#utility.yul\":2687:2691   */\n      0x1f\n        /* \"#utility.yul\":2679:2685   */\n      dup5\n        /* \"#utility.yul\":2675:2692   */\n      add\n        /* \"#utility.yul\":2671:2698   */\n      slt\n        /* \"#utility.yul\":2661:2783   */\n      tag_166\n      jumpi\n        /* \"#utility.yul\":2702:2781   */\n      tag_167\n      tag_102\n      jump\t// in\n    tag_167:\n        /* \"#utility.yul\":2661:2783   */\n    tag_166:\n        /* \"#utility.yul\":2815:2821   */\n      dup3\n        /* \"#utility.yul\":2802:2822   */\n      calldataload\n        /* \"#utility.yul\":2792:2822   */\n      swap1\n      pop\n        /* \"#utility.yul\":2845:2863   */\n      0xffffffffffffffff\n        /* \"#utility.yul\":2837:2843   */\n      dup2\n        /* \"#utility.yul\":2834:2864   */\n      gt\n        /* \"#utility.yul\":2831:2948   */\n      iszero\n      tag_168\n      jumpi\n        /* \"#utility.yul\":2867:2946   */\n      tag_169\n      tag_103\n      jump\t// in\n    tag_169:\n        /* \"#utility.yul\":2831:2948   */\n    tag_168:\n        /* \"#utility.yul\":2981:2985   */\n      0x20\n        /* \"#utility.yul\":2973:2979   */\n      dup4\n        /* \"#utility.yul\":2969:2986   */\n      add\n        /* \"#utility.yul\":2957:2986   */\n      swap2\n      pop\n        /* \"#utility.yul\":3035:3038   */\n      dup4\n        /* \"#utility.yul\":3027:3031   */\n      0x01\n        /* \"#utility.yul\":3019:3025   */\n      dup3\n        /* \"#utility.yul\":3015:3032   */\n      mul\n        /* \"#utility.yul\":3005:3013   */\n      dup4\n        /* \"#utility.yul\":3001:3033   */\n      add\n        /* \"#utility.yul\":2998:3039   */\n      gt\n        /* \"#utility.yul\":2995:3123   */\n      iszero\n      tag_170\n      jumpi\n        /* \"#utility.yul\":3042:3121   */\n      tag_171\n      tag_104\n      jump\t// in\n    tag_171:\n        /* \"#utility.yul\":2995:3123   */\n    tag_170:\n        /* \"#utility.yul\":2577:3129   */\n      swap3\n      pop\n      swap3\n      swap1\n      pop\n      jump\t// out\n        /* \"#utility.yul\":3135:4244   */\n    tag_19:\n        /* \"#utility.yul\":3241:3247   */\n      0x00\n        /* \"#utility.yul\":3249:3255   */\n      dup1\n        /* \"#utility.yul\":3257:3263   */\n      0x00\n        /* \"#utility.yul\":3265:3271   */\n      dup1\n        /* \"#utility.yul\":3273:3279   */\n      0x00\n        /* \"#utility.yul\":3281:3287   */\n      dup1\n        /* \"#utility.yul\":3330:3333   */\n      0xa0\n        /* \"#utility.yul\":3318:3327   */\n      dup8\n        /* \"#utility.yul\":3309:3316   */\n      dup10\n        /* \"#utility.yul\":3305:3328   */\n      sub\n        /* \"#utility.yul\":3301:3334   */\n      slt\n        /* \"#utility.yul\":3298:3418   */\n      iszero\n      tag_173\n      jumpi\n        /* \"#utility.yul\":3337:3416   */\n      tag_174\n      tag_94\n      jump\t// in\n    tag_174:\n        /* \"#utility.yul\":3298:3418   */\n    tag_173:\n        /* \"#utility.yul\":3457:3458   */\n      0x00\n        /* \"#utility.yul\":3482:3535   */\n      tag_175\n        /* \"#utility.yul\":3527:3534   */\n      dup10\n        /* \"#utility.yul\":3518:3524   */\n      dup3\n        /* \"#utility.yul\":3507:3516   */\n      dup11\n        /* \"#utility.yul\":3503:3525   */\n      add\n        /* \"#utility.yul\":3482:3535   */\n      tag_98\n      jump\t// in\n    tag_175:\n        /* \"#utility.yul\":3472:3535   */\n      swap7\n      pop\n        /* \"#utility.yul\":3428:3545   */\n      pop\n        /* \"#utility.yul\":3584:3586   */\n      0x20\n        /* \"#utility.yul\":3610:3663   */\n      tag_176\n        /* \"#utility.yul\":3655:3662   */\n      dup10\n        /* \"#utility.yul\":3646:3652   */\n      dup3\n        /* \"#utility.yul\":3635:3644   */\n      dup11\n        /* \"#utility.yul\":3631:3653   */\n      add\n        /* \"#utility.yul\":3610:3663   */\n      tag_101\n      jump\t// in\n    tag_176:\n        /* \"#utility.yul\":3600:3663   */\n      swap6\n      pop\n        /* \"#utility.yul\":3555:3673   */\n      pop\n        /* \"#utility.yul\":3712:3714   */\n      0x40\n        /* \"#utility.yul\":3738:3791   */\n      tag_177\n        /* \"#utility.yul\":3783:3790   */\n      dup10\n        /* \"#utility.yul\":3774:3780   */\n      dup3\n        /* \"#utility.yul\":3763:3772   */\n      dup11\n        /* \"#utility.yul\":3759:3781   */\n      add\n        /* \"#utility.yul\":3738:3791   */\n      tag_101\n      jump\t// in\n    tag_177:\n        /* \"#utility.yul\":3728:3791   */\n      swap5\n      pop\n        /* \"#utility.yul\":3683:3801   */\n      pop\n        /* \"#utility.yul\":3840:3842   */\n      0x60\n        /* \"#utility.yul\":3866:3919   */\n      tag_178\n        /* \"#utility.yul\":3911:3918   */\n      dup10\n        /* \"#utility.yul\":3902:3908   */\n      dup3\n        /* \"#utility.yul\":3891:3900   */\n      dup11\n        /* \"#utility.yul\":3887:3909   */\n      add\n        /* \"#utility.yul\":3866:3919   */\n      tag_98\n      jump\t// in\n    tag_178:\n        /* \"#utility.yul\":3856:3919   */\n      swap4\n      pop\n        /* \"#utility.yul\":3811:3929   */\n      pop\n        /* \"#utility.yul\":3996:3999   */\n      0x80\n        /* \"#utility.yul\":3985:3994   */\n      dup8\n        /* \"#utility.yul\":3981:4000   */\n      add\n        /* \"#utility.yul\":3968:4001   */\n      calldataload\n        /* \"#utility.yul\":4028:4046   */\n      0xffffffffffffffff\n        /* \"#utility.yul\":4020:4026   */\n      dup2\n        /* \"#utility.yul\":4017:4047   */\n      gt\n        /* \"#utility.yul\":4014:4131   */\n      iszero\n      tag_179\n      jumpi\n        /* \"#utility.yul\":4050:4129   */\n      tag_180\n      tag_95\n      jump\t// in\n    tag_180:\n        /* \"#utility.yul\":4014:4131   */\n    tag_179:\n        /* \"#utility.yul\":4163:4227   */\n      tag_181\n        /* \"#utility.yul\":4219:4226   */\n      dup10\n        /* \"#utility.yul\":4210:4216   */\n      dup3\n        /* \"#utility.yul\":4199:4208   */\n      dup11\n        /* \"#utility.yul\":4195:4217   */\n      add\n        /* \"#utility.yul\":4163:4227   */\n      tag_105\n      jump\t// in\n    tag_181:\n        /* \"#utility.yul\":4145:4227   */\n      swap3\n      pop\n      swap3\n      pop\n        /* \"#utility.yul\":3939:4237   */\n      pop\n        /* \"#utility.yul\":3135:4244   */\n      swap3\n      swap6\n      pop\n      swap3\n      swap6\n      pop\n      swap3\n      swap6\n      jump\t// out\n        /* \"#utility.yul\":4250:4340   */\n    tag_106:\n        /* \"#utility.yul\":4284:4291   */\n      0x00\n        /* \"#utility.yul\":4327:4332   */\n      dup2\n        /* \"#utility.yul\":4320:4333   */\n      iszero\n        /* \"#utility.yul\":4313:4334   */\n      iszero\n        /* \"#utility.yul\":4302:4334   */\n      swap1\n      pop\n        /* \"#utility.yul\":4250:4340   */\n      swap2\n      swap1\n      pop\n      jump\t// out\n        /* \"#utility.yul\":4346:4455   */\n    tag_107:\n        /* \"#utility.yul\":4427:4448   */\n      tag_184\n        /* \"#utility.yul\":4442:4447   */\n      dup2\n        /* \"#utility.yul\":4427:4448   */\n      tag_106\n      jump\t// in\n    tag_184:\n        /* \"#utility.yul\":4422:4425   */\n      dup3\n        /* \"#utility.yul\":4415:4449   */\n      mstore\n        /* \"#utility.yul\":4346:4455   */\n      pop\n      pop\n      jump\t// out\n        /* \"#utility.yul\":4461:4671   */\n    tag_22:\n        /* \"#utility.yul\":4548:4552   */\n      0x00\n        /* \"#utility.yul\":4586:4588   */\n      0x20\n        /* \"#utility.yul\":4575:4584   */\n      dup3\n        /* \"#utility.yul\":4571:4589   */\n      add\n        /* \"#utility.yul\":4563:4589   */\n      swap1\n      pop\n        /* \"#utility.yul\":4599:4664   */\n      tag_186\n        /* \"#utility.yul\":4661:4662   */\n      0x00\n        /* \"#utility.yul\":4650:4659   */\n      dup4\n        /* \"#utility.yul\":4646:4663   */\n      add\n        /* \"#utility.yul\":4637:4643   */\n      dup5\n        /* \"#utility.yul\":4599:4664   */\n      tag_107\n      jump\t// in\n    tag_186:\n        /* \"#utility.yul\":4461:4671   */\n      swap3\n      swap2\n      pop\n      pop\n      jump\t// out\n        /* \"#utility.yul\":4677:5006   */\n    tag_26:\n        /* \"#utility.yul\":4736:4742   */\n      0x00\n        /* \"#utility.yul\":4785:4787   */\n      0x20\n        /* \"#utility.yul\":4773:4782   */\n      dup3\n        /* \"#utility.yul\":4764:4771   */\n      dup5\n        /* \"#utility.yul\":4760:4783   */\n      sub\n        /* \"#utility.yul\":4756:4788   */\n      slt\n        /* \"#utility.yul\":4753:4872   */\n      iszero\n      tag_188\n      jumpi\n        /* \"#utility.yul\":4791:4870   */\n      tag_189\n      tag_94\n      jump\t// in\n    tag_189:\n        /* \"#utility.yul\":4753:4872   */\n    tag_188:\n        /* \"#utility.yul\":4911:4912   */\n      0x00\n        /* \"#utility.yul\":4936:4989   */\n      tag_190\n        /* \"#utility.yul\":4981:4988   */\n      dup5\n        /* \"#utility.yul\":4972:4978   */\n      dup3\n        /* \"#utility.yul\":4961:4970   */\n      dup6\n        /* \"#utility.yul\":4957:4979   */\n      add\n        /* \"#utility.yul\":4936:4989   */\n      tag_98\n      jump\t// in\n    tag_190:\n        /* \"#utility.yul\":4926:4989   */\n      swap2\n      pop\n        /* \"#utility.yul\":4882:4999   */\n      pop\n        /* \"#utility.yul\":4677:5006   */\n      swap3\n      swap2\n      pop\n      pop\n      jump\t// out\n        /* \"#utility.yul\":5012:5151   */\n    tag_108:\n        /* \"#utility.yul\":5075:5084   */\n      0x00\n        /* \"#utility.yul\":5108:5145   */\n      tag_192\n        /* \"#utility.yul\":5139:5144   */\n      dup3\n        /* \"#utility.yul\":5108:5145   */\n      tag_90\n      jump\t// in\n    tag_192:\n        /* \"#utility.yul\":5095:5145   */\n      swap1\n      pop\n        /* \"#utility.yul\":5012:5151   */\n      swap2\n      swap1\n      pop\n      jump\t// out\n        /* \"#utility.yul\":5157:5314   */\n    tag_109:\n        /* \"#utility.yul\":5257:5307   */\n      tag_194\n        /* \"#utility.yul\":5301:5306   */\n      dup2\n        /* \"#utility.yul\":5257:5307   */\n      tag_108\n      jump\t// in\n    tag_194:\n        /* \"#utility.yul\":5252:5255   */\n      dup3\n        /* \"#utility.yul\":5245:5308   */\n      mstore\n        /* \"#utility.yul\":5157:5314   */\n      pop\n      pop\n      jump\t// out\n        /* \"#utility.yul\":5320:5568   */\n    tag_32:\n        /* \"#utility.yul\":5426:5430   */\n      0x00\n        /* \"#utility.yul\":5464:5466   */\n      0x20\n        /* \"#utility.yul\":5453:5462   */\n      dup3\n        /* \"#utility.yul\":5449:5467   */\n      add\n        /* \"#utility.yul\":5441:5467   */\n      swap1\n      pop\n        /* \"#utility.yul\":5477:5561   */\n      tag_196\n        /* \"#utility.yul\":5558:5559   */\n      0x00\n        /* \"#utility.yul\":5547:5556   */\n      dup4\n        /* \"#utility.yul\":5543:5560   */\n      add\n        /* \"#utility.yul\":5534:5540   */\n      dup5\n        /* \"#utility.yul\":5477:5561   */\n      tag_109\n      jump\t// in\n    tag_196:\n        /* \"#utility.yul\":5320:5568   */\n      swap3\n      swap2\n      pop\n      pop\n      jump\t// out\n        /* \"#utility.yul\":5574:6048   */\n    tag_36:\n        /* \"#utility.yul\":5642:5648   */\n      0x00\n        /* \"#utility.yul\":5650:5656   */\n      dup1\n        /* \"#utility.yul\":5699:5701   */\n      0x40\n        /* \"#utility.yul\":5687:5696   */\n      dup4\n        /* \"#utility.yul\":5678:5685   */\n      dup6\n        /* \"#utility.yul\":5674:5697   */\n      sub\n        /* \"#utility.yul\":5670:5702   */\n      slt\n        /* \"#utility.yul\":5667:5786   */\n      iszero\n      tag_198\n      jumpi\n        /* \"#utility.yul\":5705:5784   */\n      tag_199\n      tag_94\n      jump\t// in\n    tag_199:\n        /* \"#utility.yul\":5667:5786   */\n    tag_198:\n        /* \"#utility.yul\":5825:5826   */\n      0x00\n        /* \"#utility.yul\":5850:5903   */\n      tag_200\n        /* \"#utility.yul\":5895:5902   */\n      dup6\n        /* \"#utility.yul\":5886:5892   */\n      dup3\n        /* \"#utility.yul\":5875:5884   */\n      dup7\n        /* \"#utility.yul\":5871:5893   */\n      add\n        /* \"#utility.yul\":5850:5903   */\n      tag_98\n      jump\t// in\n    tag_200:\n        /* \"#utility.yul\":5840:5903   */\n      swap3\n      pop\n        /* \"#utility.yul\":5796:5913   */\n      pop\n        /* \"#utility.yul\":5952:5954   */\n      0x20\n        /* \"#utility.yul\":5978:6031   */\n      tag_201\n        /* \"#utility.yul\":6023:6030   */\n      dup6\n        /* \"#utility.yul\":6014:6020   */\n      dup3\n        /* \"#utility.yul\":6003:6012   */\n      dup7\n        /* \"#utility.yul\":5999:6021   */\n      add\n        /* \"#utility.yul\":5978:6031   */\n      tag_101\n      jump\t// in\n    tag_201:\n        /* \"#utility.yul\":5968:6031   */\n      swap2\n      pop\n        /* \"#utility.yul\":5923:6041   */\n      pop\n        /* \"#utility.yul\":5574:6048   */\n      swap3\n      pop\n      swap3\n      swap1\n      pop\n      jump\t// out\n        /* \"#utility.yul\":6054:6172   */\n    tag_110:\n        /* \"#utility.yul\":6141:6165   */\n      tag_203\n        /* \"#utility.yul\":6159:6164   */\n      dup2\n        /* \"#utility.yul\":6141:6165   */\n      tag_96\n      jump\t// in\n    tag_203:\n        /* \"#utility.yul\":6136:6139   */\n      dup3\n        /* \"#utility.yul\":6129:6166   */\n      mstore\n        /* \"#utility.yul\":6054:6172   */\n      pop\n      pop\n      jump\t// out\n        /* \"#utility.yul\":6178:6400   */\n    tag_42:\n        /* \"#utility.yul\":6271:6275   */\n      0x00\n        /* \"#utility.yul\":6309:6311   */\n      0x20\n        /* \"#utility.yul\":6298:6307   */\n      dup3\n        /* \"#utility.yul\":6294:6312   */\n      add\n        /* \"#utility.yul\":6286:6312   */\n      swap1\n      pop\n        /* \"#utility.yul\":6322:6393   */\n      tag_205\n        /* \"#utility.yul\":6390:6391   */\n      0x00\n        /* \"#utility.yul\":6379:6388   */\n      dup4\n        /* \"#utility.yul\":6375:6392   */\n      add\n        /* \"#utility.yul\":6366:6372   */\n      dup5\n        /* \"#utility.yul\":6322:6393   */\n      tag_110\n      jump\t// in\n    tag_205:\n        /* \"#utility.yul\":6178:6400   */\n      swap3\n      swap2\n      pop\n      pop\n      jump\t// out\n        /* \"#utility.yul\":6406:6586   */\n    tag_111:\n        /* \"#utility.yul\":6454:6531   */\n      0x4e487b7100000000000000000000000000000000000000000000000000000000\n        /* \"#utility.yul\":6451:6452   */\n      0x00\n        /* \"#utility.yul\":6444:6532   */\n      mstore\n        /* \"#utility.yul\":6551:6555   */\n      0x11\n        /* \"#utility.yul\":6548:6549   */\n      0x04\n        /* \"#utility.yul\":6541:6556   */\n      mstore\n        /* \"#utility.yul\":6575:6579   */\n      0x24\n        /* \"#utility.yul\":6572:6573   */\n      0x00\n        /* \"#utility.yul\":6565:6580   */\n      revert\n        /* \"#utility.yul\":6592:6897   */\n    tag_45:\n        /* \"#utility.yul\":6632:6635   */\n      0x00\n        /* \"#utility.yul\":6651:6671   */\n      tag_208\n        /* \"#utility.yul\":6669:6670   */\n      dup3\n        /* \"#utility.yul\":6651:6671   */\n      tag_99\n      jump\t// in\n    tag_208:\n        /* \"#utility.yul\":6646:6671   */\n      swap2\n      pop\n        /* \"#utility.yul\":6685:6705   */\n      tag_209\n        /* \"#utility.yul\":6703:6704   */\n      dup4\n        /* \"#utility.yul\":6685:6705   */\n      tag_99\n      jump\t// in\n    tag_209:\n        /* \"#utility.yul\":6680:6705   */\n      swap3\n      pop\n        /* \"#utility.yul\":6839:6840   */\n      dup3\n        /* \"#utility.yul\":6771:6837   */\n      0xffffffffffffffffffffffffffffffffffffffffffffffffffffffffffffffff\n        /* \"#utility.yul\":6767:6841   */\n      sub\n        /* \"#utility.yul\":6764:6765   */\n      dup3\n        /* \"#utility.yul\":6761:6842   */\n      gt\n        /* \"#utility.yul\":6758:6865   */\n      iszero\n      tag_210\n      jumpi\n        /* \"#utility.yul\":6845:6863   */\n      tag_211\n      tag_111\n      jump\t// in\n    tag_211:\n        /* \"#utility.yul\":6758:6865   */\n    tag_210:\n        /* \"#utility.yul\":6889:6890   */\n      dup3\n        /* \"#utility.yul\":6886:6887   */\n      dup3\n        /* \"#utility.yul\":6882:6891   */\n      add\n        /* \"#utility.yul\":6875:6891   */\n      swap1\n      pop\n        /* \"#utility.yul\":6592:6897   */\n      swap3\n      swap2\n      pop\n      pop\n      jump\t// out\n        /* \"#utility.yul\":6903:7021   */\n    tag_112:\n        /* \"#utility.yul\":6990:7014   */\n      tag_213\n        /* \"#utility.yul\":7008:7013   */\n      dup2\n        /* \"#utility.yul\":6990:7014   */\n      tag_99\n      jump\t// in\n    tag_213:\n        /* \"#utility.yul\":6985:6988   */\n      dup3\n        /* \"#utility.yul\":6978:7015   */\n      mstore\n        /* \"#utility.yul\":6903:7021   */\n      pop\n      pop\n      jump\t// out\n        /* \"#utility.yul\":7027:7359   */\n    tag_47:\n        /* \"#utility.yul\":7148:7152   */\n      0x00\n        /* \"#utility.yul\":7186:7188   */\n      0x40\n        /* \"#utility.yul\":7175:7184   */\n      dup3\n        /* \"#utility.yul\":7171:7189   */\n      add\n        /* \"#utility.yul\":7163:7189   */\n      swap1\n      pop\n        /* \"#utility.yul\":7199:7270   */\n      tag_215\n        /* \"#utility.yul\":7267:7268   */\n      0x00\n        /* \"#utility.yul\":7256:7265   */\n      dup4\n        /* \"#utility.yul\":7252:7269   */\n      add\n        /* \"#utility.yul\":7243:7249   */\n      dup6\n        /* \"#utility.yul\":7199:7270   */\n      tag_110\n      jump\t// in\n    tag_215:\n        /* \"#utility.yul\":7280:7352   */\n      tag_216\n        /* \"#utility.yul\":7348:7350   */\n      0x20\n        /* \"#utility.yul\":7337:7346   */\n      dup4\n        /* \"#utility.yul\":7333:7351   */\n      add\n        /* \"#utility.yul\":7324:7330   */\n      dup5\n        /* \"#utility.yul\":7280:7352   */\n      tag_112\n      jump\t// in\n    tag_216:\n        /* \"#utility.yul\":7027:7359   */\n      swap4\n      swap3\n      pop\n      pop\n      pop\n      jump\t// out\n        /* \"#utility.yul\":7365:7481   */\n    tag_113:\n        /* \"#utility.yul\":7435:7456   */\n      tag_218\n        /* \"#utility.yul\":7450:7455   */\n      dup2\n        /* \"#utility.yul\":7435:7456   */\n      tag_106\n      jump\t// in\n    tag_218:\n        /* \"#utility.yul\":7428:7433   */\n      dup2\n        /* \"#utility.yul\":7425:7457   */\n      eq\n        /* \"#utility.yul\":7415:7475   */\n      tag_219\n      jumpi\n        /* \"#utility.yul\":7471:7472   */\n      0x00\n        /* \"#utility.yul\":7468:7469   */\n      dup1\n        /* \"#utility.yul\":7461:7473   */\n      revert\n        /* \"#utility.yul\":7415:7475   */\n    tag_219:\n        /* \"#utility.yul\":7365:7481   */\n      pop\n      jump\t// out\n        /* \"#utility.yul\":7487:7624   */\n    tag_114:\n        /* \"#utility.yul\":7541:7546   */\n      0x00\n        /* \"#utility.yul\":7572:7578   */\n      dup2\n        /* \"#utility.yul\":7566:7579   */\n      mload\n        /* \"#utility.yul\":7557:7579   */\n      swap1\n      pop\n        /* \"#utility.yul\":7588:7618   */\n      tag_221\n        /* \"#utility.yul\":7612:7617   */\n      dup2\n        /* \"#utility.yul\":7588:7618   */\n      tag_113\n      jump\t// in\n    tag_221:\n        /* \"#utility.yul\":7487:7624   */\n      swap3\n      swap2\n      pop\n      pop\n      jump\t// out\n        /* \"#utility.yul\":7630:7975   */\n    tag_51:\n        /* \"#utility.yul\":7697:7703   */\n      0x00\n        /* \"#utility.yul\":7746:7748   */\n      0x20\n        /* \"#utility.yul\":7734:7743   */\n      dup3\n        /* \"#utility.yul\":7725:7732   */\n      dup5\n        /* \"#utility.yul\":7721:7744   */\n      sub\n        /* \"#utility.yul\":7717:7749   */\n      slt\n        /* \"#utility.yul\":7714:7833   */\n      iszero\n      tag_223\n      jumpi\n        /* \"#utility.yul\":7752:7831   */\n      tag_224\n      tag_94\n      jump\t// in\n    tag_224:\n        /* \"#utility.yul\":7714:7833   */\n    tag_223:\n        /* \"#utility.yul\":7872:7873   */\n      0x00\n        /* \"#utility.yul\":7897:7958   */\n      tag_225\n        /* \"#utility.yul\":7950:7957   */\n      dup5\n        /* \"#utility.yul\":7941:7947   */\n      dup3\n        /* \"#utility.yul\":7930:7939   */\n      dup6\n        /* \"#utility.yul\":7926:7948   */\n      add\n        /* \"#utility.yul\":7897:7958   */\n      tag_114\n      jump\t// in\n    tag_225:\n        /* \"#utility.yul\":7887:7958   */\n      swap2\n      pop\n        /* \"#utility.yul\":7843:7968   */\n      pop\n        /* \"#utility.yul\":7630:7975   */\n      swap3\n      swap2\n      pop\n      pop\n      jump\t// out\n        /* \"#utility.yul\":7981:8150   */\n    tag_115:\n        /* \"#utility.yul\":8065:8076   */\n      0x00\n        /* \"#utility.yul\":8099:8105   */\n      dup3\n        /* \"#utility.yul\":8094:8097   */\n      dup3\n        /* \"#utility.yul\":8087:8106   */\n      mstore\n        /* \"#utility.yul\":8139:8143   */\n      0x20\n        /* \"#utility.yul\":8134:8137   */\n      dup3\n        /* \"#utility.yul\":8130:8144   */\n      add\n        /* \"#utility.yul\":8115:8144   */\n      swap1\n      pop\n        /* \"#utility.yul\":7981:8150   */\n      swap3\n      swap2\n      pop\n      pop\n      jump\t// out\n        /* \"#utility.yul\":8156:8323   */\n    tag_116:\n        /* \"#utility.yul\":8296:8315   */\n      0x6f6e6c79206f776e657220616363657373000000000000000000000000000000\n        /* \"#utility.yul\":8292:8293   */\n      0x00\n        /* \"#utility.yul\":8284:8290   */\n      dup3\n        /* \"#utility.yul\":8280:8294   */\n      add\n        /* \"#utility.yul\":8273:8316   */\n      mstore\n        /* \"#utility.yul\":8156:8323   */\n      pop\n      jump\t// out\n        /* \"#utility.yul\":8329:8695   */\n    tag_117:\n        /* \"#utility.yul\":8471:8474   */\n      0x00\n        /* \"#utility.yul\":8492:8559   */\n      tag_229\n        /* \"#utility.yul\":8556:8558   */\n      0x11\n        /* \"#utility.yul\":8551:8554   */\n      dup4\n        /* \"#utility.yul\":8492:8559   */\n      tag_115\n      jump\t// in\n    tag_229:\n        /* \"#utility.yul\":8485:8559   */\n      swap2\n      pop\n        /* \"#utility.yul\":8568:8661   */\n      tag_230\n        /* \"#utility.yul\":8657:8660   */\n      dup3\n        /* \"#utility.yul\":8568:8661   */\n      tag_116\n      jump\t// in\n    tag_230:\n        /* \"#utility.yul\":8686:8688   */\n      0x20\n        /* \"#utility.yul\":8681:8684   */\n      dup3\n        /* \"#utility.yul\":8677:8689   */\n      add\n        /* \"#utility.yul\":8670:8689   */\n      swap1\n      pop\n        /* \"#utility.yul\":8329:8695   */\n      swap2\n      swap1\n      pop\n      jump\t// out\n        /* \"#utility.yul\":8701:9120   */\n    tag_55:\n        /* \"#utility.yul\":8867:8871   */\n      0x00\n        /* \"#utility.yul\":8905:8907   */\n      0x20\n        /* \"#utility.yul\":8894:8903   */\n      dup3\n        /* \"#utility.yul\":8890:8908   */\n      add\n        /* \"#utility.yul\":8882:8908   */\n      swap1\n      pop\n        /* \"#utility.yul\":8954:8963   */\n      dup2\n        /* \"#utility.yul\":8948:8952   */\n      dup2\n        /* \"#utility.yul\":8944:8964   */\n      sub\n        /* \"#utility.yul\":8940:8941   */\n      0x00\n        /* \"#utility.yul\":8929:8938   */\n      dup4\n        /* \"#utility.yul\":8925:8942   */\n      add\n        /* \"#utility.yul\":8918:8965   */\n      mstore\n        /* \"#utility.yul\":8982:9113   */\n      tag_232\n        /* \"#utility.yul\":9108:9112   */\n      dup2\n        /* \"#utility.yul\":8982:9113   */\n      tag_117\n      jump\t// in\n    tag_232:\n        /* \"#utility.yul\":8974:9113   */\n      swap1\n      pop\n        /* \"#utility.yul\":8701:9120   */\n      swap2\n      swap1\n      pop\n      jump\t// out\n        /* \"#utility.yul\":9126:9273   */\n    tag_118:\n        /* \"#utility.yul\":9227:9238   */\n      0x00\n        /* \"#utility.yul\":9264:9267   */\n      dup2\n        /* \"#utility.yul\":9249:9267   */\n      swap1\n      pop\n        /* \"#utility.yul\":9126:9273   */\n      swap3\n      swap2\n      pop\n      pop\n      jump\t// out\n        /* \"#utility.yul\":9279:9393   */\n    tag_119:\n      pop\n      jump\t// out\n        /* \"#utility.yul\":9399:9797   */\n    tag_120:\n        /* \"#utility.yul\":9558:9561   */\n      0x00\n        /* \"#utility.yul\":9579:9662   */\n      tag_236\n        /* \"#utility.yul\":9660:9661   */\n      0x00\n        /* \"#utility.yul\":9655:9658   */\n      dup4\n        /* \"#utility.yul\":9579:9662   */\n      tag_118\n      jump\t// in\n    tag_236:\n        /* \"#utility.yul\":9572:9662   */\n      swap2\n      pop\n        /* \"#utility.yul\":9671:9764   */\n      tag_237\n        /* \"#utility.yul\":9760:9763   */\n      dup3\n        /* \"#utility.yul\":9671:9764   */\n      tag_119\n      jump\t// in\n    tag_237:\n        /* \"#utility.yul\":9789:9790   */\n      0x00\n        /* \"#utility.yul\":9784:9787   */\n      dup3\n        /* \"#utility.yul\":9780:9791   */\n      add\n        /* \"#utility.yul\":9773:9791   */\n      swap1\n      pop\n        /* \"#utility.yul\":9399:9797   */\n      swap2\n      swap1\n      pop\n      jump\t// out\n        /* \"#utility.yul\":9803:10182   */\n    tag_59:\n        /* \"#utility.yul\":9987:9990   */\n      0x00\n        /* \"#utility.yul\":10009:10156   */\n      tag_239\n        /* \"#utility.yul\":10152:10155   */\n      dup3\n        /* \"#utility.yul\":10009:10156   */\n      tag_120\n      jump\t// in\n    tag_239:\n        /* \"#utility.yul\":10002:10156   */\n      swap2\n      pop\n        /* \"#utility.yul\":10173:10176   */\n      dup2\n        /* \"#utility.yul\":10166:10176   */\n      swap1\n      pop\n        /* \"#utility.yul\":9803:10182   */\n      swap2\n      swap1\n      pop\n      jump\t// out\n        /* \"#utility.yul\":10188:10354   */\n    tag_121:\n        /* \"#utility.yul\":10328:10346   */\n      0x5472616e73666572206661696c65642100000000000000000000000000000000\n        /* \"#utility.yul\":10324:10325   */\n      0x00\n        /* \"#utility.yul\":10316:10322   */\n      dup3\n        /* \"#utility.yul\":10312:10326   */\n      add\n        /* \"#utility.yul\":10305:10347   */\n      mstore\n        /* \"#utility.yul\":10188:10354   */\n      pop\n      jump\t// out\n        /* \"#utility.yul\":10360:10726   */\n    tag_122:\n        /* \"#utility.yul\":10502:10505   */\n      0x00\n        /* \"#utility.yul\":10523:10590   */\n      tag_242\n        /* \"#utility.yul\":10587:10589   */\n      0x10\n        /* \"#utility.yul\":10582:10585   */\n      dup4\n        /* \"#utility.yul\":10523:10590   */\n      tag_115\n      jump\t// in\n    tag_242:\n        /* \"#utility.yul\":10516:10590   */\n      swap2\n      pop\n        /* \"#utility.yul\":10599:10692   */\n      tag_243\n        /* \"#utility.yul\":10688:10691   */\n      dup3\n        /* \"#utility.yul\":10599:10692   */\n      tag_121\n      jump\t// in\n    tag_243:\n        /* \"#utility.yul\":10717:10719   */\n      0x20\n        /* \"#utility.yul\":10712:10715   */\n      dup3\n        /* \"#utility.yul\":10708:10720   */\n      add\n        /* \"#utility.yul\":10701:10720   */\n      swap1\n      pop\n        /* \"#utility.yul\":10360:10726   */\n      swap2\n      swap1\n      pop\n      jump\t// out\n        /* \"#utility.yul\":10732:11151   */\n    tag_65:\n        /* \"#utility.yul\":10898:10902   */\n      0x00\n        /* \"#utility.yul\":10936:10938   */\n      0x20\n        /* \"#utility.yul\":10925:10934   */\n      dup3\n        /* \"#utility.yul\":10921:10939   */\n      add\n        /* \"#utility.yul\":10913:10939   */\n      swap1\n      pop\n        /* \"#utility.yul\":10985:10994   */\n      dup2\n        /* \"#utility.yul\":10979:10983   */\n      dup2\n        /* \"#utility.yul\":10975:10995   */\n      sub\n        /* \"#utility.yul\":10971:10972   */\n      0x00\n        /* \"#utility.yul\":10960:10969   */\n      dup4\n        /* \"#utility.yul\":10956:10973   */\n      add\n        /* \"#utility.yul\":10949:10996   */\n      mstore\n        /* \"#utility.yul\":11013:11144   */\n      tag_245\n        /* \"#utility.yul\":11139:11143   */\n      dup2\n        /* \"#utility.yul\":11013:11144   */\n      tag_122\n      jump\t// in\n    tag_245:\n        /* \"#utility.yul\":11005:11144   */\n      swap1\n      pop\n        /* \"#utility.yul\":10732:11151   */\n      swap2\n      swap1\n      pop\n      jump\t// out\n        /* \"#utility.yul\":11157:11300   */\n    tag_123:\n        /* \"#utility.yul\":11214:11219   */\n      0x00\n        /* \"#utility.yul\":11245:11251   */\n      dup2\n        /* \"#utility.yul\":11239:11252   */\n      mload\n        /* \"#utility.yul\":11230:11252   */\n      swap1\n      pop\n        /* \"#utility.yul\":11261:11294   */\n      tag_247\n        /* \"#utility.yul\":11288:11293   */\n      dup2\n        /* \"#utility.yul\":11261:11294   */\n      tag_100\n      jump\t// in\n    tag_247:\n        /* \"#utility.yul\":11157:11300   */\n      swap3\n      swap2\n      pop\n      pop\n      jump\t// out\n        /* \"#utility.yul\":11306:11657   */\n    tag_71:\n        /* \"#utility.yul\":11376:11382   */\n      0x00\n        /* \"#utility.yul\":11425:11427   */\n      0x20\n        /* \"#utility.yul\":11413:11422   */\n      dup3\n        /* \"#utility.yul\":11404:11411   */\n      dup5\n        /* \"#utility.yul\":11400:11423   */\n      sub\n        /* \"#utility.yul\":11396:11428   */\n      slt\n        /* \"#utility.yul\":11393:11512   */\n      iszero\n      tag_249\n      jumpi\n        /* \"#utility.yul\":11431:11510   */\n      tag_250\n      tag_94\n      jump\t// in\n    tag_250:\n        /* \"#utility.yul\":11393:11512   */\n    tag_249:\n        /* \"#utility.yul\":11551:11552   */\n      0x00\n        /* \"#utility.yul\":11576:11640   */\n      tag_251\n        /* \"#utility.yul\":11632:11639   */\n      dup5\n        /* \"#utility.yul\":11623:11629   */\n      dup3\n        /* \"#utility.yul\":11612:11621   */\n      dup6\n        /* \"#utility.yul\":11608:11630   */\n      add\n        /* \"#utility.yul\":11576:11640   */\n      tag_123\n      jump\t// in\n    tag_251:\n        /* \"#utility.yul\":11566:11640   */\n      swap2\n      pop\n        /* \"#utility.yul\":11522:11650   */\n      pop\n        /* \"#utility.yul\":11306:11657   */\n      swap3\n      swap2\n      pop\n      pop\n      jump\t// out\n        /* \"#utility.yul\":11663:11885   */\n    tag_77:\n        /* \"#utility.yul\":11756:11760   */\n      0x00\n        /* \"#utility.yul\":11794:11796   */\n      0x20\n        /* \"#utility.yul\":11783:11792   */\n      dup3\n        /* \"#utility.yul\":11779:11797   */\n      add\n        /* \"#utility.yul\":11771:11797   */\n      swap1\n      pop\n        /* \"#utility.yul\":11807:11878   */\n      tag_253\n        /* \"#utility.yul\":11875:11876   */\n      0x00\n        /* \"#utility.yul\":11864:11873   */\n      dup4\n        /* \"#utility.yul\":11860:11877   */\n      add\n        /* \"#utility.yul\":11851:11857   */\n      dup5\n        /* \"#utility.yul\":11807:11878   */\n      tag_112\n      jump\t// in\n    tag_253:\n        /* \"#utility.yul\":11663:11885   */\n      swap3\n      swap2\n      pop\n      pop\n      jump\t// out\n        /* \"#utility.yul\":11891:11989   */\n    tag_124:\n        /* \"#utility.yul\":11942:11948   */\n      0x00\n        /* \"#utility.yul\":11976:11981   */\n      dup2\n        /* \"#utility.yul\":11970:11982   */\n      mload\n        /* \"#utility.yul\":11960:11982   */\n      swap1\n      pop\n        /* \"#utility.yul\":11891:11989   */\n      swap2\n      swap1\n      pop\n      jump\t// out\n        /* \"#utility.yul\":11995:12163   */\n    tag_125:\n        /* \"#utility.yul\":12078:12089   */\n      0x00\n        /* \"#utility.yul\":12112:12118   */\n      dup3\n        /* \"#utility.yul\":12107:12110   */\n      dup3\n        /* \"#utility.yul\":12100:12119   */\n      mstore\n        /* \"#utility.yul\":12152:12156   */\n      0x20\n        /* \"#utility.yul\":12147:12150   */\n      dup3\n        /* \"#utility.yul\":12143:12157   */\n      add\n        /* \"#utility.yul\":12128:12157   */\n      swap1\n      pop\n        /* \"#utility.yul\":11995:12163   */\n      swap3\n      swap2\n      pop\n      pop\n      jump\t// out\n        /* \"#utility.yul\":12169:12476   */\n    tag_126:\n        /* \"#utility.yul\":12237:12238   */\n      0x00\n        /* \"#utility.yul\":12247:12360   */\n    tag_257:\n        /* \"#utility.yul\":12261:12267   */\n      dup4\n        /* \"#utility.yul\":12258:12259   */\n      dup2\n        /* \"#utility.yul\":12255:12268   */\n      lt\n        /* \"#utility.yul\":12247:12360   */\n      iszero\n      tag_259\n      jumpi\n        /* \"#utility.yul\":12346:12347   */\n      dup1\n        /* \"#utility.yul\":12341:12344   */\n      dup3\n        /* \"#utility.yul\":12337:12348   */\n      add\n        /* \"#utility.yul\":12331:12349   */\n      mload\n        /* \"#utility.yul\":12327:12328   */\n      dup2\n        /* \"#utility.yul\":12322:12325   */\n      dup5\n        /* \"#utility.yul\":12318:12329   */\n      add\n        /* \"#utility.yul\":12311:12350   */\n      mstore\n        /* \"#utility.yul\":12283:12285   */\n      0x20\n        /* \"#utility.yul\":12280:12281   */\n      dup2\n        /* \"#utility.yul\":12276:12286   */\n      add\n        /* \"#utility.yul\":12271:12286   */\n      swap1\n      pop\n        /* \"#utility.yul\":12247:12360   */\n      jump(tag_257)\n    tag_259:\n        /* \"#utility.yul\":12378:12384   */\n      dup4\n        /* \"#utility.yul\":12375:12376   */\n      dup2\n        /* \"#utility.yul\":12372:12385   */\n      gt\n        /* \"#utility.yul\":12369:12470   */\n      iszero\n      tag_260\n      jumpi\n        /* \"#utility.yul\":12458:12459   */\n      0x00\n        /* \"#utility.yul\":12449:12455   */\n      dup5\n        /* \"#utility.yul\":12444:12447   */\n      dup5\n        /* \"#utility.yul\":12440:12456   */\n      add\n        /* \"#utility.yul\":12433:12460   */\n      mstore\n        /* \"#utility.yul\":12369:12470   */\n    tag_260:\n        /* \"#utility.yul\":12218:12476   */\n      pop\n        /* \"#utility.yul\":12169:12476   */\n      pop\n      pop\n      pop\n      jump\t// out\n        /* \"#utility.yul\":12482:12584   */\n    tag_127:\n        /* \"#utility.yul\":12523:12529   */\n      0x00\n        /* \"#utility.yul\":12574:12576   */\n      0x1f\n        /* \"#utility.yul\":12570:12577   */\n      not\n        /* \"#utility.yul\":12565:12567   */\n      0x1f\n        /* \"#utility.yul\":12558:12563   */\n      dup4\n        /* \"#utility.yul\":12554:12568   */\n      add\n        /* \"#utility.yul\":12550:12578   */\n      and\n        /* \"#utility.yul\":12540:12578   */\n      swap1\n      pop\n        /* \"#utility.yul\":12482:12584   */\n      swap2\n      swap1\n      pop\n      jump\t// out\n        /* \"#utility.yul\":12590:12950   */\n    tag_128:\n        /* \"#utility.yul\":12676:12679   */\n      0x00\n        /* \"#utility.yul\":12704:12742   */\n      tag_263\n        /* \"#utility.yul\":12736:12741   */\n      dup3\n        /* \"#utility.yul\":12704:12742   */\n      tag_124\n      jump\t// in\n    tag_263:\n        /* \"#utility.yul\":12758:12828   */\n      tag_264\n        /* \"#utility.yul\":12821:12827   */\n      dup2\n        /* \"#utility.yul\":12816:12819   */\n      dup6\n        /* \"#utility.yul\":12758:12828   */\n      tag_125\n      jump\t// in\n    tag_264:\n        /* \"#utility.yul\":12751:12828   */\n      swap4\n      pop\n        /* \"#utility.yul\":12837:12889   */\n      tag_265\n        /* \"#utility.yul\":12882:12888   */\n      dup2\n        /* \"#utility.yul\":12877:12880   */\n      dup6\n        /* \"#utility.yul\":12870:12874   */\n      0x20\n        /* \"#utility.yul\":12863:12868   */\n      dup7\n        /* \"#utility.yul\":12859:12875   */\n      add\n        /* \"#utility.yul\":12837:12889   */\n      tag_126\n      jump\t// in\n    tag_265:\n        /* \"#utility.yul\":12914:12943   */\n      tag_266\n        /* \"#utility.yul\":12936:12942   */\n      dup2\n        /* \"#utility.yul\":12914:12943   */\n      tag_127\n      jump\t// in\n    tag_266:\n        /* \"#utility.yul\":12909:12912   */\n      dup5\n        /* \"#utility.yul\":12905:12944   */\n      add\n        /* \"#utility.yul\":12898:12944   */\n      swap2\n      pop\n        /* \"#utility.yul\":12680:12950   */\n      pop\n        /* \"#utility.yul\":12590:12950   */\n      swap3\n      swap2\n      pop\n      pop\n      jump\t// out\n        /* \"#utility.yul\":12956:13045   */\n    tag_129:\n        /* \"#utility.yul\":12992:12999   */\n      0x00\n        /* \"#utility.yul\":13032:13038   */\n      0xffff\n        /* \"#utility.yul\":13025:13030   */\n      dup3\n        /* \"#utility.yul\":13021:13039   */\n      and\n        /* \"#utility.yul\":13010:13039   */\n      swap1\n      pop\n        /* \"#utility.yul\":12956:13045   */\n      swap2\n      swap1\n      pop\n      jump\t// out\n        /* \"#utility.yul\":13051:13166   */\n    tag_130:\n        /* \"#utility.yul\":13136:13159   */\n      tag_269\n        /* \"#utility.yul\":13153:13158   */\n      dup2\n        /* \"#utility.yul\":13136:13159   */\n      tag_129\n      jump\t// in\n    tag_269:\n        /* \"#utility.yul\":13131:13134   */\n      dup3\n        /* \"#utility.yul\":13124:13160   */\n      mstore\n        /* \"#utility.yul\":13051:13166   */\n      pop\n      pop\n      jump\t// out\n        /* \"#utility.yul\":13172:13919   */\n    tag_83:\n        /* \"#utility.yul\":13393:13397   */\n      0x00\n        /* \"#utility.yul\":13431:13434   */\n      0xa0\n        /* \"#utility.yul\":13420:13429   */\n      dup3\n        /* \"#utility.yul\":13416:13435   */\n      add\n        /* \"#utility.yul\":13408:13435   */\n      swap1\n      pop\n        /* \"#utility.yul\":13445:13516   */\n      tag_271\n        /* \"#utility.yul\":13513:13514   */\n      0x00\n        /* \"#utility.yul\":13502:13511   */\n      dup4\n        /* \"#utility.yul\":13498:13515   */\n      add\n        /* \"#utility.yul\":13489:13495   */\n      dup9\n        /* \"#utility.yul\":13445:13516   */\n      tag_110\n      jump\t// in\n    tag_271:\n        /* \"#utility.yul\":13526:13598   */\n      tag_272\n        /* \"#utility.yul\":13594:13596   */\n      0x20\n        /* \"#utility.yul\":13583:13592   */\n      dup4\n        /* \"#utility.yul\":13579:13597   */\n      add\n        /* \"#utility.yul\":13570:13576   */\n      dup8\n        /* \"#utility.yul\":13526:13598   */\n      tag_110\n      jump\t// in\n    tag_272:\n        /* \"#utility.yul\":13608:13680   */\n      tag_273\n        /* \"#utility.yul\":13676:13678   */\n      0x40\n        /* \"#utility.yul\":13665:13674   */\n      dup4\n        /* \"#utility.yul\":13661:13679   */\n      add\n        /* \"#utility.yul\":13652:13658   */\n      dup7\n        /* \"#utility.yul\":13608:13680   */\n      tag_112\n      jump\t// in\n    tag_273:\n        /* \"#utility.yul\":13727:13736   */\n      dup2\n        /* \"#utility.yul\":13721:13725   */\n      dup2\n        /* \"#utility.yul\":13717:13737   */\n      sub\n        /* \"#utility.yul\":13712:13714   */\n      0x60\n        /* \"#utility.yul\":13701:13710   */\n      dup4\n        /* \"#utility.yul\":13697:13715   */\n      add\n        /* \"#utility.yul\":13690:13738   */\n      mstore\n        /* \"#utility.yul\":13755:13831   */\n      tag_274\n        /* \"#utility.yul\":13826:13830   */\n      dup2\n        /* \"#utility.yul\":13817:13823   */\n      dup6\n        /* \"#utility.yul\":13755:13831   */\n      tag_128\n      jump\t// in\n    tag_274:\n        /* \"#utility.yul\":13747:13831   */\n      swap1\n      pop\n        /* \"#utility.yul\":13841:13912   */\n      tag_275\n        /* \"#utility.yul\":13907:13910   */\n      0x80\n        /* \"#utility.yul\":13896:13905   */\n      dup4\n        /* \"#utility.yul\":13892:13911   */\n      add\n        /* \"#utility.yul\":13883:13889   */\n      dup5\n        /* \"#utility.yul\":13841:13912   */\n      tag_130\n      jump\t// in\n    tag_275:\n        /* \"#utility.yul\":13172:13919   */\n      swap7\n      swap6\n      pop\n      pop\n      pop\n      pop\n      pop\n      pop\n      jump\t// out\n\n    auxdata: 0xa264697066735822122010990dab7ca51027a0548efe94441a7c59dcc1be8c86a42484191678d59bfcc964736f6c634300080a0033\n}\n",
				"bytecode": {
					"linkReferences": {},
					"object": "60c06040523480156200001157600080fd5b5060405162000ffb38038062000ffb8339818101604052810190620000379190620001c3565b808073ffffffffffffffffffffffffffffffffffffffff1660808173ffffffffffffffffffffffffffffffffffffffff16815250508073ffffffffffffffffffffffffffffffffffffffff1663026b1d5f6040518163ffffffff1660e01b8152600401602060405180830381865afa158015620000b8573d6000803e3d6000fd5b505050506040513d601f19601f82011682018060405250810190620000de9190620001c3565b73ffffffffffffffffffffffffffffffffffffffff1660a08173ffffffffffffffffffffffffffffffffffffffff168152505050336000806101000a81548173ffffffffffffffffffffffffffffffffffffffff021916908373ffffffffffffffffffffffffffffffffffffffff16021790555050620001f5565b600080fd5b600073ffffffffffffffffffffffffffffffffffffffff82169050919050565b60006200018b826200015e565b9050919050565b6200019d816200017e565b8114620001a957600080fd5b50565b600081519050620001bd8162000192565b92915050565b600060208284031215620001dc57620001db62000159565b5b6000620001ec84828501620001ac565b91505092915050565b60805160a051610dd262000229600039600081816101c801528181610535015261060c015260006101770152610dd26000f3fe6080604052600436106100595760003560e01c80630542975c146100655780631b11d0ff1461009057806351cff8d9146100cd5780637535d246146100f657806387c7f0ac146101215780638da5cb5b1461014a57610060565b3661006057005b600080fd5b34801561007157600080fd5b5061007a610175565b6040516100879190610749565b60405180910390f35b34801561009c57600080fd5b506100b760048036038101906100b29190610847565b610199565b6040516100c491906108fc565b60405180910390f35b3480156100d957600080fd5b506100f460048036038101906100ef9190610917565b610258565b005b34801561010257600080fd5b5061010b610533565b6040516101189190610965565b60405180910390f35b34801561012d57600080fd5b5061014860048036038101906101439190610980565b610557565b005b34801561015657600080fd5b5061015f6106a6565b60405161016c91906109cf565b60405180910390f35b7f000000000000000000000000000000000000000000000000000000000000000081565b60008085876101a89190610a19565b90508773ffffffffffffffffffffffffffffffffffffffff1663095ea7b37f0000000000000000000000000000000000000000000000000000000000000000836040518363ffffffff1660e01b8152600401610205929190610a7e565b6020604051808303816000875af1158015610224573d6000803e3d6000fd5b505050506040513d601f19601f820116820180604052508101906102489190610ad3565b5060019150509695505050505050565b60008054906101000a900473ffffffffffffffffffffffffffffffffffffffff1673ffffffffffffffffffffffffffffffffffffffff163373ffffffffffffffffffffffffffffffffffffffff16146102e6576040517f08c379a00000000000000000000000000000000000000000000000000000000081526004016102dd90610b5d565b60405180910390fd5b60008073ffffffffffffffffffffffffffffffffffffffff168273ffffffffffffffffffffffffffffffffffffffff1614156103ce5760003373ffffffffffffffffffffffffffffffffffffffff164760405161034290610bae565b60006040518083038185875af1925050503d806000811461037f576040519150601f19603f3d011682016040523d82523d6000602084013e610384565b606091505b50509050806103c8576040517f08c379a00000000000000000000000000000000000000000000000000000000081526004016103bf90610c0f565b60405180910390fd5b506104ca565b8173ffffffffffffffffffffffffffffffffffffffff166370a08231306040518263ffffffff1660e01b815260040161040791906109cf565b602060405180830381865afa158015610424573d6000803e3d6000fd5b505050506040513d601f19601f820116820180604052508101906104489190610c44565b90508173ffffffffffffffffffffffffffffffffffffffff1663a9059cbb33836040518363ffffffff1660e01b8152600401610485929190610a7e565b6020604051808303816000875af11580156104a4573d6000803e3d6000fd5b505050506040513d601f19601f820116820180604052508101906104c89190610ad3565b505b8173ffffffffffffffffffffffffffffffffffffffff163373ffffffffffffffffffffffffffffffffffffffff167f9207361cc2a04b9c7a06691df1eb87c6a63957ae88bf01d0d18c81e3d1272099836040516105279190610c71565b60405180910390a35050565b7f000000000000000000000000000000000000000000000000000000000000000081565b60008054906101000a900473ffffffffffffffffffffffffffffffffffffffff1673ffffffffffffffffffffffffffffffffffffffff163373ffffffffffffffffffffffffffffffffffffffff16146105e5576040517f08c379a00000000000000000000000000000000000000000000000000000000081526004016105dc90610b5d565b60405180910390fd5b600030905060008390506000839050600060405180602001604052806000815250905060007f000000000000000000000000000000000000000000000000000000000000000073ffffffffffffffffffffffffffffffffffffffff166342b0b77c86868686866040518663ffffffff1660e01b815260040161066b959493929190610d42565b600060405180830381600087803b15801561068557600080fd5b505af1158015610699573d6000803e3d6000fd5b5050505050505050505050565b60008054906101000a900473ffffffffffffffffffffffffffffffffffffffff1681565b600073ffffffffffffffffffffffffffffffffffffffff82169050919050565b6000819050919050565b600061070f61070a610705846106ca565b6106ea565b6106ca565b9050919050565b6000610721826106f4565b9050919050565b600061073382610716565b9050919050565b61074381610728565b82525050565b600060208201905061075e600083018461073a565b92915050565b600080fd5b600080fd5b6000610779826106ca565b9050919050565b6107898161076e565b811461079457600080fd5b50565b6000813590506107a681610780565b92915050565b6000819050919050565b6107bf816107ac565b81146107ca57600080fd5b50565b6000813590506107dc816107b6565b92915050565b600080fd5b600080fd5b600080fd5b60008083601f840112610807576108066107e2565b5b8235905067ffffffffffffffff811115610824576108236107e7565b5b6020830191508360018202830111156108405761083f6107ec565b5b9250929050565b60008060008060008060a0878903121561086457610863610764565b5b600061087289828a01610797565b965050602061088389828a016107cd565b955050604061089489828a016107cd565b94505060606108a589828a01610797565b935050608087013567ffffffffffffffff8111156108c6576108c5610769565b5b6108d289828a016107f1565b92509250509295509295509295565b60008115159050919050565b6108f6816108e1565b82525050565b600060208201905061091160008301846108ed565b92915050565b60006020828403121561092d5761092c610764565b5b600061093b84828501610797565b91505092915050565b600061094f82610716565b9050919050565b61095f81610944565b82525050565b600060208201905061097a6000830184610956565b92915050565b6000806040838503121561099757610996610764565b5b60006109a585828601610797565b92505060206109b6858286016107cd565b9150509250929050565b6109c98161076e565b82525050565b60006020820190506109e460008301846109c0565b92915050565b7f4e487b7100000000000000000000000000000000000000000000000000000000600052601160045260246000fd5b6000610a24826107ac565b9150610a2f836107ac565b9250827fffffffffffffffffffffffffffffffffffffffffffffffffffffffffffffffff03821115610a6457610a636109ea565b5b828201905092915050565b610a78816107ac565b82525050565b6000604082019050610a9360008301856109c0565b610aa06020830184610a6f565b9392505050565b610ab0816108e1565b8114610abb57600080fd5b50565b600081519050610acd81610aa7565b92915050565b600060208284031215610ae957610ae8610764565b5b6000610af784828501610abe565b91505092915050565b600082825260208201905092915050565b7f6f6e6c79206f776e657220616363657373000000000000000000000000000000600082015250565b6000610b47601183610b00565b9150610b5282610b11565b602082019050919050565b60006020820190508181036000830152610b7681610b3a565b9050919050565b600081905092915050565b50565b6000610b98600083610b7d565b9150610ba382610b88565b600082019050919050565b6000610bb982610b8b565b9150819050919050565b7f5472616e73666572206661696c65642100000000000000000000000000000000600082015250565b6000610bf9601083610b00565b9150610c0482610bc3565b602082019050919050565b60006020820190508181036000830152610c2881610bec565b9050919050565b600081519050610c3e816107b6565b92915050565b600060208284031215610c5a57610c59610764565b5b6000610c6884828501610c2f565b91505092915050565b6000602082019050610c866000830184610a6f565b92915050565b600081519050919050565b600082825260208201905092915050565b60005b83811015610cc6578082015181840152602081019050610cab565b83811115610cd5576000848401525b50505050565b6000601f19601f8301169050919050565b6000610cf782610c8c565b610d018185610c97565b9350610d11818560208601610ca8565b610d1a81610cdb565b840191505092915050565b600061ffff82169050919050565b610d3c81610d25565b82525050565b600060a082019050610d5760008301886109c0565b610d6460208301876109c0565b610d716040830186610a6f565b8181036060830152610d838185610cec565b9050610d926080830184610d33565b969550505050505056fea264697066735822122010990dab7ca51027a0548efe94441a7c59dcc1be8c86a42484191678d59bfcc964736f6c634300080a0033",
					"opcodes": "PUSH1 0xC0 PUSH1 0x40 MSTORE CALLVALUE DUP1 ISZERO PUSH3 0x11 JUMPI PUSH1 0x0 DUP1 REVERT JUMPDEST POP PUSH1 0x40 MLOAD PUSH3 0xFFB CODESIZE SUB DUP1 PUSH3 0xFFB DUP4 CODECOPY DUP2 DUP2 ADD PUSH1 0x40 MSTORE DUP2 ADD SWAP1 PUSH3 0x37 SWAP2 SWAP1 PUSH3 0x1C3 JUMP JUMPDEST DUP1 DUP1 PUSH20 0xFFFFFFFFFFFFFFFFFFFFFFFFFFFFFFFFFFFFFFFF AND PUSH1 0x80 DUP2 PUSH20 0xFFFFFFFFFFFFFFFFFFFFFFFFFFFFFFFFFFFFFFFF AND DUP2 MSTORE POP POP DUP1 PUSH20 0xFFFFFFFFFFFFFFFFFFFFFFFFFFFFFFFFFFFFFFFF AND PUSH4 0x26B1D5F PUSH1 0x40 MLOAD DUP2 PUSH4 0xFFFFFFFF AND PUSH1 0xE0 SHL DUP2 MSTORE PUSH1 0x4 ADD PUSH1 0x20 PUSH1 0x40 MLOAD DUP1 DUP4 SUB DUP2 DUP7 GAS STATICCALL ISZERO DUP1 ISZERO PUSH3 0xB8 JUMPI RETURNDATASIZE PUSH1 0x0 DUP1 RETURNDATACOPY RETURNDATASIZE PUSH1 0x0 REVERT JUMPDEST POP POP POP POP PUSH1 0x40 MLOAD RETURNDATASIZE PUSH1 0x1F NOT PUSH1 0x1F DUP3 ADD AND DUP3 ADD DUP1 PUSH1 0x40 MSTORE POP DUP2 ADD SWAP1 PUSH3 0xDE SWAP2 SWAP1 PUSH3 0x1C3 JUMP JUMPDEST PUSH20 0xFFFFFFFFFFFFFFFFFFFFFFFFFFFFFFFFFFFFFFFF AND PUSH1 0xA0 DUP2 PUSH20 0xFFFFFFFFFFFFFFFFFFFFFFFFFFFFFFFFFFFFFFFF AND DUP2 MSTORE POP POP POP CALLER PUSH1 0x0 DUP1 PUSH2 0x100 EXP DUP2 SLOAD DUP2 PUSH20 0xFFFFFFFFFFFFFFFFFFFFFFFFFFFFFFFFFFFFFFFF MUL NOT AND SWAP1 DUP4 PUSH20 0xFFFFFFFFFFFFFFFFFFFFFFFFFFFFFFFFFFFFFFFF AND MUL OR SWAP1 SSTORE POP POP PUSH3 0x1F5 JUMP JUMPDEST PUSH1 0x0 DUP1 REVERT JUMPDEST PUSH1 0x0 PUSH20 0xFFFFFFFFFFFFFFFFFFFFFFFFFFFFFFFFFFFFFFFF DUP3 AND SWAP1 POP SWAP2 SWAP1 POP JUMP JUMPDEST PUSH1 0x0 PUSH3 0x18B DUP3 PUSH3 0x15E JUMP JUMPDEST SWAP1 POP SWAP2 SWAP1 POP JUMP JUMPDEST PUSH3 0x19D DUP2 PUSH3 0x17E JUMP JUMPDEST DUP2 EQ PUSH3 0x1A9 JUMPI PUSH1 0x0 DUP1 REVERT JUMPDEST POP JUMP JUMPDEST PUSH1 0x0 DUP2 MLOAD SWAP1 POP PUSH3 0x1BD DUP2 PUSH3 0x192 JUMP JUMPDEST SWAP3 SWAP2 POP POP JUMP JUMPDEST PUSH1 0x0 PUSH1 0x20 DUP3 DUP5 SUB SLT ISZERO PUSH3 0x1DC JUMPI PUSH3 0x1DB PUSH3 0x159 JUMP JUMPDEST JUMPDEST PUSH1 0x0 PUSH3 0x1EC DUP5 DUP3 DUP6 ADD PUSH3 0x1AC JUMP JUMPDEST SWAP2 POP POP SWAP3 SWAP2 POP POP JUMP JUMPDEST PUSH1 0x80 MLOAD PUSH1 0xA0 MLOAD PUSH2 0xDD2 PUSH3 0x229 PUSH1 0x0 CODECOPY PUSH1 0x0 DUP2 DUP2 PUSH2 0x1C8 ADD MSTORE DUP2 DUP2 PUSH2 0x535 ADD MSTORE PUSH2 0x60C ADD MSTORE PUSH1 0x0 PUSH2 0x177 ADD MSTORE PUSH2 0xDD2 PUSH1 0x0 RETURN INVALID PUSH1 0x80 PUSH1 0x40 MSTORE PUSH1 0x4 CALLDATASIZE LT PUSH2 0x59 JUMPI PUSH1 0x0 CALLDATALOAD PUSH1 0xE0 SHR DUP1 PUSH4 0x542975C EQ PUSH2 0x65 JUMPI DUP1 PUSH4 0x1B11D0FF EQ PUSH2 0x90 JUMPI DUP1 PUSH4 0x51CFF8D9 EQ PUSH2 0xCD JUMPI DUP1 PUSH4 0x7535D246 EQ PUSH2 0xF6 JUMPI DUP1 PUSH4 0x87C7F0AC EQ PUSH2 0x121 JUMPI DUP1 PUSH4 0x8DA5CB5B EQ PUSH2 0x14A JUMPI PUSH2 0x60 JUMP JUMPDEST CALLDATASIZE PUSH2 0x60 JUMPI STOP JUMPDEST PUSH1 0x0 DUP1 REVERT JUMPDEST CALLVALUE DUP1 ISZERO PUSH2 0x71 JUMPI PUSH1 0x0 DUP1 REVERT JUMPDEST POP PUSH2 0x7A PUSH2 0x175 JUMP JUMPDEST PUSH1 0x40 MLOAD PUSH2 0x87 SWAP2 SWAP1 PUSH2 0x749 JUMP JUMPDEST PUSH1 0x40 MLOAD DUP1 SWAP2 SUB SWAP1 RETURN JUMPDEST CALLVALUE DUP1 ISZERO PUSH2 0x9C JUMPI PUSH1 0x0 DUP1 REVERT JUMPDEST POP PUSH2 0xB7 PUSH1 0x4 DUP1 CALLDATASIZE SUB DUP2 ADD SWAP1 PUSH2 0xB2 SWAP2 SWAP1 PUSH2 0x847 JUMP JUMPDEST PUSH2 0x199 JUMP JUMPDEST PUSH1 0x40 MLOAD PUSH2 0xC4 SWAP2 SWAP1 PUSH2 0x8FC JUMP JUMPDEST PUSH1 0x40 MLOAD DUP1 SWAP2 SUB SWAP1 RETURN JUMPDEST CALLVALUE DUP1 ISZERO PUSH2 0xD9 JUMPI PUSH1 0x0 DUP1 REVERT JUMPDEST POP PUSH2 0xF4 PUSH1 0x4 DUP1 CALLDATASIZE SUB DUP2 ADD SWAP1 PUSH2 0xEF SWAP2 SWAP1 PUSH2 0x917 JUMP JUMPDEST PUSH2 0x258 JUMP JUMPDEST STOP JUMPDEST CALLVALUE DUP1 ISZERO PUSH2 0x102 JUMPI PUSH1 0x0 DUP1 REVERT JUMPDEST POP PUSH2 0x10B PUSH2 0x533 JUMP JUMPDEST PUSH1 0x40 MLOAD PUSH2 0x118 SWAP2 SWAP1 PUSH2 0x965 JUMP JUMPDEST PUSH1 0x40 MLOAD DUP1 SWAP2 SUB SWAP1 RETURN JUMPDEST CALLVALUE DUP1 ISZERO PUSH2 0x12D JUMPI PUSH1 0x0 DUP1 REVERT JUMPDEST POP PUSH2 0x148 PUSH1 0x4 DUP1 CALLDATASIZE SUB DUP2 ADD SWAP1 PUSH2 0x143 SWAP2 SWAP1 PUSH2 0x980 JUMP JUMPDEST PUSH2 0x557 JUMP JUMPDEST STOP JUMPDEST CALLVALUE DUP1 ISZERO PUSH2 0x156 JUMPI PUSH1 0x0 DUP1 REVERT JUMPDEST POP PUSH2 0x15F PUSH2 0x6A6 JUMP JUMPDEST PUSH1 0x40 MLOAD PUSH2 0x16C SWAP2 SWAP1 PUSH2 0x9CF JUMP JUMPDEST PUSH1 0x40 MLOAD DUP1 SWAP2 SUB SWAP1 RETURN JUMPDEST PUSH32 0x0 DUP2 JUMP JUMPDEST PUSH1 0x0 DUP1 DUP6 DUP8 PUSH2 0x1A8 SWAP2 SWAP1 PUSH2 0xA19 JUMP JUMPDEST SWAP1 POP DUP8 PUSH20 0xFFFFFFFFFFFFFFFFFFFFFFFFFFFFFFFFFFFFFFFF AND PUSH4 0x95EA7B3 PUSH32 0x0 DUP4 PUSH1 0x40 MLOAD DUP4 PUSH4 0xFFFFFFFF AND PUSH1 0xE0 SHL DUP2 MSTORE PUSH1 0x4 ADD PUSH2 0x205 SWAP3 SWAP2 SWAP1 PUSH2 0xA7E JUMP JUMPDEST PUSH1 0x20 PUSH1 0x40 MLOAD DUP1 DUP4 SUB DUP2 PUSH1 0x0 DUP8 GAS CALL ISZERO DUP1 ISZERO PUSH2 0x224 JUMPI RETURNDATASIZE PUSH1 0x0 DUP1 RETURNDATACOPY RETURNDATASIZE PUSH1 0x0 REVERT JUMPDEST POP POP POP POP PUSH1 0x40 MLOAD RETURNDATASIZE PUSH1 0x1F NOT PUSH1 0x1F DUP3 ADD AND DUP3 ADD DUP1 PUSH1 0x40 MSTORE POP DUP2 ADD SWAP1 PUSH2 0x248 SWAP2 SWAP1 PUSH2 0xAD3 JUMP JUMPDEST POP PUSH1 0x1 SWAP2 POP POP SWAP7 SWAP6 POP POP POP POP POP POP JUMP JUMPDEST PUSH1 0x0 DUP1 SLOAD SWAP1 PUSH2 0x100 EXP SWAP1 DIV PUSH20 0xFFFFFFFFFFFFFFFFFFFFFFFFFFFFFFFFFFFFFFFF AND PUSH20 0xFFFFFFFFFFFFFFFFFFFFFFFFFFFFFFFFFFFFFFFF AND CALLER PUSH20 0xFFFFFFFFFFFFFFFFFFFFFFFFFFFFFFFFFFFFFFFF AND EQ PUSH2 0x2E6 JUMPI PUSH1 0x40 MLOAD PUSH32 0x8C379A000000000000000000000000000000000000000000000000000000000 DUP2 MSTORE PUSH1 0x4 ADD PUSH2 0x2DD SWAP1 PUSH2 0xB5D JUMP JUMPDEST PUSH1 0x40 MLOAD DUP1 SWAP2 SUB SWAP1 REVERT JUMPDEST PUSH1 0x0 DUP1 PUSH20 0xFFFFFFFFFFFFFFFFFFFFFFFFFFFFFFFFFFFFFFFF AND DUP3 PUSH20 0xFFFFFFFFFFFFFFFFFFFFFFFFFFFFFFFFFFFFFFFF AND EQ ISZERO PUSH2 0x3CE JUMPI PUSH1 0x0 CALLER PUSH20 0xFFFFFFFFFFFFFFFFFFFFFFFFFFFFFFFFFFFFFFFF AND SELFBALANCE PUSH1 0x40 MLOAD PUSH2 0x342 SWAP1 PUSH2 0xBAE JUMP JUMPDEST PUSH1 0x0 PUSH1 0x40 MLOAD DUP1 DUP4 SUB DUP2 DUP6 DUP8 GAS CALL SWAP3 POP POP POP RETURNDATASIZE DUP1 PUSH1 0x0 DUP2 EQ PUSH2 0x37F JUMPI PUSH1 0x40 MLOAD SWAP2 POP PUSH1 0x1F NOT PUSH1 0x3F RETURNDATASIZE ADD AND DUP3 ADD PUSH1 0x40 MSTORE RETURNDATASIZE DUP3 MSTORE RETURNDATASIZE PUSH1 0x0 PUSH1 0x20 DUP5 ADD RETURNDATACOPY PUSH2 0x384 JUMP JUMPDEST PUSH1 0x60 SWAP2 POP JUMPDEST POP POP SWAP1 POP DUP1 PUSH2 0x3C8 JUMPI PUSH1 0x40 MLOAD PUSH32 0x8C379A000000000000000000000000000000000000000000000000000000000 DUP2 MSTORE PUSH1 0x4 ADD PUSH2 0x3BF SWAP1 PUSH2 0xC0F JUMP JUMPDEST PUSH1 0x40 MLOAD DUP1 SWAP2 SUB SWAP1 REVERT JUMPDEST POP PUSH2 0x4CA JUMP JUMPDEST DUP2 PUSH20 0xFFFFFFFFFFFFFFFFFFFFFFFFFFFFFFFFFFFFFFFF AND PUSH4 0x70A08231 ADDRESS PUSH1 0x40 MLOAD DUP3 PUSH4 0xFFFFFFFF AND PUSH1 0xE0 SHL DUP2 MSTORE PUSH1 0x4 ADD PUSH2 0x407 SWAP2 SWAP1 PUSH2 0x9CF JUMP JUMPDEST PUSH1 0x20 PUSH1 0x40 MLOAD DUP1 DUP4 SUB DUP2 DUP7 GAS STATICCALL ISZERO DUP1 ISZERO PUSH2 0x424 JUMPI RETURNDATASIZE PUSH1 0x0 DUP1 RETURNDATACOPY RETURNDATASIZE PUSH1 0x0 REVERT JUMPDEST POP POP POP POP PUSH1 0x40 MLOAD RETURNDATASIZE PUSH1 0x1F NOT PUSH1 0x1F DUP3 ADD AND DUP3 ADD DUP1 PUSH1 0x40 MSTORE POP DUP2 ADD SWAP1 PUSH2 0x448 SWAP2 SWAP1 PUSH2 0xC44 JUMP JUMPDEST SWAP1 POP DUP2 PUSH20 0xFFFFFFFFFFFFFFFFFFFFFFFFFFFFFFFFFFFFFFFF AND PUSH4 0xA9059CBB CALLER DUP4 PUSH1 0x40 MLOAD DUP4 PUSH4 0xFFFFFFFF AND PUSH1 0xE0 SHL DUP2 MSTORE PUSH1 0x4 ADD PUSH2 0x485 SWAP3 SWAP2 SWAP1 PUSH2 0xA7E JUMP JUMPDEST PUSH1 0x20 PUSH1 0x40 MLOAD DUP1 DUP4 SUB DUP2 PUSH1 0x0 DUP8 GAS CALL ISZERO DUP1 ISZERO PUSH2 0x4A4 JUMPI RETURNDATASIZE PUSH1 0x0 DUP1 RETURNDATACOPY RETURNDATASIZE PUSH1 0x0 REVERT JUMPDEST POP POP POP POP PUSH1 0x40 MLOAD RETURNDATASIZE PUSH1 0x1F NOT PUSH1 0x1F DUP3 ADD AND DUP3 ADD DUP1 PUSH1 0x40 MSTORE POP DUP2 ADD SWAP1 PUSH2 0x4C8 SWAP2 SWAP1 PUSH2 0xAD3 JUMP JUMPDEST POP JUMPDEST DUP2 PUSH20 0xFFFFFFFFFFFFFFFFFFFFFFFFFFFFFFFFFFFFFFFF AND CALLER PUSH20 0xFFFFFFFFFFFFFFFFFFFFFFFFFFFFFFFFFFFFFFFF AND PUSH32 0x9207361CC2A04B9C7A06691DF1EB87C6A63957AE88BF01D0D18C81E3D1272099 DUP4 PUSH1 0x40 MLOAD PUSH2 0x527 SWAP2 SWAP1 PUSH2 0xC71 JUMP JUMPDEST PUSH1 0x40 MLOAD DUP1 SWAP2 SUB SWAP1 LOG3 POP POP JUMP JUMPDEST PUSH32 0x0 DUP2 JUMP JUMPDEST PUSH1 0x0 DUP1 SLOAD SWAP1 PUSH2 0x100 EXP SWAP1 DIV PUSH20 0xFFFFFFFFFFFFFFFFFFFFFFFFFFFFFFFFFFFFFFFF AND PUSH20 0xFFFFFFFFFFFFFFFFFFFFFFFFFFFFFFFFFFFFFFFF AND CALLER PUSH20 0xFFFFFFFFFFFFFFFFFFFFFFFFFFFFFFFFFFFFFFFF AND EQ PUSH2 0x5E5 JUMPI PUSH1 0x40 MLOAD PUSH32 0x8C379A000000000000000000000000000000000000000000000000000000000 DUP2 MSTORE PUSH1 0x4 ADD PUSH2 0x5DC SWAP1 PUSH2 0xB5D JUMP JUMPDEST PUSH1 0x40 MLOAD DUP1 SWAP2 SUB SWAP1 REVERT JUMPDEST PUSH1 0x0 ADDRESS SWAP1 POP PUSH1 0x0 DUP4 SWAP1 POP PUSH1 0x0 DUP4 SWAP1 POP PUSH1 0x0 PUSH1 0x40 MLOAD DUP1 PUSH1 0x20 ADD PUSH1 0x40 MSTORE DUP1 PUSH1 0x0 DUP2 MSTORE POP SWAP1 POP PUSH1 0x0 PUSH32 0x0 PUSH20 0xFFFFFFFFFFFFFFFFFFFFFFFFFFFFFFFFFFFFFFFF AND PUSH4 0x42B0B77C DUP7 DUP7 DUP7 DUP7 DUP7 PUSH1 0x40 MLOAD DUP7 PUSH4 0xFFFFFFFF AND PUSH1 0xE0 SHL DUP2 MSTORE PUSH1 0x4 ADD PUSH2 0x66B SWAP6 SWAP5 SWAP4 SWAP3 SWAP2 SWAP1 PUSH2 0xD42 JUMP JUMPDEST PUSH1 0x0 PUSH1 0x40 MLOAD DUP1 DUP4 SUB DUP2 PUSH1 0x0 DUP8 DUP1 EXTCODESIZE ISZERO DUP1 ISZERO PUSH2 0x685 JUMPI PUSH1 0x0 DUP1 REVERT JUMPDEST POP GAS CALL ISZERO DUP1 ISZERO PUSH2 0x699 JUMPI RETURNDATASIZE PUSH1 0x0 DUP1 RETURNDATACOPY RETURNDATASIZE PUSH1 0x0 REVERT JUMPDEST POP POP POP POP POP POP POP POP POP POP POP JUMP JUMPDEST PUSH1 0x0 DUP1 SLOAD SWAP1 PUSH2 0x100 EXP SWAP1 DIV PUSH20 0xFFFFFFFFFFFFFFFFFFFFFFFFFFFFFFFFFFFFFFFF AND DUP2 JUMP JUMPDEST PUSH1 0x0 PUSH20 0xFFFFFFFFFFFFFFFFFFFFFFFFFFFFFFFFFFFFFFFF DUP3 AND SWAP1 POP SWAP2 SWAP1 POP JUMP JUMPDEST PUSH1 0x0 DUP2 SWAP1 POP SWAP2 SWAP1 POP JUMP JUMPDEST PUSH1 0x0 PUSH2 0x70F PUSH2 0x70A PUSH2 0x705 DUP5 PUSH2 0x6CA JUMP JUMPDEST PUSH2 0x6EA JUMP JUMPDEST PUSH2 0x6CA JUMP JUMPDEST SWAP1 POP SWAP2 SWAP1 POP JUMP JUMPDEST PUSH1 0x0 PUSH2 0x721 DUP3 PUSH2 0x6F4 JUMP JUMPDEST SWAP1 POP SWAP2 SWAP1 POP JUMP JUMPDEST PUSH1 0x0 PUSH2 0x733 DUP3 PUSH2 0x716 JUMP JUMPDEST SWAP1 POP SWAP2 SWAP1 POP JUMP JUMPDEST PUSH2 0x743 DUP2 PUSH2 0x728 JUMP JUMPDEST DUP3 MSTORE POP POP JUMP JUMPDEST PUSH1 0x0 PUSH1 0x20 DUP3 ADD SWAP1 POP PUSH2 0x75E PUSH1 0x0 DUP4 ADD DUP5 PUSH2 0x73A JUMP JUMPDEST SWAP3 SWAP2 POP POP JUMP JUMPDEST PUSH1 0x0 DUP1 REVERT JUMPDEST PUSH1 0x0 DUP1 REVERT JUMPDEST PUSH1 0x0 PUSH2 0x779 DUP3 PUSH2 0x6CA JUMP JUMPDEST SWAP1 POP SWAP2 SWAP1 POP JUMP JUMPDEST PUSH2 0x789 DUP2 PUSH2 0x76E JUMP JUMPDEST DUP2 EQ PUSH2 0x794 JUMPI PUSH1 0x0 DUP1 REVERT JUMPDEST POP JUMP JUMPDEST PUSH1 0x0 DUP2 CALLDATALOAD SWAP1 POP PUSH2 0x7A6 DUP2 PUSH2 0x780 JUMP JUMPDEST SWAP3 SWAP2 POP POP JUMP JUMPDEST PUSH1 0x0 DUP2 SWAP1 POP SWAP2 SWAP1 POP JUMP JUMPDEST PUSH2 0x7BF DUP2 PUSH2 0x7AC JUMP JUMPDEST DUP2 EQ PUSH2 0x7CA JUMPI PUSH1 0x0 DUP1 REVERT JUMPDEST POP JUMP JUMPDEST PUSH1 0x0 DUP2 CALLDATALOAD SWAP1 POP PUSH2 0x7DC DUP2 PUSH2 0x7B6 JUMP JUMPDEST SWAP3 SWAP2 POP POP JUMP JUMPDEST PUSH1 0x0 DUP1 REVERT JUMPDEST PUSH1 0x0 DUP1 REVERT JUMPDEST PUSH1 0x0 DUP1 REVERT JUMPDEST PUSH1 0x0 DUP1 DUP4 PUSH1 0x1F DUP5 ADD SLT PUSH2 0x807 JUMPI PUSH2 0x806 PUSH2 0x7E2 JUMP JUMPDEST JUMPDEST DUP3 CALLDATALOAD SWAP1 POP PUSH8 0xFFFFFFFFFFFFFFFF DUP2 GT ISZERO PUSH2 0x824 JUMPI PUSH2 0x823 PUSH2 0x7E7 JUMP JUMPDEST JUMPDEST PUSH1 0x20 DUP4 ADD SWAP2 POP DUP4 PUSH1 0x1 DUP3 MUL DUP4 ADD GT ISZERO PUSH2 0x840 JUMPI PUSH2 0x83F PUSH2 0x7EC JUMP JUMPDEST JUMPDEST SWAP3 POP SWAP3 SWAP1 POP JUMP JUMPDEST PUSH1 0x0 DUP1 PUSH1 0x0 DUP1 PUSH1 0x0 DUP1 PUSH1 0xA0 DUP8 DUP10 SUB SLT ISZERO PUSH2 0x864 JUMPI PUSH2 0x863 PUSH2 0x764 JUMP JUMPDEST JUMPDEST PUSH1 0x0 PUSH2 0x872 DUP10 DUP3 DUP11 ADD PUSH2 0x797 JUMP JUMPDEST SWAP7 POP POP PUSH1 0x20 PUSH2 0x883 DUP10 DUP3 DUP11 ADD PUSH2 0x7CD JUMP JUMPDEST SWAP6 POP POP PUSH1 0x40 PUSH2 0x894 DUP10 DUP3 DUP11 ADD PUSH2 0x7CD JUMP JUMPDEST SWAP5 POP POP PUSH1 0x60 PUSH2 0x8A5 DUP10 DUP3 DUP11 ADD PUSH2 0x797 JUMP JUMPDEST SWAP4 POP POP PUSH1 0x80 DUP8 ADD CALLDATALOAD PUSH8 0xFFFFFFFFFFFFFFFF DUP2 GT ISZERO PUSH2 0x8C6 JUMPI PUSH2 0x8C5 PUSH2 0x769 JUMP JUMPDEST JUMPDEST PUSH2 0x8D2 DUP10 DUP3 DUP11 ADD PUSH2 0x7F1 JUMP JUMPDEST SWAP3 POP SWAP3 POP POP SWAP3 SWAP6 POP SWAP3 SWAP6 POP SWAP3 SWAP6 JUMP JUMPDEST PUSH1 0x0 DUP2 ISZERO ISZERO SWAP1 POP SWAP2 SWAP1 POP JUMP JUMPDEST PUSH2 0x8F6 DUP2 PUSH2 0x8E1 JUMP JUMPDEST DUP3 MSTORE POP POP JUMP JUMPDEST PUSH1 0x0 PUSH1 0x20 DUP3 ADD SWAP1 POP PUSH2 0x911 PUSH1 0x0 DUP4 ADD DUP5 PUSH2 0x8ED JUMP JUMPDEST SWAP3 SWAP2 POP POP JUMP JUMPDEST PUSH1 0x0 PUSH1 0x20 DUP3 DUP5 SUB SLT ISZERO PUSH2 0x92D JUMPI PUSH2 0x92C PUSH2 0x764 JUMP JUMPDEST JUMPDEST PUSH1 0x0 PUSH2 0x93B DUP5 DUP3 DUP6 ADD PUSH2 0x797 JUMP JUMPDEST SWAP2 POP POP SWAP3 SWAP2 POP POP JUMP JUMPDEST PUSH1 0x0 PUSH2 0x94F DUP3 PUSH2 0x716 JUMP JUMPDEST SWAP1 POP SWAP2 SWAP1 POP JUMP JUMPDEST PUSH2 0x95F DUP2 PUSH2 0x944 JUMP JUMPDEST DUP3 MSTORE POP POP JUMP JUMPDEST PUSH1 0x0 PUSH1 0x20 DUP3 ADD SWAP1 POP PUSH2 0x97A PUSH1 0x0 DUP4 ADD DUP5 PUSH2 0x956 JUMP JUMPDEST SWAP3 SWAP2 POP POP JUMP JUMPDEST PUSH1 0x0 DUP1 PUSH1 0x40 DUP4 DUP6 SUB SLT ISZERO PUSH2 0x997 JUMPI PUSH2 0x996 PUSH2 0x764 JUMP JUMPDEST JUMPDEST PUSH1 0x0 PUSH2 0x9A5 DUP6 DUP3 DUP7 ADD PUSH2 0x797 JUMP JUMPDEST SWAP3 POP POP PUSH1 0x20 PUSH2 0x9B6 DUP6 DUP3 DUP7 ADD PUSH2 0x7CD JUMP JUMPDEST SWAP2 POP POP SWAP3 POP SWAP3 SWAP1 POP JUMP JUMPDEST PUSH2 0x9C9 DUP2 PUSH2 0x76E JUMP JUMPDEST DUP3 MSTORE POP POP JUMP JUMPDEST PUSH1 0x0 PUSH1 0x20 DUP3 ADD SWAP1 POP PUSH2 0x9E4 PUSH1 0x0 DUP4 ADD DUP5 PUSH2 0x9C0 JUMP JUMPDEST SWAP3 SWAP2 POP POP JUMP JUMPDEST PUSH32 0x4E487B7100000000000000000000000000000000000000000000000000000000 PUSH1 0x0 MSTORE PUSH1 0x11 PUSH1 0x4 MSTORE PUSH1 0x24 PUSH1 0x0 REVERT JUMPDEST PUSH1 0x0 PUSH2 0xA24 DUP3 PUSH2 0x7AC JUMP JUMPDEST SWAP2 POP PUSH2 0xA2F DUP4 PUSH2 0x7AC JUMP JUMPDEST SWAP3 POP DUP3 PUSH32 0xFFFFFFFFFFFFFFFFFFFFFFFFFFFFFFFFFFFFFFFFFFFFFFFFFFFFFFFFFFFFFFFF SUB DUP3 GT ISZERO PUSH2 0xA64 JUMPI PUSH2 0xA63 PUSH2 0x9EA JUMP JUMPDEST JUMPDEST DUP3 DUP3 ADD SWAP1 POP SWAP3 SWAP2 POP POP JUMP JUMPDEST PUSH2 0xA78 DUP2 PUSH2 0x7AC JUMP JUMPDEST DUP3 MSTORE POP POP JUMP JUMPDEST PUSH1 0x0 PUSH1 0x40 DUP3 ADD SWAP1 POP PUSH2 0xA93 PUSH1 0x0 DUP4 ADD DUP6 PUSH2 0x9C0 JUMP JUMPDEST PUSH2 0xAA0 PUSH1 0x20 DUP4 ADD DUP5 PUSH2 0xA6F JUMP JUMPDEST SWAP4 SWAP3 POP POP POP JUMP JUMPDEST PUSH2 0xAB0 DUP2 PUSH2 0x8E1 JUMP JUMPDEST DUP2 EQ PUSH2 0xABB JUMPI PUSH1 0x0 DUP1 REVERT JUMPDEST POP JUMP JUMPDEST PUSH1 0x0 DUP2 MLOAD SWAP1 POP PUSH2 0xACD DUP2 PUSH2 0xAA7 JUMP JUMPDEST SWAP3 SWAP2 POP POP JUMP JUMPDEST PUSH1 0x0 PUSH1 0x20 DUP3 DUP5 SUB SLT ISZERO PUSH2 0xAE9 JUMPI PUSH2 0xAE8 PUSH2 0x764 JUMP JUMPDEST JUMPDEST PUSH1 0x0 PUSH2 0xAF7 DUP5 DUP3 DUP6 ADD PUSH2 0xABE JUMP JUMPDEST SWAP2 POP POP SWAP3 SWAP2 POP POP JUMP JUMPDEST PUSH1 0x0 DUP3 DUP3 MSTORE PUSH1 0x20 DUP3 ADD SWAP1 POP SWAP3 SWAP2 POP POP JUMP JUMPDEST PUSH32 0x6F6E6C79206F776E657220616363657373000000000000000000000000000000 PUSH1 0x0 DUP3 ADD MSTORE POP JUMP JUMPDEST PUSH1 0x0 PUSH2 0xB47 PUSH1 0x11 DUP4 PUSH2 0xB00 JUMP JUMPDEST SWAP2 POP PUSH2 0xB52 DUP3 PUSH2 0xB11 JUMP JUMPDEST PUSH1 0x20 DUP3 ADD SWAP1 POP SWAP2 SWAP1 POP JUMP JUMPDEST PUSH1 0x0 PUSH1 0x20 DUP3 ADD SWAP1 POP DUP2 DUP2 SUB PUSH1 0x0 DUP4 ADD MSTORE PUSH2 0xB76 DUP2 PUSH2 0xB3A JUMP JUMPDEST SWAP1 POP SWAP2 SWAP1 POP JUMP JUMPDEST PUSH1 0x0 DUP2 SWAP1 POP SWAP3 SWAP2 POP POP JUMP JUMPDEST POP JUMP JUMPDEST PUSH1 0x0 PUSH2 0xB98 PUSH1 0x0 DUP4 PUSH2 0xB7D JUMP JUMPDEST SWAP2 POP PUSH2 0xBA3 DUP3 PUSH2 0xB88 JUMP JUMPDEST PUSH1 0x0 DUP3 ADD SWAP1 POP SWAP2 SWAP1 POP JUMP JUMPDEST PUSH1 0x0 PUSH2 0xBB9 DUP3 PUSH2 0xB8B JUMP JUMPDEST SWAP2 POP DUP2 SWAP1 POP SWAP2 SWAP1 POP JUMP JUMPDEST PUSH32 0x5472616E73666572206661696C65642100000000000000000000000000000000 PUSH1 0x0 DUP3 ADD MSTORE POP JUMP JUMPDEST PUSH1 0x0 PUSH2 0xBF9 PUSH1 0x10 DUP4 PUSH2 0xB00 JUMP JUMPDEST SWAP2 POP PUSH2 0xC04 DUP3 PUSH2 0xBC3 JUMP JUMPDEST PUSH1 0x20 DUP3 ADD SWAP1 POP SWAP2 SWAP1 POP JUMP JUMPDEST PUSH1 0x0 PUSH1 0x20 DUP3 ADD SWAP1 POP DUP2 DUP2 SUB PUSH1 0x0 DUP4 ADD MSTORE PUSH2 0xC28 DUP2 PUSH2 0xBEC JUMP JUMPDEST SWAP1 POP SWAP2 SWAP1 POP JUMP JUMPDEST PUSH1 0x0 DUP2 MLOAD SWAP1 POP PUSH2 0xC3E DUP2 PUSH2 0x7B6 JUMP JUMPDEST SWAP3 SWAP2 POP POP JUMP JUMPDEST PUSH1 0x0 PUSH1 0x20 DUP3 DUP5 SUB SLT ISZERO PUSH2 0xC5A JUMPI PUSH2 0xC59 PUSH2 0x764 JUMP JUMPDEST JUMPDEST PUSH1 0x0 PUSH2 0xC68 DUP5 DUP3 DUP6 ADD PUSH2 0xC2F JUMP JUMPDEST SWAP2 POP POP SWAP3 SWAP2 POP POP JUMP JUMPDEST PUSH1 0x0 PUSH1 0x20 DUP3 ADD SWAP1 POP PUSH2 0xC86 PUSH1 0x0 DUP4 ADD DUP5 PUSH2 0xA6F JUMP JUMPDEST SWAP3 SWAP2 POP POP JUMP JUMPDEST PUSH1 0x0 DUP2 MLOAD SWAP1 POP SWAP2 SWAP1 POP JUMP JUMPDEST PUSH1 0x0 DUP3 DUP3 MSTORE PUSH1 0x20 DUP3 ADD SWAP1 POP SWAP3 SWAP2 POP POP JUMP JUMPDEST PUSH1 0x0 JUMPDEST DUP4 DUP2 LT ISZERO PUSH2 0xCC6 JUMPI DUP1 DUP3 ADD MLOAD DUP2 DUP5 ADD MSTORE PUSH1 0x20 DUP2 ADD SWAP1 POP PUSH2 0xCAB JUMP JUMPDEST DUP4 DUP2 GT ISZERO PUSH2 0xCD5 JUMPI PUSH1 0x0 DUP5 DUP5 ADD MSTORE JUMPDEST POP POP POP POP JUMP JUMPDEST PUSH1 0x0 PUSH1 0x1F NOT PUSH1 0x1F DUP4 ADD AND SWAP1 POP SWAP2 SWAP1 POP JUMP JUMPDEST PUSH1 0x0 PUSH2 0xCF7 DUP3 PUSH2 0xC8C JUMP JUMPDEST PUSH2 0xD01 DUP2 DUP6 PUSH2 0xC97 JUMP JUMPDEST SWAP4 POP PUSH2 0xD11 DUP2 DUP6 PUSH1 0x20 DUP7 ADD PUSH2 0xCA8 JUMP JUMPDEST PUSH2 0xD1A DUP2 PUSH2 0xCDB JUMP JUMPDEST DUP5 ADD SWAP2 POP POP SWAP3 SWAP2 POP POP JUMP JUMPDEST PUSH1 0x0 PUSH2 0xFFFF DUP3 AND SWAP1 POP SWAP2 SWAP1 POP JUMP JUMPDEST PUSH2 0xD3C DUP2 PUSH2 0xD25 JUMP JUMPDEST DUP3 MSTORE POP POP JUMP JUMPDEST PUSH1 0x0 PUSH1 0xA0 DUP3 ADD SWAP1 POP PUSH2 0xD57 PUSH1 0x0 DUP4 ADD DUP9 PUSH2 0x9C0 JUMP JUMPDEST PUSH2 0xD64 PUSH1 0x20 DUP4 ADD DUP8 PUSH2 0x9C0 JUMP JUMPDEST PUSH2 0xD71 PUSH1 0x40 DUP4 ADD DUP7 PUSH2 0xA6F JUMP JUMPDEST DUP2 DUP2 SUB PUSH1 0x60 DUP4 ADD MSTORE PUSH2 0xD83 DUP2 DUP6 PUSH2 0xCEC JUMP JUMPDEST SWAP1 POP PUSH2 0xD92 PUSH1 0x80 DUP4 ADD DUP5 PUSH2 0xD33 JUMP JUMPDEST SWAP7 SWAP6 POP POP POP POP POP POP JUMP INVALID LOG2 PUSH5 0x6970667358 0x22 SLT KECCAK256 LT SWAP10 0xD 0xAB PUSH29 0xA51027A0548EFE94441A7C59DCC1BE8C86A42484191678D59BFCC96473 PUSH16 0x6C634300080A00330000000000000000 "
				},
				"gasEstimates": {
					"creation": {
						"codeDepositCost": "707600",
						"executionCost": "infinite",
						"totalCost": "infinite"
					},
					"external": {
						"ADDRESSES_PROVIDER()": "infinite",
						"POOL()": "infinite",
						"executeOperation(address,uint256,uint256,address,bytes)": "infinite",
						"fn_RequestFlashLoan(address,uint256)": "infinite",
						"owner()": "2599",
						"withdraw(address)": "infinite"
					}
				},
				"methodIdentifiers": {
					"ADDRESSES_PROVIDER()": "0542975c",
					"POOL()": "7535d246",
					"executeOperation(address,uint256,uint256,address,bytes)": "1b11d0ff",
					"fn_RequestFlashLoan(address,uint256)": "87c7f0ac",
					"owner()": "8da5cb5b",
					"withdraw(address)": "51cff8d9"
				}
			},
			"storageLayout": {
				"storage": [
					{
						"astId": 1361,
						"contract": "contracts/AaveCall.sol:SimpleFlashLoan",
						"label": "owner",
						"offset": 0,
						"slot": "0",
						"type": "t_address"
					}
				],
				"types": {
					"t_address": {
						"encoding": "inplace",
						"label": "address",
						"numberOfBytes": "20"
					}
				}
			},
			"userdoc": {
				"kind": "user",
				"methods": {
					"executeOperation(address,uint256,uint256,address,bytes)": {
						"notice": "Executes an operation after receiving the flash-borrowed asset"
					}
				},
				"version": 1
			}
		}
	}
}