{
	"contracts/AaveFlashLoan.sol": {
		"AaveFlashLoan": {
			"abi": [
				{
					"inputs": [
						{
							"internalType": "address",
							"name": "_addressProvider",
							"type": "address"
						}
					],
					"stateMutability": "nonpayable",
					"type": "constructor"
				},
				{
					"anonymous": false,
					"inputs": [
						{
							"indexed": true,
							"internalType": "address",
							"name": "_from",
							"type": "address"
						},
						{
							"indexed": true,
							"internalType": "address",
							"name": "_assetAddress",
							"type": "address"
						},
						{
							"indexed": false,
							"internalType": "uint256",
							"name": "amount",
							"type": "uint256"
						}
					],
					"name": "LogWithdraw",
					"type": "event"
				},
				{
					"inputs": [],
					"name": "ADDRESSES_PROVIDER",
					"outputs": [
						{
							"internalType": "contract IPoolAddressesProvider",
							"name": "",
							"type": "address"
						}
					],
					"stateMutability": "view",
					"type": "function"
				},
				{
					"inputs": [],
					"name": "POOL",
					"outputs": [
						{
							"internalType": "contract IPool",
							"name": "",
							"type": "address"
						}
					],
					"stateMutability": "view",
					"type": "function"
				},
				{
					"inputs": [
						{
							"internalType": "address",
							"name": "asset",
							"type": "address"
						},
						{
							"internalType": "uint256",
							"name": "amount",
							"type": "uint256"
						},
						{
							"internalType": "uint256",
							"name": "premium",
							"type": "uint256"
						},
						{
							"internalType": "address",
							"name": "initiator",
							"type": "address"
						},
						{
							"internalType": "bytes",
							"name": "params",
							"type": "bytes"
						}
					],
					"name": "executeOperation",
					"outputs": [
						{
							"internalType": "bool",
							"name": "",
							"type": "bool"
						}
					],
					"stateMutability": "nonpayable",
					"type": "function"
				},
				{
					"inputs": [
						{
							"internalType": "address",
							"name": "_token",
							"type": "address"
						},
						{
							"internalType": "uint256",
							"name": "_amount",
							"type": "uint256"
						}
					],
					"name": "fn_RequestFlashLoan",
					"outputs": [],
					"stateMutability": "nonpayable",
					"type": "function"
				},
				{
					"inputs": [],
					"name": "owner",
					"outputs": [
						{
							"internalType": "address",
							"name": "",
							"type": "address"
						}
					],
					"stateMutability": "view",
					"type": "function"
				},
				{
					"stateMutability": "payable",
					"type": "receive"
				}
			],
			"devdoc": {
				"kind": "dev",
				"methods": {
					"executeOperation(address,uint256,uint256,address,bytes)": {
						"details": "Ensure that the contract can return the debt + premium, e.g., has      enough funds to repay and has approved the Pool to pull the total amount",
						"params": {
							"amount": "The amount of the flash-borrowed asset",
							"asset": "The address of the flash-borrowed asset",
							"initiator": "The address of the flashloan initiator",
							"params": "The byte-encoded params passed when initiating the flashloan",
							"premium": "The fee of the flash-borrowed asset"
						},
						"returns": {
							"_0": "True if the execution of the operation succeeds, false otherwise"
						}
					}
				},
				"version": 1
			},
			"evm": {
				"assembly": "    /* \"contracts/AaveFlashLoan.sol\":339:2475  contract AaveFlashLoan is FlashLoanSimpleReceiverBase {... */\n  mstore(0x40, 0xc0)\n    /* \"contracts/AaveFlashLoan.sol\":692:847  constructor(address _addressProvider)... */\n  callvalue\n  dup1\n  iszero\n  tag_1\n  jumpi\n  0x00\n  dup1\n  revert\ntag_1:\n  pop\n  mload(0x40)\n  sub(codesize, bytecodeSize)\n  dup1\n  bytecodeSize\n  dup4\n  codecopy\n  dup2\n  dup2\n  add\n  0x40\n  mstore\n  dup2\n  add\n  swap1\n  tag_2\n  swap2\n  swap1\n  tag_3\n  jump\t// in\ntag_2:\n    /* \"contracts/AaveFlashLoan.sol\":789:805  _addressProvider */\n  dup1\n    /* \"@aave/core-v3/contracts/flashloan/base/FlashLoanSimpleReceiverBase.sol\":673:681  provider */\n  dup1\n    /* \"@aave/core-v3/contracts/flashloan/base/FlashLoanSimpleReceiverBase.sol\":652:681  ADDRESSES_PROVIDER = provider */\n  0xffffffffffffffffffffffffffffffffffffffff\n  and\n  0x80\n  dup2\n  0xffffffffffffffffffffffffffffffffffffffff\n  and\n  dup2\n  mstore\n  pop\n  pop\n    /* \"@aave/core-v3/contracts/flashloan/base/FlashLoanSimpleReceiverBase.sol\":700:708  provider */\n  dup1\n    /* \"@aave/core-v3/contracts/flashloan/base/FlashLoanSimpleReceiverBase.sol\":700:716  provider.getPool */\n  0xffffffffffffffffffffffffffffffffffffffff\n  and\n  0x026b1d5f\n    /* \"@aave/core-v3/contracts/flashloan/base/FlashLoanSimpleReceiverBase.sol\":700:718  provider.getPool() */\n  mload(0x40)\n  dup2\n  0xffffffff\n  and\n  0xe0\n  shl\n  dup2\n  mstore\n  0x04\n  add\n  0x20\n  mload(0x40)\n  dup1\n  dup4\n  sub\n  dup2\n  dup7\n  gas\n  staticcall\n  iszero\n  dup1\n  iszero\n  tag_8\n  jumpi\n  returndatasize\n  0x00\n  dup1\n  returndatacopy\n  revert(0x00, returndatasize)\ntag_8:\n  pop\n  pop\n  pop\n  pop\n  mload(0x40)\n  returndatasize\n  not(0x1f)\n  0x1f\n  dup3\n  add\n  and\n  dup3\n  add\n  dup1\n  0x40\n  mstore\n  pop\n  dup2\n  add\n  swap1\n  tag_9\n  swap2\n  swap1\n  tag_3\n  jump\t// in\ntag_9:\n    /* \"@aave/core-v3/contracts/flashloan/base/FlashLoanSimpleReceiverBase.sol\":687:719  POOL = IPool(provider.getPool()) */\n  0xffffffffffffffffffffffffffffffffffffffff\n  and\n  0xa0\n  dup2\n  0xffffffffffffffffffffffffffffffffffffffff\n  and\n  dup2\n  mstore\n  pop\n  pop\n    /* \"@aave/core-v3/contracts/flashloan/base/FlashLoanSimpleReceiverBase.sol\":601:724  constructor(IPoolAddressesProvider provider) {... */\n  pop\n    /* \"contracts/AaveFlashLoan.sol\":830:840  msg.sender */\n  caller\n    /* \"contracts/AaveFlashLoan.sol\":822:827  owner */\n  0x00\n  dup1\n    /* \"contracts/AaveFlashLoan.sol\":822:840  owner = msg.sender */\n  0x0100\n  exp\n  dup2\n  sload\n  dup2\n  0xffffffffffffffffffffffffffffffffffffffff\n  mul\n  not\n  and\n  swap1\n  dup4\n  0xffffffffffffffffffffffffffffffffffffffff\n  and\n  mul\n  or\n  swap1\n  sstore\n  pop\n    /* \"contracts/AaveFlashLoan.sol\":692:847  constructor(address _addressProvider)... */\n  pop\n    /* \"contracts/AaveFlashLoan.sol\":339:2475  contract AaveFlashLoan is FlashLoanSimpleReceiverBase {... */\n  jump(tag_11)\n    /* \"#utility.yul\":88:205   */\ntag_13:\n    /* \"#utility.yul\":197:198   */\n  0x00\n    /* \"#utility.yul\":194:195   */\n  dup1\n    /* \"#utility.yul\":187:199   */\n  revert\n    /* \"#utility.yul\":334:460   */\ntag_15:\n    /* \"#utility.yul\":371:378   */\n  0x00\n    /* \"#utility.yul\":411:453   */\n  0xffffffffffffffffffffffffffffffffffffffff\n    /* \"#utility.yul\":404:409   */\n  dup3\n    /* \"#utility.yul\":400:454   */\n  and\n    /* \"#utility.yul\":389:454   */\n  swap1\n  pop\n    /* \"#utility.yul\":334:460   */\n  swap2\n  swap1\n  pop\n  jump\t// out\n    /* \"#utility.yul\":466:562   */\ntag_16:\n    /* \"#utility.yul\":503:510   */\n  0x00\n    /* \"#utility.yul\":532:556   */\n  tag_25\n    /* \"#utility.yul\":550:555   */\n  dup3\n    /* \"#utility.yul\":532:556   */\n  tag_15\n  jump\t// in\ntag_25:\n    /* \"#utility.yul\":521:556   */\n  swap1\n  pop\n    /* \"#utility.yul\":466:562   */\n  swap2\n  swap1\n  pop\n  jump\t// out\n    /* \"#utility.yul\":568:690   */\ntag_17:\n    /* \"#utility.yul\":641:665   */\n  tag_27\n    /* \"#utility.yul\":659:664   */\n  dup2\n    /* \"#utility.yul\":641:665   */\n  tag_16\n  jump\t// in\ntag_27:\n    /* \"#utility.yul\":634:639   */\n  dup2\n    /* \"#utility.yul\":631:666   */\n  eq\n    /* \"#utility.yul\":621:684   */\n  tag_28\n  jumpi\n    /* \"#utility.yul\":680:681   */\n  0x00\n    /* \"#utility.yul\":677:678   */\n  dup1\n    /* \"#utility.yul\":670:682   */\n  revert\n    /* \"#utility.yul\":621:684   */\ntag_28:\n    /* \"#utility.yul\":568:690   */\n  pop\n  jump\t// out\n    /* \"#utility.yul\":696:839   */\ntag_18:\n    /* \"#utility.yul\":753:758   */\n  0x00\n    /* \"#utility.yul\":784:790   */\n  dup2\n    /* \"#utility.yul\":778:791   */\n  mload\n    /* \"#utility.yul\":769:791   */\n  swap1\n  pop\n    /* \"#utility.yul\":800:833   */\n  tag_30\n    /* \"#utility.yul\":827:832   */\n  dup2\n    /* \"#utility.yul\":800:833   */\n  tag_17\n  jump\t// in\ntag_30:\n    /* \"#utility.yul\":696:839   */\n  swap3\n  swap2\n  pop\n  pop\n  jump\t// out\n    /* \"#utility.yul\":845:1196   */\ntag_3:\n    /* \"#utility.yul\":915:921   */\n  0x00\n    /* \"#utility.yul\":964:966   */\n  0x20\n    /* \"#utility.yul\":952:961   */\n  dup3\n    /* \"#utility.yul\":943:950   */\n  dup5\n    /* \"#utility.yul\":939:962   */\n  sub\n    /* \"#utility.yul\":935:967   */\n  slt\n    /* \"#utility.yul\":932:1051   */\n  iszero\n  tag_32\n  jumpi\n    /* \"#utility.yul\":970:1049   */\n  tag_33\n  tag_13\n  jump\t// in\ntag_33:\n    /* \"#utility.yul\":932:1051   */\ntag_32:\n    /* \"#utility.yul\":1090:1091   */\n  0x00\n    /* \"#utility.yul\":1115:1179   */\n  tag_34\n    /* \"#utility.yul\":1171:1178   */\n  dup5\n    /* \"#utility.yul\":1162:1168   */\n  dup3\n    /* \"#utility.yul\":1151:1160   */\n  dup6\n    /* \"#utility.yul\":1147:1169   */\n  add\n    /* \"#utility.yul\":1115:1179   */\n  tag_18\n  jump\t// in\ntag_34:\n    /* \"#utility.yul\":1105:1179   */\n  swap2\n  pop\n    /* \"#utility.yul\":1061:1189   */\n  pop\n    /* \"#utility.yul\":845:1196   */\n  swap3\n  swap2\n  pop\n  pop\n  jump\t// out\n    /* \"contracts/AaveFlashLoan.sol\":339:2475  contract AaveFlashLoan is FlashLoanSimpleReceiverBase {... */\ntag_11:\n  mload(0x80)\n  mload(0xa0)\n  codecopy(0x00, dataOffset(sub_0), dataSize(sub_0))\n  0x00\n  assignImmutable(\"0x8fef2229291b68be841adf029e58b87f39ba144b2d3b0af1760243d0a9bc6a1c\")\n  0x00\n  assignImmutable(\"0x5c4c6aa067b6f8e6cb38e6ab843832a94d1712d661a04d73c517d6a1931a9e5d\")\n  return(0x00, dataSize(sub_0))\nstop\n\nsub_0: assembly {\n        /* \"contracts/AaveFlashLoan.sol\":339:2475  contract AaveFlashLoan is FlashLoanSimpleReceiverBase {... */\n      mstore(0x40, 0x80)\n      jumpi(tag_1, lt(calldatasize, 0x04))\n      shr(0xe0, calldataload(0x00))\n      dup1\n      0x0542975c\n      eq\n      tag_3\n      jumpi\n      dup1\n      0x1b11d0ff\n      eq\n      tag_4\n      jumpi\n      dup1\n      0x7535d246\n      eq\n      tag_5\n      jumpi\n      dup1\n      0x87c7f0ac\n      eq\n      tag_6\n      jumpi\n      dup1\n      0x8da5cb5b\n      eq\n      tag_7\n      jumpi\n      jump(tag_2)\n    tag_1:\n      jumpi(tag_2, calldatasize)\n      stop\n    tag_2:\n      0x00\n      dup1\n      revert\n        /* \"@aave/core-v3/contracts/flashloan/base/FlashLoanSimpleReceiverBase.sol\":489:556  IPoolAddressesProvider public immutable override ADDRESSES_PROVIDER */\n    tag_3:\n      callvalue\n      dup1\n      iszero\n      tag_10\n      jumpi\n      0x00\n      dup1\n      revert\n    tag_10:\n      pop\n      tag_11\n      tag_12\n      jump\t// in\n    tag_11:\n      mload(0x40)\n      tag_13\n      swap2\n      swap1\n      tag_14\n      jump\t// in\n    tag_13:\n      mload(0x40)\n      dup1\n      swap2\n      sub\n      swap1\n      return\n        /* \"contracts/AaveFlashLoan.sol\":1373:1804  function  executeOperation(... */\n    tag_4:\n      callvalue\n      dup1\n      iszero\n      tag_15\n      jumpi\n      0x00\n      dup1\n      revert\n    tag_15:\n      pop\n      tag_16\n      0x04\n      dup1\n      calldatasize\n      sub\n      dup2\n      add\n      swap1\n      tag_17\n      swap2\n      swap1\n      tag_18\n      jump\t// in\n    tag_17:\n      tag_19\n      jump\t// in\n    tag_16:\n      mload(0x40)\n      tag_20\n      swap2\n      swap1\n      tag_21\n      jump\t// in\n    tag_20:\n      mload(0x40)\n      dup1\n      swap2\n      sub\n      swap1\n      return\n        /* \"@aave/core-v3/contracts/flashloan/base/FlashLoanSimpleReceiverBase.sol\":560:596  IPool public immutable override POOL */\n    tag_5:\n      callvalue\n      dup1\n      iszero\n      tag_22\n      jumpi\n      0x00\n      dup1\n      revert\n    tag_22:\n      pop\n      tag_23\n      tag_24\n      jump\t// in\n    tag_23:\n      mload(0x40)\n      tag_25\n      swap2\n      swap1\n      tag_26\n      jump\t// in\n    tag_25:\n      mload(0x40)\n      dup1\n      swap2\n      sub\n      swap1\n      return\n        /* \"contracts/AaveFlashLoan.sol\":853:1275  function fn_RequestFlashLoan(address _token, uint256 _amount) public onlyOwner{... */\n    tag_6:\n      callvalue\n      dup1\n      iszero\n      tag_27\n      jumpi\n      0x00\n      dup1\n      revert\n    tag_27:\n      pop\n      tag_28\n      0x04\n      dup1\n      calldatasize\n      sub\n      dup2\n      add\n      swap1\n      tag_29\n      swap2\n      swap1\n      tag_30\n      jump\t// in\n    tag_29:\n      tag_31\n      jump\t// in\n    tag_28:\n      stop\n        /* \"contracts/AaveFlashLoan.sol\":399:419  address public owner */\n    tag_7:\n      callvalue\n      dup1\n      iszero\n      tag_32\n      jumpi\n      0x00\n      dup1\n      revert\n    tag_32:\n      pop\n      tag_33\n      tag_34\n      jump\t// in\n    tag_33:\n      mload(0x40)\n      tag_35\n      swap2\n      swap1\n      tag_36\n      jump\t// in\n    tag_35:\n      mload(0x40)\n      dup1\n      swap2\n      sub\n      swap1\n      return\n        /* \"@aave/core-v3/contracts/flashloan/base/FlashLoanSimpleReceiverBase.sol\":489:556  IPoolAddressesProvider public immutable override ADDRESSES_PROVIDER */\n    tag_12:\n      immutable(\"0x5c4c6aa067b6f8e6cb38e6ab843832a94d1712d661a04d73c517d6a1931a9e5d\")\n      dup2\n      jump\t// out\n        /* \"contracts/AaveFlashLoan.sol\":1373:1804  function  executeOperation(... */\n    tag_19:\n        /* \"contracts/AaveFlashLoan.sol\":1564:1568  bool */\n      0x00\n        /* \"contracts/AaveFlashLoan.sol\":1675:1694  uint256 totalAmount */\n      dup1\n        /* \"contracts/AaveFlashLoan.sol\":1706:1713  premium */\n      dup6\n        /* \"contracts/AaveFlashLoan.sol\":1697:1703  amount */\n      dup8\n        /* \"contracts/AaveFlashLoan.sol\":1697:1713  amount + premium */\n      tag_38\n      swap2\n      swap1\n      tag_39\n      jump\t// in\n    tag_38:\n        /* \"contracts/AaveFlashLoan.sol\":1675:1713  uint256 totalAmount = amount + premium */\n      swap1\n      pop\n        /* \"contracts/AaveFlashLoan.sol\":1793:1797  true */\n      0x01\n        /* \"contracts/AaveFlashLoan.sol\":1786:1797  return true */\n      swap2\n      pop\n      pop\n        /* \"contracts/AaveFlashLoan.sol\":1373:1804  function  executeOperation(... */\n      swap7\n      swap6\n      pop\n      pop\n      pop\n      pop\n      pop\n      pop\n      jump\t// out\n        /* \"@aave/core-v3/contracts/flashloan/base/FlashLoanSimpleReceiverBase.sol\":560:596  IPool public immutable override POOL */\n    tag_24:\n      immutable(\"0x8fef2229291b68be841adf029e58b87f39ba144b2d3b0af1760243d0a9bc6a1c\")\n      dup2\n      jump\t// out\n        /* \"contracts/AaveFlashLoan.sol\":853:1275  function fn_RequestFlashLoan(address _token, uint256 _amount) public onlyOwner{... */\n    tag_31:\n        /* \"contracts/AaveFlashLoan.sol\":641:646  owner */\n      0x00\n      dup1\n      sload\n      swap1\n      0x0100\n      exp\n      swap1\n      div\n      0xffffffffffffffffffffffffffffffffffffffff\n      and\n        /* \"contracts/AaveFlashLoan.sol\":627:646  msg.sender == owner */\n      0xffffffffffffffffffffffffffffffffffffffff\n      and\n        /* \"contracts/AaveFlashLoan.sol\":627:637  msg.sender */\n      caller\n        /* \"contracts/AaveFlashLoan.sol\":627:646  msg.sender == owner */\n      0xffffffffffffffffffffffffffffffffffffffff\n      and\n      eq\n        /* \"contracts/AaveFlashLoan.sol\":619:668  require(msg.sender == owner, \"only owner access\") */\n      tag_41\n      jumpi\n      mload(0x40)\n      0x08c379a000000000000000000000000000000000000000000000000000000000\n      dup2\n      mstore\n      0x04\n      add\n      tag_42\n      swap1\n      tag_43\n      jump\t// in\n    tag_42:\n      mload(0x40)\n      dup1\n      swap2\n      sub\n      swap1\n      revert\n    tag_41:\n        /* \"contracts/AaveFlashLoan.sol\":941:964  address receiverAddress */\n      0x00\n        /* \"contracts/AaveFlashLoan.sol\":975:979  this */\n      address\n        /* \"contracts/AaveFlashLoan.sol\":941:980  address receiverAddress = address(this) */\n      swap1\n      pop\n        /* \"contracts/AaveFlashLoan.sol\":990:1003  address asset */\n      0x00\n        /* \"contracts/AaveFlashLoan.sol\":1006:1012  _token */\n      dup4\n        /* \"contracts/AaveFlashLoan.sol\":990:1012  address asset = _token */\n      swap1\n      pop\n        /* \"contracts/AaveFlashLoan.sol\":1022:1036  uint256 amount */\n      0x00\n        /* \"contracts/AaveFlashLoan.sol\":1039:1046  _amount */\n      dup4\n        /* \"contracts/AaveFlashLoan.sol\":1022:1046  uint256 amount = _amount */\n      swap1\n      pop\n        /* \"contracts/AaveFlashLoan.sol\":1056:1075  bytes memory params */\n      0x00\n        /* \"contracts/AaveFlashLoan.sol\":1056:1080  bytes memory params = \"\" */\n      mload(0x40)\n      dup1\n      0x20\n      add\n      0x40\n      mstore\n      dup1\n      0x00\n      dup2\n      mstore\n      pop\n      swap1\n      pop\n        /* \"contracts/AaveFlashLoan.sol\":1090:1109  uint16 referralCode */\n      0x00\n        /* \"contracts/AaveFlashLoan.sol\":1124:1128  POOL */\n      immutable(\"0x8fef2229291b68be841adf029e58b87f39ba144b2d3b0af1760243d0a9bc6a1c\")\n        /* \"contracts/AaveFlashLoan.sol\":1124:1144  POOL.flashLoanSimple */\n      0xffffffffffffffffffffffffffffffffffffffff\n      and\n      0x42b0b77c\n        /* \"contracts/AaveFlashLoan.sol\":1158:1173  receiverAddress */\n      dup7\n        /* \"contracts/AaveFlashLoan.sol\":1187:1192  asset */\n      dup7\n        /* \"contracts/AaveFlashLoan.sol\":1206:1212  amount */\n      dup7\n        /* \"contracts/AaveFlashLoan.sol\":1226:1232  params */\n      dup7\n        /* \"contracts/AaveFlashLoan.sol\":1246:1258  referralCode */\n      dup7\n        /* \"contracts/AaveFlashLoan.sol\":1124:1268  POOL.flashLoanSimple(... */\n      mload(0x40)\n      dup7\n      0xffffffff\n      and\n      0xe0\n      shl\n      dup2\n      mstore\n      0x04\n      add\n      tag_45\n      swap6\n      swap5\n      swap4\n      swap3\n      swap2\n      swap1\n      tag_46\n      jump\t// in\n    tag_45:\n      0x00\n      mload(0x40)\n      dup1\n      dup4\n      sub\n      dup2\n      0x00\n      dup8\n      dup1\n      extcodesize\n      iszero\n      dup1\n      iszero\n      tag_47\n      jumpi\n      0x00\n      dup1\n      revert\n    tag_47:\n      pop\n      gas\n      call\n      iszero\n      dup1\n      iszero\n      tag_49\n      jumpi\n      returndatasize\n      0x00\n      dup1\n      returndatacopy\n      revert(0x00, returndatasize)\n    tag_49:\n      pop\n      pop\n      pop\n      pop\n        /* \"contracts/AaveFlashLoan.sol\":931:1275  {... */\n      pop\n      pop\n      pop\n      pop\n      pop\n        /* \"contracts/AaveFlashLoan.sol\":853:1275  function fn_RequestFlashLoan(address _token, uint256 _amount) public onlyOwner{... */\n      pop\n      pop\n      jump\t// out\n        /* \"contracts/AaveFlashLoan.sol\":399:419  address public owner */\n    tag_34:\n      0x00\n      dup1\n      sload\n      swap1\n      0x0100\n      exp\n      swap1\n      div\n      0xffffffffffffffffffffffffffffffffffffffff\n      and\n      dup2\n      jump\t// out\n        /* \"#utility.yul\":7:133   */\n    tag_50:\n        /* \"#utility.yul\":44:51   */\n      0x00\n        /* \"#utility.yul\":84:126   */\n      0xffffffffffffffffffffffffffffffffffffffff\n        /* \"#utility.yul\":77:82   */\n      dup3\n        /* \"#utility.yul\":73:127   */\n      and\n        /* \"#utility.yul\":62:127   */\n      swap1\n      pop\n        /* \"#utility.yul\":7:133   */\n      swap2\n      swap1\n      pop\n      jump\t// out\n        /* \"#utility.yul\":139:199   */\n    tag_51:\n        /* \"#utility.yul\":167:170   */\n      0x00\n        /* \"#utility.yul\":188:193   */\n      dup2\n        /* \"#utility.yul\":181:193   */\n      swap1\n      pop\n        /* \"#utility.yul\":139:199   */\n      swap2\n      swap1\n      pop\n      jump\t// out\n        /* \"#utility.yul\":205:347   */\n    tag_52:\n        /* \"#utility.yul\":255:264   */\n      0x00\n        /* \"#utility.yul\":288:341   */\n      tag_90\n        /* \"#utility.yul\":306:340   */\n      tag_91\n        /* \"#utility.yul\":315:339   */\n      tag_92\n        /* \"#utility.yul\":333:338   */\n      dup5\n        /* \"#utility.yul\":315:339   */\n      tag_50\n      jump\t// in\n    tag_92:\n        /* \"#utility.yul\":306:340   */\n      tag_51\n      jump\t// in\n    tag_91:\n        /* \"#utility.yul\":288:341   */\n      tag_50\n      jump\t// in\n    tag_90:\n        /* \"#utility.yul\":275:341   */\n      swap1\n      pop\n        /* \"#utility.yul\":205:347   */\n      swap2\n      swap1\n      pop\n      jump\t// out\n        /* \"#utility.yul\":353:479   */\n    tag_53:\n        /* \"#utility.yul\":403:412   */\n      0x00\n        /* \"#utility.yul\":436:473   */\n      tag_94\n        /* \"#utility.yul\":467:472   */\n      dup3\n        /* \"#utility.yul\":436:473   */\n      tag_52\n      jump\t// in\n    tag_94:\n        /* \"#utility.yul\":423:473   */\n      swap1\n      pop\n        /* \"#utility.yul\":353:479   */\n      swap2\n      swap1\n      pop\n      jump\t// out\n        /* \"#utility.yul\":485:641   */\n    tag_54:\n        /* \"#utility.yul\":565:574   */\n      0x00\n        /* \"#utility.yul\":598:635   */\n      tag_96\n        /* \"#utility.yul\":629:634   */\n      dup3\n        /* \"#utility.yul\":598:635   */\n      tag_53\n      jump\t// in\n    tag_96:\n        /* \"#utility.yul\":585:635   */\n      swap1\n      pop\n        /* \"#utility.yul\":485:641   */\n      swap2\n      swap1\n      pop\n      jump\t// out\n        /* \"#utility.yul\":647:838   */\n    tag_55:\n        /* \"#utility.yul\":764:831   */\n      tag_98\n        /* \"#utility.yul\":825:830   */\n      dup2\n        /* \"#utility.yul\":764:831   */\n      tag_54\n      jump\t// in\n    tag_98:\n        /* \"#utility.yul\":759:762   */\n      dup3\n        /* \"#utility.yul\":752:832   */\n      mstore\n        /* \"#utility.yul\":647:838   */\n      pop\n      pop\n      jump\t// out\n        /* \"#utility.yul\":844:1126   */\n    tag_14:\n        /* \"#utility.yul\":967:971   */\n      0x00\n        /* \"#utility.yul\":1005:1007   */\n      0x20\n        /* \"#utility.yul\":994:1003   */\n      dup3\n        /* \"#utility.yul\":990:1008   */\n      add\n        /* \"#utility.yul\":982:1008   */\n      swap1\n      pop\n        /* \"#utility.yul\":1018:1119   */\n      tag_100\n        /* \"#utility.yul\":1116:1117   */\n      0x00\n        /* \"#utility.yul\":1105:1114   */\n      dup4\n        /* \"#utility.yul\":1101:1118   */\n      add\n        /* \"#utility.yul\":1092:1098   */\n      dup5\n        /* \"#utility.yul\":1018:1119   */\n      tag_55\n      jump\t// in\n    tag_100:\n        /* \"#utility.yul\":844:1126   */\n      swap3\n      swap2\n      pop\n      pop\n      jump\t// out\n        /* \"#utility.yul\":1213:1330   */\n    tag_57:\n        /* \"#utility.yul\":1322:1323   */\n      0x00\n        /* \"#utility.yul\":1319:1320   */\n      dup1\n        /* \"#utility.yul\":1312:1324   */\n      revert\n        /* \"#utility.yul\":1336:1453   */\n    tag_58:\n        /* \"#utility.yul\":1445:1446   */\n      0x00\n        /* \"#utility.yul\":1442:1443   */\n      dup1\n        /* \"#utility.yul\":1435:1447   */\n      revert\n        /* \"#utility.yul\":1459:1555   */\n    tag_59:\n        /* \"#utility.yul\":1496:1503   */\n      0x00\n        /* \"#utility.yul\":1525:1549   */\n      tag_105\n        /* \"#utility.yul\":1543:1548   */\n      dup3\n        /* \"#utility.yul\":1525:1549   */\n      tag_50\n      jump\t// in\n    tag_105:\n        /* \"#utility.yul\":1514:1549   */\n      swap1\n      pop\n        /* \"#utility.yul\":1459:1555   */\n      swap2\n      swap1\n      pop\n      jump\t// out\n        /* \"#utility.yul\":1561:1683   */\n    tag_60:\n        /* \"#utility.yul\":1634:1658   */\n      tag_107\n        /* \"#utility.yul\":1652:1657   */\n      dup2\n        /* \"#utility.yul\":1634:1658   */\n      tag_59\n      jump\t// in\n    tag_107:\n        /* \"#utility.yul\":1627:1632   */\n      dup2\n        /* \"#utility.yul\":1624:1659   */\n      eq\n        /* \"#utility.yul\":1614:1677   */\n      tag_108\n      jumpi\n        /* \"#utility.yul\":1673:1674   */\n      0x00\n        /* \"#utility.yul\":1670:1671   */\n      dup1\n        /* \"#utility.yul\":1663:1675   */\n      revert\n        /* \"#utility.yul\":1614:1677   */\n    tag_108:\n        /* \"#utility.yul\":1561:1683   */\n      pop\n      jump\t// out\n        /* \"#utility.yul\":1689:1828   */\n    tag_61:\n        /* \"#utility.yul\":1735:1740   */\n      0x00\n        /* \"#utility.yul\":1773:1779   */\n      dup2\n        /* \"#utility.yul\":1760:1780   */\n      calldataload\n        /* \"#utility.yul\":1751:1780   */\n      swap1\n      pop\n        /* \"#utility.yul\":1789:1822   */\n      tag_110\n        /* \"#utility.yul\":1816:1821   */\n      dup2\n        /* \"#utility.yul\":1789:1822   */\n      tag_60\n      jump\t// in\n    tag_110:\n        /* \"#utility.yul\":1689:1828   */\n      swap3\n      swap2\n      pop\n      pop\n      jump\t// out\n        /* \"#utility.yul\":1834:1911   */\n    tag_62:\n        /* \"#utility.yul\":1871:1878   */\n      0x00\n        /* \"#utility.yul\":1900:1905   */\n      dup2\n        /* \"#utility.yul\":1889:1905   */\n      swap1\n      pop\n        /* \"#utility.yul\":1834:1911   */\n      swap2\n      swap1\n      pop\n      jump\t// out\n        /* \"#utility.yul\":1917:2039   */\n    tag_63:\n        /* \"#utility.yul\":1990:2014   */\n      tag_113\n        /* \"#utility.yul\":2008:2013   */\n      dup2\n        /* \"#utility.yul\":1990:2014   */\n      tag_62\n      jump\t// in\n    tag_113:\n        /* \"#utility.yul\":1983:1988   */\n      dup2\n        /* \"#utility.yul\":1980:2015   */\n      eq\n        /* \"#utility.yul\":1970:2033   */\n      tag_114\n      jumpi\n        /* \"#utility.yul\":2029:2030   */\n      0x00\n        /* \"#utility.yul\":2026:2027   */\n      dup1\n        /* \"#utility.yul\":2019:2031   */\n      revert\n        /* \"#utility.yul\":1970:2033   */\n    tag_114:\n        /* \"#utility.yul\":1917:2039   */\n      pop\n      jump\t// out\n        /* \"#utility.yul\":2045:2184   */\n    tag_64:\n        /* \"#utility.yul\":2091:2096   */\n      0x00\n        /* \"#utility.yul\":2129:2135   */\n      dup2\n        /* \"#utility.yul\":2116:2136   */\n      calldataload\n        /* \"#utility.yul\":2107:2136   */\n      swap1\n      pop\n        /* \"#utility.yul\":2145:2178   */\n      tag_116\n        /* \"#utility.yul\":2172:2177   */\n      dup2\n        /* \"#utility.yul\":2145:2178   */\n      tag_63\n      jump\t// in\n    tag_116:\n        /* \"#utility.yul\":2045:2184   */\n      swap3\n      swap2\n      pop\n      pop\n      jump\t// out\n        /* \"#utility.yul\":2190:2307   */\n    tag_65:\n        /* \"#utility.yul\":2299:2300   */\n      0x00\n        /* \"#utility.yul\":2296:2297   */\n      dup1\n        /* \"#utility.yul\":2289:2301   */\n      revert\n        /* \"#utility.yul\":2313:2430   */\n    tag_66:\n        /* \"#utility.yul\":2422:2423   */\n      0x00\n        /* \"#utility.yul\":2419:2420   */\n      dup1\n        /* \"#utility.yul\":2412:2424   */\n      revert\n        /* \"#utility.yul\":2436:2553   */\n    tag_67:\n        /* \"#utility.yul\":2545:2546   */\n      0x00\n        /* \"#utility.yul\":2542:2543   */\n      dup1\n        /* \"#utility.yul\":2535:2547   */\n      revert\n        /* \"#utility.yul\":2572:3124   */\n    tag_68:\n        /* \"#utility.yul\":2629:2637   */\n      0x00\n        /* \"#utility.yul\":2639:2645   */\n      dup1\n        /* \"#utility.yul\":2689:2692   */\n      dup4\n        /* \"#utility.yul\":2682:2686   */\n      0x1f\n        /* \"#utility.yul\":2674:2680   */\n      dup5\n        /* \"#utility.yul\":2670:2687   */\n      add\n        /* \"#utility.yul\":2666:2693   */\n      slt\n        /* \"#utility.yul\":2656:2778   */\n      tag_121\n      jumpi\n        /* \"#utility.yul\":2697:2776   */\n      tag_122\n      tag_65\n      jump\t// in\n    tag_122:\n        /* \"#utility.yul\":2656:2778   */\n    tag_121:\n        /* \"#utility.yul\":2810:2816   */\n      dup3\n        /* \"#utility.yul\":2797:2817   */\n      calldataload\n        /* \"#utility.yul\":2787:2817   */\n      swap1\n      pop\n        /* \"#utility.yul\":2840:2858   */\n      0xffffffffffffffff\n        /* \"#utility.yul\":2832:2838   */\n      dup2\n        /* \"#utility.yul\":2829:2859   */\n      gt\n        /* \"#utility.yul\":2826:2943   */\n      iszero\n      tag_123\n      jumpi\n        /* \"#utility.yul\":2862:2941   */\n      tag_124\n      tag_66\n      jump\t// in\n    tag_124:\n        /* \"#utility.yul\":2826:2943   */\n    tag_123:\n        /* \"#utility.yul\":2976:2980   */\n      0x20\n        /* \"#utility.yul\":2968:2974   */\n      dup4\n        /* \"#utility.yul\":2964:2981   */\n      add\n        /* \"#utility.yul\":2952:2981   */\n      swap2\n      pop\n        /* \"#utility.yul\":3030:3033   */\n      dup4\n        /* \"#utility.yul\":3022:3026   */\n      0x01\n        /* \"#utility.yul\":3014:3020   */\n      dup3\n        /* \"#utility.yul\":3010:3027   */\n      mul\n        /* \"#utility.yul\":3000:3008   */\n      dup4\n        /* \"#utility.yul\":2996:3028   */\n      add\n        /* \"#utility.yul\":2993:3034   */\n      gt\n        /* \"#utility.yul\":2990:3118   */\n      iszero\n      tag_125\n      jumpi\n        /* \"#utility.yul\":3037:3116   */\n      tag_126\n      tag_67\n      jump\t// in\n    tag_126:\n        /* \"#utility.yul\":2990:3118   */\n    tag_125:\n        /* \"#utility.yul\":2572:3124   */\n      swap3\n      pop\n      swap3\n      swap1\n      pop\n      jump\t// out\n        /* \"#utility.yul\":3130:4239   */\n    tag_18:\n        /* \"#utility.yul\":3236:3242   */\n      0x00\n        /* \"#utility.yul\":3244:3250   */\n      dup1\n        /* \"#utility.yul\":3252:3258   */\n      0x00\n        /* \"#utility.yul\":3260:3266   */\n      dup1\n        /* \"#utility.yul\":3268:3274   */\n      0x00\n        /* \"#utility.yul\":3276:3282   */\n      dup1\n        /* \"#utility.yul\":3325:3328   */\n      0xa0\n        /* \"#utility.yul\":3313:3322   */\n      dup8\n        /* \"#utility.yul\":3304:3311   */\n      dup10\n        /* \"#utility.yul\":3300:3323   */\n      sub\n        /* \"#utility.yul\":3296:3329   */\n      slt\n        /* \"#utility.yul\":3293:3413   */\n      iszero\n      tag_128\n      jumpi\n        /* \"#utility.yul\":3332:3411   */\n      tag_129\n      tag_57\n      jump\t// in\n    tag_129:\n        /* \"#utility.yul\":3293:3413   */\n    tag_128:\n        /* \"#utility.yul\":3452:3453   */\n      0x00\n        /* \"#utility.yul\":3477:3530   */\n      tag_130\n        /* \"#utility.yul\":3522:3529   */\n      dup10\n        /* \"#utility.yul\":3513:3519   */\n      dup3\n        /* \"#utility.yul\":3502:3511   */\n      dup11\n        /* \"#utility.yul\":3498:3520   */\n      add\n        /* \"#utility.yul\":3477:3530   */\n      tag_61\n      jump\t// in\n    tag_130:\n        /* \"#utility.yul\":3467:3530   */\n      swap7\n      pop\n        /* \"#utility.yul\":3423:3540   */\n      pop\n        /* \"#utility.yul\":3579:3581   */\n      0x20\n        /* \"#utility.yul\":3605:3658   */\n      tag_131\n        /* \"#utility.yul\":3650:3657   */\n      dup10\n        /* \"#utility.yul\":3641:3647   */\n      dup3\n        /* \"#utility.yul\":3630:3639   */\n      dup11\n        /* \"#utility.yul\":3626:3648   */\n      add\n        /* \"#utility.yul\":3605:3658   */\n      tag_64\n      jump\t// in\n    tag_131:\n        /* \"#utility.yul\":3595:3658   */\n      swap6\n      pop\n        /* \"#utility.yul\":3550:3668   */\n      pop\n        /* \"#utility.yul\":3707:3709   */\n      0x40\n        /* \"#utility.yul\":3733:3786   */\n      tag_132\n        /* \"#utility.yul\":3778:3785   */\n      dup10\n        /* \"#utility.yul\":3769:3775   */\n      dup3\n        /* \"#utility.yul\":3758:3767   */\n      dup11\n        /* \"#utility.yul\":3754:3776   */\n      add\n        /* \"#utility.yul\":3733:3786   */\n      tag_64\n      jump\t// in\n    tag_132:\n        /* \"#utility.yul\":3723:3786   */\n      swap5\n      pop\n        /* \"#utility.yul\":3678:3796   */\n      pop\n        /* \"#utility.yul\":3835:3837   */\n      0x60\n        /* \"#utility.yul\":3861:3914   */\n      tag_133\n        /* \"#utility.yul\":3906:3913   */\n      dup10\n        /* \"#utility.yul\":3897:3903   */\n      dup3\n        /* \"#utility.yul\":3886:3895   */\n      dup11\n        /* \"#utility.yul\":3882:3904   */\n      add\n        /* \"#utility.yul\":3861:3914   */\n      tag_61\n      jump\t// in\n    tag_133:\n        /* \"#utility.yul\":3851:3914   */\n      swap4\n      pop\n        /* \"#utility.yul\":3806:3924   */\n      pop\n        /* \"#utility.yul\":3991:3994   */\n      0x80\n        /* \"#utility.yul\":3980:3989   */\n      dup8\n        /* \"#utility.yul\":3976:3995   */\n      add\n        /* \"#utility.yul\":3963:3996   */\n      calldataload\n        /* \"#utility.yul\":4023:4041   */\n      0xffffffffffffffff\n        /* \"#utility.yul\":4015:4021   */\n      dup2\n        /* \"#utility.yul\":4012:4042   */\n      gt\n        /* \"#utility.yul\":4009:4126   */\n      iszero\n      tag_134\n      jumpi\n        /* \"#utility.yul\":4045:4124   */\n      tag_135\n      tag_58\n      jump\t// in\n    tag_135:\n        /* \"#utility.yul\":4009:4126   */\n    tag_134:\n        /* \"#utility.yul\":4158:4222   */\n      tag_136\n        /* \"#utility.yul\":4214:4221   */\n      dup10\n        /* \"#utility.yul\":4205:4211   */\n      dup3\n        /* \"#utility.yul\":4194:4203   */\n      dup11\n        /* \"#utility.yul\":4190:4212   */\n      add\n        /* \"#utility.yul\":4158:4222   */\n      tag_68\n      jump\t// in\n    tag_136:\n        /* \"#utility.yul\":4140:4222   */\n      swap3\n      pop\n      swap3\n      pop\n        /* \"#utility.yul\":3934:4232   */\n      pop\n        /* \"#utility.yul\":3130:4239   */\n      swap3\n      swap6\n      pop\n      swap3\n      swap6\n      pop\n      swap3\n      swap6\n      jump\t// out\n        /* \"#utility.yul\":4245:4335   */\n    tag_69:\n        /* \"#utility.yul\":4279:4286   */\n      0x00\n        /* \"#utility.yul\":4322:4327   */\n      dup2\n        /* \"#utility.yul\":4315:4328   */\n      iszero\n        /* \"#utility.yul\":4308:4329   */\n      iszero\n        /* \"#utility.yul\":4297:4329   */\n      swap1\n      pop\n        /* \"#utility.yul\":4245:4335   */\n      swap2\n      swap1\n      pop\n      jump\t// out\n        /* \"#utility.yul\":4341:4450   */\n    tag_70:\n        /* \"#utility.yul\":4422:4443   */\n      tag_139\n        /* \"#utility.yul\":4437:4442   */\n      dup2\n        /* \"#utility.yul\":4422:4443   */\n      tag_69\n      jump\t// in\n    tag_139:\n        /* \"#utility.yul\":4417:4420   */\n      dup3\n        /* \"#utility.yul\":4410:4444   */\n      mstore\n        /* \"#utility.yul\":4341:4450   */\n      pop\n      pop\n      jump\t// out\n        /* \"#utility.yul\":4456:4666   */\n    tag_21:\n        /* \"#utility.yul\":4543:4547   */\n      0x00\n        /* \"#utility.yul\":4581:4583   */\n      0x20\n        /* \"#utility.yul\":4570:4579   */\n      dup3\n        /* \"#utility.yul\":4566:4584   */\n      add\n        /* \"#utility.yul\":4558:4584   */\n      swap1\n      pop\n        /* \"#utility.yul\":4594:4659   */\n      tag_141\n        /* \"#utility.yul\":4656:4657   */\n      0x00\n        /* \"#utility.yul\":4645:4654   */\n      dup4\n        /* \"#utility.yul\":4641:4658   */\n      add\n        /* \"#utility.yul\":4632:4638   */\n      dup5\n        /* \"#utility.yul\":4594:4659   */\n      tag_70\n      jump\t// in\n    tag_141:\n        /* \"#utility.yul\":4456:4666   */\n      swap3\n      swap2\n      pop\n      pop\n      jump\t// out\n        /* \"#utility.yul\":4672:4811   */\n    tag_71:\n        /* \"#utility.yul\":4735:4744   */\n      0x00\n        /* \"#utility.yul\":4768:4805   */\n      tag_143\n        /* \"#utility.yul\":4799:4804   */\n      dup3\n        /* \"#utility.yul\":4768:4805   */\n      tag_53\n      jump\t// in\n    tag_143:\n        /* \"#utility.yul\":4755:4805   */\n      swap1\n      pop\n        /* \"#utility.yul\":4672:4811   */\n      swap2\n      swap1\n      pop\n      jump\t// out\n        /* \"#utility.yul\":4817:4974   */\n    tag_72:\n        /* \"#utility.yul\":4917:4967   */\n      tag_145\n        /* \"#utility.yul\":4961:4966   */\n      dup2\n        /* \"#utility.yul\":4917:4967   */\n      tag_71\n      jump\t// in\n    tag_145:\n        /* \"#utility.yul\":4912:4915   */\n      dup3\n        /* \"#utility.yul\":4905:4968   */\n      mstore\n        /* \"#utility.yul\":4817:4974   */\n      pop\n      pop\n      jump\t// out\n        /* \"#utility.yul\":4980:5228   */\n    tag_26:\n        /* \"#utility.yul\":5086:5090   */\n      0x00\n        /* \"#utility.yul\":5124:5126   */\n      0x20\n        /* \"#utility.yul\":5113:5122   */\n      dup3\n        /* \"#utility.yul\":5109:5127   */\n      add\n        /* \"#utility.yul\":5101:5127   */\n      swap1\n      pop\n        /* \"#utility.yul\":5137:5221   */\n      tag_147\n        /* \"#utility.yul\":5218:5219   */\n      0x00\n        /* \"#utility.yul\":5207:5216   */\n      dup4\n        /* \"#utility.yul\":5203:5220   */\n      add\n        /* \"#utility.yul\":5194:5200   */\n      dup5\n        /* \"#utility.yul\":5137:5221   */\n      tag_72\n      jump\t// in\n    tag_147:\n        /* \"#utility.yul\":4980:5228   */\n      swap3\n      swap2\n      pop\n      pop\n      jump\t// out\n        /* \"#utility.yul\":5234:5708   */\n    tag_30:\n        /* \"#utility.yul\":5302:5308   */\n      0x00\n        /* \"#utility.yul\":5310:5316   */\n      dup1\n        /* \"#utility.yul\":5359:5361   */\n      0x40\n        /* \"#utility.yul\":5347:5356   */\n      dup4\n        /* \"#utility.yul\":5338:5345   */\n      dup6\n        /* \"#utility.yul\":5334:5357   */\n      sub\n        /* \"#utility.yul\":5330:5362   */\n      slt\n        /* \"#utility.yul\":5327:5446   */\n      iszero\n      tag_149\n      jumpi\n        /* \"#utility.yul\":5365:5444   */\n      tag_150\n      tag_57\n      jump\t// in\n    tag_150:\n        /* \"#utility.yul\":5327:5446   */\n    tag_149:\n        /* \"#utility.yul\":5485:5486   */\n      0x00\n        /* \"#utility.yul\":5510:5563   */\n      tag_151\n        /* \"#utility.yul\":5555:5562   */\n      dup6\n        /* \"#utility.yul\":5546:5552   */\n      dup3\n        /* \"#utility.yul\":5535:5544   */\n      dup7\n        /* \"#utility.yul\":5531:5553   */\n      add\n        /* \"#utility.yul\":5510:5563   */\n      tag_61\n      jump\t// in\n    tag_151:\n        /* \"#utility.yul\":5500:5563   */\n      swap3\n      pop\n        /* \"#utility.yul\":5456:5573   */\n      pop\n        /* \"#utility.yul\":5612:5614   */\n      0x20\n        /* \"#utility.yul\":5638:5691   */\n      tag_152\n        /* \"#utility.yul\":5683:5690   */\n      dup6\n        /* \"#utility.yul\":5674:5680   */\n      dup3\n        /* \"#utility.yul\":5663:5672   */\n      dup7\n        /* \"#utility.yul\":5659:5681   */\n      add\n        /* \"#utility.yul\":5638:5691   */\n      tag_64\n      jump\t// in\n    tag_152:\n        /* \"#utility.yul\":5628:5691   */\n      swap2\n      pop\n        /* \"#utility.yul\":5583:5701   */\n      pop\n        /* \"#utility.yul\":5234:5708   */\n      swap3\n      pop\n      swap3\n      swap1\n      pop\n      jump\t// out\n        /* \"#utility.yul\":5714:5832   */\n    tag_73:\n        /* \"#utility.yul\":5801:5825   */\n      tag_154\n        /* \"#utility.yul\":5819:5824   */\n      dup2\n        /* \"#utility.yul\":5801:5825   */\n      tag_59\n      jump\t// in\n    tag_154:\n        /* \"#utility.yul\":5796:5799   */\n      dup3\n        /* \"#utility.yul\":5789:5826   */\n      mstore\n        /* \"#utility.yul\":5714:5832   */\n      pop\n      pop\n      jump\t// out\n        /* \"#utility.yul\":5838:6060   */\n    tag_36:\n        /* \"#utility.yul\":5931:5935   */\n      0x00\n        /* \"#utility.yul\":5969:5971   */\n      0x20\n        /* \"#utility.yul\":5958:5967   */\n      dup3\n        /* \"#utility.yul\":5954:5972   */\n      add\n        /* \"#utility.yul\":5946:5972   */\n      swap1\n      pop\n        /* \"#utility.yul\":5982:6053   */\n      tag_156\n        /* \"#utility.yul\":6050:6051   */\n      0x00\n        /* \"#utility.yul\":6039:6048   */\n      dup4\n        /* \"#utility.yul\":6035:6052   */\n      add\n        /* \"#utility.yul\":6026:6032   */\n      dup5\n        /* \"#utility.yul\":5982:6053   */\n      tag_73\n      jump\t// in\n    tag_156:\n        /* \"#utility.yul\":5838:6060   */\n      swap3\n      swap2\n      pop\n      pop\n      jump\t// out\n        /* \"#utility.yul\":6066:6246   */\n    tag_74:\n        /* \"#utility.yul\":6114:6191   */\n      0x4e487b7100000000000000000000000000000000000000000000000000000000\n        /* \"#utility.yul\":6111:6112   */\n      0x00\n        /* \"#utility.yul\":6104:6192   */\n      mstore\n        /* \"#utility.yul\":6211:6215   */\n      0x11\n        /* \"#utility.yul\":6208:6209   */\n      0x04\n        /* \"#utility.yul\":6201:6216   */\n      mstore\n        /* \"#utility.yul\":6235:6239   */\n      0x24\n        /* \"#utility.yul\":6232:6233   */\n      0x00\n        /* \"#utility.yul\":6225:6240   */\n      revert\n        /* \"#utility.yul\":6252:6557   */\n    tag_39:\n        /* \"#utility.yul\":6292:6295   */\n      0x00\n        /* \"#utility.yul\":6311:6331   */\n      tag_159\n        /* \"#utility.yul\":6329:6330   */\n      dup3\n        /* \"#utility.yul\":6311:6331   */\n      tag_62\n      jump\t// in\n    tag_159:\n        /* \"#utility.yul\":6306:6331   */\n      swap2\n      pop\n        /* \"#utility.yul\":6345:6365   */\n      tag_160\n        /* \"#utility.yul\":6363:6364   */\n      dup4\n        /* \"#utility.yul\":6345:6365   */\n      tag_62\n      jump\t// in\n    tag_160:\n        /* \"#utility.yul\":6340:6365   */\n      swap3\n      pop\n        /* \"#utility.yul\":6499:6500   */\n      dup3\n        /* \"#utility.yul\":6431:6497   */\n      0xffffffffffffffffffffffffffffffffffffffffffffffffffffffffffffffff\n        /* \"#utility.yul\":6427:6501   */\n      sub\n        /* \"#utility.yul\":6424:6425   */\n      dup3\n        /* \"#utility.yul\":6421:6502   */\n      gt\n        /* \"#utility.yul\":6418:6525   */\n      iszero\n      tag_161\n      jumpi\n        /* \"#utility.yul\":6505:6523   */\n      tag_162\n      tag_74\n      jump\t// in\n    tag_162:\n        /* \"#utility.yul\":6418:6525   */\n    tag_161:\n        /* \"#utility.yul\":6549:6550   */\n      dup3\n        /* \"#utility.yul\":6546:6547   */\n      dup3\n        /* \"#utility.yul\":6542:6551   */\n      add\n        /* \"#utility.yul\":6535:6551   */\n      swap1\n      pop\n        /* \"#utility.yul\":6252:6557   */\n      swap3\n      swap2\n      pop\n      pop\n      jump\t// out\n        /* \"#utility.yul\":6563:6732   */\n    tag_75:\n        /* \"#utility.yul\":6647:6658   */\n      0x00\n        /* \"#utility.yul\":6681:6687   */\n      dup3\n        /* \"#utility.yul\":6676:6679   */\n      dup3\n        /* \"#utility.yul\":6669:6688   */\n      mstore\n        /* \"#utility.yul\":6721:6725   */\n      0x20\n        /* \"#utility.yul\":6716:6719   */\n      dup3\n        /* \"#utility.yul\":6712:6726   */\n      add\n        /* \"#utility.yul\":6697:6726   */\n      swap1\n      pop\n        /* \"#utility.yul\":6563:6732   */\n      swap3\n      swap2\n      pop\n      pop\n      jump\t// out\n        /* \"#utility.yul\":6738:6905   */\n    tag_76:\n        /* \"#utility.yul\":6878:6897   */\n      0x6f6e6c79206f776e657220616363657373000000000000000000000000000000\n        /* \"#utility.yul\":6874:6875   */\n      0x00\n        /* \"#utility.yul\":6866:6872   */\n      dup3\n        /* \"#utility.yul\":6862:6876   */\n      add\n        /* \"#utility.yul\":6855:6898   */\n      mstore\n        /* \"#utility.yul\":6738:6905   */\n      pop\n      jump\t// out\n        /* \"#utility.yul\":6911:7277   */\n    tag_77:\n        /* \"#utility.yul\":7053:7056   */\n      0x00\n        /* \"#utility.yul\":7074:7141   */\n      tag_166\n        /* \"#utility.yul\":7138:7140   */\n      0x11\n        /* \"#utility.yul\":7133:7136   */\n      dup4\n        /* \"#utility.yul\":7074:7141   */\n      tag_75\n      jump\t// in\n    tag_166:\n        /* \"#utility.yul\":7067:7141   */\n      swap2\n      pop\n        /* \"#utility.yul\":7150:7243   */\n      tag_167\n        /* \"#utility.yul\":7239:7242   */\n      dup3\n        /* \"#utility.yul\":7150:7243   */\n      tag_76\n      jump\t// in\n    tag_167:\n        /* \"#utility.yul\":7268:7270   */\n      0x20\n        /* \"#utility.yul\":7263:7266   */\n      dup3\n        /* \"#utility.yul\":7259:7271   */\n      add\n        /* \"#utility.yul\":7252:7271   */\n      swap1\n      pop\n        /* \"#utility.yul\":6911:7277   */\n      swap2\n      swap1\n      pop\n      jump\t// out\n        /* \"#utility.yul\":7283:7702   */\n    tag_43:\n        /* \"#utility.yul\":7449:7453   */\n      0x00\n        /* \"#utility.yul\":7487:7489   */\n      0x20\n        /* \"#utility.yul\":7476:7485   */\n      dup3\n        /* \"#utility.yul\":7472:7490   */\n      add\n        /* \"#utility.yul\":7464:7490   */\n      swap1\n      pop\n        /* \"#utility.yul\":7536:7545   */\n      dup2\n        /* \"#utility.yul\":7530:7534   */\n      dup2\n        /* \"#utility.yul\":7526:7546   */\n      sub\n        /* \"#utility.yul\":7522:7523   */\n      0x00\n        /* \"#utility.yul\":7511:7520   */\n      dup4\n        /* \"#utility.yul\":7507:7524   */\n      add\n        /* \"#utility.yul\":7500:7547   */\n      mstore\n        /* \"#utility.yul\":7564:7695   */\n      tag_169\n        /* \"#utility.yul\":7690:7694   */\n      dup2\n        /* \"#utility.yul\":7564:7695   */\n      tag_77\n      jump\t// in\n    tag_169:\n        /* \"#utility.yul\":7556:7695   */\n      swap1\n      pop\n        /* \"#utility.yul\":7283:7702   */\n      swap2\n      swap1\n      pop\n      jump\t// out\n        /* \"#utility.yul\":7708:7826   */\n    tag_78:\n        /* \"#utility.yul\":7795:7819   */\n      tag_171\n        /* \"#utility.yul\":7813:7818   */\n      dup2\n        /* \"#utility.yul\":7795:7819   */\n      tag_62\n      jump\t// in\n    tag_171:\n        /* \"#utility.yul\":7790:7793   */\n      dup3\n        /* \"#utility.yul\":7783:7820   */\n      mstore\n        /* \"#utility.yul\":7708:7826   */\n      pop\n      pop\n      jump\t// out\n        /* \"#utility.yul\":7832:7930   */\n    tag_79:\n        /* \"#utility.yul\":7883:7889   */\n      0x00\n        /* \"#utility.yul\":7917:7922   */\n      dup2\n        /* \"#utility.yul\":7911:7923   */\n      mload\n        /* \"#utility.yul\":7901:7923   */\n      swap1\n      pop\n        /* \"#utility.yul\":7832:7930   */\n      swap2\n      swap1\n      pop\n      jump\t// out\n        /* \"#utility.yul\":7936:8104   */\n    tag_80:\n        /* \"#utility.yul\":8019:8030   */\n      0x00\n        /* \"#utility.yul\":8053:8059   */\n      dup3\n        /* \"#utility.yul\":8048:8051   */\n      dup3\n        /* \"#utility.yul\":8041:8060   */\n      mstore\n        /* \"#utility.yul\":8093:8097   */\n      0x20\n        /* \"#utility.yul\":8088:8091   */\n      dup3\n        /* \"#utility.yul\":8084:8098   */\n      add\n        /* \"#utility.yul\":8069:8098   */\n      swap1\n      pop\n        /* \"#utility.yul\":7936:8104   */\n      swap3\n      swap2\n      pop\n      pop\n      jump\t// out\n        /* \"#utility.yul\":8110:8417   */\n    tag_81:\n        /* \"#utility.yul\":8178:8179   */\n      0x00\n        /* \"#utility.yul\":8188:8301   */\n    tag_175:\n        /* \"#utility.yul\":8202:8208   */\n      dup4\n        /* \"#utility.yul\":8199:8200   */\n      dup2\n        /* \"#utility.yul\":8196:8209   */\n      lt\n        /* \"#utility.yul\":8188:8301   */\n      iszero\n      tag_177\n      jumpi\n        /* \"#utility.yul\":8287:8288   */\n      dup1\n        /* \"#utility.yul\":8282:8285   */\n      dup3\n        /* \"#utility.yul\":8278:8289   */\n      add\n        /* \"#utility.yul\":8272:8290   */\n      mload\n        /* \"#utility.yul\":8268:8269   */\n      dup2\n        /* \"#utility.yul\":8263:8266   */\n      dup5\n        /* \"#utility.yul\":8259:8270   */\n      add\n        /* \"#utility.yul\":8252:8291   */\n      mstore\n        /* \"#utility.yul\":8224:8226   */\n      0x20\n        /* \"#utility.yul\":8221:8222   */\n      dup2\n        /* \"#utility.yul\":8217:8227   */\n      add\n        /* \"#utility.yul\":8212:8227   */\n      swap1\n      pop\n        /* \"#utility.yul\":8188:8301   */\n      jump(tag_175)\n    tag_177:\n        /* \"#utility.yul\":8319:8325   */\n      dup4\n        /* \"#utility.yul\":8316:8317   */\n      dup2\n        /* \"#utility.yul\":8313:8326   */\n      gt\n        /* \"#utility.yul\":8310:8411   */\n      iszero\n      tag_178\n      jumpi\n        /* \"#utility.yul\":8399:8400   */\n      0x00\n        /* \"#utility.yul\":8390:8396   */\n      dup5\n        /* \"#utility.yul\":8385:8388   */\n      dup5\n        /* \"#utility.yul\":8381:8397   */\n      add\n        /* \"#utility.yul\":8374:8401   */\n      mstore\n        /* \"#utility.yul\":8310:8411   */\n    tag_178:\n        /* \"#utility.yul\":8159:8417   */\n      pop\n        /* \"#utility.yul\":8110:8417   */\n      pop\n      pop\n      pop\n      jump\t// out\n        /* \"#utility.yul\":8423:8525   */\n    tag_82:\n        /* \"#utility.yul\":8464:8470   */\n      0x00\n        /* \"#utility.yul\":8515:8517   */\n      0x1f\n        /* \"#utility.yul\":8511:8518   */\n      not\n        /* \"#utility.yul\":8506:8508   */\n      0x1f\n        /* \"#utility.yul\":8499:8504   */\n      dup4\n        /* \"#utility.yul\":8495:8509   */\n      add\n        /* \"#utility.yul\":8491:8519   */\n      and\n        /* \"#utility.yul\":8481:8519   */\n      swap1\n      pop\n        /* \"#utility.yul\":8423:8525   */\n      swap2\n      swap1\n      pop\n      jump\t// out\n        /* \"#utility.yul\":8531:8891   */\n    tag_83:\n        /* \"#utility.yul\":8617:8620   */\n      0x00\n        /* \"#utility.yul\":8645:8683   */\n      tag_181\n        /* \"#utility.yul\":8677:8682   */\n      dup3\n        /* \"#utility.yul\":8645:8683   */\n      tag_79\n      jump\t// in\n    tag_181:\n        /* \"#utility.yul\":8699:8769   */\n      tag_182\n        /* \"#utility.yul\":8762:8768   */\n      dup2\n        /* \"#utility.yul\":8757:8760   */\n      dup6\n        /* \"#utility.yul\":8699:8769   */\n      tag_80\n      jump\t// in\n    tag_182:\n        /* \"#utility.yul\":8692:8769   */\n      swap4\n      pop\n        /* \"#utility.yul\":8778:8830   */\n      tag_183\n        /* \"#utility.yul\":8823:8829   */\n      dup2\n        /* \"#utility.yul\":8818:8821   */\n      dup6\n        /* \"#utility.yul\":8811:8815   */\n      0x20\n        /* \"#utility.yul\":8804:8809   */\n      dup7\n        /* \"#utility.yul\":8800:8816   */\n      add\n        /* \"#utility.yul\":8778:8830   */\n      tag_81\n      jump\t// in\n    tag_183:\n        /* \"#utility.yul\":8855:8884   */\n      tag_184\n        /* \"#utility.yul\":8877:8883   */\n      dup2\n        /* \"#utility.yul\":8855:8884   */\n      tag_82\n      jump\t// in\n    tag_184:\n        /* \"#utility.yul\":8850:8853   */\n      dup5\n        /* \"#utility.yul\":8846:8885   */\n      add\n        /* \"#utility.yul\":8839:8885   */\n      swap2\n      pop\n        /* \"#utility.yul\":8621:8891   */\n      pop\n        /* \"#utility.yul\":8531:8891   */\n      swap3\n      swap2\n      pop\n      pop\n      jump\t// out\n        /* \"#utility.yul\":8897:8986   */\n    tag_84:\n        /* \"#utility.yul\":8933:8940   */\n      0x00\n        /* \"#utility.yul\":8973:8979   */\n      0xffff\n        /* \"#utility.yul\":8966:8971   */\n      dup3\n        /* \"#utility.yul\":8962:8980   */\n      and\n        /* \"#utility.yul\":8951:8980   */\n      swap1\n      pop\n        /* \"#utility.yul\":8897:8986   */\n      swap2\n      swap1\n      pop\n      jump\t// out\n        /* \"#utility.yul\":8992:9107   */\n    tag_85:\n        /* \"#utility.yul\":9077:9100   */\n      tag_187\n        /* \"#utility.yul\":9094:9099   */\n      dup2\n        /* \"#utility.yul\":9077:9100   */\n      tag_84\n      jump\t// in\n    tag_187:\n        /* \"#utility.yul\":9072:9075   */\n      dup3\n        /* \"#utility.yul\":9065:9101   */\n      mstore\n        /* \"#utility.yul\":8992:9107   */\n      pop\n      pop\n      jump\t// out\n        /* \"#utility.yul\":9113:9860   */\n    tag_46:\n        /* \"#utility.yul\":9334:9338   */\n      0x00\n        /* \"#utility.yul\":9372:9375   */\n      0xa0\n        /* \"#utility.yul\":9361:9370   */\n      dup3\n        /* \"#utility.yul\":9357:9376   */\n      add\n        /* \"#utility.yul\":9349:9376   */\n      swap1\n      pop\n        /* \"#utility.yul\":9386:9457   */\n      tag_189\n        /* \"#utility.yul\":9454:9455   */\n      0x00\n        /* \"#utility.yul\":9443:9452   */\n      dup4\n        /* \"#utility.yul\":9439:9456   */\n      add\n        /* \"#utility.yul\":9430:9436   */\n      dup9\n        /* \"#utility.yul\":9386:9457   */\n      tag_73\n      jump\t// in\n    tag_189:\n        /* \"#utility.yul\":9467:9539   */\n      tag_190\n        /* \"#utility.yul\":9535:9537   */\n      0x20\n        /* \"#utility.yul\":9524:9533   */\n      dup4\n        /* \"#utility.yul\":9520:9538   */\n      add\n        /* \"#utility.yul\":9511:9517   */\n      dup8\n        /* \"#utility.yul\":9467:9539   */\n      tag_73\n      jump\t// in\n    tag_190:\n        /* \"#utility.yul\":9549:9621   */\n      tag_191\n        /* \"#utility.yul\":9617:9619   */\n      0x40\n        /* \"#utility.yul\":9606:9615   */\n      dup4\n        /* \"#utility.yul\":9602:9620   */\n      add\n        /* \"#utility.yul\":9593:9599   */\n      dup7\n        /* \"#utility.yul\":9549:9621   */\n      tag_78\n      jump\t// in\n    tag_191:\n        /* \"#utility.yul\":9668:9677   */\n      dup2\n        /* \"#utility.yul\":9662:9666   */\n      dup2\n        /* \"#utility.yul\":9658:9678   */\n      sub\n        /* \"#utility.yul\":9653:9655   */\n      0x60\n        /* \"#utility.yul\":9642:9651   */\n      dup4\n        /* \"#utility.yul\":9638:9656   */\n      add\n        /* \"#utility.yul\":9631:9679   */\n      mstore\n        /* \"#utility.yul\":9696:9772   */\n      tag_192\n        /* \"#utility.yul\":9767:9771   */\n      dup2\n        /* \"#utility.yul\":9758:9764   */\n      dup6\n        /* \"#utility.yul\":9696:9772   */\n      tag_83\n      jump\t// in\n    tag_192:\n        /* \"#utility.yul\":9688:9772   */\n      swap1\n      pop\n        /* \"#utility.yul\":9782:9853   */\n      tag_193\n        /* \"#utility.yul\":9848:9851   */\n      0x80\n        /* \"#utility.yul\":9837:9846   */\n      dup4\n        /* \"#utility.yul\":9833:9852   */\n      add\n        /* \"#utility.yul\":9824:9830   */\n      dup5\n        /* \"#utility.yul\":9782:9853   */\n      tag_85\n      jump\t// in\n    tag_193:\n        /* \"#utility.yul\":9113:9860   */\n      swap7\n      swap6\n      pop\n      pop\n      pop\n      pop\n      pop\n      pop\n      jump\t// out\n\n    auxdata: 0xa26469706673582212205f7c5c48b43dd9b71044e933181f8bfcef3e05c03606cf63c89ffa2dfd9e489f64736f6c634300080a0033\n}\n",
				"bytecode": {
					"linkReferences": {},
					"object": "60c060405234801561001057600080fd5b50604051610a72380380610a72833981810160405281019061003291906101b3565b808073ffffffffffffffffffffffffffffffffffffffff1660808173ffffffffffffffffffffffffffffffffffffffff16815250508073ffffffffffffffffffffffffffffffffffffffff1663026b1d5f6040518163ffffffff1660e01b8152600401602060405180830381865afa1580156100b2573d6000803e3d6000fd5b505050506040513d601f19601f820116820180604052508101906100d691906101b3565b73ffffffffffffffffffffffffffffffffffffffff1660a08173ffffffffffffffffffffffffffffffffffffffff168152505050336000806101000a81548173ffffffffffffffffffffffffffffffffffffffff021916908373ffffffffffffffffffffffffffffffffffffffff160217905550506101e0565b600080fd5b600073ffffffffffffffffffffffffffffffffffffffff82169050919050565b600061018082610155565b9050919050565b61019081610175565b811461019b57600080fd5b50565b6000815190506101ad81610187565b92915050565b6000602082840312156101c9576101c8610150565b5b60006101d78482850161019e565b91505092915050565b60805160a05161086661020c60003960008181610187015261025e0152600061014301526108666000f3fe60806040526004361061004e5760003560e01c80630542975c1461005a5780631b11d0ff146100855780637535d246146100c257806387c7f0ac146100ed5780638da5cb5b1461011657610055565b3661005557005b600080fd5b34801561006657600080fd5b5061006f610141565b60405161007c919061039b565b60405180910390f35b34801561009157600080fd5b506100ac60048036038101906100a79190610499565b610165565b6040516100b9919061054e565b60405180910390f35b3480156100ce57600080fd5b506100d7610185565b6040516100e4919061058a565b60405180910390f35b3480156100f957600080fd5b50610114600480360381019061010f91906105a5565b6101a9565b005b34801561012257600080fd5b5061012b6102f8565b60405161013891906105f4565b60405180910390f35b7f000000000000000000000000000000000000000000000000000000000000000081565b6000808587610174919061063e565b905060019150509695505050505050565b7f000000000000000000000000000000000000000000000000000000000000000081565b60008054906101000a900473ffffffffffffffffffffffffffffffffffffffff1673ffffffffffffffffffffffffffffffffffffffff163373ffffffffffffffffffffffffffffffffffffffff1614610237576040517f08c379a000000000000000000000000000000000000000000000000000000000815260040161022e906106f1565b60405180910390fd5b600030905060008390506000839050600060405180602001604052806000815250905060007f000000000000000000000000000000000000000000000000000000000000000073ffffffffffffffffffffffffffffffffffffffff166342b0b77c86868686866040518663ffffffff1660e01b81526004016102bd9594939291906107d6565b600060405180830381600087803b1580156102d757600080fd5b505af11580156102eb573d6000803e3d6000fd5b5050505050505050505050565b60008054906101000a900473ffffffffffffffffffffffffffffffffffffffff1681565b600073ffffffffffffffffffffffffffffffffffffffff82169050919050565b6000819050919050565b600061036161035c6103578461031c565b61033c565b61031c565b9050919050565b600061037382610346565b9050919050565b600061038582610368565b9050919050565b6103958161037a565b82525050565b60006020820190506103b0600083018461038c565b92915050565b600080fd5b600080fd5b60006103cb8261031c565b9050919050565b6103db816103c0565b81146103e657600080fd5b50565b6000813590506103f8816103d2565b92915050565b6000819050919050565b610411816103fe565b811461041c57600080fd5b50565b60008135905061042e81610408565b92915050565b600080fd5b600080fd5b600080fd5b60008083601f84011261045957610458610434565b5b8235905067ffffffffffffffff81111561047657610475610439565b5b6020830191508360018202830111156104925761049161043e565b5b9250929050565b60008060008060008060a087890312156104b6576104b56103b6565b5b60006104c489828a016103e9565b96505060206104d589828a0161041f565b95505060406104e689828a0161041f565b94505060606104f789828a016103e9565b935050608087013567ffffffffffffffff811115610518576105176103bb565b5b61052489828a01610443565b92509250509295509295509295565b60008115159050919050565b61054881610533565b82525050565b6000602082019050610563600083018461053f565b92915050565b600061057482610368565b9050919050565b61058481610569565b82525050565b600060208201905061059f600083018461057b565b92915050565b600080604083850312156105bc576105bb6103b6565b5b60006105ca858286016103e9565b92505060206105db8582860161041f565b9150509250929050565b6105ee816103c0565b82525050565b600060208201905061060960008301846105e5565b92915050565b7f4e487b7100000000000000000000000000000000000000000000000000000000600052601160045260246000fd5b6000610649826103fe565b9150610654836103fe565b9250827fffffffffffffffffffffffffffffffffffffffffffffffffffffffffffffffff038211156106895761068861060f565b5b828201905092915050565b600082825260208201905092915050565b7f6f6e6c79206f776e657220616363657373000000000000000000000000000000600082015250565b60006106db601183610694565b91506106e6826106a5565b602082019050919050565b6000602082019050818103600083015261070a816106ce565b9050919050565b61071a816103fe565b82525050565b600081519050919050565b600082825260208201905092915050565b60005b8381101561075a57808201518184015260208101905061073f565b83811115610769576000848401525b50505050565b6000601f19601f8301169050919050565b600061078b82610720565b610795818561072b565b93506107a581856020860161073c565b6107ae8161076f565b840191505092915050565b600061ffff82169050919050565b6107d0816107b9565b82525050565b600060a0820190506107eb60008301886105e5565b6107f860208301876105e5565b6108056040830186610711565b81810360608301526108178185610780565b905061082660808301846107c7565b969550505050505056fea26469706673582212205f7c5c48b43dd9b71044e933181f8bfcef3e05c03606cf63c89ffa2dfd9e489f64736f6c634300080a0033",
					"opcodes": "PUSH1 0xC0 PUSH1 0x40 MSTORE CALLVALUE DUP1 ISZERO PUSH2 0x10 JUMPI PUSH1 0x0 DUP1 REVERT JUMPDEST POP PUSH1 0x40 MLOAD PUSH2 0xA72 CODESIZE SUB DUP1 PUSH2 0xA72 DUP4 CODECOPY DUP2 DUP2 ADD PUSH1 0x40 MSTORE DUP2 ADD SWAP1 PUSH2 0x32 SWAP2 SWAP1 PUSH2 0x1B3 JUMP JUMPDEST DUP1 DUP1 PUSH20 0xFFFFFFFFFFFFFFFFFFFFFFFFFFFFFFFFFFFFFFFF AND PUSH1 0x80 DUP2 PUSH20 0xFFFFFFFFFFFFFFFFFFFFFFFFFFFFFFFFFFFFFFFF AND DUP2 MSTORE POP POP DUP1 PUSH20 0xFFFFFFFFFFFFFFFFFFFFFFFFFFFFFFFFFFFFFFFF AND PUSH4 0x26B1D5F PUSH1 0x40 MLOAD DUP2 PUSH4 0xFFFFFFFF AND PUSH1 0xE0 SHL DUP2 MSTORE PUSH1 0x4 ADD PUSH1 0x20 PUSH1 0x40 MLOAD DUP1 DUP4 SUB DUP2 DUP7 GAS STATICCALL ISZERO DUP1 ISZERO PUSH2 0xB2 JUMPI RETURNDATASIZE PUSH1 0x0 DUP1 RETURNDATACOPY RETURNDATASIZE PUSH1 0x0 REVERT JUMPDEST POP POP POP POP PUSH1 0x40 MLOAD RETURNDATASIZE PUSH1 0x1F NOT PUSH1 0x1F DUP3 ADD AND DUP3 ADD DUP1 PUSH1 0x40 MSTORE POP DUP2 ADD SWAP1 PUSH2 0xD6 SWAP2 SWAP1 PUSH2 0x1B3 JUMP JUMPDEST PUSH20 0xFFFFFFFFFFFFFFFFFFFFFFFFFFFFFFFFFFFFFFFF AND PUSH1 0xA0 DUP2 PUSH20 0xFFFFFFFFFFFFFFFFFFFFFFFFFFFFFFFFFFFFFFFF AND DUP2 MSTORE POP POP POP CALLER PUSH1 0x0 DUP1 PUSH2 0x100 EXP DUP2 SLOAD DUP2 PUSH20 0xFFFFFFFFFFFFFFFFFFFFFFFFFFFFFFFFFFFFFFFF MUL NOT AND SWAP1 DUP4 PUSH20 0xFFFFFFFFFFFFFFFFFFFFFFFFFFFFFFFFFFFFFFFF AND MUL OR SWAP1 SSTORE POP POP PUSH2 0x1E0 JUMP JUMPDEST PUSH1 0x0 DUP1 REVERT JUMPDEST PUSH1 0x0 PUSH20 0xFFFFFFFFFFFFFFFFFFFFFFFFFFFFFFFFFFFFFFFF DUP3 AND SWAP1 POP SWAP2 SWAP1 POP JUMP JUMPDEST PUSH1 0x0 PUSH2 0x180 DUP3 PUSH2 0x155 JUMP JUMPDEST SWAP1 POP SWAP2 SWAP1 POP JUMP JUMPDEST PUSH2 0x190 DUP2 PUSH2 0x175 JUMP JUMPDEST DUP2 EQ PUSH2 0x19B JUMPI PUSH1 0x0 DUP1 REVERT JUMPDEST POP JUMP JUMPDEST PUSH1 0x0 DUP2 MLOAD SWAP1 POP PUSH2 0x1AD DUP2 PUSH2 0x187 JUMP JUMPDEST SWAP3 SWAP2 POP POP JUMP JUMPDEST PUSH1 0x0 PUSH1 0x20 DUP3 DUP5 SUB SLT ISZERO PUSH2 0x1C9 JUMPI PUSH2 0x1C8 PUSH2 0x150 JUMP JUMPDEST JUMPDEST PUSH1 0x0 PUSH2 0x1D7 DUP5 DUP3 DUP6 ADD PUSH2 0x19E JUMP JUMPDEST SWAP2 POP POP SWAP3 SWAP2 POP POP JUMP JUMPDEST PUSH1 0x80 MLOAD PUSH1 0xA0 MLOAD PUSH2 0x866 PUSH2 0x20C PUSH1 0x0 CODECOPY PUSH1 0x0 DUP2 DUP2 PUSH2 0x187 ADD MSTORE PUSH2 0x25E ADD MSTORE PUSH1 0x0 PUSH2 0x143 ADD MSTORE PUSH2 0x866 PUSH1 0x0 RETURN INVALID PUSH1 0x80 PUSH1 0x40 MSTORE PUSH1 0x4 CALLDATASIZE LT PUSH2 0x4E JUMPI PUSH1 0x0 CALLDATALOAD PUSH1 0xE0 SHR DUP1 PUSH4 0x542975C EQ PUSH2 0x5A JUMPI DUP1 PUSH4 0x1B11D0FF EQ PUSH2 0x85 JUMPI DUP1 PUSH4 0x7535D246 EQ PUSH2 0xC2 JUMPI DUP1 PUSH4 0x87C7F0AC EQ PUSH2 0xED JUMPI DUP1 PUSH4 0x8DA5CB5B EQ PUSH2 0x116 JUMPI PUSH2 0x55 JUMP JUMPDEST CALLDATASIZE PUSH2 0x55 JUMPI STOP JUMPDEST PUSH1 0x0 DUP1 REVERT JUMPDEST CALLVALUE DUP1 ISZERO PUSH2 0x66 JUMPI PUSH1 0x0 DUP1 REVERT JUMPDEST POP PUSH2 0x6F PUSH2 0x141 JUMP JUMPDEST PUSH1 0x40 MLOAD PUSH2 0x7C SWAP2 SWAP1 PUSH2 0x39B JUMP JUMPDEST PUSH1 0x40 MLOAD DUP1 SWAP2 SUB SWAP1 RETURN JUMPDEST CALLVALUE DUP1 ISZERO PUSH2 0x91 JUMPI PUSH1 0x0 DUP1 REVERT JUMPDEST POP PUSH2 0xAC PUSH1 0x4 DUP1 CALLDATASIZE SUB DUP2 ADD SWAP1 PUSH2 0xA7 SWAP2 SWAP1 PUSH2 0x499 JUMP JUMPDEST PUSH2 0x165 JUMP JUMPDEST PUSH1 0x40 MLOAD PUSH2 0xB9 SWAP2 SWAP1 PUSH2 0x54E JUMP JUMPDEST PUSH1 0x40 MLOAD DUP1 SWAP2 SUB SWAP1 RETURN JUMPDEST CALLVALUE DUP1 ISZERO PUSH2 0xCE JUMPI PUSH1 0x0 DUP1 REVERT JUMPDEST POP PUSH2 0xD7 PUSH2 0x185 JUMP JUMPDEST PUSH1 0x40 MLOAD PUSH2 0xE4 SWAP2 SWAP1 PUSH2 0x58A JUMP JUMPDEST PUSH1 0x40 MLOAD DUP1 SWAP2 SUB SWAP1 RETURN JUMPDEST CALLVALUE DUP1 ISZERO PUSH2 0xF9 JUMPI PUSH1 0x0 DUP1 REVERT JUMPDEST POP PUSH2 0x114 PUSH1 0x4 DUP1 CALLDATASIZE SUB DUP2 ADD SWAP1 PUSH2 0x10F SWAP2 SWAP1 PUSH2 0x5A5 JUMP JUMPDEST PUSH2 0x1A9 JUMP JUMPDEST STOP JUMPDEST CALLVALUE DUP1 ISZERO PUSH2 0x122 JUMPI PUSH1 0x0 DUP1 REVERT JUMPDEST POP PUSH2 0x12B PUSH2 0x2F8 JUMP JUMPDEST PUSH1 0x40 MLOAD PUSH2 0x138 SWAP2 SWAP1 PUSH2 0x5F4 JUMP JUMPDEST PUSH1 0x40 MLOAD DUP1 SWAP2 SUB SWAP1 RETURN JUMPDEST PUSH32 0x0 DUP2 JUMP JUMPDEST PUSH1 0x0 DUP1 DUP6 DUP8 PUSH2 0x174 SWAP2 SWAP1 PUSH2 0x63E JUMP JUMPDEST SWAP1 POP PUSH1 0x1 SWAP2 POP POP SWAP7 SWAP6 POP POP POP POP POP POP JUMP JUMPDEST PUSH32 0x0 DUP2 JUMP JUMPDEST PUSH1 0x0 DUP1 SLOAD SWAP1 PUSH2 0x100 EXP SWAP1 DIV PUSH20 0xFFFFFFFFFFFFFFFFFFFFFFFFFFFFFFFFFFFFFFFF AND PUSH20 0xFFFFFFFFFFFFFFFFFFFFFFFFFFFFFFFFFFFFFFFF AND CALLER PUSH20 0xFFFFFFFFFFFFFFFFFFFFFFFFFFFFFFFFFFFFFFFF AND EQ PUSH2 0x237 JUMPI PUSH1 0x40 MLOAD PUSH32 0x8C379A000000000000000000000000000000000000000000000000000000000 DUP2 MSTORE PUSH1 0x4 ADD PUSH2 0x22E SWAP1 PUSH2 0x6F1 JUMP JUMPDEST PUSH1 0x40 MLOAD DUP1 SWAP2 SUB SWAP1 REVERT JUMPDEST PUSH1 0x0 ADDRESS SWAP1 POP PUSH1 0x0 DUP4 SWAP1 POP PUSH1 0x0 DUP4 SWAP1 POP PUSH1 0x0 PUSH1 0x40 MLOAD DUP1 PUSH1 0x20 ADD PUSH1 0x40 MSTORE DUP1 PUSH1 0x0 DUP2 MSTORE POP SWAP1 POP PUSH1 0x0 PUSH32 0x0 PUSH20 0xFFFFFFFFFFFFFFFFFFFFFFFFFFFFFFFFFFFFFFFF AND PUSH4 0x42B0B77C DUP7 DUP7 DUP7 DUP7 DUP7 PUSH1 0x40 MLOAD DUP7 PUSH4 0xFFFFFFFF AND PUSH1 0xE0 SHL DUP2 MSTORE PUSH1 0x4 ADD PUSH2 0x2BD SWAP6 SWAP5 SWAP4 SWAP3 SWAP2 SWAP1 PUSH2 0x7D6 JUMP JUMPDEST PUSH1 0x0 PUSH1 0x40 MLOAD DUP1 DUP4 SUB DUP2 PUSH1 0x0 DUP8 DUP1 EXTCODESIZE ISZERO DUP1 ISZERO PUSH2 0x2D7 JUMPI PUSH1 0x0 DUP1 REVERT JUMPDEST POP GAS CALL ISZERO DUP1 ISZERO PUSH2 0x2EB JUMPI RETURNDATASIZE PUSH1 0x0 DUP1 RETURNDATACOPY RETURNDATASIZE PUSH1 0x0 REVERT JUMPDEST POP POP POP POP POP POP POP POP POP POP POP JUMP JUMPDEST PUSH1 0x0 DUP1 SLOAD SWAP1 PUSH2 0x100 EXP SWAP1 DIV PUSH20 0xFFFFFFFFFFFFFFFFFFFFFFFFFFFFFFFFFFFFFFFF AND DUP2 JUMP JUMPDEST PUSH1 0x0 PUSH20 0xFFFFFFFFFFFFFFFFFFFFFFFFFFFFFFFFFFFFFFFF DUP3 AND SWAP1 POP SWAP2 SWAP1 POP JUMP JUMPDEST PUSH1 0x0 DUP2 SWAP1 POP SWAP2 SWAP1 POP JUMP JUMPDEST PUSH1 0x0 PUSH2 0x361 PUSH2 0x35C PUSH2 0x357 DUP5 PUSH2 0x31C JUMP JUMPDEST PUSH2 0x33C JUMP JUMPDEST PUSH2 0x31C JUMP JUMPDEST SWAP1 POP SWAP2 SWAP1 POP JUMP JUMPDEST PUSH1 0x0 PUSH2 0x373 DUP3 PUSH2 0x346 JUMP JUMPDEST SWAP1 POP SWAP2 SWAP1 POP JUMP JUMPDEST PUSH1 0x0 PUSH2 0x385 DUP3 PUSH2 0x368 JUMP JUMPDEST SWAP1 POP SWAP2 SWAP1 POP JUMP JUMPDEST PUSH2 0x395 DUP2 PUSH2 0x37A JUMP JUMPDEST DUP3 MSTORE POP POP JUMP JUMPDEST PUSH1 0x0 PUSH1 0x20 DUP3 ADD SWAP1 POP PUSH2 0x3B0 PUSH1 0x0 DUP4 ADD DUP5 PUSH2 0x38C JUMP JUMPDEST SWAP3 SWAP2 POP POP JUMP JUMPDEST PUSH1 0x0 DUP1 REVERT JUMPDEST PUSH1 0x0 DUP1 REVERT JUMPDEST PUSH1 0x0 PUSH2 0x3CB DUP3 PUSH2 0x31C JUMP JUMPDEST SWAP1 POP SWAP2 SWAP1 POP JUMP JUMPDEST PUSH2 0x3DB DUP2 PUSH2 0x3C0 JUMP JUMPDEST DUP2 EQ PUSH2 0x3E6 JUMPI PUSH1 0x0 DUP1 REVERT JUMPDEST POP JUMP JUMPDEST PUSH1 0x0 DUP2 CALLDATALOAD SWAP1 POP PUSH2 0x3F8 DUP2 PUSH2 0x3D2 JUMP JUMPDEST SWAP3 SWAP2 POP POP JUMP JUMPDEST PUSH1 0x0 DUP2 SWAP1 POP SWAP2 SWAP1 POP JUMP JUMPDEST PUSH2 0x411 DUP2 PUSH2 0x3FE JUMP JUMPDEST DUP2 EQ PUSH2 0x41C JUMPI PUSH1 0x0 DUP1 REVERT JUMPDEST POP JUMP JUMPDEST PUSH1 0x0 DUP2 CALLDATALOAD SWAP1 POP PUSH2 0x42E DUP2 PUSH2 0x408 JUMP JUMPDEST SWAP3 SWAP2 POP POP JUMP JUMPDEST PUSH1 0x0 DUP1 REVERT JUMPDEST PUSH1 0x0 DUP1 REVERT JUMPDEST PUSH1 0x0 DUP1 REVERT JUMPDEST PUSH1 0x0 DUP1 DUP4 PUSH1 0x1F DUP5 ADD SLT PUSH2 0x459 JUMPI PUSH2 0x458 PUSH2 0x434 JUMP JUMPDEST JUMPDEST DUP3 CALLDATALOAD SWAP1 POP PUSH8 0xFFFFFFFFFFFFFFFF DUP2 GT ISZERO PUSH2 0x476 JUMPI PUSH2 0x475 PUSH2 0x439 JUMP JUMPDEST JUMPDEST PUSH1 0x20 DUP4 ADD SWAP2 POP DUP4 PUSH1 0x1 DUP3 MUL DUP4 ADD GT ISZERO PUSH2 0x492 JUMPI PUSH2 0x491 PUSH2 0x43E JUMP JUMPDEST JUMPDEST SWAP3 POP SWAP3 SWAP1 POP JUMP JUMPDEST PUSH1 0x0 DUP1 PUSH1 0x0 DUP1 PUSH1 0x0 DUP1 PUSH1 0xA0 DUP8 DUP10 SUB SLT ISZERO PUSH2 0x4B6 JUMPI PUSH2 0x4B5 PUSH2 0x3B6 JUMP JUMPDEST JUMPDEST PUSH1 0x0 PUSH2 0x4C4 DUP10 DUP3 DUP11 ADD PUSH2 0x3E9 JUMP JUMPDEST SWAP7 POP POP PUSH1 0x20 PUSH2 0x4D5 DUP10 DUP3 DUP11 ADD PUSH2 0x41F JUMP JUMPDEST SWAP6 POP POP PUSH1 0x40 PUSH2 0x4E6 DUP10 DUP3 DUP11 ADD PUSH2 0x41F JUMP JUMPDEST SWAP5 POP POP PUSH1 0x60 PUSH2 0x4F7 DUP10 DUP3 DUP11 ADD PUSH2 0x3E9 JUMP JUMPDEST SWAP4 POP POP PUSH1 0x80 DUP8 ADD CALLDATALOAD PUSH8 0xFFFFFFFFFFFFFFFF DUP2 GT ISZERO PUSH2 0x518 JUMPI PUSH2 0x517 PUSH2 0x3BB JUMP JUMPDEST JUMPDEST PUSH2 0x524 DUP10 DUP3 DUP11 ADD PUSH2 0x443 JUMP JUMPDEST SWAP3 POP SWAP3 POP POP SWAP3 SWAP6 POP SWAP3 SWAP6 POP SWAP3 SWAP6 JUMP JUMPDEST PUSH1 0x0 DUP2 ISZERO ISZERO SWAP1 POP SWAP2 SWAP1 POP JUMP JUMPDEST PUSH2 0x548 DUP2 PUSH2 0x533 JUMP JUMPDEST DUP3 MSTORE POP POP JUMP JUMPDEST PUSH1 0x0 PUSH1 0x20 DUP3 ADD SWAP1 POP PUSH2 0x563 PUSH1 0x0 DUP4 ADD DUP5 PUSH2 0x53F JUMP JUMPDEST SWAP3 SWAP2 POP POP JUMP JUMPDEST PUSH1 0x0 PUSH2 0x574 DUP3 PUSH2 0x368 JUMP JUMPDEST SWAP1 POP SWAP2 SWAP1 POP JUMP JUMPDEST PUSH2 0x584 DUP2 PUSH2 0x569 JUMP JUMPDEST DUP3 MSTORE POP POP JUMP JUMPDEST PUSH1 0x0 PUSH1 0x20 DUP3 ADD SWAP1 POP PUSH2 0x59F PUSH1 0x0 DUP4 ADD DUP5 PUSH2 0x57B JUMP JUMPDEST SWAP3 SWAP2 POP POP JUMP JUMPDEST PUSH1 0x0 DUP1 PUSH1 0x40 DUP4 DUP6 SUB SLT ISZERO PUSH2 0x5BC JUMPI PUSH2 0x5BB PUSH2 0x3B6 JUMP JUMPDEST JUMPDEST PUSH1 0x0 PUSH2 0x5CA DUP6 DUP3 DUP7 ADD PUSH2 0x3E9 JUMP JUMPDEST SWAP3 POP POP PUSH1 0x20 PUSH2 0x5DB DUP6 DUP3 DUP7 ADD PUSH2 0x41F JUMP JUMPDEST SWAP2 POP POP SWAP3 POP SWAP3 SWAP1 POP JUMP JUMPDEST PUSH2 0x5EE DUP2 PUSH2 0x3C0 JUMP JUMPDEST DUP3 MSTORE POP POP JUMP JUMPDEST PUSH1 0x0 PUSH1 0x20 DUP3 ADD SWAP1 POP PUSH2 0x609 PUSH1 0x0 DUP4 ADD DUP5 PUSH2 0x5E5 JUMP JUMPDEST SWAP3 SWAP2 POP POP JUMP JUMPDEST PUSH32 0x4E487B7100000000000000000000000000000000000000000000000000000000 PUSH1 0x0 MSTORE PUSH1 0x11 PUSH1 0x4 MSTORE PUSH1 0x24 PUSH1 0x0 REVERT JUMPDEST PUSH1 0x0 PUSH2 0x649 DUP3 PUSH2 0x3FE JUMP JUMPDEST SWAP2 POP PUSH2 0x654 DUP4 PUSH2 0x3FE JUMP JUMPDEST SWAP3 POP DUP3 PUSH32 0xFFFFFFFFFFFFFFFFFFFFFFFFFFFFFFFFFFFFFFFFFFFFFFFFFFFFFFFFFFFFFFFF SUB DUP3 GT ISZERO PUSH2 0x689 JUMPI PUSH2 0x688 PUSH2 0x60F JUMP JUMPDEST JUMPDEST DUP3 DUP3 ADD SWAP1 POP SWAP3 SWAP2 POP POP JUMP JUMPDEST PUSH1 0x0 DUP3 DUP3 MSTORE PUSH1 0x20 DUP3 ADD SWAP1 POP SWAP3 SWAP2 POP POP JUMP JUMPDEST PUSH32 0x6F6E6C79206F776E657220616363657373000000000000000000000000000000 PUSH1 0x0 DUP3 ADD MSTORE POP JUMP JUMPDEST PUSH1 0x0 PUSH2 0x6DB PUSH1 0x11 DUP4 PUSH2 0x694 JUMP JUMPDEST SWAP2 POP PUSH2 0x6E6 DUP3 PUSH2 0x6A5 JUMP JUMPDEST PUSH1 0x20 DUP3 ADD SWAP1 POP SWAP2 SWAP1 POP JUMP JUMPDEST PUSH1 0x0 PUSH1 0x20 DUP3 ADD SWAP1 POP DUP2 DUP2 SUB PUSH1 0x0 DUP4 ADD MSTORE PUSH2 0x70A DUP2 PUSH2 0x6CE JUMP JUMPDEST SWAP1 POP SWAP2 SWAP1 POP JUMP JUMPDEST PUSH2 0x71A DUP2 PUSH2 0x3FE JUMP JUMPDEST DUP3 MSTORE POP POP JUMP JUMPDEST PUSH1 0x0 DUP2 MLOAD SWAP1 POP SWAP2 SWAP1 POP JUMP JUMPDEST PUSH1 0x0 DUP3 DUP3 MSTORE PUSH1 0x20 DUP3 ADD SWAP1 POP SWAP3 SWAP2 POP POP JUMP JUMPDEST PUSH1 0x0 JUMPDEST DUP4 DUP2 LT ISZERO PUSH2 0x75A JUMPI DUP1 DUP3 ADD MLOAD DUP2 DUP5 ADD MSTORE PUSH1 0x20 DUP2 ADD SWAP1 POP PUSH2 0x73F JUMP JUMPDEST DUP4 DUP2 GT ISZERO PUSH2 0x769 JUMPI PUSH1 0x0 DUP5 DUP5 ADD MSTORE JUMPDEST POP POP POP POP JUMP JUMPDEST PUSH1 0x0 PUSH1 0x1F NOT PUSH1 0x1F DUP4 ADD AND SWAP1 POP SWAP2 SWAP1 POP JUMP JUMPDEST PUSH1 0x0 PUSH2 0x78B DUP3 PUSH2 0x720 JUMP JUMPDEST PUSH2 0x795 DUP2 DUP6 PUSH2 0x72B JUMP JUMPDEST SWAP4 POP PUSH2 0x7A5 DUP2 DUP6 PUSH1 0x20 DUP7 ADD PUSH2 0x73C JUMP JUMPDEST PUSH2 0x7AE DUP2 PUSH2 0x76F JUMP JUMPDEST DUP5 ADD SWAP2 POP POP SWAP3 SWAP2 POP POP JUMP JUMPDEST PUSH1 0x0 PUSH2 0xFFFF DUP3 AND SWAP1 POP SWAP2 SWAP1 POP JUMP JUMPDEST PUSH2 0x7D0 DUP2 PUSH2 0x7B9 JUMP JUMPDEST DUP3 MSTORE POP POP JUMP JUMPDEST PUSH1 0x0 PUSH1 0xA0 DUP3 ADD SWAP1 POP PUSH2 0x7EB PUSH1 0x0 DUP4 ADD DUP9 PUSH2 0x5E5 JUMP JUMPDEST PUSH2 0x7F8 PUSH1 0x20 DUP4 ADD DUP8 PUSH2 0x5E5 JUMP JUMPDEST PUSH2 0x805 PUSH1 0x40 DUP4 ADD DUP7 PUSH2 0x711 JUMP JUMPDEST DUP2 DUP2 SUB PUSH1 0x60 DUP4 ADD MSTORE PUSH2 0x817 DUP2 DUP6 PUSH2 0x780 JUMP JUMPDEST SWAP1 POP PUSH2 0x826 PUSH1 0x80 DUP4 ADD DUP5 PUSH2 0x7C7 JUMP JUMPDEST SWAP7 SWAP6 POP POP POP POP POP POP JUMP INVALID LOG2 PUSH5 0x6970667358 0x22 SLT KECCAK256 0x5F PUSH29 0x5C48B43DD9B71044E933181F8BFCEF3E05C03606CF63C89FFA2DFD9E48 SWAP16 PUSH5 0x736F6C6343 STOP ADDMOD EXP STOP CALLER "
				},
				"gasEstimates": {
					"creation": {
						"codeDepositCost": "430000",
						"executionCost": "infinite",
						"totalCost": "infinite"
					},
					"external": {
						"ADDRESSES_PROVIDER()": "infinite",
						"POOL()": "infinite",
						"executeOperation(address,uint256,uint256,address,bytes)": "infinite",
						"fn_RequestFlashLoan(address,uint256)": "infinite",
						"owner()": "2577"
					}
				},
				"methodIdentifiers": {
					"ADDRESSES_PROVIDER()": "0542975c",
					"POOL()": "7535d246",
					"executeOperation(address,uint256,uint256,address,bytes)": "1b11d0ff",
					"fn_RequestFlashLoan(address,uint256)": "87c7f0ac",
					"owner()": "8da5cb5b"
				}
			},
			"storageLayout": {
				"storage": [
					{
						"astId": 1282,
						"contract": "contracts/AaveFlashLoan.sol:AaveFlashLoan",
						"label": "owner",
						"offset": 0,
						"slot": "0",
						"type": "t_address"
					}
				],
				"types": {
					"t_address": {
						"encoding": "inplace",
						"label": "address",
						"numberOfBytes": "20"
					}
				}
			},
			"userdoc": {
				"kind": "user",
				"methods": {
					"executeOperation(address,uint256,uint256,address,bytes)": {
						"notice": "Executes an operation after receiving the flash-borrowed asset"
					}
				},
				"version": 1
			}
		}
	}
}