{
	"data": {
		"bytecode": {
			"linkReferences": {},
			"object": "60a060405260018060006101000a81548173ffffffffffffffffffffffffffffffffffffffff021916908373ffffffffffffffffffffffffffffffffffffffff1602179055503480156200005257600080fd5b5060016200007562000069620000cc60201b60201c565b620000d460201b60201c565b8073ffffffffffffffffffffffffffffffffffffffff1660808173ffffffffffffffffffffffffffffffffffffffff1681525050620000c48160026200019860201b620021ce1790919060201c565b50506200026d565b600033905090565b60008060009054906101000a900473ffffffffffffffffffffffffffffffffffffffff169050816000806101000a81548173ffffffffffffffffffffffffffffffffffffffff021916908373ffffffffffffffffffffffffffffffffffffffff1602179055508173ffffffffffffffffffffffffffffffffffffffff168173ffffffffffffffffffffffffffffffffffffffff167f8be0079c531659141344cd1fd0a4f28419497f9722a3daafe3b4186f6b6457e060405160405180910390a35050565b6000620001c8836000018373ffffffffffffffffffffffffffffffffffffffff1660001b620001d060201b60201c565b905092915050565b6000620001e483836200024a60201b60201c565b6200023f57826000018290806001815401808255809150506001900390600052602060002001600090919091909150558260000180549050836001016000848152602001908152602001600020819055506001905062000244565b600090505b92915050565b600080836001016000848152602001908152602001600020541415905092915050565b608051616144620002896000396000611d7301526161446000f3fe60806040526004361061010d5760003560e01c8063759eee10116100955780638da5cb5b116100645780638da5cb5b1461039a5780639c79b0f6146103c5578063bbd1e122146103ee578063bed64c2f14610417578063f2fde38b1461044257610114565b8063759eee10146102cd57806383e280d91461030b578063848008121461033457806385f8c2591461035d57610114565b806321d09426116100dc57806321d09426146101e85780633ccfd60b146102255780635e3e73ce1461023c5780636a263f0214610279578063715018a6146102b657610114565b8063054d50d414610119578063071708321461015657806310d1e85c1461018157806317c1e4dd146101aa57610114565b3661011457005b600080fd5b34801561012557600080fd5b50610140600480360381019061013b919061426a565b61046b565b60405161014d91906142cc565b60405180910390f35b34801561016257600080fd5b5061016b610571565b6040516101789190614366565b60405180910390f35b34801561018d57600080fd5b506101a860048036038101906101a39190614505565b610597565b005b3480156101b657600080fd5b506101d160048036038101906101cc91906145be565b610a6f565b6040516101df929190614620565b60405180910390f35b3480156101f457600080fd5b5061020f600480360381019061020a9190614649565b610a89565b60405161021c9190614691565b60405180910390f35b34801561023157600080fd5b5061023a610ae5565b005b34801561024857600080fd5b50610263600480360381019061025e9190614729565b610cdd565b60405161027091906142cc565b60405180910390f35b34801561028557600080fd5b506102a0600480360381019061029b9190614756565b610cef565b6040516102ad91906142cc565b60405180910390f35b3480156102c257600080fd5b506102cb610d01565b005b3480156102d957600080fd5b506102f460048036038101906102ef9190614783565b610d15565b6040516103029291906147d2565b60405180910390f35b34801561031757600080fd5b50610332600480360381019061032d9190614649565b610f50565b005b34801561034057600080fd5b5061035b60048036038101906103569190614505565b610fb3565b005b34801561036957600080fd5b50610384600480360381019061037f919061426a565b6114a8565b60405161039191906142cc565b60405180910390f35b3480156103a657600080fd5b506103af6115bb565b6040516103bc91906147fb565b60405180910390f35b3480156103d157600080fd5b506103ec60048036038101906103e79190614783565b6115e4565b005b3480156103fa57600080fd5b5061041560048036038101906104109190614649565b611ef9565b005b34801561042357600080fd5b5061042c61206b565b60405161043991906148d4565b60405180910390f35b34801561044e57600080fd5b5061046960048036038101906104649190614649565b61214a565b005b60008084116104af576040517f08c379a00000000000000000000000000000000000000000000000000000000081526004016104a690614979565b60405180910390fd5b6000831180156104bf5750600082115b6104fe576040517f08c379a00000000000000000000000000000000000000000000000000000000081526004016104f590614a0b565b60405180910390fd5b60006105156103e5866121fe90919063ffffffff16565b9050600061052c84836121fe90919063ffffffff16565b90506000610557836105496103e8896121fe90919063ffffffff16565b61221490919063ffffffff16565b905080826105659190614a89565b93505050509392505050565b600460009054906101000a900473ffffffffffffffffffffffffffffffffffffffff1681565b600160009054906101000a900473ffffffffffffffffffffffffffffffffffffffff1673ffffffffffffffffffffffffffffffffffffffff163373ffffffffffffffffffffffffffffffffffffffff1614610627576040517f08c379a000000000000000000000000000000000000000000000000000000000815260040161061e90614b06565b60405180910390fd5b3073ffffffffffffffffffffffffffffffffffffffff168473ffffffffffffffffffffffffffffffffffffffff1614610695576040517f08c379a000000000000000000000000000000000000000000000000000000000815260040161068c90614b72565b60405180910390fd5b6106d36040518060400160405280601b81526020017f6869692069276d2063616c6c6564206279206c6f616e2070616972000000000081525061222a565b60008084116106e257826106e4565b835b90506000828060200190518101906106fc9190614c9c565b9050610731816020015183836060015173ffffffffffffffffffffffffffffffffffffffff166122c39092919063ffffffff16565b60008082604001516107495760008360c00151610751565b8260c0015160005b915091506108116040518060400160405280602081526020017f6265666f726520737761702062617365746f6b656e2042616c616e63653d3d3e815250846080015173ffffffffffffffffffffffffffffffffffffffff166370a08231306040518263ffffffff1660e01b81526004016107cb91906147fb565b602060405180830381865afa1580156107e8573d6000803e3d6000fd5b505050506040513d601f19601f8201168201806040525081019061080c9190614cc9565b612349565b826020015173ffffffffffffffffffffffffffffffffffffffff1663022c0d9f838330600067ffffffffffffffff81111561084f5761084e6143da565b5b6040519080825280601f01601f1916602001820160405280156108815781602001600182028036833780820191505090505b506040518563ffffffff1660e01b81526004016108a19493929190614d7e565b600060405180830381600087803b1580156108bb57600080fd5b505af11580156108cf573d6000803e3d6000fd5b5050505061098f6040518060400160405280601f81526020017f616674657220737761702062617365746f6b656e2042616c616e63653d3d3e00815250846080015173ffffffffffffffffffffffffffffffffffffffff166370a08231306040518263ffffffff1660e01b815260040161094991906147fb565b602060405180830381865afa158015610966573d6000803e3d6000fd5b505050506040513d601f19601f8201168201806040525081019061098a9190614cc9565b612349565b6109c683600001518460a00151856080015173ffffffffffffffffffffffffffffffffffffffff166122c39092919063ffffffff16565b610a6560405180606001604052806021815260200161601760219139846080015173ffffffffffffffffffffffffffffffffffffffff166370a08231306040518263ffffffff1660e01b8152600401610a1f91906147fb565b602060405180830381865afa158015610a3c573d6000803e3d6000fd5b505050506040513d601f19601f82011682018060405250810190610a609190614cc9565b612349565b5050505050505050565b600080610a7d8585856123e5565b91509150935093915050565b6000610aca6040518060400160405280601a81526020017f62617365546f6b656e73436f6e7461696e732061646472657373000000000000815250836124d1565b610ade82600261256d90919063ffffffff16565b9050919050565b60004790506000811115610b8d57610afb6115bb565b73ffffffffffffffffffffffffffffffffffffffff166108fc829081150290604051600060405180830381858888f19350505050158015610b40573d6000803e3d6000fd5b5080610b4a6115bb565b73ffffffffffffffffffffffffffffffffffffffff167f7084f5476618d8e60b11ef0d7d3f06914655adb8793e28ff7f018d4c76d505d560405160405180910390a35b60005b610b9a600261259d565b811015610cd9576000610bb78260026125b290919063ffffffff16565b90508073ffffffffffffffffffffffffffffffffffffffff166370a08231306040518263ffffffff1660e01b8152600401610bf291906147fb565b602060405180830381865afa158015610c0f573d6000803e3d6000fd5b505050506040513d601f19601f82011682018060405250810190610c339190614cc9565b92506000831115610cc5578073ffffffffffffffffffffffffffffffffffffffff1663a9059cbb610c626115bb565b856040518363ffffffff1660e01b8152600401610c80929190614dca565b6020604051808303816000875af1158015610c9f573d6000803e3d6000fd5b505050506040513d601f19601f82011682018060405250810190610cc39190614df3565b505b508080610cd190614e20565b915050610b90565b5050565b6000610ce8826125cc565b9050919050565b6000610cfa82612ce4565b9050919050565b610d09612d7b565b610d136000612df9565b565b6000806000610d248585612ebd565b50509050610d676040518060400160405280601681526020017f62617365546f6b656e536d616c6c65723d3d3d3d3d3d0000000000000000000081525082613392565b80610de0578473ffffffffffffffffffffffffffffffffffffffff1663d21220a76040518163ffffffff1660e01b8152600401602060405180830381865afa158015610db7573d6000803e3d6000fd5b505050506040513d601f19601f82011682018060405250810190610ddb9190614e69565b610e50565b8473ffffffffffffffffffffffffffffffffffffffff16630dfe16816040518163ffffffff1660e01b8152600401602060405180830381865afa158015610e2b573d6000803e3d6000fd5b505050506040513d601f19601f82011682018060405250810190610e4f9190614e69565b5b91506000610e5f86868461342e565b92505050610ea66040518060400160405280601581526020017f6f72646572656452657365727665732061313d3d3d00000000000000000000008152508260000151612349565b610ee96040518060400160405280601581526020017f6f72646572656452657365727665732062313d3d3d00000000000000000000008152508260200151612349565b6000610ef4826125cc565b90506000610f0b82846000015185602001516114a8565b90506000610f22838560600151866040015161046b565b905081811015610f355760009650610f44565b8181610f419190614e96565b96505b50505050509250929050565b610f58612d7b565b610f6c8160026121ce90919063ffffffff16565b508073ffffffffffffffffffffffffffffffffffffffff167ffa1388d6e7328e9c711a539b0addfc27de8bfb6f5924cce26f80f41023b1525360405160405180910390a250565b600160009054906101000a900473ffffffffffffffffffffffffffffffffffffffff1673ffffffffffffffffffffffffffffffffffffffff163373ffffffffffffffffffffffffffffffffffffffff1614611043576040517f08c379a000000000000000000000000000000000000000000000000000000000815260040161103a90614b06565b60405180910390fd5b3073ffffffffffffffffffffffffffffffffffffffff168473ffffffffffffffffffffffffffffffffffffffff16146110b1576040517f08c379a00000000000000000000000000000000000000000000000000000000081526004016110a890614b72565b60405180910390fd5b6110ef6040518060400160405280601b81526020017f6869692069276d2063616c6c6564206279206c6f616e2070616972000000000081525061222a565b60008084116110fe5782611100565b835b90506000828060200190518101906111189190614c9c565b905061114d816020015183836060015173ffffffffffffffffffffffffffffffffffffffff166122c39092919063ffffffff16565b60008082604001516111655760008360c0015161116d565b8260c0015160005b9150915061122d6040518060400160405280601381526020017f6265666f726520737761702070616e63616b6500000000000000000000000000815250846080015173ffffffffffffffffffffffffffffffffffffffff166370a08231306040518263ffffffff1660e01b81526004016111e791906147fb565b602060405180830381865afa158015611204573d6000803e3d6000fd5b505050506040513d601f19601f820116820180604052508101906112289190614cc9565b612349565b826020015173ffffffffffffffffffffffffffffffffffffffff1663022c0d9f838330600067ffffffffffffffff81111561126b5761126a6143da565b5b6040519080825280601f01601f19166020018201604052801561129d5781602001600182028036833780820191505090505b506040518563ffffffff1660e01b81526004016112bd9493929190614d7e565b600060405180830381600087803b1580156112d757600080fd5b505af11580156112eb573d6000803e3d6000fd5b505050506113ab6040518060400160405280601281526020017f616674657220737761702070616e63616b650000000000000000000000000000815250846080015173ffffffffffffffffffffffffffffffffffffffff166370a08231306040518263ffffffff1660e01b815260040161136591906147fb565b602060405180830381865afa158015611382573d6000803e3d6000fd5b505050506040513d601f19601f820116820180604052508101906113a69190614cc9565b612349565b6113e283600001518460a00151856080015173ffffffffffffffffffffffffffffffffffffffff166122c39092919063ffffffff16565b61149e6040518060400160405280601381526020017f6166746572207061796f666670616e63616b6500000000000000000000000000815250846080015173ffffffffffffffffffffffffffffffffffffffff166370a08231306040518263ffffffff1660e01b815260040161145891906147fb565b602060405180830381865afa158015611475573d6000803e3d6000fd5b505050506040513d601f19601f820116820180604052508101906114999190614cc9565b612349565b5050505050505050565b60008084116114ec576040517f08c379a00000000000000000000000000000000000000000000000000000000081526004016114e390614f3c565b60405180910390fd5b6000831180156114fc5750600082115b61153b576040517f08c379a000000000000000000000000000000000000000000000000000000000815260040161153290614a0b565b60405180910390fd5b60006115646103e861155687876121fe90919063ffffffff16565b6121fe90919063ffffffff16565b9050600061158f6103e561158188876137e390919063ffffffff16565b6121fe90919063ffffffff16565b90506115b0600182846115a29190614a89565b61221490919063ffffffff16565b925050509392505050565b60008060009054906101000a900473ffffffffffffffffffffffffffffffffffffffff16905090565b6000806115f18484610d15565b915091506115fd6140bb565b6116078585612ebd565b8360400184600001856020018373ffffffffffffffffffffffffffffffffffffffff1673ffffffffffffffffffffffffffffffffffffffff168152508373ffffffffffffffffffffffffffffffffffffffff1673ffffffffffffffffffffffffffffffffffffffff168152508315151515815250505050611686614144565b6116958686846040015161342e565b84606001856080018295508373ffffffffffffffffffffffffffffffffffffffff1673ffffffffffffffffffffffffffffffffffffffff168152508373ffffffffffffffffffffffffffffffffffffffff1673ffffffffffffffffffffffffffffffffffffffff168152505050506117466040518060400160405280601681526020017f696e666f2e6c6f776572506f6f6c3a3d3d3d3d3d3e200000000000000000000081525083606001516124d1565b6117896040518060400160405280601881526020017f696e666f2e686967686572506f6f6c3a3d3d3d3d3d3e2020000000000000000081525083608001516124d1565b6117cc6040518060400160405280601881526020017f6f72646572656452657365727665733a203d3d3d3d3d3e2000000000000000008152508260000151612349565b61180f6040518060400160405280601881526020017f6f72646572656452657365727665733a203d3d3d3d3d3e2000000000000000008152508260200151612349565b6118526040518060400160405280601881526020017f6f72646572656452657365727665733a203d3d3d3d3d3e2000000000000000008152508260400151612349565b6118956040518060400160405280601881526020017f6f72646572656452657365727665733a3d3d3d3d3d3e202000000000000000008152508260600151612349565b8160600151600160006101000a81548173ffffffffffffffffffffffffffffffffffffffff021916908373ffffffffffffffffffffffffffffffffffffffff1602179055506000826000015173ffffffffffffffffffffffffffffffffffffffff166370a08231306040518263ffffffff1660e01b815260040161191991906147fb565b602060405180830381865afa158015611936573d6000803e3d6000fd5b505050506040513d601f19601f8201168201806040525081019061195a9190614cc9565b90506000611967836125cc565b90506119a86040518060400160405280600e81526020017f626f72726f77416d6f756e743a2000000000000000000000000000000000000081525082612349565b60008085604001516119bc578260006119c0565b6000835b91509150611a3a6040518060400160405280600c81526020017f616d6f756e74304f75743a200000000000000000000000000000000000000000815250836040518060400160405280600a81526020017f616d6f756e74314f757400000000000000000000000000000000000000000000815250846137f9565b6000611a4f84876000015188602001516114a8565b9050611a736040518060600160405280602681526020016160bd6026913982612349565b6000611a88858860600151896040015161046b565b9050611aac6040518060600160405280603081526020016160626030913982612349565b818111611aee576040517f08c379a0000000000000000000000000000000000000000000000000000000008152600401611ae590614fa8565b60405180910390fd5b611af661416c565b8860600151816000019073ffffffffffffffffffffffffffffffffffffffff16908173ffffffffffffffffffffffffffffffffffffffff16815250508860800151816020019073ffffffffffffffffffffffffffffffffffffffff16908173ffffffffffffffffffffffffffffffffffffffff168152505088604001518160400190151590811515815250508860200151816060019073ffffffffffffffffffffffffffffffffffffffff16908173ffffffffffffffffffffffffffffffffffffffff16815250508860000151816080019073ffffffffffffffffffffffffffffffffffffffff16908173ffffffffffffffffffffffffffffffffffffffff1681525050828160a0018181525050818160c0018181525050600081604051602001611c219190615074565b6040516020818303038152906040529050896060015173ffffffffffffffffffffffffffffffffffffffff1663022c0d9f878730856040518563ffffffff1660e01b8152600401611c759493929190614d7e565b600060405180830381600087803b158015611c8f57600080fd5b505af1158015611ca3573d6000803e3d6000fd5b505050505050505050506000846000015173ffffffffffffffffffffffffffffffffffffffff166370a08231306040518263ffffffff1660e01b8152600401611cec91906147fb565b602060405180830381865afa158015611d09573d6000803e3d6000fd5b505050506040513d601f19601f82011682018060405250810190611d2d9190614cc9565b9050828111611d71576040517f08c379a0000000000000000000000000000000000000000000000000000000008152600401611d68906150db565b60405180910390fd5b7f000000000000000000000000000000000000000000000000000000000000000073ffffffffffffffffffffffffffffffffffffffff16856000015173ffffffffffffffffffffffffffffffffffffffff161415611e3957846000015173ffffffffffffffffffffffffffffffffffffffff16632e1a7d4d826040518263ffffffff1660e01b8152600401611e0691906142cc565b600060405180830381600087803b158015611e2057600080fd5b505af1158015611e34573d6000803e3d6000fd5b505050505b60018060006101000a81548173ffffffffffffffffffffffffffffffffffffffff021916908373ffffffffffffffffffffffffffffffffffffffff1602179055507ffa5e1c44e71ae543467d983d8c04f9e587b452ef80c127d1e4e08ee2aaf71926868a8a604051611ead939291906150fb565b60405180910390a17f014162593bf5bea87bcf705a9155121b5ad131273c408ad14e12cba23cb308548288604051611ee6929190615132565b60405180910390a1505050505050505050565b611f01612d7b565b60008173ffffffffffffffffffffffffffffffffffffffff166370a08231306040518263ffffffff1660e01b8152600401611f3c91906147fb565b602060405180830381865afa158015611f59573d6000803e3d6000fd5b505050506040513d601f19601f82011682018060405250810190611f7d9190614cc9565b9050600081111561200f578173ffffffffffffffffffffffffffffffffffffffff1663a9059cbb611fac6115bb565b836040518363ffffffff1660e01b8152600401611fca929190614dca565b6020604051808303816000875af1158015611fe9573d6000803e3d6000fd5b505050506040513d601f19601f8201168201806040525081019061200d9190614df3565b505b61202382600261389b90919063ffffffff16565b508173ffffffffffffffffffffffffffffffffffffffff167fdc23a849435922f20a9732eb85192a9d0c1cb34725ebe6d7de0be10212ba02fb60405160405180910390a25050565b60606000612079600261259d565b90508067ffffffffffffffff811115612095576120946143da565b5b6040519080825280602002602001820160405280156120c35781602001602082028036833780820191505090505b50915060005b81811015612145576120e58160026125b290919063ffffffff16565b8382815181106120f8576120f761515b565b5b602002602001019073ffffffffffffffffffffffffffffffffffffffff16908173ffffffffffffffffffffffffffffffffffffffff1681525050808061213d90614e20565b9150506120c9565b505090565b612152612d7b565b600073ffffffffffffffffffffffffffffffffffffffff168173ffffffffffffffffffffffffffffffffffffffff1614156121c2576040517f08c379a00000000000000000000000000000000000000000000000000000000081526004016121b9906151fc565b60405180910390fd5b6121cb81612df9565b50565b60006121f6836000018373ffffffffffffffffffffffffffffffffffffffff1660001b6138cb565b905092915050565b6000818361220c919061521c565b905092915050565b600081836122229190615276565b905092915050565b6122c08160405160240161223e9190615310565b6040516020818303038152906040527f41304fac000000000000000000000000000000000000000000000000000000007bffffffffffffffffffffffffffffffffffffffffffffffffffffffff19166020820180517bffffffffffffffffffffffffffffffffffffffffffffffffffffffff838183161783525050505061393b565b50565b6123448363a9059cbb60e01b84846040516024016122e2929190614dca565b604051602081830303815290604052907bffffffffffffffffffffffffffffffffffffffffffffffffffffffff19166020820180517bffffffffffffffffffffffffffffffffffffffffffffffffffffffff8381831617835250505050613955565b505050565b6123e1828260405160240161235f929190615332565b6040516020818303038152906040527fb60e72cc000000000000000000000000000000000000000000000000000000007bffffffffffffffffffffffffffffffffffffffffffffffffffffffff19166020820180517bffffffffffffffffffffffffffffffffffffffffffffffffffffffff838183161783525050505061393b565b5050565b6000806000838660046123f89190615362565b6124029190615362565b60028661240f91906155d5565b6124199190615641565b90506000811361245e576040517f08c379a000000000000000000000000000000000000000000000000000000000815260040161245590615721565b60405180910390fd5b600061246982612ce4565b90508660026124789190615362565b818761248390615741565b61248d919061578a565b612497919061581e565b93508660026124a69190615362565b81876124b190615741565b6124bb9190615641565b6124c5919061581e565b92505050935093915050565b61256982826040516024016124e7929190615888565b6040516020818303038152906040527f319af333000000000000000000000000000000000000000000000000000000007bffffffffffffffffffffffffffffffffffffffffffffffffffffffff19166020820180517bffffffffffffffffffffffffffffffffffffffffffffffffffffffff838183161783525050505061393b565b5050565b6000612595836000018373ffffffffffffffffffffffffffffffffffffffff1660001b613a1d565b905092915050565b60006125ab82600001613a40565b9050919050565b60006125c18360000183613a51565b60001c905092915050565b60008082602001518360000151106125e85782602001516125ee565b82600001515b905061262f6040518060400160405280601481526020017f6d696e6d696e6d696e6d696e20313131313d3d3d00000000000000000000000081525082612349565b6000836060015184604001511061264a578360600151612650565b83604001515b90506126916040518060400160405280601481526020017f6d696e6d696e6d696e6d696e20323232323d3d3d00000000000000000000000081525082612349565b60008183106126a057816126a2565b825b90506126e36040518060400160405280601581526020017f6d696e6d696e6d696e6d696e20206d696e203d3d3d000000000000000000000081525082612349565b600069d3c21bcecceda10000008211156127475768056bc75e2d6310000090506127426040518060400160405280600281526020017f643100000000000000000000000000000000000000000000000000000000000081525082612349565b612ae7565b69152d02c7e14af68000008211156127a857678ac7230489e8000090506127a36040518060400160405280600281526020017f643200000000000000000000000000000000000000000000000000000000000081525082612349565b612ae6565b69021e19e0c9bab240000082111561280957670de0b6b3a764000090506128046040518060400160405280600281526020017f643300000000000000000000000000000000000000000000000000000000000081525082612349565b612ae5565b683635c9adc5dea000008211156128695767016345785d8a000090506128646040518060400160405280600281526020017f643400000000000000000000000000000000000000000000000000000000000081525082612349565b612ae4565b68056bc75e2d631000008211156128c857662386f26fc1000090506128c36040518060400160405280600281526020017f643500000000000000000000000000000000000000000000000000000000000081525082612349565b612ae3565b678ac7230489e800008211156129265766038d7ea4c6800090506129216040518060400160405280600281526020017f643600000000000000000000000000000000000000000000000000000000000081525082612349565b612ae2565b670de0b6b3a764000082111561298357655af3107a4000905061297e6040518060400160405280600281526020017f643700000000000000000000000000000000000000000000000000000000000081525082612349565b612ae1565b67016345785d8a00008211156129e0576509184e72a00090506129db6040518060400160405280600281526020017f643800000000000000000000000000000000000000000000000000000000000081525082612349565b612ae0565b662386f26fc10000821115612a3b5764e8d4a510009050612a366040518060400160405280600281526020017f643900000000000000000000000000000000000000000000000000000000000081525082612349565b612adf565b66038d7ea4c68000821115612a965764174876e8009050612a916040518060400160405280600381526020017f643130000000000000000000000000000000000000000000000000000000000081525082612349565b612ade565b6402540be4009050612add6040518060400160405280600381526020017f643131000000000000000000000000000000000000000000000000000000000081525082612349565b5b5b5b5b5b5b5b5b5b5b612b266040518060400160405280600b81526020017f646464646464646464646400000000000000000000000000000000000000000081525082612349565b600080600080848a60000151612b3c9190614a89565b858b60400151612b4c9190614a89565b868c60200151612b5c9190614a89565b878d60600151612b6c9190614a89565b935093509350935060008184612b829190615362565b8386612b8e9190615362565b612b989190615641565b905060008486612ba8919061578a565b83856002612bb69190615362565b612bc09190615362565b612bca9190615362565b905060008486612bda9190615362565b8488612be69190615362565b612bf09190615641565b8486612bfc9190615362565b612c069190615362565b9050600080612c168585856123e5565b91509150600082138015612c2957508682125b8015612c3457508582125b80612c555750600081138015612c4957508681125b8015612c5457508581125b5b612c94576040517f08c379a0000000000000000000000000000000000000000000000000000000008152600401612c8b90615904565b60405180910390fd5b600082138015612ca357508682125b8015612cae57508582125b612cc3578981612cbe919061521c565b612cd0565b8982612ccf919061521c565b5b9d5050505050505050505050505050919050565b600060018211612cf757612cf6615924565b5b6000620f424083612d08919061521c565b9050600081905081925060005b600115612d635760028483612d2a9190614a89565b85612d359190615276565b612d3f9190614a89565b90506103e88185612d509190614e96565b1015612d5b57612d63565b809350612d15565b6103e884612d719190614a89565b9350505050919050565b612d83613a7c565b73ffffffffffffffffffffffffffffffffffffffff16612da16115bb565b73ffffffffffffffffffffffffffffffffffffffff1614612df7576040517f08c379a0000000000000000000000000000000000000000000000000000000008152600401612dee9061599f565b60405180910390fd5b565b60008060009054906101000a900473ffffffffffffffffffffffffffffffffffffffff169050816000806101000a81548173ffffffffffffffffffffffffffffffffffffffff021916908373ffffffffffffffffffffffffffffffffffffffff1602179055508173ffffffffffffffffffffffffffffffffffffffff168173ffffffffffffffffffffffffffffffffffffffff167f8be0079c531659141344cd1fd0a4f28419497f9722a3daafe3b4186f6b6457e060405160405180910390a35050565b60008060008373ffffffffffffffffffffffffffffffffffffffff168573ffffffffffffffffffffffffffffffffffffffff161415612f31576040517f08c379a0000000000000000000000000000000000000000000000000000000008152600401612f2890615a0b565b60405180910390fd5b6000808673ffffffffffffffffffffffffffffffffffffffff16630dfe16816040518163ffffffff1660e01b8152600401602060405180830381865afa158015612f7f573d6000803e3d6000fd5b505050506040513d601f19601f82011682018060405250810190612fa39190614e69565b8773ffffffffffffffffffffffffffffffffffffffff1663d21220a76040518163ffffffff1660e01b8152600401602060405180830381865afa158015612fee573d6000803e3d6000fd5b505050506040513d601f19601f820116820180604052508101906130129190614e69565b915091506000808773ffffffffffffffffffffffffffffffffffffffff16630dfe16816040518163ffffffff1660e01b8152600401602060405180830381865afa158015613064573d6000803e3d6000fd5b505050506040513d601f19601f820116820180604052508101906130889190614e69565b8873ffffffffffffffffffffffffffffffffffffffff1663d21220a76040518163ffffffff1660e01b8152600401602060405180830381865afa1580156130d3573d6000803e3d6000fd5b505050506040513d601f19601f820116820180604052508101906130f79190614e69565b9150915061311e6040518060600160405280602c81526020016160e3602c91398585613a84565b61316e6040518060600160405280602b8152602001616092602b91398473ffffffffffffffffffffffffffffffffffffffff168673ffffffffffffffffffffffffffffffffffffffff1610613392565b6131be6040518060600160405280602a8152602001616038602a91398273ffffffffffffffffffffffffffffffffffffffff168473ffffffffffffffffffffffffffffffffffffffff1610613392565b8273ffffffffffffffffffffffffffffffffffffffff168473ffffffffffffffffffffffffffffffffffffffff1610801561322457508073ffffffffffffffffffffffffffffffffffffffff168273ffffffffffffffffffffffffffffffffffffffff16105b613263576040517f08c379a000000000000000000000000000000000000000000000000000000000815260040161325a90615a77565b60405180910390fd5b8173ffffffffffffffffffffffffffffffffffffffff168473ffffffffffffffffffffffffffffffffffffffff161480156132c957508073ffffffffffffffffffffffffffffffffffffffff168373ffffffffffffffffffffffffffffffffffffffff16145b613308576040517f08c379a00000000000000000000000000000000000000000000000000000000081526004016132ff90615ae3565b60405180910390fd5b61331184610a89565b80613321575061332083610a89565b5b613360576040517f08c379a000000000000000000000000000000000000000000000000000000000815260040161335790615b4f565b60405180910390fd5b61336984610a89565b613376576000838561337b565b600184845b809750819850829950505050505050509250925092565b61342a82826040516024016133a8929190615b6f565b6040516020818303038152906040527fc3b55635000000000000000000000000000000000000000000000000000000007bffffffffffffffffffffffffffffffffffffffffffffffffffffffff19166020820180517bffffffffffffffffffffffffffffffffffffffffffffffffffffffff838183161783525050505061393b565b5050565b600080613439614144565b6000808773ffffffffffffffffffffffffffffffffffffffff16630902f1ac6040518163ffffffff1660e01b8152600401606060405180830381865afa158015613487573d6000803e3d6000fd5b505050506040513d601f19601f820116820180604052508101906134ab9190615c21565b506dffffffffffffffffffffffffffff1691506dffffffffffffffffffffffffffff1691506000808873ffffffffffffffffffffffffffffffffffffffff16630902f1ac6040518163ffffffff1660e01b8152600401606060405180830381865afa15801561351e573d6000803e3d6000fd5b505050506040513d601f19601f820116820180604052508101906135429190615c21565b506dffffffffffffffffffffffffffff1691506dffffffffffffffffffffffffffff1691506135a76040518060400160405280601781526020017f72657365727665656565656520756e69737761703d3d3d0000000000000000008152508585613b23565b6135e76040518060400160405280601781526020017f7265736572766565656565652070616e63616b653d3d3d0000000000000000008152508383613b23565b6136276040518060400160405280601781526020017f72657365727665656565656520776574683d3d3d3d3d3d0000000000000000008152508483613b23565b6000808961366a5761364a8661363c87613bc2565b613bfa90919063ffffffff16565b6136658561365786613bc2565b613bfa90919063ffffffff16565b6136a1565b6136858561367788613bc2565b613bfa90919063ffffffff16565b6136a08461369287613bc2565b613bfa90919063ffffffff16565b5b915091506136b88183613c2f90919063ffffffff16565b156137545761370e6040518060400160405280601f81526020017f6865726520707269636530206973206c657373207468656e20707269636531008152506137098385613c2f90919063ffffffff16565b613392565b8b8b809950819a50505089613726578486848661372b565b858585855b8a6000018b6020018c6040018d60600184815250848152508481525084815250505050506137d4565b6137926040518060400160405280600b81526020017f68657265696e20656c736500000000000000000000000000000000000000000081525061222a565b8a8c809950819a505050896137aa57828486886137af565b838387875b8a6000018b6020018c6040018d60600184815250848152508481525084815250505050505b50505050505093509350939050565b600081836137f19190614e96565b905092915050565b613895848484846040516024016138139493929190615c74565b6040516020818303038152906040527fc67ea9d1000000000000000000000000000000000000000000000000000000007bffffffffffffffffffffffffffffffffffffffffffffffffffffffff19166020820180517bffffffffffffffffffffffffffffffffffffffffffffffffffffffff838183161783525050505061393b565b50505050565b60006138c3836000018373ffffffffffffffffffffffffffffffffffffffff1660001b613c45565b905092915050565b60006138d78383613a1d565b613930578260000182908060018154018082558091505060019003906000526020600020016000909190919091505582600001805490508360010160008481526020019081526020016000208190555060019050613935565b600090505b92915050565b6139528161394a613d59613d7a565b63ffffffff16565b50565b60006139b7826040518060400160405280602081526020017f5361666545524332303a206c6f772d6c6576656c2063616c6c206661696c65648152508573ffffffffffffffffffffffffffffffffffffffff16613d859092919063ffffffff16565b90506000815114806139d95750808060200190518101906139d89190614df3565b5b613a18576040517f08c379a0000000000000000000000000000000000000000000000000000000008152600401613a0f90615d39565b60405180910390fd5b505050565b600080836001016000848152602001908152602001600020541415905092915050565b600081600001805490509050919050565b6000826000018281548110613a6957613a6861515b565b5b9060005260206000200154905092915050565b600033905090565b613b1e838383604051602401613a9c93929190615d59565b6040516020818303038152906040527ffcec75e0000000000000000000000000000000000000000000000000000000007bffffffffffffffffffffffffffffffffffffffffffffffffffffffff19166020820180517bffffffffffffffffffffffffffffffffffffffffffffffffffffffff838183161783525050505061393b565b505050565b613bbd838383604051602401613b3b93929190615d97565b6040516020818303038152906040527fca47c4eb000000000000000000000000000000000000000000000000000000007bffffffffffffffffffffffffffffffffffffffffffffffffffffffff19166020820180517bffffffffffffffffffffffffffffffffffffffffffffffffffffffff838183161783525050505061393b565b505050565b613bca614203565b6040518060200160405280613bf0670de0b6b3a764000085613d9d90919063ffffffff16565b8152509050919050565b613c02614203565b6040518060200160405280613c24848660000151613e1890919063ffffffff16565b815250905092915050565b600080613c3c8484613e62565b14905092915050565b60008083600101600084815260200190815260200160002054905060008114613d4d576000600182613c779190614e96565b9050600060018660000180549050613c8f9190614e96565b9050818114613cfe576000866000018281548110613cb057613caf61515b565b5b9060005260206000200154905080876000018481548110613cd457613cd361515b565b5b90600052602060002001819055508387600101600083815260200190815260200160002081905550505b85600001805480613d1257613d11615dd5565b5b600190038181906000526020600020016000905590558560010160008681526020019081526020016000206000905560019350505050613d53565b60009150505b92915050565b60006a636f6e736f6c652e6c6f679050600080835160208501845afa505050565b614216819050919050565b6060613d948484600085613ea2565b90509392505050565b600080831415613db05760009050613e12565b60008284613dbe919061521c565b9050828482613dcd9190614a89565b14613e0d576040517f08c379a0000000000000000000000000000000000000000000000000000000008152600401613e0490615e76565b60405180910390fd5b809150505b92915050565b6000613e5a83836040518060400160405280601a81526020017f536166654d6174683a206469766973696f6e206279207a65726f000000000000815250613f6f565b905092915050565b6000816000015183600001511415613e7d5760019050613e9c565b8160000151836000015111613e93576000613e96565b60025b60ff1690505b92915050565b606082471015613ee7576040517f08c379a0000000000000000000000000000000000000000000000000000000008152600401613ede90615f08565b60405180910390fd5b6000808673ffffffffffffffffffffffffffffffffffffffff168587604051613f109190615f64565b60006040518083038185875af1925050503d8060008114613f4d576040519150601f19603f3d011682016040523d82523d6000602084013e613f52565b606091505b5091509150613f6387838387613fd2565b92505050949350505050565b60008083118290613fb6576040517f08c379a0000000000000000000000000000000000000000000000000000000008152600401613fad9190615310565b60405180910390fd5b5060008385613fc59190614a89565b9050809150509392505050565b606083156140355760008351141561402d57613fed85614048565b61402c576040517f08c379a000000000000000000000000000000000000000000000000000000000815260040161402390615fc7565b60405180910390fd5b5b829050614040565b61403f838361406b565b5b949350505050565b6000808273ffffffffffffffffffffffffffffffffffffffff163b119050919050565b60008251111561407e5781518083602001fd5b806040517f08c379a00000000000000000000000000000000000000000000000000000000081526004016140b29190615310565b60405180910390fd5b6040518060a00160405280600073ffffffffffffffffffffffffffffffffffffffff168152602001600073ffffffffffffffffffffffffffffffffffffffff168152602001600015158152602001600073ffffffffffffffffffffffffffffffffffffffff168152602001600073ffffffffffffffffffffffffffffffffffffffff1681525090565b6040518060800160405280600081526020016000815260200160008152602001600081525090565b6040518060e00160405280600073ffffffffffffffffffffffffffffffffffffffff168152602001600073ffffffffffffffffffffffffffffffffffffffff168152602001600015158152602001600073ffffffffffffffffffffffffffffffffffffffff168152602001600073ffffffffffffffffffffffffffffffffffffffff16815260200160008152602001600081525090565b6040518060200160405280600081525090565b61421e615fe7565b565b6000604051905090565b600080fd5b600080fd5b6000819050919050565b61424781614234565b811461425257600080fd5b50565b6000813590506142648161423e565b92915050565b6000806000606084860312156142835761428261422a565b5b600061429186828701614255565b93505060206142a286828701614255565b92505060406142b386828701614255565b9150509250925092565b6142c681614234565b82525050565b60006020820190506142e160008301846142bd565b92915050565b600073ffffffffffffffffffffffffffffffffffffffff82169050919050565b6000819050919050565b600061432c614327614322846142e7565b614307565b6142e7565b9050919050565b600061433e82614311565b9050919050565b600061435082614333565b9050919050565b61436081614345565b82525050565b600060208201905061437b6000830184614357565b92915050565b600061438c826142e7565b9050919050565b61439c81614381565b81146143a757600080fd5b50565b6000813590506143b981614393565b92915050565b600080fd5b600080fd5b6000601f19601f8301169050919050565b7f4e487b7100000000000000000000000000000000000000000000000000000000600052604160045260246000fd5b614412826143c9565b810181811067ffffffffffffffff82111715614431576144306143da565b5b80604052505050565b6000614444614220565b90506144508282614409565b919050565b600067ffffffffffffffff8211156144705761446f6143da565b5b614479826143c9565b9050602081019050919050565b82818337600083830152505050565b60006144a86144a384614455565b61443a565b9050828152602081018484840111156144c4576144c36143c4565b5b6144cf848285614486565b509392505050565b600082601f8301126144ec576144eb6143bf565b5b81356144fc848260208601614495565b91505092915050565b6000806000806080858703121561451f5761451e61422a565b5b600061452d878288016143aa565b945050602061453e87828801614255565b935050604061454f87828801614255565b925050606085013567ffffffffffffffff8111156145705761456f61422f565b5b61457c878288016144d7565b91505092959194509250565b6000819050919050565b61459b81614588565b81146145a657600080fd5b50565b6000813590506145b881614592565b92915050565b6000806000606084860312156145d7576145d661422a565b5b60006145e5868287016145a9565b93505060206145f6868287016145a9565b9250506040614607868287016145a9565b9150509250925092565b61461a81614588565b82525050565b60006040820190506146356000830185614611565b6146426020830184614611565b9392505050565b60006020828403121561465f5761465e61422a565b5b600061466d848285016143aa565b91505092915050565b60008115159050919050565b61468b81614676565b82525050565b60006020820190506146a66000830184614682565b92915050565b600080fd5b6000608082840312156146c7576146c66146ac565b5b6146d1608061443a565b905060006146e184828501614255565b60008301525060206146f584828501614255565b602083015250604061470984828501614255565b604083015250606061471d84828501614255565b60608301525092915050565b60006080828403121561473f5761473e61422a565b5b600061474d848285016146b1565b91505092915050565b60006020828403121561476c5761476b61422a565b5b600061477a84828501614255565b91505092915050565b6000806040838503121561479a5761479961422a565b5b60006147a8858286016143aa565b92505060206147b9858286016143aa565b9150509250929050565b6147cc81614381565b82525050565b60006040820190506147e760008301856142bd565b6147f460208301846147c3565b9392505050565b600060208201905061481060008301846147c3565b92915050565b600081519050919050565b600082825260208201905092915050565b6000819050602082019050919050565b61484b81614381565b82525050565b600061485d8383614842565b60208301905092915050565b6000602082019050919050565b600061488182614816565b61488b8185614821565b935061489683614832565b8060005b838110156148c75781516148ae8882614851565b97506148b983614869565b92505060018101905061489a565b5085935050505092915050565b600060208201905081810360008301526148ee8184614876565b905092915050565b600082825260208201905092915050565b7f556e697377617056324c6962726172793a20494e53554646494349454e545f4960008201527f4e5055545f414d4f554e54000000000000000000000000000000000000000000602082015250565b6000614963602b836148f6565b915061496e82614907565b604082019050919050565b6000602082019050818103600083015261499281614956565b9050919050565b7f556e697377617056324c6962726172793a20494e53554646494349454e545f4c60008201527f4951554944495459000000000000000000000000000000000000000000000000602082015250565b60006149f56028836148f6565b9150614a0082614999565b604082019050919050565b60006020820190508181036000830152614a24816149e8565b9050919050565b7f4e487b7100000000000000000000000000000000000000000000000000000000600052601260045260246000fd5b7f4e487b7100000000000000000000000000000000000000000000000000000000600052601160045260246000fd5b6000614a9482614234565b9150614a9f83614234565b925082614aaf57614aae614a2b565b5b828204905092915050565b7f4e6f6e207065726d697373696f6e656420616464726573732063616c6c000000600082015250565b6000614af0601d836148f6565b9150614afb82614aba565b602082019050919050565b60006020820190508181036000830152614b1f81614ae3565b9050919050565b7f4e6f742066726f6d207468697320636f6e747261637400000000000000000000600082015250565b6000614b5c6016836148f6565b9150614b6782614b26565b602082019050919050565b60006020820190508181036000830152614b8b81614b4f565b9050919050565b600081519050614ba181614393565b92915050565b614bb081614676565b8114614bbb57600080fd5b50565b600081519050614bcd81614ba7565b92915050565b600081519050614be28161423e565b92915050565b600060e08284031215614bfe57614bfd6146ac565b5b614c0860e061443a565b90506000614c1884828501614b92565b6000830152506020614c2c84828501614b92565b6020830152506040614c4084828501614bbe565b6040830152506060614c5484828501614b92565b6060830152506080614c6884828501614b92565b60808301525060a0614c7c84828501614bd3565b60a08301525060c0614c9084828501614bd3565b60c08301525092915050565b600060e08284031215614cb257614cb161422a565b5b6000614cc084828501614be8565b91505092915050565b600060208284031215614cdf57614cde61422a565b5b6000614ced84828501614bd3565b91505092915050565b600081519050919050565b600082825260208201905092915050565b60005b83811015614d30578082015181840152602081019050614d15565b83811115614d3f576000848401525b50505050565b6000614d5082614cf6565b614d5a8185614d01565b9350614d6a818560208601614d12565b614d73816143c9565b840191505092915050565b6000608082019050614d9360008301876142bd565b614da060208301866142bd565b614dad60408301856147c3565b8181036060830152614dbf8184614d45565b905095945050505050565b6000604082019050614ddf60008301856147c3565b614dec60208301846142bd565b9392505050565b600060208284031215614e0957614e0861422a565b5b6000614e1784828501614bbe565b91505092915050565b6000614e2b82614234565b91507fffffffffffffffffffffffffffffffffffffffffffffffffffffffffffffffff821415614e5e57614e5d614a5a565b5b600182019050919050565b600060208284031215614e7f57614e7e61422a565b5b6000614e8d84828501614b92565b91505092915050565b6000614ea182614234565b9150614eac83614234565b925082821015614ebf57614ebe614a5a565b5b828203905092915050565b7f556e697377617056324c6962726172793a20494e53554646494349454e545f4f60008201527f55545055545f414d4f554e540000000000000000000000000000000000000000602082015250565b6000614f26602c836148f6565b9150614f3182614eca565b604082019050919050565b60006020820190508181036000830152614f5581614f19565b9050919050565b7f417262697472616765206661696c2c206e6f2070726f66697400000000000000600082015250565b6000614f926019836148f6565b9150614f9d82614f5c565b602082019050919050565b60006020820190508181036000830152614fc181614f85565b9050919050565b614fd181614676565b82525050565b614fe081614234565b82525050565b60e082016000820151614ffc6000850182614842565b50602082015161500f6020850182614842565b5060408201516150226040850182614fc8565b5060608201516150356060850182614842565b5060808201516150486080850182614842565b5060a082015161505b60a0850182614fd7565b5060c082015161506e60c0850182614fd7565b50505050565b600060e0820190506150896000830184614fe6565b92915050565b7f4c6f73696e67206d6f6e65790000000000000000000000000000000000000000600082015250565b60006150c5600c836148f6565b91506150d08261508f565b602082019050919050565b600060208201905081810360008301526150f4816150b8565b9050919050565b600060608201905061511060008301866147c3565b61511d60208301856147c3565b61512a60408301846147c3565b949350505050565b600060408201905061514760008301856142bd565b61515460208301846142bd565b9392505050565b7f4e487b7100000000000000000000000000000000000000000000000000000000600052603260045260246000fd5b7f4f776e61626c653a206e6577206f776e657220697320746865207a65726f206160008201527f6464726573730000000000000000000000000000000000000000000000000000602082015250565b60006151e66026836148f6565b91506151f18261518a565b604082019050919050565b60006020820190508181036000830152615215816151d9565b9050919050565b600061522782614234565b915061523283614234565b9250817fffffffffffffffffffffffffffffffffffffffffffffffffffffffffffffffff048311821515161561526b5761526a614a5a565b5b828202905092915050565b600061528182614234565b915061528c83614234565b9250827fffffffffffffffffffffffffffffffffffffffffffffffffffffffffffffffff038211156152c1576152c0614a5a565b5b828201905092915050565b600081519050919050565b60006152e2826152cc565b6152ec81856148f6565b93506152fc818560208601614d12565b615305816143c9565b840191505092915050565b6000602082019050818103600083015261532a81846152d7565b905092915050565b6000604082019050818103600083015261534c81856152d7565b905061535b60208301846142bd565b9392505050565b600061536d82614588565b915061537883614588565b9250827f7fffffffffffffffffffffffffffffffffffffffffffffffffffffffffffffff04821160008413600084131616156153b7576153b6614a5a565b5b817f800000000000000000000000000000000000000000000000000000000000000005831260008412600084131616156153f4576153f3614a5a565b5b827f8000000000000000000000000000000000000000000000000000000000000000058212600084136000841216161561543157615430614a5a565b5b827f7fffffffffffffffffffffffffffffffffffffffffffffffffffffffffffffff058212600084126000841216161561546e5761546d614a5a565b5b828202905092915050565b60008160011c9050919050565b6000808291508390505b60018511156154d0578086048111156154ac576154ab614a5a565b5b60018516156154bb5780820291505b80810290506154c985615479565b9450615490565b94509492505050565b600082600081146154f157600181146154fb57615504565b60019150506155c0565b829150506155c0565b508161551357600090506155c0565b60019050600082136001811461553057600081146155485761555c565b82860483111561554357615542614a5a565b5b61555c565b82860583121561555b5761555a614a5a565b5b5b50600183161561556a578190505b818202915061557883615479565b925061558685848484615486565b9250905081850481116000821316156155a2576155a1614a5a565b5b81840581126000821216156155ba576155b9614a5a565b5b81810290505b949350505050565b600060ff82169050919050565b60006155e082614588565b91506155eb836155c8565b92506156397f7fffffffffffffffffffffffffffffffffffffffffffffffffffffffffffffff7f800000000000000000000000000000000000000000000000000000000000000085856154d9565b905092915050565b600061564c82614588565b915061565783614588565b9250827f80000000000000000000000000000000000000000000000000000000000000000182126000841215161561569257615691614a5a565b5b827f7fffffffffffffffffffffffffffffffffffffffffffffffffffffffffffffff0182136000841216156156ca576156c9614a5a565b5b828203905092915050565b7f436f6d706c6578206e756d626572000000000000000000000000000000000000600082015250565b600061570b600e836148f6565b9150615716826156d5565b602082019050919050565b6000602082019050818103600083015261573a816156fe565b9050919050565b600061574c82614588565b91507f800000000000000000000000000000000000000000000000000000000000000082141561577f5761577e614a5a565b5b816000039050919050565b600061579582614588565b91506157a083614588565b9250817f7fffffffffffffffffffffffffffffffffffffffffffffffffffffffffffffff038313600083121516156157db576157da614a5a565b5b817f800000000000000000000000000000000000000000000000000000000000000003831260008312161561581357615812614a5a565b5b828201905092915050565b600061582982614588565b915061583483614588565b92508261584457615843614a2b565b5b600160000383147f80000000000000000000000000000000000000000000000000000000000000008314161561587d5761587c614a5a565b5b828205905092915050565b600060408201905081810360008301526158a281856152d7565b90506158b160208301846147c3565b9392505050565b7f57726f6e6720696e707574206f72646572000000000000000000000000000000600082015250565b60006158ee6011836148f6565b91506158f9826158b8565b602082019050919050565b6000602082019050818103600083015261591d816158e1565b9050919050565b7f4e487b7100000000000000000000000000000000000000000000000000000000600052600160045260246000fd5b7f4f776e61626c653a2063616c6c6572206973206e6f7420746865206f776e6572600082015250565b60006159896020836148f6565b915061599482615953565b602082019050919050565b600060208201905081810360008301526159b88161597c565b9050919050565b7f53616d6520706169722061646472657373000000000000000000000000000000600082015250565b60006159f56011836148f6565b9150615a00826159bf565b602082019050919050565b60006020820190508181036000830152615a24816159e8565b9050919050565b7f4e6f6e207374616e6461726420756e697377617020414d4d2070616972000000600082015250565b6000615a61601d836148f6565b9150615a6c82615a2b565b602082019050919050565b60006020820190508181036000830152615a9081615a54565b9050919050565b7f526571756972652073616d6520746f6b656e2070616972000000000000000000600082015250565b6000615acd6017836148f6565b9150615ad882615a97565b602082019050919050565b60006020820190508181036000830152615afc81615ac0565b9050919050565b7f4e6f206261736520746f6b656e20696e20706169720000000000000000000000600082015250565b6000615b396015836148f6565b9150615b4482615b03565b602082019050919050565b60006020820190508181036000830152615b6881615b2c565b9050919050565b60006040820190508181036000830152615b8981856152d7565b9050615b986020830184614682565b9392505050565b60006dffffffffffffffffffffffffffff82169050919050565b615bc281615b9f565b8114615bcd57600080fd5b50565b600081519050615bdf81615bb9565b92915050565b600063ffffffff82169050919050565b615bfe81615be5565b8114615c0957600080fd5b50565b600081519050615c1b81615bf5565b92915050565b600080600060608486031215615c3a57615c3961422a565b5b6000615c4886828701615bd0565b9350506020615c5986828701615bd0565b9250506040615c6a86828701615c0c565b9150509250925092565b60006080820190508181036000830152615c8e81876152d7565b9050615c9d60208301866142bd565b8181036040830152615caf81856152d7565b9050615cbe60608301846142bd565b95945050505050565b7f5361666545524332303a204552433230206f7065726174696f6e20646964206e60008201527f6f74207375636365656400000000000000000000000000000000000000000000602082015250565b6000615d23602a836148f6565b9150615d2e82615cc7565b604082019050919050565b60006020820190508181036000830152615d5281615d16565b9050919050565b60006060820190508181036000830152615d7381866152d7565b9050615d8260208301856147c3565b615d8f60408301846147c3565b949350505050565b60006060820190508181036000830152615db181866152d7565b9050615dc060208301856142bd565b615dcd60408301846142bd565b949350505050565b7f4e487b7100000000000000000000000000000000000000000000000000000000600052603160045260246000fd5b7f536166654d6174683a206d756c7469706c69636174696f6e206f766572666c6f60008201527f7700000000000000000000000000000000000000000000000000000000000000602082015250565b6000615e606021836148f6565b9150615e6b82615e04565b604082019050919050565b60006020820190508181036000830152615e8f81615e53565b9050919050565b7f416464726573733a20696e73756666696369656e742062616c616e636520666f60008201527f722063616c6c0000000000000000000000000000000000000000000000000000602082015250565b6000615ef26026836148f6565b9150615efd82615e96565b604082019050919050565b60006020820190508181036000830152615f2181615ee5565b9050919050565b600081905092915050565b6000615f3e82614cf6565b615f488185615f28565b9350615f58818560208601614d12565b80840191505092915050565b6000615f708284615f33565b915081905092915050565b7f416464726573733a2063616c6c20746f206e6f6e2d636f6e7472616374000000600082015250565b6000615fb1601d836148f6565b9150615fbc82615f7b565b602082019050919050565b60006020820190508181036000830152615fe081615fa4565b9050919050565b7f4e487b7100000000000000000000000000000000000000000000000000000000600052605160045260246000fdfe6166746572207061796f66662062617365746f6b656e2042616c616e63653d3d3e7a7a7a7a7a7a7a7a7a7a7a7a7a7a7a7a7a7a7a7a7a7a7a7a7a7a7a7a7a7a7a7a7a7a7a7a7a7a7a7a3d3d73656c6c20626f72726f7765642071756f746520746f6b656e206f6e206869676865722070726963653d3d3d3d3e3e207a7a7a7a7a7a7a7a7a7a7a7a7a7a7a7a7a7a7a7a7a7a7a7a7a7a7a7a7a7a7a7a7a7a7a7a7a7a7a3d3e2073626f72726f772071756f746520746f6b656e2066726f6d20636865617020706f6f6c3d3d3e207a7a7a7a7a7a7a7a7a7a7a7a7a7a7a7a7a7a7a7a7a7a7a7a7a7a7a7a7a7a7a7a7a7a7a7a7a20746f6b656e20a2646970667358221220522d604671a3c61c97df10380293fae10b20b43d249ddd6b7e3d6af1e44327be64736f6c634300080a0033",
			"opcodes": "PUSH1 0xA0 PUSH1 0x40 MSTORE PUSH1 0x1 DUP1 PUSH1 0x0 PUSH2 0x100 EXP DUP2 SLOAD DUP2 PUSH20 0xFFFFFFFFFFFFFFFFFFFFFFFFFFFFFFFFFFFFFFFF MUL NOT AND SWAP1 DUP4 PUSH20 0xFFFFFFFFFFFFFFFFFFFFFFFFFFFFFFFFFFFFFFFF AND MUL OR SWAP1 SSTORE POP CALLVALUE DUP1 ISZERO PUSH3 0x52 JUMPI PUSH1 0x0 DUP1 REVERT JUMPDEST POP PUSH1 0x1 PUSH3 0x75 PUSH3 0x69 PUSH3 0xCC PUSH1 0x20 SHL PUSH1 0x20 SHR JUMP JUMPDEST PUSH3 0xD4 PUSH1 0x20 SHL PUSH1 0x20 SHR JUMP JUMPDEST DUP1 PUSH20 0xFFFFFFFFFFFFFFFFFFFFFFFFFFFFFFFFFFFFFFFF AND PUSH1 0x80 DUP2 PUSH20 0xFFFFFFFFFFFFFFFFFFFFFFFFFFFFFFFFFFFFFFFF AND DUP2 MSTORE POP POP PUSH3 0xC4 DUP2 PUSH1 0x2 PUSH3 0x198 PUSH1 0x20 SHL PUSH3 0x21CE OR SWAP1 SWAP2 SWAP1 PUSH1 0x20 SHR JUMP JUMPDEST POP POP PUSH3 0x26D JUMP JUMPDEST PUSH1 0x0 CALLER SWAP1 POP SWAP1 JUMP JUMPDEST PUSH1 0x0 DUP1 PUSH1 0x0 SWAP1 SLOAD SWAP1 PUSH2 0x100 EXP SWAP1 DIV PUSH20 0xFFFFFFFFFFFFFFFFFFFFFFFFFFFFFFFFFFFFFFFF AND SWAP1 POP DUP2 PUSH1 0x0 DUP1 PUSH2 0x100 EXP DUP2 SLOAD DUP2 PUSH20 0xFFFFFFFFFFFFFFFFFFFFFFFFFFFFFFFFFFFFFFFF MUL NOT AND SWAP1 DUP4 PUSH20 0xFFFFFFFFFFFFFFFFFFFFFFFFFFFFFFFFFFFFFFFF AND MUL OR SWAP1 SSTORE POP DUP2 PUSH20 0xFFFFFFFFFFFFFFFFFFFFFFFFFFFFFFFFFFFFFFFF AND DUP2 PUSH20 0xFFFFFFFFFFFFFFFFFFFFFFFFFFFFFFFFFFFFFFFF AND PUSH32 0x8BE0079C531659141344CD1FD0A4F28419497F9722A3DAAFE3B4186F6B6457E0 PUSH1 0x40 MLOAD PUSH1 0x40 MLOAD DUP1 SWAP2 SUB SWAP1 LOG3 POP POP JUMP JUMPDEST PUSH1 0x0 PUSH3 0x1C8 DUP4 PUSH1 0x0 ADD DUP4 PUSH20 0xFFFFFFFFFFFFFFFFFFFFFFFFFFFFFFFFFFFFFFFF AND PUSH1 0x0 SHL PUSH3 0x1D0 PUSH1 0x20 SHL PUSH1 0x20 SHR JUMP JUMPDEST SWAP1 POP SWAP3 SWAP2 POP POP JUMP JUMPDEST PUSH1 0x0 PUSH3 0x1E4 DUP4 DUP4 PUSH3 0x24A PUSH1 0x20 SHL PUSH1 0x20 SHR JUMP JUMPDEST PUSH3 0x23F JUMPI DUP3 PUSH1 0x0 ADD DUP3 SWAP1 DUP1 PUSH1 0x1 DUP2 SLOAD ADD DUP1 DUP3 SSTORE DUP1 SWAP2 POP POP PUSH1 0x1 SWAP1 SUB SWAP1 PUSH1 0x0 MSTORE PUSH1 0x20 PUSH1 0x0 KECCAK256 ADD PUSH1 0x0 SWAP1 SWAP2 SWAP1 SWAP2 SWAP1 SWAP2 POP SSTORE DUP3 PUSH1 0x0 ADD DUP1 SLOAD SWAP1 POP DUP4 PUSH1 0x1 ADD PUSH1 0x0 DUP5 DUP2 MSTORE PUSH1 0x20 ADD SWAP1 DUP2 MSTORE PUSH1 0x20 ADD PUSH1 0x0 KECCAK256 DUP2 SWAP1 SSTORE POP PUSH1 0x1 SWAP1 POP PUSH3 0x244 JUMP JUMPDEST PUSH1 0x0 SWAP1 POP JUMPDEST SWAP3 SWAP2 POP POP JUMP JUMPDEST PUSH1 0x0 DUP1 DUP4 PUSH1 0x1 ADD PUSH1 0x0 DUP5 DUP2 MSTORE PUSH1 0x20 ADD SWAP1 DUP2 MSTORE PUSH1 0x20 ADD PUSH1 0x0 KECCAK256 SLOAD EQ ISZERO SWAP1 POP SWAP3 SWAP2 POP POP JUMP JUMPDEST PUSH1 0x80 MLOAD PUSH2 0x6144 PUSH3 0x289 PUSH1 0x0 CODECOPY PUSH1 0x0 PUSH2 0x1D73 ADD MSTORE PUSH2 0x6144 PUSH1 0x0 RETURN INVALID PUSH1 0x80 PUSH1 0x40 MSTORE PUSH1 0x4 CALLDATASIZE LT PUSH2 0x10D JUMPI PUSH1 0x0 CALLDATALOAD PUSH1 0xE0 SHR DUP1 PUSH4 0x759EEE10 GT PUSH2 0x95 JUMPI DUP1 PUSH4 0x8DA5CB5B GT PUSH2 0x64 JUMPI DUP1 PUSH4 0x8DA5CB5B EQ PUSH2 0x39A JUMPI DUP1 PUSH4 0x9C79B0F6 EQ PUSH2 0x3C5 JUMPI DUP1 PUSH4 0xBBD1E122 EQ PUSH2 0x3EE JUMPI DUP1 PUSH4 0xBED64C2F EQ PUSH2 0x417 JUMPI DUP1 PUSH4 0xF2FDE38B EQ PUSH2 0x442 JUMPI PUSH2 0x114 JUMP JUMPDEST DUP1 PUSH4 0x759EEE10 EQ PUSH2 0x2CD JUMPI DUP1 PUSH4 0x83E280D9 EQ PUSH2 0x30B JUMPI DUP1 PUSH4 0x84800812 EQ PUSH2 0x334 JUMPI DUP1 PUSH4 0x85F8C259 EQ PUSH2 0x35D JUMPI PUSH2 0x114 JUMP JUMPDEST DUP1 PUSH4 0x21D09426 GT PUSH2 0xDC JUMPI DUP1 PUSH4 0x21D09426 EQ PUSH2 0x1E8 JUMPI DUP1 PUSH4 0x3CCFD60B EQ PUSH2 0x225 JUMPI DUP1 PUSH4 0x5E3E73CE EQ PUSH2 0x23C JUMPI DUP1 PUSH4 0x6A263F02 EQ PUSH2 0x279 JUMPI DUP1 PUSH4 0x715018A6 EQ PUSH2 0x2B6 JUMPI PUSH2 0x114 JUMP JUMPDEST DUP1 PUSH4 0x54D50D4 EQ PUSH2 0x119 JUMPI DUP1 PUSH4 0x7170832 EQ PUSH2 0x156 JUMPI DUP1 PUSH4 0x10D1E85C EQ PUSH2 0x181 JUMPI DUP1 PUSH4 0x17C1E4DD EQ PUSH2 0x1AA JUMPI PUSH2 0x114 JUMP JUMPDEST CALLDATASIZE PUSH2 0x114 JUMPI STOP JUMPDEST PUSH1 0x0 DUP1 REVERT JUMPDEST CALLVALUE DUP1 ISZERO PUSH2 0x125 JUMPI PUSH1 0x0 DUP1 REVERT JUMPDEST POP PUSH2 0x140 PUSH1 0x4 DUP1 CALLDATASIZE SUB DUP2 ADD SWAP1 PUSH2 0x13B SWAP2 SWAP1 PUSH2 0x426A JUMP JUMPDEST PUSH2 0x46B JUMP JUMPDEST PUSH1 0x40 MLOAD PUSH2 0x14D SWAP2 SWAP1 PUSH2 0x42CC JUMP JUMPDEST PUSH1 0x40 MLOAD DUP1 SWAP2 SUB SWAP1 RETURN JUMPDEST CALLVALUE DUP1 ISZERO PUSH2 0x162 JUMPI PUSH1 0x0 DUP1 REVERT JUMPDEST POP PUSH2 0x16B PUSH2 0x571 JUMP JUMPDEST PUSH1 0x40 MLOAD PUSH2 0x178 SWAP2 SWAP1 PUSH2 0x4366 JUMP JUMPDEST PUSH1 0x40 MLOAD DUP1 SWAP2 SUB SWAP1 RETURN JUMPDEST CALLVALUE DUP1 ISZERO PUSH2 0x18D JUMPI PUSH1 0x0 DUP1 REVERT JUMPDEST POP PUSH2 0x1A8 PUSH1 0x4 DUP1 CALLDATASIZE SUB DUP2 ADD SWAP1 PUSH2 0x1A3 SWAP2 SWAP1 PUSH2 0x4505 JUMP JUMPDEST PUSH2 0x597 JUMP JUMPDEST STOP JUMPDEST CALLVALUE DUP1 ISZERO PUSH2 0x1B6 JUMPI PUSH1 0x0 DUP1 REVERT JUMPDEST POP PUSH2 0x1D1 PUSH1 0x4 DUP1 CALLDATASIZE SUB DUP2 ADD SWAP1 PUSH2 0x1CC SWAP2 SWAP1 PUSH2 0x45BE JUMP JUMPDEST PUSH2 0xA6F JUMP JUMPDEST PUSH1 0x40 MLOAD PUSH2 0x1DF SWAP3 SWAP2 SWAP1 PUSH2 0x4620 JUMP JUMPDEST PUSH1 0x40 MLOAD DUP1 SWAP2 SUB SWAP1 RETURN JUMPDEST CALLVALUE DUP1 ISZERO PUSH2 0x1F4 JUMPI PUSH1 0x0 DUP1 REVERT JUMPDEST POP PUSH2 0x20F PUSH1 0x4 DUP1 CALLDATASIZE SUB DUP2 ADD SWAP1 PUSH2 0x20A SWAP2 SWAP1 PUSH2 0x4649 JUMP JUMPDEST PUSH2 0xA89 JUMP JUMPDEST PUSH1 0x40 MLOAD PUSH2 0x21C SWAP2 SWAP1 PUSH2 0x4691 JUMP JUMPDEST PUSH1 0x40 MLOAD DUP1 SWAP2 SUB SWAP1 RETURN JUMPDEST CALLVALUE DUP1 ISZERO PUSH2 0x231 JUMPI PUSH1 0x0 DUP1 REVERT JUMPDEST POP PUSH2 0x23A PUSH2 0xAE5 JUMP JUMPDEST STOP JUMPDEST CALLVALUE DUP1 ISZERO PUSH2 0x248 JUMPI PUSH1 0x0 DUP1 REVERT JUMPDEST POP PUSH2 0x263 PUSH1 0x4 DUP1 CALLDATASIZE SUB DUP2 ADD SWAP1 PUSH2 0x25E SWAP2 SWAP1 PUSH2 0x4729 JUMP JUMPDEST PUSH2 0xCDD JUMP JUMPDEST PUSH1 0x40 MLOAD PUSH2 0x270 SWAP2 SWAP1 PUSH2 0x42CC JUMP JUMPDEST PUSH1 0x40 MLOAD DUP1 SWAP2 SUB SWAP1 RETURN JUMPDEST CALLVALUE DUP1 ISZERO PUSH2 0x285 JUMPI PUSH1 0x0 DUP1 REVERT JUMPDEST POP PUSH2 0x2A0 PUSH1 0x4 DUP1 CALLDATASIZE SUB DUP2 ADD SWAP1 PUSH2 0x29B SWAP2 SWAP1 PUSH2 0x4756 JUMP JUMPDEST PUSH2 0xCEF JUMP JUMPDEST PUSH1 0x40 MLOAD PUSH2 0x2AD SWAP2 SWAP1 PUSH2 0x42CC JUMP JUMPDEST PUSH1 0x40 MLOAD DUP1 SWAP2 SUB SWAP1 RETURN JUMPDEST CALLVALUE DUP1 ISZERO PUSH2 0x2C2 JUMPI PUSH1 0x0 DUP1 REVERT JUMPDEST POP PUSH2 0x2CB PUSH2 0xD01 JUMP JUMPDEST STOP JUMPDEST CALLVALUE DUP1 ISZERO PUSH2 0x2D9 JUMPI PUSH1 0x0 DUP1 REVERT JUMPDEST POP PUSH2 0x2F4 PUSH1 0x4 DUP1 CALLDATASIZE SUB DUP2 ADD SWAP1 PUSH2 0x2EF SWAP2 SWAP1 PUSH2 0x4783 JUMP JUMPDEST PUSH2 0xD15 JUMP JUMPDEST PUSH1 0x40 MLOAD PUSH2 0x302 SWAP3 SWAP2 SWAP1 PUSH2 0x47D2 JUMP JUMPDEST PUSH1 0x40 MLOAD DUP1 SWAP2 SUB SWAP1 RETURN JUMPDEST CALLVALUE DUP1 ISZERO PUSH2 0x317 JUMPI PUSH1 0x0 DUP1 REVERT JUMPDEST POP PUSH2 0x332 PUSH1 0x4 DUP1 CALLDATASIZE SUB DUP2 ADD SWAP1 PUSH2 0x32D SWAP2 SWAP1 PUSH2 0x4649 JUMP JUMPDEST PUSH2 0xF50 JUMP JUMPDEST STOP JUMPDEST CALLVALUE DUP1 ISZERO PUSH2 0x340 JUMPI PUSH1 0x0 DUP1 REVERT JUMPDEST POP PUSH2 0x35B PUSH1 0x4 DUP1 CALLDATASIZE SUB DUP2 ADD SWAP1 PUSH2 0x356 SWAP2 SWAP1 PUSH2 0x4505 JUMP JUMPDEST PUSH2 0xFB3 JUMP JUMPDEST STOP JUMPDEST CALLVALUE DUP1 ISZERO PUSH2 0x369 JUMPI PUSH1 0x0 DUP1 REVERT JUMPDEST POP PUSH2 0x384 PUSH1 0x4 DUP1 CALLDATASIZE SUB DUP2 ADD SWAP1 PUSH2 0x37F SWAP2 SWAP1 PUSH2 0x426A JUMP JUMPDEST PUSH2 0x14A8 JUMP JUMPDEST PUSH1 0x40 MLOAD PUSH2 0x391 SWAP2 SWAP1 PUSH2 0x42CC JUMP JUMPDEST PUSH1 0x40 MLOAD DUP1 SWAP2 SUB SWAP1 RETURN JUMPDEST CALLVALUE DUP1 ISZERO PUSH2 0x3A6 JUMPI PUSH1 0x0 DUP1 REVERT JUMPDEST POP PUSH2 0x3AF PUSH2 0x15BB JUMP JUMPDEST PUSH1 0x40 MLOAD PUSH2 0x3BC SWAP2 SWAP1 PUSH2 0x47FB JUMP JUMPDEST PUSH1 0x40 MLOAD DUP1 SWAP2 SUB SWAP1 RETURN JUMPDEST CALLVALUE DUP1 ISZERO PUSH2 0x3D1 JUMPI PUSH1 0x0 DUP1 REVERT JUMPDEST POP PUSH2 0x3EC PUSH1 0x4 DUP1 CALLDATASIZE SUB DUP2 ADD SWAP1 PUSH2 0x3E7 SWAP2 SWAP1 PUSH2 0x4783 JUMP JUMPDEST PUSH2 0x15E4 JUMP JUMPDEST STOP JUMPDEST CALLVALUE DUP1 ISZERO PUSH2 0x3FA JUMPI PUSH1 0x0 DUP1 REVERT JUMPDEST POP PUSH2 0x415 PUSH1 0x4 DUP1 CALLDATASIZE SUB DUP2 ADD SWAP1 PUSH2 0x410 SWAP2 SWAP1 PUSH2 0x4649 JUMP JUMPDEST PUSH2 0x1EF9 JUMP JUMPDEST STOP JUMPDEST CALLVALUE DUP1 ISZERO PUSH2 0x423 JUMPI PUSH1 0x0 DUP1 REVERT JUMPDEST POP PUSH2 0x42C PUSH2 0x206B JUMP JUMPDEST PUSH1 0x40 MLOAD PUSH2 0x439 SWAP2 SWAP1 PUSH2 0x48D4 JUMP JUMPDEST PUSH1 0x40 MLOAD DUP1 SWAP2 SUB SWAP1 RETURN JUMPDEST CALLVALUE DUP1 ISZERO PUSH2 0x44E JUMPI PUSH1 0x0 DUP1 REVERT JUMPDEST POP PUSH2 0x469 PUSH1 0x4 DUP1 CALLDATASIZE SUB DUP2 ADD SWAP1 PUSH2 0x464 SWAP2 SWAP1 PUSH2 0x4649 JUMP JUMPDEST PUSH2 0x214A JUMP JUMPDEST STOP JUMPDEST PUSH1 0x0 DUP1 DUP5 GT PUSH2 0x4AF JUMPI PUSH1 0x40 MLOAD PUSH32 0x8C379A000000000000000000000000000000000000000000000000000000000 DUP2 MSTORE PUSH1 0x4 ADD PUSH2 0x4A6 SWAP1 PUSH2 0x4979 JUMP JUMPDEST PUSH1 0x40 MLOAD DUP1 SWAP2 SUB SWAP1 REVERT JUMPDEST PUSH1 0x0 DUP4 GT DUP1 ISZERO PUSH2 0x4BF JUMPI POP PUSH1 0x0 DUP3 GT JUMPDEST PUSH2 0x4FE JUMPI PUSH1 0x40 MLOAD PUSH32 0x8C379A000000000000000000000000000000000000000000000000000000000 DUP2 MSTORE PUSH1 0x4 ADD PUSH2 0x4F5 SWAP1 PUSH2 0x4A0B JUMP JUMPDEST PUSH1 0x40 MLOAD DUP1 SWAP2 SUB SWAP1 REVERT JUMPDEST PUSH1 0x0 PUSH2 0x515 PUSH2 0x3E5 DUP7 PUSH2 0x21FE SWAP1 SWAP2 SWAP1 PUSH4 0xFFFFFFFF AND JUMP JUMPDEST SWAP1 POP PUSH1 0x0 PUSH2 0x52C DUP5 DUP4 PUSH2 0x21FE SWAP1 SWAP2 SWAP1 PUSH4 0xFFFFFFFF AND JUMP JUMPDEST SWAP1 POP PUSH1 0x0 PUSH2 0x557 DUP4 PUSH2 0x549 PUSH2 0x3E8 DUP10 PUSH2 0x21FE SWAP1 SWAP2 SWAP1 PUSH4 0xFFFFFFFF AND JUMP JUMPDEST PUSH2 0x2214 SWAP1 SWAP2 SWAP1 PUSH4 0xFFFFFFFF AND JUMP JUMPDEST SWAP1 POP DUP1 DUP3 PUSH2 0x565 SWAP2 SWAP1 PUSH2 0x4A89 JUMP JUMPDEST SWAP4 POP POP POP POP SWAP4 SWAP3 POP POP POP JUMP JUMPDEST PUSH1 0x4 PUSH1 0x0 SWAP1 SLOAD SWAP1 PUSH2 0x100 EXP SWAP1 DIV PUSH20 0xFFFFFFFFFFFFFFFFFFFFFFFFFFFFFFFFFFFFFFFF AND DUP2 JUMP JUMPDEST PUSH1 0x1 PUSH1 0x0 SWAP1 SLOAD SWAP1 PUSH2 0x100 EXP SWAP1 DIV PUSH20 0xFFFFFFFFFFFFFFFFFFFFFFFFFFFFFFFFFFFFFFFF AND PUSH20 0xFFFFFFFFFFFFFFFFFFFFFFFFFFFFFFFFFFFFFFFF AND CALLER PUSH20 0xFFFFFFFFFFFFFFFFFFFFFFFFFFFFFFFFFFFFFFFF AND EQ PUSH2 0x627 JUMPI PUSH1 0x40 MLOAD PUSH32 0x8C379A000000000000000000000000000000000000000000000000000000000 DUP2 MSTORE PUSH1 0x4 ADD PUSH2 0x61E SWAP1 PUSH2 0x4B06 JUMP JUMPDEST PUSH1 0x40 MLOAD DUP1 SWAP2 SUB SWAP1 REVERT JUMPDEST ADDRESS PUSH20 0xFFFFFFFFFFFFFFFFFFFFFFFFFFFFFFFFFFFFFFFF AND DUP5 PUSH20 0xFFFFFFFFFFFFFFFFFFFFFFFFFFFFFFFFFFFFFFFF AND EQ PUSH2 0x695 JUMPI PUSH1 0x40 MLOAD PUSH32 0x8C379A000000000000000000000000000000000000000000000000000000000 DUP2 MSTORE PUSH1 0x4 ADD PUSH2 0x68C SWAP1 PUSH2 0x4B72 JUMP JUMPDEST PUSH1 0x40 MLOAD DUP1 SWAP2 SUB SWAP1 REVERT JUMPDEST PUSH2 0x6D3 PUSH1 0x40 MLOAD DUP1 PUSH1 0x40 ADD PUSH1 0x40 MSTORE DUP1 PUSH1 0x1B DUP2 MSTORE PUSH1 0x20 ADD PUSH32 0x6869692069276D2063616C6C6564206279206C6F616E20706169720000000000 DUP2 MSTORE POP PUSH2 0x222A JUMP JUMPDEST PUSH1 0x0 DUP1 DUP5 GT PUSH2 0x6E2 JUMPI DUP3 PUSH2 0x6E4 JUMP JUMPDEST DUP4 JUMPDEST SWAP1 POP PUSH1 0x0 DUP3 DUP1 PUSH1 0x20 ADD SWAP1 MLOAD DUP2 ADD SWAP1 PUSH2 0x6FC SWAP2 SWAP1 PUSH2 0x4C9C JUMP JUMPDEST SWAP1 POP PUSH2 0x731 DUP2 PUSH1 0x20 ADD MLOAD DUP4 DUP4 PUSH1 0x60 ADD MLOAD PUSH20 0xFFFFFFFFFFFFFFFFFFFFFFFFFFFFFFFFFFFFFFFF AND PUSH2 0x22C3 SWAP1 SWAP3 SWAP2 SWAP1 PUSH4 0xFFFFFFFF AND JUMP JUMPDEST PUSH1 0x0 DUP1 DUP3 PUSH1 0x40 ADD MLOAD PUSH2 0x749 JUMPI PUSH1 0x0 DUP4 PUSH1 0xC0 ADD MLOAD PUSH2 0x751 JUMP JUMPDEST DUP3 PUSH1 0xC0 ADD MLOAD PUSH1 0x0 JUMPDEST SWAP2 POP SWAP2 POP PUSH2 0x811 PUSH1 0x40 MLOAD DUP1 PUSH1 0x40 ADD PUSH1 0x40 MSTORE DUP1 PUSH1 0x20 DUP2 MSTORE PUSH1 0x20 ADD PUSH32 0x6265666F726520737761702062617365746F6B656E2042616C616E63653D3D3E DUP2 MSTORE POP DUP5 PUSH1 0x80 ADD MLOAD PUSH20 0xFFFFFFFFFFFFFFFFFFFFFFFFFFFFFFFFFFFFFFFF AND PUSH4 0x70A08231 ADDRESS PUSH1 0x40 MLOAD DUP3 PUSH4 0xFFFFFFFF AND PUSH1 0xE0 SHL DUP2 MSTORE PUSH1 0x4 ADD PUSH2 0x7CB SWAP2 SWAP1 PUSH2 0x47FB JUMP JUMPDEST PUSH1 0x20 PUSH1 0x40 MLOAD DUP1 DUP4 SUB DUP2 DUP7 GAS STATICCALL ISZERO DUP1 ISZERO PUSH2 0x7E8 JUMPI RETURNDATASIZE PUSH1 0x0 DUP1 RETURNDATACOPY RETURNDATASIZE PUSH1 0x0 REVERT JUMPDEST POP POP POP POP PUSH1 0x40 MLOAD RETURNDATASIZE PUSH1 0x1F NOT PUSH1 0x1F DUP3 ADD AND DUP3 ADD DUP1 PUSH1 0x40 MSTORE POP DUP2 ADD SWAP1 PUSH2 0x80C SWAP2 SWAP1 PUSH2 0x4CC9 JUMP JUMPDEST PUSH2 0x2349 JUMP JUMPDEST DUP3 PUSH1 0x20 ADD MLOAD PUSH20 0xFFFFFFFFFFFFFFFFFFFFFFFFFFFFFFFFFFFFFFFF AND PUSH4 0x22C0D9F DUP4 DUP4 ADDRESS PUSH1 0x0 PUSH8 0xFFFFFFFFFFFFFFFF DUP2 GT ISZERO PUSH2 0x84F JUMPI PUSH2 0x84E PUSH2 0x43DA JUMP JUMPDEST JUMPDEST PUSH1 0x40 MLOAD SWAP1 DUP1 DUP3 MSTORE DUP1 PUSH1 0x1F ADD PUSH1 0x1F NOT AND PUSH1 0x20 ADD DUP3 ADD PUSH1 0x40 MSTORE DUP1 ISZERO PUSH2 0x881 JUMPI DUP2 PUSH1 0x20 ADD PUSH1 0x1 DUP3 MUL DUP1 CALLDATASIZE DUP4 CALLDATACOPY DUP1 DUP3 ADD SWAP2 POP POP SWAP1 POP JUMPDEST POP PUSH1 0x40 MLOAD DUP6 PUSH4 0xFFFFFFFF AND PUSH1 0xE0 SHL DUP2 MSTORE PUSH1 0x4 ADD PUSH2 0x8A1 SWAP5 SWAP4 SWAP3 SWAP2 SWAP1 PUSH2 0x4D7E JUMP JUMPDEST PUSH1 0x0 PUSH1 0x40 MLOAD DUP1 DUP4 SUB DUP2 PUSH1 0x0 DUP8 DUP1 EXTCODESIZE ISZERO DUP1 ISZERO PUSH2 0x8BB JUMPI PUSH1 0x0 DUP1 REVERT JUMPDEST POP GAS CALL ISZERO DUP1 ISZERO PUSH2 0x8CF JUMPI RETURNDATASIZE PUSH1 0x0 DUP1 RETURNDATACOPY RETURNDATASIZE PUSH1 0x0 REVERT JUMPDEST POP POP POP POP PUSH2 0x98F PUSH1 0x40 MLOAD DUP1 PUSH1 0x40 ADD PUSH1 0x40 MSTORE DUP1 PUSH1 0x1F DUP2 MSTORE PUSH1 0x20 ADD PUSH32 0x616674657220737761702062617365746F6B656E2042616C616E63653D3D3E00 DUP2 MSTORE POP DUP5 PUSH1 0x80 ADD MLOAD PUSH20 0xFFFFFFFFFFFFFFFFFFFFFFFFFFFFFFFFFFFFFFFF AND PUSH4 0x70A08231 ADDRESS PUSH1 0x40 MLOAD DUP3 PUSH4 0xFFFFFFFF AND PUSH1 0xE0 SHL DUP2 MSTORE PUSH1 0x4 ADD PUSH2 0x949 SWAP2 SWAP1 PUSH2 0x47FB JUMP JUMPDEST PUSH1 0x20 PUSH1 0x40 MLOAD DUP1 DUP4 SUB DUP2 DUP7 GAS STATICCALL ISZERO DUP1 ISZERO PUSH2 0x966 JUMPI RETURNDATASIZE PUSH1 0x0 DUP1 RETURNDATACOPY RETURNDATASIZE PUSH1 0x0 REVERT JUMPDEST POP POP POP POP PUSH1 0x40 MLOAD RETURNDATASIZE PUSH1 0x1F NOT PUSH1 0x1F DUP3 ADD AND DUP3 ADD DUP1 PUSH1 0x40 MSTORE POP DUP2 ADD SWAP1 PUSH2 0x98A SWAP2 SWAP1 PUSH2 0x4CC9 JUMP JUMPDEST PUSH2 0x2349 JUMP JUMPDEST PUSH2 0x9C6 DUP4 PUSH1 0x0 ADD MLOAD DUP5 PUSH1 0xA0 ADD MLOAD DUP6 PUSH1 0x80 ADD MLOAD PUSH20 0xFFFFFFFFFFFFFFFFFFFFFFFFFFFFFFFFFFFFFFFF AND PUSH2 0x22C3 SWAP1 SWAP3 SWAP2 SWAP1 PUSH4 0xFFFFFFFF AND JUMP JUMPDEST PUSH2 0xA65 PUSH1 0x40 MLOAD DUP1 PUSH1 0x60 ADD PUSH1 0x40 MSTORE DUP1 PUSH1 0x21 DUP2 MSTORE PUSH1 0x20 ADD PUSH2 0x6017 PUSH1 0x21 SWAP2 CODECOPY DUP5 PUSH1 0x80 ADD MLOAD PUSH20 0xFFFFFFFFFFFFFFFFFFFFFFFFFFFFFFFFFFFFFFFF AND PUSH4 0x70A08231 ADDRESS PUSH1 0x40 MLOAD DUP3 PUSH4 0xFFFFFFFF AND PUSH1 0xE0 SHL DUP2 MSTORE PUSH1 0x4 ADD PUSH2 0xA1F SWAP2 SWAP1 PUSH2 0x47FB JUMP JUMPDEST PUSH1 0x20 PUSH1 0x40 MLOAD DUP1 DUP4 SUB DUP2 DUP7 GAS STATICCALL ISZERO DUP1 ISZERO PUSH2 0xA3C JUMPI RETURNDATASIZE PUSH1 0x0 DUP1 RETURNDATACOPY RETURNDATASIZE PUSH1 0x0 REVERT JUMPDEST POP POP POP POP PUSH1 0x40 MLOAD RETURNDATASIZE PUSH1 0x1F NOT PUSH1 0x1F DUP3 ADD AND DUP3 ADD DUP1 PUSH1 0x40 MSTORE POP DUP2 ADD SWAP1 PUSH2 0xA60 SWAP2 SWAP1 PUSH2 0x4CC9 JUMP JUMPDEST PUSH2 0x2349 JUMP JUMPDEST POP POP POP POP POP POP POP POP JUMP JUMPDEST PUSH1 0x0 DUP1 PUSH2 0xA7D DUP6 DUP6 DUP6 PUSH2 0x23E5 JUMP JUMPDEST SWAP2 POP SWAP2 POP SWAP4 POP SWAP4 SWAP2 POP POP JUMP JUMPDEST PUSH1 0x0 PUSH2 0xACA PUSH1 0x40 MLOAD DUP1 PUSH1 0x40 ADD PUSH1 0x40 MSTORE DUP1 PUSH1 0x1A DUP2 MSTORE PUSH1 0x20 ADD PUSH32 0x62617365546F6B656E73436F6E7461696E732061646472657373000000000000 DUP2 MSTORE POP DUP4 PUSH2 0x24D1 JUMP JUMPDEST PUSH2 0xADE DUP3 PUSH1 0x2 PUSH2 0x256D SWAP1 SWAP2 SWAP1 PUSH4 0xFFFFFFFF AND JUMP JUMPDEST SWAP1 POP SWAP2 SWAP1 POP JUMP JUMPDEST PUSH1 0x0 SELFBALANCE SWAP1 POP PUSH1 0x0 DUP2 GT ISZERO PUSH2 0xB8D JUMPI PUSH2 0xAFB PUSH2 0x15BB JUMP JUMPDEST PUSH20 0xFFFFFFFFFFFFFFFFFFFFFFFFFFFFFFFFFFFFFFFF AND PUSH2 0x8FC DUP3 SWAP1 DUP2 ISZERO MUL SWAP1 PUSH1 0x40 MLOAD PUSH1 0x0 PUSH1 0x40 MLOAD DUP1 DUP4 SUB DUP2 DUP6 DUP9 DUP9 CALL SWAP4 POP POP POP POP ISZERO DUP1 ISZERO PUSH2 0xB40 JUMPI RETURNDATASIZE PUSH1 0x0 DUP1 RETURNDATACOPY RETURNDATASIZE PUSH1 0x0 REVERT JUMPDEST POP DUP1 PUSH2 0xB4A PUSH2 0x15BB JUMP JUMPDEST PUSH20 0xFFFFFFFFFFFFFFFFFFFFFFFFFFFFFFFFFFFFFFFF AND PUSH32 0x7084F5476618D8E60B11EF0D7D3F06914655ADB8793E28FF7F018D4C76D505D5 PUSH1 0x40 MLOAD PUSH1 0x40 MLOAD DUP1 SWAP2 SUB SWAP1 LOG3 JUMPDEST PUSH1 0x0 JUMPDEST PUSH2 0xB9A PUSH1 0x2 PUSH2 0x259D JUMP JUMPDEST DUP2 LT ISZERO PUSH2 0xCD9 JUMPI PUSH1 0x0 PUSH2 0xBB7 DUP3 PUSH1 0x2 PUSH2 0x25B2 SWAP1 SWAP2 SWAP1 PUSH4 0xFFFFFFFF AND JUMP JUMPDEST SWAP1 POP DUP1 PUSH20 0xFFFFFFFFFFFFFFFFFFFFFFFFFFFFFFFFFFFFFFFF AND PUSH4 0x70A08231 ADDRESS PUSH1 0x40 MLOAD DUP3 PUSH4 0xFFFFFFFF AND PUSH1 0xE0 SHL DUP2 MSTORE PUSH1 0x4 ADD PUSH2 0xBF2 SWAP2 SWAP1 PUSH2 0x47FB JUMP JUMPDEST PUSH1 0x20 PUSH1 0x40 MLOAD DUP1 DUP4 SUB DUP2 DUP7 GAS STATICCALL ISZERO DUP1 ISZERO PUSH2 0xC0F JUMPI RETURNDATASIZE PUSH1 0x0 DUP1 RETURNDATACOPY RETURNDATASIZE PUSH1 0x0 REVERT JUMPDEST POP POP POP POP PUSH1 0x40 MLOAD RETURNDATASIZE PUSH1 0x1F NOT PUSH1 0x1F DUP3 ADD AND DUP3 ADD DUP1 PUSH1 0x40 MSTORE POP DUP2 ADD SWAP1 PUSH2 0xC33 SWAP2 SWAP1 PUSH2 0x4CC9 JUMP JUMPDEST SWAP3 POP PUSH1 0x0 DUP4 GT ISZERO PUSH2 0xCC5 JUMPI DUP1 PUSH20 0xFFFFFFFFFFFFFFFFFFFFFFFFFFFFFFFFFFFFFFFF AND PUSH4 0xA9059CBB PUSH2 0xC62 PUSH2 0x15BB JUMP JUMPDEST DUP6 PUSH1 0x40 MLOAD DUP4 PUSH4 0xFFFFFFFF AND PUSH1 0xE0 SHL DUP2 MSTORE PUSH1 0x4 ADD PUSH2 0xC80 SWAP3 SWAP2 SWAP1 PUSH2 0x4DCA JUMP JUMPDEST PUSH1 0x20 PUSH1 0x40 MLOAD DUP1 DUP4 SUB DUP2 PUSH1 0x0 DUP8 GAS CALL ISZERO DUP1 ISZERO PUSH2 0xC9F JUMPI RETURNDATASIZE PUSH1 0x0 DUP1 RETURNDATACOPY RETURNDATASIZE PUSH1 0x0 REVERT JUMPDEST POP POP POP POP PUSH1 0x40 MLOAD RETURNDATASIZE PUSH1 0x1F NOT PUSH1 0x1F DUP3 ADD AND DUP3 ADD DUP1 PUSH1 0x40 MSTORE POP DUP2 ADD SWAP1 PUSH2 0xCC3 SWAP2 SWAP1 PUSH2 0x4DF3 JUMP JUMPDEST POP JUMPDEST POP DUP1 DUP1 PUSH2 0xCD1 SWAP1 PUSH2 0x4E20 JUMP JUMPDEST SWAP2 POP POP PUSH2 0xB90 JUMP JUMPDEST POP POP JUMP JUMPDEST PUSH1 0x0 PUSH2 0xCE8 DUP3 PUSH2 0x25CC JUMP JUMPDEST SWAP1 POP SWAP2 SWAP1 POP JUMP JUMPDEST PUSH1 0x0 PUSH2 0xCFA DUP3 PUSH2 0x2CE4 JUMP JUMPDEST SWAP1 POP SWAP2 SWAP1 POP JUMP JUMPDEST PUSH2 0xD09 PUSH2 0x2D7B JUMP JUMPDEST PUSH2 0xD13 PUSH1 0x0 PUSH2 0x2DF9 JUMP JUMPDEST JUMP JUMPDEST PUSH1 0x0 DUP1 PUSH1 0x0 PUSH2 0xD24 DUP6 DUP6 PUSH2 0x2EBD JUMP JUMPDEST POP POP SWAP1 POP PUSH2 0xD67 PUSH1 0x40 MLOAD DUP1 PUSH1 0x40 ADD PUSH1 0x40 MSTORE DUP1 PUSH1 0x16 DUP2 MSTORE PUSH1 0x20 ADD PUSH32 0x62617365546F6B656E536D616C6C65723D3D3D3D3D3D00000000000000000000 DUP2 MSTORE POP DUP3 PUSH2 0x3392 JUMP JUMPDEST DUP1 PUSH2 0xDE0 JUMPI DUP5 PUSH20 0xFFFFFFFFFFFFFFFFFFFFFFFFFFFFFFFFFFFFFFFF AND PUSH4 0xD21220A7 PUSH1 0x40 MLOAD DUP2 PUSH4 0xFFFFFFFF AND PUSH1 0xE0 SHL DUP2 MSTORE PUSH1 0x4 ADD PUSH1 0x20 PUSH1 0x40 MLOAD DUP1 DUP4 SUB DUP2 DUP7 GAS STATICCALL ISZERO DUP1 ISZERO PUSH2 0xDB7 JUMPI RETURNDATASIZE PUSH1 0x0 DUP1 RETURNDATACOPY RETURNDATASIZE PUSH1 0x0 REVERT JUMPDEST POP POP POP POP PUSH1 0x40 MLOAD RETURNDATASIZE PUSH1 0x1F NOT PUSH1 0x1F DUP3 ADD AND DUP3 ADD DUP1 PUSH1 0x40 MSTORE POP DUP2 ADD SWAP1 PUSH2 0xDDB SWAP2 SWAP1 PUSH2 0x4E69 JUMP JUMPDEST PUSH2 0xE50 JUMP JUMPDEST DUP5 PUSH20 0xFFFFFFFFFFFFFFFFFFFFFFFFFFFFFFFFFFFFFFFF AND PUSH4 0xDFE1681 PUSH1 0x40 MLOAD DUP2 PUSH4 0xFFFFFFFF AND PUSH1 0xE0 SHL DUP2 MSTORE PUSH1 0x4 ADD PUSH1 0x20 PUSH1 0x40 MLOAD DUP1 DUP4 SUB DUP2 DUP7 GAS STATICCALL ISZERO DUP1 ISZERO PUSH2 0xE2B JUMPI RETURNDATASIZE PUSH1 0x0 DUP1 RETURNDATACOPY RETURNDATASIZE PUSH1 0x0 REVERT JUMPDEST POP POP POP POP PUSH1 0x40 MLOAD RETURNDATASIZE PUSH1 0x1F NOT PUSH1 0x1F DUP3 ADD AND DUP3 ADD DUP1 PUSH1 0x40 MSTORE POP DUP2 ADD SWAP1 PUSH2 0xE4F SWAP2 SWAP1 PUSH2 0x4E69 JUMP JUMPDEST JUMPDEST SWAP2 POP PUSH1 0x0 PUSH2 0xE5F DUP7 DUP7 DUP5 PUSH2 0x342E JUMP JUMPDEST SWAP3 POP POP POP PUSH2 0xEA6 PUSH1 0x40 MLOAD DUP1 PUSH1 0x40 ADD PUSH1 0x40 MSTORE DUP1 PUSH1 0x15 DUP2 MSTORE PUSH1 0x20 ADD PUSH32 0x6F72646572656452657365727665732061313D3D3D0000000000000000000000 DUP2 MSTORE POP DUP3 PUSH1 0x0 ADD MLOAD PUSH2 0x2349 JUMP JUMPDEST PUSH2 0xEE9 PUSH1 0x40 MLOAD DUP1 PUSH1 0x40 ADD PUSH1 0x40 MSTORE DUP1 PUSH1 0x15 DUP2 MSTORE PUSH1 0x20 ADD PUSH32 0x6F72646572656452657365727665732062313D3D3D0000000000000000000000 DUP2 MSTORE POP DUP3 PUSH1 0x20 ADD MLOAD PUSH2 0x2349 JUMP JUMPDEST PUSH1 0x0 PUSH2 0xEF4 DUP3 PUSH2 0x25CC JUMP JUMPDEST SWAP1 POP PUSH1 0x0 PUSH2 0xF0B DUP3 DUP5 PUSH1 0x0 ADD MLOAD DUP6 PUSH1 0x20 ADD MLOAD PUSH2 0x14A8 JUMP JUMPDEST SWAP1 POP PUSH1 0x0 PUSH2 0xF22 DUP4 DUP6 PUSH1 0x60 ADD MLOAD DUP7 PUSH1 0x40 ADD MLOAD PUSH2 0x46B JUMP JUMPDEST SWAP1 POP DUP2 DUP2 LT ISZERO PUSH2 0xF35 JUMPI PUSH1 0x0 SWAP7 POP PUSH2 0xF44 JUMP JUMPDEST DUP2 DUP2 PUSH2 0xF41 SWAP2 SWAP1 PUSH2 0x4E96 JUMP JUMPDEST SWAP7 POP JUMPDEST POP POP POP POP POP SWAP3 POP SWAP3 SWAP1 POP JUMP JUMPDEST PUSH2 0xF58 PUSH2 0x2D7B JUMP JUMPDEST PUSH2 0xF6C DUP2 PUSH1 0x2 PUSH2 0x21CE SWAP1 SWAP2 SWAP1 PUSH4 0xFFFFFFFF AND JUMP JUMPDEST POP DUP1 PUSH20 0xFFFFFFFFFFFFFFFFFFFFFFFFFFFFFFFFFFFFFFFF AND PUSH32 0xFA1388D6E7328E9C711A539B0ADDFC27DE8BFB6F5924CCE26F80F41023B15253 PUSH1 0x40 MLOAD PUSH1 0x40 MLOAD DUP1 SWAP2 SUB SWAP1 LOG2 POP JUMP JUMPDEST PUSH1 0x1 PUSH1 0x0 SWAP1 SLOAD SWAP1 PUSH2 0x100 EXP SWAP1 DIV PUSH20 0xFFFFFFFFFFFFFFFFFFFFFFFFFFFFFFFFFFFFFFFF AND PUSH20 0xFFFFFFFFFFFFFFFFFFFFFFFFFFFFFFFFFFFFFFFF AND CALLER PUSH20 0xFFFFFFFFFFFFFFFFFFFFFFFFFFFFFFFFFFFFFFFF AND EQ PUSH2 0x1043 JUMPI PUSH1 0x40 MLOAD PUSH32 0x8C379A000000000000000000000000000000000000000000000000000000000 DUP2 MSTORE PUSH1 0x4 ADD PUSH2 0x103A SWAP1 PUSH2 0x4B06 JUMP JUMPDEST PUSH1 0x40 MLOAD DUP1 SWAP2 SUB SWAP1 REVERT JUMPDEST ADDRESS PUSH20 0xFFFFFFFFFFFFFFFFFFFFFFFFFFFFFFFFFFFFFFFF AND DUP5 PUSH20 0xFFFFFFFFFFFFFFFFFFFFFFFFFFFFFFFFFFFFFFFF AND EQ PUSH2 0x10B1 JUMPI PUSH1 0x40 MLOAD PUSH32 0x8C379A000000000000000000000000000000000000000000000000000000000 DUP2 MSTORE PUSH1 0x4 ADD PUSH2 0x10A8 SWAP1 PUSH2 0x4B72 JUMP JUMPDEST PUSH1 0x40 MLOAD DUP1 SWAP2 SUB SWAP1 REVERT JUMPDEST PUSH2 0x10EF PUSH1 0x40 MLOAD DUP1 PUSH1 0x40 ADD PUSH1 0x40 MSTORE DUP1 PUSH1 0x1B DUP2 MSTORE PUSH1 0x20 ADD PUSH32 0x6869692069276D2063616C6C6564206279206C6F616E20706169720000000000 DUP2 MSTORE POP PUSH2 0x222A JUMP JUMPDEST PUSH1 0x0 DUP1 DUP5 GT PUSH2 0x10FE JUMPI DUP3 PUSH2 0x1100 JUMP JUMPDEST DUP4 JUMPDEST SWAP1 POP PUSH1 0x0 DUP3 DUP1 PUSH1 0x20 ADD SWAP1 MLOAD DUP2 ADD SWAP1 PUSH2 0x1118 SWAP2 SWAP1 PUSH2 0x4C9C JUMP JUMPDEST SWAP1 POP PUSH2 0x114D DUP2 PUSH1 0x20 ADD MLOAD DUP4 DUP4 PUSH1 0x60 ADD MLOAD PUSH20 0xFFFFFFFFFFFFFFFFFFFFFFFFFFFFFFFFFFFFFFFF AND PUSH2 0x22C3 SWAP1 SWAP3 SWAP2 SWAP1 PUSH4 0xFFFFFFFF AND JUMP JUMPDEST PUSH1 0x0 DUP1 DUP3 PUSH1 0x40 ADD MLOAD PUSH2 0x1165 JUMPI PUSH1 0x0 DUP4 PUSH1 0xC0 ADD MLOAD PUSH2 0x116D JUMP JUMPDEST DUP3 PUSH1 0xC0 ADD MLOAD PUSH1 0x0 JUMPDEST SWAP2 POP SWAP2 POP PUSH2 0x122D PUSH1 0x40 MLOAD DUP1 PUSH1 0x40 ADD PUSH1 0x40 MSTORE DUP1 PUSH1 0x13 DUP2 MSTORE PUSH1 0x20 ADD PUSH32 0x6265666F726520737761702070616E63616B6500000000000000000000000000 DUP2 MSTORE POP DUP5 PUSH1 0x80 ADD MLOAD PUSH20 0xFFFFFFFFFFFFFFFFFFFFFFFFFFFFFFFFFFFFFFFF AND PUSH4 0x70A08231 ADDRESS PUSH1 0x40 MLOAD DUP3 PUSH4 0xFFFFFFFF AND PUSH1 0xE0 SHL DUP2 MSTORE PUSH1 0x4 ADD PUSH2 0x11E7 SWAP2 SWAP1 PUSH2 0x47FB JUMP JUMPDEST PUSH1 0x20 PUSH1 0x40 MLOAD DUP1 DUP4 SUB DUP2 DUP7 GAS STATICCALL ISZERO DUP1 ISZERO PUSH2 0x1204 JUMPI RETURNDATASIZE PUSH1 0x0 DUP1 RETURNDATACOPY RETURNDATASIZE PUSH1 0x0 REVERT JUMPDEST POP POP POP POP PUSH1 0x40 MLOAD RETURNDATASIZE PUSH1 0x1F NOT PUSH1 0x1F DUP3 ADD AND DUP3 ADD DUP1 PUSH1 0x40 MSTORE POP DUP2 ADD SWAP1 PUSH2 0x1228 SWAP2 SWAP1 PUSH2 0x4CC9 JUMP JUMPDEST PUSH2 0x2349 JUMP JUMPDEST DUP3 PUSH1 0x20 ADD MLOAD PUSH20 0xFFFFFFFFFFFFFFFFFFFFFFFFFFFFFFFFFFFFFFFF AND PUSH4 0x22C0D9F DUP4 DUP4 ADDRESS PUSH1 0x0 PUSH8 0xFFFFFFFFFFFFFFFF DUP2 GT ISZERO PUSH2 0x126B JUMPI PUSH2 0x126A PUSH2 0x43DA JUMP JUMPDEST JUMPDEST PUSH1 0x40 MLOAD SWAP1 DUP1 DUP3 MSTORE DUP1 PUSH1 0x1F ADD PUSH1 0x1F NOT AND PUSH1 0x20 ADD DUP3 ADD PUSH1 0x40 MSTORE DUP1 ISZERO PUSH2 0x129D JUMPI DUP2 PUSH1 0x20 ADD PUSH1 0x1 DUP3 MUL DUP1 CALLDATASIZE DUP4 CALLDATACOPY DUP1 DUP3 ADD SWAP2 POP POP SWAP1 POP JUMPDEST POP PUSH1 0x40 MLOAD DUP6 PUSH4 0xFFFFFFFF AND PUSH1 0xE0 SHL DUP2 MSTORE PUSH1 0x4 ADD PUSH2 0x12BD SWAP5 SWAP4 SWAP3 SWAP2 SWAP1 PUSH2 0x4D7E JUMP JUMPDEST PUSH1 0x0 PUSH1 0x40 MLOAD DUP1 DUP4 SUB DUP2 PUSH1 0x0 DUP8 DUP1 EXTCODESIZE ISZERO DUP1 ISZERO PUSH2 0x12D7 JUMPI PUSH1 0x0 DUP1 REVERT JUMPDEST POP GAS CALL ISZERO DUP1 ISZERO PUSH2 0x12EB JUMPI RETURNDATASIZE PUSH1 0x0 DUP1 RETURNDATACOPY RETURNDATASIZE PUSH1 0x0 REVERT JUMPDEST POP POP POP POP PUSH2 0x13AB PUSH1 0x40 MLOAD DUP1 PUSH1 0x40 ADD PUSH1 0x40 MSTORE DUP1 PUSH1 0x12 DUP2 MSTORE PUSH1 0x20 ADD PUSH32 0x616674657220737761702070616E63616B650000000000000000000000000000 DUP2 MSTORE POP DUP5 PUSH1 0x80 ADD MLOAD PUSH20 0xFFFFFFFFFFFFFFFFFFFFFFFFFFFFFFFFFFFFFFFF AND PUSH4 0x70A08231 ADDRESS PUSH1 0x40 MLOAD DUP3 PUSH4 0xFFFFFFFF AND PUSH1 0xE0 SHL DUP2 MSTORE PUSH1 0x4 ADD PUSH2 0x1365 SWAP2 SWAP1 PUSH2 0x47FB JUMP JUMPDEST PUSH1 0x20 PUSH1 0x40 MLOAD DUP1 DUP4 SUB DUP2 DUP7 GAS STATICCALL ISZERO DUP1 ISZERO PUSH2 0x1382 JUMPI RETURNDATASIZE PUSH1 0x0 DUP1 RETURNDATACOPY RETURNDATASIZE PUSH1 0x0 REVERT JUMPDEST POP POP POP POP PUSH1 0x40 MLOAD RETURNDATASIZE PUSH1 0x1F NOT PUSH1 0x1F DUP3 ADD AND DUP3 ADD DUP1 PUSH1 0x40 MSTORE POP DUP2 ADD SWAP1 PUSH2 0x13A6 SWAP2 SWAP1 PUSH2 0x4CC9 JUMP JUMPDEST PUSH2 0x2349 JUMP JUMPDEST PUSH2 0x13E2 DUP4 PUSH1 0x0 ADD MLOAD DUP5 PUSH1 0xA0 ADD MLOAD DUP6 PUSH1 0x80 ADD MLOAD PUSH20 0xFFFFFFFFFFFFFFFFFFFFFFFFFFFFFFFFFFFFFFFF AND PUSH2 0x22C3 SWAP1 SWAP3 SWAP2 SWAP1 PUSH4 0xFFFFFFFF AND JUMP JUMPDEST PUSH2 0x149E PUSH1 0x40 MLOAD DUP1 PUSH1 0x40 ADD PUSH1 0x40 MSTORE DUP1 PUSH1 0x13 DUP2 MSTORE PUSH1 0x20 ADD PUSH32 0x6166746572207061796F666670616E63616B6500000000000000000000000000 DUP2 MSTORE POP DUP5 PUSH1 0x80 ADD MLOAD PUSH20 0xFFFFFFFFFFFFFFFFFFFFFFFFFFFFFFFFFFFFFFFF AND PUSH4 0x70A08231 ADDRESS PUSH1 0x40 MLOAD DUP3 PUSH4 0xFFFFFFFF AND PUSH1 0xE0 SHL DUP2 MSTORE PUSH1 0x4 ADD PUSH2 0x1458 SWAP2 SWAP1 PUSH2 0x47FB JUMP JUMPDEST PUSH1 0x20 PUSH1 0x40 MLOAD DUP1 DUP4 SUB DUP2 DUP7 GAS STATICCALL ISZERO DUP1 ISZERO PUSH2 0x1475 JUMPI RETURNDATASIZE PUSH1 0x0 DUP1 RETURNDATACOPY RETURNDATASIZE PUSH1 0x0 REVERT JUMPDEST POP POP POP POP PUSH1 0x40 MLOAD RETURNDATASIZE PUSH1 0x1F NOT PUSH1 0x1F DUP3 ADD AND DUP3 ADD DUP1 PUSH1 0x40 MSTORE POP DUP2 ADD SWAP1 PUSH2 0x1499 SWAP2 SWAP1 PUSH2 0x4CC9 JUMP JUMPDEST PUSH2 0x2349 JUMP JUMPDEST POP POP POP POP POP POP POP POP JUMP JUMPDEST PUSH1 0x0 DUP1 DUP5 GT PUSH2 0x14EC JUMPI PUSH1 0x40 MLOAD PUSH32 0x8C379A000000000000000000000000000000000000000000000000000000000 DUP2 MSTORE PUSH1 0x4 ADD PUSH2 0x14E3 SWAP1 PUSH2 0x4F3C JUMP JUMPDEST PUSH1 0x40 MLOAD DUP1 SWAP2 SUB SWAP1 REVERT JUMPDEST PUSH1 0x0 DUP4 GT DUP1 ISZERO PUSH2 0x14FC JUMPI POP PUSH1 0x0 DUP3 GT JUMPDEST PUSH2 0x153B JUMPI PUSH1 0x40 MLOAD PUSH32 0x8C379A000000000000000000000000000000000000000000000000000000000 DUP2 MSTORE PUSH1 0x4 ADD PUSH2 0x1532 SWAP1 PUSH2 0x4A0B JUMP JUMPDEST PUSH1 0x40 MLOAD DUP1 SWAP2 SUB SWAP1 REVERT JUMPDEST PUSH1 0x0 PUSH2 0x1564 PUSH2 0x3E8 PUSH2 0x1556 DUP8 DUP8 PUSH2 0x21FE SWAP1 SWAP2 SWAP1 PUSH4 0xFFFFFFFF AND JUMP JUMPDEST PUSH2 0x21FE SWAP1 SWAP2 SWAP1 PUSH4 0xFFFFFFFF AND JUMP JUMPDEST SWAP1 POP PUSH1 0x0 PUSH2 0x158F PUSH2 0x3E5 PUSH2 0x1581 DUP9 DUP8 PUSH2 0x37E3 SWAP1 SWAP2 SWAP1 PUSH4 0xFFFFFFFF AND JUMP JUMPDEST PUSH2 0x21FE SWAP1 SWAP2 SWAP1 PUSH4 0xFFFFFFFF AND JUMP JUMPDEST SWAP1 POP PUSH2 0x15B0 PUSH1 0x1 DUP3 DUP5 PUSH2 0x15A2 SWAP2 SWAP1 PUSH2 0x4A89 JUMP JUMPDEST PUSH2 0x2214 SWAP1 SWAP2 SWAP1 PUSH4 0xFFFFFFFF AND JUMP JUMPDEST SWAP3 POP POP POP SWAP4 SWAP3 POP POP POP JUMP JUMPDEST PUSH1 0x0 DUP1 PUSH1 0x0 SWAP1 SLOAD SWAP1 PUSH2 0x100 EXP SWAP1 DIV PUSH20 0xFFFFFFFFFFFFFFFFFFFFFFFFFFFFFFFFFFFFFFFF AND SWAP1 POP SWAP1 JUMP JUMPDEST PUSH1 0x0 DUP1 PUSH2 0x15F1 DUP5 DUP5 PUSH2 0xD15 JUMP JUMPDEST SWAP2 POP SWAP2 POP PUSH2 0x15FD PUSH2 0x40BB JUMP JUMPDEST PUSH2 0x1607 DUP6 DUP6 PUSH2 0x2EBD JUMP JUMPDEST DUP4 PUSH1 0x40 ADD DUP5 PUSH1 0x0 ADD DUP6 PUSH1 0x20 ADD DUP4 PUSH20 0xFFFFFFFFFFFFFFFFFFFFFFFFFFFFFFFFFFFFFFFF AND PUSH20 0xFFFFFFFFFFFFFFFFFFFFFFFFFFFFFFFFFFFFFFFF AND DUP2 MSTORE POP DUP4 PUSH20 0xFFFFFFFFFFFFFFFFFFFFFFFFFFFFFFFFFFFFFFFF AND PUSH20 0xFFFFFFFFFFFFFFFFFFFFFFFFFFFFFFFFFFFFFFFF AND DUP2 MSTORE POP DUP4 ISZERO ISZERO ISZERO ISZERO DUP2 MSTORE POP POP POP POP PUSH2 0x1686 PUSH2 0x4144 JUMP JUMPDEST PUSH2 0x1695 DUP7 DUP7 DUP5 PUSH1 0x40 ADD MLOAD PUSH2 0x342E JUMP JUMPDEST DUP5 PUSH1 0x60 ADD DUP6 PUSH1 0x80 ADD DUP3 SWAP6 POP DUP4 PUSH20 0xFFFFFFFFFFFFFFFFFFFFFFFFFFFFFFFFFFFFFFFF AND PUSH20 0xFFFFFFFFFFFFFFFFFFFFFFFFFFFFFFFFFFFFFFFF AND DUP2 MSTORE POP DUP4 PUSH20 0xFFFFFFFFFFFFFFFFFFFFFFFFFFFFFFFFFFFFFFFF AND PUSH20 0xFFFFFFFFFFFFFFFFFFFFFFFFFFFFFFFFFFFFFFFF AND DUP2 MSTORE POP POP POP POP PUSH2 0x1746 PUSH1 0x40 MLOAD DUP1 PUSH1 0x40 ADD PUSH1 0x40 MSTORE DUP1 PUSH1 0x16 DUP2 MSTORE PUSH1 0x20 ADD PUSH32 0x696E666F2E6C6F776572506F6F6C3A3D3D3D3D3D3E2000000000000000000000 DUP2 MSTORE POP DUP4 PUSH1 0x60 ADD MLOAD PUSH2 0x24D1 JUMP JUMPDEST PUSH2 0x1789 PUSH1 0x40 MLOAD DUP1 PUSH1 0x40 ADD PUSH1 0x40 MSTORE DUP1 PUSH1 0x18 DUP2 MSTORE PUSH1 0x20 ADD PUSH32 0x696E666F2E686967686572506F6F6C3A3D3D3D3D3D3E20200000000000000000 DUP2 MSTORE POP DUP4 PUSH1 0x80 ADD MLOAD PUSH2 0x24D1 JUMP JUMPDEST PUSH2 0x17CC PUSH1 0x40 MLOAD DUP1 PUSH1 0x40 ADD PUSH1 0x40 MSTORE DUP1 PUSH1 0x18 DUP2 MSTORE PUSH1 0x20 ADD PUSH32 0x6F72646572656452657365727665733A203D3D3D3D3D3E200000000000000000 DUP2 MSTORE POP DUP3 PUSH1 0x0 ADD MLOAD PUSH2 0x2349 JUMP JUMPDEST PUSH2 0x180F PUSH1 0x40 MLOAD DUP1 PUSH1 0x40 ADD PUSH1 0x40 MSTORE DUP1 PUSH1 0x18 DUP2 MSTORE PUSH1 0x20 ADD PUSH32 0x6F72646572656452657365727665733A203D3D3D3D3D3E200000000000000000 DUP2 MSTORE POP DUP3 PUSH1 0x20 ADD MLOAD PUSH2 0x2349 JUMP JUMPDEST PUSH2 0x1852 PUSH1 0x40 MLOAD DUP1 PUSH1 0x40 ADD PUSH1 0x40 MSTORE DUP1 PUSH1 0x18 DUP2 MSTORE PUSH1 0x20 ADD PUSH32 0x6F72646572656452657365727665733A203D3D3D3D3D3E200000000000000000 DUP2 MSTORE POP DUP3 PUSH1 0x40 ADD MLOAD PUSH2 0x2349 JUMP JUMPDEST PUSH2 0x1895 PUSH1 0x40 MLOAD DUP1 PUSH1 0x40 ADD PUSH1 0x40 MSTORE DUP1 PUSH1 0x18 DUP2 MSTORE PUSH1 0x20 ADD PUSH32 0x6F72646572656452657365727665733A3D3D3D3D3D3E20200000000000000000 DUP2 MSTORE POP DUP3 PUSH1 0x60 ADD MLOAD PUSH2 0x2349 JUMP JUMPDEST DUP2 PUSH1 0x60 ADD MLOAD PUSH1 0x1 PUSH1 0x0 PUSH2 0x100 EXP DUP2 SLOAD DUP2 PUSH20 0xFFFFFFFFFFFFFFFFFFFFFFFFFFFFFFFFFFFFFFFF MUL NOT AND SWAP1 DUP4 PUSH20 0xFFFFFFFFFFFFFFFFFFFFFFFFFFFFFFFFFFFFFFFF AND MUL OR SWAP1 SSTORE POP PUSH1 0x0 DUP3 PUSH1 0x0 ADD MLOAD PUSH20 0xFFFFFFFFFFFFFFFFFFFFFFFFFFFFFFFFFFFFFFFF AND PUSH4 0x70A08231 ADDRESS PUSH1 0x40 MLOAD DUP3 PUSH4 0xFFFFFFFF AND PUSH1 0xE0 SHL DUP2 MSTORE PUSH1 0x4 ADD PUSH2 0x1919 SWAP2 SWAP1 PUSH2 0x47FB JUMP JUMPDEST PUSH1 0x20 PUSH1 0x40 MLOAD DUP1 DUP4 SUB DUP2 DUP7 GAS STATICCALL ISZERO DUP1 ISZERO PUSH2 0x1936 JUMPI RETURNDATASIZE PUSH1 0x0 DUP1 RETURNDATACOPY RETURNDATASIZE PUSH1 0x0 REVERT JUMPDEST POP POP POP POP PUSH1 0x40 MLOAD RETURNDATASIZE PUSH1 0x1F NOT PUSH1 0x1F DUP3 ADD AND DUP3 ADD DUP1 PUSH1 0x40 MSTORE POP DUP2 ADD SWAP1 PUSH2 0x195A SWAP2 SWAP1 PUSH2 0x4CC9 JUMP JUMPDEST SWAP1 POP PUSH1 0x0 PUSH2 0x1967 DUP4 PUSH2 0x25CC JUMP JUMPDEST SWAP1 POP PUSH2 0x19A8 PUSH1 0x40 MLOAD DUP1 PUSH1 0x40 ADD PUSH1 0x40 MSTORE DUP1 PUSH1 0xE DUP2 MSTORE PUSH1 0x20 ADD PUSH32 0x626F72726F77416D6F756E743A20000000000000000000000000000000000000 DUP2 MSTORE POP DUP3 PUSH2 0x2349 JUMP JUMPDEST PUSH1 0x0 DUP1 DUP6 PUSH1 0x40 ADD MLOAD PUSH2 0x19BC JUMPI DUP3 PUSH1 0x0 PUSH2 0x19C0 JUMP JUMPDEST PUSH1 0x0 DUP4 JUMPDEST SWAP2 POP SWAP2 POP PUSH2 0x1A3A PUSH1 0x40 MLOAD DUP1 PUSH1 0x40 ADD PUSH1 0x40 MSTORE DUP1 PUSH1 0xC DUP2 MSTORE PUSH1 0x20 ADD PUSH32 0x616D6F756E74304F75743A200000000000000000000000000000000000000000 DUP2 MSTORE POP DUP4 PUSH1 0x40 MLOAD DUP1 PUSH1 0x40 ADD PUSH1 0x40 MSTORE DUP1 PUSH1 0xA DUP2 MSTORE PUSH1 0x20 ADD PUSH32 0x616D6F756E74314F757400000000000000000000000000000000000000000000 DUP2 MSTORE POP DUP5 PUSH2 0x37F9 JUMP JUMPDEST PUSH1 0x0 PUSH2 0x1A4F DUP5 DUP8 PUSH1 0x0 ADD MLOAD DUP9 PUSH1 0x20 ADD MLOAD PUSH2 0x14A8 JUMP JUMPDEST SWAP1 POP PUSH2 0x1A73 PUSH1 0x40 MLOAD DUP1 PUSH1 0x60 ADD PUSH1 0x40 MSTORE DUP1 PUSH1 0x26 DUP2 MSTORE PUSH1 0x20 ADD PUSH2 0x60BD PUSH1 0x26 SWAP2 CODECOPY DUP3 PUSH2 0x2349 JUMP JUMPDEST PUSH1 0x0 PUSH2 0x1A88 DUP6 DUP9 PUSH1 0x60 ADD MLOAD DUP10 PUSH1 0x40 ADD MLOAD PUSH2 0x46B JUMP JUMPDEST SWAP1 POP PUSH2 0x1AAC PUSH1 0x40 MLOAD DUP1 PUSH1 0x60 ADD PUSH1 0x40 MSTORE DUP1 PUSH1 0x30 DUP2 MSTORE PUSH1 0x20 ADD PUSH2 0x6062 PUSH1 0x30 SWAP2 CODECOPY DUP3 PUSH2 0x2349 JUMP JUMPDEST DUP2 DUP2 GT PUSH2 0x1AEE JUMPI PUSH1 0x40 MLOAD PUSH32 0x8C379A000000000000000000000000000000000000000000000000000000000 DUP2 MSTORE PUSH1 0x4 ADD PUSH2 0x1AE5 SWAP1 PUSH2 0x4FA8 JUMP JUMPDEST PUSH1 0x40 MLOAD DUP1 SWAP2 SUB SWAP1 REVERT JUMPDEST PUSH2 0x1AF6 PUSH2 0x416C JUMP JUMPDEST DUP9 PUSH1 0x60 ADD MLOAD DUP2 PUSH1 0x0 ADD SWAP1 PUSH20 0xFFFFFFFFFFFFFFFFFFFFFFFFFFFFFFFFFFFFFFFF AND SWAP1 DUP2 PUSH20 0xFFFFFFFFFFFFFFFFFFFFFFFFFFFFFFFFFFFFFFFF AND DUP2 MSTORE POP POP DUP9 PUSH1 0x80 ADD MLOAD DUP2 PUSH1 0x20 ADD SWAP1 PUSH20 0xFFFFFFFFFFFFFFFFFFFFFFFFFFFFFFFFFFFFFFFF AND SWAP1 DUP2 PUSH20 0xFFFFFFFFFFFFFFFFFFFFFFFFFFFFFFFFFFFFFFFF AND DUP2 MSTORE POP POP DUP9 PUSH1 0x40 ADD MLOAD DUP2 PUSH1 0x40 ADD SWAP1 ISZERO ISZERO SWAP1 DUP2 ISZERO ISZERO DUP2 MSTORE POP POP DUP9 PUSH1 0x20 ADD MLOAD DUP2 PUSH1 0x60 ADD SWAP1 PUSH20 0xFFFFFFFFFFFFFFFFFFFFFFFFFFFFFFFFFFFFFFFF AND SWAP1 DUP2 PUSH20 0xFFFFFFFFFFFFFFFFFFFFFFFFFFFFFFFFFFFFFFFF AND DUP2 MSTORE POP POP DUP9 PUSH1 0x0 ADD MLOAD DUP2 PUSH1 0x80 ADD SWAP1 PUSH20 0xFFFFFFFFFFFFFFFFFFFFFFFFFFFFFFFFFFFFFFFF AND SWAP1 DUP2 PUSH20 0xFFFFFFFFFFFFFFFFFFFFFFFFFFFFFFFFFFFFFFFF AND DUP2 MSTORE POP POP DUP3 DUP2 PUSH1 0xA0 ADD DUP2 DUP2 MSTORE POP POP DUP2 DUP2 PUSH1 0xC0 ADD DUP2 DUP2 MSTORE POP POP PUSH1 0x0 DUP2 PUSH1 0x40 MLOAD PUSH1 0x20 ADD PUSH2 0x1C21 SWAP2 SWAP1 PUSH2 0x5074 JUMP JUMPDEST PUSH1 0x40 MLOAD PUSH1 0x20 DUP2 DUP4 SUB SUB DUP2 MSTORE SWAP1 PUSH1 0x40 MSTORE SWAP1 POP DUP10 PUSH1 0x60 ADD MLOAD PUSH20 0xFFFFFFFFFFFFFFFFFFFFFFFFFFFFFFFFFFFFFFFF AND PUSH4 0x22C0D9F DUP8 DUP8 ADDRESS DUP6 PUSH1 0x40 MLOAD DUP6 PUSH4 0xFFFFFFFF AND PUSH1 0xE0 SHL DUP2 MSTORE PUSH1 0x4 ADD PUSH2 0x1C75 SWAP5 SWAP4 SWAP3 SWAP2 SWAP1 PUSH2 0x4D7E JUMP JUMPDEST PUSH1 0x0 PUSH1 0x40 MLOAD DUP1 DUP4 SUB DUP2 PUSH1 0x0 DUP8 DUP1 EXTCODESIZE ISZERO DUP1 ISZERO PUSH2 0x1C8F JUMPI PUSH1 0x0 DUP1 REVERT JUMPDEST POP GAS CALL ISZERO DUP1 ISZERO PUSH2 0x1CA3 JUMPI RETURNDATASIZE PUSH1 0x0 DUP1 RETURNDATACOPY RETURNDATASIZE PUSH1 0x0 REVERT JUMPDEST POP POP POP POP POP POP POP POP POP POP PUSH1 0x0 DUP5 PUSH1 0x0 ADD MLOAD PUSH20 0xFFFFFFFFFFFFFFFFFFFFFFFFFFFFFFFFFFFFFFFF AND PUSH4 0x70A08231 ADDRESS PUSH1 0x40 MLOAD DUP3 PUSH4 0xFFFFFFFF AND PUSH1 0xE0 SHL DUP2 MSTORE PUSH1 0x4 ADD PUSH2 0x1CEC SWAP2 SWAP1 PUSH2 0x47FB JUMP JUMPDEST PUSH1 0x20 PUSH1 0x40 MLOAD DUP1 DUP4 SUB DUP2 DUP7 GAS STATICCALL ISZERO DUP1 ISZERO PUSH2 0x1D09 JUMPI RETURNDATASIZE PUSH1 0x0 DUP1 RETURNDATACOPY RETURNDATASIZE PUSH1 0x0 REVERT JUMPDEST POP POP POP POP PUSH1 0x40 MLOAD RETURNDATASIZE PUSH1 0x1F NOT PUSH1 0x1F DUP3 ADD AND DUP3 ADD DUP1 PUSH1 0x40 MSTORE POP DUP2 ADD SWAP1 PUSH2 0x1D2D SWAP2 SWAP1 PUSH2 0x4CC9 JUMP JUMPDEST SWAP1 POP DUP3 DUP2 GT PUSH2 0x1D71 JUMPI PUSH1 0x40 MLOAD PUSH32 0x8C379A000000000000000000000000000000000000000000000000000000000 DUP2 MSTORE PUSH1 0x4 ADD PUSH2 0x1D68 SWAP1 PUSH2 0x50DB JUMP JUMPDEST PUSH1 0x40 MLOAD DUP1 SWAP2 SUB SWAP1 REVERT JUMPDEST PUSH32 0x0 PUSH20 0xFFFFFFFFFFFFFFFFFFFFFFFFFFFFFFFFFFFFFFFF AND DUP6 PUSH1 0x0 ADD MLOAD PUSH20 0xFFFFFFFFFFFFFFFFFFFFFFFFFFFFFFFFFFFFFFFF AND EQ ISZERO PUSH2 0x1E39 JUMPI DUP5 PUSH1 0x0 ADD MLOAD PUSH20 0xFFFFFFFFFFFFFFFFFFFFFFFFFFFFFFFFFFFFFFFF AND PUSH4 0x2E1A7D4D DUP3 PUSH1 0x40 MLOAD DUP3 PUSH4 0xFFFFFFFF AND PUSH1 0xE0 SHL DUP2 MSTORE PUSH1 0x4 ADD PUSH2 0x1E06 SWAP2 SWAP1 PUSH2 0x42CC JUMP JUMPDEST PUSH1 0x0 PUSH1 0x40 MLOAD DUP1 DUP4 SUB DUP2 PUSH1 0x0 DUP8 DUP1 EXTCODESIZE ISZERO DUP1 ISZERO PUSH2 0x1E20 JUMPI PUSH1 0x0 DUP1 REVERT JUMPDEST POP GAS CALL ISZERO DUP1 ISZERO PUSH2 0x1E34 JUMPI RETURNDATASIZE PUSH1 0x0 DUP1 RETURNDATACOPY RETURNDATASIZE PUSH1 0x0 REVERT JUMPDEST POP POP POP POP JUMPDEST PUSH1 0x1 DUP1 PUSH1 0x0 PUSH2 0x100 EXP DUP2 SLOAD DUP2 PUSH20 0xFFFFFFFFFFFFFFFFFFFFFFFFFFFFFFFFFFFFFFFF MUL NOT AND SWAP1 DUP4 PUSH20 0xFFFFFFFFFFFFFFFFFFFFFFFFFFFFFFFFFFFFFFFF AND MUL OR SWAP1 SSTORE POP PUSH32 0xFA5E1C44E71AE543467D983D8C04F9E587B452EF80C127D1E4E08EE2AAF71926 DUP7 DUP11 DUP11 PUSH1 0x40 MLOAD PUSH2 0x1EAD SWAP4 SWAP3 SWAP2 SWAP1 PUSH2 0x50FB JUMP JUMPDEST PUSH1 0x40 MLOAD DUP1 SWAP2 SUB SWAP1 LOG1 PUSH32 0x14162593BF5BEA87BCF705A9155121B5AD131273C408AD14E12CBA23CB30854 DUP3 DUP9 PUSH1 0x40 MLOAD PUSH2 0x1EE6 SWAP3 SWAP2 SWAP1 PUSH2 0x5132 JUMP JUMPDEST PUSH1 0x40 MLOAD DUP1 SWAP2 SUB SWAP1 LOG1 POP POP POP POP POP POP POP POP POP JUMP JUMPDEST PUSH2 0x1F01 PUSH2 0x2D7B JUMP JUMPDEST PUSH1 0x0 DUP2 PUSH20 0xFFFFFFFFFFFFFFFFFFFFFFFFFFFFFFFFFFFFFFFF AND PUSH4 0x70A08231 ADDRESS PUSH1 0x40 MLOAD DUP3 PUSH4 0xFFFFFFFF AND PUSH1 0xE0 SHL DUP2 MSTORE PUSH1 0x4 ADD PUSH2 0x1F3C SWAP2 SWAP1 PUSH2 0x47FB JUMP JUMPDEST PUSH1 0x20 PUSH1 0x40 MLOAD DUP1 DUP4 SUB DUP2 DUP7 GAS STATICCALL ISZERO DUP1 ISZERO PUSH2 0x1F59 JUMPI RETURNDATASIZE PUSH1 0x0 DUP1 RETURNDATACOPY RETURNDATASIZE PUSH1 0x0 REVERT JUMPDEST POP POP POP POP PUSH1 0x40 MLOAD RETURNDATASIZE PUSH1 0x1F NOT PUSH1 0x1F DUP3 ADD AND DUP3 ADD DUP1 PUSH1 0x40 MSTORE POP DUP2 ADD SWAP1 PUSH2 0x1F7D SWAP2 SWAP1 PUSH2 0x4CC9 JUMP JUMPDEST SWAP1 POP PUSH1 0x0 DUP2 GT ISZERO PUSH2 0x200F JUMPI DUP2 PUSH20 0xFFFFFFFFFFFFFFFFFFFFFFFFFFFFFFFFFFFFFFFF AND PUSH4 0xA9059CBB PUSH2 0x1FAC PUSH2 0x15BB JUMP JUMPDEST DUP4 PUSH1 0x40 MLOAD DUP4 PUSH4 0xFFFFFFFF AND PUSH1 0xE0 SHL DUP2 MSTORE PUSH1 0x4 ADD PUSH2 0x1FCA SWAP3 SWAP2 SWAP1 PUSH2 0x4DCA JUMP JUMPDEST PUSH1 0x20 PUSH1 0x40 MLOAD DUP1 DUP4 SUB DUP2 PUSH1 0x0 DUP8 GAS CALL ISZERO DUP1 ISZERO PUSH2 0x1FE9 JUMPI RETURNDATASIZE PUSH1 0x0 DUP1 RETURNDATACOPY RETURNDATASIZE PUSH1 0x0 REVERT JUMPDEST POP POP POP POP PUSH1 0x40 MLOAD RETURNDATASIZE PUSH1 0x1F NOT PUSH1 0x1F DUP3 ADD AND DUP3 ADD DUP1 PUSH1 0x40 MSTORE POP DUP2 ADD SWAP1 PUSH2 0x200D SWAP2 SWAP1 PUSH2 0x4DF3 JUMP JUMPDEST POP JUMPDEST PUSH2 0x2023 DUP3 PUSH1 0x2 PUSH2 0x389B SWAP1 SWAP2 SWAP1 PUSH4 0xFFFFFFFF AND JUMP JUMPDEST POP DUP2 PUSH20 0xFFFFFFFFFFFFFFFFFFFFFFFFFFFFFFFFFFFFFFFF AND PUSH32 0xDC23A849435922F20A9732EB85192A9D0C1CB34725EBE6D7DE0BE10212BA02FB PUSH1 0x40 MLOAD PUSH1 0x40 MLOAD DUP1 SWAP2 SUB SWAP1 LOG2 POP POP JUMP JUMPDEST PUSH1 0x60 PUSH1 0x0 PUSH2 0x2079 PUSH1 0x2 PUSH2 0x259D JUMP JUMPDEST SWAP1 POP DUP1 PUSH8 0xFFFFFFFFFFFFFFFF DUP2 GT ISZERO PUSH2 0x2095 JUMPI PUSH2 0x2094 PUSH2 0x43DA JUMP JUMPDEST JUMPDEST PUSH1 0x40 MLOAD SWAP1 DUP1 DUP3 MSTORE DUP1 PUSH1 0x20 MUL PUSH1 0x20 ADD DUP3 ADD PUSH1 0x40 MSTORE DUP1 ISZERO PUSH2 0x20C3 JUMPI DUP2 PUSH1 0x20 ADD PUSH1 0x20 DUP3 MUL DUP1 CALLDATASIZE DUP4 CALLDATACOPY DUP1 DUP3 ADD SWAP2 POP POP SWAP1 POP JUMPDEST POP SWAP2 POP PUSH1 0x0 JUMPDEST DUP2 DUP2 LT ISZERO PUSH2 0x2145 JUMPI PUSH2 0x20E5 DUP2 PUSH1 0x2 PUSH2 0x25B2 SWAP1 SWAP2 SWAP1 PUSH4 0xFFFFFFFF AND JUMP JUMPDEST DUP4 DUP3 DUP2 MLOAD DUP2 LT PUSH2 0x20F8 JUMPI PUSH2 0x20F7 PUSH2 0x515B JUMP JUMPDEST JUMPDEST PUSH1 0x20 MUL PUSH1 0x20 ADD ADD SWAP1 PUSH20 0xFFFFFFFFFFFFFFFFFFFFFFFFFFFFFFFFFFFFFFFF AND SWAP1 DUP2 PUSH20 0xFFFFFFFFFFFFFFFFFFFFFFFFFFFFFFFFFFFFFFFF AND DUP2 MSTORE POP POP DUP1 DUP1 PUSH2 0x213D SWAP1 PUSH2 0x4E20 JUMP JUMPDEST SWAP2 POP POP PUSH2 0x20C9 JUMP JUMPDEST POP POP SWAP1 JUMP JUMPDEST PUSH2 0x2152 PUSH2 0x2D7B JUMP JUMPDEST PUSH1 0x0 PUSH20 0xFFFFFFFFFFFFFFFFFFFFFFFFFFFFFFFFFFFFFFFF AND DUP2 PUSH20 0xFFFFFFFFFFFFFFFFFFFFFFFFFFFFFFFFFFFFFFFF AND EQ ISZERO PUSH2 0x21C2 JUMPI PUSH1 0x40 MLOAD PUSH32 0x8C379A000000000000000000000000000000000000000000000000000000000 DUP2 MSTORE PUSH1 0x4 ADD PUSH2 0x21B9 SWAP1 PUSH2 0x51FC JUMP JUMPDEST PUSH1 0x40 MLOAD DUP1 SWAP2 SUB SWAP1 REVERT JUMPDEST PUSH2 0x21CB DUP2 PUSH2 0x2DF9 JUMP JUMPDEST POP JUMP JUMPDEST PUSH1 0x0 PUSH2 0x21F6 DUP4 PUSH1 0x0 ADD DUP4 PUSH20 0xFFFFFFFFFFFFFFFFFFFFFFFFFFFFFFFFFFFFFFFF AND PUSH1 0x0 SHL PUSH2 0x38CB JUMP JUMPDEST SWAP1 POP SWAP3 SWAP2 POP POP JUMP JUMPDEST PUSH1 0x0 DUP2 DUP4 PUSH2 0x220C SWAP2 SWAP1 PUSH2 0x521C JUMP JUMPDEST SWAP1 POP SWAP3 SWAP2 POP POP JUMP JUMPDEST PUSH1 0x0 DUP2 DUP4 PUSH2 0x2222 SWAP2 SWAP1 PUSH2 0x5276 JUMP JUMPDEST SWAP1 POP SWAP3 SWAP2 POP POP JUMP JUMPDEST PUSH2 0x22C0 DUP2 PUSH1 0x40 MLOAD PUSH1 0x24 ADD PUSH2 0x223E SWAP2 SWAP1 PUSH2 0x5310 JUMP JUMPDEST PUSH1 0x40 MLOAD PUSH1 0x20 DUP2 DUP4 SUB SUB DUP2 MSTORE SWAP1 PUSH1 0x40 MSTORE PUSH32 0x41304FAC00000000000000000000000000000000000000000000000000000000 PUSH28 0xFFFFFFFFFFFFFFFFFFFFFFFFFFFFFFFFFFFFFFFFFFFFFFFFFFFFFFFF NOT AND PUSH1 0x20 DUP3 ADD DUP1 MLOAD PUSH28 0xFFFFFFFFFFFFFFFFFFFFFFFFFFFFFFFFFFFFFFFFFFFFFFFFFFFFFFFF DUP4 DUP2 DUP4 AND OR DUP4 MSTORE POP POP POP POP PUSH2 0x393B JUMP JUMPDEST POP JUMP JUMPDEST PUSH2 0x2344 DUP4 PUSH4 0xA9059CBB PUSH1 0xE0 SHL DUP5 DUP5 PUSH1 0x40 MLOAD PUSH1 0x24 ADD PUSH2 0x22E2 SWAP3 SWAP2 SWAP1 PUSH2 0x4DCA JUMP JUMPDEST PUSH1 0x40 MLOAD PUSH1 0x20 DUP2 DUP4 SUB SUB DUP2 MSTORE SWAP1 PUSH1 0x40 MSTORE SWAP1 PUSH28 0xFFFFFFFFFFFFFFFFFFFFFFFFFFFFFFFFFFFFFFFFFFFFFFFFFFFFFFFF NOT AND PUSH1 0x20 DUP3 ADD DUP1 MLOAD PUSH28 0xFFFFFFFFFFFFFFFFFFFFFFFFFFFFFFFFFFFFFFFFFFFFFFFFFFFFFFFF DUP4 DUP2 DUP4 AND OR DUP4 MSTORE POP POP POP POP PUSH2 0x3955 JUMP JUMPDEST POP POP POP JUMP JUMPDEST PUSH2 0x23E1 DUP3 DUP3 PUSH1 0x40 MLOAD PUSH1 0x24 ADD PUSH2 0x235F SWAP3 SWAP2 SWAP1 PUSH2 0x5332 JUMP JUMPDEST PUSH1 0x40 MLOAD PUSH1 0x20 DUP2 DUP4 SUB SUB DUP2 MSTORE SWAP1 PUSH1 0x40 MSTORE PUSH32 0xB60E72CC00000000000000000000000000000000000000000000000000000000 PUSH28 0xFFFFFFFFFFFFFFFFFFFFFFFFFFFFFFFFFFFFFFFFFFFFFFFFFFFFFFFF NOT AND PUSH1 0x20 DUP3 ADD DUP1 MLOAD PUSH28 0xFFFFFFFFFFFFFFFFFFFFFFFFFFFFFFFFFFFFFFFFFFFFFFFFFFFFFFFF DUP4 DUP2 DUP4 AND OR DUP4 MSTORE POP POP POP POP PUSH2 0x393B JUMP JUMPDEST POP POP JUMP JUMPDEST PUSH1 0x0 DUP1 PUSH1 0x0 DUP4 DUP7 PUSH1 0x4 PUSH2 0x23F8 SWAP2 SWAP1 PUSH2 0x5362 JUMP JUMPDEST PUSH2 0x2402 SWAP2 SWAP1 PUSH2 0x5362 JUMP JUMPDEST PUSH1 0x2 DUP7 PUSH2 0x240F SWAP2 SWAP1 PUSH2 0x55D5 JUMP JUMPDEST PUSH2 0x2419 SWAP2 SWAP1 PUSH2 0x5641 JUMP JUMPDEST SWAP1 POP PUSH1 0x0 DUP2 SGT PUSH2 0x245E JUMPI PUSH1 0x40 MLOAD PUSH32 0x8C379A000000000000000000000000000000000000000000000000000000000 DUP2 MSTORE PUSH1 0x4 ADD PUSH2 0x2455 SWAP1 PUSH2 0x5721 JUMP JUMPDEST PUSH1 0x40 MLOAD DUP1 SWAP2 SUB SWAP1 REVERT JUMPDEST PUSH1 0x0 PUSH2 0x2469 DUP3 PUSH2 0x2CE4 JUMP JUMPDEST SWAP1 POP DUP7 PUSH1 0x2 PUSH2 0x2478 SWAP2 SWAP1 PUSH2 0x5362 JUMP JUMPDEST DUP2 DUP8 PUSH2 0x2483 SWAP1 PUSH2 0x5741 JUMP JUMPDEST PUSH2 0x248D SWAP2 SWAP1 PUSH2 0x578A JUMP JUMPDEST PUSH2 0x2497 SWAP2 SWAP1 PUSH2 0x581E JUMP JUMPDEST SWAP4 POP DUP7 PUSH1 0x2 PUSH2 0x24A6 SWAP2 SWAP1 PUSH2 0x5362 JUMP JUMPDEST DUP2 DUP8 PUSH2 0x24B1 SWAP1 PUSH2 0x5741 JUMP JUMPDEST PUSH2 0x24BB SWAP2 SWAP1 PUSH2 0x5641 JUMP JUMPDEST PUSH2 0x24C5 SWAP2 SWAP1 PUSH2 0x581E JUMP JUMPDEST SWAP3 POP POP POP SWAP4 POP SWAP4 SWAP2 POP POP JUMP JUMPDEST PUSH2 0x2569 DUP3 DUP3 PUSH1 0x40 MLOAD PUSH1 0x24 ADD PUSH2 0x24E7 SWAP3 SWAP2 SWAP1 PUSH2 0x5888 JUMP JUMPDEST PUSH1 0x40 MLOAD PUSH1 0x20 DUP2 DUP4 SUB SUB DUP2 MSTORE SWAP1 PUSH1 0x40 MSTORE PUSH32 0x319AF33300000000000000000000000000000000000000000000000000000000 PUSH28 0xFFFFFFFFFFFFFFFFFFFFFFFFFFFFFFFFFFFFFFFFFFFFFFFFFFFFFFFF NOT AND PUSH1 0x20 DUP3 ADD DUP1 MLOAD PUSH28 0xFFFFFFFFFFFFFFFFFFFFFFFFFFFFFFFFFFFFFFFFFFFFFFFFFFFFFFFF DUP4 DUP2 DUP4 AND OR DUP4 MSTORE POP POP POP POP PUSH2 0x393B JUMP JUMPDEST POP POP JUMP JUMPDEST PUSH1 0x0 PUSH2 0x2595 DUP4 PUSH1 0x0 ADD DUP4 PUSH20 0xFFFFFFFFFFFFFFFFFFFFFFFFFFFFFFFFFFFFFFFF AND PUSH1 0x0 SHL PUSH2 0x3A1D JUMP JUMPDEST SWAP1 POP SWAP3 SWAP2 POP POP JUMP JUMPDEST PUSH1 0x0 PUSH2 0x25AB DUP3 PUSH1 0x0 ADD PUSH2 0x3A40 JUMP JUMPDEST SWAP1 POP SWAP2 SWAP1 POP JUMP JUMPDEST PUSH1 0x0 PUSH2 0x25C1 DUP4 PUSH1 0x0 ADD DUP4 PUSH2 0x3A51 JUMP JUMPDEST PUSH1 0x0 SHR SWAP1 POP SWAP3 SWAP2 POP POP JUMP JUMPDEST PUSH1 0x0 DUP1 DUP3 PUSH1 0x20 ADD MLOAD DUP4 PUSH1 0x0 ADD MLOAD LT PUSH2 0x25E8 JUMPI DUP3 PUSH1 0x20 ADD MLOAD PUSH2 0x25EE JUMP JUMPDEST DUP3 PUSH1 0x0 ADD MLOAD JUMPDEST SWAP1 POP PUSH2 0x262F PUSH1 0x40 MLOAD DUP1 PUSH1 0x40 ADD PUSH1 0x40 MSTORE DUP1 PUSH1 0x14 DUP2 MSTORE PUSH1 0x20 ADD PUSH32 0x6D696E6D696E6D696E6D696E20313131313D3D3D000000000000000000000000 DUP2 MSTORE POP DUP3 PUSH2 0x2349 JUMP JUMPDEST PUSH1 0x0 DUP4 PUSH1 0x60 ADD MLOAD DUP5 PUSH1 0x40 ADD MLOAD LT PUSH2 0x264A JUMPI DUP4 PUSH1 0x60 ADD MLOAD PUSH2 0x2650 JUMP JUMPDEST DUP4 PUSH1 0x40 ADD MLOAD JUMPDEST SWAP1 POP PUSH2 0x2691 PUSH1 0x40 MLOAD DUP1 PUSH1 0x40 ADD PUSH1 0x40 MSTORE DUP1 PUSH1 0x14 DUP2 MSTORE PUSH1 0x20 ADD PUSH32 0x6D696E6D696E6D696E6D696E20323232323D3D3D000000000000000000000000 DUP2 MSTORE POP DUP3 PUSH2 0x2349 JUMP JUMPDEST PUSH1 0x0 DUP2 DUP4 LT PUSH2 0x26A0 JUMPI DUP2 PUSH2 0x26A2 JUMP JUMPDEST DUP3 JUMPDEST SWAP1 POP PUSH2 0x26E3 PUSH1 0x40 MLOAD DUP1 PUSH1 0x40 ADD PUSH1 0x40 MSTORE DUP1 PUSH1 0x15 DUP2 MSTORE PUSH1 0x20 ADD PUSH32 0x6D696E6D696E6D696E6D696E20206D696E203D3D3D0000000000000000000000 DUP2 MSTORE POP DUP3 PUSH2 0x2349 JUMP JUMPDEST PUSH1 0x0 PUSH10 0xD3C21BCECCEDA1000000 DUP3 GT ISZERO PUSH2 0x2747 JUMPI PUSH9 0x56BC75E2D63100000 SWAP1 POP PUSH2 0x2742 PUSH1 0x40 MLOAD DUP1 PUSH1 0x40 ADD PUSH1 0x40 MSTORE DUP1 PUSH1 0x2 DUP2 MSTORE PUSH1 0x20 ADD PUSH32 0x6431000000000000000000000000000000000000000000000000000000000000 DUP2 MSTORE POP DUP3 PUSH2 0x2349 JUMP JUMPDEST PUSH2 0x2AE7 JUMP JUMPDEST PUSH10 0x152D02C7E14AF6800000 DUP3 GT ISZERO PUSH2 0x27A8 JUMPI PUSH8 0x8AC7230489E80000 SWAP1 POP PUSH2 0x27A3 PUSH1 0x40 MLOAD DUP1 PUSH1 0x40 ADD PUSH1 0x40 MSTORE DUP1 PUSH1 0x2 DUP2 MSTORE PUSH1 0x20 ADD PUSH32 0x6432000000000000000000000000000000000000000000000000000000000000 DUP2 MSTORE POP DUP3 PUSH2 0x2349 JUMP JUMPDEST PUSH2 0x2AE6 JUMP JUMPDEST PUSH10 0x21E19E0C9BAB2400000 DUP3 GT ISZERO PUSH2 0x2809 JUMPI PUSH8 0xDE0B6B3A7640000 SWAP1 POP PUSH2 0x2804 PUSH1 0x40 MLOAD DUP1 PUSH1 0x40 ADD PUSH1 0x40 MSTORE DUP1 PUSH1 0x2 DUP2 MSTORE PUSH1 0x20 ADD PUSH32 0x6433000000000000000000000000000000000000000000000000000000000000 DUP2 MSTORE POP DUP3 PUSH2 0x2349 JUMP JUMPDEST PUSH2 0x2AE5 JUMP JUMPDEST PUSH9 0x3635C9ADC5DEA00000 DUP3 GT ISZERO PUSH2 0x2869 JUMPI PUSH8 0x16345785D8A0000 SWAP1 POP PUSH2 0x2864 PUSH1 0x40 MLOAD DUP1 PUSH1 0x40 ADD PUSH1 0x40 MSTORE DUP1 PUSH1 0x2 DUP2 MSTORE PUSH1 0x20 ADD PUSH32 0x6434000000000000000000000000000000000000000000000000000000000000 DUP2 MSTORE POP DUP3 PUSH2 0x2349 JUMP JUMPDEST PUSH2 0x2AE4 JUMP JUMPDEST PUSH9 0x56BC75E2D63100000 DUP3 GT ISZERO PUSH2 0x28C8 JUMPI PUSH7 0x2386F26FC10000 SWAP1 POP PUSH2 0x28C3 PUSH1 0x40 MLOAD DUP1 PUSH1 0x40 ADD PUSH1 0x40 MSTORE DUP1 PUSH1 0x2 DUP2 MSTORE PUSH1 0x20 ADD PUSH32 0x6435000000000000000000000000000000000000000000000000000000000000 DUP2 MSTORE POP DUP3 PUSH2 0x2349 JUMP JUMPDEST PUSH2 0x2AE3 JUMP JUMPDEST PUSH8 0x8AC7230489E80000 DUP3 GT ISZERO PUSH2 0x2926 JUMPI PUSH7 0x38D7EA4C68000 SWAP1 POP PUSH2 0x2921 PUSH1 0x40 MLOAD DUP1 PUSH1 0x40 ADD PUSH1 0x40 MSTORE DUP1 PUSH1 0x2 DUP2 MSTORE PUSH1 0x20 ADD PUSH32 0x6436000000000000000000000000000000000000000000000000000000000000 DUP2 MSTORE POP DUP3 PUSH2 0x2349 JUMP JUMPDEST PUSH2 0x2AE2 JUMP JUMPDEST PUSH8 0xDE0B6B3A7640000 DUP3 GT ISZERO PUSH2 0x2983 JUMPI PUSH6 0x5AF3107A4000 SWAP1 POP PUSH2 0x297E PUSH1 0x40 MLOAD DUP1 PUSH1 0x40 ADD PUSH1 0x40 MSTORE DUP1 PUSH1 0x2 DUP2 MSTORE PUSH1 0x20 ADD PUSH32 0x6437000000000000000000000000000000000000000000000000000000000000 DUP2 MSTORE POP DUP3 PUSH2 0x2349 JUMP JUMPDEST PUSH2 0x2AE1 JUMP JUMPDEST PUSH8 0x16345785D8A0000 DUP3 GT ISZERO PUSH2 0x29E0 JUMPI PUSH6 0x9184E72A000 SWAP1 POP PUSH2 0x29DB PUSH1 0x40 MLOAD DUP1 PUSH1 0x40 ADD PUSH1 0x40 MSTORE DUP1 PUSH1 0x2 DUP2 MSTORE PUSH1 0x20 ADD PUSH32 0x6438000000000000000000000000000000000000000000000000000000000000 DUP2 MSTORE POP DUP3 PUSH2 0x2349 JUMP JUMPDEST PUSH2 0x2AE0 JUMP JUMPDEST PUSH7 0x2386F26FC10000 DUP3 GT ISZERO PUSH2 0x2A3B JUMPI PUSH5 0xE8D4A51000 SWAP1 POP PUSH2 0x2A36 PUSH1 0x40 MLOAD DUP1 PUSH1 0x40 ADD PUSH1 0x40 MSTORE DUP1 PUSH1 0x2 DUP2 MSTORE PUSH1 0x20 ADD PUSH32 0x6439000000000000000000000000000000000000000000000000000000000000 DUP2 MSTORE POP DUP3 PUSH2 0x2349 JUMP JUMPDEST PUSH2 0x2ADF JUMP JUMPDEST PUSH7 0x38D7EA4C68000 DUP3 GT ISZERO PUSH2 0x2A96 JUMPI PUSH5 0x174876E800 SWAP1 POP PUSH2 0x2A91 PUSH1 0x40 MLOAD DUP1 PUSH1 0x40 ADD PUSH1 0x40 MSTORE DUP1 PUSH1 0x3 DUP2 MSTORE PUSH1 0x20 ADD PUSH32 0x6431300000000000000000000000000000000000000000000000000000000000 DUP2 MSTORE POP DUP3 PUSH2 0x2349 JUMP JUMPDEST PUSH2 0x2ADE JUMP JUMPDEST PUSH5 0x2540BE400 SWAP1 POP PUSH2 0x2ADD PUSH1 0x40 MLOAD DUP1 PUSH1 0x40 ADD PUSH1 0x40 MSTORE DUP1 PUSH1 0x3 DUP2 MSTORE PUSH1 0x20 ADD PUSH32 0x6431310000000000000000000000000000000000000000000000000000000000 DUP2 MSTORE POP DUP3 PUSH2 0x2349 JUMP JUMPDEST JUMPDEST JUMPDEST JUMPDEST JUMPDEST JUMPDEST JUMPDEST JUMPDEST JUMPDEST JUMPDEST JUMPDEST PUSH2 0x2B26 PUSH1 0x40 MLOAD DUP1 PUSH1 0x40 ADD PUSH1 0x40 MSTORE DUP1 PUSH1 0xB DUP2 MSTORE PUSH1 0x20 ADD PUSH32 0x6464646464646464646464000000000000000000000000000000000000000000 DUP2 MSTORE POP DUP3 PUSH2 0x2349 JUMP JUMPDEST PUSH1 0x0 DUP1 PUSH1 0x0 DUP1 DUP5 DUP11 PUSH1 0x0 ADD MLOAD PUSH2 0x2B3C SWAP2 SWAP1 PUSH2 0x4A89 JUMP JUMPDEST DUP6 DUP12 PUSH1 0x40 ADD MLOAD PUSH2 0x2B4C SWAP2 SWAP1 PUSH2 0x4A89 JUMP JUMPDEST DUP7 DUP13 PUSH1 0x20 ADD MLOAD PUSH2 0x2B5C SWAP2 SWAP1 PUSH2 0x4A89 JUMP JUMPDEST DUP8 DUP14 PUSH1 0x60 ADD MLOAD PUSH2 0x2B6C SWAP2 SWAP1 PUSH2 0x4A89 JUMP JUMPDEST SWAP4 POP SWAP4 POP SWAP4 POP SWAP4 POP PUSH1 0x0 DUP2 DUP5 PUSH2 0x2B82 SWAP2 SWAP1 PUSH2 0x5362 JUMP JUMPDEST DUP4 DUP7 PUSH2 0x2B8E SWAP2 SWAP1 PUSH2 0x5362 JUMP JUMPDEST PUSH2 0x2B98 SWAP2 SWAP1 PUSH2 0x5641 JUMP JUMPDEST SWAP1 POP PUSH1 0x0 DUP5 DUP7 PUSH2 0x2BA8 SWAP2 SWAP1 PUSH2 0x578A JUMP JUMPDEST DUP4 DUP6 PUSH1 0x2 PUSH2 0x2BB6 SWAP2 SWAP1 PUSH2 0x5362 JUMP JUMPDEST PUSH2 0x2BC0 SWAP2 SWAP1 PUSH2 0x5362 JUMP JUMPDEST PUSH2 0x2BCA SWAP2 SWAP1 PUSH2 0x5362 JUMP JUMPDEST SWAP1 POP PUSH1 0x0 DUP5 DUP7 PUSH2 0x2BDA SWAP2 SWAP1 PUSH2 0x5362 JUMP JUMPDEST DUP5 DUP9 PUSH2 0x2BE6 SWAP2 SWAP1 PUSH2 0x5362 JUMP JUMPDEST PUSH2 0x2BF0 SWAP2 SWAP1 PUSH2 0x5641 JUMP JUMPDEST DUP5 DUP7 PUSH2 0x2BFC SWAP2 SWAP1 PUSH2 0x5362 JUMP JUMPDEST PUSH2 0x2C06 SWAP2 SWAP1 PUSH2 0x5362 JUMP JUMPDEST SWAP1 POP PUSH1 0x0 DUP1 PUSH2 0x2C16 DUP6 DUP6 DUP6 PUSH2 0x23E5 JUMP JUMPDEST SWAP2 POP SWAP2 POP PUSH1 0x0 DUP3 SGT DUP1 ISZERO PUSH2 0x2C29 JUMPI POP DUP7 DUP3 SLT JUMPDEST DUP1 ISZERO PUSH2 0x2C34 JUMPI POP DUP6 DUP3 SLT JUMPDEST DUP1 PUSH2 0x2C55 JUMPI POP PUSH1 0x0 DUP2 SGT DUP1 ISZERO PUSH2 0x2C49 JUMPI POP DUP7 DUP2 SLT JUMPDEST DUP1 ISZERO PUSH2 0x2C54 JUMPI POP DUP6 DUP2 SLT JUMPDEST JUMPDEST PUSH2 0x2C94 JUMPI PUSH1 0x40 MLOAD PUSH32 0x8C379A000000000000000000000000000000000000000000000000000000000 DUP2 MSTORE PUSH1 0x4 ADD PUSH2 0x2C8B SWAP1 PUSH2 0x5904 JUMP JUMPDEST PUSH1 0x40 MLOAD DUP1 SWAP2 SUB SWAP1 REVERT JUMPDEST PUSH1 0x0 DUP3 SGT DUP1 ISZERO PUSH2 0x2CA3 JUMPI POP DUP7 DUP3 SLT JUMPDEST DUP1 ISZERO PUSH2 0x2CAE JUMPI POP DUP6 DUP3 SLT JUMPDEST PUSH2 0x2CC3 JUMPI DUP10 DUP2 PUSH2 0x2CBE SWAP2 SWAP1 PUSH2 0x521C JUMP JUMPDEST PUSH2 0x2CD0 JUMP JUMPDEST DUP10 DUP3 PUSH2 0x2CCF SWAP2 SWAP1 PUSH2 0x521C JUMP JUMPDEST JUMPDEST SWAP14 POP POP POP POP POP POP POP POP POP POP POP POP POP POP SWAP2 SWAP1 POP JUMP JUMPDEST PUSH1 0x0 PUSH1 0x1 DUP3 GT PUSH2 0x2CF7 JUMPI PUSH2 0x2CF6 PUSH2 0x5924 JUMP JUMPDEST JUMPDEST PUSH1 0x0 PUSH3 0xF4240 DUP4 PUSH2 0x2D08 SWAP2 SWAP1 PUSH2 0x521C JUMP JUMPDEST SWAP1 POP PUSH1 0x0 DUP2 SWAP1 POP DUP2 SWAP3 POP PUSH1 0x0 JUMPDEST PUSH1 0x1 ISZERO PUSH2 0x2D63 JUMPI PUSH1 0x2 DUP5 DUP4 PUSH2 0x2D2A SWAP2 SWAP1 PUSH2 0x4A89 JUMP JUMPDEST DUP6 PUSH2 0x2D35 SWAP2 SWAP1 PUSH2 0x5276 JUMP JUMPDEST PUSH2 0x2D3F SWAP2 SWAP1 PUSH2 0x4A89 JUMP JUMPDEST SWAP1 POP PUSH2 0x3E8 DUP2 DUP6 PUSH2 0x2D50 SWAP2 SWAP1 PUSH2 0x4E96 JUMP JUMPDEST LT ISZERO PUSH2 0x2D5B JUMPI PUSH2 0x2D63 JUMP JUMPDEST DUP1 SWAP4 POP PUSH2 0x2D15 JUMP JUMPDEST PUSH2 0x3E8 DUP5 PUSH2 0x2D71 SWAP2 SWAP1 PUSH2 0x4A89 JUMP JUMPDEST SWAP4 POP POP POP POP SWAP2 SWAP1 POP JUMP JUMPDEST PUSH2 0x2D83 PUSH2 0x3A7C JUMP JUMPDEST PUSH20 0xFFFFFFFFFFFFFFFFFFFFFFFFFFFFFFFFFFFFFFFF AND PUSH2 0x2DA1 PUSH2 0x15BB JUMP JUMPDEST PUSH20 0xFFFFFFFFFFFFFFFFFFFFFFFFFFFFFFFFFFFFFFFF AND EQ PUSH2 0x2DF7 JUMPI PUSH1 0x40 MLOAD PUSH32 0x8C379A000000000000000000000000000000000000000000000000000000000 DUP2 MSTORE PUSH1 0x4 ADD PUSH2 0x2DEE SWAP1 PUSH2 0x599F JUMP JUMPDEST PUSH1 0x40 MLOAD DUP1 SWAP2 SUB SWAP1 REVERT JUMPDEST JUMP JUMPDEST PUSH1 0x0 DUP1 PUSH1 0x0 SWAP1 SLOAD SWAP1 PUSH2 0x100 EXP SWAP1 DIV PUSH20 0xFFFFFFFFFFFFFFFFFFFFFFFFFFFFFFFFFFFFFFFF AND SWAP1 POP DUP2 PUSH1 0x0 DUP1 PUSH2 0x100 EXP DUP2 SLOAD DUP2 PUSH20 0xFFFFFFFFFFFFFFFFFFFFFFFFFFFFFFFFFFFFFFFF MUL NOT AND SWAP1 DUP4 PUSH20 0xFFFFFFFFFFFFFFFFFFFFFFFFFFFFFFFFFFFFFFFF AND MUL OR SWAP1 SSTORE POP DUP2 PUSH20 0xFFFFFFFFFFFFFFFFFFFFFFFFFFFFFFFFFFFFFFFF AND DUP2 PUSH20 0xFFFFFFFFFFFFFFFFFFFFFFFFFFFFFFFFFFFFFFFF AND PUSH32 0x8BE0079C531659141344CD1FD0A4F28419497F9722A3DAAFE3B4186F6B6457E0 PUSH1 0x40 MLOAD PUSH1 0x40 MLOAD DUP1 SWAP2 SUB SWAP1 LOG3 POP POP JUMP JUMPDEST PUSH1 0x0 DUP1 PUSH1 0x0 DUP4 PUSH20 0xFFFFFFFFFFFFFFFFFFFFFFFFFFFFFFFFFFFFFFFF AND DUP6 PUSH20 0xFFFFFFFFFFFFFFFFFFFFFFFFFFFFFFFFFFFFFFFF AND EQ ISZERO PUSH2 0x2F31 JUMPI PUSH1 0x40 MLOAD PUSH32 0x8C379A000000000000000000000000000000000000000000000000000000000 DUP2 MSTORE PUSH1 0x4 ADD PUSH2 0x2F28 SWAP1 PUSH2 0x5A0B JUMP JUMPDEST PUSH1 0x40 MLOAD DUP1 SWAP2 SUB SWAP1 REVERT JUMPDEST PUSH1 0x0 DUP1 DUP7 PUSH20 0xFFFFFFFFFFFFFFFFFFFFFFFFFFFFFFFFFFFFFFFF AND PUSH4 0xDFE1681 PUSH1 0x40 MLOAD DUP2 PUSH4 0xFFFFFFFF AND PUSH1 0xE0 SHL DUP2 MSTORE PUSH1 0x4 ADD PUSH1 0x20 PUSH1 0x40 MLOAD DUP1 DUP4 SUB DUP2 DUP7 GAS STATICCALL ISZERO DUP1 ISZERO PUSH2 0x2F7F JUMPI RETURNDATASIZE PUSH1 0x0 DUP1 RETURNDATACOPY RETURNDATASIZE PUSH1 0x0 REVERT JUMPDEST POP POP POP POP PUSH1 0x40 MLOAD RETURNDATASIZE PUSH1 0x1F NOT PUSH1 0x1F DUP3 ADD AND DUP3 ADD DUP1 PUSH1 0x40 MSTORE POP DUP2 ADD SWAP1 PUSH2 0x2FA3 SWAP2 SWAP1 PUSH2 0x4E69 JUMP JUMPDEST DUP8 PUSH20 0xFFFFFFFFFFFFFFFFFFFFFFFFFFFFFFFFFFFFFFFF AND PUSH4 0xD21220A7 PUSH1 0x40 MLOAD DUP2 PUSH4 0xFFFFFFFF AND PUSH1 0xE0 SHL DUP2 MSTORE PUSH1 0x4 ADD PUSH1 0x20 PUSH1 0x40 MLOAD DUP1 DUP4 SUB DUP2 DUP7 GAS STATICCALL ISZERO DUP1 ISZERO PUSH2 0x2FEE JUMPI RETURNDATASIZE PUSH1 0x0 DUP1 RETURNDATACOPY RETURNDATASIZE PUSH1 0x0 REVERT JUMPDEST POP POP POP POP PUSH1 0x40 MLOAD RETURNDATASIZE PUSH1 0x1F NOT PUSH1 0x1F DUP3 ADD AND DUP3 ADD DUP1 PUSH1 0x40 MSTORE POP DUP2 ADD SWAP1 PUSH2 0x3012 SWAP2 SWAP1 PUSH2 0x4E69 JUMP JUMPDEST SWAP2 POP SWAP2 POP PUSH1 0x0 DUP1 DUP8 PUSH20 0xFFFFFFFFFFFFFFFFFFFFFFFFFFFFFFFFFFFFFFFF AND PUSH4 0xDFE1681 PUSH1 0x40 MLOAD DUP2 PUSH4 0xFFFFFFFF AND PUSH1 0xE0 SHL DUP2 MSTORE PUSH1 0x4 ADD PUSH1 0x20 PUSH1 0x40 MLOAD DUP1 DUP4 SUB DUP2 DUP7 GAS STATICCALL ISZERO DUP1 ISZERO PUSH2 0x3064 JUMPI RETURNDATASIZE PUSH1 0x0 DUP1 RETURNDATACOPY RETURNDATASIZE PUSH1 0x0 REVERT JUMPDEST POP POP POP POP PUSH1 0x40 MLOAD RETURNDATASIZE PUSH1 0x1F NOT PUSH1 0x1F DUP3 ADD AND DUP3 ADD DUP1 PUSH1 0x40 MSTORE POP DUP2 ADD SWAP1 PUSH2 0x3088 SWAP2 SWAP1 PUSH2 0x4E69 JUMP JUMPDEST DUP9 PUSH20 0xFFFFFFFFFFFFFFFFFFFFFFFFFFFFFFFFFFFFFFFF AND PUSH4 0xD21220A7 PUSH1 0x40 MLOAD DUP2 PUSH4 0xFFFFFFFF AND PUSH1 0xE0 SHL DUP2 MSTORE PUSH1 0x4 ADD PUSH1 0x20 PUSH1 0x40 MLOAD DUP1 DUP4 SUB DUP2 DUP7 GAS STATICCALL ISZERO DUP1 ISZERO PUSH2 0x30D3 JUMPI RETURNDATASIZE PUSH1 0x0 DUP1 RETURNDATACOPY RETURNDATASIZE PUSH1 0x0 REVERT JUMPDEST POP POP POP POP PUSH1 0x40 MLOAD RETURNDATASIZE PUSH1 0x1F NOT PUSH1 0x1F DUP3 ADD AND DUP3 ADD DUP1 PUSH1 0x40 MSTORE POP DUP2 ADD SWAP1 PUSH2 0x30F7 SWAP2 SWAP1 PUSH2 0x4E69 JUMP JUMPDEST SWAP2 POP SWAP2 POP PUSH2 0x311E PUSH1 0x40 MLOAD DUP1 PUSH1 0x60 ADD PUSH1 0x40 MSTORE DUP1 PUSH1 0x2C DUP2 MSTORE PUSH1 0x20 ADD PUSH2 0x60E3 PUSH1 0x2C SWAP2 CODECOPY DUP6 DUP6 PUSH2 0x3A84 JUMP JUMPDEST PUSH2 0x316E PUSH1 0x40 MLOAD DUP1 PUSH1 0x60 ADD PUSH1 0x40 MSTORE DUP1 PUSH1 0x2B DUP2 MSTORE PUSH1 0x20 ADD PUSH2 0x6092 PUSH1 0x2B SWAP2 CODECOPY DUP5 PUSH20 0xFFFFFFFFFFFFFFFFFFFFFFFFFFFFFFFFFFFFFFFF AND DUP7 PUSH20 0xFFFFFFFFFFFFFFFFFFFFFFFFFFFFFFFFFFFFFFFF AND LT PUSH2 0x3392 JUMP JUMPDEST PUSH2 0x31BE PUSH1 0x40 MLOAD DUP1 PUSH1 0x60 ADD PUSH1 0x40 MSTORE DUP1 PUSH1 0x2A DUP2 MSTORE PUSH1 0x20 ADD PUSH2 0x6038 PUSH1 0x2A SWAP2 CODECOPY DUP3 PUSH20 0xFFFFFFFFFFFFFFFFFFFFFFFFFFFFFFFFFFFFFFFF AND DUP5 PUSH20 0xFFFFFFFFFFFFFFFFFFFFFFFFFFFFFFFFFFFFFFFF AND LT PUSH2 0x3392 JUMP JUMPDEST DUP3 PUSH20 0xFFFFFFFFFFFFFFFFFFFFFFFFFFFFFFFFFFFFFFFF AND DUP5 PUSH20 0xFFFFFFFFFFFFFFFFFFFFFFFFFFFFFFFFFFFFFFFF AND LT DUP1 ISZERO PUSH2 0x3224 JUMPI POP DUP1 PUSH20 0xFFFFFFFFFFFFFFFFFFFFFFFFFFFFFFFFFFFFFFFF AND DUP3 PUSH20 0xFFFFFFFFFFFFFFFFFFFFFFFFFFFFFFFFFFFFFFFF AND LT JUMPDEST PUSH2 0x3263 JUMPI PUSH1 0x40 MLOAD PUSH32 0x8C379A000000000000000000000000000000000000000000000000000000000 DUP2 MSTORE PUSH1 0x4 ADD PUSH2 0x325A SWAP1 PUSH2 0x5A77 JUMP JUMPDEST PUSH1 0x40 MLOAD DUP1 SWAP2 SUB SWAP1 REVERT JUMPDEST DUP2 PUSH20 0xFFFFFFFFFFFFFFFFFFFFFFFFFFFFFFFFFFFFFFFF AND DUP5 PUSH20 0xFFFFFFFFFFFFFFFFFFFFFFFFFFFFFFFFFFFFFFFF AND EQ DUP1 ISZERO PUSH2 0x32C9 JUMPI POP DUP1 PUSH20 0xFFFFFFFFFFFFFFFFFFFFFFFFFFFFFFFFFFFFFFFF AND DUP4 PUSH20 0xFFFFFFFFFFFFFFFFFFFFFFFFFFFFFFFFFFFFFFFF AND EQ JUMPDEST PUSH2 0x3308 JUMPI PUSH1 0x40 MLOAD PUSH32 0x8C379A000000000000000000000000000000000000000000000000000000000 DUP2 MSTORE PUSH1 0x4 ADD PUSH2 0x32FF SWAP1 PUSH2 0x5AE3 JUMP JUMPDEST PUSH1 0x40 MLOAD DUP1 SWAP2 SUB SWAP1 REVERT JUMPDEST PUSH2 0x3311 DUP5 PUSH2 0xA89 JUMP JUMPDEST DUP1 PUSH2 0x3321 JUMPI POP PUSH2 0x3320 DUP4 PUSH2 0xA89 JUMP JUMPDEST JUMPDEST PUSH2 0x3360 JUMPI PUSH1 0x40 MLOAD PUSH32 0x8C379A000000000000000000000000000000000000000000000000000000000 DUP2 MSTORE PUSH1 0x4 ADD PUSH2 0x3357 SWAP1 PUSH2 0x5B4F JUMP JUMPDEST PUSH1 0x40 MLOAD DUP1 SWAP2 SUB SWAP1 REVERT JUMPDEST PUSH2 0x3369 DUP5 PUSH2 0xA89 JUMP JUMPDEST PUSH2 0x3376 JUMPI PUSH1 0x0 DUP4 DUP6 PUSH2 0x337B JUMP JUMPDEST PUSH1 0x1 DUP5 DUP5 JUMPDEST DUP1 SWAP8 POP DUP2 SWAP9 POP DUP3 SWAP10 POP POP POP POP POP POP POP POP SWAP3 POP SWAP3 POP SWAP3 JUMP JUMPDEST PUSH2 0x342A DUP3 DUP3 PUSH1 0x40 MLOAD PUSH1 0x24 ADD PUSH2 0x33A8 SWAP3 SWAP2 SWAP1 PUSH2 0x5B6F JUMP JUMPDEST PUSH1 0x40 MLOAD PUSH1 0x20 DUP2 DUP4 SUB SUB DUP2 MSTORE SWAP1 PUSH1 0x40 MSTORE PUSH32 0xC3B5563500000000000000000000000000000000000000000000000000000000 PUSH28 0xFFFFFFFFFFFFFFFFFFFFFFFFFFFFFFFFFFFFFFFFFFFFFFFFFFFFFFFF NOT AND PUSH1 0x20 DUP3 ADD DUP1 MLOAD PUSH28 0xFFFFFFFFFFFFFFFFFFFFFFFFFFFFFFFFFFFFFFFFFFFFFFFFFFFFFFFF DUP4 DUP2 DUP4 AND OR DUP4 MSTORE POP POP POP POP PUSH2 0x393B JUMP JUMPDEST POP POP JUMP JUMPDEST PUSH1 0x0 DUP1 PUSH2 0x3439 PUSH2 0x4144 JUMP JUMPDEST PUSH1 0x0 DUP1 DUP8 PUSH20 0xFFFFFFFFFFFFFFFFFFFFFFFFFFFFFFFFFFFFFFFF AND PUSH4 0x902F1AC PUSH1 0x40 MLOAD DUP2 PUSH4 0xFFFFFFFF AND PUSH1 0xE0 SHL DUP2 MSTORE PUSH1 0x4 ADD PUSH1 0x60 PUSH1 0x40 MLOAD DUP1 DUP4 SUB DUP2 DUP7 GAS STATICCALL ISZERO DUP1 ISZERO PUSH2 0x3487 JUMPI RETURNDATASIZE PUSH1 0x0 DUP1 RETURNDATACOPY RETURNDATASIZE PUSH1 0x0 REVERT JUMPDEST POP POP POP POP PUSH1 0x40 MLOAD RETURNDATASIZE PUSH1 0x1F NOT PUSH1 0x1F DUP3 ADD AND DUP3 ADD DUP1 PUSH1 0x40 MSTORE POP DUP2 ADD SWAP1 PUSH2 0x34AB SWAP2 SWAP1 PUSH2 0x5C21 JUMP JUMPDEST POP PUSH14 0xFFFFFFFFFFFFFFFFFFFFFFFFFFFF AND SWAP2 POP PUSH14 0xFFFFFFFFFFFFFFFFFFFFFFFFFFFF AND SWAP2 POP PUSH1 0x0 DUP1 DUP9 PUSH20 0xFFFFFFFFFFFFFFFFFFFFFFFFFFFFFFFFFFFFFFFF AND PUSH4 0x902F1AC PUSH1 0x40 MLOAD DUP2 PUSH4 0xFFFFFFFF AND PUSH1 0xE0 SHL DUP2 MSTORE PUSH1 0x4 ADD PUSH1 0x60 PUSH1 0x40 MLOAD DUP1 DUP4 SUB DUP2 DUP7 GAS STATICCALL ISZERO DUP1 ISZERO PUSH2 0x351E JUMPI RETURNDATASIZE PUSH1 0x0 DUP1 RETURNDATACOPY RETURNDATASIZE PUSH1 0x0 REVERT JUMPDEST POP POP POP POP PUSH1 0x40 MLOAD RETURNDATASIZE PUSH1 0x1F NOT PUSH1 0x1F DUP3 ADD AND DUP3 ADD DUP1 PUSH1 0x40 MSTORE POP DUP2 ADD SWAP1 PUSH2 0x3542 SWAP2 SWAP1 PUSH2 0x5C21 JUMP JUMPDEST POP PUSH14 0xFFFFFFFFFFFFFFFFFFFFFFFFFFFF AND SWAP2 POP PUSH14 0xFFFFFFFFFFFFFFFFFFFFFFFFFFFF AND SWAP2 POP PUSH2 0x35A7 PUSH1 0x40 MLOAD DUP1 PUSH1 0x40 ADD PUSH1 0x40 MSTORE DUP1 PUSH1 0x17 DUP2 MSTORE PUSH1 0x20 ADD PUSH32 0x72657365727665656565656520756E69737761703D3D3D000000000000000000 DUP2 MSTORE POP DUP6 DUP6 PUSH2 0x3B23 JUMP JUMPDEST PUSH2 0x35E7 PUSH1 0x40 MLOAD DUP1 PUSH1 0x40 ADD PUSH1 0x40 MSTORE DUP1 PUSH1 0x17 DUP2 MSTORE PUSH1 0x20 ADD PUSH32 0x7265736572766565656565652070616E63616B653D3D3D000000000000000000 DUP2 MSTORE POP DUP4 DUP4 PUSH2 0x3B23 JUMP JUMPDEST PUSH2 0x3627 PUSH1 0x40 MLOAD DUP1 PUSH1 0x40 ADD PUSH1 0x40 MSTORE DUP1 PUSH1 0x17 DUP2 MSTORE PUSH1 0x20 ADD PUSH32 0x72657365727665656565656520776574683D3D3D3D3D3D000000000000000000 DUP2 MSTORE POP DUP5 DUP4 PUSH2 0x3B23 JUMP JUMPDEST PUSH1 0x0 DUP1 DUP10 PUSH2 0x366A JUMPI PUSH2 0x364A DUP7 PUSH2 0x363C DUP8 PUSH2 0x3BC2 JUMP JUMPDEST PUSH2 0x3BFA SWAP1 SWAP2 SWAP1 PUSH4 0xFFFFFFFF AND JUMP JUMPDEST PUSH2 0x3665 DUP6 PUSH2 0x3657 DUP7 PUSH2 0x3BC2 JUMP JUMPDEST PUSH2 0x3BFA SWAP1 SWAP2 SWAP1 PUSH4 0xFFFFFFFF AND JUMP JUMPDEST PUSH2 0x36A1 JUMP JUMPDEST PUSH2 0x3685 DUP6 PUSH2 0x3677 DUP9 PUSH2 0x3BC2 JUMP JUMPDEST PUSH2 0x3BFA SWAP1 SWAP2 SWAP1 PUSH4 0xFFFFFFFF AND JUMP JUMPDEST PUSH2 0x36A0 DUP5 PUSH2 0x3692 DUP8 PUSH2 0x3BC2 JUMP JUMPDEST PUSH2 0x3BFA SWAP1 SWAP2 SWAP1 PUSH4 0xFFFFFFFF AND JUMP JUMPDEST JUMPDEST SWAP2 POP SWAP2 POP PUSH2 0x36B8 DUP2 DUP4 PUSH2 0x3C2F SWAP1 SWAP2 SWAP1 PUSH4 0xFFFFFFFF AND JUMP JUMPDEST ISZERO PUSH2 0x3754 JUMPI PUSH2 0x370E PUSH1 0x40 MLOAD DUP1 PUSH1 0x40 ADD PUSH1 0x40 MSTORE DUP1 PUSH1 0x1F DUP2 MSTORE PUSH1 0x20 ADD PUSH32 0x6865726520707269636530206973206C657373207468656E2070726963653100 DUP2 MSTORE POP PUSH2 0x3709 DUP4 DUP6 PUSH2 0x3C2F SWAP1 SWAP2 SWAP1 PUSH4 0xFFFFFFFF AND JUMP JUMPDEST PUSH2 0x3392 JUMP JUMPDEST DUP12 DUP12 DUP1 SWAP10 POP DUP2 SWAP11 POP POP POP DUP10 PUSH2 0x3726 JUMPI DUP5 DUP7 DUP5 DUP7 PUSH2 0x372B JUMP JUMPDEST DUP6 DUP6 DUP6 DUP6 JUMPDEST DUP11 PUSH1 0x0 ADD DUP12 PUSH1 0x20 ADD DUP13 PUSH1 0x40 ADD DUP14 PUSH1 0x60 ADD DUP5 DUP2 MSTORE POP DUP5 DUP2 MSTORE POP DUP5 DUP2 MSTORE POP DUP5 DUP2 MSTORE POP POP POP POP POP PUSH2 0x37D4 JUMP JUMPDEST PUSH2 0x3792 PUSH1 0x40 MLOAD DUP1 PUSH1 0x40 ADD PUSH1 0x40 MSTORE DUP1 PUSH1 0xB DUP2 MSTORE PUSH1 0x20 ADD PUSH32 0x68657265696E20656C7365000000000000000000000000000000000000000000 DUP2 MSTORE POP PUSH2 0x222A JUMP JUMPDEST DUP11 DUP13 DUP1 SWAP10 POP DUP2 SWAP11 POP POP POP DUP10 PUSH2 0x37AA JUMPI DUP3 DUP5 DUP7 DUP9 PUSH2 0x37AF JUMP JUMPDEST DUP4 DUP4 DUP8 DUP8 JUMPDEST DUP11 PUSH1 0x0 ADD DUP12 PUSH1 0x20 ADD DUP13 PUSH1 0x40 ADD DUP14 PUSH1 0x60 ADD DUP5 DUP2 MSTORE POP DUP5 DUP2 MSTORE POP DUP5 DUP2 MSTORE POP DUP5 DUP2 MSTORE POP POP POP POP POP JUMPDEST POP POP POP POP POP POP SWAP4 POP SWAP4 POP SWAP4 SWAP1 POP JUMP JUMPDEST PUSH1 0x0 DUP2 DUP4 PUSH2 0x37F1 SWAP2 SWAP1 PUSH2 0x4E96 JUMP JUMPDEST SWAP1 POP SWAP3 SWAP2 POP POP JUMP JUMPDEST PUSH2 0x3895 DUP5 DUP5 DUP5 DUP5 PUSH1 0x40 MLOAD PUSH1 0x24 ADD PUSH2 0x3813 SWAP5 SWAP4 SWAP3 SWAP2 SWAP1 PUSH2 0x5C74 JUMP JUMPDEST PUSH1 0x40 MLOAD PUSH1 0x20 DUP2 DUP4 SUB SUB DUP2 MSTORE SWAP1 PUSH1 0x40 MSTORE PUSH32 0xC67EA9D100000000000000000000000000000000000000000000000000000000 PUSH28 0xFFFFFFFFFFFFFFFFFFFFFFFFFFFFFFFFFFFFFFFFFFFFFFFFFFFFFFFF NOT AND PUSH1 0x20 DUP3 ADD DUP1 MLOAD PUSH28 0xFFFFFFFFFFFFFFFFFFFFFFFFFFFFFFFFFFFFFFFFFFFFFFFFFFFFFFFF DUP4 DUP2 DUP4 AND OR DUP4 MSTORE POP POP POP POP PUSH2 0x393B JUMP JUMPDEST POP POP POP POP JUMP JUMPDEST PUSH1 0x0 PUSH2 0x38C3 DUP4 PUSH1 0x0 ADD DUP4 PUSH20 0xFFFFFFFFFFFFFFFFFFFFFFFFFFFFFFFFFFFFFFFF AND PUSH1 0x0 SHL PUSH2 0x3C45 JUMP JUMPDEST SWAP1 POP SWAP3 SWAP2 POP POP JUMP JUMPDEST PUSH1 0x0 PUSH2 0x38D7 DUP4 DUP4 PUSH2 0x3A1D JUMP JUMPDEST PUSH2 0x3930 JUMPI DUP3 PUSH1 0x0 ADD DUP3 SWAP1 DUP1 PUSH1 0x1 DUP2 SLOAD ADD DUP1 DUP3 SSTORE DUP1 SWAP2 POP POP PUSH1 0x1 SWAP1 SUB SWAP1 PUSH1 0x0 MSTORE PUSH1 0x20 PUSH1 0x0 KECCAK256 ADD PUSH1 0x0 SWAP1 SWAP2 SWAP1 SWAP2 SWAP1 SWAP2 POP SSTORE DUP3 PUSH1 0x0 ADD DUP1 SLOAD SWAP1 POP DUP4 PUSH1 0x1 ADD PUSH1 0x0 DUP5 DUP2 MSTORE PUSH1 0x20 ADD SWAP1 DUP2 MSTORE PUSH1 0x20 ADD PUSH1 0x0 KECCAK256 DUP2 SWAP1 SSTORE POP PUSH1 0x1 SWAP1 POP PUSH2 0x3935 JUMP JUMPDEST PUSH1 0x0 SWAP1 POP JUMPDEST SWAP3 SWAP2 POP POP JUMP JUMPDEST PUSH2 0x3952 DUP2 PUSH2 0x394A PUSH2 0x3D59 PUSH2 0x3D7A JUMP JUMPDEST PUSH4 0xFFFFFFFF AND JUMP JUMPDEST POP JUMP JUMPDEST PUSH1 0x0 PUSH2 0x39B7 DUP3 PUSH1 0x40 MLOAD DUP1 PUSH1 0x40 ADD PUSH1 0x40 MSTORE DUP1 PUSH1 0x20 DUP2 MSTORE PUSH1 0x20 ADD PUSH32 0x5361666545524332303A206C6F772D6C6576656C2063616C6C206661696C6564 DUP2 MSTORE POP DUP6 PUSH20 0xFFFFFFFFFFFFFFFFFFFFFFFFFFFFFFFFFFFFFFFF AND PUSH2 0x3D85 SWAP1 SWAP3 SWAP2 SWAP1 PUSH4 0xFFFFFFFF AND JUMP JUMPDEST SWAP1 POP PUSH1 0x0 DUP2 MLOAD EQ DUP1 PUSH2 0x39D9 JUMPI POP DUP1 DUP1 PUSH1 0x20 ADD SWAP1 MLOAD DUP2 ADD SWAP1 PUSH2 0x39D8 SWAP2 SWAP1 PUSH2 0x4DF3 JUMP JUMPDEST JUMPDEST PUSH2 0x3A18 JUMPI PUSH1 0x40 MLOAD PUSH32 0x8C379A000000000000000000000000000000000000000000000000000000000 DUP2 MSTORE PUSH1 0x4 ADD PUSH2 0x3A0F SWAP1 PUSH2 0x5D39 JUMP JUMPDEST PUSH1 0x40 MLOAD DUP1 SWAP2 SUB SWAP1 REVERT JUMPDEST POP POP POP JUMP JUMPDEST PUSH1 0x0 DUP1 DUP4 PUSH1 0x1 ADD PUSH1 0x0 DUP5 DUP2 MSTORE PUSH1 0x20 ADD SWAP1 DUP2 MSTORE PUSH1 0x20 ADD PUSH1 0x0 KECCAK256 SLOAD EQ ISZERO SWAP1 POP SWAP3 SWAP2 POP POP JUMP JUMPDEST PUSH1 0x0 DUP2 PUSH1 0x0 ADD DUP1 SLOAD SWAP1 POP SWAP1 POP SWAP2 SWAP1 POP JUMP JUMPDEST PUSH1 0x0 DUP3 PUSH1 0x0 ADD DUP3 DUP2 SLOAD DUP2 LT PUSH2 0x3A69 JUMPI PUSH2 0x3A68 PUSH2 0x515B JUMP JUMPDEST JUMPDEST SWAP1 PUSH1 0x0 MSTORE PUSH1 0x20 PUSH1 0x0 KECCAK256 ADD SLOAD SWAP1 POP SWAP3 SWAP2 POP POP JUMP JUMPDEST PUSH1 0x0 CALLER SWAP1 POP SWAP1 JUMP JUMPDEST PUSH2 0x3B1E DUP4 DUP4 DUP4 PUSH1 0x40 MLOAD PUSH1 0x24 ADD PUSH2 0x3A9C SWAP4 SWAP3 SWAP2 SWAP1 PUSH2 0x5D59 JUMP JUMPDEST PUSH1 0x40 MLOAD PUSH1 0x20 DUP2 DUP4 SUB SUB DUP2 MSTORE SWAP1 PUSH1 0x40 MSTORE PUSH32 0xFCEC75E000000000000000000000000000000000000000000000000000000000 PUSH28 0xFFFFFFFFFFFFFFFFFFFFFFFFFFFFFFFFFFFFFFFFFFFFFFFFFFFFFFFF NOT AND PUSH1 0x20 DUP3 ADD DUP1 MLOAD PUSH28 0xFFFFFFFFFFFFFFFFFFFFFFFFFFFFFFFFFFFFFFFFFFFFFFFFFFFFFFFF DUP4 DUP2 DUP4 AND OR DUP4 MSTORE POP POP POP POP PUSH2 0x393B JUMP JUMPDEST POP POP POP JUMP JUMPDEST PUSH2 0x3BBD DUP4 DUP4 DUP4 PUSH1 0x40 MLOAD PUSH1 0x24 ADD PUSH2 0x3B3B SWAP4 SWAP3 SWAP2 SWAP1 PUSH2 0x5D97 JUMP JUMPDEST PUSH1 0x40 MLOAD PUSH1 0x20 DUP2 DUP4 SUB SUB DUP2 MSTORE SWAP1 PUSH1 0x40 MSTORE PUSH32 0xCA47C4EB00000000000000000000000000000000000000000000000000000000 PUSH28 0xFFFFFFFFFFFFFFFFFFFFFFFFFFFFFFFFFFFFFFFFFFFFFFFFFFFFFFFF NOT AND PUSH1 0x20 DUP3 ADD DUP1 MLOAD PUSH28 0xFFFFFFFFFFFFFFFFFFFFFFFFFFFFFFFFFFFFFFFFFFFFFFFFFFFFFFFF DUP4 DUP2 DUP4 AND OR DUP4 MSTORE POP POP POP POP PUSH2 0x393B JUMP JUMPDEST POP POP POP JUMP JUMPDEST PUSH2 0x3BCA PUSH2 0x4203 JUMP JUMPDEST PUSH1 0x40 MLOAD DUP1 PUSH1 0x20 ADD PUSH1 0x40 MSTORE DUP1 PUSH2 0x3BF0 PUSH8 0xDE0B6B3A7640000 DUP6 PUSH2 0x3D9D SWAP1 SWAP2 SWAP1 PUSH4 0xFFFFFFFF AND JUMP JUMPDEST DUP2 MSTORE POP SWAP1 POP SWAP2 SWAP1 POP JUMP JUMPDEST PUSH2 0x3C02 PUSH2 0x4203 JUMP JUMPDEST PUSH1 0x40 MLOAD DUP1 PUSH1 0x20 ADD PUSH1 0x40 MSTORE DUP1 PUSH2 0x3C24 DUP5 DUP7 PUSH1 0x0 ADD MLOAD PUSH2 0x3E18 SWAP1 SWAP2 SWAP1 PUSH4 0xFFFFFFFF AND JUMP JUMPDEST DUP2 MSTORE POP SWAP1 POP SWAP3 SWAP2 POP POP JUMP JUMPDEST PUSH1 0x0 DUP1 PUSH2 0x3C3C DUP5 DUP5 PUSH2 0x3E62 JUMP JUMPDEST EQ SWAP1 POP SWAP3 SWAP2 POP POP JUMP JUMPDEST PUSH1 0x0 DUP1 DUP4 PUSH1 0x1 ADD PUSH1 0x0 DUP5 DUP2 MSTORE PUSH1 0x20 ADD SWAP1 DUP2 MSTORE PUSH1 0x20 ADD PUSH1 0x0 KECCAK256 SLOAD SWAP1 POP PUSH1 0x0 DUP2 EQ PUSH2 0x3D4D JUMPI PUSH1 0x0 PUSH1 0x1 DUP3 PUSH2 0x3C77 SWAP2 SWAP1 PUSH2 0x4E96 JUMP JUMPDEST SWAP1 POP PUSH1 0x0 PUSH1 0x1 DUP7 PUSH1 0x0 ADD DUP1 SLOAD SWAP1 POP PUSH2 0x3C8F SWAP2 SWAP1 PUSH2 0x4E96 JUMP JUMPDEST SWAP1 POP DUP2 DUP2 EQ PUSH2 0x3CFE JUMPI PUSH1 0x0 DUP7 PUSH1 0x0 ADD DUP3 DUP2 SLOAD DUP2 LT PUSH2 0x3CB0 JUMPI PUSH2 0x3CAF PUSH2 0x515B JUMP JUMPDEST JUMPDEST SWAP1 PUSH1 0x0 MSTORE PUSH1 0x20 PUSH1 0x0 KECCAK256 ADD SLOAD SWAP1 POP DUP1 DUP8 PUSH1 0x0 ADD DUP5 DUP2 SLOAD DUP2 LT PUSH2 0x3CD4 JUMPI PUSH2 0x3CD3 PUSH2 0x515B JUMP JUMPDEST JUMPDEST SWAP1 PUSH1 0x0 MSTORE PUSH1 0x20 PUSH1 0x0 KECCAK256 ADD DUP2 SWAP1 SSTORE POP DUP4 DUP8 PUSH1 0x1 ADD PUSH1 0x0 DUP4 DUP2 MSTORE PUSH1 0x20 ADD SWAP1 DUP2 MSTORE PUSH1 0x20 ADD PUSH1 0x0 KECCAK256 DUP2 SWAP1 SSTORE POP POP JUMPDEST DUP6 PUSH1 0x0 ADD DUP1 SLOAD DUP1 PUSH2 0x3D12 JUMPI PUSH2 0x3D11 PUSH2 0x5DD5 JUMP JUMPDEST JUMPDEST PUSH1 0x1 SWAP1 SUB DUP2 DUP2 SWAP1 PUSH1 0x0 MSTORE PUSH1 0x20 PUSH1 0x0 KECCAK256 ADD PUSH1 0x0 SWAP1 SSTORE SWAP1 SSTORE DUP6 PUSH1 0x1 ADD PUSH1 0x0 DUP7 DUP2 MSTORE PUSH1 0x20 ADD SWAP1 DUP2 MSTORE PUSH1 0x20 ADD PUSH1 0x0 KECCAK256 PUSH1 0x0 SWAP1 SSTORE PUSH1 0x1 SWAP4 POP POP POP POP PUSH2 0x3D53 JUMP JUMPDEST PUSH1 0x0 SWAP2 POP POP JUMPDEST SWAP3 SWAP2 POP POP JUMP JUMPDEST PUSH1 0x0 PUSH11 0x636F6E736F6C652E6C6F67 SWAP1 POP PUSH1 0x0 DUP1 DUP4 MLOAD PUSH1 0x20 DUP6 ADD DUP5 GAS STATICCALL POP POP POP JUMP JUMPDEST PUSH2 0x4216 DUP2 SWAP1 POP SWAP2 SWAP1 POP JUMP JUMPDEST PUSH1 0x60 PUSH2 0x3D94 DUP5 DUP5 PUSH1 0x0 DUP6 PUSH2 0x3EA2 JUMP JUMPDEST SWAP1 POP SWAP4 SWAP3 POP POP POP JUMP JUMPDEST PUSH1 0x0 DUP1 DUP4 EQ ISZERO PUSH2 0x3DB0 JUMPI PUSH1 0x0 SWAP1 POP PUSH2 0x3E12 JUMP JUMPDEST PUSH1 0x0 DUP3 DUP5 PUSH2 0x3DBE SWAP2 SWAP1 PUSH2 0x521C JUMP JUMPDEST SWAP1 POP DUP3 DUP5 DUP3 PUSH2 0x3DCD SWAP2 SWAP1 PUSH2 0x4A89 JUMP JUMPDEST EQ PUSH2 0x3E0D JUMPI PUSH1 0x40 MLOAD PUSH32 0x8C379A000000000000000000000000000000000000000000000000000000000 DUP2 MSTORE PUSH1 0x4 ADD PUSH2 0x3E04 SWAP1 PUSH2 0x5E76 JUMP JUMPDEST PUSH1 0x40 MLOAD DUP1 SWAP2 SUB SWAP1 REVERT JUMPDEST DUP1 SWAP2 POP POP JUMPDEST SWAP3 SWAP2 POP POP JUMP JUMPDEST PUSH1 0x0 PUSH2 0x3E5A DUP4 DUP4 PUSH1 0x40 MLOAD DUP1 PUSH1 0x40 ADD PUSH1 0x40 MSTORE DUP1 PUSH1 0x1A DUP2 MSTORE PUSH1 0x20 ADD PUSH32 0x536166654D6174683A206469766973696F6E206279207A65726F000000000000 DUP2 MSTORE POP PUSH2 0x3F6F JUMP JUMPDEST SWAP1 POP SWAP3 SWAP2 POP POP JUMP JUMPDEST PUSH1 0x0 DUP2 PUSH1 0x0 ADD MLOAD DUP4 PUSH1 0x0 ADD MLOAD EQ ISZERO PUSH2 0x3E7D JUMPI PUSH1 0x1 SWAP1 POP PUSH2 0x3E9C JUMP JUMPDEST DUP2 PUSH1 0x0 ADD MLOAD DUP4 PUSH1 0x0 ADD MLOAD GT PUSH2 0x3E93 JUMPI PUSH1 0x0 PUSH2 0x3E96 JUMP JUMPDEST PUSH1 0x2 JUMPDEST PUSH1 0xFF AND SWAP1 POP JUMPDEST SWAP3 SWAP2 POP POP JUMP JUMPDEST PUSH1 0x60 DUP3 SELFBALANCE LT ISZERO PUSH2 0x3EE7 JUMPI PUSH1 0x40 MLOAD PUSH32 0x8C379A000000000000000000000000000000000000000000000000000000000 DUP2 MSTORE PUSH1 0x4 ADD PUSH2 0x3EDE SWAP1 PUSH2 0x5F08 JUMP JUMPDEST PUSH1 0x40 MLOAD DUP1 SWAP2 SUB SWAP1 REVERT JUMPDEST PUSH1 0x0 DUP1 DUP7 PUSH20 0xFFFFFFFFFFFFFFFFFFFFFFFFFFFFFFFFFFFFFFFF AND DUP6 DUP8 PUSH1 0x40 MLOAD PUSH2 0x3F10 SWAP2 SWAP1 PUSH2 0x5F64 JUMP JUMPDEST PUSH1 0x0 PUSH1 0x40 MLOAD DUP1 DUP4 SUB DUP2 DUP6 DUP8 GAS CALL SWAP3 POP POP POP RETURNDATASIZE DUP1 PUSH1 0x0 DUP2 EQ PUSH2 0x3F4D JUMPI PUSH1 0x40 MLOAD SWAP2 POP PUSH1 0x1F NOT PUSH1 0x3F RETURNDATASIZE ADD AND DUP3 ADD PUSH1 0x40 MSTORE RETURNDATASIZE DUP3 MSTORE RETURNDATASIZE PUSH1 0x0 PUSH1 0x20 DUP5 ADD RETURNDATACOPY PUSH2 0x3F52 JUMP JUMPDEST PUSH1 0x60 SWAP2 POP JUMPDEST POP SWAP2 POP SWAP2 POP PUSH2 0x3F63 DUP8 DUP4 DUP4 DUP8 PUSH2 0x3FD2 JUMP JUMPDEST SWAP3 POP POP POP SWAP5 SWAP4 POP POP POP POP JUMP JUMPDEST PUSH1 0x0 DUP1 DUP4 GT DUP3 SWAP1 PUSH2 0x3FB6 JUMPI PUSH1 0x40 MLOAD PUSH32 0x8C379A000000000000000000000000000000000000000000000000000000000 DUP2 MSTORE PUSH1 0x4 ADD PUSH2 0x3FAD SWAP2 SWAP1 PUSH2 0x5310 JUMP JUMPDEST PUSH1 0x40 MLOAD DUP1 SWAP2 SUB SWAP1 REVERT JUMPDEST POP PUSH1 0x0 DUP4 DUP6 PUSH2 0x3FC5 SWAP2 SWAP1 PUSH2 0x4A89 JUMP JUMPDEST SWAP1 POP DUP1 SWAP2 POP POP SWAP4 SWAP3 POP POP POP JUMP JUMPDEST PUSH1 0x60 DUP4 ISZERO PUSH2 0x4035 JUMPI PUSH1 0x0 DUP4 MLOAD EQ ISZERO PUSH2 0x402D JUMPI PUSH2 0x3FED DUP6 PUSH2 0x4048 JUMP JUMPDEST PUSH2 0x402C JUMPI PUSH1 0x40 MLOAD PUSH32 0x8C379A000000000000000000000000000000000000000000000000000000000 DUP2 MSTORE PUSH1 0x4 ADD PUSH2 0x4023 SWAP1 PUSH2 0x5FC7 JUMP JUMPDEST PUSH1 0x40 MLOAD DUP1 SWAP2 SUB SWAP1 REVERT JUMPDEST JUMPDEST DUP3 SWAP1 POP PUSH2 0x4040 JUMP JUMPDEST PUSH2 0x403F DUP4 DUP4 PUSH2 0x406B JUMP JUMPDEST JUMPDEST SWAP5 SWAP4 POP POP POP POP JUMP JUMPDEST PUSH1 0x0 DUP1 DUP3 PUSH20 0xFFFFFFFFFFFFFFFFFFFFFFFFFFFFFFFFFFFFFFFF AND EXTCODESIZE GT SWAP1 POP SWAP2 SWAP1 POP JUMP JUMPDEST PUSH1 0x0 DUP3 MLOAD GT ISZERO PUSH2 0x407E JUMPI DUP2 MLOAD DUP1 DUP4 PUSH1 0x20 ADD REVERT JUMPDEST DUP1 PUSH1 0x40 MLOAD PUSH32 0x8C379A000000000000000000000000000000000000000000000000000000000 DUP2 MSTORE PUSH1 0x4 ADD PUSH2 0x40B2 SWAP2 SWAP1 PUSH2 0x5310 JUMP JUMPDEST PUSH1 0x40 MLOAD DUP1 SWAP2 SUB SWAP1 REVERT JUMPDEST PUSH1 0x40 MLOAD DUP1 PUSH1 0xA0 ADD PUSH1 0x40 MSTORE DUP1 PUSH1 0x0 PUSH20 0xFFFFFFFFFFFFFFFFFFFFFFFFFFFFFFFFFFFFFFFF AND DUP2 MSTORE PUSH1 0x20 ADD PUSH1 0x0 PUSH20 0xFFFFFFFFFFFFFFFFFFFFFFFFFFFFFFFFFFFFFFFF AND DUP2 MSTORE PUSH1 0x20 ADD PUSH1 0x0 ISZERO ISZERO DUP2 MSTORE PUSH1 0x20 ADD PUSH1 0x0 PUSH20 0xFFFFFFFFFFFFFFFFFFFFFFFFFFFFFFFFFFFFFFFF AND DUP2 MSTORE PUSH1 0x20 ADD PUSH1 0x0 PUSH20 0xFFFFFFFFFFFFFFFFFFFFFFFFFFFFFFFFFFFFFFFF AND DUP2 MSTORE POP SWAP1 JUMP JUMPDEST PUSH1 0x40 MLOAD DUP1 PUSH1 0x80 ADD PUSH1 0x40 MSTORE DUP1 PUSH1 0x0 DUP2 MSTORE PUSH1 0x20 ADD PUSH1 0x0 DUP2 MSTORE PUSH1 0x20 ADD PUSH1 0x0 DUP2 MSTORE PUSH1 0x20 ADD PUSH1 0x0 DUP2 MSTORE POP SWAP1 JUMP JUMPDEST PUSH1 0x40 MLOAD DUP1 PUSH1 0xE0 ADD PUSH1 0x40 MSTORE DUP1 PUSH1 0x0 PUSH20 0xFFFFFFFFFFFFFFFFFFFFFFFFFFFFFFFFFFFFFFFF AND DUP2 MSTORE PUSH1 0x20 ADD PUSH1 0x0 PUSH20 0xFFFFFFFFFFFFFFFFFFFFFFFFFFFFFFFFFFFFFFFF AND DUP2 MSTORE PUSH1 0x20 ADD PUSH1 0x0 ISZERO ISZERO DUP2 MSTORE PUSH1 0x20 ADD PUSH1 0x0 PUSH20 0xFFFFFFFFFFFFFFFFFFFFFFFFFFFFFFFFFFFFFFFF AND DUP2 MSTORE PUSH1 0x20 ADD PUSH1 0x0 PUSH20 0xFFFFFFFFFFFFFFFFFFFFFFFFFFFFFFFFFFFFFFFF AND DUP2 MSTORE PUSH1 0x20 ADD PUSH1 0x0 DUP2 MSTORE PUSH1 0x20 ADD PUSH1 0x0 DUP2 MSTORE POP SWAP1 JUMP JUMPDEST PUSH1 0x40 MLOAD DUP1 PUSH1 0x20 ADD PUSH1 0x40 MSTORE DUP1 PUSH1 0x0 DUP2 MSTORE POP SWAP1 JUMP JUMPDEST PUSH2 0x421E PUSH2 0x5FE7 JUMP JUMPDEST JUMP JUMPDEST PUSH1 0x0 PUSH1 0x40 MLOAD SWAP1 POP SWAP1 JUMP JUMPDEST PUSH1 0x0 DUP1 REVERT JUMPDEST PUSH1 0x0 DUP1 REVERT JUMPDEST PUSH1 0x0 DUP2 SWAP1 POP SWAP2 SWAP1 POP JUMP JUMPDEST PUSH2 0x4247 DUP2 PUSH2 0x4234 JUMP JUMPDEST DUP2 EQ PUSH2 0x4252 JUMPI PUSH1 0x0 DUP1 REVERT JUMPDEST POP JUMP JUMPDEST PUSH1 0x0 DUP2 CALLDATALOAD SWAP1 POP PUSH2 0x4264 DUP2 PUSH2 0x423E JUMP JUMPDEST SWAP3 SWAP2 POP POP JUMP JUMPDEST PUSH1 0x0 DUP1 PUSH1 0x0 PUSH1 0x60 DUP5 DUP7 SUB SLT ISZERO PUSH2 0x4283 JUMPI PUSH2 0x4282 PUSH2 0x422A JUMP JUMPDEST JUMPDEST PUSH1 0x0 PUSH2 0x4291 DUP7 DUP3 DUP8 ADD PUSH2 0x4255 JUMP JUMPDEST SWAP4 POP POP PUSH1 0x20 PUSH2 0x42A2 DUP7 DUP3 DUP8 ADD PUSH2 0x4255 JUMP JUMPDEST SWAP3 POP POP PUSH1 0x40 PUSH2 0x42B3 DUP7 DUP3 DUP8 ADD PUSH2 0x4255 JUMP JUMPDEST SWAP2 POP POP SWAP3 POP SWAP3 POP SWAP3 JUMP JUMPDEST PUSH2 0x42C6 DUP2 PUSH2 0x4234 JUMP JUMPDEST DUP3 MSTORE POP POP JUMP JUMPDEST PUSH1 0x0 PUSH1 0x20 DUP3 ADD SWAP1 POP PUSH2 0x42E1 PUSH1 0x0 DUP4 ADD DUP5 PUSH2 0x42BD JUMP JUMPDEST SWAP3 SWAP2 POP POP JUMP JUMPDEST PUSH1 0x0 PUSH20 0xFFFFFFFFFFFFFFFFFFFFFFFFFFFFFFFFFFFFFFFF DUP3 AND SWAP1 POP SWAP2 SWAP1 POP JUMP JUMPDEST PUSH1 0x0 DUP2 SWAP1 POP SWAP2 SWAP1 POP JUMP JUMPDEST PUSH1 0x0 PUSH2 0x432C PUSH2 0x4327 PUSH2 0x4322 DUP5 PUSH2 0x42E7 JUMP JUMPDEST PUSH2 0x4307 JUMP JUMPDEST PUSH2 0x42E7 JUMP JUMPDEST SWAP1 POP SWAP2 SWAP1 POP JUMP JUMPDEST PUSH1 0x0 PUSH2 0x433E DUP3 PUSH2 0x4311 JUMP JUMPDEST SWAP1 POP SWAP2 SWAP1 POP JUMP JUMPDEST PUSH1 0x0 PUSH2 0x4350 DUP3 PUSH2 0x4333 JUMP JUMPDEST SWAP1 POP SWAP2 SWAP1 POP JUMP JUMPDEST PUSH2 0x4360 DUP2 PUSH2 0x4345 JUMP JUMPDEST DUP3 MSTORE POP POP JUMP JUMPDEST PUSH1 0x0 PUSH1 0x20 DUP3 ADD SWAP1 POP PUSH2 0x437B PUSH1 0x0 DUP4 ADD DUP5 PUSH2 0x4357 JUMP JUMPDEST SWAP3 SWAP2 POP POP JUMP JUMPDEST PUSH1 0x0 PUSH2 0x438C DUP3 PUSH2 0x42E7 JUMP JUMPDEST SWAP1 POP SWAP2 SWAP1 POP JUMP JUMPDEST PUSH2 0x439C DUP2 PUSH2 0x4381 JUMP JUMPDEST DUP2 EQ PUSH2 0x43A7 JUMPI PUSH1 0x0 DUP1 REVERT JUMPDEST POP JUMP JUMPDEST PUSH1 0x0 DUP2 CALLDATALOAD SWAP1 POP PUSH2 0x43B9 DUP2 PUSH2 0x4393 JUMP JUMPDEST SWAP3 SWAP2 POP POP JUMP JUMPDEST PUSH1 0x0 DUP1 REVERT JUMPDEST PUSH1 0x0 DUP1 REVERT JUMPDEST PUSH1 0x0 PUSH1 0x1F NOT PUSH1 0x1F DUP4 ADD AND SWAP1 POP SWAP2 SWAP1 POP JUMP JUMPDEST PUSH32 0x4E487B7100000000000000000000000000000000000000000000000000000000 PUSH1 0x0 MSTORE PUSH1 0x41 PUSH1 0x4 MSTORE PUSH1 0x24 PUSH1 0x0 REVERT JUMPDEST PUSH2 0x4412 DUP3 PUSH2 0x43C9 JUMP JUMPDEST DUP2 ADD DUP2 DUP2 LT PUSH8 0xFFFFFFFFFFFFFFFF DUP3 GT OR ISZERO PUSH2 0x4431 JUMPI PUSH2 0x4430 PUSH2 0x43DA JUMP JUMPDEST JUMPDEST DUP1 PUSH1 0x40 MSTORE POP POP POP JUMP JUMPDEST PUSH1 0x0 PUSH2 0x4444 PUSH2 0x4220 JUMP JUMPDEST SWAP1 POP PUSH2 0x4450 DUP3 DUP3 PUSH2 0x4409 JUMP JUMPDEST SWAP2 SWAP1 POP JUMP JUMPDEST PUSH1 0x0 PUSH8 0xFFFFFFFFFFFFFFFF DUP3 GT ISZERO PUSH2 0x4470 JUMPI PUSH2 0x446F PUSH2 0x43DA JUMP JUMPDEST JUMPDEST PUSH2 0x4479 DUP3 PUSH2 0x43C9 JUMP JUMPDEST SWAP1 POP PUSH1 0x20 DUP2 ADD SWAP1 POP SWAP2 SWAP1 POP JUMP JUMPDEST DUP3 DUP2 DUP4 CALLDATACOPY PUSH1 0x0 DUP4 DUP4 ADD MSTORE POP POP POP JUMP JUMPDEST PUSH1 0x0 PUSH2 0x44A8 PUSH2 0x44A3 DUP5 PUSH2 0x4455 JUMP JUMPDEST PUSH2 0x443A JUMP JUMPDEST SWAP1 POP DUP3 DUP2 MSTORE PUSH1 0x20 DUP2 ADD DUP5 DUP5 DUP5 ADD GT ISZERO PUSH2 0x44C4 JUMPI PUSH2 0x44C3 PUSH2 0x43C4 JUMP JUMPDEST JUMPDEST PUSH2 0x44CF DUP5 DUP3 DUP6 PUSH2 0x4486 JUMP JUMPDEST POP SWAP4 SWAP3 POP POP POP JUMP JUMPDEST PUSH1 0x0 DUP3 PUSH1 0x1F DUP4 ADD SLT PUSH2 0x44EC JUMPI PUSH2 0x44EB PUSH2 0x43BF JUMP JUMPDEST JUMPDEST DUP2 CALLDATALOAD PUSH2 0x44FC DUP5 DUP3 PUSH1 0x20 DUP7 ADD PUSH2 0x4495 JUMP JUMPDEST SWAP2 POP POP SWAP3 SWAP2 POP POP JUMP JUMPDEST PUSH1 0x0 DUP1 PUSH1 0x0 DUP1 PUSH1 0x80 DUP6 DUP8 SUB SLT ISZERO PUSH2 0x451F JUMPI PUSH2 0x451E PUSH2 0x422A JUMP JUMPDEST JUMPDEST PUSH1 0x0 PUSH2 0x452D DUP8 DUP3 DUP9 ADD PUSH2 0x43AA JUMP JUMPDEST SWAP5 POP POP PUSH1 0x20 PUSH2 0x453E DUP8 DUP3 DUP9 ADD PUSH2 0x4255 JUMP JUMPDEST SWAP4 POP POP PUSH1 0x40 PUSH2 0x454F DUP8 DUP3 DUP9 ADD PUSH2 0x4255 JUMP JUMPDEST SWAP3 POP POP PUSH1 0x60 DUP6 ADD CALLDATALOAD PUSH8 0xFFFFFFFFFFFFFFFF DUP2 GT ISZERO PUSH2 0x4570 JUMPI PUSH2 0x456F PUSH2 0x422F JUMP JUMPDEST JUMPDEST PUSH2 0x457C DUP8 DUP3 DUP9 ADD PUSH2 0x44D7 JUMP JUMPDEST SWAP2 POP POP SWAP3 SWAP6 SWAP2 SWAP5 POP SWAP3 POP JUMP JUMPDEST PUSH1 0x0 DUP2 SWAP1 POP SWAP2 SWAP1 POP JUMP JUMPDEST PUSH2 0x459B DUP2 PUSH2 0x4588 JUMP JUMPDEST DUP2 EQ PUSH2 0x45A6 JUMPI PUSH1 0x0 DUP1 REVERT JUMPDEST POP JUMP JUMPDEST PUSH1 0x0 DUP2 CALLDATALOAD SWAP1 POP PUSH2 0x45B8 DUP2 PUSH2 0x4592 JUMP JUMPDEST SWAP3 SWAP2 POP POP JUMP JUMPDEST PUSH1 0x0 DUP1 PUSH1 0x0 PUSH1 0x60 DUP5 DUP7 SUB SLT ISZERO PUSH2 0x45D7 JUMPI PUSH2 0x45D6 PUSH2 0x422A JUMP JUMPDEST JUMPDEST PUSH1 0x0 PUSH2 0x45E5 DUP7 DUP3 DUP8 ADD PUSH2 0x45A9 JUMP JUMPDEST SWAP4 POP POP PUSH1 0x20 PUSH2 0x45F6 DUP7 DUP3 DUP8 ADD PUSH2 0x45A9 JUMP JUMPDEST SWAP3 POP POP PUSH1 0x40 PUSH2 0x4607 DUP7 DUP3 DUP8 ADD PUSH2 0x45A9 JUMP JUMPDEST SWAP2 POP POP SWAP3 POP SWAP3 POP SWAP3 JUMP JUMPDEST PUSH2 0x461A DUP2 PUSH2 0x4588 JUMP JUMPDEST DUP3 MSTORE POP POP JUMP JUMPDEST PUSH1 0x0 PUSH1 0x40 DUP3 ADD SWAP1 POP PUSH2 0x4635 PUSH1 0x0 DUP4 ADD DUP6 PUSH2 0x4611 JUMP JUMPDEST PUSH2 0x4642 PUSH1 0x20 DUP4 ADD DUP5 PUSH2 0x4611 JUMP JUMPDEST SWAP4 SWAP3 POP POP POP JUMP JUMPDEST PUSH1 0x0 PUSH1 0x20 DUP3 DUP5 SUB SLT ISZERO PUSH2 0x465F JUMPI PUSH2 0x465E PUSH2 0x422A JUMP JUMPDEST JUMPDEST PUSH1 0x0 PUSH2 0x466D DUP5 DUP3 DUP6 ADD PUSH2 0x43AA JUMP JUMPDEST SWAP2 POP POP SWAP3 SWAP2 POP POP JUMP JUMPDEST PUSH1 0x0 DUP2 ISZERO ISZERO SWAP1 POP SWAP2 SWAP1 POP JUMP JUMPDEST PUSH2 0x468B DUP2 PUSH2 0x4676 JUMP JUMPDEST DUP3 MSTORE POP POP JUMP JUMPDEST PUSH1 0x0 PUSH1 0x20 DUP3 ADD SWAP1 POP PUSH2 0x46A6 PUSH1 0x0 DUP4 ADD DUP5 PUSH2 0x4682 JUMP JUMPDEST SWAP3 SWAP2 POP POP JUMP JUMPDEST PUSH1 0x0 DUP1 REVERT JUMPDEST PUSH1 0x0 PUSH1 0x80 DUP3 DUP5 SUB SLT ISZERO PUSH2 0x46C7 JUMPI PUSH2 0x46C6 PUSH2 0x46AC JUMP JUMPDEST JUMPDEST PUSH2 0x46D1 PUSH1 0x80 PUSH2 0x443A JUMP JUMPDEST SWAP1 POP PUSH1 0x0 PUSH2 0x46E1 DUP5 DUP3 DUP6 ADD PUSH2 0x4255 JUMP JUMPDEST PUSH1 0x0 DUP4 ADD MSTORE POP PUSH1 0x20 PUSH2 0x46F5 DUP5 DUP3 DUP6 ADD PUSH2 0x4255 JUMP JUMPDEST PUSH1 0x20 DUP4 ADD MSTORE POP PUSH1 0x40 PUSH2 0x4709 DUP5 DUP3 DUP6 ADD PUSH2 0x4255 JUMP JUMPDEST PUSH1 0x40 DUP4 ADD MSTORE POP PUSH1 0x60 PUSH2 0x471D DUP5 DUP3 DUP6 ADD PUSH2 0x4255 JUMP JUMPDEST PUSH1 0x60 DUP4 ADD MSTORE POP SWAP3 SWAP2 POP POP JUMP JUMPDEST PUSH1 0x0 PUSH1 0x80 DUP3 DUP5 SUB SLT ISZERO PUSH2 0x473F JUMPI PUSH2 0x473E PUSH2 0x422A JUMP JUMPDEST JUMPDEST PUSH1 0x0 PUSH2 0x474D DUP5 DUP3 DUP6 ADD PUSH2 0x46B1 JUMP JUMPDEST SWAP2 POP POP SWAP3 SWAP2 POP POP JUMP JUMPDEST PUSH1 0x0 PUSH1 0x20 DUP3 DUP5 SUB SLT ISZERO PUSH2 0x476C JUMPI PUSH2 0x476B PUSH2 0x422A JUMP JUMPDEST JUMPDEST PUSH1 0x0 PUSH2 0x477A DUP5 DUP3 DUP6 ADD PUSH2 0x4255 JUMP JUMPDEST SWAP2 POP POP SWAP3 SWAP2 POP POP JUMP JUMPDEST PUSH1 0x0 DUP1 PUSH1 0x40 DUP4 DUP6 SUB SLT ISZERO PUSH2 0x479A JUMPI PUSH2 0x4799 PUSH2 0x422A JUMP JUMPDEST JUMPDEST PUSH1 0x0 PUSH2 0x47A8 DUP6 DUP3 DUP7 ADD PUSH2 0x43AA JUMP JUMPDEST SWAP3 POP POP PUSH1 0x20 PUSH2 0x47B9 DUP6 DUP3 DUP7 ADD PUSH2 0x43AA JUMP JUMPDEST SWAP2 POP POP SWAP3 POP SWAP3 SWAP1 POP JUMP JUMPDEST PUSH2 0x47CC DUP2 PUSH2 0x4381 JUMP JUMPDEST DUP3 MSTORE POP POP JUMP JUMPDEST PUSH1 0x0 PUSH1 0x40 DUP3 ADD SWAP1 POP PUSH2 0x47E7 PUSH1 0x0 DUP4 ADD DUP6 PUSH2 0x42BD JUMP JUMPDEST PUSH2 0x47F4 PUSH1 0x20 DUP4 ADD DUP5 PUSH2 0x47C3 JUMP JUMPDEST SWAP4 SWAP3 POP POP POP JUMP JUMPDEST PUSH1 0x0 PUSH1 0x20 DUP3 ADD SWAP1 POP PUSH2 0x4810 PUSH1 0x0 DUP4 ADD DUP5 PUSH2 0x47C3 JUMP JUMPDEST SWAP3 SWAP2 POP POP JUMP JUMPDEST PUSH1 0x0 DUP2 MLOAD SWAP1 POP SWAP2 SWAP1 POP JUMP JUMPDEST PUSH1 0x0 DUP3 DUP3 MSTORE PUSH1 0x20 DUP3 ADD SWAP1 POP SWAP3 SWAP2 POP POP JUMP JUMPDEST PUSH1 0x0 DUP2 SWAP1 POP PUSH1 0x20 DUP3 ADD SWAP1 POP SWAP2 SWAP1 POP JUMP JUMPDEST PUSH2 0x484B DUP2 PUSH2 0x4381 JUMP JUMPDEST DUP3 MSTORE POP POP JUMP JUMPDEST PUSH1 0x0 PUSH2 0x485D DUP4 DUP4 PUSH2 0x4842 JUMP JUMPDEST PUSH1 0x20 DUP4 ADD SWAP1 POP SWAP3 SWAP2 POP POP JUMP JUMPDEST PUSH1 0x0 PUSH1 0x20 DUP3 ADD SWAP1 POP SWAP2 SWAP1 POP JUMP JUMPDEST PUSH1 0x0 PUSH2 0x4881 DUP3 PUSH2 0x4816 JUMP JUMPDEST PUSH2 0x488B DUP2 DUP6 PUSH2 0x4821 JUMP JUMPDEST SWAP4 POP PUSH2 0x4896 DUP4 PUSH2 0x4832 JUMP JUMPDEST DUP1 PUSH1 0x0 JUMPDEST DUP4 DUP2 LT ISZERO PUSH2 0x48C7 JUMPI DUP2 MLOAD PUSH2 0x48AE DUP9 DUP3 PUSH2 0x4851 JUMP JUMPDEST SWAP8 POP PUSH2 0x48B9 DUP4 PUSH2 0x4869 JUMP JUMPDEST SWAP3 POP POP PUSH1 0x1 DUP2 ADD SWAP1 POP PUSH2 0x489A JUMP JUMPDEST POP DUP6 SWAP4 POP POP POP POP SWAP3 SWAP2 POP POP JUMP JUMPDEST PUSH1 0x0 PUSH1 0x20 DUP3 ADD SWAP1 POP DUP2 DUP2 SUB PUSH1 0x0 DUP4 ADD MSTORE PUSH2 0x48EE DUP2 DUP5 PUSH2 0x4876 JUMP JUMPDEST SWAP1 POP SWAP3 SWAP2 POP POP JUMP JUMPDEST PUSH1 0x0 DUP3 DUP3 MSTORE PUSH1 0x20 DUP3 ADD SWAP1 POP SWAP3 SWAP2 POP POP JUMP JUMPDEST PUSH32 0x556E697377617056324C6962726172793A20494E53554646494349454E545F49 PUSH1 0x0 DUP3 ADD MSTORE PUSH32 0x4E5055545F414D4F554E54000000000000000000000000000000000000000000 PUSH1 0x20 DUP3 ADD MSTORE POP JUMP JUMPDEST PUSH1 0x0 PUSH2 0x4963 PUSH1 0x2B DUP4 PUSH2 0x48F6 JUMP JUMPDEST SWAP2 POP PUSH2 0x496E DUP3 PUSH2 0x4907 JUMP JUMPDEST PUSH1 0x40 DUP3 ADD SWAP1 POP SWAP2 SWAP1 POP JUMP JUMPDEST PUSH1 0x0 PUSH1 0x20 DUP3 ADD SWAP1 POP DUP2 DUP2 SUB PUSH1 0x0 DUP4 ADD MSTORE PUSH2 0x4992 DUP2 PUSH2 0x4956 JUMP JUMPDEST SWAP1 POP SWAP2 SWAP1 POP JUMP JUMPDEST PUSH32 0x556E697377617056324C6962726172793A20494E53554646494349454E545F4C PUSH1 0x0 DUP3 ADD MSTORE PUSH32 0x4951554944495459000000000000000000000000000000000000000000000000 PUSH1 0x20 DUP3 ADD MSTORE POP JUMP JUMPDEST PUSH1 0x0 PUSH2 0x49F5 PUSH1 0x28 DUP4 PUSH2 0x48F6 JUMP JUMPDEST SWAP2 POP PUSH2 0x4A00 DUP3 PUSH2 0x4999 JUMP JUMPDEST PUSH1 0x40 DUP3 ADD SWAP1 POP SWAP2 SWAP1 POP JUMP JUMPDEST PUSH1 0x0 PUSH1 0x20 DUP3 ADD SWAP1 POP DUP2 DUP2 SUB PUSH1 0x0 DUP4 ADD MSTORE PUSH2 0x4A24 DUP2 PUSH2 0x49E8 JUMP JUMPDEST SWAP1 POP SWAP2 SWAP1 POP JUMP JUMPDEST PUSH32 0x4E487B7100000000000000000000000000000000000000000000000000000000 PUSH1 0x0 MSTORE PUSH1 0x12 PUSH1 0x4 MSTORE PUSH1 0x24 PUSH1 0x0 REVERT JUMPDEST PUSH32 0x4E487B7100000000000000000000000000000000000000000000000000000000 PUSH1 0x0 MSTORE PUSH1 0x11 PUSH1 0x4 MSTORE PUSH1 0x24 PUSH1 0x0 REVERT JUMPDEST PUSH1 0x0 PUSH2 0x4A94 DUP3 PUSH2 0x4234 JUMP JUMPDEST SWAP2 POP PUSH2 0x4A9F DUP4 PUSH2 0x4234 JUMP JUMPDEST SWAP3 POP DUP3 PUSH2 0x4AAF JUMPI PUSH2 0x4AAE PUSH2 0x4A2B JUMP JUMPDEST JUMPDEST DUP3 DUP3 DIV SWAP1 POP SWAP3 SWAP2 POP POP JUMP JUMPDEST PUSH32 0x4E6F6E207065726D697373696F6E656420616464726573732063616C6C000000 PUSH1 0x0 DUP3 ADD MSTORE POP JUMP JUMPDEST PUSH1 0x0 PUSH2 0x4AF0 PUSH1 0x1D DUP4 PUSH2 0x48F6 JUMP JUMPDEST SWAP2 POP PUSH2 0x4AFB DUP3 PUSH2 0x4ABA JUMP JUMPDEST PUSH1 0x20 DUP3 ADD SWAP1 POP SWAP2 SWAP1 POP JUMP JUMPDEST PUSH1 0x0 PUSH1 0x20 DUP3 ADD SWAP1 POP DUP2 DUP2 SUB PUSH1 0x0 DUP4 ADD MSTORE PUSH2 0x4B1F DUP2 PUSH2 0x4AE3 JUMP JUMPDEST SWAP1 POP SWAP2 SWAP1 POP JUMP JUMPDEST PUSH32 0x4E6F742066726F6D207468697320636F6E747261637400000000000000000000 PUSH1 0x0 DUP3 ADD MSTORE POP JUMP JUMPDEST PUSH1 0x0 PUSH2 0x4B5C PUSH1 0x16 DUP4 PUSH2 0x48F6 JUMP JUMPDEST SWAP2 POP PUSH2 0x4B67 DUP3 PUSH2 0x4B26 JUMP JUMPDEST PUSH1 0x20 DUP3 ADD SWAP1 POP SWAP2 SWAP1 POP JUMP JUMPDEST PUSH1 0x0 PUSH1 0x20 DUP3 ADD SWAP1 POP DUP2 DUP2 SUB PUSH1 0x0 DUP4 ADD MSTORE PUSH2 0x4B8B DUP2 PUSH2 0x4B4F JUMP JUMPDEST SWAP1 POP SWAP2 SWAP1 POP JUMP JUMPDEST PUSH1 0x0 DUP2 MLOAD SWAP1 POP PUSH2 0x4BA1 DUP2 PUSH2 0x4393 JUMP JUMPDEST SWAP3 SWAP2 POP POP JUMP JUMPDEST PUSH2 0x4BB0 DUP2 PUSH2 0x4676 JUMP JUMPDEST DUP2 EQ PUSH2 0x4BBB JUMPI PUSH1 0x0 DUP1 REVERT JUMPDEST POP JUMP JUMPDEST PUSH1 0x0 DUP2 MLOAD SWAP1 POP PUSH2 0x4BCD DUP2 PUSH2 0x4BA7 JUMP JUMPDEST SWAP3 SWAP2 POP POP JUMP JUMPDEST PUSH1 0x0 DUP2 MLOAD SWAP1 POP PUSH2 0x4BE2 DUP2 PUSH2 0x423E JUMP JUMPDEST SWAP3 SWAP2 POP POP JUMP JUMPDEST PUSH1 0x0 PUSH1 0xE0 DUP3 DUP5 SUB SLT ISZERO PUSH2 0x4BFE JUMPI PUSH2 0x4BFD PUSH2 0x46AC JUMP JUMPDEST JUMPDEST PUSH2 0x4C08 PUSH1 0xE0 PUSH2 0x443A JUMP JUMPDEST SWAP1 POP PUSH1 0x0 PUSH2 0x4C18 DUP5 DUP3 DUP6 ADD PUSH2 0x4B92 JUMP JUMPDEST PUSH1 0x0 DUP4 ADD MSTORE POP PUSH1 0x20 PUSH2 0x4C2C DUP5 DUP3 DUP6 ADD PUSH2 0x4B92 JUMP JUMPDEST PUSH1 0x20 DUP4 ADD MSTORE POP PUSH1 0x40 PUSH2 0x4C40 DUP5 DUP3 DUP6 ADD PUSH2 0x4BBE JUMP JUMPDEST PUSH1 0x40 DUP4 ADD MSTORE POP PUSH1 0x60 PUSH2 0x4C54 DUP5 DUP3 DUP6 ADD PUSH2 0x4B92 JUMP JUMPDEST PUSH1 0x60 DUP4 ADD MSTORE POP PUSH1 0x80 PUSH2 0x4C68 DUP5 DUP3 DUP6 ADD PUSH2 0x4B92 JUMP JUMPDEST PUSH1 0x80 DUP4 ADD MSTORE POP PUSH1 0xA0 PUSH2 0x4C7C DUP5 DUP3 DUP6 ADD PUSH2 0x4BD3 JUMP JUMPDEST PUSH1 0xA0 DUP4 ADD MSTORE POP PUSH1 0xC0 PUSH2 0x4C90 DUP5 DUP3 DUP6 ADD PUSH2 0x4BD3 JUMP JUMPDEST PUSH1 0xC0 DUP4 ADD MSTORE POP SWAP3 SWAP2 POP POP JUMP JUMPDEST PUSH1 0x0 PUSH1 0xE0 DUP3 DUP5 SUB SLT ISZERO PUSH2 0x4CB2 JUMPI PUSH2 0x4CB1 PUSH2 0x422A JUMP JUMPDEST JUMPDEST PUSH1 0x0 PUSH2 0x4CC0 DUP5 DUP3 DUP6 ADD PUSH2 0x4BE8 JUMP JUMPDEST SWAP2 POP POP SWAP3 SWAP2 POP POP JUMP JUMPDEST PUSH1 0x0 PUSH1 0x20 DUP3 DUP5 SUB SLT ISZERO PUSH2 0x4CDF JUMPI PUSH2 0x4CDE PUSH2 0x422A JUMP JUMPDEST JUMPDEST PUSH1 0x0 PUSH2 0x4CED DUP5 DUP3 DUP6 ADD PUSH2 0x4BD3 JUMP JUMPDEST SWAP2 POP POP SWAP3 SWAP2 POP POP JUMP JUMPDEST PUSH1 0x0 DUP2 MLOAD SWAP1 POP SWAP2 SWAP1 POP JUMP JUMPDEST PUSH1 0x0 DUP3 DUP3 MSTORE PUSH1 0x20 DUP3 ADD SWAP1 POP SWAP3 SWAP2 POP POP JUMP JUMPDEST PUSH1 0x0 JUMPDEST DUP4 DUP2 LT ISZERO PUSH2 0x4D30 JUMPI DUP1 DUP3 ADD MLOAD DUP2 DUP5 ADD MSTORE PUSH1 0x20 DUP2 ADD SWAP1 POP PUSH2 0x4D15 JUMP JUMPDEST DUP4 DUP2 GT ISZERO PUSH2 0x4D3F JUMPI PUSH1 0x0 DUP5 DUP5 ADD MSTORE JUMPDEST POP POP POP POP JUMP JUMPDEST PUSH1 0x0 PUSH2 0x4D50 DUP3 PUSH2 0x4CF6 JUMP JUMPDEST PUSH2 0x4D5A DUP2 DUP6 PUSH2 0x4D01 JUMP JUMPDEST SWAP4 POP PUSH2 0x4D6A DUP2 DUP6 PUSH1 0x20 DUP7 ADD PUSH2 0x4D12 JUMP JUMPDEST PUSH2 0x4D73 DUP2 PUSH2 0x43C9 JUMP JUMPDEST DUP5 ADD SWAP2 POP POP SWAP3 SWAP2 POP POP JUMP JUMPDEST PUSH1 0x0 PUSH1 0x80 DUP3 ADD SWAP1 POP PUSH2 0x4D93 PUSH1 0x0 DUP4 ADD DUP8 PUSH2 0x42BD JUMP JUMPDEST PUSH2 0x4DA0 PUSH1 0x20 DUP4 ADD DUP7 PUSH2 0x42BD JUMP JUMPDEST PUSH2 0x4DAD PUSH1 0x40 DUP4 ADD DUP6 PUSH2 0x47C3 JUMP JUMPDEST DUP2 DUP2 SUB PUSH1 0x60 DUP4 ADD MSTORE PUSH2 0x4DBF DUP2 DUP5 PUSH2 0x4D45 JUMP JUMPDEST SWAP1 POP SWAP6 SWAP5 POP POP POP POP POP JUMP JUMPDEST PUSH1 0x0 PUSH1 0x40 DUP3 ADD SWAP1 POP PUSH2 0x4DDF PUSH1 0x0 DUP4 ADD DUP6 PUSH2 0x47C3 JUMP JUMPDEST PUSH2 0x4DEC PUSH1 0x20 DUP4 ADD DUP5 PUSH2 0x42BD JUMP JUMPDEST SWAP4 SWAP3 POP POP POP JUMP JUMPDEST PUSH1 0x0 PUSH1 0x20 DUP3 DUP5 SUB SLT ISZERO PUSH2 0x4E09 JUMPI PUSH2 0x4E08 PUSH2 0x422A JUMP JUMPDEST JUMPDEST PUSH1 0x0 PUSH2 0x4E17 DUP5 DUP3 DUP6 ADD PUSH2 0x4BBE JUMP JUMPDEST SWAP2 POP POP SWAP3 SWAP2 POP POP JUMP JUMPDEST PUSH1 0x0 PUSH2 0x4E2B DUP3 PUSH2 0x4234 JUMP JUMPDEST SWAP2 POP PUSH32 0xFFFFFFFFFFFFFFFFFFFFFFFFFFFFFFFFFFFFFFFFFFFFFFFFFFFFFFFFFFFFFFFF DUP3 EQ ISZERO PUSH2 0x4E5E JUMPI PUSH2 0x4E5D PUSH2 0x4A5A JUMP JUMPDEST JUMPDEST PUSH1 0x1 DUP3 ADD SWAP1 POP SWAP2 SWAP1 POP JUMP JUMPDEST PUSH1 0x0 PUSH1 0x20 DUP3 DUP5 SUB SLT ISZERO PUSH2 0x4E7F JUMPI PUSH2 0x4E7E PUSH2 0x422A JUMP JUMPDEST JUMPDEST PUSH1 0x0 PUSH2 0x4E8D DUP5 DUP3 DUP6 ADD PUSH2 0x4B92 JUMP JUMPDEST SWAP2 POP POP SWAP3 SWAP2 POP POP JUMP JUMPDEST PUSH1 0x0 PUSH2 0x4EA1 DUP3 PUSH2 0x4234 JUMP JUMPDEST SWAP2 POP PUSH2 0x4EAC DUP4 PUSH2 0x4234 JUMP JUMPDEST SWAP3 POP DUP3 DUP3 LT ISZERO PUSH2 0x4EBF JUMPI PUSH2 0x4EBE PUSH2 0x4A5A JUMP JUMPDEST JUMPDEST DUP3 DUP3 SUB SWAP1 POP SWAP3 SWAP2 POP POP JUMP JUMPDEST PUSH32 0x556E697377617056324C6962726172793A20494E53554646494349454E545F4F PUSH1 0x0 DUP3 ADD MSTORE PUSH32 0x55545055545F414D4F554E540000000000000000000000000000000000000000 PUSH1 0x20 DUP3 ADD MSTORE POP JUMP JUMPDEST PUSH1 0x0 PUSH2 0x4F26 PUSH1 0x2C DUP4 PUSH2 0x48F6 JUMP JUMPDEST SWAP2 POP PUSH2 0x4F31 DUP3 PUSH2 0x4ECA JUMP JUMPDEST PUSH1 0x40 DUP3 ADD SWAP1 POP SWAP2 SWAP1 POP JUMP JUMPDEST PUSH1 0x0 PUSH1 0x20 DUP3 ADD SWAP1 POP DUP2 DUP2 SUB PUSH1 0x0 DUP4 ADD MSTORE PUSH2 0x4F55 DUP2 PUSH2 0x4F19 JUMP JUMPDEST SWAP1 POP SWAP2 SWAP1 POP JUMP JUMPDEST PUSH32 0x417262697472616765206661696C2C206E6F2070726F66697400000000000000 PUSH1 0x0 DUP3 ADD MSTORE POP JUMP JUMPDEST PUSH1 0x0 PUSH2 0x4F92 PUSH1 0x19 DUP4 PUSH2 0x48F6 JUMP JUMPDEST SWAP2 POP PUSH2 0x4F9D DUP3 PUSH2 0x4F5C JUMP JUMPDEST PUSH1 0x20 DUP3 ADD SWAP1 POP SWAP2 SWAP1 POP JUMP JUMPDEST PUSH1 0x0 PUSH1 0x20 DUP3 ADD SWAP1 POP DUP2 DUP2 SUB PUSH1 0x0 DUP4 ADD MSTORE PUSH2 0x4FC1 DUP2 PUSH2 0x4F85 JUMP JUMPDEST SWAP1 POP SWAP2 SWAP1 POP JUMP JUMPDEST PUSH2 0x4FD1 DUP2 PUSH2 0x4676 JUMP JUMPDEST DUP3 MSTORE POP POP JUMP JUMPDEST PUSH2 0x4FE0 DUP2 PUSH2 0x4234 JUMP JUMPDEST DUP3 MSTORE POP POP JUMP JUMPDEST PUSH1 0xE0 DUP3 ADD PUSH1 0x0 DUP3 ADD MLOAD PUSH2 0x4FFC PUSH1 0x0 DUP6 ADD DUP3 PUSH2 0x4842 JUMP JUMPDEST POP PUSH1 0x20 DUP3 ADD MLOAD PUSH2 0x500F PUSH1 0x20 DUP6 ADD DUP3 PUSH2 0x4842 JUMP JUMPDEST POP PUSH1 0x40 DUP3 ADD MLOAD PUSH2 0x5022 PUSH1 0x40 DUP6 ADD DUP3 PUSH2 0x4FC8 JUMP JUMPDEST POP PUSH1 0x60 DUP3 ADD MLOAD PUSH2 0x5035 PUSH1 0x60 DUP6 ADD DUP3 PUSH2 0x4842 JUMP JUMPDEST POP PUSH1 0x80 DUP3 ADD MLOAD PUSH2 0x5048 PUSH1 0x80 DUP6 ADD DUP3 PUSH2 0x4842 JUMP JUMPDEST POP PUSH1 0xA0 DUP3 ADD MLOAD PUSH2 0x505B PUSH1 0xA0 DUP6 ADD DUP3 PUSH2 0x4FD7 JUMP JUMPDEST POP PUSH1 0xC0 DUP3 ADD MLOAD PUSH2 0x506E PUSH1 0xC0 DUP6 ADD DUP3 PUSH2 0x4FD7 JUMP JUMPDEST POP POP POP POP JUMP JUMPDEST PUSH1 0x0 PUSH1 0xE0 DUP3 ADD SWAP1 POP PUSH2 0x5089 PUSH1 0x0 DUP4 ADD DUP5 PUSH2 0x4FE6 JUMP JUMPDEST SWAP3 SWAP2 POP POP JUMP JUMPDEST PUSH32 0x4C6F73696E67206D6F6E65790000000000000000000000000000000000000000 PUSH1 0x0 DUP3 ADD MSTORE POP JUMP JUMPDEST PUSH1 0x0 PUSH2 0x50C5 PUSH1 0xC DUP4 PUSH2 0x48F6 JUMP JUMPDEST SWAP2 POP PUSH2 0x50D0 DUP3 PUSH2 0x508F JUMP JUMPDEST PUSH1 0x20 DUP3 ADD SWAP1 POP SWAP2 SWAP1 POP JUMP JUMPDEST PUSH1 0x0 PUSH1 0x20 DUP3 ADD SWAP1 POP DUP2 DUP2 SUB PUSH1 0x0 DUP4 ADD MSTORE PUSH2 0x50F4 DUP2 PUSH2 0x50B8 JUMP JUMPDEST SWAP1 POP SWAP2 SWAP1 POP JUMP JUMPDEST PUSH1 0x0 PUSH1 0x60 DUP3 ADD SWAP1 POP PUSH2 0x5110 PUSH1 0x0 DUP4 ADD DUP7 PUSH2 0x47C3 JUMP JUMPDEST PUSH2 0x511D PUSH1 0x20 DUP4 ADD DUP6 PUSH2 0x47C3 JUMP JUMPDEST PUSH2 0x512A PUSH1 0x40 DUP4 ADD DUP5 PUSH2 0x47C3 JUMP JUMPDEST SWAP5 SWAP4 POP POP POP POP JUMP JUMPDEST PUSH1 0x0 PUSH1 0x40 DUP3 ADD SWAP1 POP PUSH2 0x5147 PUSH1 0x0 DUP4 ADD DUP6 PUSH2 0x42BD JUMP JUMPDEST PUSH2 0x5154 PUSH1 0x20 DUP4 ADD DUP5 PUSH2 0x42BD JUMP JUMPDEST SWAP4 SWAP3 POP POP POP JUMP JUMPDEST PUSH32 0x4E487B7100000000000000000000000000000000000000000000000000000000 PUSH1 0x0 MSTORE PUSH1 0x32 PUSH1 0x4 MSTORE PUSH1 0x24 PUSH1 0x0 REVERT JUMPDEST PUSH32 0x4F776E61626C653A206E6577206F776E657220697320746865207A65726F2061 PUSH1 0x0 DUP3 ADD MSTORE PUSH32 0x6464726573730000000000000000000000000000000000000000000000000000 PUSH1 0x20 DUP3 ADD MSTORE POP JUMP JUMPDEST PUSH1 0x0 PUSH2 0x51E6 PUSH1 0x26 DUP4 PUSH2 0x48F6 JUMP JUMPDEST SWAP2 POP PUSH2 0x51F1 DUP3 PUSH2 0x518A JUMP JUMPDEST PUSH1 0x40 DUP3 ADD SWAP1 POP SWAP2 SWAP1 POP JUMP JUMPDEST PUSH1 0x0 PUSH1 0x20 DUP3 ADD SWAP1 POP DUP2 DUP2 SUB PUSH1 0x0 DUP4 ADD MSTORE PUSH2 0x5215 DUP2 PUSH2 0x51D9 JUMP JUMPDEST SWAP1 POP SWAP2 SWAP1 POP JUMP JUMPDEST PUSH1 0x0 PUSH2 0x5227 DUP3 PUSH2 0x4234 JUMP JUMPDEST SWAP2 POP PUSH2 0x5232 DUP4 PUSH2 0x4234 JUMP JUMPDEST SWAP3 POP DUP2 PUSH32 0xFFFFFFFFFFFFFFFFFFFFFFFFFFFFFFFFFFFFFFFFFFFFFFFFFFFFFFFFFFFFFFFF DIV DUP4 GT DUP3 ISZERO ISZERO AND ISZERO PUSH2 0x526B JUMPI PUSH2 0x526A PUSH2 0x4A5A JUMP JUMPDEST JUMPDEST DUP3 DUP3 MUL SWAP1 POP SWAP3 SWAP2 POP POP JUMP JUMPDEST PUSH1 0x0 PUSH2 0x5281 DUP3 PUSH2 0x4234 JUMP JUMPDEST SWAP2 POP PUSH2 0x528C DUP4 PUSH2 0x4234 JUMP JUMPDEST SWAP3 POP DUP3 PUSH32 0xFFFFFFFFFFFFFFFFFFFFFFFFFFFFFFFFFFFFFFFFFFFFFFFFFFFFFFFFFFFFFFFF SUB DUP3 GT ISZERO PUSH2 0x52C1 JUMPI PUSH2 0x52C0 PUSH2 0x4A5A JUMP JUMPDEST JUMPDEST DUP3 DUP3 ADD SWAP1 POP SWAP3 SWAP2 POP POP JUMP JUMPDEST PUSH1 0x0 DUP2 MLOAD SWAP1 POP SWAP2 SWAP1 POP JUMP JUMPDEST PUSH1 0x0 PUSH2 0x52E2 DUP3 PUSH2 0x52CC JUMP JUMPDEST PUSH2 0x52EC DUP2 DUP6 PUSH2 0x48F6 JUMP JUMPDEST SWAP4 POP PUSH2 0x52FC DUP2 DUP6 PUSH1 0x20 DUP7 ADD PUSH2 0x4D12 JUMP JUMPDEST PUSH2 0x5305 DUP2 PUSH2 0x43C9 JUMP JUMPDEST DUP5 ADD SWAP2 POP POP SWAP3 SWAP2 POP POP JUMP JUMPDEST PUSH1 0x0 PUSH1 0x20 DUP3 ADD SWAP1 POP DUP2 DUP2 SUB PUSH1 0x0 DUP4 ADD MSTORE PUSH2 0x532A DUP2 DUP5 PUSH2 0x52D7 JUMP JUMPDEST SWAP1 POP SWAP3 SWAP2 POP POP JUMP JUMPDEST PUSH1 0x0 PUSH1 0x40 DUP3 ADD SWAP1 POP DUP2 DUP2 SUB PUSH1 0x0 DUP4 ADD MSTORE PUSH2 0x534C DUP2 DUP6 PUSH2 0x52D7 JUMP JUMPDEST SWAP1 POP PUSH2 0x535B PUSH1 0x20 DUP4 ADD DUP5 PUSH2 0x42BD JUMP JUMPDEST SWAP4 SWAP3 POP POP POP JUMP JUMPDEST PUSH1 0x0 PUSH2 0x536D DUP3 PUSH2 0x4588 JUMP JUMPDEST SWAP2 POP PUSH2 0x5378 DUP4 PUSH2 0x4588 JUMP JUMPDEST SWAP3 POP DUP3 PUSH32 0x7FFFFFFFFFFFFFFFFFFFFFFFFFFFFFFFFFFFFFFFFFFFFFFFFFFFFFFFFFFFFFFF DIV DUP3 GT PUSH1 0x0 DUP5 SGT PUSH1 0x0 DUP5 SGT AND AND ISZERO PUSH2 0x53B7 JUMPI PUSH2 0x53B6 PUSH2 0x4A5A JUMP JUMPDEST JUMPDEST DUP2 PUSH32 0x8000000000000000000000000000000000000000000000000000000000000000 SDIV DUP4 SLT PUSH1 0x0 DUP5 SLT PUSH1 0x0 DUP5 SGT AND AND ISZERO PUSH2 0x53F4 JUMPI PUSH2 0x53F3 PUSH2 0x4A5A JUMP JUMPDEST JUMPDEST DUP3 PUSH32 0x8000000000000000000000000000000000000000000000000000000000000000 SDIV DUP3 SLT PUSH1 0x0 DUP5 SGT PUSH1 0x0 DUP5 SLT AND AND ISZERO PUSH2 0x5431 JUMPI PUSH2 0x5430 PUSH2 0x4A5A JUMP JUMPDEST JUMPDEST DUP3 PUSH32 0x7FFFFFFFFFFFFFFFFFFFFFFFFFFFFFFFFFFFFFFFFFFFFFFFFFFFFFFFFFFFFFFF SDIV DUP3 SLT PUSH1 0x0 DUP5 SLT PUSH1 0x0 DUP5 SLT AND AND ISZERO PUSH2 0x546E JUMPI PUSH2 0x546D PUSH2 0x4A5A JUMP JUMPDEST JUMPDEST DUP3 DUP3 MUL SWAP1 POP SWAP3 SWAP2 POP POP JUMP JUMPDEST PUSH1 0x0 DUP2 PUSH1 0x1 SHR SWAP1 POP SWAP2 SWAP1 POP JUMP JUMPDEST PUSH1 0x0 DUP1 DUP3 SWAP2 POP DUP4 SWAP1 POP JUMPDEST PUSH1 0x1 DUP6 GT ISZERO PUSH2 0x54D0 JUMPI DUP1 DUP7 DIV DUP2 GT ISZERO PUSH2 0x54AC JUMPI PUSH2 0x54AB PUSH2 0x4A5A JUMP JUMPDEST JUMPDEST PUSH1 0x1 DUP6 AND ISZERO PUSH2 0x54BB JUMPI DUP1 DUP3 MUL SWAP2 POP JUMPDEST DUP1 DUP2 MUL SWAP1 POP PUSH2 0x54C9 DUP6 PUSH2 0x5479 JUMP JUMPDEST SWAP5 POP PUSH2 0x5490 JUMP JUMPDEST SWAP5 POP SWAP5 SWAP3 POP POP POP JUMP JUMPDEST PUSH1 0x0 DUP3 PUSH1 0x0 DUP2 EQ PUSH2 0x54F1 JUMPI PUSH1 0x1 DUP2 EQ PUSH2 0x54FB JUMPI PUSH2 0x5504 JUMP JUMPDEST PUSH1 0x1 SWAP2 POP POP PUSH2 0x55C0 JUMP JUMPDEST DUP3 SWAP2 POP POP PUSH2 0x55C0 JUMP JUMPDEST POP DUP2 PUSH2 0x5513 JUMPI PUSH1 0x0 SWAP1 POP PUSH2 0x55C0 JUMP JUMPDEST PUSH1 0x1 SWAP1 POP PUSH1 0x0 DUP3 SGT PUSH1 0x1 DUP2 EQ PUSH2 0x5530 JUMPI PUSH1 0x0 DUP2 EQ PUSH2 0x5548 JUMPI PUSH2 0x555C JUMP JUMPDEST DUP3 DUP7 DIV DUP4 GT ISZERO PUSH2 0x5543 JUMPI PUSH2 0x5542 PUSH2 0x4A5A JUMP JUMPDEST JUMPDEST PUSH2 0x555C JUMP JUMPDEST DUP3 DUP7 SDIV DUP4 SLT ISZERO PUSH2 0x555B JUMPI PUSH2 0x555A PUSH2 0x4A5A JUMP JUMPDEST JUMPDEST JUMPDEST POP PUSH1 0x1 DUP4 AND ISZERO PUSH2 0x556A JUMPI DUP2 SWAP1 POP JUMPDEST DUP2 DUP3 MUL SWAP2 POP PUSH2 0x5578 DUP4 PUSH2 0x5479 JUMP JUMPDEST SWAP3 POP PUSH2 0x5586 DUP6 DUP5 DUP5 DUP5 PUSH2 0x5486 JUMP JUMPDEST SWAP3 POP SWAP1 POP DUP2 DUP6 DIV DUP2 GT PUSH1 0x0 DUP3 SGT AND ISZERO PUSH2 0x55A2 JUMPI PUSH2 0x55A1 PUSH2 0x4A5A JUMP JUMPDEST JUMPDEST DUP2 DUP5 SDIV DUP2 SLT PUSH1 0x0 DUP3 SLT AND ISZERO PUSH2 0x55BA JUMPI PUSH2 0x55B9 PUSH2 0x4A5A JUMP JUMPDEST JUMPDEST DUP2 DUP2 MUL SWAP1 POP JUMPDEST SWAP5 SWAP4 POP POP POP POP JUMP JUMPDEST PUSH1 0x0 PUSH1 0xFF DUP3 AND SWAP1 POP SWAP2 SWAP1 POP JUMP JUMPDEST PUSH1 0x0 PUSH2 0x55E0 DUP3 PUSH2 0x4588 JUMP JUMPDEST SWAP2 POP PUSH2 0x55EB DUP4 PUSH2 0x55C8 JUMP JUMPDEST SWAP3 POP PUSH2 0x5639 PUSH32 0x7FFFFFFFFFFFFFFFFFFFFFFFFFFFFFFFFFFFFFFFFFFFFFFFFFFFFFFFFFFFFFFF PUSH32 0x8000000000000000000000000000000000000000000000000000000000000000 DUP6 DUP6 PUSH2 0x54D9 JUMP JUMPDEST SWAP1 POP SWAP3 SWAP2 POP POP JUMP JUMPDEST PUSH1 0x0 PUSH2 0x564C DUP3 PUSH2 0x4588 JUMP JUMPDEST SWAP2 POP PUSH2 0x5657 DUP4 PUSH2 0x4588 JUMP JUMPDEST SWAP3 POP DUP3 PUSH32 0x8000000000000000000000000000000000000000000000000000000000000000 ADD DUP3 SLT PUSH1 0x0 DUP5 SLT ISZERO AND ISZERO PUSH2 0x5692 JUMPI PUSH2 0x5691 PUSH2 0x4A5A JUMP JUMPDEST JUMPDEST DUP3 PUSH32 0x7FFFFFFFFFFFFFFFFFFFFFFFFFFFFFFFFFFFFFFFFFFFFFFFFFFFFFFFFFFFFFFF ADD DUP3 SGT PUSH1 0x0 DUP5 SLT AND ISZERO PUSH2 0x56CA JUMPI PUSH2 0x56C9 PUSH2 0x4A5A JUMP JUMPDEST JUMPDEST DUP3 DUP3 SUB SWAP1 POP SWAP3 SWAP2 POP POP JUMP JUMPDEST PUSH32 0x436F6D706C6578206E756D626572000000000000000000000000000000000000 PUSH1 0x0 DUP3 ADD MSTORE POP JUMP JUMPDEST PUSH1 0x0 PUSH2 0x570B PUSH1 0xE DUP4 PUSH2 0x48F6 JUMP JUMPDEST SWAP2 POP PUSH2 0x5716 DUP3 PUSH2 0x56D5 JUMP JUMPDEST PUSH1 0x20 DUP3 ADD SWAP1 POP SWAP2 SWAP1 POP JUMP JUMPDEST PUSH1 0x0 PUSH1 0x20 DUP3 ADD SWAP1 POP DUP2 DUP2 SUB PUSH1 0x0 DUP4 ADD MSTORE PUSH2 0x573A DUP2 PUSH2 0x56FE JUMP JUMPDEST SWAP1 POP SWAP2 SWAP1 POP JUMP JUMPDEST PUSH1 0x0 PUSH2 0x574C DUP3 PUSH2 0x4588 JUMP JUMPDEST SWAP2 POP PUSH32 0x8000000000000000000000000000000000000000000000000000000000000000 DUP3 EQ ISZERO PUSH2 0x577F JUMPI PUSH2 0x577E PUSH2 0x4A5A JUMP JUMPDEST JUMPDEST DUP2 PUSH1 0x0 SUB SWAP1 POP SWAP2 SWAP1 POP JUMP JUMPDEST PUSH1 0x0 PUSH2 0x5795 DUP3 PUSH2 0x4588 JUMP JUMPDEST SWAP2 POP PUSH2 0x57A0 DUP4 PUSH2 0x4588 JUMP JUMPDEST SWAP3 POP DUP2 PUSH32 0x7FFFFFFFFFFFFFFFFFFFFFFFFFFFFFFFFFFFFFFFFFFFFFFFFFFFFFFFFFFFFFFF SUB DUP4 SGT PUSH1 0x0 DUP4 SLT ISZERO AND ISZERO PUSH2 0x57DB JUMPI PUSH2 0x57DA PUSH2 0x4A5A JUMP JUMPDEST JUMPDEST DUP2 PUSH32 0x8000000000000000000000000000000000000000000000000000000000000000 SUB DUP4 SLT PUSH1 0x0 DUP4 SLT AND ISZERO PUSH2 0x5813 JUMPI PUSH2 0x5812 PUSH2 0x4A5A JUMP JUMPDEST JUMPDEST DUP3 DUP3 ADD SWAP1 POP SWAP3 SWAP2 POP POP JUMP JUMPDEST PUSH1 0x0 PUSH2 0x5829 DUP3 PUSH2 0x4588 JUMP JUMPDEST SWAP2 POP PUSH2 0x5834 DUP4 PUSH2 0x4588 JUMP JUMPDEST SWAP3 POP DUP3 PUSH2 0x5844 JUMPI PUSH2 0x5843 PUSH2 0x4A2B JUMP JUMPDEST JUMPDEST PUSH1 0x1 PUSH1 0x0 SUB DUP4 EQ PUSH32 0x8000000000000000000000000000000000000000000000000000000000000000 DUP4 EQ AND ISZERO PUSH2 0x587D JUMPI PUSH2 0x587C PUSH2 0x4A5A JUMP JUMPDEST JUMPDEST DUP3 DUP3 SDIV SWAP1 POP SWAP3 SWAP2 POP POP JUMP JUMPDEST PUSH1 0x0 PUSH1 0x40 DUP3 ADD SWAP1 POP DUP2 DUP2 SUB PUSH1 0x0 DUP4 ADD MSTORE PUSH2 0x58A2 DUP2 DUP6 PUSH2 0x52D7 JUMP JUMPDEST SWAP1 POP PUSH2 0x58B1 PUSH1 0x20 DUP4 ADD DUP5 PUSH2 0x47C3 JUMP JUMPDEST SWAP4 SWAP3 POP POP POP JUMP JUMPDEST PUSH32 0x57726F6E6720696E707574206F72646572000000000000000000000000000000 PUSH1 0x0 DUP3 ADD MSTORE POP JUMP JUMPDEST PUSH1 0x0 PUSH2 0x58EE PUSH1 0x11 DUP4 PUSH2 0x48F6 JUMP JUMPDEST SWAP2 POP PUSH2 0x58F9 DUP3 PUSH2 0x58B8 JUMP JUMPDEST PUSH1 0x20 DUP3 ADD SWAP1 POP SWAP2 SWAP1 POP JUMP JUMPDEST PUSH1 0x0 PUSH1 0x20 DUP3 ADD SWAP1 POP DUP2 DUP2 SUB PUSH1 0x0 DUP4 ADD MSTORE PUSH2 0x591D DUP2 PUSH2 0x58E1 JUMP JUMPDEST SWAP1 POP SWAP2 SWAP1 POP JUMP JUMPDEST PUSH32 0x4E487B7100000000000000000000000000000000000000000000000000000000 PUSH1 0x0 MSTORE PUSH1 0x1 PUSH1 0x4 MSTORE PUSH1 0x24 PUSH1 0x0 REVERT JUMPDEST PUSH32 0x4F776E61626C653A2063616C6C6572206973206E6F7420746865206F776E6572 PUSH1 0x0 DUP3 ADD MSTORE POP JUMP JUMPDEST PUSH1 0x0 PUSH2 0x5989 PUSH1 0x20 DUP4 PUSH2 0x48F6 JUMP JUMPDEST SWAP2 POP PUSH2 0x5994 DUP3 PUSH2 0x5953 JUMP JUMPDEST PUSH1 0x20 DUP3 ADD SWAP1 POP SWAP2 SWAP1 POP JUMP JUMPDEST PUSH1 0x0 PUSH1 0x20 DUP3 ADD SWAP1 POP DUP2 DUP2 SUB PUSH1 0x0 DUP4 ADD MSTORE PUSH2 0x59B8 DUP2 PUSH2 0x597C JUMP JUMPDEST SWAP1 POP SWAP2 SWAP1 POP JUMP JUMPDEST PUSH32 0x53616D6520706169722061646472657373000000000000000000000000000000 PUSH1 0x0 DUP3 ADD MSTORE POP JUMP JUMPDEST PUSH1 0x0 PUSH2 0x59F5 PUSH1 0x11 DUP4 PUSH2 0x48F6 JUMP JUMPDEST SWAP2 POP PUSH2 0x5A00 DUP3 PUSH2 0x59BF JUMP JUMPDEST PUSH1 0x20 DUP3 ADD SWAP1 POP SWAP2 SWAP1 POP JUMP JUMPDEST PUSH1 0x0 PUSH1 0x20 DUP3 ADD SWAP1 POP DUP2 DUP2 SUB PUSH1 0x0 DUP4 ADD MSTORE PUSH2 0x5A24 DUP2 PUSH2 0x59E8 JUMP JUMPDEST SWAP1 POP SWAP2 SWAP1 POP JUMP JUMPDEST PUSH32 0x4E6F6E207374616E6461726420756E697377617020414D4D2070616972000000 PUSH1 0x0 DUP3 ADD MSTORE POP JUMP JUMPDEST PUSH1 0x0 PUSH2 0x5A61 PUSH1 0x1D DUP4 PUSH2 0x48F6 JUMP JUMPDEST SWAP2 POP PUSH2 0x5A6C DUP3 PUSH2 0x5A2B JUMP JUMPDEST PUSH1 0x20 DUP3 ADD SWAP1 POP SWAP2 SWAP1 POP JUMP JUMPDEST PUSH1 0x0 PUSH1 0x20 DUP3 ADD SWAP1 POP DUP2 DUP2 SUB PUSH1 0x0 DUP4 ADD MSTORE PUSH2 0x5A90 DUP2 PUSH2 0x5A54 JUMP JUMPDEST SWAP1 POP SWAP2 SWAP1 POP JUMP JUMPDEST PUSH32 0x526571756972652073616D6520746F6B656E2070616972000000000000000000 PUSH1 0x0 DUP3 ADD MSTORE POP JUMP JUMPDEST PUSH1 0x0 PUSH2 0x5ACD PUSH1 0x17 DUP4 PUSH2 0x48F6 JUMP JUMPDEST SWAP2 POP PUSH2 0x5AD8 DUP3 PUSH2 0x5A97 JUMP JUMPDEST PUSH1 0x20 DUP3 ADD SWAP1 POP SWAP2 SWAP1 POP JUMP JUMPDEST PUSH1 0x0 PUSH1 0x20 DUP3 ADD SWAP1 POP DUP2 DUP2 SUB PUSH1 0x0 DUP4 ADD MSTORE PUSH2 0x5AFC DUP2 PUSH2 0x5AC0 JUMP JUMPDEST SWAP1 POP SWAP2 SWAP1 POP JUMP JUMPDEST PUSH32 0x4E6F206261736520746F6B656E20696E20706169720000000000000000000000 PUSH1 0x0 DUP3 ADD MSTORE POP JUMP JUMPDEST PUSH1 0x0 PUSH2 0x5B39 PUSH1 0x15 DUP4 PUSH2 0x48F6 JUMP JUMPDEST SWAP2 POP PUSH2 0x5B44 DUP3 PUSH2 0x5B03 JUMP JUMPDEST PUSH1 0x20 DUP3 ADD SWAP1 POP SWAP2 SWAP1 POP JUMP JUMPDEST PUSH1 0x0 PUSH1 0x20 DUP3 ADD SWAP1 POP DUP2 DUP2 SUB PUSH1 0x0 DUP4 ADD MSTORE PUSH2 0x5B68 DUP2 PUSH2 0x5B2C JUMP JUMPDEST SWAP1 POP SWAP2 SWAP1 POP JUMP JUMPDEST PUSH1 0x0 PUSH1 0x40 DUP3 ADD SWAP1 POP DUP2 DUP2 SUB PUSH1 0x0 DUP4 ADD MSTORE PUSH2 0x5B89 DUP2 DUP6 PUSH2 0x52D7 JUMP JUMPDEST SWAP1 POP PUSH2 0x5B98 PUSH1 0x20 DUP4 ADD DUP5 PUSH2 0x4682 JUMP JUMPDEST SWAP4 SWAP3 POP POP POP JUMP JUMPDEST PUSH1 0x0 PUSH14 0xFFFFFFFFFFFFFFFFFFFFFFFFFFFF DUP3 AND SWAP1 POP SWAP2 SWAP1 POP JUMP JUMPDEST PUSH2 0x5BC2 DUP2 PUSH2 0x5B9F JUMP JUMPDEST DUP2 EQ PUSH2 0x5BCD JUMPI PUSH1 0x0 DUP1 REVERT JUMPDEST POP JUMP JUMPDEST PUSH1 0x0 DUP2 MLOAD SWAP1 POP PUSH2 0x5BDF DUP2 PUSH2 0x5BB9 JUMP JUMPDEST SWAP3 SWAP2 POP POP JUMP JUMPDEST PUSH1 0x0 PUSH4 0xFFFFFFFF DUP3 AND SWAP1 POP SWAP2 SWAP1 POP JUMP JUMPDEST PUSH2 0x5BFE DUP2 PUSH2 0x5BE5 JUMP JUMPDEST DUP2 EQ PUSH2 0x5C09 JUMPI PUSH1 0x0 DUP1 REVERT JUMPDEST POP JUMP JUMPDEST PUSH1 0x0 DUP2 MLOAD SWAP1 POP PUSH2 0x5C1B DUP2 PUSH2 0x5BF5 JUMP JUMPDEST SWAP3 SWAP2 POP POP JUMP JUMPDEST PUSH1 0x0 DUP1 PUSH1 0x0 PUSH1 0x60 DUP5 DUP7 SUB SLT ISZERO PUSH2 0x5C3A JUMPI PUSH2 0x5C39 PUSH2 0x422A JUMP JUMPDEST JUMPDEST PUSH1 0x0 PUSH2 0x5C48 DUP7 DUP3 DUP8 ADD PUSH2 0x5BD0 JUMP JUMPDEST SWAP4 POP POP PUSH1 0x20 PUSH2 0x5C59 DUP7 DUP3 DUP8 ADD PUSH2 0x5BD0 JUMP JUMPDEST SWAP3 POP POP PUSH1 0x40 PUSH2 0x5C6A DUP7 DUP3 DUP8 ADD PUSH2 0x5C0C JUMP JUMPDEST SWAP2 POP POP SWAP3 POP SWAP3 POP SWAP3 JUMP JUMPDEST PUSH1 0x0 PUSH1 0x80 DUP3 ADD SWAP1 POP DUP2 DUP2 SUB PUSH1 0x0 DUP4 ADD MSTORE PUSH2 0x5C8E DUP2 DUP8 PUSH2 0x52D7 JUMP JUMPDEST SWAP1 POP PUSH2 0x5C9D PUSH1 0x20 DUP4 ADD DUP7 PUSH2 0x42BD JUMP JUMPDEST DUP2 DUP2 SUB PUSH1 0x40 DUP4 ADD MSTORE PUSH2 0x5CAF DUP2 DUP6 PUSH2 0x52D7 JUMP JUMPDEST SWAP1 POP PUSH2 0x5CBE PUSH1 0x60 DUP4 ADD DUP5 PUSH2 0x42BD JUMP JUMPDEST SWAP6 SWAP5 POP POP POP POP POP JUMP JUMPDEST PUSH32 0x5361666545524332303A204552433230206F7065726174696F6E20646964206E PUSH1 0x0 DUP3 ADD MSTORE PUSH32 0x6F74207375636365656400000000000000000000000000000000000000000000 PUSH1 0x20 DUP3 ADD MSTORE POP JUMP JUMPDEST PUSH1 0x0 PUSH2 0x5D23 PUSH1 0x2A DUP4 PUSH2 0x48F6 JUMP JUMPDEST SWAP2 POP PUSH2 0x5D2E DUP3 PUSH2 0x5CC7 JUMP JUMPDEST PUSH1 0x40 DUP3 ADD SWAP1 POP SWAP2 SWAP1 POP JUMP JUMPDEST PUSH1 0x0 PUSH1 0x20 DUP3 ADD SWAP1 POP DUP2 DUP2 SUB PUSH1 0x0 DUP4 ADD MSTORE PUSH2 0x5D52 DUP2 PUSH2 0x5D16 JUMP JUMPDEST SWAP1 POP SWAP2 SWAP1 POP JUMP JUMPDEST PUSH1 0x0 PUSH1 0x60 DUP3 ADD SWAP1 POP DUP2 DUP2 SUB PUSH1 0x0 DUP4 ADD MSTORE PUSH2 0x5D73 DUP2 DUP7 PUSH2 0x52D7 JUMP JUMPDEST SWAP1 POP PUSH2 0x5D82 PUSH1 0x20 DUP4 ADD DUP6 PUSH2 0x47C3 JUMP JUMPDEST PUSH2 0x5D8F PUSH1 0x40 DUP4 ADD DUP5 PUSH2 0x47C3 JUMP JUMPDEST SWAP5 SWAP4 POP POP POP POP JUMP JUMPDEST PUSH1 0x0 PUSH1 0x60 DUP3 ADD SWAP1 POP DUP2 DUP2 SUB PUSH1 0x0 DUP4 ADD MSTORE PUSH2 0x5DB1 DUP2 DUP7 PUSH2 0x52D7 JUMP JUMPDEST SWAP1 POP PUSH2 0x5DC0 PUSH1 0x20 DUP4 ADD DUP6 PUSH2 0x42BD JUMP JUMPDEST PUSH2 0x5DCD PUSH1 0x40 DUP4 ADD DUP5 PUSH2 0x42BD JUMP JUMPDEST SWAP5 SWAP4 POP POP POP POP JUMP JUMPDEST PUSH32 0x4E487B7100000000000000000000000000000000000000000000000000000000 PUSH1 0x0 MSTORE PUSH1 0x31 PUSH1 0x4 MSTORE PUSH1 0x24 PUSH1 0x0 REVERT JUMPDEST PUSH32 0x536166654D6174683A206D756C7469706C69636174696F6E206F766572666C6F PUSH1 0x0 DUP3 ADD MSTORE PUSH32 0x7700000000000000000000000000000000000000000000000000000000000000 PUSH1 0x20 DUP3 ADD MSTORE POP JUMP JUMPDEST PUSH1 0x0 PUSH2 0x5E60 PUSH1 0x21 DUP4 PUSH2 0x48F6 JUMP JUMPDEST SWAP2 POP PUSH2 0x5E6B DUP3 PUSH2 0x5E04 JUMP JUMPDEST PUSH1 0x40 DUP3 ADD SWAP1 POP SWAP2 SWAP1 POP JUMP JUMPDEST PUSH1 0x0 PUSH1 0x20 DUP3 ADD SWAP1 POP DUP2 DUP2 SUB PUSH1 0x0 DUP4 ADD MSTORE PUSH2 0x5E8F DUP2 PUSH2 0x5E53 JUMP JUMPDEST SWAP1 POP SWAP2 SWAP1 POP JUMP JUMPDEST PUSH32 0x416464726573733A20696E73756666696369656E742062616C616E636520666F PUSH1 0x0 DUP3 ADD MSTORE PUSH32 0x722063616C6C0000000000000000000000000000000000000000000000000000 PUSH1 0x20 DUP3 ADD MSTORE POP JUMP JUMPDEST PUSH1 0x0 PUSH2 0x5EF2 PUSH1 0x26 DUP4 PUSH2 0x48F6 JUMP JUMPDEST SWAP2 POP PUSH2 0x5EFD DUP3 PUSH2 0x5E96 JUMP JUMPDEST PUSH1 0x40 DUP3 ADD SWAP1 POP SWAP2 SWAP1 POP JUMP JUMPDEST PUSH1 0x0 PUSH1 0x20 DUP3 ADD SWAP1 POP DUP2 DUP2 SUB PUSH1 0x0 DUP4 ADD MSTORE PUSH2 0x5F21 DUP2 PUSH2 0x5EE5 JUMP JUMPDEST SWAP1 POP SWAP2 SWAP1 POP JUMP JUMPDEST PUSH1 0x0 DUP2 SWAP1 POP SWAP3 SWAP2 POP POP JUMP JUMPDEST PUSH1 0x0 PUSH2 0x5F3E DUP3 PUSH2 0x4CF6 JUMP JUMPDEST PUSH2 0x5F48 DUP2 DUP6 PUSH2 0x5F28 JUMP JUMPDEST SWAP4 POP PUSH2 0x5F58 DUP2 DUP6 PUSH1 0x20 DUP7 ADD PUSH2 0x4D12 JUMP JUMPDEST DUP1 DUP5 ADD SWAP2 POP POP SWAP3 SWAP2 POP POP JUMP JUMPDEST PUSH1 0x0 PUSH2 0x5F70 DUP3 DUP5 PUSH2 0x5F33 JUMP JUMPDEST SWAP2 POP DUP2 SWAP1 POP SWAP3 SWAP2 POP POP JUMP JUMPDEST PUSH32 0x416464726573733A2063616C6C20746F206E6F6E2D636F6E7472616374000000 PUSH1 0x0 DUP3 ADD MSTORE POP JUMP JUMPDEST PUSH1 0x0 PUSH2 0x5FB1 PUSH1 0x1D DUP4 PUSH2 0x48F6 JUMP JUMPDEST SWAP2 POP PUSH2 0x5FBC DUP3 PUSH2 0x5F7B JUMP JUMPDEST PUSH1 0x20 DUP3 ADD SWAP1 POP SWAP2 SWAP1 POP JUMP JUMPDEST PUSH1 0x0 PUSH1 0x20 DUP3 ADD SWAP1 POP DUP2 DUP2 SUB PUSH1 0x0 DUP4 ADD MSTORE PUSH2 0x5FE0 DUP2 PUSH2 0x5FA4 JUMP JUMPDEST SWAP1 POP SWAP2 SWAP1 POP JUMP JUMPDEST PUSH32 0x4E487B7100000000000000000000000000000000000000000000000000000000 PUSH1 0x0 MSTORE PUSH1 0x51 PUSH1 0x4 MSTORE PUSH1 0x24 PUSH1 0x0 REVERT INVALID PUSH2 0x6674 PUSH6 0x72207061796F PUSH7 0x66206261736574 PUSH16 0x6B656E2042616C616E63653D3D3E7A7A PUSH27 0x7A7A7A7A7A7A7A7A7A7A7A7A7A7A7A7A7A7A7A7A7A7A7A7A7A7A7A PUSH27 0x7A7A7A7A7A7A7A7A7A3D3D73656C6C20626F72726F776564207175 PUSH16 0x746520746F6B656E206F6E2068696768 PUSH6 0x722070726963 PUSH6 0x3D3D3D3D3E3E KECCAK256 PUSH27 0x7A7A7A7A7A7A7A7A7A7A7A7A7A7A7A7A7A7A7A7A7A7A7A7A7A7A7A PUSH27 0x7A7A7A7A7A7A7A7A7A7A3D3E2073626F72726F772071756F746520 PUSH21 0x6F6B656E2066726F6D20636865617020706F6F6C3D RETURNDATASIZE RETURNDATACOPY KECCAK256 PUSH27 0x7A7A7A7A7A7A7A7A7A7A7A7A7A7A7A7A7A7A7A7A7A7A7A7A7A7A7A PUSH27 0x7A7A7A7A7A7A7A7A20746F6B656E20A2646970667358221220522D PUSH1 0x46 PUSH18 0xA3C61C97DF10380293FAE10B20B43D249DDD PUSH12 0x7E3D6AF1E44327BE64736F6C PUSH4 0x4300080A STOP CALLER "
		},
		"gasEstimates": {
			"creation": {
				"codeDepositCost": "4980000",
				"executionCost": "infinite",
				"totalCost": "infinite"
			},
			"external": {
				"_calcBorrowAmount((uint256,uint256,uint256,uint256))": "infinite",
				"_calcSolutionForQuadratic(int256,int256,int256)": "infinite",
				"_sqrt(uint256)": "infinite",
				"aaveFlashLoan()": "infinite",
				"addBaseToken(address)": "infinite",
				"baseTokensContains(address)": "infinite",
				"flashArbitrageAave(address,address)": "infinite",
				"getAmountIn(uint256,uint256,uint256)": "infinite",
				"getAmountOut(uint256,uint256,uint256)": "infinite",
				"getBaseTokens()": "infinite",
				"getProfit(address,address)": "infinite",
				"owner()": "2544",
				"pancakeCall(address,uint256,uint256,bytes)": "infinite",
				"removeBaseToken(address)": "infinite",
				"renounceOwnership()": "30509",
				"transferOwnership(address)": "30857",
				"uniswapV2Call(address,uint256,uint256,bytes)": "infinite",
				"withdraw()": "infinite"
			}
		},
		"methodIdentifiers": {
			"_calcBorrowAmount((uint256,uint256,uint256,uint256))": "5e3e73ce",
			"_calcSolutionForQuadratic(int256,int256,int256)": "17c1e4dd",
			"_sqrt(uint256)": "6a263f02",
			"aaveFlashLoan()": "07170832",
			"addBaseToken(address)": "83e280d9",
			"baseTokensContains(address)": "21d09426",
			"flashArbitrageAave(address,address)": "9c79b0f6",
			"getAmountIn(uint256,uint256,uint256)": "85f8c259",
			"getAmountOut(uint256,uint256,uint256)": "054d50d4",
			"getBaseTokens()": "bed64c2f",
			"getProfit(address,address)": "759eee10",
			"owner()": "8da5cb5b",
			"pancakeCall(address,uint256,uint256,bytes)": "84800812",
			"removeBaseToken(address)": "bbd1e122",
			"renounceOwnership()": "715018a6",
			"transferOwnership(address)": "f2fde38b",
			"uniswapV2Call(address,uint256,uint256,bytes)": "10d1e85c",
			"withdraw()": "3ccfd60b"
		}
	},
	"abi": [
		{
			"inputs": [],
			"stateMutability": "nonpayable",
			"type": "constructor"
		},
		{
			"anonymous": false,
			"inputs": [
				{
					"indexed": false,
					"internalType": "address",
					"name": "BaseToken",
					"type": "address"
				},
				{
					"indexed": false,
					"internalType": "address",
					"name": "Pair1",
					"type": "address"
				},
				{
					"indexed": false,
					"internalType": "address",
					"name": "Pair2",
					"type": "address"
				}
			],
			"name": "ArbitrageDataAddr",
			"type": "event"
		},
		{
			"anonymous": false,
			"inputs": [
				{
					"indexed": false,
					"internalType": "uint256",
					"name": "BorrowedAmount",
					"type": "uint256"
				},
				{
					"indexed": false,
					"internalType": "uint256",
					"name": "Profit",
					"type": "uint256"
				}
			],
			"name": "ArbitrageDataValue",
			"type": "event"
		},
		{
			"anonymous": false,
			"inputs": [
				{
					"indexed": true,
					"internalType": "address",
					"name": "token",
					"type": "address"
				}
			],
			"name": "BaseTokenAdded",
			"type": "event"
		},
		{
			"anonymous": false,
			"inputs": [
				{
					"indexed": true,
					"internalType": "address",
					"name": "token",
					"type": "address"
				}
			],
			"name": "BaseTokenRemoved",
			"type": "event"
		},
		{
			"anonymous": false,
			"inputs": [
				{
					"indexed": true,
					"internalType": "address",
					"name": "previousOwner",
					"type": "address"
				},
				{
					"indexed": true,
					"internalType": "address",
					"name": "newOwner",
					"type": "address"
				}
			],
			"name": "OwnershipTransferred",
			"type": "event"
		},
		{
			"anonymous": false,
			"inputs": [
				{
					"indexed": true,
					"internalType": "address",
					"name": "to",
					"type": "address"
				},
				{
					"indexed": true,
					"internalType": "uint256",
					"name": "value",
					"type": "uint256"
				}
			],
			"name": "Withdrawn",
			"type": "event"
		},
		{
			"inputs": [
				{
					"components": [
						{
							"internalType": "uint256",
							"name": "a1",
							"type": "uint256"
						},
						{
							"internalType": "uint256",
							"name": "b1",
							"type": "uint256"
						},
						{
							"internalType": "uint256",
							"name": "a2",
							"type": "uint256"
						},
						{
							"internalType": "uint256",
							"name": "b2",
							"type": "uint256"
						}
					],
					"internalType": "struct OrderedReserves",
					"name": "reserves",
					"type": "tuple"
				}
			],
			"name": "_calcBorrowAmount",
			"outputs": [
				{
					"internalType": "uint256",
					"name": "",
					"type": "uint256"
				}
			],
			"stateMutability": "pure",
			"type": "function"
		},
		{
			"inputs": [
				{
					"internalType": "int256",
					"name": "a",
					"type": "int256"
				},
				{
					"internalType": "int256",
					"name": "b",
					"type": "int256"
				},
				{
					"internalType": "int256",
					"name": "c",
					"type": "int256"
				}
			],
			"name": "_calcSolutionForQuadratic",
			"outputs": [
				{
					"internalType": "int256",
					"name": "",
					"type": "int256"
				},
				{
					"internalType": "int256",
					"name": "",
					"type": "int256"
				}
			],
			"stateMutability": "pure",
			"type": "function"
		},
		{
			"inputs": [
				{
					"internalType": "uint256",
					"name": "n",
					"type": "uint256"
				}
			],
			"name": "_sqrt",
			"outputs": [
				{
					"internalType": "uint256",
					"name": "",
					"type": "uint256"
				}
			],
			"stateMutability": "pure",
			"type": "function"
		},
		{
			"inputs": [],
			"name": "aaveFlashLoan",
			"outputs": [
				{
					"internalType": "contract AaveFlashLoan",
					"name": "",
					"type": "address"
				}
			],
			"stateMutability": "view",
			"type": "function"
		},
		{
			"inputs": [
				{
					"internalType": "address",
					"name": "token",
					"type": "address"
				}
			],
			"name": "addBaseToken",
			"outputs": [],
			"stateMutability": "nonpayable",
			"type": "function"
		},
		{
			"inputs": [
				{
					"internalType": "address",
					"name": "token",
					"type": "address"
				}
			],
			"name": "baseTokensContains",
			"outputs": [
				{
					"internalType": "bool",
					"name": "",
					"type": "bool"
				}
			],
			"stateMutability": "view",
			"type": "function"
		},
		{
			"inputs": [
				{
					"internalType": "address",
					"name": "pool0",
					"type": "address"
				},
				{
					"internalType": "address",
					"name": "pool1",
					"type": "address"
				}
			],
			"name": "flashArbitrageAave",
			"outputs": [],
			"stateMutability": "nonpayable",
			"type": "function"
		},
		{
			"inputs": [
				{
					"internalType": "uint256",
					"name": "amountOut",
					"type": "uint256"
				},
				{
					"internalType": "uint256",
					"name": "reserveIn",
					"type": "uint256"
				},
				{
					"internalType": "uint256",
					"name": "reserveOut",
					"type": "uint256"
				}
			],
			"name": "getAmountIn",
			"outputs": [
				{
					"internalType": "uint256",
					"name": "amountIn",
					"type": "uint256"
				}
			],
			"stateMutability": "pure",
			"type": "function"
		},
		{
			"inputs": [
				{
					"internalType": "uint256",
					"name": "amountIn",
					"type": "uint256"
				},
				{
					"internalType": "uint256",
					"name": "reserveIn",
					"type": "uint256"
				},
				{
					"internalType": "uint256",
					"name": "reserveOut",
					"type": "uint256"
				}
			],
			"name": "getAmountOut",
			"outputs": [
				{
					"internalType": "uint256",
					"name": "amountOut",
					"type": "uint256"
				}
			],
			"stateMutability": "pure",
			"type": "function"
		},
		{
			"inputs": [],
			"name": "getBaseTokens",
			"outputs": [
				{
					"internalType": "address[]",
					"name": "tokens",
					"type": "address[]"
				}
			],
			"stateMutability": "view",
			"type": "function"
		},
		{
			"inputs": [
				{
					"internalType": "address",
					"name": "pool0",
					"type": "address"
				},
				{
					"internalType": "address",
					"name": "pool1",
					"type": "address"
				}
			],
			"name": "getProfit",
			"outputs": [
				{
					"internalType": "uint256",
					"name": "profit",
					"type": "uint256"
				},
				{
					"internalType": "address",
					"name": "baseToken",
					"type": "address"
				}
			],
			"stateMutability": "view",
			"type": "function"
		},
		{
			"inputs": [],
			"name": "owner",
			"outputs": [
				{
					"internalType": "address",
					"name": "",
					"type": "address"
				}
			],
			"stateMutability": "view",
			"type": "function"
		},
		{
			"inputs": [
				{
					"internalType": "address",
					"name": "sender",
					"type": "address"
				},
				{
					"internalType": "uint256",
					"name": "amount0",
					"type": "uint256"
				},
				{
					"internalType": "uint256",
					"name": "amount1",
					"type": "uint256"
				},
				{
					"internalType": "bytes",
					"name": "data",
					"type": "bytes"
				}
			],
			"name": "pancakeCall",
			"outputs": [],
			"stateMutability": "nonpayable",
			"type": "function"
		},
		{
			"inputs": [
				{
					"internalType": "address",
					"name": "token",
					"type": "address"
				}
			],
			"name": "removeBaseToken",
			"outputs": [],
			"stateMutability": "nonpayable",
			"type": "function"
		},
		{
			"inputs": [],
			"name": "renounceOwnership",
			"outputs": [],
			"stateMutability": "nonpayable",
			"type": "function"
		},
		{
			"inputs": [
				{
					"internalType": "address",
					"name": "newOwner",
					"type": "address"
				}
			],
			"name": "transferOwnership",
			"outputs": [],
			"stateMutability": "nonpayable",
			"type": "function"
		},
		{
			"inputs": [
				{
					"internalType": "address",
					"name": "sender",
					"type": "address"
				},
				{
					"internalType": "uint256",
					"name": "amount0",
					"type": "uint256"
				},
				{
					"internalType": "uint256",
					"name": "amount1",
					"type": "uint256"
				},
				{
					"internalType": "bytes",
					"name": "data",
					"type": "bytes"
				}
			],
			"name": "uniswapV2Call",
			"outputs": [],
			"stateMutability": "nonpayable",
			"type": "function"
		},
		{
			"inputs": [],
			"name": "withdraw",
			"outputs": [],
			"stateMutability": "nonpayable",
			"type": "function"
		},
		{
			"stateMutability": "payable",
			"type": "receive"
		}
	]
}