{
  "_format": "hh-sol-artifact-1",
  "contractName": "SelfdestructTransfer",
  "sourceName": "contracts/contractsAave/mocks/helpers/SelfDestructTransfer.sol",
  "abi": [
    {
      "inputs": [
        {
          "internalType": "address payable",
          "name": "to",
          "type": "address"
        }
      ],
      "name": "destroyAndTransfer",
      "outputs": [],
      "stateMutability": "payable",
      "type": "function"
    }
  ],
  "bytecode": "0x6080604052348015600f57600080fd5b5060a28061001e6000396000f3fe608060405260043610601c5760003560e01c8063785e07b3146021575b600080fd5b6030602c366004603e565b6032565b005b806001600160a01b0316ff5b600060208284031215604f57600080fd5b81356001600160a01b0381168114606557600080fd5b939250505056fea26469706673582212200a55c2b5ab9022375c02d0464b7a51d277f0ff24cacd3efe79b570490a9b401b64736f6c634300080a0033",
  "linkReferences": {},
  "deployedLinkReferences": {}
}