{
  "_format": "hh-sol-artifact-1",
  "contractName": "MockPeripheryContractV1",
  "sourceName": "contracts/contractsAave/mocks/helpers/MockPeripheryContract.sol",
  "abi": [
    {
      "inputs": [],
      "name": "getManager",
      "outputs": [
        {
          "internalType": "address",
          "name": "",
          "type": "address"
        }
      ],
      "stateMutability": "view",
      "type": "function"
    },
    {
      "inputs": [
        {
          "internalType": "address",
          "name": "manager",
          "type": "address"
        },
        {
          "internalType": "uint256",
          "name": "value",
          "type": "uint256"
        }
      ],
      "name": "initialize",
      "outputs": [],
      "stateMutability": "nonpayable",
      "type": "function"
    },
    {
      "inputs": [
        {
          "internalType": "address",
          "name": "newManager",
          "type": "address"
        }
      ],
      "name": "setManager",
      "outputs": [],
      "stateMutability": "nonpayable",
      "type": "function"
    }
  ],
  "bytecode": "0x608060405234801561001057600080fd5b50610169806100206000396000f3fe608060405234801561001057600080fd5b50600436106100415760003560e01c8063cd6dc68714610046578063d0ebdbe71461007c578063d5009584146100ac575b600080fd5b61007a6100543660046100e7565b600080546001600160a01b0319166001600160a01b039390931692909217909155600155565b005b61007a61008a366004610111565b600080546001600160a01b0319166001600160a01b0392909216919091179055565b600054604080516001600160a01b039092168252519081900360200190f35b80356001600160a01b03811681146100e257600080fd5b919050565b600080604083850312156100fa57600080fd5b610103836100cb565b946020939093013593505050565b60006020828403121561012357600080fd5b61012c826100cb565b939250505056fea26469706673582212209d0685d7cf3890b0fa7dc651f5d5d5ade0c63b26121e6bd9f7acdd3b97c3aabd64736f6c634300080a0033",
  "linkReferences": {},
  "deployedLinkReferences": {}
}