{
  "_format": "hh-sol-artifact-1",
  "contractName": "DefaultReserveInterestRateStrategy",
  "sourceName": "contracts/contractsAave/protocol/pool/DefaultReserveInterestRateStrategy.sol",
  "abi": [
    {
      "inputs": [
        {
          "internalType": "contract IPoolAddressesProvider",
          "name": "provider",
          "type": "address"
        },
        {
          "internalType": "uint256",
          "name": "optimalUsageRatio",
          "type": "uint256"
        },
        {
          "internalType": "uint256",
          "name": "baseVariableBorrowRate",
          "type": "uint256"
        },
        {
          "internalType": "uint256",
          "name": "variableRateSlope1",
          "type": "uint256"
        },
        {
          "internalType": "uint256",
          "name": "variableRateSlope2",
          "type": "uint256"
        },
        {
          "internalType": "uint256",
          "name": "stableRateSlope1",
          "type": "uint256"
        },
        {
          "internalType": "uint256",
          "name": "stableRateSlope2",
          "type": "uint256"
        },
        {
          "internalType": "uint256",
          "name": "baseStableRateOffset",
          "type": "uint256"
        },
        {
          "internalType": "uint256",
          "name": "stableRateExcessOffset",
          "type": "uint256"
        },
        {
          "internalType": "uint256",
          "name": "optimalStableToTotalDebtRatio",
          "type": "uint256"
        }
      ],
      "stateMutability": "nonpayable",
      "type": "constructor"
    },
    {
      "inputs": [],
      "name": "ADDRESSES_PROVIDER",
      "outputs": [
        {
          "internalType": "contract IPoolAddressesProvider",
          "name": "",
          "type": "address"
        }
      ],
      "stateMutability": "view",
      "type": "function"
    },
    {
      "inputs": [],
      "name": "MAX_EXCESS_STABLE_TO_TOTAL_DEBT_RATIO",
      "outputs": [
        {
          "internalType": "uint256",
          "name": "",
          "type": "uint256"
        }
      ],
      "stateMutability": "view",
      "type": "function"
    },
    {
      "inputs": [],
      "name": "MAX_EXCESS_USAGE_RATIO",
      "outputs": [
        {
          "internalType": "uint256",
          "name": "",
          "type": "uint256"
        }
      ],
      "stateMutability": "view",
      "type": "function"
    },
    {
      "inputs": [],
      "name": "OPTIMAL_STABLE_TO_TOTAL_DEBT_RATIO",
      "outputs": [
        {
          "internalType": "uint256",
          "name": "",
          "type": "uint256"
        }
      ],
      "stateMutability": "view",
      "type": "function"
    },
    {
      "inputs": [],
      "name": "OPTIMAL_USAGE_RATIO",
      "outputs": [
        {
          "internalType": "uint256",
          "name": "",
          "type": "uint256"
        }
      ],
      "stateMutability": "view",
      "type": "function"
    },
    {
      "inputs": [
        {
          "components": [
            {
              "internalType": "uint256",
              "name": "unbacked",
              "type": "uint256"
            },
            {
              "internalType": "uint256",
              "name": "liquidityAdded",
              "type": "uint256"
            },
            {
              "internalType": "uint256",
              "name": "liquidityTaken",
              "type": "uint256"
            },
            {
              "internalType": "uint256",
              "name": "totalStableDebt",
              "type": "uint256"
            },
            {
              "internalType": "uint256",
              "name": "totalVariableDebt",
              "type": "uint256"
            },
            {
              "internalType": "uint256",
              "name": "averageStableBorrowRate",
              "type": "uint256"
            },
            {
              "internalType": "uint256",
              "name": "reserveFactor",
              "type": "uint256"
            },
            {
              "internalType": "address",
              "name": "reserve",
              "type": "address"
            },
            {
              "internalType": "address",
              "name": "aToken",
              "type": "address"
            }
          ],
          "internalType": "struct DataTypes.CalculateInterestRatesParams",
          "name": "params",
          "type": "tuple"
        }
      ],
      "name": "calculateInterestRates",
      "outputs": [
        {
          "internalType": "uint256",
          "name": "",
          "type": "uint256"
        },
        {
          "internalType": "uint256",
          "name": "",
          "type": "uint256"
        },
        {
          "internalType": "uint256",
          "name": "",
          "type": "uint256"
        }
      ],
      "stateMutability": "view",
      "type": "function"
    },
    {
      "inputs": [],
      "name": "getBaseStableBorrowRate",
      "outputs": [
        {
          "internalType": "uint256",
          "name": "",
          "type": "uint256"
        }
      ],
      "stateMutability": "view",
      "type": "function"
    },
    {
      "inputs": [],
      "name": "getBaseVariableBorrowRate",
      "outputs": [
        {
          "internalType": "uint256",
          "name": "",
          "type": "uint256"
        }
      ],
      "stateMutability": "view",
      "type": "function"
    },
    {
      "inputs": [],
      "name": "getMaxVariableBorrowRate",
      "outputs": [
        {
          "internalType": "uint256",
          "name": "",
          "type": "uint256"
        }
      ],
      "stateMutability": "view",
      "type": "function"
    },
    {
      "inputs": [],
      "name": "getStableRateExcessOffset",
      "outputs": [
        {
          "internalType": "uint256",
          "name": "",
          "type": "uint256"
        }
      ],
      "stateMutability": "view",
      "type": "function"
    },
    {
      "inputs": [],
      "name": "getStableRateSlope1",
      "outputs": [
        {
          "internalType": "uint256",
          "name": "",
          "type": "uint256"
        }
      ],
      "stateMutability": "view",
      "type": "function"
    },
    {
      "inputs": [],
      "name": "getStableRateSlope2",
      "outputs": [
        {
          "internalType": "uint256",
          "name": "",
          "type": "uint256"
        }
      ],
      "stateMutability": "view",
      "type": "function"
    },
    {
      "inputs": [],
      "name": "getVariableRateSlope1",
      "outputs": [
        {
          "internalType": "uint256",
          "name": "",
          "type": "uint256"
        }
      ],
      "stateMutability": "view",
      "type": "function"
    },
    {
      "inputs": [],
      "name": "getVariableRateSlope2",
      "outputs": [
        {
          "internalType": "uint256",
          "name": "",
          "type": "uint256"
        }
      ],
      "stateMutability": "view",
      "type": "function"
    }
  ],
  "bytecode": "0x61020060405234801561001157600080fd5b50604051610ecb380380610ecb83398101604081905261003091610144565b886b033b2e3c9fd0803ce8000000101560405180604001604052806002815260200161383360f01b815250906100825760405162461bcd60e51b815260040161007991906101cf565b60405180910390fd5b50806b033b2e3c9fd0803ce80000001015604051806040016040528060028152602001610e0d60f21b815250906100cc5760405162461bcd60e51b815260040161007991906101cf565b5060808990526100e8896b033b2e3c9fd0803ce800000061021d565b60c05260a0819052610106816b033b2e3c9fd0803ce800000061021d565b60e052506001600160a01b0390981661010052610120959095526101409390935261016091909152610180526101a0526101c052506101e052610244565b6000806000806000806000806000806101408b8d03121561016457600080fd5b8a516001600160a01b038116811461017b57600080fd5b809a505060208b0151985060408b0151975060608b0151965060808b0151955060a08b0151945060c08b0151935060e08b015192506101008b015191506101208b015190509295989b9194979a5092959850565b600060208083528351808285015260005b818110156101fc578581018301518582016040015282016101e0565b506000604082860101526040601f19601f8301168501019250505092915050565b8181038181111561023e57634e487b7160e01b600052601160045260246000fd5b92915050565b60805160a05160c05160e05161010051610120516101405161016051610180516101a0516101c0516101e051610b6b6103606000396000818161026401526107ee0152600061089301526000818161016501526105b901526000818161028a015281816105e401526106b90152600081816102b0015281816102ff0152610621015260008181610135015281816103230152818161064c0152818161072b01526108b401526000818161018b0152818161034401526103ed0152600060f40152600081816102d90152610798015260008181610238015261055d0152600081816101db0152818161076701526107b90152600081816101b40152818161052c0152818161057e0152818161069001526107050152610b6b6000f3fe608060405234801561001057600080fd5b50600436106100ea5760003560e01c8063a58987091161008c578063bc62690811610066578063bc62690814610262578063d5cd739114610288578063f4202409146102ae578063fe5fd698146102d457600080fd5b8063a589870914610205578063a9c622f814610233578063acd786861461025a57600080fd5b806334762ca5116100c857806334762ca51461018957806354c365c6146101af5780636fb92589146101d657806380031e37146101fd57600080fd5b80630542975c146100ef5780630b3429a21461013357806314e32da414610163575b600080fd5b6101167f000000000000000000000000000000000000000000000000000000000000000081565b6040516001600160a01b0390911681526020015b60405180910390f35b7f00000000000000000000000000000000000000000000000000000000000000005b60405190815260200161012a565b7f0000000000000000000000000000000000000000000000000000000000000000610155565b7f0000000000000000000000000000000000000000000000000000000000000000610155565b6101557f000000000000000000000000000000000000000000000000000000000000000081565b6101557f000000000000000000000000000000000000000000000000000000000000000081565b6101556102fb565b610218610213366004610a55565b610377565b6040805193845260208401929092529082015260600161012a565b6101557f000000000000000000000000000000000000000000000000000000000000000081565b61015561088c565b7f0000000000000000000000000000000000000000000000000000000000000000610155565b7f0000000000000000000000000000000000000000000000000000000000000000610155565b7f0000000000000000000000000000000000000000000000000000000000000000610155565b6101557f000000000000000000000000000000000000000000000000000000000000000081565b60007f00000000000000000000000000000000000000000000000000000000000000006103687f00000000000000000000000000000000000000000000000000000000000000007f0000000000000000000000000000000000000000000000000000000000000000610af0565b6103729190610af0565b905090565b60008060006103cb6040518061012001604052806000815260200160008152602001600081526020016000815260200160008152602001600081526020016000815260200160008152602001600081525090565b846080015185606001516103df9190610af0565b6020820152600060808201527f0000000000000000000000000000000000000000000000000000000000000000604082015261041961088c565b606082015260208101511561052a576020810151606086015161043b916108d8565b60e08083019190915260408087015160208801519288015161010089015192516370a0823160e01b81526001600160a01b03938416600482015291939216906370a0823190602401602060405180830381865afa1580156104a0573d6000803e3d6000fd5b505050506040513d601f19601f820116820180604052508101906104c49190610b09565b6104ce9190610af0565b6104d89190610b22565b80825260208201516104e991610af0565b610100820181905260208201516104ff916108d8565b60a082015284516101008201516105249161051991610af0565b6020830151906108d8565b60c08201525b7f00000000000000000000000000000000000000000000000000000000000000008160a00151111561068b5760006105b27f00000000000000000000000000000000000000000000000000000000000000007f00000000000000000000000000000000000000000000000000000000000000008460a001516105ac9190610b22565b906108d8565b90506105de7f000000000000000000000000000000000000000000000000000000000000000082610917565b610608907f0000000000000000000000000000000000000000000000000000000000000000610af0565b826060018181516106199190610af0565b9052506106467f000000000000000000000000000000000000000000000000000000000000000082610917565b610670907f0000000000000000000000000000000000000000000000000000000000000000610af0565b826040018181516106819190610af0565b9052506107659050565b6106e67f00000000000000000000000000000000000000000000000000000000000000006105ac8360a001517f000000000000000000000000000000000000000000000000000000000000000061091790919063ffffffff16565b816060018181516106f79190610af0565b90525060a0810151610750907f0000000000000000000000000000000000000000000000000000000000000000906105ac907f000000000000000000000000000000000000000000000000000000000000000090610917565b816040018181516107619190610af0565b9052505b7f00000000000000000000000000000000000000000000000000000000000000008160e0015111156108295760006107e77f00000000000000000000000000000000000000000000000000000000000000007f00000000000000000000000000000000000000000000000000000000000000008460e001516105ac9190610b22565b90506108137f000000000000000000000000000000000000000000000000000000000000000082610917565b826060018181516108249190610af0565b905250505b61086e8560c0015161271061083e9190610b22565b6108688360c0015161086289606001518a6080015187604001518c60a0015161095b565b90610917565b906109c5565b60808201819052606082015160409092015190969195509350915050565b60006103727f00000000000000000000000000000000000000000000000000000000000000007f0000000000000000000000000000000000000000000000000000000000000000610af0565b600081156b033b2e3c9fd0803ce8000000600284041904841117156108fc57600080fd5b506b033b2e3c9fd0803ce80000009190910260028204010490565b600081156b019d971e4fe8401e74000000198390048411151761093957600080fd5b506b033b2e3c9fd0803ce800000091026b019d971e4fe8401e74000000010490565b6000806109688587610af0565b90508060000361097c5760009150506109bd565b600061098b85610862886109eb565b9050600061099c856108628a6109eb565b905060006109b66109ac856109eb565b6105ac8486610af0565b9450505050505b949350505050565b6000811561138819839004841115176109dd57600080fd5b506127109102611388010490565b633b9aca008181029081048214610a0157600080fd5b919050565b604051610120810167ffffffffffffffff81118282101715610a3857634e487b7160e01b600052604160045260246000fd5b60405290565b80356001600160a01b0381168114610a0157600080fd5b60006101208284031215610a6857600080fd5b610a70610a06565b823581526020830135602082015260408301356040820152606083013560608201526080830135608082015260a083013560a082015260c083013560c0820152610abc60e08401610a3e565b60e0820152610100610acf818501610a3e565b908201529392505050565b634e487b7160e01b600052601160045260246000fd5b80820180821115610b0357610b03610ada565b92915050565b600060208284031215610b1b57600080fd5b5051919050565b81810381811115610b0357610b03610ada56fea26469706673582212204fc84493cd8b99d60bf04729cf65cad22a3cd3b28f2c35ccc561e7441eaf035464736f6c63430008130033",
  "linkReferences": {},
  "deployedLinkReferences": {}
}