{
  "_format": "hh-sol-artifact-1",
  "contractName": "MockFlashLoanReceiver",
  "sourceName": "contracts/contractsAave/mocks/flashloan/MockFlashLoanReceiver.sol",
  "abi": [
    {
      "inputs": [
        {
          "internalType": "contract IPoolAddressesProvider",
          "name": "provider",
          "type": "address"
        }
      ],
      "stateMutability": "nonpayable",
      "type": "constructor"
    },
    {
      "anonymous": false,
      "inputs": [
        {
          "indexed": false,
          "internalType": "address[]",
          "name": "_assets",
          "type": "address[]"
        },
        {
          "indexed": false,
          "internalType": "uint256[]",
          "name": "_amounts",
          "type": "uint256[]"
        },
        {
          "indexed": false,
          "internalType": "uint256[]",
          "name": "_premiums",
          "type": "uint256[]"
        }
      ],
      "name": "ExecutedWithFail",
      "type": "event"
    },
    {
      "anonymous": false,
      "inputs": [
        {
          "indexed": false,
          "internalType": "address[]",
          "name": "_assets",
          "type": "address[]"
        },
        {
          "indexed": false,
          "internalType": "uint256[]",
          "name": "_amounts",
          "type": "uint256[]"
        },
        {
          "indexed": false,
          "internalType": "uint256[]",
          "name": "_premiums",
          "type": "uint256[]"
        }
      ],
      "name": "ExecutedWithSuccess",
      "type": "event"
    },
    {
      "inputs": [],
      "name": "ADDRESSES_PROVIDER",
      "outputs": [
        {
          "internalType": "contract IPoolAddressesProvider",
          "name": "",
          "type": "address"
        }
      ],
      "stateMutability": "view",
      "type": "function"
    },
    {
      "inputs": [],
      "name": "POOL",
      "outputs": [
        {
          "internalType": "contract IPool",
          "name": "",
          "type": "address"
        }
      ],
      "stateMutability": "view",
      "type": "function"
    },
    {
      "inputs": [
        {
          "internalType": "address[]",
          "name": "assets",
          "type": "address[]"
        },
        {
          "internalType": "uint256[]",
          "name": "amounts",
          "type": "uint256[]"
        },
        {
          "internalType": "uint256[]",
          "name": "premiums",
          "type": "uint256[]"
        },
        {
          "internalType": "address",
          "name": "",
          "type": "address"
        },
        {
          "internalType": "bytes",
          "name": "",
          "type": "bytes"
        }
      ],
      "name": "executeOperation",
      "outputs": [
        {
          "internalType": "bool",
          "name": "",
          "type": "bool"
        }
      ],
      "stateMutability": "nonpayable",
      "type": "function"
    },
    {
      "inputs": [],
      "name": "getAmountToApprove",
      "outputs": [
        {
          "internalType": "uint256",
          "name": "",
          "type": "uint256"
        }
      ],
      "stateMutability": "view",
      "type": "function"
    },
    {
      "inputs": [
        {
          "internalType": "uint256",
          "name": "amountToApprove",
          "type": "uint256"
        }
      ],
      "name": "setAmountToApprove",
      "outputs": [],
      "stateMutability": "nonpayable",
      "type": "function"
    },
    {
      "inputs": [
        {
          "internalType": "bool",
          "name": "fail",
          "type": "bool"
        }
      ],
      "name": "setFailExecutionTransfer",
      "outputs": [],
      "stateMutability": "nonpayable",
      "type": "function"
    },
    {
      "inputs": [
        {
          "internalType": "bool",
          "name": "flag",
          "type": "bool"
        }
      ],
      "name": "setSimulateEOA",
      "outputs": [],
      "stateMutability": "nonpayable",
      "type": "function"
    },
    {
      "inputs": [],
      "name": "simulateEOA",
      "outputs": [
        {
          "internalType": "bool",
          "name": "",
          "type": "bool"
        }
      ],
      "stateMutability": "view",
      "type": "function"
    }
  ],
  "bytecode": "0x60c060405234801561001057600080fd5b50604051610a57380380610a5783398101604081905261002f916100d8565b80806001600160a01b03166080816001600160a01b031681525050806001600160a01b031663026b1d5f6040518163ffffffff1660e01b8152600401602060405180830381865afa158015610088573d6000803e3d6000fd5b505050506040513d601f19601f820116820180604052508101906100ac91906100d8565b6001600160a01b031660a052506100fc9050565b6001600160a01b03811681146100d557600080fd5b50565b6000602082840312156100ea57600080fd5b81516100f5816100c0565b9392505050565b60805160a05161093061012760003960008181610121015261040f01526000609201526109306000f3fe608060405234801561001057600080fd5b50600436106100885760003560e01c80637535d2461161005b5780637535d2461461011c578063920f5c8414610143578063bf443f8514610156578063e9a6a25b1461016957600080fd5b80630542975c1461008d578063388f70f1146100d15780634444f331146100f45780635e76bba31461010b575b600080fd5b6100b47f000000000000000000000000000000000000000000000000000000000000000081565b6040516001600160a01b0390911681526020015b60405180910390f35b6100f26100df3660046104fc565b6000805460ff1916911515919091179055565b005b60025460ff165b60405190151581526020016100c8565b6001546040519081526020016100c8565b6100b47f000000000000000000000000000000000000000000000000000000000000000081565b6100fb610151366004610682565b61018a565b6100f261016436600461079c565b600155565b6100f26101773660046104fc565b6002805460ff1916911515919091179055565b6000805460ff16156101de577f9972b212e52913783072b960dd41527ae8b6e609d017b64039758dda0ce412788686866040516101c9939291906107f0565b60405180910390a15060025460ff16156104e2565b60005b86518110156104a25760008782815181106101fe576101fe610865565b6020026020010151905087828151811061021a5761021a610865565b60209081029190910101516040516370a0823160e01b81523060048201526001600160a01b03909116906370a0823190602401602060405180830381865afa15801561026a573d6000803e3d6000fd5b505050506040513d601f19601f8201168201806040525081019061028e919061087b565b8783815181106102a0576102a0610865565b602002602001015111156102fa5760405162461bcd60e51b815260206004820181905260248201527f496e76616c69642062616c616e636520666f722074686520636f6e7472616374604482015260640160405180910390fd5b60006001546000141561034a5786838151811061031957610319610865565b602002602001015188848151811061033357610333610865565b602002602001015161034591906108aa565b61034e565b6001545b9050816001600160a01b031663a0712d6888858151811061037157610371610865565b60200260200101516040518263ffffffff1660e01b815260040161039791815260200190565b6020604051808303816000875af11580156103b6573d6000803e3d6000fd5b505050506040513d601f19601f820116820180604052508101906103da91906108c2565b508883815181106103ed576103ed610865565b602090810291909101015160405163095ea7b360e01b81526001600160a01b037f000000000000000000000000000000000000000000000000000000000000000081166004830152602482018490529091169063095ea7b3906044016020604051808303816000875af1158015610468573d6000803e3d6000fd5b505050506040513d601f19601f8201168201806040525081019061048c91906108c2565b505050808061049a906108df565b9150506101e1565b507fbd6b6bfac59612765a81cc4fdee74ab4859671fa14a562056f9eea438735a78a8686866040516104d6939291906107f0565b60405180910390a15060015b95945050505050565b80151581146104f957600080fd5b50565b60006020828403121561050e57600080fd5b8135610519816104eb565b9392505050565b634e487b7160e01b600052604160045260246000fd5b604051601f8201601f1916810167ffffffffffffffff8111828210171561055f5761055f610520565b604052919050565b600067ffffffffffffffff82111561058157610581610520565b5060051b60200190565b80356001600160a01b03811681146105a257600080fd5b919050565b600082601f8301126105b857600080fd5b813560206105cd6105c883610567565b610536565b82815260059290921b840181019181810190868411156105ec57600080fd5b8286015b8481101561060757803583529183019183016105f0565b509695505050505050565b600082601f83011261062357600080fd5b813567ffffffffffffffff81111561063d5761063d610520565b610650601f8201601f1916602001610536565b81815284602083860101111561066557600080fd5b816020850160208301376000918101602001919091529392505050565b600080600080600060a0868803121561069a57600080fd5b853567ffffffffffffffff808211156106b257600080fd5b818801915088601f8301126106c657600080fd5b813560206106d66105c883610567565b82815260059290921b8401810191818101908c8411156106f557600080fd5b948201945b8386101561071a5761070b8661058b565b825294820194908201906106fa565b9950508901359250508082111561073057600080fd5b61073c89838a016105a7565b9550604088013591508082111561075257600080fd5b61075e89838a016105a7565b945061076c6060890161058b565b9350608088013591508082111561078257600080fd5b5061078f88828901610612565b9150509295509295909350565b6000602082840312156107ae57600080fd5b5035919050565b600081518084526020808501945080840160005b838110156107e5578151875295820195908201906001016107c9565b509495945050505050565b606080825284519082018190526000906020906080840190828801845b828110156108325781516001600160a01b03168452928401929084019060010161080d565b5050508381038285015261084681876107b5565b915050828103604084015261085b81856107b5565b9695505050505050565b634e487b7160e01b600052603260045260246000fd5b60006020828403121561088d57600080fd5b5051919050565b634e487b7160e01b600052601160045260246000fd5b600082198211156108bd576108bd610894565b500190565b6000602082840312156108d457600080fd5b8151610519816104eb565b60006000198214156108f3576108f3610894565b506001019056fea26469706673582212203586bf1ee3a8ce0e5e7df3a47d06866f52dcd3d02c3e043c525c5b52f3e827a264736f6c634300080a0033",
  "linkReferences": {},
  "deployedLinkReferences": {}
}