{
	"data": {
		"bytecode": {
			"linkReferences": {},
			"object": "608060405234801561001057600080fd5b50614447806100206000396000f3fe608060405234801561001057600080fd5b506004361061002b5760003560e01c80633c9de1b814610030575b600080fd5b61003861004e565b60405161004591906100ca565b60405180910390f35b60008060405180602001610061906100a4565b6020820181038252601f19601f82011660405250905080604051602001610088919061015f565b6040516020818303038152906040528051906020012091505090565b61429b8061017783390190565b6000819050919050565b6100c4816100b1565b82525050565b60006020820190506100df60008301846100bb565b92915050565b600081519050919050565b600081905092915050565b60005b838110156101195780820151818401526020810190506100fe565b83811115610128576000848401525b50505050565b6000610139826100e5565b61014381856100f0565b93506101538185602086016100fb565b80840191505092915050565b600061016b828461012e565b91508190509291505056fe60806040526001600c553480156200001657600080fd5b5060004690507f8b73c3c69bb8fe3d512ecc4cf759cc79239f7b179b0ffacaa9a75d522b39400f6040518060400160405280600a81526020017f556e697377617020563200000000000000000000000000000000000000000000815250805190602001206040518060400160405280600181526020017f3100000000000000000000000000000000000000000000000000000000000000815250805190602001208330604051602001620000cf959493929190620001ae565b604051602081830303815290604052805190602001206003819055505033600560006101000a81548173ffffffffffffffffffffffffffffffffffffffff021916908373ffffffffffffffffffffffffffffffffffffffff1602179055506200020b565b6000819050919050565b620001488162000133565b82525050565b6000819050919050565b62000163816200014e565b82525050565b600073ffffffffffffffffffffffffffffffffffffffff82169050919050565b6000620001968262000169565b9050919050565b620001a88162000189565b82525050565b600060a082019050620001c560008301886200013d565b620001d460208301876200013d565b620001e360408301866200013d565b620001f2606083018562000158565b6200020160808301846200019d565b9695505050505050565b614080806200021b6000396000f3fe608060405234801561001057600080fd5b50600436106101a95760003560e01c80636a627842116100f9578063ba9a7a5611610097578063d21220a711610071578063d21220a7146104db578063d505accf146104f9578063dd62ed3e14610515578063fff6cae914610545576101a9565b8063ba9a7a5614610483578063bc25cf77146104a1578063c45a0155146104bd576101a9565b80637ecebe00116100d35780637ecebe00146103d457806389afcb441461040457806395d89b4114610435578063a9059cbb14610453576101a9565b80636a6278421461035657806370a08231146103865780637464fc3d146103b6576101a9565b806323b872dd116101665780633644e515116101405780633644e515146102e0578063485cc955146102fe5780635909c0d51461031a5780635a3d549314610338576101a9565b806323b872dd1461027457806330adf81f146102a4578063313ce567146102c2576101a9565b8063022c0d9f146101ae57806306fdde03146101ca5780630902f1ac146101e8578063095ea7b3146102085780630dfe16811461023857806318160ddd14610256575b600080fd5b6101c860048036038101906101c39190612d60565b61054f565b005b6101d2610ba1565b6040516101df9190612e81565b60405180910390f35b6101f0610bda565b6040516101ff93929190612eeb565b60405180910390f35b610222600480360381019061021d9190612f22565b610c37565b60405161022f9190612f7d565b60405180910390f35b610240610c4e565b60405161024d9190612fa7565b60405180910390f35b61025e610c74565b60405161026b9190612fd1565b60405180910390f35b61028e60048036038101906102899190612fec565b610c7a565b60405161029b9190612f7d565b60405180910390f35b6102ac610e45565b6040516102b99190613058565b60405180910390f35b6102ca610e6c565b6040516102d7919061308f565b60405180910390f35b6102e8610e71565b6040516102f59190613058565b60405180910390f35b610318600480360381019061031391906130aa565b610e77565b005b610322610f8d565b60405161032f9190612fd1565b60405180910390f35b610340610f93565b60405161034d9190612fd1565b60405180910390f35b610370600480360381019061036b91906130ea565b610f99565b60405161037d9190612fd1565b60405180910390f35b6103a0600480360381019061039b91906130ea565b611383565b6040516103ad9190612fd1565b60405180910390f35b6103be61139b565b6040516103cb9190612fd1565b60405180910390f35b6103ee60048036038101906103e991906130ea565b6113a1565b6040516103fb9190612fd1565b60405180910390f35b61041e600480360381019061041991906130ea565b6113b9565b60405161042c929190613117565b60405180910390f35b61043d611863565b60405161044a9190612e81565b60405180910390f35b61046d60048036038101906104689190612f22565b61189c565b60405161047a9190612f7d565b60405180910390f35b61048b6118b3565b6040516104989190612fd1565b60405180910390f35b6104bb60048036038101906104b691906130ea565b6118b9565b005b6104c5611ae5565b6040516104d29190612fa7565b60405180910390f35b6104e3611b0b565b6040516104f09190612fa7565b60405180910390f35b610513600480360381019061050e9190613198565b611b31565b005b61052f600480360381019061052a91906130aa565b611d59565b60405161053c9190612fd1565b60405180910390f35b61054d611d7e565b005b6001600c5414610594576040517f08c379a000000000000000000000000000000000000000000000000000000000815260040161058b90613286565b60405180910390fd5b6000600c8190555060008511806105ab5750600084115b6105ea576040517f08c379a00000000000000000000000000000000000000000000000000000000081526004016105e190613318565b60405180910390fd5b6000806105f5610bda565b5091509150816dffffffffffffffffffffffffffff16871080156106285750806dffffffffffffffffffffffffffff1686105b610667576040517f08c379a000000000000000000000000000000000000000000000000000000000815260040161065e906133aa565b60405180910390fd5b6000806000600660009054906101000a900473ffffffffffffffffffffffffffffffffffffffff1690506000600760009054906101000a900473ffffffffffffffffffffffffffffffffffffffff1690508173ffffffffffffffffffffffffffffffffffffffff168973ffffffffffffffffffffffffffffffffffffffff161415801561072057508073ffffffffffffffffffffffffffffffffffffffff168973ffffffffffffffffffffffffffffffffffffffff1614155b61075f576040517f08c379a000000000000000000000000000000000000000000000000000000000815260040161075690613416565b60405180910390fd5b60008b111561077457610773828a8d611f4f565b5b60008a111561078957610788818a8c611f4f565b5b6000888890501115610809578873ffffffffffffffffffffffffffffffffffffffff166310d1e85c338d8d8c8c6040518663ffffffff1660e01b81526004016107d6959493929190613483565b600060405180830381600087803b1580156107f057600080fd5b505af1158015610804573d6000803e3d6000fd5b505050505b8173ffffffffffffffffffffffffffffffffffffffff166370a08231306040518263ffffffff1660e01b81526004016108429190612fa7565b602060405180830381865afa15801561085f573d6000803e3d6000fd5b505050506040513d601f19601f8201168201806040525081019061088391906134e6565b93508073ffffffffffffffffffffffffffffffffffffffff166370a08231306040518263ffffffff1660e01b81526004016108be9190612fa7565b602060405180830381865afa1580156108db573d6000803e3d6000fd5b505050506040513d601f19601f820116820180604052508101906108ff91906134e6565b92505050600089856dffffffffffffffffffffffffffff166109219190613542565b831161092e576000610956565b89856dffffffffffffffffffffffffffff1661094a9190613542565b836109559190613542565b5b9050600089856dffffffffffffffffffffffffffff166109769190613542565b83116109835760006109ab565b89856dffffffffffffffffffffffffffff1661099f9190613542565b836109aa9190613542565b5b905060008211806109bc5750600081115b6109fb576040517f08c379a00000000000000000000000000000000000000000000000000000000081526004016109f2906135e8565b60405180910390fd5b6000610a37610a146003856120d990919063ffffffff16565b610a296103e8886120d990919063ffffffff16565b61214690919063ffffffff16565b90506000610a75610a526003856120d990919063ffffffff16565b610a676103e8886120d990919063ffffffff16565b61214690919063ffffffff16565b9050610abf620f4240610ab1896dffffffffffffffffffffffffffff168b6dffffffffffffffffffffffffffff166120d990919063ffffffff16565b6120d990919063ffffffff16565b610ad282846120d990919063ffffffff16565b1015610b13576040517f08c379a0000000000000000000000000000000000000000000000000000000008152600401610b0a90613654565b60405180910390fd5b5050610b218484888861219f565b8873ffffffffffffffffffffffffffffffffffffffff163373ffffffffffffffffffffffffffffffffffffffff167fd78ad95fa46c994b6551d0da85fc275fe613ce37657fb8d5e3d130840159d82284848f8f604051610b849493929190613674565b60405180910390a35050505050506001600c819055505050505050565b6040518060400160405280600a81526020017f556e69737761702056320000000000000000000000000000000000000000000081525081565b6000806000600860009054906101000a90046dffffffffffffffffffffffffffff1692506008600e9054906101000a90046dffffffffffffffffffffffffffff1691506008601c9054906101000a900463ffffffff169050909192565b6000610c44338484612493565b6001905092915050565b600660009054906101000a900473ffffffffffffffffffffffffffffffffffffffff1681565b60005481565b60007fffffffffffffffffffffffffffffffffffffffffffffffffffffffffffffffff600260008673ffffffffffffffffffffffffffffffffffffffff1673ffffffffffffffffffffffffffffffffffffffff16815260200190815260200160002060003373ffffffffffffffffffffffffffffffffffffffff1673ffffffffffffffffffffffffffffffffffffffff1681526020019081526020016000205414610e2f57610dae82600260008773ffffffffffffffffffffffffffffffffffffffff1673ffffffffffffffffffffffffffffffffffffffff16815260200190815260200160002060003373ffffffffffffffffffffffffffffffffffffffff1673ffffffffffffffffffffffffffffffffffffffff1681526020019081526020016000205461214690919063ffffffff16565b600260008673ffffffffffffffffffffffffffffffffffffffff1673ffffffffffffffffffffffffffffffffffffffff16815260200190815260200160002060003373ffffffffffffffffffffffffffffffffffffffff1673ffffffffffffffffffffffffffffffffffffffff168152602001908152602001600020819055505b610e3a84848461257e565b600190509392505050565b7f6e71edae12b1b97f4d1f60370fef10105fa2faae0126114a169c64845d6126c960001b81565b601281565b60035481565b600560009054906101000a900473ffffffffffffffffffffffffffffffffffffffff1673ffffffffffffffffffffffffffffffffffffffff163373ffffffffffffffffffffffffffffffffffffffff1614610f07576040517f08c379a0000000000000000000000000000000000000000000000000000000008152600401610efe90613705565b60405180910390fd5b81600660006101000a81548173ffffffffffffffffffffffffffffffffffffffff021916908373ffffffffffffffffffffffffffffffffffffffff16021790555080600760006101000a81548173ffffffffffffffffffffffffffffffffffffffff021916908373ffffffffffffffffffffffffffffffffffffffff1602179055505050565b60095481565b600a5481565b60006001600c5414610fe0576040517f08c379a0000000000000000000000000000000000000000000000000000000008152600401610fd790613286565b60405180910390fd5b6000600c81905550600080610ff3610bda565b50915091506000600660009054906101000a900473ffffffffffffffffffffffffffffffffffffffff1673ffffffffffffffffffffffffffffffffffffffff166370a08231306040518263ffffffff1660e01b81526004016110559190612fa7565b602060405180830381865afa158015611072573d6000803e3d6000fd5b505050506040513d601f19601f8201168201806040525081019061109691906134e6565b90506000600760009054906101000a900473ffffffffffffffffffffffffffffffffffffffff1673ffffffffffffffffffffffffffffffffffffffff166370a08231306040518263ffffffff1660e01b81526004016110f59190612fa7565b602060405180830381865afa158015611112573d6000803e3d6000fd5b505050506040513d601f19601f8201168201806040525081019061113691906134e6565b9050600061115d856dffffffffffffffffffffffffffff168461214690919063ffffffff16565b90506000611184856dffffffffffffffffffffffffffff168461214690919063ffffffff16565b905060006111928787612712565b905060008054905060008114156111e6576111d26103e86111c46111bf86886120d990919063ffffffff16565b6128e3565b61214690919063ffffffff16565b98506111e160006103e861295d565b61124d565b61124a886dffffffffffffffffffffffffffff1661120d83876120d990919063ffffffff16565b6112179190613754565b886dffffffffffffffffffffffffffff1661123b84876120d990919063ffffffff16565b6112459190613754565b612a77565b98505b60008911611290576040517f08c379a0000000000000000000000000000000000000000000000000000000008152600401611287906137f7565b60405180910390fd5b61129a8a8a61295d565b6112a686868a8a61219f565b811561131e576113176008600e9054906101000a90046dffffffffffffffffffffffffffff166dffffffffffffffffffffffffffff16600860009054906101000a90046dffffffffffffffffffffffffffff166dffffffffffffffffffffffffffff166120d990919063ffffffff16565b600b819055505b3373ffffffffffffffffffffffffffffffffffffffff167f4c209b5fc8ad50758f13e2e1088ba56a560dff690a1c6fef26394f4c03821c4f8585604051611366929190613117565b60405180910390a250505050505050506001600c81905550919050565b60016020528060005260406000206000915090505481565b600b5481565b60046020528060005260406000206000915090505481565b6000806001600c5414611401576040517f08c379a00000000000000000000000000000000000000000000000000000000081526004016113f890613286565b60405180910390fd5b6000600c81905550600080611414610bda565b50915091506000600660009054906101000a900473ffffffffffffffffffffffffffffffffffffffff1690506000600760009054906101000a900473ffffffffffffffffffffffffffffffffffffffff16905060008273ffffffffffffffffffffffffffffffffffffffff166370a08231306040518263ffffffff1660e01b81526004016114a29190612fa7565b602060405180830381865afa1580156114bf573d6000803e3d6000fd5b505050506040513d601f19601f820116820180604052508101906114e391906134e6565b905060008273ffffffffffffffffffffffffffffffffffffffff166370a08231306040518263ffffffff1660e01b81526004016115209190612fa7565b602060405180830381865afa15801561153d573d6000803e3d6000fd5b505050506040513d601f19601f8201168201806040525081019061156191906134e6565b90506000600160003073ffffffffffffffffffffffffffffffffffffffff1673ffffffffffffffffffffffffffffffffffffffff16815260200190815260200160002054905060006115b38888612712565b9050600080549050806115cf86856120d990919063ffffffff16565b6115d99190613754565b9a50806115ef85856120d990919063ffffffff16565b6115f99190613754565b995060008b11801561160b575060008a115b61164a576040517f08c379a000000000000000000000000000000000000000000000000000000000815260040161164190613889565b60405180910390fd5b6116543084612a90565b61165f878d8d611f4f565b61166a868d8c611f4f565b8673ffffffffffffffffffffffffffffffffffffffff166370a08231306040518263ffffffff1660e01b81526004016116a39190612fa7565b602060405180830381865afa1580156116c0573d6000803e3d6000fd5b505050506040513d601f19601f820116820180604052508101906116e491906134e6565b94508573ffffffffffffffffffffffffffffffffffffffff166370a08231306040518263ffffffff1660e01b815260040161171f9190612fa7565b602060405180830381865afa15801561173c573d6000803e3d6000fd5b505050506040513d601f19601f8201168201806040525081019061176091906134e6565b935061176e85858b8b61219f565b81156117e6576117df6008600e9054906101000a90046dffffffffffffffffffffffffffff166dffffffffffffffffffffffffffff16600860009054906101000a90046dffffffffffffffffffffffffffff166dffffffffffffffffffffffffffff166120d990919063ffffffff16565b600b819055505b8b73ffffffffffffffffffffffffffffffffffffffff163373ffffffffffffffffffffffffffffffffffffffff167fdccd412f0b1252819cb1fd330b93224ca42612892bb3f4f789976e6d819364968d8d604051611845929190613117565b60405180910390a35050505050505050506001600c81905550915091565b6040518060400160405280600681526020017f554e492d5632000000000000000000000000000000000000000000000000000081525081565b60006118a933848461257e565b6001905092915050565b6103e881565b6001600c54146118fe576040517f08c379a00000000000000000000000000000000000000000000000000000000081526004016118f590613286565b60405180910390fd5b6000600c819055506000600660009054906101000a900473ffffffffffffffffffffffffffffffffffffffff1690506000600760009054906101000a900473ffffffffffffffffffffffffffffffffffffffff169050611a168284611a11600860009054906101000a90046dffffffffffffffffffffffffffff166dffffffffffffffffffffffffffff168673ffffffffffffffffffffffffffffffffffffffff166370a08231306040518263ffffffff1660e01b81526004016119c29190612fa7565b602060405180830381865afa1580156119df573d6000803e3d6000fd5b505050506040513d601f19601f82011682018060405250810190611a0391906134e6565b61214690919063ffffffff16565b611f4f565b611ad88184611ad36008600e9054906101000a90046dffffffffffffffffffffffffffff166dffffffffffffffffffffffffffff168573ffffffffffffffffffffffffffffffffffffffff166370a08231306040518263ffffffff1660e01b8152600401611a849190612fa7565b602060405180830381865afa158015611aa1573d6000803e3d6000fd5b505050506040513d601f19601f82011682018060405250810190611ac591906134e6565b61214690919063ffffffff16565b611f4f565b50506001600c8190555050565b600560009054906101000a900473ffffffffffffffffffffffffffffffffffffffff1681565b600760009054906101000a900473ffffffffffffffffffffffffffffffffffffffff1681565b42841015611b74576040517f08c379a0000000000000000000000000000000000000000000000000000000008152600401611b6b906138f5565b60405180910390fd5b60006003547f6e71edae12b1b97f4d1f60370fef10105fa2faae0126114a169c64845d6126c960001b898989600460008e73ffffffffffffffffffffffffffffffffffffffff1673ffffffffffffffffffffffffffffffffffffffff1681526020019081526020016000206000815480929190611bf090613915565b919050558a604051602001611c0a9695949392919061395e565b60405160208183030381529060405280519060200120604051602001611c31929190613a37565b604051602081830303815290604052805190602001209050600060018286868660405160008152602001604052604051611c6e9493929190613a6e565b6020604051602081039080840390855afa158015611c90573d6000803e3d6000fd5b505050602060405103519050600073ffffffffffffffffffffffffffffffffffffffff168173ffffffffffffffffffffffffffffffffffffffff1614158015611d0457508873ffffffffffffffffffffffffffffffffffffffff168173ffffffffffffffffffffffffffffffffffffffff16145b611d43576040517f08c379a0000000000000000000000000000000000000000000000000000000008152600401611d3a90613aff565b60405180910390fd5b611d4e898989612493565b505050505050505050565b6002602052816000526040600020602052806000526040600020600091509150505481565b6001600c5414611dc3576040517f08c379a0000000000000000000000000000000000000000000000000000000008152600401611dba90613286565b60405180910390fd5b6000600c81905550611f45600660009054906101000a900473ffffffffffffffffffffffffffffffffffffffff1673ffffffffffffffffffffffffffffffffffffffff166370a08231306040518263ffffffff1660e01b8152600401611e299190612fa7565b602060405180830381865afa158015611e46573d6000803e3d6000fd5b505050506040513d601f19601f82011682018060405250810190611e6a91906134e6565b600760009054906101000a900473ffffffffffffffffffffffffffffffffffffffff1673ffffffffffffffffffffffffffffffffffffffff166370a08231306040518263ffffffff1660e01b8152600401611ec59190612fa7565b602060405180830381865afa158015611ee2573d6000803e3d6000fd5b505050506040513d601f19601f82011682018060405250810190611f0691906134e6565b600860009054906101000a90046dffffffffffffffffffffffffffff166008600e9054906101000a90046dffffffffffffffffffffffffffff1661219f565b6001600c81905550565b6000808473ffffffffffffffffffffffffffffffffffffffff166040518060400160405280601981526020017f7472616e7366657228616464726573732c75696e743235362900000000000000815250805190602001208585604051602401611fb9929190613b1f565b604051602081830303815290604052907bffffffffffffffffffffffffffffffffffffffffffffffffffffffff19166020820180517bffffffffffffffffffffffffffffffffffffffffffffffffffffffff83818316178352505050506040516120239190613b8f565b6000604051808303816000865af19150503d8060008114612060576040519150601f19603f3d011682016040523d82523d6000602084013e612065565b606091505b509150915081801561209357506000815114806120925750808060200190518101906120919190613bd2565b5b5b6120d2576040517f08c379a00000000000000000000000000000000000000000000000000000000081526004016120c990613c4b565b60405180910390fd5b5050505050565b6000808214806121015750828283856120f29190613c6b565b9250826120ff9190613754565b145b612140576040517f08c379a000000000000000000000000000000000000000000000000000000000815260040161213790613d11565b60405180910390fd5b92915050565b60008282846121559190613542565b9150811115612199576040517f08c379a000000000000000000000000000000000000000000000000000000000815260040161219090613d7d565b60405180910390fd5b92915050565b6dffffffffffffffffffffffffffff801684111580156121cf57506dffffffffffffffffffffffffffff80168311155b61220e576040517f08c379a000000000000000000000000000000000000000000000000000000000815260040161220590613de9565b60405180910390fd5b6000640100000000426122219190613e09565b905060006008601c9054906101000a900463ffffffff16826122439190613e3a565b905060008163ffffffff1611801561226c57506000846dffffffffffffffffffffffffffff1614155b801561228957506000836dffffffffffffffffffffffffffff1614155b1561238f578063ffffffff166122ce856122a286612baa565b7bffffffffffffffffffffffffffffffffffffffffffffffffffffffff16612bde90919063ffffffff16565b7bffffffffffffffffffffffffffffffffffffffffffffffffffffffff166122f69190613c6b565b600960008282546123079190613e6e565b925050819055508063ffffffff1661234e8461232287612baa565b7bffffffffffffffffffffffffffffffffffffffffffffffffffffffff16612bde90919063ffffffff16565b7bffffffffffffffffffffffffffffffffffffffffffffffffffffffff166123769190613c6b565b600a60008282546123879190613e6e565b925050819055505b85600860006101000a8154816dffffffffffffffffffffffffffff02191690836dffffffffffffffffffffffffffff160217905550846008600e6101000a8154816dffffffffffffffffffffffffffff02191690836dffffffffffffffffffffffffffff160217905550816008601c6101000a81548163ffffffff021916908363ffffffff1602179055507f1c411e9a96e071241c2f21f7726b17ae89e3cab4c78be50e062b03a9fffbbad1600860009054906101000a90046dffffffffffffffffffffffffffff166008600e9054906101000a90046dffffffffffffffffffffffffffff16604051612483929190613ec4565b60405180910390a1505050505050565b80600260008573ffffffffffffffffffffffffffffffffffffffff1673ffffffffffffffffffffffffffffffffffffffff16815260200190815260200160002060008473ffffffffffffffffffffffffffffffffffffffff1673ffffffffffffffffffffffffffffffffffffffff168152602001908152602001600020819055508173ffffffffffffffffffffffffffffffffffffffff168373ffffffffffffffffffffffffffffffffffffffff167f8c5be1e5ebec7d5bd14f71427d1e84f3dd0314c0f7b2291e5b200ac8c7c3b925836040516125719190612fd1565b60405180910390a3505050565b6125d081600160008673ffffffffffffffffffffffffffffffffffffffff1673ffffffffffffffffffffffffffffffffffffffff1681526020019081526020016000205461214690919063ffffffff16565b600160008573ffffffffffffffffffffffffffffffffffffffff1673ffffffffffffffffffffffffffffffffffffffff1681526020019081526020016000208190555061266581600160008573ffffffffffffffffffffffffffffffffffffffff1673ffffffffffffffffffffffffffffffffffffffff16815260200190815260200160002054612c0490919063ffffffff16565b600160008473ffffffffffffffffffffffffffffffffffffffff1673ffffffffffffffffffffffffffffffffffffffff168152602001908152602001600020819055508173ffffffffffffffffffffffffffffffffffffffff168373ffffffffffffffffffffffffffffffffffffffff167fddf252ad1be2c89b69c2b068fc378daa952ba7f163c4a11628f55a4df523b3ef836040516127059190612fd1565b60405180910390a3505050565b600080600560009054906101000a900473ffffffffffffffffffffffffffffffffffffffff1673ffffffffffffffffffffffffffffffffffffffff1663017e7e586040518163ffffffff1660e01b8152600401602060405180830381865afa158015612782573d6000803e3d6000fd5b505050506040513d601f19601f820116820180604052508101906127a69190613f02565b9050600073ffffffffffffffffffffffffffffffffffffffff168173ffffffffffffffffffffffffffffffffffffffff16141591506000600b54905082156128c957600081146128c457600061282d612828866dffffffffffffffffffffffffffff16886dffffffffffffffffffffffffffff166120d990919063ffffffff16565b6128e3565b9050600061283a836128e3565b9050808211156128c157600061286d61285c838561214690919063ffffffff16565b6000546120d990919063ffffffff16565b90506000612897836128896005876120d990919063ffffffff16565b612c0490919063ffffffff16565b9050600081836128a79190613754565b905060008111156128bd576128bc878261295d565b5b5050505b50505b6128db565b600081146128da576000600b819055505b5b505092915050565b6000600382111561294a57819050600060016002846129029190613754565b61290c9190613e6e565b90505b818110156129445780915060028182856129299190613754565b6129339190613e6e565b61293d9190613754565b905061290f565b50612958565b6000821461295757600190505b5b919050565b61297281600054612c0490919063ffffffff16565b6000819055506129ca81600160008573ffffffffffffffffffffffffffffffffffffffff1673ffffffffffffffffffffffffffffffffffffffff16815260200190815260200160002054612c0490919063ffffffff16565b600160008473ffffffffffffffffffffffffffffffffffffffff1673ffffffffffffffffffffffffffffffffffffffff168152602001908152602001600020819055508173ffffffffffffffffffffffffffffffffffffffff16600073ffffffffffffffffffffffffffffffffffffffff167fddf252ad1be2c89b69c2b068fc378daa952ba7f163c4a11628f55a4df523b3ef83604051612a6b9190612fd1565b60405180910390a35050565b6000818310612a865781612a88565b825b905092915050565b612ae281600160008573ffffffffffffffffffffffffffffffffffffffff1673ffffffffffffffffffffffffffffffffffffffff1681526020019081526020016000205461214690919063ffffffff16565b600160008473ffffffffffffffffffffffffffffffffffffffff1673ffffffffffffffffffffffffffffffffffffffff16815260200190815260200160002081905550612b3a8160005461214690919063ffffffff16565b600081905550600073ffffffffffffffffffffffffffffffffffffffff168273ffffffffffffffffffffffffffffffffffffffff167fddf252ad1be2c89b69c2b068fc378daa952ba7f163c4a11628f55a4df523b3ef83604051612b9e9190612fd1565b60405180910390a35050565b60006e010000000000000000000000000000826dffffffffffffffffffffffffffff16612bd79190613f57565b9050919050565b6000816dffffffffffffffffffffffffffff1683612bfc9190613fad565b905092915050565b6000828284612c139190613e6e565b9150811015612c57576040517f08c379a0000000000000000000000000000000000000000000000000000000008152600401612c4e9061402a565b60405180910390fd5b92915050565b600080fd5b600080fd5b6000819050919050565b612c7a81612c67565b8114612c8557600080fd5b50565b600081359050612c9781612c71565b92915050565b600073ffffffffffffffffffffffffffffffffffffffff82169050919050565b6000612cc882612c9d565b9050919050565b612cd881612cbd565b8114612ce357600080fd5b50565b600081359050612cf581612ccf565b92915050565b600080fd5b600080fd5b600080fd5b60008083601f840112612d2057612d1f612cfb565b5b8235905067ffffffffffffffff811115612d3d57612d3c612d00565b5b602083019150836001820283011115612d5957612d58612d05565b5b9250929050565b600080600080600060808688031215612d7c57612d7b612c5d565b5b6000612d8a88828901612c88565b9550506020612d9b88828901612c88565b9450506040612dac88828901612ce6565b935050606086013567ffffffffffffffff811115612dcd57612dcc612c62565b5b612dd988828901612d0a565b92509250509295509295909350565b600081519050919050565b600082825260208201905092915050565b60005b83811015612e22578082015181840152602081019050612e07565b83811115612e31576000848401525b50505050565b6000601f19601f8301169050919050565b6000612e5382612de8565b612e5d8185612df3565b9350612e6d818560208601612e04565b612e7681612e37565b840191505092915050565b60006020820190508181036000830152612e9b8184612e48565b905092915050565b60006dffffffffffffffffffffffffffff82169050919050565b612ec681612ea3565b82525050565b600063ffffffff82169050919050565b612ee581612ecc565b82525050565b6000606082019050612f006000830186612ebd565b612f0d6020830185612ebd565b612f1a6040830184612edc565b949350505050565b60008060408385031215612f3957612f38612c5d565b5b6000612f4785828601612ce6565b9250506020612f5885828601612c88565b9150509250929050565b60008115159050919050565b612f7781612f62565b82525050565b6000602082019050612f926000830184612f6e565b92915050565b612fa181612cbd565b82525050565b6000602082019050612fbc6000830184612f98565b92915050565b612fcb81612c67565b82525050565b6000602082019050612fe66000830184612fc2565b92915050565b60008060006060848603121561300557613004612c5d565b5b600061301386828701612ce6565b935050602061302486828701612ce6565b925050604061303586828701612c88565b9150509250925092565b6000819050919050565b6130528161303f565b82525050565b600060208201905061306d6000830184613049565b92915050565b600060ff82169050919050565b61308981613073565b82525050565b60006020820190506130a46000830184613080565b92915050565b600080604083850312156130c1576130c0612c5d565b5b60006130cf85828601612ce6565b92505060206130e085828601612ce6565b9150509250929050565b600060208284031215613100576130ff612c5d565b5b600061310e84828501612ce6565b91505092915050565b600060408201905061312c6000830185612fc2565b6131396020830184612fc2565b9392505050565b61314981613073565b811461315457600080fd5b50565b60008135905061316681613140565b92915050565b6131758161303f565b811461318057600080fd5b50565b6000813590506131928161316c565b92915050565b600080600080600080600060e0888a0312156131b7576131b6612c5d565b5b60006131c58a828b01612ce6565b97505060206131d68a828b01612ce6565b96505060406131e78a828b01612c88565b95505060606131f88a828b01612c88565b94505060806132098a828b01613157565b93505060a061321a8a828b01613183565b92505060c061322b8a828b01613183565b91505092959891949750929550565b7f556e697377617056323a204c4f434b4544000000000000000000000000000000600082015250565b6000613270601183612df3565b915061327b8261323a565b602082019050919050565b6000602082019050818103600083015261329f81613263565b9050919050565b7f556e697377617056323a20494e53554646494349454e545f4f55545055545f4160008201527f4d4f554e54000000000000000000000000000000000000000000000000000000602082015250565b6000613302602583612df3565b915061330d826132a6565b604082019050919050565b60006020820190508181036000830152613331816132f5565b9050919050565b7f556e697377617056323a20494e53554646494349454e545f4c4951554944495460008201527f5900000000000000000000000000000000000000000000000000000000000000602082015250565b6000613394602183612df3565b915061339f82613338565b604082019050919050565b600060208201905081810360008301526133c381613387565b9050919050565b7f556e697377617056323a20494e56414c49445f544f0000000000000000000000600082015250565b6000613400601583612df3565b915061340b826133ca565b602082019050919050565b6000602082019050818103600083015261342f816133f3565b9050919050565b600082825260208201905092915050565b82818337600083830152505050565b60006134628385613436565b935061346f838584613447565b61347883612e37565b840190509392505050565b60006080820190506134986000830188612f98565b6134a56020830187612fc2565b6134b26040830186612fc2565b81810360608301526134c5818486613456565b90509695505050505050565b6000815190506134e081612c71565b92915050565b6000602082840312156134fc576134fb612c5d565b5b600061350a848285016134d1565b91505092915050565b7f4e487b7100000000000000000000000000000000000000000000000000000000600052601160045260246000fd5b600061354d82612c67565b915061355883612c67565b92508282101561356b5761356a613513565b5b828203905092915050565b7f556e697377617056323a20494e53554646494349454e545f494e5055545f414d60008201527f4f554e5400000000000000000000000000000000000000000000000000000000602082015250565b60006135d2602483612df3565b91506135dd82613576565b604082019050919050565b60006020820190508181036000830152613601816135c5565b9050919050565b7f556e697377617056323a204b0000000000000000000000000000000000000000600082015250565b600061363e600c83612df3565b915061364982613608565b602082019050919050565b6000602082019050818103600083015261366d81613631565b9050919050565b60006080820190506136896000830187612fc2565b6136966020830186612fc2565b6136a36040830185612fc2565b6136b06060830184612fc2565b95945050505050565b7f556e697377617056323a20464f5242494444454e000000000000000000000000600082015250565b60006136ef601483612df3565b91506136fa826136b9565b602082019050919050565b6000602082019050818103600083015261371e816136e2565b9050919050565b7f4e487b7100000000000000000000000000000000000000000000000000000000600052601260045260246000fd5b600061375f82612c67565b915061376a83612c67565b92508261377a57613779613725565b5b828204905092915050565b7f556e697377617056323a20494e53554646494349454e545f4c4951554944495460008201527f595f4d494e544544000000000000000000000000000000000000000000000000602082015250565b60006137e1602883612df3565b91506137ec82613785565b604082019050919050565b60006020820190508181036000830152613810816137d4565b9050919050565b7f556e697377617056323a20494e53554646494349454e545f4c4951554944495460008201527f595f4255524e4544000000000000000000000000000000000000000000000000602082015250565b6000613873602883612df3565b915061387e82613817565b604082019050919050565b600060208201905081810360008301526138a281613866565b9050919050565b7f556e697377617056323a20455850495245440000000000000000000000000000600082015250565b60006138df601283612df3565b91506138ea826138a9565b602082019050919050565b6000602082019050818103600083015261390e816138d2565b9050919050565b600061392082612c67565b91507fffffffffffffffffffffffffffffffffffffffffffffffffffffffffffffffff82141561395357613952613513565b5b600182019050919050565b600060c0820190506139736000830189613049565b6139806020830188612f98565b61398d6040830187612f98565b61399a6060830186612fc2565b6139a76080830185612fc2565b6139b460a0830184612fc2565b979650505050505050565b600081905092915050565b7f1901000000000000000000000000000000000000000000000000000000000000600082015250565b6000613a006002836139bf565b9150613a0b826139ca565b600282019050919050565b6000819050919050565b613a31613a2c8261303f565b613a16565b82525050565b6000613a42826139f3565b9150613a4e8285613a20565b602082019150613a5e8284613a20565b6020820191508190509392505050565b6000608082019050613a836000830187613049565b613a906020830186613080565b613a9d6040830185613049565b613aaa6060830184613049565b95945050505050565b7f556e697377617056323a20494e56414c49445f5349474e415455524500000000600082015250565b6000613ae9601c83612df3565b9150613af482613ab3565b602082019050919050565b60006020820190508181036000830152613b1881613adc565b9050919050565b6000604082019050613b346000830185612f98565b613b416020830184612fc2565b9392505050565b600081519050919050565b600081905092915050565b6000613b6982613b48565b613b738185613b53565b9350613b83818560208601612e04565b80840191505092915050565b6000613b9b8284613b5e565b915081905092915050565b613baf81612f62565b8114613bba57600080fd5b50565b600081519050613bcc81613ba6565b92915050565b600060208284031215613be857613be7612c5d565b5b6000613bf684828501613bbd565b91505092915050565b7f556e697377617056323a205452414e534645525f4641494c4544000000000000600082015250565b6000613c35601a83612df3565b9150613c4082613bff565b602082019050919050565b60006020820190508181036000830152613c6481613c28565b9050919050565b6000613c7682612c67565b9150613c8183612c67565b9250817fffffffffffffffffffffffffffffffffffffffffffffffffffffffffffffffff0483118215151615613cba57613cb9613513565b5b828202905092915050565b7f64732d6d6174682d6d756c2d6f766572666c6f77000000000000000000000000600082015250565b6000613cfb601483612df3565b9150613d0682613cc5565b602082019050919050565b60006020820190508181036000830152613d2a81613cee565b9050919050565b7f64732d6d6174682d7375622d756e646572666c6f770000000000000000000000600082015250565b6000613d67601583612df3565b9150613d7282613d31565b602082019050919050565b60006020820190508181036000830152613d9681613d5a565b9050919050565b7f556e697377617056323a204f564552464c4f5700000000000000000000000000600082015250565b6000613dd3601383612df3565b9150613dde82613d9d565b602082019050919050565b60006020820190508181036000830152613e0281613dc6565b9050919050565b6000613e1482612c67565b9150613e1f83612c67565b925082613e2f57613e2e613725565b5b828206905092915050565b6000613e4582612ecc565b9150613e5083612ecc565b925082821015613e6357613e62613513565b5b828203905092915050565b6000613e7982612c67565b9150613e8483612c67565b9250827fffffffffffffffffffffffffffffffffffffffffffffffffffffffffffffffff03821115613eb957613eb8613513565b5b828201905092915050565b6000604082019050613ed96000830185612ebd565b613ee66020830184612ebd565b9392505050565b600081519050613efc81612ccf565b92915050565b600060208284031215613f1857613f17612c5d565b5b6000613f2684828501613eed565b91505092915050565b60007bffffffffffffffffffffffffffffffffffffffffffffffffffffffff82169050919050565b6000613f6282613f2f565b9150613f6d83613f2f565b9250817bffffffffffffffffffffffffffffffffffffffffffffffffffffffff0483118215151615613fa257613fa1613513565b5b828202905092915050565b6000613fb882613f2f565b9150613fc383613f2f565b925082613fd357613fd2613725565b5b828204905092915050565b7f64732d6d6174682d6164642d6f766572666c6f77000000000000000000000000600082015250565b6000614014601483612df3565b915061401f82613fde565b602082019050919050565b6000602082019050818103600083015261404381614007565b905091905056fea2646970667358221220ba37dff4a8ba6f494ec30c4fffe07bda57ed78b9ae845010aa6154183bc299cb64736f6c634300080a0033a26469706673582212206c317777726a99d74e7a662007a76865637f7f7a5fd6d56d31b3f55f8be5460864736f6c634300080a0033",
			"opcodes": "PUSH1 0x80 PUSH1 0x40 MSTORE CALLVALUE DUP1 ISZERO PUSH2 0x10 JUMPI PUSH1 0x0 DUP1 REVERT JUMPDEST POP PUSH2 0x4447 DUP1 PUSH2 0x20 PUSH1 0x0 CODECOPY PUSH1 0x0 RETURN INVALID PUSH1 0x80 PUSH1 0x40 MSTORE CALLVALUE DUP1 ISZERO PUSH2 0x10 JUMPI PUSH1 0x0 DUP1 REVERT JUMPDEST POP PUSH1 0x4 CALLDATASIZE LT PUSH2 0x2B JUMPI PUSH1 0x0 CALLDATALOAD PUSH1 0xE0 SHR DUP1 PUSH4 0x3C9DE1B8 EQ PUSH2 0x30 JUMPI JUMPDEST PUSH1 0x0 DUP1 REVERT JUMPDEST PUSH2 0x38 PUSH2 0x4E JUMP JUMPDEST PUSH1 0x40 MLOAD PUSH2 0x45 SWAP2 SWAP1 PUSH2 0xCA JUMP JUMPDEST PUSH1 0x40 MLOAD DUP1 SWAP2 SUB SWAP1 RETURN JUMPDEST PUSH1 0x0 DUP1 PUSH1 0x40 MLOAD DUP1 PUSH1 0x20 ADD PUSH2 0x61 SWAP1 PUSH2 0xA4 JUMP JUMPDEST PUSH1 0x20 DUP3 ADD DUP2 SUB DUP3 MSTORE PUSH1 0x1F NOT PUSH1 0x1F DUP3 ADD AND PUSH1 0x40 MSTORE POP SWAP1 POP DUP1 PUSH1 0x40 MLOAD PUSH1 0x20 ADD PUSH2 0x88 SWAP2 SWAP1 PUSH2 0x15F JUMP JUMPDEST PUSH1 0x40 MLOAD PUSH1 0x20 DUP2 DUP4 SUB SUB DUP2 MSTORE SWAP1 PUSH1 0x40 MSTORE DUP1 MLOAD SWAP1 PUSH1 0x20 ADD KECCAK256 SWAP2 POP POP SWAP1 JUMP JUMPDEST PUSH2 0x429B DUP1 PUSH2 0x177 DUP4 CODECOPY ADD SWAP1 JUMP JUMPDEST PUSH1 0x0 DUP2 SWAP1 POP SWAP2 SWAP1 POP JUMP JUMPDEST PUSH2 0xC4 DUP2 PUSH2 0xB1 JUMP JUMPDEST DUP3 MSTORE POP POP JUMP JUMPDEST PUSH1 0x0 PUSH1 0x20 DUP3 ADD SWAP1 POP PUSH2 0xDF PUSH1 0x0 DUP4 ADD DUP5 PUSH2 0xBB JUMP JUMPDEST SWAP3 SWAP2 POP POP JUMP JUMPDEST PUSH1 0x0 DUP2 MLOAD SWAP1 POP SWAP2 SWAP1 POP JUMP JUMPDEST PUSH1 0x0 DUP2 SWAP1 POP SWAP3 SWAP2 POP POP JUMP JUMPDEST PUSH1 0x0 JUMPDEST DUP4 DUP2 LT ISZERO PUSH2 0x119 JUMPI DUP1 DUP3 ADD MLOAD DUP2 DUP5 ADD MSTORE PUSH1 0x20 DUP2 ADD SWAP1 POP PUSH2 0xFE JUMP JUMPDEST DUP4 DUP2 GT ISZERO PUSH2 0x128 JUMPI PUSH1 0x0 DUP5 DUP5 ADD MSTORE JUMPDEST POP POP POP POP JUMP JUMPDEST PUSH1 0x0 PUSH2 0x139 DUP3 PUSH2 0xE5 JUMP JUMPDEST PUSH2 0x143 DUP2 DUP6 PUSH2 0xF0 JUMP JUMPDEST SWAP4 POP PUSH2 0x153 DUP2 DUP6 PUSH1 0x20 DUP7 ADD PUSH2 0xFB JUMP JUMPDEST DUP1 DUP5 ADD SWAP2 POP POP SWAP3 SWAP2 POP POP JUMP JUMPDEST PUSH1 0x0 PUSH2 0x16B DUP3 DUP5 PUSH2 0x12E JUMP JUMPDEST SWAP2 POP DUP2 SWAP1 POP SWAP3 SWAP2 POP POP JUMP INVALID PUSH1 0x80 PUSH1 0x40 MSTORE PUSH1 0x1 PUSH1 0xC SSTORE CALLVALUE DUP1 ISZERO PUSH3 0x16 JUMPI PUSH1 0x0 DUP1 REVERT JUMPDEST POP PUSH1 0x0 CHAINID SWAP1 POP PUSH32 0x8B73C3C69BB8FE3D512ECC4CF759CC79239F7B179B0FFACAA9A75D522B39400F PUSH1 0x40 MLOAD DUP1 PUSH1 0x40 ADD PUSH1 0x40 MSTORE DUP1 PUSH1 0xA DUP2 MSTORE PUSH1 0x20 ADD PUSH32 0x556E697377617020563200000000000000000000000000000000000000000000 DUP2 MSTORE POP DUP1 MLOAD SWAP1 PUSH1 0x20 ADD KECCAK256 PUSH1 0x40 MLOAD DUP1 PUSH1 0x40 ADD PUSH1 0x40 MSTORE DUP1 PUSH1 0x1 DUP2 MSTORE PUSH1 0x20 ADD PUSH32 0x3100000000000000000000000000000000000000000000000000000000000000 DUP2 MSTORE POP DUP1 MLOAD SWAP1 PUSH1 0x20 ADD KECCAK256 DUP4 ADDRESS PUSH1 0x40 MLOAD PUSH1 0x20 ADD PUSH3 0xCF SWAP6 SWAP5 SWAP4 SWAP3 SWAP2 SWAP1 PUSH3 0x1AE JUMP JUMPDEST PUSH1 0x40 MLOAD PUSH1 0x20 DUP2 DUP4 SUB SUB DUP2 MSTORE SWAP1 PUSH1 0x40 MSTORE DUP1 MLOAD SWAP1 PUSH1 0x20 ADD KECCAK256 PUSH1 0x3 DUP2 SWAP1 SSTORE POP POP CALLER PUSH1 0x5 PUSH1 0x0 PUSH2 0x100 EXP DUP2 SLOAD DUP2 PUSH20 0xFFFFFFFFFFFFFFFFFFFFFFFFFFFFFFFFFFFFFFFF MUL NOT AND SWAP1 DUP4 PUSH20 0xFFFFFFFFFFFFFFFFFFFFFFFFFFFFFFFFFFFFFFFF AND MUL OR SWAP1 SSTORE POP PUSH3 0x20B JUMP JUMPDEST PUSH1 0x0 DUP2 SWAP1 POP SWAP2 SWAP1 POP JUMP JUMPDEST PUSH3 0x148 DUP2 PUSH3 0x133 JUMP JUMPDEST DUP3 MSTORE POP POP JUMP JUMPDEST PUSH1 0x0 DUP2 SWAP1 POP SWAP2 SWAP1 POP JUMP JUMPDEST PUSH3 0x163 DUP2 PUSH3 0x14E JUMP JUMPDEST DUP3 MSTORE POP POP JUMP JUMPDEST PUSH1 0x0 PUSH20 0xFFFFFFFFFFFFFFFFFFFFFFFFFFFFFFFFFFFFFFFF DUP3 AND SWAP1 POP SWAP2 SWAP1 POP JUMP JUMPDEST PUSH1 0x0 PUSH3 0x196 DUP3 PUSH3 0x169 JUMP JUMPDEST SWAP1 POP SWAP2 SWAP1 POP JUMP JUMPDEST PUSH3 0x1A8 DUP2 PUSH3 0x189 JUMP JUMPDEST DUP3 MSTORE POP POP JUMP JUMPDEST PUSH1 0x0 PUSH1 0xA0 DUP3 ADD SWAP1 POP PUSH3 0x1C5 PUSH1 0x0 DUP4 ADD DUP9 PUSH3 0x13D JUMP JUMPDEST PUSH3 0x1D4 PUSH1 0x20 DUP4 ADD DUP8 PUSH3 0x13D JUMP JUMPDEST PUSH3 0x1E3 PUSH1 0x40 DUP4 ADD DUP7 PUSH3 0x13D JUMP JUMPDEST PUSH3 0x1F2 PUSH1 0x60 DUP4 ADD DUP6 PUSH3 0x158 JUMP JUMPDEST PUSH3 0x201 PUSH1 0x80 DUP4 ADD DUP5 PUSH3 0x19D JUMP JUMPDEST SWAP7 SWAP6 POP POP POP POP POP POP JUMP JUMPDEST PUSH2 0x4080 DUP1 PUSH3 0x21B PUSH1 0x0 CODECOPY PUSH1 0x0 RETURN INVALID PUSH1 0x80 PUSH1 0x40 MSTORE CALLVALUE DUP1 ISZERO PUSH2 0x10 JUMPI PUSH1 0x0 DUP1 REVERT JUMPDEST POP PUSH1 0x4 CALLDATASIZE LT PUSH2 0x1A9 JUMPI PUSH1 0x0 CALLDATALOAD PUSH1 0xE0 SHR DUP1 PUSH4 0x6A627842 GT PUSH2 0xF9 JUMPI DUP1 PUSH4 0xBA9A7A56 GT PUSH2 0x97 JUMPI DUP1 PUSH4 0xD21220A7 GT PUSH2 0x71 JUMPI DUP1 PUSH4 0xD21220A7 EQ PUSH2 0x4DB JUMPI DUP1 PUSH4 0xD505ACCF EQ PUSH2 0x4F9 JUMPI DUP1 PUSH4 0xDD62ED3E EQ PUSH2 0x515 JUMPI DUP1 PUSH4 0xFFF6CAE9 EQ PUSH2 0x545 JUMPI PUSH2 0x1A9 JUMP JUMPDEST DUP1 PUSH4 0xBA9A7A56 EQ PUSH2 0x483 JUMPI DUP1 PUSH4 0xBC25CF77 EQ PUSH2 0x4A1 JUMPI DUP1 PUSH4 0xC45A0155 EQ PUSH2 0x4BD JUMPI PUSH2 0x1A9 JUMP JUMPDEST DUP1 PUSH4 0x7ECEBE00 GT PUSH2 0xD3 JUMPI DUP1 PUSH4 0x7ECEBE00 EQ PUSH2 0x3D4 JUMPI DUP1 PUSH4 0x89AFCB44 EQ PUSH2 0x404 JUMPI DUP1 PUSH4 0x95D89B41 EQ PUSH2 0x435 JUMPI DUP1 PUSH4 0xA9059CBB EQ PUSH2 0x453 JUMPI PUSH2 0x1A9 JUMP JUMPDEST DUP1 PUSH4 0x6A627842 EQ PUSH2 0x356 JUMPI DUP1 PUSH4 0x70A08231 EQ PUSH2 0x386 JUMPI DUP1 PUSH4 0x7464FC3D EQ PUSH2 0x3B6 JUMPI PUSH2 0x1A9 JUMP JUMPDEST DUP1 PUSH4 0x23B872DD GT PUSH2 0x166 JUMPI DUP1 PUSH4 0x3644E515 GT PUSH2 0x140 JUMPI DUP1 PUSH4 0x3644E515 EQ PUSH2 0x2E0 JUMPI DUP1 PUSH4 0x485CC955 EQ PUSH2 0x2FE JUMPI DUP1 PUSH4 0x5909C0D5 EQ PUSH2 0x31A JUMPI DUP1 PUSH4 0x5A3D5493 EQ PUSH2 0x338 JUMPI PUSH2 0x1A9 JUMP JUMPDEST DUP1 PUSH4 0x23B872DD EQ PUSH2 0x274 JUMPI DUP1 PUSH4 0x30ADF81F EQ PUSH2 0x2A4 JUMPI DUP1 PUSH4 0x313CE567 EQ PUSH2 0x2C2 JUMPI PUSH2 0x1A9 JUMP JUMPDEST DUP1 PUSH4 0x22C0D9F EQ PUSH2 0x1AE JUMPI DUP1 PUSH4 0x6FDDE03 EQ PUSH2 0x1CA JUMPI DUP1 PUSH4 0x902F1AC EQ PUSH2 0x1E8 JUMPI DUP1 PUSH4 0x95EA7B3 EQ PUSH2 0x208 JUMPI DUP1 PUSH4 0xDFE1681 EQ PUSH2 0x238 JUMPI DUP1 PUSH4 0x18160DDD EQ PUSH2 0x256 JUMPI JUMPDEST PUSH1 0x0 DUP1 REVERT JUMPDEST PUSH2 0x1C8 PUSH1 0x4 DUP1 CALLDATASIZE SUB DUP2 ADD SWAP1 PUSH2 0x1C3 SWAP2 SWAP1 PUSH2 0x2D60 JUMP JUMPDEST PUSH2 0x54F JUMP JUMPDEST STOP JUMPDEST PUSH2 0x1D2 PUSH2 0xBA1 JUMP JUMPDEST PUSH1 0x40 MLOAD PUSH2 0x1DF SWAP2 SWAP1 PUSH2 0x2E81 JUMP JUMPDEST PUSH1 0x40 MLOAD DUP1 SWAP2 SUB SWAP1 RETURN JUMPDEST PUSH2 0x1F0 PUSH2 0xBDA JUMP JUMPDEST PUSH1 0x40 MLOAD PUSH2 0x1FF SWAP4 SWAP3 SWAP2 SWAP1 PUSH2 0x2EEB JUMP JUMPDEST PUSH1 0x40 MLOAD DUP1 SWAP2 SUB SWAP1 RETURN JUMPDEST PUSH2 0x222 PUSH1 0x4 DUP1 CALLDATASIZE SUB DUP2 ADD SWAP1 PUSH2 0x21D SWAP2 SWAP1 PUSH2 0x2F22 JUMP JUMPDEST PUSH2 0xC37 JUMP JUMPDEST PUSH1 0x40 MLOAD PUSH2 0x22F SWAP2 SWAP1 PUSH2 0x2F7D JUMP JUMPDEST PUSH1 0x40 MLOAD DUP1 SWAP2 SUB SWAP1 RETURN JUMPDEST PUSH2 0x240 PUSH2 0xC4E JUMP JUMPDEST PUSH1 0x40 MLOAD PUSH2 0x24D SWAP2 SWAP1 PUSH2 0x2FA7 JUMP JUMPDEST PUSH1 0x40 MLOAD DUP1 SWAP2 SUB SWAP1 RETURN JUMPDEST PUSH2 0x25E PUSH2 0xC74 JUMP JUMPDEST PUSH1 0x40 MLOAD PUSH2 0x26B SWAP2 SWAP1 PUSH2 0x2FD1 JUMP JUMPDEST PUSH1 0x40 MLOAD DUP1 SWAP2 SUB SWAP1 RETURN JUMPDEST PUSH2 0x28E PUSH1 0x4 DUP1 CALLDATASIZE SUB DUP2 ADD SWAP1 PUSH2 0x289 SWAP2 SWAP1 PUSH2 0x2FEC JUMP JUMPDEST PUSH2 0xC7A JUMP JUMPDEST PUSH1 0x40 MLOAD PUSH2 0x29B SWAP2 SWAP1 PUSH2 0x2F7D JUMP JUMPDEST PUSH1 0x40 MLOAD DUP1 SWAP2 SUB SWAP1 RETURN JUMPDEST PUSH2 0x2AC PUSH2 0xE45 JUMP JUMPDEST PUSH1 0x40 MLOAD PUSH2 0x2B9 SWAP2 SWAP1 PUSH2 0x3058 JUMP JUMPDEST PUSH1 0x40 MLOAD DUP1 SWAP2 SUB SWAP1 RETURN JUMPDEST PUSH2 0x2CA PUSH2 0xE6C JUMP JUMPDEST PUSH1 0x40 MLOAD PUSH2 0x2D7 SWAP2 SWAP1 PUSH2 0x308F JUMP JUMPDEST PUSH1 0x40 MLOAD DUP1 SWAP2 SUB SWAP1 RETURN JUMPDEST PUSH2 0x2E8 PUSH2 0xE71 JUMP JUMPDEST PUSH1 0x40 MLOAD PUSH2 0x2F5 SWAP2 SWAP1 PUSH2 0x3058 JUMP JUMPDEST PUSH1 0x40 MLOAD DUP1 SWAP2 SUB SWAP1 RETURN JUMPDEST PUSH2 0x318 PUSH1 0x4 DUP1 CALLDATASIZE SUB DUP2 ADD SWAP1 PUSH2 0x313 SWAP2 SWAP1 PUSH2 0x30AA JUMP JUMPDEST PUSH2 0xE77 JUMP JUMPDEST STOP JUMPDEST PUSH2 0x322 PUSH2 0xF8D JUMP JUMPDEST PUSH1 0x40 MLOAD PUSH2 0x32F SWAP2 SWAP1 PUSH2 0x2FD1 JUMP JUMPDEST PUSH1 0x40 MLOAD DUP1 SWAP2 SUB SWAP1 RETURN JUMPDEST PUSH2 0x340 PUSH2 0xF93 JUMP JUMPDEST PUSH1 0x40 MLOAD PUSH2 0x34D SWAP2 SWAP1 PUSH2 0x2FD1 JUMP JUMPDEST PUSH1 0x40 MLOAD DUP1 SWAP2 SUB SWAP1 RETURN JUMPDEST PUSH2 0x370 PUSH1 0x4 DUP1 CALLDATASIZE SUB DUP2 ADD SWAP1 PUSH2 0x36B SWAP2 SWAP1 PUSH2 0x30EA JUMP JUMPDEST PUSH2 0xF99 JUMP JUMPDEST PUSH1 0x40 MLOAD PUSH2 0x37D SWAP2 SWAP1 PUSH2 0x2FD1 JUMP JUMPDEST PUSH1 0x40 MLOAD DUP1 SWAP2 SUB SWAP1 RETURN JUMPDEST PUSH2 0x3A0 PUSH1 0x4 DUP1 CALLDATASIZE SUB DUP2 ADD SWAP1 PUSH2 0x39B SWAP2 SWAP1 PUSH2 0x30EA JUMP JUMPDEST PUSH2 0x1383 JUMP JUMPDEST PUSH1 0x40 MLOAD PUSH2 0x3AD SWAP2 SWAP1 PUSH2 0x2FD1 JUMP JUMPDEST PUSH1 0x40 MLOAD DUP1 SWAP2 SUB SWAP1 RETURN JUMPDEST PUSH2 0x3BE PUSH2 0x139B JUMP JUMPDEST PUSH1 0x40 MLOAD PUSH2 0x3CB SWAP2 SWAP1 PUSH2 0x2FD1 JUMP JUMPDEST PUSH1 0x40 MLOAD DUP1 SWAP2 SUB SWAP1 RETURN JUMPDEST PUSH2 0x3EE PUSH1 0x4 DUP1 CALLDATASIZE SUB DUP2 ADD SWAP1 PUSH2 0x3E9 SWAP2 SWAP1 PUSH2 0x30EA JUMP JUMPDEST PUSH2 0x13A1 JUMP JUMPDEST PUSH1 0x40 MLOAD PUSH2 0x3FB SWAP2 SWAP1 PUSH2 0x2FD1 JUMP JUMPDEST PUSH1 0x40 MLOAD DUP1 SWAP2 SUB SWAP1 RETURN JUMPDEST PUSH2 0x41E PUSH1 0x4 DUP1 CALLDATASIZE SUB DUP2 ADD SWAP1 PUSH2 0x419 SWAP2 SWAP1 PUSH2 0x30EA JUMP JUMPDEST PUSH2 0x13B9 JUMP JUMPDEST PUSH1 0x40 MLOAD PUSH2 0x42C SWAP3 SWAP2 SWAP1 PUSH2 0x3117 JUMP JUMPDEST PUSH1 0x40 MLOAD DUP1 SWAP2 SUB SWAP1 RETURN JUMPDEST PUSH2 0x43D PUSH2 0x1863 JUMP JUMPDEST PUSH1 0x40 MLOAD PUSH2 0x44A SWAP2 SWAP1 PUSH2 0x2E81 JUMP JUMPDEST PUSH1 0x40 MLOAD DUP1 SWAP2 SUB SWAP1 RETURN JUMPDEST PUSH2 0x46D PUSH1 0x4 DUP1 CALLDATASIZE SUB DUP2 ADD SWAP1 PUSH2 0x468 SWAP2 SWAP1 PUSH2 0x2F22 JUMP JUMPDEST PUSH2 0x189C JUMP JUMPDEST PUSH1 0x40 MLOAD PUSH2 0x47A SWAP2 SWAP1 PUSH2 0x2F7D JUMP JUMPDEST PUSH1 0x40 MLOAD DUP1 SWAP2 SUB SWAP1 RETURN JUMPDEST PUSH2 0x48B PUSH2 0x18B3 JUMP JUMPDEST PUSH1 0x40 MLOAD PUSH2 0x498 SWAP2 SWAP1 PUSH2 0x2FD1 JUMP JUMPDEST PUSH1 0x40 MLOAD DUP1 SWAP2 SUB SWAP1 RETURN JUMPDEST PUSH2 0x4BB PUSH1 0x4 DUP1 CALLDATASIZE SUB DUP2 ADD SWAP1 PUSH2 0x4B6 SWAP2 SWAP1 PUSH2 0x30EA JUMP JUMPDEST PUSH2 0x18B9 JUMP JUMPDEST STOP JUMPDEST PUSH2 0x4C5 PUSH2 0x1AE5 JUMP JUMPDEST PUSH1 0x40 MLOAD PUSH2 0x4D2 SWAP2 SWAP1 PUSH2 0x2FA7 JUMP JUMPDEST PUSH1 0x40 MLOAD DUP1 SWAP2 SUB SWAP1 RETURN JUMPDEST PUSH2 0x4E3 PUSH2 0x1B0B JUMP JUMPDEST PUSH1 0x40 MLOAD PUSH2 0x4F0 SWAP2 SWAP1 PUSH2 0x2FA7 JUMP JUMPDEST PUSH1 0x40 MLOAD DUP1 SWAP2 SUB SWAP1 RETURN JUMPDEST PUSH2 0x513 PUSH1 0x4 DUP1 CALLDATASIZE SUB DUP2 ADD SWAP1 PUSH2 0x50E SWAP2 SWAP1 PUSH2 0x3198 JUMP JUMPDEST PUSH2 0x1B31 JUMP JUMPDEST STOP JUMPDEST PUSH2 0x52F PUSH1 0x4 DUP1 CALLDATASIZE SUB DUP2 ADD SWAP1 PUSH2 0x52A SWAP2 SWAP1 PUSH2 0x30AA JUMP JUMPDEST PUSH2 0x1D59 JUMP JUMPDEST PUSH1 0x40 MLOAD PUSH2 0x53C SWAP2 SWAP1 PUSH2 0x2FD1 JUMP JUMPDEST PUSH1 0x40 MLOAD DUP1 SWAP2 SUB SWAP1 RETURN JUMPDEST PUSH2 0x54D PUSH2 0x1D7E JUMP JUMPDEST STOP JUMPDEST PUSH1 0x1 PUSH1 0xC SLOAD EQ PUSH2 0x594 JUMPI PUSH1 0x40 MLOAD PUSH32 0x8C379A000000000000000000000000000000000000000000000000000000000 DUP2 MSTORE PUSH1 0x4 ADD PUSH2 0x58B SWAP1 PUSH2 0x3286 JUMP JUMPDEST PUSH1 0x40 MLOAD DUP1 SWAP2 SUB SWAP1 REVERT JUMPDEST PUSH1 0x0 PUSH1 0xC DUP2 SWAP1 SSTORE POP PUSH1 0x0 DUP6 GT DUP1 PUSH2 0x5AB JUMPI POP PUSH1 0x0 DUP5 GT JUMPDEST PUSH2 0x5EA JUMPI PUSH1 0x40 MLOAD PUSH32 0x8C379A000000000000000000000000000000000000000000000000000000000 DUP2 MSTORE PUSH1 0x4 ADD PUSH2 0x5E1 SWAP1 PUSH2 0x3318 JUMP JUMPDEST PUSH1 0x40 MLOAD DUP1 SWAP2 SUB SWAP1 REVERT JUMPDEST PUSH1 0x0 DUP1 PUSH2 0x5F5 PUSH2 0xBDA JUMP JUMPDEST POP SWAP2 POP SWAP2 POP DUP2 PUSH14 0xFFFFFFFFFFFFFFFFFFFFFFFFFFFF AND DUP8 LT DUP1 ISZERO PUSH2 0x628 JUMPI POP DUP1 PUSH14 0xFFFFFFFFFFFFFFFFFFFFFFFFFFFF AND DUP7 LT JUMPDEST PUSH2 0x667 JUMPI PUSH1 0x40 MLOAD PUSH32 0x8C379A000000000000000000000000000000000000000000000000000000000 DUP2 MSTORE PUSH1 0x4 ADD PUSH2 0x65E SWAP1 PUSH2 0x33AA JUMP JUMPDEST PUSH1 0x40 MLOAD DUP1 SWAP2 SUB SWAP1 REVERT JUMPDEST PUSH1 0x0 DUP1 PUSH1 0x0 PUSH1 0x6 PUSH1 0x0 SWAP1 SLOAD SWAP1 PUSH2 0x100 EXP SWAP1 DIV PUSH20 0xFFFFFFFFFFFFFFFFFFFFFFFFFFFFFFFFFFFFFFFF AND SWAP1 POP PUSH1 0x0 PUSH1 0x7 PUSH1 0x0 SWAP1 SLOAD SWAP1 PUSH2 0x100 EXP SWAP1 DIV PUSH20 0xFFFFFFFFFFFFFFFFFFFFFFFFFFFFFFFFFFFFFFFF AND SWAP1 POP DUP2 PUSH20 0xFFFFFFFFFFFFFFFFFFFFFFFFFFFFFFFFFFFFFFFF AND DUP10 PUSH20 0xFFFFFFFFFFFFFFFFFFFFFFFFFFFFFFFFFFFFFFFF AND EQ ISZERO DUP1 ISZERO PUSH2 0x720 JUMPI POP DUP1 PUSH20 0xFFFFFFFFFFFFFFFFFFFFFFFFFFFFFFFFFFFFFFFF AND DUP10 PUSH20 0xFFFFFFFFFFFFFFFFFFFFFFFFFFFFFFFFFFFFFFFF AND EQ ISZERO JUMPDEST PUSH2 0x75F JUMPI PUSH1 0x40 MLOAD PUSH32 0x8C379A000000000000000000000000000000000000000000000000000000000 DUP2 MSTORE PUSH1 0x4 ADD PUSH2 0x756 SWAP1 PUSH2 0x3416 JUMP JUMPDEST PUSH1 0x40 MLOAD DUP1 SWAP2 SUB SWAP1 REVERT JUMPDEST PUSH1 0x0 DUP12 GT ISZERO PUSH2 0x774 JUMPI PUSH2 0x773 DUP3 DUP11 DUP14 PUSH2 0x1F4F JUMP JUMPDEST JUMPDEST PUSH1 0x0 DUP11 GT ISZERO PUSH2 0x789 JUMPI PUSH2 0x788 DUP2 DUP11 DUP13 PUSH2 0x1F4F JUMP JUMPDEST JUMPDEST PUSH1 0x0 DUP9 DUP9 SWAP1 POP GT ISZERO PUSH2 0x809 JUMPI DUP9 PUSH20 0xFFFFFFFFFFFFFFFFFFFFFFFFFFFFFFFFFFFFFFFF AND PUSH4 0x10D1E85C CALLER DUP14 DUP14 DUP13 DUP13 PUSH1 0x40 MLOAD DUP7 PUSH4 0xFFFFFFFF AND PUSH1 0xE0 SHL DUP2 MSTORE PUSH1 0x4 ADD PUSH2 0x7D6 SWAP6 SWAP5 SWAP4 SWAP3 SWAP2 SWAP1 PUSH2 0x3483 JUMP JUMPDEST PUSH1 0x0 PUSH1 0x40 MLOAD DUP1 DUP4 SUB DUP2 PUSH1 0x0 DUP8 DUP1 EXTCODESIZE ISZERO DUP1 ISZERO PUSH2 0x7F0 JUMPI PUSH1 0x0 DUP1 REVERT JUMPDEST POP GAS CALL ISZERO DUP1 ISZERO PUSH2 0x804 JUMPI RETURNDATASIZE PUSH1 0x0 DUP1 RETURNDATACOPY RETURNDATASIZE PUSH1 0x0 REVERT JUMPDEST POP POP POP POP JUMPDEST DUP2 PUSH20 0xFFFFFFFFFFFFFFFFFFFFFFFFFFFFFFFFFFFFFFFF AND PUSH4 0x70A08231 ADDRESS PUSH1 0x40 MLOAD DUP3 PUSH4 0xFFFFFFFF AND PUSH1 0xE0 SHL DUP2 MSTORE PUSH1 0x4 ADD PUSH2 0x842 SWAP2 SWAP1 PUSH2 0x2FA7 JUMP JUMPDEST PUSH1 0x20 PUSH1 0x40 MLOAD DUP1 DUP4 SUB DUP2 DUP7 GAS STATICCALL ISZERO DUP1 ISZERO PUSH2 0x85F JUMPI RETURNDATASIZE PUSH1 0x0 DUP1 RETURNDATACOPY RETURNDATASIZE PUSH1 0x0 REVERT JUMPDEST POP POP POP POP PUSH1 0x40 MLOAD RETURNDATASIZE PUSH1 0x1F NOT PUSH1 0x1F DUP3 ADD AND DUP3 ADD DUP1 PUSH1 0x40 MSTORE POP DUP2 ADD SWAP1 PUSH2 0x883 SWAP2 SWAP1 PUSH2 0x34E6 JUMP JUMPDEST SWAP4 POP DUP1 PUSH20 0xFFFFFFFFFFFFFFFFFFFFFFFFFFFFFFFFFFFFFFFF AND PUSH4 0x70A08231 ADDRESS PUSH1 0x40 MLOAD DUP3 PUSH4 0xFFFFFFFF AND PUSH1 0xE0 SHL DUP2 MSTORE PUSH1 0x4 ADD PUSH2 0x8BE SWAP2 SWAP1 PUSH2 0x2FA7 JUMP JUMPDEST PUSH1 0x20 PUSH1 0x40 MLOAD DUP1 DUP4 SUB DUP2 DUP7 GAS STATICCALL ISZERO DUP1 ISZERO PUSH2 0x8DB JUMPI RETURNDATASIZE PUSH1 0x0 DUP1 RETURNDATACOPY RETURNDATASIZE PUSH1 0x0 REVERT JUMPDEST POP POP POP POP PUSH1 0x40 MLOAD RETURNDATASIZE PUSH1 0x1F NOT PUSH1 0x1F DUP3 ADD AND DUP3 ADD DUP1 PUSH1 0x40 MSTORE POP DUP2 ADD SWAP1 PUSH2 0x8FF SWAP2 SWAP1 PUSH2 0x34E6 JUMP JUMPDEST SWAP3 POP POP POP PUSH1 0x0 DUP10 DUP6 PUSH14 0xFFFFFFFFFFFFFFFFFFFFFFFFFFFF AND PUSH2 0x921 SWAP2 SWAP1 PUSH2 0x3542 JUMP JUMPDEST DUP4 GT PUSH2 0x92E JUMPI PUSH1 0x0 PUSH2 0x956 JUMP JUMPDEST DUP10 DUP6 PUSH14 0xFFFFFFFFFFFFFFFFFFFFFFFFFFFF AND PUSH2 0x94A SWAP2 SWAP1 PUSH2 0x3542 JUMP JUMPDEST DUP4 PUSH2 0x955 SWAP2 SWAP1 PUSH2 0x3542 JUMP JUMPDEST JUMPDEST SWAP1 POP PUSH1 0x0 DUP10 DUP6 PUSH14 0xFFFFFFFFFFFFFFFFFFFFFFFFFFFF AND PUSH2 0x976 SWAP2 SWAP1 PUSH2 0x3542 JUMP JUMPDEST DUP4 GT PUSH2 0x983 JUMPI PUSH1 0x0 PUSH2 0x9AB JUMP JUMPDEST DUP10 DUP6 PUSH14 0xFFFFFFFFFFFFFFFFFFFFFFFFFFFF AND PUSH2 0x99F SWAP2 SWAP1 PUSH2 0x3542 JUMP JUMPDEST DUP4 PUSH2 0x9AA SWAP2 SWAP1 PUSH2 0x3542 JUMP JUMPDEST JUMPDEST SWAP1 POP PUSH1 0x0 DUP3 GT DUP1 PUSH2 0x9BC JUMPI POP PUSH1 0x0 DUP2 GT JUMPDEST PUSH2 0x9FB JUMPI PUSH1 0x40 MLOAD PUSH32 0x8C379A000000000000000000000000000000000000000000000000000000000 DUP2 MSTORE PUSH1 0x4 ADD PUSH2 0x9F2 SWAP1 PUSH2 0x35E8 JUMP JUMPDEST PUSH1 0x40 MLOAD DUP1 SWAP2 SUB SWAP1 REVERT JUMPDEST PUSH1 0x0 PUSH2 0xA37 PUSH2 0xA14 PUSH1 0x3 DUP6 PUSH2 0x20D9 SWAP1 SWAP2 SWAP1 PUSH4 0xFFFFFFFF AND JUMP JUMPDEST PUSH2 0xA29 PUSH2 0x3E8 DUP9 PUSH2 0x20D9 SWAP1 SWAP2 SWAP1 PUSH4 0xFFFFFFFF AND JUMP JUMPDEST PUSH2 0x2146 SWAP1 SWAP2 SWAP1 PUSH4 0xFFFFFFFF AND JUMP JUMPDEST SWAP1 POP PUSH1 0x0 PUSH2 0xA75 PUSH2 0xA52 PUSH1 0x3 DUP6 PUSH2 0x20D9 SWAP1 SWAP2 SWAP1 PUSH4 0xFFFFFFFF AND JUMP JUMPDEST PUSH2 0xA67 PUSH2 0x3E8 DUP9 PUSH2 0x20D9 SWAP1 SWAP2 SWAP1 PUSH4 0xFFFFFFFF AND JUMP JUMPDEST PUSH2 0x2146 SWAP1 SWAP2 SWAP1 PUSH4 0xFFFFFFFF AND JUMP JUMPDEST SWAP1 POP PUSH2 0xABF PUSH3 0xF4240 PUSH2 0xAB1 DUP10 PUSH14 0xFFFFFFFFFFFFFFFFFFFFFFFFFFFF AND DUP12 PUSH14 0xFFFFFFFFFFFFFFFFFFFFFFFFFFFF AND PUSH2 0x20D9 SWAP1 SWAP2 SWAP1 PUSH4 0xFFFFFFFF AND JUMP JUMPDEST PUSH2 0x20D9 SWAP1 SWAP2 SWAP1 PUSH4 0xFFFFFFFF AND JUMP JUMPDEST PUSH2 0xAD2 DUP3 DUP5 PUSH2 0x20D9 SWAP1 SWAP2 SWAP1 PUSH4 0xFFFFFFFF AND JUMP JUMPDEST LT ISZERO PUSH2 0xB13 JUMPI PUSH1 0x40 MLOAD PUSH32 0x8C379A000000000000000000000000000000000000000000000000000000000 DUP2 MSTORE PUSH1 0x4 ADD PUSH2 0xB0A SWAP1 PUSH2 0x3654 JUMP JUMPDEST PUSH1 0x40 MLOAD DUP1 SWAP2 SUB SWAP1 REVERT JUMPDEST POP POP PUSH2 0xB21 DUP5 DUP5 DUP9 DUP9 PUSH2 0x219F JUMP JUMPDEST DUP9 PUSH20 0xFFFFFFFFFFFFFFFFFFFFFFFFFFFFFFFFFFFFFFFF AND CALLER PUSH20 0xFFFFFFFFFFFFFFFFFFFFFFFFFFFFFFFFFFFFFFFF AND PUSH32 0xD78AD95FA46C994B6551D0DA85FC275FE613CE37657FB8D5E3D130840159D822 DUP5 DUP5 DUP16 DUP16 PUSH1 0x40 MLOAD PUSH2 0xB84 SWAP5 SWAP4 SWAP3 SWAP2 SWAP1 PUSH2 0x3674 JUMP JUMPDEST PUSH1 0x40 MLOAD DUP1 SWAP2 SUB SWAP1 LOG3 POP POP POP POP POP POP PUSH1 0x1 PUSH1 0xC DUP2 SWAP1 SSTORE POP POP POP POP POP POP JUMP JUMPDEST PUSH1 0x40 MLOAD DUP1 PUSH1 0x40 ADD PUSH1 0x40 MSTORE DUP1 PUSH1 0xA DUP2 MSTORE PUSH1 0x20 ADD PUSH32 0x556E697377617020563200000000000000000000000000000000000000000000 DUP2 MSTORE POP DUP2 JUMP JUMPDEST PUSH1 0x0 DUP1 PUSH1 0x0 PUSH1 0x8 PUSH1 0x0 SWAP1 SLOAD SWAP1 PUSH2 0x100 EXP SWAP1 DIV PUSH14 0xFFFFFFFFFFFFFFFFFFFFFFFFFFFF AND SWAP3 POP PUSH1 0x8 PUSH1 0xE SWAP1 SLOAD SWAP1 PUSH2 0x100 EXP SWAP1 DIV PUSH14 0xFFFFFFFFFFFFFFFFFFFFFFFFFFFF AND SWAP2 POP PUSH1 0x8 PUSH1 0x1C SWAP1 SLOAD SWAP1 PUSH2 0x100 EXP SWAP1 DIV PUSH4 0xFFFFFFFF AND SWAP1 POP SWAP1 SWAP2 SWAP3 JUMP JUMPDEST PUSH1 0x0 PUSH2 0xC44 CALLER DUP5 DUP5 PUSH2 0x2493 JUMP JUMPDEST PUSH1 0x1 SWAP1 POP SWAP3 SWAP2 POP POP JUMP JUMPDEST PUSH1 0x6 PUSH1 0x0 SWAP1 SLOAD SWAP1 PUSH2 0x100 EXP SWAP1 DIV PUSH20 0xFFFFFFFFFFFFFFFFFFFFFFFFFFFFFFFFFFFFFFFF AND DUP2 JUMP JUMPDEST PUSH1 0x0 SLOAD DUP2 JUMP JUMPDEST PUSH1 0x0 PUSH32 0xFFFFFFFFFFFFFFFFFFFFFFFFFFFFFFFFFFFFFFFFFFFFFFFFFFFFFFFFFFFFFFFF PUSH1 0x2 PUSH1 0x0 DUP7 PUSH20 0xFFFFFFFFFFFFFFFFFFFFFFFFFFFFFFFFFFFFFFFF AND PUSH20 0xFFFFFFFFFFFFFFFFFFFFFFFFFFFFFFFFFFFFFFFF AND DUP2 MSTORE PUSH1 0x20 ADD SWAP1 DUP2 MSTORE PUSH1 0x20 ADD PUSH1 0x0 KECCAK256 PUSH1 0x0 CALLER PUSH20 0xFFFFFFFFFFFFFFFFFFFFFFFFFFFFFFFFFFFFFFFF AND PUSH20 0xFFFFFFFFFFFFFFFFFFFFFFFFFFFFFFFFFFFFFFFF AND DUP2 MSTORE PUSH1 0x20 ADD SWAP1 DUP2 MSTORE PUSH1 0x20 ADD PUSH1 0x0 KECCAK256 SLOAD EQ PUSH2 0xE2F JUMPI PUSH2 0xDAE DUP3 PUSH1 0x2 PUSH1 0x0 DUP8 PUSH20 0xFFFFFFFFFFFFFFFFFFFFFFFFFFFFFFFFFFFFFFFF AND PUSH20 0xFFFFFFFFFFFFFFFFFFFFFFFFFFFFFFFFFFFFFFFF AND DUP2 MSTORE PUSH1 0x20 ADD SWAP1 DUP2 MSTORE PUSH1 0x20 ADD PUSH1 0x0 KECCAK256 PUSH1 0x0 CALLER PUSH20 0xFFFFFFFFFFFFFFFFFFFFFFFFFFFFFFFFFFFFFFFF AND PUSH20 0xFFFFFFFFFFFFFFFFFFFFFFFFFFFFFFFFFFFFFFFF AND DUP2 MSTORE PUSH1 0x20 ADD SWAP1 DUP2 MSTORE PUSH1 0x20 ADD PUSH1 0x0 KECCAK256 SLOAD PUSH2 0x2146 SWAP1 SWAP2 SWAP1 PUSH4 0xFFFFFFFF AND JUMP JUMPDEST PUSH1 0x2 PUSH1 0x0 DUP7 PUSH20 0xFFFFFFFFFFFFFFFFFFFFFFFFFFFFFFFFFFFFFFFF AND PUSH20 0xFFFFFFFFFFFFFFFFFFFFFFFFFFFFFFFFFFFFFFFF AND DUP2 MSTORE PUSH1 0x20 ADD SWAP1 DUP2 MSTORE PUSH1 0x20 ADD PUSH1 0x0 KECCAK256 PUSH1 0x0 CALLER PUSH20 0xFFFFFFFFFFFFFFFFFFFFFFFFFFFFFFFFFFFFFFFF AND PUSH20 0xFFFFFFFFFFFFFFFFFFFFFFFFFFFFFFFFFFFFFFFF AND DUP2 MSTORE PUSH1 0x20 ADD SWAP1 DUP2 MSTORE PUSH1 0x20 ADD PUSH1 0x0 KECCAK256 DUP2 SWAP1 SSTORE POP JUMPDEST PUSH2 0xE3A DUP5 DUP5 DUP5 PUSH2 0x257E JUMP JUMPDEST PUSH1 0x1 SWAP1 POP SWAP4 SWAP3 POP POP POP JUMP JUMPDEST PUSH32 0x6E71EDAE12B1B97F4D1F60370FEF10105FA2FAAE0126114A169C64845D6126C9 PUSH1 0x0 SHL DUP2 JUMP JUMPDEST PUSH1 0x12 DUP2 JUMP JUMPDEST PUSH1 0x3 SLOAD DUP2 JUMP JUMPDEST PUSH1 0x5 PUSH1 0x0 SWAP1 SLOAD SWAP1 PUSH2 0x100 EXP SWAP1 DIV PUSH20 0xFFFFFFFFFFFFFFFFFFFFFFFFFFFFFFFFFFFFFFFF AND PUSH20 0xFFFFFFFFFFFFFFFFFFFFFFFFFFFFFFFFFFFFFFFF AND CALLER PUSH20 0xFFFFFFFFFFFFFFFFFFFFFFFFFFFFFFFFFFFFFFFF AND EQ PUSH2 0xF07 JUMPI PUSH1 0x40 MLOAD PUSH32 0x8C379A000000000000000000000000000000000000000000000000000000000 DUP2 MSTORE PUSH1 0x4 ADD PUSH2 0xEFE SWAP1 PUSH2 0x3705 JUMP JUMPDEST PUSH1 0x40 MLOAD DUP1 SWAP2 SUB SWAP1 REVERT JUMPDEST DUP2 PUSH1 0x6 PUSH1 0x0 PUSH2 0x100 EXP DUP2 SLOAD DUP2 PUSH20 0xFFFFFFFFFFFFFFFFFFFFFFFFFFFFFFFFFFFFFFFF MUL NOT AND SWAP1 DUP4 PUSH20 0xFFFFFFFFFFFFFFFFFFFFFFFFFFFFFFFFFFFFFFFF AND MUL OR SWAP1 SSTORE POP DUP1 PUSH1 0x7 PUSH1 0x0 PUSH2 0x100 EXP DUP2 SLOAD DUP2 PUSH20 0xFFFFFFFFFFFFFFFFFFFFFFFFFFFFFFFFFFFFFFFF MUL NOT AND SWAP1 DUP4 PUSH20 0xFFFFFFFFFFFFFFFFFFFFFFFFFFFFFFFFFFFFFFFF AND MUL OR SWAP1 SSTORE POP POP POP JUMP JUMPDEST PUSH1 0x9 SLOAD DUP2 JUMP JUMPDEST PUSH1 0xA SLOAD DUP2 JUMP JUMPDEST PUSH1 0x0 PUSH1 0x1 PUSH1 0xC SLOAD EQ PUSH2 0xFE0 JUMPI PUSH1 0x40 MLOAD PUSH32 0x8C379A000000000000000000000000000000000000000000000000000000000 DUP2 MSTORE PUSH1 0x4 ADD PUSH2 0xFD7 SWAP1 PUSH2 0x3286 JUMP JUMPDEST PUSH1 0x40 MLOAD DUP1 SWAP2 SUB SWAP1 REVERT JUMPDEST PUSH1 0x0 PUSH1 0xC DUP2 SWAP1 SSTORE POP PUSH1 0x0 DUP1 PUSH2 0xFF3 PUSH2 0xBDA JUMP JUMPDEST POP SWAP2 POP SWAP2 POP PUSH1 0x0 PUSH1 0x6 PUSH1 0x0 SWAP1 SLOAD SWAP1 PUSH2 0x100 EXP SWAP1 DIV PUSH20 0xFFFFFFFFFFFFFFFFFFFFFFFFFFFFFFFFFFFFFFFF AND PUSH20 0xFFFFFFFFFFFFFFFFFFFFFFFFFFFFFFFFFFFFFFFF AND PUSH4 0x70A08231 ADDRESS PUSH1 0x40 MLOAD DUP3 PUSH4 0xFFFFFFFF AND PUSH1 0xE0 SHL DUP2 MSTORE PUSH1 0x4 ADD PUSH2 0x1055 SWAP2 SWAP1 PUSH2 0x2FA7 JUMP JUMPDEST PUSH1 0x20 PUSH1 0x40 MLOAD DUP1 DUP4 SUB DUP2 DUP7 GAS STATICCALL ISZERO DUP1 ISZERO PUSH2 0x1072 JUMPI RETURNDATASIZE PUSH1 0x0 DUP1 RETURNDATACOPY RETURNDATASIZE PUSH1 0x0 REVERT JUMPDEST POP POP POP POP PUSH1 0x40 MLOAD RETURNDATASIZE PUSH1 0x1F NOT PUSH1 0x1F DUP3 ADD AND DUP3 ADD DUP1 PUSH1 0x40 MSTORE POP DUP2 ADD SWAP1 PUSH2 0x1096 SWAP2 SWAP1 PUSH2 0x34E6 JUMP JUMPDEST SWAP1 POP PUSH1 0x0 PUSH1 0x7 PUSH1 0x0 SWAP1 SLOAD SWAP1 PUSH2 0x100 EXP SWAP1 DIV PUSH20 0xFFFFFFFFFFFFFFFFFFFFFFFFFFFFFFFFFFFFFFFF AND PUSH20 0xFFFFFFFFFFFFFFFFFFFFFFFFFFFFFFFFFFFFFFFF AND PUSH4 0x70A08231 ADDRESS PUSH1 0x40 MLOAD DUP3 PUSH4 0xFFFFFFFF AND PUSH1 0xE0 SHL DUP2 MSTORE PUSH1 0x4 ADD PUSH2 0x10F5 SWAP2 SWAP1 PUSH2 0x2FA7 JUMP JUMPDEST PUSH1 0x20 PUSH1 0x40 MLOAD DUP1 DUP4 SUB DUP2 DUP7 GAS STATICCALL ISZERO DUP1 ISZERO PUSH2 0x1112 JUMPI RETURNDATASIZE PUSH1 0x0 DUP1 RETURNDATACOPY RETURNDATASIZE PUSH1 0x0 REVERT JUMPDEST POP POP POP POP PUSH1 0x40 MLOAD RETURNDATASIZE PUSH1 0x1F NOT PUSH1 0x1F DUP3 ADD AND DUP3 ADD DUP1 PUSH1 0x40 MSTORE POP DUP2 ADD SWAP1 PUSH2 0x1136 SWAP2 SWAP1 PUSH2 0x34E6 JUMP JUMPDEST SWAP1 POP PUSH1 0x0 PUSH2 0x115D DUP6 PUSH14 0xFFFFFFFFFFFFFFFFFFFFFFFFFFFF AND DUP5 PUSH2 0x2146 SWAP1 SWAP2 SWAP1 PUSH4 0xFFFFFFFF AND JUMP JUMPDEST SWAP1 POP PUSH1 0x0 PUSH2 0x1184 DUP6 PUSH14 0xFFFFFFFFFFFFFFFFFFFFFFFFFFFF AND DUP5 PUSH2 0x2146 SWAP1 SWAP2 SWAP1 PUSH4 0xFFFFFFFF AND JUMP JUMPDEST SWAP1 POP PUSH1 0x0 PUSH2 0x1192 DUP8 DUP8 PUSH2 0x2712 JUMP JUMPDEST SWAP1 POP PUSH1 0x0 DUP1 SLOAD SWAP1 POP PUSH1 0x0 DUP2 EQ ISZERO PUSH2 0x11E6 JUMPI PUSH2 0x11D2 PUSH2 0x3E8 PUSH2 0x11C4 PUSH2 0x11BF DUP7 DUP9 PUSH2 0x20D9 SWAP1 SWAP2 SWAP1 PUSH4 0xFFFFFFFF AND JUMP JUMPDEST PUSH2 0x28E3 JUMP JUMPDEST PUSH2 0x2146 SWAP1 SWAP2 SWAP1 PUSH4 0xFFFFFFFF AND JUMP JUMPDEST SWAP9 POP PUSH2 0x11E1 PUSH1 0x0 PUSH2 0x3E8 PUSH2 0x295D JUMP JUMPDEST PUSH2 0x124D JUMP JUMPDEST PUSH2 0x124A DUP9 PUSH14 0xFFFFFFFFFFFFFFFFFFFFFFFFFFFF AND PUSH2 0x120D DUP4 DUP8 PUSH2 0x20D9 SWAP1 SWAP2 SWAP1 PUSH4 0xFFFFFFFF AND JUMP JUMPDEST PUSH2 0x1217 SWAP2 SWAP1 PUSH2 0x3754 JUMP JUMPDEST DUP9 PUSH14 0xFFFFFFFFFFFFFFFFFFFFFFFFFFFF AND PUSH2 0x123B DUP5 DUP8 PUSH2 0x20D9 SWAP1 SWAP2 SWAP1 PUSH4 0xFFFFFFFF AND JUMP JUMPDEST PUSH2 0x1245 SWAP2 SWAP1 PUSH2 0x3754 JUMP JUMPDEST PUSH2 0x2A77 JUMP JUMPDEST SWAP9 POP JUMPDEST PUSH1 0x0 DUP10 GT PUSH2 0x1290 JUMPI PUSH1 0x40 MLOAD PUSH32 0x8C379A000000000000000000000000000000000000000000000000000000000 DUP2 MSTORE PUSH1 0x4 ADD PUSH2 0x1287 SWAP1 PUSH2 0x37F7 JUMP JUMPDEST PUSH1 0x40 MLOAD DUP1 SWAP2 SUB SWAP1 REVERT JUMPDEST PUSH2 0x129A DUP11 DUP11 PUSH2 0x295D JUMP JUMPDEST PUSH2 0x12A6 DUP7 DUP7 DUP11 DUP11 PUSH2 0x219F JUMP JUMPDEST DUP2 ISZERO PUSH2 0x131E JUMPI PUSH2 0x1317 PUSH1 0x8 PUSH1 0xE SWAP1 SLOAD SWAP1 PUSH2 0x100 EXP SWAP1 DIV PUSH14 0xFFFFFFFFFFFFFFFFFFFFFFFFFFFF AND PUSH14 0xFFFFFFFFFFFFFFFFFFFFFFFFFFFF AND PUSH1 0x8 PUSH1 0x0 SWAP1 SLOAD SWAP1 PUSH2 0x100 EXP SWAP1 DIV PUSH14 0xFFFFFFFFFFFFFFFFFFFFFFFFFFFF AND PUSH14 0xFFFFFFFFFFFFFFFFFFFFFFFFFFFF AND PUSH2 0x20D9 SWAP1 SWAP2 SWAP1 PUSH4 0xFFFFFFFF AND JUMP JUMPDEST PUSH1 0xB DUP2 SWAP1 SSTORE POP JUMPDEST CALLER PUSH20 0xFFFFFFFFFFFFFFFFFFFFFFFFFFFFFFFFFFFFFFFF AND PUSH32 0x4C209B5FC8AD50758F13E2E1088BA56A560DFF690A1C6FEF26394F4C03821C4F DUP6 DUP6 PUSH1 0x40 MLOAD PUSH2 0x1366 SWAP3 SWAP2 SWAP1 PUSH2 0x3117 JUMP JUMPDEST PUSH1 0x40 MLOAD DUP1 SWAP2 SUB SWAP1 LOG2 POP POP POP POP POP POP POP POP PUSH1 0x1 PUSH1 0xC DUP2 SWAP1 SSTORE POP SWAP2 SWAP1 POP JUMP JUMPDEST PUSH1 0x1 PUSH1 0x20 MSTORE DUP1 PUSH1 0x0 MSTORE PUSH1 0x40 PUSH1 0x0 KECCAK256 PUSH1 0x0 SWAP2 POP SWAP1 POP SLOAD DUP2 JUMP JUMPDEST PUSH1 0xB SLOAD DUP2 JUMP JUMPDEST PUSH1 0x4 PUSH1 0x20 MSTORE DUP1 PUSH1 0x0 MSTORE PUSH1 0x40 PUSH1 0x0 KECCAK256 PUSH1 0x0 SWAP2 POP SWAP1 POP SLOAD DUP2 JUMP JUMPDEST PUSH1 0x0 DUP1 PUSH1 0x1 PUSH1 0xC SLOAD EQ PUSH2 0x1401 JUMPI PUSH1 0x40 MLOAD PUSH32 0x8C379A000000000000000000000000000000000000000000000000000000000 DUP2 MSTORE PUSH1 0x4 ADD PUSH2 0x13F8 SWAP1 PUSH2 0x3286 JUMP JUMPDEST PUSH1 0x40 MLOAD DUP1 SWAP2 SUB SWAP1 REVERT JUMPDEST PUSH1 0x0 PUSH1 0xC DUP2 SWAP1 SSTORE POP PUSH1 0x0 DUP1 PUSH2 0x1414 PUSH2 0xBDA JUMP JUMPDEST POP SWAP2 POP SWAP2 POP PUSH1 0x0 PUSH1 0x6 PUSH1 0x0 SWAP1 SLOAD SWAP1 PUSH2 0x100 EXP SWAP1 DIV PUSH20 0xFFFFFFFFFFFFFFFFFFFFFFFFFFFFFFFFFFFFFFFF AND SWAP1 POP PUSH1 0x0 PUSH1 0x7 PUSH1 0x0 SWAP1 SLOAD SWAP1 PUSH2 0x100 EXP SWAP1 DIV PUSH20 0xFFFFFFFFFFFFFFFFFFFFFFFFFFFFFFFFFFFFFFFF AND SWAP1 POP PUSH1 0x0 DUP3 PUSH20 0xFFFFFFFFFFFFFFFFFFFFFFFFFFFFFFFFFFFFFFFF AND PUSH4 0x70A08231 ADDRESS PUSH1 0x40 MLOAD DUP3 PUSH4 0xFFFFFFFF AND PUSH1 0xE0 SHL DUP2 MSTORE PUSH1 0x4 ADD PUSH2 0x14A2 SWAP2 SWAP1 PUSH2 0x2FA7 JUMP JUMPDEST PUSH1 0x20 PUSH1 0x40 MLOAD DUP1 DUP4 SUB DUP2 DUP7 GAS STATICCALL ISZERO DUP1 ISZERO PUSH2 0x14BF JUMPI RETURNDATASIZE PUSH1 0x0 DUP1 RETURNDATACOPY RETURNDATASIZE PUSH1 0x0 REVERT JUMPDEST POP POP POP POP PUSH1 0x40 MLOAD RETURNDATASIZE PUSH1 0x1F NOT PUSH1 0x1F DUP3 ADD AND DUP3 ADD DUP1 PUSH1 0x40 MSTORE POP DUP2 ADD SWAP1 PUSH2 0x14E3 SWAP2 SWAP1 PUSH2 0x34E6 JUMP JUMPDEST SWAP1 POP PUSH1 0x0 DUP3 PUSH20 0xFFFFFFFFFFFFFFFFFFFFFFFFFFFFFFFFFFFFFFFF AND PUSH4 0x70A08231 ADDRESS PUSH1 0x40 MLOAD DUP3 PUSH4 0xFFFFFFFF AND PUSH1 0xE0 SHL DUP2 MSTORE PUSH1 0x4 ADD PUSH2 0x1520 SWAP2 SWAP1 PUSH2 0x2FA7 JUMP JUMPDEST PUSH1 0x20 PUSH1 0x40 MLOAD DUP1 DUP4 SUB DUP2 DUP7 GAS STATICCALL ISZERO DUP1 ISZERO PUSH2 0x153D JUMPI RETURNDATASIZE PUSH1 0x0 DUP1 RETURNDATACOPY RETURNDATASIZE PUSH1 0x0 REVERT JUMPDEST POP POP POP POP PUSH1 0x40 MLOAD RETURNDATASIZE PUSH1 0x1F NOT PUSH1 0x1F DUP3 ADD AND DUP3 ADD DUP1 PUSH1 0x40 MSTORE POP DUP2 ADD SWAP1 PUSH2 0x1561 SWAP2 SWAP1 PUSH2 0x34E6 JUMP JUMPDEST SWAP1 POP PUSH1 0x0 PUSH1 0x1 PUSH1 0x0 ADDRESS PUSH20 0xFFFFFFFFFFFFFFFFFFFFFFFFFFFFFFFFFFFFFFFF AND PUSH20 0xFFFFFFFFFFFFFFFFFFFFFFFFFFFFFFFFFFFFFFFF AND DUP2 MSTORE PUSH1 0x20 ADD SWAP1 DUP2 MSTORE PUSH1 0x20 ADD PUSH1 0x0 KECCAK256 SLOAD SWAP1 POP PUSH1 0x0 PUSH2 0x15B3 DUP9 DUP9 PUSH2 0x2712 JUMP JUMPDEST SWAP1 POP PUSH1 0x0 DUP1 SLOAD SWAP1 POP DUP1 PUSH2 0x15CF DUP7 DUP6 PUSH2 0x20D9 SWAP1 SWAP2 SWAP1 PUSH4 0xFFFFFFFF AND JUMP JUMPDEST PUSH2 0x15D9 SWAP2 SWAP1 PUSH2 0x3754 JUMP JUMPDEST SWAP11 POP DUP1 PUSH2 0x15EF DUP6 DUP6 PUSH2 0x20D9 SWAP1 SWAP2 SWAP1 PUSH4 0xFFFFFFFF AND JUMP JUMPDEST PUSH2 0x15F9 SWAP2 SWAP1 PUSH2 0x3754 JUMP JUMPDEST SWAP10 POP PUSH1 0x0 DUP12 GT DUP1 ISZERO PUSH2 0x160B JUMPI POP PUSH1 0x0 DUP11 GT JUMPDEST PUSH2 0x164A JUMPI PUSH1 0x40 MLOAD PUSH32 0x8C379A000000000000000000000000000000000000000000000000000000000 DUP2 MSTORE PUSH1 0x4 ADD PUSH2 0x1641 SWAP1 PUSH2 0x3889 JUMP JUMPDEST PUSH1 0x40 MLOAD DUP1 SWAP2 SUB SWAP1 REVERT JUMPDEST PUSH2 0x1654 ADDRESS DUP5 PUSH2 0x2A90 JUMP JUMPDEST PUSH2 0x165F DUP8 DUP14 DUP14 PUSH2 0x1F4F JUMP JUMPDEST PUSH2 0x166A DUP7 DUP14 DUP13 PUSH2 0x1F4F JUMP JUMPDEST DUP7 PUSH20 0xFFFFFFFFFFFFFFFFFFFFFFFFFFFFFFFFFFFFFFFF AND PUSH4 0x70A08231 ADDRESS PUSH1 0x40 MLOAD DUP3 PUSH4 0xFFFFFFFF AND PUSH1 0xE0 SHL DUP2 MSTORE PUSH1 0x4 ADD PUSH2 0x16A3 SWAP2 SWAP1 PUSH2 0x2FA7 JUMP JUMPDEST PUSH1 0x20 PUSH1 0x40 MLOAD DUP1 DUP4 SUB DUP2 DUP7 GAS STATICCALL ISZERO DUP1 ISZERO PUSH2 0x16C0 JUMPI RETURNDATASIZE PUSH1 0x0 DUP1 RETURNDATACOPY RETURNDATASIZE PUSH1 0x0 REVERT JUMPDEST POP POP POP POP PUSH1 0x40 MLOAD RETURNDATASIZE PUSH1 0x1F NOT PUSH1 0x1F DUP3 ADD AND DUP3 ADD DUP1 PUSH1 0x40 MSTORE POP DUP2 ADD SWAP1 PUSH2 0x16E4 SWAP2 SWAP1 PUSH2 0x34E6 JUMP JUMPDEST SWAP5 POP DUP6 PUSH20 0xFFFFFFFFFFFFFFFFFFFFFFFFFFFFFFFFFFFFFFFF AND PUSH4 0x70A08231 ADDRESS PUSH1 0x40 MLOAD DUP3 PUSH4 0xFFFFFFFF AND PUSH1 0xE0 SHL DUP2 MSTORE PUSH1 0x4 ADD PUSH2 0x171F SWAP2 SWAP1 PUSH2 0x2FA7 JUMP JUMPDEST PUSH1 0x20 PUSH1 0x40 MLOAD DUP1 DUP4 SUB DUP2 DUP7 GAS STATICCALL ISZERO DUP1 ISZERO PUSH2 0x173C JUMPI RETURNDATASIZE PUSH1 0x0 DUP1 RETURNDATACOPY RETURNDATASIZE PUSH1 0x0 REVERT JUMPDEST POP POP POP POP PUSH1 0x40 MLOAD RETURNDATASIZE PUSH1 0x1F NOT PUSH1 0x1F DUP3 ADD AND DUP3 ADD DUP1 PUSH1 0x40 MSTORE POP DUP2 ADD SWAP1 PUSH2 0x1760 SWAP2 SWAP1 PUSH2 0x34E6 JUMP JUMPDEST SWAP4 POP PUSH2 0x176E DUP6 DUP6 DUP12 DUP12 PUSH2 0x219F JUMP JUMPDEST DUP2 ISZERO PUSH2 0x17E6 JUMPI PUSH2 0x17DF PUSH1 0x8 PUSH1 0xE SWAP1 SLOAD SWAP1 PUSH2 0x100 EXP SWAP1 DIV PUSH14 0xFFFFFFFFFFFFFFFFFFFFFFFFFFFF AND PUSH14 0xFFFFFFFFFFFFFFFFFFFFFFFFFFFF AND PUSH1 0x8 PUSH1 0x0 SWAP1 SLOAD SWAP1 PUSH2 0x100 EXP SWAP1 DIV PUSH14 0xFFFFFFFFFFFFFFFFFFFFFFFFFFFF AND PUSH14 0xFFFFFFFFFFFFFFFFFFFFFFFFFFFF AND PUSH2 0x20D9 SWAP1 SWAP2 SWAP1 PUSH4 0xFFFFFFFF AND JUMP JUMPDEST PUSH1 0xB DUP2 SWAP1 SSTORE POP JUMPDEST DUP12 PUSH20 0xFFFFFFFFFFFFFFFFFFFFFFFFFFFFFFFFFFFFFFFF AND CALLER PUSH20 0xFFFFFFFFFFFFFFFFFFFFFFFFFFFFFFFFFFFFFFFF AND PUSH32 0xDCCD412F0B1252819CB1FD330B93224CA42612892BB3F4F789976E6D81936496 DUP14 DUP14 PUSH1 0x40 MLOAD PUSH2 0x1845 SWAP3 SWAP2 SWAP1 PUSH2 0x3117 JUMP JUMPDEST PUSH1 0x40 MLOAD DUP1 SWAP2 SUB SWAP1 LOG3 POP POP POP POP POP POP POP POP POP PUSH1 0x1 PUSH1 0xC DUP2 SWAP1 SSTORE POP SWAP2 POP SWAP2 JUMP JUMPDEST PUSH1 0x40 MLOAD DUP1 PUSH1 0x40 ADD PUSH1 0x40 MSTORE DUP1 PUSH1 0x6 DUP2 MSTORE PUSH1 0x20 ADD PUSH32 0x554E492D56320000000000000000000000000000000000000000000000000000 DUP2 MSTORE POP DUP2 JUMP JUMPDEST PUSH1 0x0 PUSH2 0x18A9 CALLER DUP5 DUP5 PUSH2 0x257E JUMP JUMPDEST PUSH1 0x1 SWAP1 POP SWAP3 SWAP2 POP POP JUMP JUMPDEST PUSH2 0x3E8 DUP2 JUMP JUMPDEST PUSH1 0x1 PUSH1 0xC SLOAD EQ PUSH2 0x18FE JUMPI PUSH1 0x40 MLOAD PUSH32 0x8C379A000000000000000000000000000000000000000000000000000000000 DUP2 MSTORE PUSH1 0x4 ADD PUSH2 0x18F5 SWAP1 PUSH2 0x3286 JUMP JUMPDEST PUSH1 0x40 MLOAD DUP1 SWAP2 SUB SWAP1 REVERT JUMPDEST PUSH1 0x0 PUSH1 0xC DUP2 SWAP1 SSTORE POP PUSH1 0x0 PUSH1 0x6 PUSH1 0x0 SWAP1 SLOAD SWAP1 PUSH2 0x100 EXP SWAP1 DIV PUSH20 0xFFFFFFFFFFFFFFFFFFFFFFFFFFFFFFFFFFFFFFFF AND SWAP1 POP PUSH1 0x0 PUSH1 0x7 PUSH1 0x0 SWAP1 SLOAD SWAP1 PUSH2 0x100 EXP SWAP1 DIV PUSH20 0xFFFFFFFFFFFFFFFFFFFFFFFFFFFFFFFFFFFFFFFF AND SWAP1 POP PUSH2 0x1A16 DUP3 DUP5 PUSH2 0x1A11 PUSH1 0x8 PUSH1 0x0 SWAP1 SLOAD SWAP1 PUSH2 0x100 EXP SWAP1 DIV PUSH14 0xFFFFFFFFFFFFFFFFFFFFFFFFFFFF AND PUSH14 0xFFFFFFFFFFFFFFFFFFFFFFFFFFFF AND DUP7 PUSH20 0xFFFFFFFFFFFFFFFFFFFFFFFFFFFFFFFFFFFFFFFF AND PUSH4 0x70A08231 ADDRESS PUSH1 0x40 MLOAD DUP3 PUSH4 0xFFFFFFFF AND PUSH1 0xE0 SHL DUP2 MSTORE PUSH1 0x4 ADD PUSH2 0x19C2 SWAP2 SWAP1 PUSH2 0x2FA7 JUMP JUMPDEST PUSH1 0x20 PUSH1 0x40 MLOAD DUP1 DUP4 SUB DUP2 DUP7 GAS STATICCALL ISZERO DUP1 ISZERO PUSH2 0x19DF JUMPI RETURNDATASIZE PUSH1 0x0 DUP1 RETURNDATACOPY RETURNDATASIZE PUSH1 0x0 REVERT JUMPDEST POP POP POP POP PUSH1 0x40 MLOAD RETURNDATASIZE PUSH1 0x1F NOT PUSH1 0x1F DUP3 ADD AND DUP3 ADD DUP1 PUSH1 0x40 MSTORE POP DUP2 ADD SWAP1 PUSH2 0x1A03 SWAP2 SWAP1 PUSH2 0x34E6 JUMP JUMPDEST PUSH2 0x2146 SWAP1 SWAP2 SWAP1 PUSH4 0xFFFFFFFF AND JUMP JUMPDEST PUSH2 0x1F4F JUMP JUMPDEST PUSH2 0x1AD8 DUP2 DUP5 PUSH2 0x1AD3 PUSH1 0x8 PUSH1 0xE SWAP1 SLOAD SWAP1 PUSH2 0x100 EXP SWAP1 DIV PUSH14 0xFFFFFFFFFFFFFFFFFFFFFFFFFFFF AND PUSH14 0xFFFFFFFFFFFFFFFFFFFFFFFFFFFF AND DUP6 PUSH20 0xFFFFFFFFFFFFFFFFFFFFFFFFFFFFFFFFFFFFFFFF AND PUSH4 0x70A08231 ADDRESS PUSH1 0x40 MLOAD DUP3 PUSH4 0xFFFFFFFF AND PUSH1 0xE0 SHL DUP2 MSTORE PUSH1 0x4 ADD PUSH2 0x1A84 SWAP2 SWAP1 PUSH2 0x2FA7 JUMP JUMPDEST PUSH1 0x20 PUSH1 0x40 MLOAD DUP1 DUP4 SUB DUP2 DUP7 GAS STATICCALL ISZERO DUP1 ISZERO PUSH2 0x1AA1 JUMPI RETURNDATASIZE PUSH1 0x0 DUP1 RETURNDATACOPY RETURNDATASIZE PUSH1 0x0 REVERT JUMPDEST POP POP POP POP PUSH1 0x40 MLOAD RETURNDATASIZE PUSH1 0x1F NOT PUSH1 0x1F DUP3 ADD AND DUP3 ADD DUP1 PUSH1 0x40 MSTORE POP DUP2 ADD SWAP1 PUSH2 0x1AC5 SWAP2 SWAP1 PUSH2 0x34E6 JUMP JUMPDEST PUSH2 0x2146 SWAP1 SWAP2 SWAP1 PUSH4 0xFFFFFFFF AND JUMP JUMPDEST PUSH2 0x1F4F JUMP JUMPDEST POP POP PUSH1 0x1 PUSH1 0xC DUP2 SWAP1 SSTORE POP POP JUMP JUMPDEST PUSH1 0x5 PUSH1 0x0 SWAP1 SLOAD SWAP1 PUSH2 0x100 EXP SWAP1 DIV PUSH20 0xFFFFFFFFFFFFFFFFFFFFFFFFFFFFFFFFFFFFFFFF AND DUP2 JUMP JUMPDEST PUSH1 0x7 PUSH1 0x0 SWAP1 SLOAD SWAP1 PUSH2 0x100 EXP SWAP1 DIV PUSH20 0xFFFFFFFFFFFFFFFFFFFFFFFFFFFFFFFFFFFFFFFF AND DUP2 JUMP JUMPDEST TIMESTAMP DUP5 LT ISZERO PUSH2 0x1B74 JUMPI PUSH1 0x40 MLOAD PUSH32 0x8C379A000000000000000000000000000000000000000000000000000000000 DUP2 MSTORE PUSH1 0x4 ADD PUSH2 0x1B6B SWAP1 PUSH2 0x38F5 JUMP JUMPDEST PUSH1 0x40 MLOAD DUP1 SWAP2 SUB SWAP1 REVERT JUMPDEST PUSH1 0x0 PUSH1 0x3 SLOAD PUSH32 0x6E71EDAE12B1B97F4D1F60370FEF10105FA2FAAE0126114A169C64845D6126C9 PUSH1 0x0 SHL DUP10 DUP10 DUP10 PUSH1 0x4 PUSH1 0x0 DUP15 PUSH20 0xFFFFFFFFFFFFFFFFFFFFFFFFFFFFFFFFFFFFFFFF AND PUSH20 0xFFFFFFFFFFFFFFFFFFFFFFFFFFFFFFFFFFFFFFFF AND DUP2 MSTORE PUSH1 0x20 ADD SWAP1 DUP2 MSTORE PUSH1 0x20 ADD PUSH1 0x0 KECCAK256 PUSH1 0x0 DUP2 SLOAD DUP1 SWAP3 SWAP2 SWAP1 PUSH2 0x1BF0 SWAP1 PUSH2 0x3915 JUMP JUMPDEST SWAP2 SWAP1 POP SSTORE DUP11 PUSH1 0x40 MLOAD PUSH1 0x20 ADD PUSH2 0x1C0A SWAP7 SWAP6 SWAP5 SWAP4 SWAP3 SWAP2 SWAP1 PUSH2 0x395E JUMP JUMPDEST PUSH1 0x40 MLOAD PUSH1 0x20 DUP2 DUP4 SUB SUB DUP2 MSTORE SWAP1 PUSH1 0x40 MSTORE DUP1 MLOAD SWAP1 PUSH1 0x20 ADD KECCAK256 PUSH1 0x40 MLOAD PUSH1 0x20 ADD PUSH2 0x1C31 SWAP3 SWAP2 SWAP1 PUSH2 0x3A37 JUMP JUMPDEST PUSH1 0x40 MLOAD PUSH1 0x20 DUP2 DUP4 SUB SUB DUP2 MSTORE SWAP1 PUSH1 0x40 MSTORE DUP1 MLOAD SWAP1 PUSH1 0x20 ADD KECCAK256 SWAP1 POP PUSH1 0x0 PUSH1 0x1 DUP3 DUP7 DUP7 DUP7 PUSH1 0x40 MLOAD PUSH1 0x0 DUP2 MSTORE PUSH1 0x20 ADD PUSH1 0x40 MSTORE PUSH1 0x40 MLOAD PUSH2 0x1C6E SWAP5 SWAP4 SWAP3 SWAP2 SWAP1 PUSH2 0x3A6E JUMP JUMPDEST PUSH1 0x20 PUSH1 0x40 MLOAD PUSH1 0x20 DUP2 SUB SWAP1 DUP1 DUP5 SUB SWAP1 DUP6 GAS STATICCALL ISZERO DUP1 ISZERO PUSH2 0x1C90 JUMPI RETURNDATASIZE PUSH1 0x0 DUP1 RETURNDATACOPY RETURNDATASIZE PUSH1 0x0 REVERT JUMPDEST POP POP POP PUSH1 0x20 PUSH1 0x40 MLOAD SUB MLOAD SWAP1 POP PUSH1 0x0 PUSH20 0xFFFFFFFFFFFFFFFFFFFFFFFFFFFFFFFFFFFFFFFF AND DUP2 PUSH20 0xFFFFFFFFFFFFFFFFFFFFFFFFFFFFFFFFFFFFFFFF AND EQ ISZERO DUP1 ISZERO PUSH2 0x1D04 JUMPI POP DUP9 PUSH20 0xFFFFFFFFFFFFFFFFFFFFFFFFFFFFFFFFFFFFFFFF AND DUP2 PUSH20 0xFFFFFFFFFFFFFFFFFFFFFFFFFFFFFFFFFFFFFFFF AND EQ JUMPDEST PUSH2 0x1D43 JUMPI PUSH1 0x40 MLOAD PUSH32 0x8C379A000000000000000000000000000000000000000000000000000000000 DUP2 MSTORE PUSH1 0x4 ADD PUSH2 0x1D3A SWAP1 PUSH2 0x3AFF JUMP JUMPDEST PUSH1 0x40 MLOAD DUP1 SWAP2 SUB SWAP1 REVERT JUMPDEST PUSH2 0x1D4E DUP10 DUP10 DUP10 PUSH2 0x2493 JUMP JUMPDEST POP POP POP POP POP POP POP POP POP JUMP JUMPDEST PUSH1 0x2 PUSH1 0x20 MSTORE DUP2 PUSH1 0x0 MSTORE PUSH1 0x40 PUSH1 0x0 KECCAK256 PUSH1 0x20 MSTORE DUP1 PUSH1 0x0 MSTORE PUSH1 0x40 PUSH1 0x0 KECCAK256 PUSH1 0x0 SWAP2 POP SWAP2 POP POP SLOAD DUP2 JUMP JUMPDEST PUSH1 0x1 PUSH1 0xC SLOAD EQ PUSH2 0x1DC3 JUMPI PUSH1 0x40 MLOAD PUSH32 0x8C379A000000000000000000000000000000000000000000000000000000000 DUP2 MSTORE PUSH1 0x4 ADD PUSH2 0x1DBA SWAP1 PUSH2 0x3286 JUMP JUMPDEST PUSH1 0x40 MLOAD DUP1 SWAP2 SUB SWAP1 REVERT JUMPDEST PUSH1 0x0 PUSH1 0xC DUP2 SWAP1 SSTORE POP PUSH2 0x1F45 PUSH1 0x6 PUSH1 0x0 SWAP1 SLOAD SWAP1 PUSH2 0x100 EXP SWAP1 DIV PUSH20 0xFFFFFFFFFFFFFFFFFFFFFFFFFFFFFFFFFFFFFFFF AND PUSH20 0xFFFFFFFFFFFFFFFFFFFFFFFFFFFFFFFFFFFFFFFF AND PUSH4 0x70A08231 ADDRESS PUSH1 0x40 MLOAD DUP3 PUSH4 0xFFFFFFFF AND PUSH1 0xE0 SHL DUP2 MSTORE PUSH1 0x4 ADD PUSH2 0x1E29 SWAP2 SWAP1 PUSH2 0x2FA7 JUMP JUMPDEST PUSH1 0x20 PUSH1 0x40 MLOAD DUP1 DUP4 SUB DUP2 DUP7 GAS STATICCALL ISZERO DUP1 ISZERO PUSH2 0x1E46 JUMPI RETURNDATASIZE PUSH1 0x0 DUP1 RETURNDATACOPY RETURNDATASIZE PUSH1 0x0 REVERT JUMPDEST POP POP POP POP PUSH1 0x40 MLOAD RETURNDATASIZE PUSH1 0x1F NOT PUSH1 0x1F DUP3 ADD AND DUP3 ADD DUP1 PUSH1 0x40 MSTORE POP DUP2 ADD SWAP1 PUSH2 0x1E6A SWAP2 SWAP1 PUSH2 0x34E6 JUMP JUMPDEST PUSH1 0x7 PUSH1 0x0 SWAP1 SLOAD SWAP1 PUSH2 0x100 EXP SWAP1 DIV PUSH20 0xFFFFFFFFFFFFFFFFFFFFFFFFFFFFFFFFFFFFFFFF AND PUSH20 0xFFFFFFFFFFFFFFFFFFFFFFFFFFFFFFFFFFFFFFFF AND PUSH4 0x70A08231 ADDRESS PUSH1 0x40 MLOAD DUP3 PUSH4 0xFFFFFFFF AND PUSH1 0xE0 SHL DUP2 MSTORE PUSH1 0x4 ADD PUSH2 0x1EC5 SWAP2 SWAP1 PUSH2 0x2FA7 JUMP JUMPDEST PUSH1 0x20 PUSH1 0x40 MLOAD DUP1 DUP4 SUB DUP2 DUP7 GAS STATICCALL ISZERO DUP1 ISZERO PUSH2 0x1EE2 JUMPI RETURNDATASIZE PUSH1 0x0 DUP1 RETURNDATACOPY RETURNDATASIZE PUSH1 0x0 REVERT JUMPDEST POP POP POP POP PUSH1 0x40 MLOAD RETURNDATASIZE PUSH1 0x1F NOT PUSH1 0x1F DUP3 ADD AND DUP3 ADD DUP1 PUSH1 0x40 MSTORE POP DUP2 ADD SWAP1 PUSH2 0x1F06 SWAP2 SWAP1 PUSH2 0x34E6 JUMP JUMPDEST PUSH1 0x8 PUSH1 0x0 SWAP1 SLOAD SWAP1 PUSH2 0x100 EXP SWAP1 DIV PUSH14 0xFFFFFFFFFFFFFFFFFFFFFFFFFFFF AND PUSH1 0x8 PUSH1 0xE SWAP1 SLOAD SWAP1 PUSH2 0x100 EXP SWAP1 DIV PUSH14 0xFFFFFFFFFFFFFFFFFFFFFFFFFFFF AND PUSH2 0x219F JUMP JUMPDEST PUSH1 0x1 PUSH1 0xC DUP2 SWAP1 SSTORE POP JUMP JUMPDEST PUSH1 0x0 DUP1 DUP5 PUSH20 0xFFFFFFFFFFFFFFFFFFFFFFFFFFFFFFFFFFFFFFFF AND PUSH1 0x40 MLOAD DUP1 PUSH1 0x40 ADD PUSH1 0x40 MSTORE DUP1 PUSH1 0x19 DUP2 MSTORE PUSH1 0x20 ADD PUSH32 0x7472616E7366657228616464726573732C75696E743235362900000000000000 DUP2 MSTORE POP DUP1 MLOAD SWAP1 PUSH1 0x20 ADD KECCAK256 DUP6 DUP6 PUSH1 0x40 MLOAD PUSH1 0x24 ADD PUSH2 0x1FB9 SWAP3 SWAP2 SWAP1 PUSH2 0x3B1F JUMP JUMPDEST PUSH1 0x40 MLOAD PUSH1 0x20 DUP2 DUP4 SUB SUB DUP2 MSTORE SWAP1 PUSH1 0x40 MSTORE SWAP1 PUSH28 0xFFFFFFFFFFFFFFFFFFFFFFFFFFFFFFFFFFFFFFFFFFFFFFFFFFFFFFFF NOT AND PUSH1 0x20 DUP3 ADD DUP1 MLOAD PUSH28 0xFFFFFFFFFFFFFFFFFFFFFFFFFFFFFFFFFFFFFFFFFFFFFFFFFFFFFFFF DUP4 DUP2 DUP4 AND OR DUP4 MSTORE POP POP POP POP PUSH1 0x40 MLOAD PUSH2 0x2023 SWAP2 SWAP1 PUSH2 0x3B8F JUMP JUMPDEST PUSH1 0x0 PUSH1 0x40 MLOAD DUP1 DUP4 SUB DUP2 PUSH1 0x0 DUP7 GAS CALL SWAP2 POP POP RETURNDATASIZE DUP1 PUSH1 0x0 DUP2 EQ PUSH2 0x2060 JUMPI PUSH1 0x40 MLOAD SWAP2 POP PUSH1 0x1F NOT PUSH1 0x3F RETURNDATASIZE ADD AND DUP3 ADD PUSH1 0x40 MSTORE RETURNDATASIZE DUP3 MSTORE RETURNDATASIZE PUSH1 0x0 PUSH1 0x20 DUP5 ADD RETURNDATACOPY PUSH2 0x2065 JUMP JUMPDEST PUSH1 0x60 SWAP2 POP JUMPDEST POP SWAP2 POP SWAP2 POP DUP2 DUP1 ISZERO PUSH2 0x2093 JUMPI POP PUSH1 0x0 DUP2 MLOAD EQ DUP1 PUSH2 0x2092 JUMPI POP DUP1 DUP1 PUSH1 0x20 ADD SWAP1 MLOAD DUP2 ADD SWAP1 PUSH2 0x2091 SWAP2 SWAP1 PUSH2 0x3BD2 JUMP JUMPDEST JUMPDEST JUMPDEST PUSH2 0x20D2 JUMPI PUSH1 0x40 MLOAD PUSH32 0x8C379A000000000000000000000000000000000000000000000000000000000 DUP2 MSTORE PUSH1 0x4 ADD PUSH2 0x20C9 SWAP1 PUSH2 0x3C4B JUMP JUMPDEST PUSH1 0x40 MLOAD DUP1 SWAP2 SUB SWAP1 REVERT JUMPDEST POP POP POP POP POP JUMP JUMPDEST PUSH1 0x0 DUP1 DUP3 EQ DUP1 PUSH2 0x2101 JUMPI POP DUP3 DUP3 DUP4 DUP6 PUSH2 0x20F2 SWAP2 SWAP1 PUSH2 0x3C6B JUMP JUMPDEST SWAP3 POP DUP3 PUSH2 0x20FF SWAP2 SWAP1 PUSH2 0x3754 JUMP JUMPDEST EQ JUMPDEST PUSH2 0x2140 JUMPI PUSH1 0x40 MLOAD PUSH32 0x8C379A000000000000000000000000000000000000000000000000000000000 DUP2 MSTORE PUSH1 0x4 ADD PUSH2 0x2137 SWAP1 PUSH2 0x3D11 JUMP JUMPDEST PUSH1 0x40 MLOAD DUP1 SWAP2 SUB SWAP1 REVERT JUMPDEST SWAP3 SWAP2 POP POP JUMP JUMPDEST PUSH1 0x0 DUP3 DUP3 DUP5 PUSH2 0x2155 SWAP2 SWAP1 PUSH2 0x3542 JUMP JUMPDEST SWAP2 POP DUP2 GT ISZERO PUSH2 0x2199 JUMPI PUSH1 0x40 MLOAD PUSH32 0x8C379A000000000000000000000000000000000000000000000000000000000 DUP2 MSTORE PUSH1 0x4 ADD PUSH2 0x2190 SWAP1 PUSH2 0x3D7D JUMP JUMPDEST PUSH1 0x40 MLOAD DUP1 SWAP2 SUB SWAP1 REVERT JUMPDEST SWAP3 SWAP2 POP POP JUMP JUMPDEST PUSH14 0xFFFFFFFFFFFFFFFFFFFFFFFFFFFF DUP1 AND DUP5 GT ISZERO DUP1 ISZERO PUSH2 0x21CF JUMPI POP PUSH14 0xFFFFFFFFFFFFFFFFFFFFFFFFFFFF DUP1 AND DUP4 GT ISZERO JUMPDEST PUSH2 0x220E JUMPI PUSH1 0x40 MLOAD PUSH32 0x8C379A000000000000000000000000000000000000000000000000000000000 DUP2 MSTORE PUSH1 0x4 ADD PUSH2 0x2205 SWAP1 PUSH2 0x3DE9 JUMP JUMPDEST PUSH1 0x40 MLOAD DUP1 SWAP2 SUB SWAP1 REVERT JUMPDEST PUSH1 0x0 PUSH5 0x100000000 TIMESTAMP PUSH2 0x2221 SWAP2 SWAP1 PUSH2 0x3E09 JUMP JUMPDEST SWAP1 POP PUSH1 0x0 PUSH1 0x8 PUSH1 0x1C SWAP1 SLOAD SWAP1 PUSH2 0x100 EXP SWAP1 DIV PUSH4 0xFFFFFFFF AND DUP3 PUSH2 0x2243 SWAP2 SWAP1 PUSH2 0x3E3A JUMP JUMPDEST SWAP1 POP PUSH1 0x0 DUP2 PUSH4 0xFFFFFFFF AND GT DUP1 ISZERO PUSH2 0x226C JUMPI POP PUSH1 0x0 DUP5 PUSH14 0xFFFFFFFFFFFFFFFFFFFFFFFFFFFF AND EQ ISZERO JUMPDEST DUP1 ISZERO PUSH2 0x2289 JUMPI POP PUSH1 0x0 DUP4 PUSH14 0xFFFFFFFFFFFFFFFFFFFFFFFFFFFF AND EQ ISZERO JUMPDEST ISZERO PUSH2 0x238F JUMPI DUP1 PUSH4 0xFFFFFFFF AND PUSH2 0x22CE DUP6 PUSH2 0x22A2 DUP7 PUSH2 0x2BAA JUMP JUMPDEST PUSH28 0xFFFFFFFFFFFFFFFFFFFFFFFFFFFFFFFFFFFFFFFFFFFFFFFFFFFFFFFF AND PUSH2 0x2BDE SWAP1 SWAP2 SWAP1 PUSH4 0xFFFFFFFF AND JUMP JUMPDEST PUSH28 0xFFFFFFFFFFFFFFFFFFFFFFFFFFFFFFFFFFFFFFFFFFFFFFFFFFFFFFFF AND PUSH2 0x22F6 SWAP2 SWAP1 PUSH2 0x3C6B JUMP JUMPDEST PUSH1 0x9 PUSH1 0x0 DUP3 DUP3 SLOAD PUSH2 0x2307 SWAP2 SWAP1 PUSH2 0x3E6E JUMP JUMPDEST SWAP3 POP POP DUP2 SWAP1 SSTORE POP DUP1 PUSH4 0xFFFFFFFF AND PUSH2 0x234E DUP5 PUSH2 0x2322 DUP8 PUSH2 0x2BAA JUMP JUMPDEST PUSH28 0xFFFFFFFFFFFFFFFFFFFFFFFFFFFFFFFFFFFFFFFFFFFFFFFFFFFFFFFF AND PUSH2 0x2BDE SWAP1 SWAP2 SWAP1 PUSH4 0xFFFFFFFF AND JUMP JUMPDEST PUSH28 0xFFFFFFFFFFFFFFFFFFFFFFFFFFFFFFFFFFFFFFFFFFFFFFFFFFFFFFFF AND PUSH2 0x2376 SWAP2 SWAP1 PUSH2 0x3C6B JUMP JUMPDEST PUSH1 0xA PUSH1 0x0 DUP3 DUP3 SLOAD PUSH2 0x2387 SWAP2 SWAP1 PUSH2 0x3E6E JUMP JUMPDEST SWAP3 POP POP DUP2 SWAP1 SSTORE POP JUMPDEST DUP6 PUSH1 0x8 PUSH1 0x0 PUSH2 0x100 EXP DUP2 SLOAD DUP2 PUSH14 0xFFFFFFFFFFFFFFFFFFFFFFFFFFFF MUL NOT AND SWAP1 DUP4 PUSH14 0xFFFFFFFFFFFFFFFFFFFFFFFFFFFF AND MUL OR SWAP1 SSTORE POP DUP5 PUSH1 0x8 PUSH1 0xE PUSH2 0x100 EXP DUP2 SLOAD DUP2 PUSH14 0xFFFFFFFFFFFFFFFFFFFFFFFFFFFF MUL NOT AND SWAP1 DUP4 PUSH14 0xFFFFFFFFFFFFFFFFFFFFFFFFFFFF AND MUL OR SWAP1 SSTORE POP DUP2 PUSH1 0x8 PUSH1 0x1C PUSH2 0x100 EXP DUP2 SLOAD DUP2 PUSH4 0xFFFFFFFF MUL NOT AND SWAP1 DUP4 PUSH4 0xFFFFFFFF AND MUL OR SWAP1 SSTORE POP PUSH32 0x1C411E9A96E071241C2F21F7726B17AE89E3CAB4C78BE50E062B03A9FFFBBAD1 PUSH1 0x8 PUSH1 0x0 SWAP1 SLOAD SWAP1 PUSH2 0x100 EXP SWAP1 DIV PUSH14 0xFFFFFFFFFFFFFFFFFFFFFFFFFFFF AND PUSH1 0x8 PUSH1 0xE SWAP1 SLOAD SWAP1 PUSH2 0x100 EXP SWAP1 DIV PUSH14 0xFFFFFFFFFFFFFFFFFFFFFFFFFFFF AND PUSH1 0x40 MLOAD PUSH2 0x2483 SWAP3 SWAP2 SWAP1 PUSH2 0x3EC4 JUMP JUMPDEST PUSH1 0x40 MLOAD DUP1 SWAP2 SUB SWAP1 LOG1 POP POP POP POP POP POP JUMP JUMPDEST DUP1 PUSH1 0x2 PUSH1 0x0 DUP6 PUSH20 0xFFFFFFFFFFFFFFFFFFFFFFFFFFFFFFFFFFFFFFFF AND PUSH20 0xFFFFFFFFFFFFFFFFFFFFFFFFFFFFFFFFFFFFFFFF AND DUP2 MSTORE PUSH1 0x20 ADD SWAP1 DUP2 MSTORE PUSH1 0x20 ADD PUSH1 0x0 KECCAK256 PUSH1 0x0 DUP5 PUSH20 0xFFFFFFFFFFFFFFFFFFFFFFFFFFFFFFFFFFFFFFFF AND PUSH20 0xFFFFFFFFFFFFFFFFFFFFFFFFFFFFFFFFFFFFFFFF AND DUP2 MSTORE PUSH1 0x20 ADD SWAP1 DUP2 MSTORE PUSH1 0x20 ADD PUSH1 0x0 KECCAK256 DUP2 SWAP1 SSTORE POP DUP2 PUSH20 0xFFFFFFFFFFFFFFFFFFFFFFFFFFFFFFFFFFFFFFFF AND DUP4 PUSH20 0xFFFFFFFFFFFFFFFFFFFFFFFFFFFFFFFFFFFFFFFF AND PUSH32 0x8C5BE1E5EBEC7D5BD14F71427D1E84F3DD0314C0F7B2291E5B200AC8C7C3B925 DUP4 PUSH1 0x40 MLOAD PUSH2 0x2571 SWAP2 SWAP1 PUSH2 0x2FD1 JUMP JUMPDEST PUSH1 0x40 MLOAD DUP1 SWAP2 SUB SWAP1 LOG3 POP POP POP JUMP JUMPDEST PUSH2 0x25D0 DUP2 PUSH1 0x1 PUSH1 0x0 DUP7 PUSH20 0xFFFFFFFFFFFFFFFFFFFFFFFFFFFFFFFFFFFFFFFF AND PUSH20 0xFFFFFFFFFFFFFFFFFFFFFFFFFFFFFFFFFFFFFFFF AND DUP2 MSTORE PUSH1 0x20 ADD SWAP1 DUP2 MSTORE PUSH1 0x20 ADD PUSH1 0x0 KECCAK256 SLOAD PUSH2 0x2146 SWAP1 SWAP2 SWAP1 PUSH4 0xFFFFFFFF AND JUMP JUMPDEST PUSH1 0x1 PUSH1 0x0 DUP6 PUSH20 0xFFFFFFFFFFFFFFFFFFFFFFFFFFFFFFFFFFFFFFFF AND PUSH20 0xFFFFFFFFFFFFFFFFFFFFFFFFFFFFFFFFFFFFFFFF AND DUP2 MSTORE PUSH1 0x20 ADD SWAP1 DUP2 MSTORE PUSH1 0x20 ADD PUSH1 0x0 KECCAK256 DUP2 SWAP1 SSTORE POP PUSH2 0x2665 DUP2 PUSH1 0x1 PUSH1 0x0 DUP6 PUSH20 0xFFFFFFFFFFFFFFFFFFFFFFFFFFFFFFFFFFFFFFFF AND PUSH20 0xFFFFFFFFFFFFFFFFFFFFFFFFFFFFFFFFFFFFFFFF AND DUP2 MSTORE PUSH1 0x20 ADD SWAP1 DUP2 MSTORE PUSH1 0x20 ADD PUSH1 0x0 KECCAK256 SLOAD PUSH2 0x2C04 SWAP1 SWAP2 SWAP1 PUSH4 0xFFFFFFFF AND JUMP JUMPDEST PUSH1 0x1 PUSH1 0x0 DUP5 PUSH20 0xFFFFFFFFFFFFFFFFFFFFFFFFFFFFFFFFFFFFFFFF AND PUSH20 0xFFFFFFFFFFFFFFFFFFFFFFFFFFFFFFFFFFFFFFFF AND DUP2 MSTORE PUSH1 0x20 ADD SWAP1 DUP2 MSTORE PUSH1 0x20 ADD PUSH1 0x0 KECCAK256 DUP2 SWAP1 SSTORE POP DUP2 PUSH20 0xFFFFFFFFFFFFFFFFFFFFFFFFFFFFFFFFFFFFFFFF AND DUP4 PUSH20 0xFFFFFFFFFFFFFFFFFFFFFFFFFFFFFFFFFFFFFFFF AND PUSH32 0xDDF252AD1BE2C89B69C2B068FC378DAA952BA7F163C4A11628F55A4DF523B3EF DUP4 PUSH1 0x40 MLOAD PUSH2 0x2705 SWAP2 SWAP1 PUSH2 0x2FD1 JUMP JUMPDEST PUSH1 0x40 MLOAD DUP1 SWAP2 SUB SWAP1 LOG3 POP POP POP JUMP JUMPDEST PUSH1 0x0 DUP1 PUSH1 0x5 PUSH1 0x0 SWAP1 SLOAD SWAP1 PUSH2 0x100 EXP SWAP1 DIV PUSH20 0xFFFFFFFFFFFFFFFFFFFFFFFFFFFFFFFFFFFFFFFF AND PUSH20 0xFFFFFFFFFFFFFFFFFFFFFFFFFFFFFFFFFFFFFFFF AND PUSH4 0x17E7E58 PUSH1 0x40 MLOAD DUP2 PUSH4 0xFFFFFFFF AND PUSH1 0xE0 SHL DUP2 MSTORE PUSH1 0x4 ADD PUSH1 0x20 PUSH1 0x40 MLOAD DUP1 DUP4 SUB DUP2 DUP7 GAS STATICCALL ISZERO DUP1 ISZERO PUSH2 0x2782 JUMPI RETURNDATASIZE PUSH1 0x0 DUP1 RETURNDATACOPY RETURNDATASIZE PUSH1 0x0 REVERT JUMPDEST POP POP POP POP PUSH1 0x40 MLOAD RETURNDATASIZE PUSH1 0x1F NOT PUSH1 0x1F DUP3 ADD AND DUP3 ADD DUP1 PUSH1 0x40 MSTORE POP DUP2 ADD SWAP1 PUSH2 0x27A6 SWAP2 SWAP1 PUSH2 0x3F02 JUMP JUMPDEST SWAP1 POP PUSH1 0x0 PUSH20 0xFFFFFFFFFFFFFFFFFFFFFFFFFFFFFFFFFFFFFFFF AND DUP2 PUSH20 0xFFFFFFFFFFFFFFFFFFFFFFFFFFFFFFFFFFFFFFFF AND EQ ISZERO SWAP2 POP PUSH1 0x0 PUSH1 0xB SLOAD SWAP1 POP DUP3 ISZERO PUSH2 0x28C9 JUMPI PUSH1 0x0 DUP2 EQ PUSH2 0x28C4 JUMPI PUSH1 0x0 PUSH2 0x282D PUSH2 0x2828 DUP7 PUSH14 0xFFFFFFFFFFFFFFFFFFFFFFFFFFFF AND DUP9 PUSH14 0xFFFFFFFFFFFFFFFFFFFFFFFFFFFF AND PUSH2 0x20D9 SWAP1 SWAP2 SWAP1 PUSH4 0xFFFFFFFF AND JUMP JUMPDEST PUSH2 0x28E3 JUMP JUMPDEST SWAP1 POP PUSH1 0x0 PUSH2 0x283A DUP4 PUSH2 0x28E3 JUMP JUMPDEST SWAP1 POP DUP1 DUP3 GT ISZERO PUSH2 0x28C1 JUMPI PUSH1 0x0 PUSH2 0x286D PUSH2 0x285C DUP4 DUP6 PUSH2 0x2146 SWAP1 SWAP2 SWAP1 PUSH4 0xFFFFFFFF AND JUMP JUMPDEST PUSH1 0x0 SLOAD PUSH2 0x20D9 SWAP1 SWAP2 SWAP1 PUSH4 0xFFFFFFFF AND JUMP JUMPDEST SWAP1 POP PUSH1 0x0 PUSH2 0x2897 DUP4 PUSH2 0x2889 PUSH1 0x5 DUP8 PUSH2 0x20D9 SWAP1 SWAP2 SWAP1 PUSH4 0xFFFFFFFF AND JUMP JUMPDEST PUSH2 0x2C04 SWAP1 SWAP2 SWAP1 PUSH4 0xFFFFFFFF AND JUMP JUMPDEST SWAP1 POP PUSH1 0x0 DUP2 DUP4 PUSH2 0x28A7 SWAP2 SWAP1 PUSH2 0x3754 JUMP JUMPDEST SWAP1 POP PUSH1 0x0 DUP2 GT ISZERO PUSH2 0x28BD JUMPI PUSH2 0x28BC DUP8 DUP3 PUSH2 0x295D JUMP JUMPDEST JUMPDEST POP POP POP JUMPDEST POP POP JUMPDEST PUSH2 0x28DB JUMP JUMPDEST PUSH1 0x0 DUP2 EQ PUSH2 0x28DA JUMPI PUSH1 0x0 PUSH1 0xB DUP2 SWAP1 SSTORE POP JUMPDEST JUMPDEST POP POP SWAP3 SWAP2 POP POP JUMP JUMPDEST PUSH1 0x0 PUSH1 0x3 DUP3 GT ISZERO PUSH2 0x294A JUMPI DUP2 SWAP1 POP PUSH1 0x0 PUSH1 0x1 PUSH1 0x2 DUP5 PUSH2 0x2902 SWAP2 SWAP1 PUSH2 0x3754 JUMP JUMPDEST PUSH2 0x290C SWAP2 SWAP1 PUSH2 0x3E6E JUMP JUMPDEST SWAP1 POP JUMPDEST DUP2 DUP2 LT ISZERO PUSH2 0x2944 JUMPI DUP1 SWAP2 POP PUSH1 0x2 DUP2 DUP3 DUP6 PUSH2 0x2929 SWAP2 SWAP1 PUSH2 0x3754 JUMP JUMPDEST PUSH2 0x2933 SWAP2 SWAP1 PUSH2 0x3E6E JUMP JUMPDEST PUSH2 0x293D SWAP2 SWAP1 PUSH2 0x3754 JUMP JUMPDEST SWAP1 POP PUSH2 0x290F JUMP JUMPDEST POP PUSH2 0x2958 JUMP JUMPDEST PUSH1 0x0 DUP3 EQ PUSH2 0x2957 JUMPI PUSH1 0x1 SWAP1 POP JUMPDEST JUMPDEST SWAP2 SWAP1 POP JUMP JUMPDEST PUSH2 0x2972 DUP2 PUSH1 0x0 SLOAD PUSH2 0x2C04 SWAP1 SWAP2 SWAP1 PUSH4 0xFFFFFFFF AND JUMP JUMPDEST PUSH1 0x0 DUP2 SWAP1 SSTORE POP PUSH2 0x29CA DUP2 PUSH1 0x1 PUSH1 0x0 DUP6 PUSH20 0xFFFFFFFFFFFFFFFFFFFFFFFFFFFFFFFFFFFFFFFF AND PUSH20 0xFFFFFFFFFFFFFFFFFFFFFFFFFFFFFFFFFFFFFFFF AND DUP2 MSTORE PUSH1 0x20 ADD SWAP1 DUP2 MSTORE PUSH1 0x20 ADD PUSH1 0x0 KECCAK256 SLOAD PUSH2 0x2C04 SWAP1 SWAP2 SWAP1 PUSH4 0xFFFFFFFF AND JUMP JUMPDEST PUSH1 0x1 PUSH1 0x0 DUP5 PUSH20 0xFFFFFFFFFFFFFFFFFFFFFFFFFFFFFFFFFFFFFFFF AND PUSH20 0xFFFFFFFFFFFFFFFFFFFFFFFFFFFFFFFFFFFFFFFF AND DUP2 MSTORE PUSH1 0x20 ADD SWAP1 DUP2 MSTORE PUSH1 0x20 ADD PUSH1 0x0 KECCAK256 DUP2 SWAP1 SSTORE POP DUP2 PUSH20 0xFFFFFFFFFFFFFFFFFFFFFFFFFFFFFFFFFFFFFFFF AND PUSH1 0x0 PUSH20 0xFFFFFFFFFFFFFFFFFFFFFFFFFFFFFFFFFFFFFFFF AND PUSH32 0xDDF252AD1BE2C89B69C2B068FC378DAA952BA7F163C4A11628F55A4DF523B3EF DUP4 PUSH1 0x40 MLOAD PUSH2 0x2A6B SWAP2 SWAP1 PUSH2 0x2FD1 JUMP JUMPDEST PUSH1 0x40 MLOAD DUP1 SWAP2 SUB SWAP1 LOG3 POP POP JUMP JUMPDEST PUSH1 0x0 DUP2 DUP4 LT PUSH2 0x2A86 JUMPI DUP2 PUSH2 0x2A88 JUMP JUMPDEST DUP3 JUMPDEST SWAP1 POP SWAP3 SWAP2 POP POP JUMP JUMPDEST PUSH2 0x2AE2 DUP2 PUSH1 0x1 PUSH1 0x0 DUP6 PUSH20 0xFFFFFFFFFFFFFFFFFFFFFFFFFFFFFFFFFFFFFFFF AND PUSH20 0xFFFFFFFFFFFFFFFFFFFFFFFFFFFFFFFFFFFFFFFF AND DUP2 MSTORE PUSH1 0x20 ADD SWAP1 DUP2 MSTORE PUSH1 0x20 ADD PUSH1 0x0 KECCAK256 SLOAD PUSH2 0x2146 SWAP1 SWAP2 SWAP1 PUSH4 0xFFFFFFFF AND JUMP JUMPDEST PUSH1 0x1 PUSH1 0x0 DUP5 PUSH20 0xFFFFFFFFFFFFFFFFFFFFFFFFFFFFFFFFFFFFFFFF AND PUSH20 0xFFFFFFFFFFFFFFFFFFFFFFFFFFFFFFFFFFFFFFFF AND DUP2 MSTORE PUSH1 0x20 ADD SWAP1 DUP2 MSTORE PUSH1 0x20 ADD PUSH1 0x0 KECCAK256 DUP2 SWAP1 SSTORE POP PUSH2 0x2B3A DUP2 PUSH1 0x0 SLOAD PUSH2 0x2146 SWAP1 SWAP2 SWAP1 PUSH4 0xFFFFFFFF AND JUMP JUMPDEST PUSH1 0x0 DUP2 SWAP1 SSTORE POP PUSH1 0x0 PUSH20 0xFFFFFFFFFFFFFFFFFFFFFFFFFFFFFFFFFFFFFFFF AND DUP3 PUSH20 0xFFFFFFFFFFFFFFFFFFFFFFFFFFFFFFFFFFFFFFFF AND PUSH32 0xDDF252AD1BE2C89B69C2B068FC378DAA952BA7F163C4A11628F55A4DF523B3EF DUP4 PUSH1 0x40 MLOAD PUSH2 0x2B9E SWAP2 SWAP1 PUSH2 0x2FD1 JUMP JUMPDEST PUSH1 0x40 MLOAD DUP1 SWAP2 SUB SWAP1 LOG3 POP POP JUMP JUMPDEST PUSH1 0x0 PUSH15 0x10000000000000000000000000000 DUP3 PUSH14 0xFFFFFFFFFFFFFFFFFFFFFFFFFFFF AND PUSH2 0x2BD7 SWAP2 SWAP1 PUSH2 0x3F57 JUMP JUMPDEST SWAP1 POP SWAP2 SWAP1 POP JUMP JUMPDEST PUSH1 0x0 DUP2 PUSH14 0xFFFFFFFFFFFFFFFFFFFFFFFFFFFF AND DUP4 PUSH2 0x2BFC SWAP2 SWAP1 PUSH2 0x3FAD JUMP JUMPDEST SWAP1 POP SWAP3 SWAP2 POP POP JUMP JUMPDEST PUSH1 0x0 DUP3 DUP3 DUP5 PUSH2 0x2C13 SWAP2 SWAP1 PUSH2 0x3E6E JUMP JUMPDEST SWAP2 POP DUP2 LT ISZERO PUSH2 0x2C57 JUMPI PUSH1 0x40 MLOAD PUSH32 0x8C379A000000000000000000000000000000000000000000000000000000000 DUP2 MSTORE PUSH1 0x4 ADD PUSH2 0x2C4E SWAP1 PUSH2 0x402A JUMP JUMPDEST PUSH1 0x40 MLOAD DUP1 SWAP2 SUB SWAP1 REVERT JUMPDEST SWAP3 SWAP2 POP POP JUMP JUMPDEST PUSH1 0x0 DUP1 REVERT JUMPDEST PUSH1 0x0 DUP1 REVERT JUMPDEST PUSH1 0x0 DUP2 SWAP1 POP SWAP2 SWAP1 POP JUMP JUMPDEST PUSH2 0x2C7A DUP2 PUSH2 0x2C67 JUMP JUMPDEST DUP2 EQ PUSH2 0x2C85 JUMPI PUSH1 0x0 DUP1 REVERT JUMPDEST POP JUMP JUMPDEST PUSH1 0x0 DUP2 CALLDATALOAD SWAP1 POP PUSH2 0x2C97 DUP2 PUSH2 0x2C71 JUMP JUMPDEST SWAP3 SWAP2 POP POP JUMP JUMPDEST PUSH1 0x0 PUSH20 0xFFFFFFFFFFFFFFFFFFFFFFFFFFFFFFFFFFFFFFFF DUP3 AND SWAP1 POP SWAP2 SWAP1 POP JUMP JUMPDEST PUSH1 0x0 PUSH2 0x2CC8 DUP3 PUSH2 0x2C9D JUMP JUMPDEST SWAP1 POP SWAP2 SWAP1 POP JUMP JUMPDEST PUSH2 0x2CD8 DUP2 PUSH2 0x2CBD JUMP JUMPDEST DUP2 EQ PUSH2 0x2CE3 JUMPI PUSH1 0x0 DUP1 REVERT JUMPDEST POP JUMP JUMPDEST PUSH1 0x0 DUP2 CALLDATALOAD SWAP1 POP PUSH2 0x2CF5 DUP2 PUSH2 0x2CCF JUMP JUMPDEST SWAP3 SWAP2 POP POP JUMP JUMPDEST PUSH1 0x0 DUP1 REVERT JUMPDEST PUSH1 0x0 DUP1 REVERT JUMPDEST PUSH1 0x0 DUP1 REVERT JUMPDEST PUSH1 0x0 DUP1 DUP4 PUSH1 0x1F DUP5 ADD SLT PUSH2 0x2D20 JUMPI PUSH2 0x2D1F PUSH2 0x2CFB JUMP JUMPDEST JUMPDEST DUP3 CALLDATALOAD SWAP1 POP PUSH8 0xFFFFFFFFFFFFFFFF DUP2 GT ISZERO PUSH2 0x2D3D JUMPI PUSH2 0x2D3C PUSH2 0x2D00 JUMP JUMPDEST JUMPDEST PUSH1 0x20 DUP4 ADD SWAP2 POP DUP4 PUSH1 0x1 DUP3 MUL DUP4 ADD GT ISZERO PUSH2 0x2D59 JUMPI PUSH2 0x2D58 PUSH2 0x2D05 JUMP JUMPDEST JUMPDEST SWAP3 POP SWAP3 SWAP1 POP JUMP JUMPDEST PUSH1 0x0 DUP1 PUSH1 0x0 DUP1 PUSH1 0x0 PUSH1 0x80 DUP7 DUP9 SUB SLT ISZERO PUSH2 0x2D7C JUMPI PUSH2 0x2D7B PUSH2 0x2C5D JUMP JUMPDEST JUMPDEST PUSH1 0x0 PUSH2 0x2D8A DUP9 DUP3 DUP10 ADD PUSH2 0x2C88 JUMP JUMPDEST SWAP6 POP POP PUSH1 0x20 PUSH2 0x2D9B DUP9 DUP3 DUP10 ADD PUSH2 0x2C88 JUMP JUMPDEST SWAP5 POP POP PUSH1 0x40 PUSH2 0x2DAC DUP9 DUP3 DUP10 ADD PUSH2 0x2CE6 JUMP JUMPDEST SWAP4 POP POP PUSH1 0x60 DUP7 ADD CALLDATALOAD PUSH8 0xFFFFFFFFFFFFFFFF DUP2 GT ISZERO PUSH2 0x2DCD JUMPI PUSH2 0x2DCC PUSH2 0x2C62 JUMP JUMPDEST JUMPDEST PUSH2 0x2DD9 DUP9 DUP3 DUP10 ADD PUSH2 0x2D0A JUMP JUMPDEST SWAP3 POP SWAP3 POP POP SWAP3 SWAP6 POP SWAP3 SWAP6 SWAP1 SWAP4 POP JUMP JUMPDEST PUSH1 0x0 DUP2 MLOAD SWAP1 POP SWAP2 SWAP1 POP JUMP JUMPDEST PUSH1 0x0 DUP3 DUP3 MSTORE PUSH1 0x20 DUP3 ADD SWAP1 POP SWAP3 SWAP2 POP POP JUMP JUMPDEST PUSH1 0x0 JUMPDEST DUP4 DUP2 LT ISZERO PUSH2 0x2E22 JUMPI DUP1 DUP3 ADD MLOAD DUP2 DUP5 ADD MSTORE PUSH1 0x20 DUP2 ADD SWAP1 POP PUSH2 0x2E07 JUMP JUMPDEST DUP4 DUP2 GT ISZERO PUSH2 0x2E31 JUMPI PUSH1 0x0 DUP5 DUP5 ADD MSTORE JUMPDEST POP POP POP POP JUMP JUMPDEST PUSH1 0x0 PUSH1 0x1F NOT PUSH1 0x1F DUP4 ADD AND SWAP1 POP SWAP2 SWAP1 POP JUMP JUMPDEST PUSH1 0x0 PUSH2 0x2E53 DUP3 PUSH2 0x2DE8 JUMP JUMPDEST PUSH2 0x2E5D DUP2 DUP6 PUSH2 0x2DF3 JUMP JUMPDEST SWAP4 POP PUSH2 0x2E6D DUP2 DUP6 PUSH1 0x20 DUP7 ADD PUSH2 0x2E04 JUMP JUMPDEST PUSH2 0x2E76 DUP2 PUSH2 0x2E37 JUMP JUMPDEST DUP5 ADD SWAP2 POP POP SWAP3 SWAP2 POP POP JUMP JUMPDEST PUSH1 0x0 PUSH1 0x20 DUP3 ADD SWAP1 POP DUP2 DUP2 SUB PUSH1 0x0 DUP4 ADD MSTORE PUSH2 0x2E9B DUP2 DUP5 PUSH2 0x2E48 JUMP JUMPDEST SWAP1 POP SWAP3 SWAP2 POP POP JUMP JUMPDEST PUSH1 0x0 PUSH14 0xFFFFFFFFFFFFFFFFFFFFFFFFFFFF DUP3 AND SWAP1 POP SWAP2 SWAP1 POP JUMP JUMPDEST PUSH2 0x2EC6 DUP2 PUSH2 0x2EA3 JUMP JUMPDEST DUP3 MSTORE POP POP JUMP JUMPDEST PUSH1 0x0 PUSH4 0xFFFFFFFF DUP3 AND SWAP1 POP SWAP2 SWAP1 POP JUMP JUMPDEST PUSH2 0x2EE5 DUP2 PUSH2 0x2ECC JUMP JUMPDEST DUP3 MSTORE POP POP JUMP JUMPDEST PUSH1 0x0 PUSH1 0x60 DUP3 ADD SWAP1 POP PUSH2 0x2F00 PUSH1 0x0 DUP4 ADD DUP7 PUSH2 0x2EBD JUMP JUMPDEST PUSH2 0x2F0D PUSH1 0x20 DUP4 ADD DUP6 PUSH2 0x2EBD JUMP JUMPDEST PUSH2 0x2F1A PUSH1 0x40 DUP4 ADD DUP5 PUSH2 0x2EDC JUMP JUMPDEST SWAP5 SWAP4 POP POP POP POP JUMP JUMPDEST PUSH1 0x0 DUP1 PUSH1 0x40 DUP4 DUP6 SUB SLT ISZERO PUSH2 0x2F39 JUMPI PUSH2 0x2F38 PUSH2 0x2C5D JUMP JUMPDEST JUMPDEST PUSH1 0x0 PUSH2 0x2F47 DUP6 DUP3 DUP7 ADD PUSH2 0x2CE6 JUMP JUMPDEST SWAP3 POP POP PUSH1 0x20 PUSH2 0x2F58 DUP6 DUP3 DUP7 ADD PUSH2 0x2C88 JUMP JUMPDEST SWAP2 POP POP SWAP3 POP SWAP3 SWAP1 POP JUMP JUMPDEST PUSH1 0x0 DUP2 ISZERO ISZERO SWAP1 POP SWAP2 SWAP1 POP JUMP JUMPDEST PUSH2 0x2F77 DUP2 PUSH2 0x2F62 JUMP JUMPDEST DUP3 MSTORE POP POP JUMP JUMPDEST PUSH1 0x0 PUSH1 0x20 DUP3 ADD SWAP1 POP PUSH2 0x2F92 PUSH1 0x0 DUP4 ADD DUP5 PUSH2 0x2F6E JUMP JUMPDEST SWAP3 SWAP2 POP POP JUMP JUMPDEST PUSH2 0x2FA1 DUP2 PUSH2 0x2CBD JUMP JUMPDEST DUP3 MSTORE POP POP JUMP JUMPDEST PUSH1 0x0 PUSH1 0x20 DUP3 ADD SWAP1 POP PUSH2 0x2FBC PUSH1 0x0 DUP4 ADD DUP5 PUSH2 0x2F98 JUMP JUMPDEST SWAP3 SWAP2 POP POP JUMP JUMPDEST PUSH2 0x2FCB DUP2 PUSH2 0x2C67 JUMP JUMPDEST DUP3 MSTORE POP POP JUMP JUMPDEST PUSH1 0x0 PUSH1 0x20 DUP3 ADD SWAP1 POP PUSH2 0x2FE6 PUSH1 0x0 DUP4 ADD DUP5 PUSH2 0x2FC2 JUMP JUMPDEST SWAP3 SWAP2 POP POP JUMP JUMPDEST PUSH1 0x0 DUP1 PUSH1 0x0 PUSH1 0x60 DUP5 DUP7 SUB SLT ISZERO PUSH2 0x3005 JUMPI PUSH2 0x3004 PUSH2 0x2C5D JUMP JUMPDEST JUMPDEST PUSH1 0x0 PUSH2 0x3013 DUP7 DUP3 DUP8 ADD PUSH2 0x2CE6 JUMP JUMPDEST SWAP4 POP POP PUSH1 0x20 PUSH2 0x3024 DUP7 DUP3 DUP8 ADD PUSH2 0x2CE6 JUMP JUMPDEST SWAP3 POP POP PUSH1 0x40 PUSH2 0x3035 DUP7 DUP3 DUP8 ADD PUSH2 0x2C88 JUMP JUMPDEST SWAP2 POP POP SWAP3 POP SWAP3 POP SWAP3 JUMP JUMPDEST PUSH1 0x0 DUP2 SWAP1 POP SWAP2 SWAP1 POP JUMP JUMPDEST PUSH2 0x3052 DUP2 PUSH2 0x303F JUMP JUMPDEST DUP3 MSTORE POP POP JUMP JUMPDEST PUSH1 0x0 PUSH1 0x20 DUP3 ADD SWAP1 POP PUSH2 0x306D PUSH1 0x0 DUP4 ADD DUP5 PUSH2 0x3049 JUMP JUMPDEST SWAP3 SWAP2 POP POP JUMP JUMPDEST PUSH1 0x0 PUSH1 0xFF DUP3 AND SWAP1 POP SWAP2 SWAP1 POP JUMP JUMPDEST PUSH2 0x3089 DUP2 PUSH2 0x3073 JUMP JUMPDEST DUP3 MSTORE POP POP JUMP JUMPDEST PUSH1 0x0 PUSH1 0x20 DUP3 ADD SWAP1 POP PUSH2 0x30A4 PUSH1 0x0 DUP4 ADD DUP5 PUSH2 0x3080 JUMP JUMPDEST SWAP3 SWAP2 POP POP JUMP JUMPDEST PUSH1 0x0 DUP1 PUSH1 0x40 DUP4 DUP6 SUB SLT ISZERO PUSH2 0x30C1 JUMPI PUSH2 0x30C0 PUSH2 0x2C5D JUMP JUMPDEST JUMPDEST PUSH1 0x0 PUSH2 0x30CF DUP6 DUP3 DUP7 ADD PUSH2 0x2CE6 JUMP JUMPDEST SWAP3 POP POP PUSH1 0x20 PUSH2 0x30E0 DUP6 DUP3 DUP7 ADD PUSH2 0x2CE6 JUMP JUMPDEST SWAP2 POP POP SWAP3 POP SWAP3 SWAP1 POP JUMP JUMPDEST PUSH1 0x0 PUSH1 0x20 DUP3 DUP5 SUB SLT ISZERO PUSH2 0x3100 JUMPI PUSH2 0x30FF PUSH2 0x2C5D JUMP JUMPDEST JUMPDEST PUSH1 0x0 PUSH2 0x310E DUP5 DUP3 DUP6 ADD PUSH2 0x2CE6 JUMP JUMPDEST SWAP2 POP POP SWAP3 SWAP2 POP POP JUMP JUMPDEST PUSH1 0x0 PUSH1 0x40 DUP3 ADD SWAP1 POP PUSH2 0x312C PUSH1 0x0 DUP4 ADD DUP6 PUSH2 0x2FC2 JUMP JUMPDEST PUSH2 0x3139 PUSH1 0x20 DUP4 ADD DUP5 PUSH2 0x2FC2 JUMP JUMPDEST SWAP4 SWAP3 POP POP POP JUMP JUMPDEST PUSH2 0x3149 DUP2 PUSH2 0x3073 JUMP JUMPDEST DUP2 EQ PUSH2 0x3154 JUMPI PUSH1 0x0 DUP1 REVERT JUMPDEST POP JUMP JUMPDEST PUSH1 0x0 DUP2 CALLDATALOAD SWAP1 POP PUSH2 0x3166 DUP2 PUSH2 0x3140 JUMP JUMPDEST SWAP3 SWAP2 POP POP JUMP JUMPDEST PUSH2 0x3175 DUP2 PUSH2 0x303F JUMP JUMPDEST DUP2 EQ PUSH2 0x3180 JUMPI PUSH1 0x0 DUP1 REVERT JUMPDEST POP JUMP JUMPDEST PUSH1 0x0 DUP2 CALLDATALOAD SWAP1 POP PUSH2 0x3192 DUP2 PUSH2 0x316C JUMP JUMPDEST SWAP3 SWAP2 POP POP JUMP JUMPDEST PUSH1 0x0 DUP1 PUSH1 0x0 DUP1 PUSH1 0x0 DUP1 PUSH1 0x0 PUSH1 0xE0 DUP9 DUP11 SUB SLT ISZERO PUSH2 0x31B7 JUMPI PUSH2 0x31B6 PUSH2 0x2C5D JUMP JUMPDEST JUMPDEST PUSH1 0x0 PUSH2 0x31C5 DUP11 DUP3 DUP12 ADD PUSH2 0x2CE6 JUMP JUMPDEST SWAP8 POP POP PUSH1 0x20 PUSH2 0x31D6 DUP11 DUP3 DUP12 ADD PUSH2 0x2CE6 JUMP JUMPDEST SWAP7 POP POP PUSH1 0x40 PUSH2 0x31E7 DUP11 DUP3 DUP12 ADD PUSH2 0x2C88 JUMP JUMPDEST SWAP6 POP POP PUSH1 0x60 PUSH2 0x31F8 DUP11 DUP3 DUP12 ADD PUSH2 0x2C88 JUMP JUMPDEST SWAP5 POP POP PUSH1 0x80 PUSH2 0x3209 DUP11 DUP3 DUP12 ADD PUSH2 0x3157 JUMP JUMPDEST SWAP4 POP POP PUSH1 0xA0 PUSH2 0x321A DUP11 DUP3 DUP12 ADD PUSH2 0x3183 JUMP JUMPDEST SWAP3 POP POP PUSH1 0xC0 PUSH2 0x322B DUP11 DUP3 DUP12 ADD PUSH2 0x3183 JUMP JUMPDEST SWAP2 POP POP SWAP3 SWAP6 SWAP9 SWAP2 SWAP5 SWAP8 POP SWAP3 SWAP6 POP JUMP JUMPDEST PUSH32 0x556E697377617056323A204C4F434B4544000000000000000000000000000000 PUSH1 0x0 DUP3 ADD MSTORE POP JUMP JUMPDEST PUSH1 0x0 PUSH2 0x3270 PUSH1 0x11 DUP4 PUSH2 0x2DF3 JUMP JUMPDEST SWAP2 POP PUSH2 0x327B DUP3 PUSH2 0x323A JUMP JUMPDEST PUSH1 0x20 DUP3 ADD SWAP1 POP SWAP2 SWAP1 POP JUMP JUMPDEST PUSH1 0x0 PUSH1 0x20 DUP3 ADD SWAP1 POP DUP2 DUP2 SUB PUSH1 0x0 DUP4 ADD MSTORE PUSH2 0x329F DUP2 PUSH2 0x3263 JUMP JUMPDEST SWAP1 POP SWAP2 SWAP1 POP JUMP JUMPDEST PUSH32 0x556E697377617056323A20494E53554646494349454E545F4F55545055545F41 PUSH1 0x0 DUP3 ADD MSTORE PUSH32 0x4D4F554E54000000000000000000000000000000000000000000000000000000 PUSH1 0x20 DUP3 ADD MSTORE POP JUMP JUMPDEST PUSH1 0x0 PUSH2 0x3302 PUSH1 0x25 DUP4 PUSH2 0x2DF3 JUMP JUMPDEST SWAP2 POP PUSH2 0x330D DUP3 PUSH2 0x32A6 JUMP JUMPDEST PUSH1 0x40 DUP3 ADD SWAP1 POP SWAP2 SWAP1 POP JUMP JUMPDEST PUSH1 0x0 PUSH1 0x20 DUP3 ADD SWAP1 POP DUP2 DUP2 SUB PUSH1 0x0 DUP4 ADD MSTORE PUSH2 0x3331 DUP2 PUSH2 0x32F5 JUMP JUMPDEST SWAP1 POP SWAP2 SWAP1 POP JUMP JUMPDEST PUSH32 0x556E697377617056323A20494E53554646494349454E545F4C49515549444954 PUSH1 0x0 DUP3 ADD MSTORE PUSH32 0x5900000000000000000000000000000000000000000000000000000000000000 PUSH1 0x20 DUP3 ADD MSTORE POP JUMP JUMPDEST PUSH1 0x0 PUSH2 0x3394 PUSH1 0x21 DUP4 PUSH2 0x2DF3 JUMP JUMPDEST SWAP2 POP PUSH2 0x339F DUP3 PUSH2 0x3338 JUMP JUMPDEST PUSH1 0x40 DUP3 ADD SWAP1 POP SWAP2 SWAP1 POP JUMP JUMPDEST PUSH1 0x0 PUSH1 0x20 DUP3 ADD SWAP1 POP DUP2 DUP2 SUB PUSH1 0x0 DUP4 ADD MSTORE PUSH2 0x33C3 DUP2 PUSH2 0x3387 JUMP JUMPDEST SWAP1 POP SWAP2 SWAP1 POP JUMP JUMPDEST PUSH32 0x556E697377617056323A20494E56414C49445F544F0000000000000000000000 PUSH1 0x0 DUP3 ADD MSTORE POP JUMP JUMPDEST PUSH1 0x0 PUSH2 0x3400 PUSH1 0x15 DUP4 PUSH2 0x2DF3 JUMP JUMPDEST SWAP2 POP PUSH2 0x340B DUP3 PUSH2 0x33CA JUMP JUMPDEST PUSH1 0x20 DUP3 ADD SWAP1 POP SWAP2 SWAP1 POP JUMP JUMPDEST PUSH1 0x0 PUSH1 0x20 DUP3 ADD SWAP1 POP DUP2 DUP2 SUB PUSH1 0x0 DUP4 ADD MSTORE PUSH2 0x342F DUP2 PUSH2 0x33F3 JUMP JUMPDEST SWAP1 POP SWAP2 SWAP1 POP JUMP JUMPDEST PUSH1 0x0 DUP3 DUP3 MSTORE PUSH1 0x20 DUP3 ADD SWAP1 POP SWAP3 SWAP2 POP POP JUMP JUMPDEST DUP3 DUP2 DUP4 CALLDATACOPY PUSH1 0x0 DUP4 DUP4 ADD MSTORE POP POP POP JUMP JUMPDEST PUSH1 0x0 PUSH2 0x3462 DUP4 DUP6 PUSH2 0x3436 JUMP JUMPDEST SWAP4 POP PUSH2 0x346F DUP4 DUP6 DUP5 PUSH2 0x3447 JUMP JUMPDEST PUSH2 0x3478 DUP4 PUSH2 0x2E37 JUMP JUMPDEST DUP5 ADD SWAP1 POP SWAP4 SWAP3 POP POP POP JUMP JUMPDEST PUSH1 0x0 PUSH1 0x80 DUP3 ADD SWAP1 POP PUSH2 0x3498 PUSH1 0x0 DUP4 ADD DUP9 PUSH2 0x2F98 JUMP JUMPDEST PUSH2 0x34A5 PUSH1 0x20 DUP4 ADD DUP8 PUSH2 0x2FC2 JUMP JUMPDEST PUSH2 0x34B2 PUSH1 0x40 DUP4 ADD DUP7 PUSH2 0x2FC2 JUMP JUMPDEST DUP2 DUP2 SUB PUSH1 0x60 DUP4 ADD MSTORE PUSH2 0x34C5 DUP2 DUP5 DUP7 PUSH2 0x3456 JUMP JUMPDEST SWAP1 POP SWAP7 SWAP6 POP POP POP POP POP POP JUMP JUMPDEST PUSH1 0x0 DUP2 MLOAD SWAP1 POP PUSH2 0x34E0 DUP2 PUSH2 0x2C71 JUMP JUMPDEST SWAP3 SWAP2 POP POP JUMP JUMPDEST PUSH1 0x0 PUSH1 0x20 DUP3 DUP5 SUB SLT ISZERO PUSH2 0x34FC JUMPI PUSH2 0x34FB PUSH2 0x2C5D JUMP JUMPDEST JUMPDEST PUSH1 0x0 PUSH2 0x350A DUP5 DUP3 DUP6 ADD PUSH2 0x34D1 JUMP JUMPDEST SWAP2 POP POP SWAP3 SWAP2 POP POP JUMP JUMPDEST PUSH32 0x4E487B7100000000000000000000000000000000000000000000000000000000 PUSH1 0x0 MSTORE PUSH1 0x11 PUSH1 0x4 MSTORE PUSH1 0x24 PUSH1 0x0 REVERT JUMPDEST PUSH1 0x0 PUSH2 0x354D DUP3 PUSH2 0x2C67 JUMP JUMPDEST SWAP2 POP PUSH2 0x3558 DUP4 PUSH2 0x2C67 JUMP JUMPDEST SWAP3 POP DUP3 DUP3 LT ISZERO PUSH2 0x356B JUMPI PUSH2 0x356A PUSH2 0x3513 JUMP JUMPDEST JUMPDEST DUP3 DUP3 SUB SWAP1 POP SWAP3 SWAP2 POP POP JUMP JUMPDEST PUSH32 0x556E697377617056323A20494E53554646494349454E545F494E5055545F414D PUSH1 0x0 DUP3 ADD MSTORE PUSH32 0x4F554E5400000000000000000000000000000000000000000000000000000000 PUSH1 0x20 DUP3 ADD MSTORE POP JUMP JUMPDEST PUSH1 0x0 PUSH2 0x35D2 PUSH1 0x24 DUP4 PUSH2 0x2DF3 JUMP JUMPDEST SWAP2 POP PUSH2 0x35DD DUP3 PUSH2 0x3576 JUMP JUMPDEST PUSH1 0x40 DUP3 ADD SWAP1 POP SWAP2 SWAP1 POP JUMP JUMPDEST PUSH1 0x0 PUSH1 0x20 DUP3 ADD SWAP1 POP DUP2 DUP2 SUB PUSH1 0x0 DUP4 ADD MSTORE PUSH2 0x3601 DUP2 PUSH2 0x35C5 JUMP JUMPDEST SWAP1 POP SWAP2 SWAP1 POP JUMP JUMPDEST PUSH32 0x556E697377617056323A204B0000000000000000000000000000000000000000 PUSH1 0x0 DUP3 ADD MSTORE POP JUMP JUMPDEST PUSH1 0x0 PUSH2 0x363E PUSH1 0xC DUP4 PUSH2 0x2DF3 JUMP JUMPDEST SWAP2 POP PUSH2 0x3649 DUP3 PUSH2 0x3608 JUMP JUMPDEST PUSH1 0x20 DUP3 ADD SWAP1 POP SWAP2 SWAP1 POP JUMP JUMPDEST PUSH1 0x0 PUSH1 0x20 DUP3 ADD SWAP1 POP DUP2 DUP2 SUB PUSH1 0x0 DUP4 ADD MSTORE PUSH2 0x366D DUP2 PUSH2 0x3631 JUMP JUMPDEST SWAP1 POP SWAP2 SWAP1 POP JUMP JUMPDEST PUSH1 0x0 PUSH1 0x80 DUP3 ADD SWAP1 POP PUSH2 0x3689 PUSH1 0x0 DUP4 ADD DUP8 PUSH2 0x2FC2 JUMP JUMPDEST PUSH2 0x3696 PUSH1 0x20 DUP4 ADD DUP7 PUSH2 0x2FC2 JUMP JUMPDEST PUSH2 0x36A3 PUSH1 0x40 DUP4 ADD DUP6 PUSH2 0x2FC2 JUMP JUMPDEST PUSH2 0x36B0 PUSH1 0x60 DUP4 ADD DUP5 PUSH2 0x2FC2 JUMP JUMPDEST SWAP6 SWAP5 POP POP POP POP POP JUMP JUMPDEST PUSH32 0x556E697377617056323A20464F5242494444454E000000000000000000000000 PUSH1 0x0 DUP3 ADD MSTORE POP JUMP JUMPDEST PUSH1 0x0 PUSH2 0x36EF PUSH1 0x14 DUP4 PUSH2 0x2DF3 JUMP JUMPDEST SWAP2 POP PUSH2 0x36FA DUP3 PUSH2 0x36B9 JUMP JUMPDEST PUSH1 0x20 DUP3 ADD SWAP1 POP SWAP2 SWAP1 POP JUMP JUMPDEST PUSH1 0x0 PUSH1 0x20 DUP3 ADD SWAP1 POP DUP2 DUP2 SUB PUSH1 0x0 DUP4 ADD MSTORE PUSH2 0x371E DUP2 PUSH2 0x36E2 JUMP JUMPDEST SWAP1 POP SWAP2 SWAP1 POP JUMP JUMPDEST PUSH32 0x4E487B7100000000000000000000000000000000000000000000000000000000 PUSH1 0x0 MSTORE PUSH1 0x12 PUSH1 0x4 MSTORE PUSH1 0x24 PUSH1 0x0 REVERT JUMPDEST PUSH1 0x0 PUSH2 0x375F DUP3 PUSH2 0x2C67 JUMP JUMPDEST SWAP2 POP PUSH2 0x376A DUP4 PUSH2 0x2C67 JUMP JUMPDEST SWAP3 POP DUP3 PUSH2 0x377A JUMPI PUSH2 0x3779 PUSH2 0x3725 JUMP JUMPDEST JUMPDEST DUP3 DUP3 DIV SWAP1 POP SWAP3 SWAP2 POP POP JUMP JUMPDEST PUSH32 0x556E697377617056323A20494E53554646494349454E545F4C49515549444954 PUSH1 0x0 DUP3 ADD MSTORE PUSH32 0x595F4D494E544544000000000000000000000000000000000000000000000000 PUSH1 0x20 DUP3 ADD MSTORE POP JUMP JUMPDEST PUSH1 0x0 PUSH2 0x37E1 PUSH1 0x28 DUP4 PUSH2 0x2DF3 JUMP JUMPDEST SWAP2 POP PUSH2 0x37EC DUP3 PUSH2 0x3785 JUMP JUMPDEST PUSH1 0x40 DUP3 ADD SWAP1 POP SWAP2 SWAP1 POP JUMP JUMPDEST PUSH1 0x0 PUSH1 0x20 DUP3 ADD SWAP1 POP DUP2 DUP2 SUB PUSH1 0x0 DUP4 ADD MSTORE PUSH2 0x3810 DUP2 PUSH2 0x37D4 JUMP JUMPDEST SWAP1 POP SWAP2 SWAP1 POP JUMP JUMPDEST PUSH32 0x556E697377617056323A20494E53554646494349454E545F4C49515549444954 PUSH1 0x0 DUP3 ADD MSTORE PUSH32 0x595F4255524E4544000000000000000000000000000000000000000000000000 PUSH1 0x20 DUP3 ADD MSTORE POP JUMP JUMPDEST PUSH1 0x0 PUSH2 0x3873 PUSH1 0x28 DUP4 PUSH2 0x2DF3 JUMP JUMPDEST SWAP2 POP PUSH2 0x387E DUP3 PUSH2 0x3817 JUMP JUMPDEST PUSH1 0x40 DUP3 ADD SWAP1 POP SWAP2 SWAP1 POP JUMP JUMPDEST PUSH1 0x0 PUSH1 0x20 DUP3 ADD SWAP1 POP DUP2 DUP2 SUB PUSH1 0x0 DUP4 ADD MSTORE PUSH2 0x38A2 DUP2 PUSH2 0x3866 JUMP JUMPDEST SWAP1 POP SWAP2 SWAP1 POP JUMP JUMPDEST PUSH32 0x556E697377617056323A20455850495245440000000000000000000000000000 PUSH1 0x0 DUP3 ADD MSTORE POP JUMP JUMPDEST PUSH1 0x0 PUSH2 0x38DF PUSH1 0x12 DUP4 PUSH2 0x2DF3 JUMP JUMPDEST SWAP2 POP PUSH2 0x38EA DUP3 PUSH2 0x38A9 JUMP JUMPDEST PUSH1 0x20 DUP3 ADD SWAP1 POP SWAP2 SWAP1 POP JUMP JUMPDEST PUSH1 0x0 PUSH1 0x20 DUP3 ADD SWAP1 POP DUP2 DUP2 SUB PUSH1 0x0 DUP4 ADD MSTORE PUSH2 0x390E DUP2 PUSH2 0x38D2 JUMP JUMPDEST SWAP1 POP SWAP2 SWAP1 POP JUMP JUMPDEST PUSH1 0x0 PUSH2 0x3920 DUP3 PUSH2 0x2C67 JUMP JUMPDEST SWAP2 POP PUSH32 0xFFFFFFFFFFFFFFFFFFFFFFFFFFFFFFFFFFFFFFFFFFFFFFFFFFFFFFFFFFFFFFFF DUP3 EQ ISZERO PUSH2 0x3953 JUMPI PUSH2 0x3952 PUSH2 0x3513 JUMP JUMPDEST JUMPDEST PUSH1 0x1 DUP3 ADD SWAP1 POP SWAP2 SWAP1 POP JUMP JUMPDEST PUSH1 0x0 PUSH1 0xC0 DUP3 ADD SWAP1 POP PUSH2 0x3973 PUSH1 0x0 DUP4 ADD DUP10 PUSH2 0x3049 JUMP JUMPDEST PUSH2 0x3980 PUSH1 0x20 DUP4 ADD DUP9 PUSH2 0x2F98 JUMP JUMPDEST PUSH2 0x398D PUSH1 0x40 DUP4 ADD DUP8 PUSH2 0x2F98 JUMP JUMPDEST PUSH2 0x399A PUSH1 0x60 DUP4 ADD DUP7 PUSH2 0x2FC2 JUMP JUMPDEST PUSH2 0x39A7 PUSH1 0x80 DUP4 ADD DUP6 PUSH2 0x2FC2 JUMP JUMPDEST PUSH2 0x39B4 PUSH1 0xA0 DUP4 ADD DUP5 PUSH2 0x2FC2 JUMP JUMPDEST SWAP8 SWAP7 POP POP POP POP POP POP POP JUMP JUMPDEST PUSH1 0x0 DUP2 SWAP1 POP SWAP3 SWAP2 POP POP JUMP JUMPDEST PUSH32 0x1901000000000000000000000000000000000000000000000000000000000000 PUSH1 0x0 DUP3 ADD MSTORE POP JUMP JUMPDEST PUSH1 0x0 PUSH2 0x3A00 PUSH1 0x2 DUP4 PUSH2 0x39BF JUMP JUMPDEST SWAP2 POP PUSH2 0x3A0B DUP3 PUSH2 0x39CA JUMP JUMPDEST PUSH1 0x2 DUP3 ADD SWAP1 POP SWAP2 SWAP1 POP JUMP JUMPDEST PUSH1 0x0 DUP2 SWAP1 POP SWAP2 SWAP1 POP JUMP JUMPDEST PUSH2 0x3A31 PUSH2 0x3A2C DUP3 PUSH2 0x303F JUMP JUMPDEST PUSH2 0x3A16 JUMP JUMPDEST DUP3 MSTORE POP POP JUMP JUMPDEST PUSH1 0x0 PUSH2 0x3A42 DUP3 PUSH2 0x39F3 JUMP JUMPDEST SWAP2 POP PUSH2 0x3A4E DUP3 DUP6 PUSH2 0x3A20 JUMP JUMPDEST PUSH1 0x20 DUP3 ADD SWAP2 POP PUSH2 0x3A5E DUP3 DUP5 PUSH2 0x3A20 JUMP JUMPDEST PUSH1 0x20 DUP3 ADD SWAP2 POP DUP2 SWAP1 POP SWAP4 SWAP3 POP POP POP JUMP JUMPDEST PUSH1 0x0 PUSH1 0x80 DUP3 ADD SWAP1 POP PUSH2 0x3A83 PUSH1 0x0 DUP4 ADD DUP8 PUSH2 0x3049 JUMP JUMPDEST PUSH2 0x3A90 PUSH1 0x20 DUP4 ADD DUP7 PUSH2 0x3080 JUMP JUMPDEST PUSH2 0x3A9D PUSH1 0x40 DUP4 ADD DUP6 PUSH2 0x3049 JUMP JUMPDEST PUSH2 0x3AAA PUSH1 0x60 DUP4 ADD DUP5 PUSH2 0x3049 JUMP JUMPDEST SWAP6 SWAP5 POP POP POP POP POP JUMP JUMPDEST PUSH32 0x556E697377617056323A20494E56414C49445F5349474E415455524500000000 PUSH1 0x0 DUP3 ADD MSTORE POP JUMP JUMPDEST PUSH1 0x0 PUSH2 0x3AE9 PUSH1 0x1C DUP4 PUSH2 0x2DF3 JUMP JUMPDEST SWAP2 POP PUSH2 0x3AF4 DUP3 PUSH2 0x3AB3 JUMP JUMPDEST PUSH1 0x20 DUP3 ADD SWAP1 POP SWAP2 SWAP1 POP JUMP JUMPDEST PUSH1 0x0 PUSH1 0x20 DUP3 ADD SWAP1 POP DUP2 DUP2 SUB PUSH1 0x0 DUP4 ADD MSTORE PUSH2 0x3B18 DUP2 PUSH2 0x3ADC JUMP JUMPDEST SWAP1 POP SWAP2 SWAP1 POP JUMP JUMPDEST PUSH1 0x0 PUSH1 0x40 DUP3 ADD SWAP1 POP PUSH2 0x3B34 PUSH1 0x0 DUP4 ADD DUP6 PUSH2 0x2F98 JUMP JUMPDEST PUSH2 0x3B41 PUSH1 0x20 DUP4 ADD DUP5 PUSH2 0x2FC2 JUMP JUMPDEST SWAP4 SWAP3 POP POP POP JUMP JUMPDEST PUSH1 0x0 DUP2 MLOAD SWAP1 POP SWAP2 SWAP1 POP JUMP JUMPDEST PUSH1 0x0 DUP2 SWAP1 POP SWAP3 SWAP2 POP POP JUMP JUMPDEST PUSH1 0x0 PUSH2 0x3B69 DUP3 PUSH2 0x3B48 JUMP JUMPDEST PUSH2 0x3B73 DUP2 DUP6 PUSH2 0x3B53 JUMP JUMPDEST SWAP4 POP PUSH2 0x3B83 DUP2 DUP6 PUSH1 0x20 DUP7 ADD PUSH2 0x2E04 JUMP JUMPDEST DUP1 DUP5 ADD SWAP2 POP POP SWAP3 SWAP2 POP POP JUMP JUMPDEST PUSH1 0x0 PUSH2 0x3B9B DUP3 DUP5 PUSH2 0x3B5E JUMP JUMPDEST SWAP2 POP DUP2 SWAP1 POP SWAP3 SWAP2 POP POP JUMP JUMPDEST PUSH2 0x3BAF DUP2 PUSH2 0x2F62 JUMP JUMPDEST DUP2 EQ PUSH2 0x3BBA JUMPI PUSH1 0x0 DUP1 REVERT JUMPDEST POP JUMP JUMPDEST PUSH1 0x0 DUP2 MLOAD SWAP1 POP PUSH2 0x3BCC DUP2 PUSH2 0x3BA6 JUMP JUMPDEST SWAP3 SWAP2 POP POP JUMP JUMPDEST PUSH1 0x0 PUSH1 0x20 DUP3 DUP5 SUB SLT ISZERO PUSH2 0x3BE8 JUMPI PUSH2 0x3BE7 PUSH2 0x2C5D JUMP JUMPDEST JUMPDEST PUSH1 0x0 PUSH2 0x3BF6 DUP5 DUP3 DUP6 ADD PUSH2 0x3BBD JUMP JUMPDEST SWAP2 POP POP SWAP3 SWAP2 POP POP JUMP JUMPDEST PUSH32 0x556E697377617056323A205452414E534645525F4641494C4544000000000000 PUSH1 0x0 DUP3 ADD MSTORE POP JUMP JUMPDEST PUSH1 0x0 PUSH2 0x3C35 PUSH1 0x1A DUP4 PUSH2 0x2DF3 JUMP JUMPDEST SWAP2 POP PUSH2 0x3C40 DUP3 PUSH2 0x3BFF JUMP JUMPDEST PUSH1 0x20 DUP3 ADD SWAP1 POP SWAP2 SWAP1 POP JUMP JUMPDEST PUSH1 0x0 PUSH1 0x20 DUP3 ADD SWAP1 POP DUP2 DUP2 SUB PUSH1 0x0 DUP4 ADD MSTORE PUSH2 0x3C64 DUP2 PUSH2 0x3C28 JUMP JUMPDEST SWAP1 POP SWAP2 SWAP1 POP JUMP JUMPDEST PUSH1 0x0 PUSH2 0x3C76 DUP3 PUSH2 0x2C67 JUMP JUMPDEST SWAP2 POP PUSH2 0x3C81 DUP4 PUSH2 0x2C67 JUMP JUMPDEST SWAP3 POP DUP2 PUSH32 0xFFFFFFFFFFFFFFFFFFFFFFFFFFFFFFFFFFFFFFFFFFFFFFFFFFFFFFFFFFFFFFFF DIV DUP4 GT DUP3 ISZERO ISZERO AND ISZERO PUSH2 0x3CBA JUMPI PUSH2 0x3CB9 PUSH2 0x3513 JUMP JUMPDEST JUMPDEST DUP3 DUP3 MUL SWAP1 POP SWAP3 SWAP2 POP POP JUMP JUMPDEST PUSH32 0x64732D6D6174682D6D756C2D6F766572666C6F77000000000000000000000000 PUSH1 0x0 DUP3 ADD MSTORE POP JUMP JUMPDEST PUSH1 0x0 PUSH2 0x3CFB PUSH1 0x14 DUP4 PUSH2 0x2DF3 JUMP JUMPDEST SWAP2 POP PUSH2 0x3D06 DUP3 PUSH2 0x3CC5 JUMP JUMPDEST PUSH1 0x20 DUP3 ADD SWAP1 POP SWAP2 SWAP1 POP JUMP JUMPDEST PUSH1 0x0 PUSH1 0x20 DUP3 ADD SWAP1 POP DUP2 DUP2 SUB PUSH1 0x0 DUP4 ADD MSTORE PUSH2 0x3D2A DUP2 PUSH2 0x3CEE JUMP JUMPDEST SWAP1 POP SWAP2 SWAP1 POP JUMP JUMPDEST PUSH32 0x64732D6D6174682D7375622D756E646572666C6F770000000000000000000000 PUSH1 0x0 DUP3 ADD MSTORE POP JUMP JUMPDEST PUSH1 0x0 PUSH2 0x3D67 PUSH1 0x15 DUP4 PUSH2 0x2DF3 JUMP JUMPDEST SWAP2 POP PUSH2 0x3D72 DUP3 PUSH2 0x3D31 JUMP JUMPDEST PUSH1 0x20 DUP3 ADD SWAP1 POP SWAP2 SWAP1 POP JUMP JUMPDEST PUSH1 0x0 PUSH1 0x20 DUP3 ADD SWAP1 POP DUP2 DUP2 SUB PUSH1 0x0 DUP4 ADD MSTORE PUSH2 0x3D96 DUP2 PUSH2 0x3D5A JUMP JUMPDEST SWAP1 POP SWAP2 SWAP1 POP JUMP JUMPDEST PUSH32 0x556E697377617056323A204F564552464C4F5700000000000000000000000000 PUSH1 0x0 DUP3 ADD MSTORE POP JUMP JUMPDEST PUSH1 0x0 PUSH2 0x3DD3 PUSH1 0x13 DUP4 PUSH2 0x2DF3 JUMP JUMPDEST SWAP2 POP PUSH2 0x3DDE DUP3 PUSH2 0x3D9D JUMP JUMPDEST PUSH1 0x20 DUP3 ADD SWAP1 POP SWAP2 SWAP1 POP JUMP JUMPDEST PUSH1 0x0 PUSH1 0x20 DUP3 ADD SWAP1 POP DUP2 DUP2 SUB PUSH1 0x0 DUP4 ADD MSTORE PUSH2 0x3E02 DUP2 PUSH2 0x3DC6 JUMP JUMPDEST SWAP1 POP SWAP2 SWAP1 POP JUMP JUMPDEST PUSH1 0x0 PUSH2 0x3E14 DUP3 PUSH2 0x2C67 JUMP JUMPDEST SWAP2 POP PUSH2 0x3E1F DUP4 PUSH2 0x2C67 JUMP JUMPDEST SWAP3 POP DUP3 PUSH2 0x3E2F JUMPI PUSH2 0x3E2E PUSH2 0x3725 JUMP JUMPDEST JUMPDEST DUP3 DUP3 MOD SWAP1 POP SWAP3 SWAP2 POP POP JUMP JUMPDEST PUSH1 0x0 PUSH2 0x3E45 DUP3 PUSH2 0x2ECC JUMP JUMPDEST SWAP2 POP PUSH2 0x3E50 DUP4 PUSH2 0x2ECC JUMP JUMPDEST SWAP3 POP DUP3 DUP3 LT ISZERO PUSH2 0x3E63 JUMPI PUSH2 0x3E62 PUSH2 0x3513 JUMP JUMPDEST JUMPDEST DUP3 DUP3 SUB SWAP1 POP SWAP3 SWAP2 POP POP JUMP JUMPDEST PUSH1 0x0 PUSH2 0x3E79 DUP3 PUSH2 0x2C67 JUMP JUMPDEST SWAP2 POP PUSH2 0x3E84 DUP4 PUSH2 0x2C67 JUMP JUMPDEST SWAP3 POP DUP3 PUSH32 0xFFFFFFFFFFFFFFFFFFFFFFFFFFFFFFFFFFFFFFFFFFFFFFFFFFFFFFFFFFFFFFFF SUB DUP3 GT ISZERO PUSH2 0x3EB9 JUMPI PUSH2 0x3EB8 PUSH2 0x3513 JUMP JUMPDEST JUMPDEST DUP3 DUP3 ADD SWAP1 POP SWAP3 SWAP2 POP POP JUMP JUMPDEST PUSH1 0x0 PUSH1 0x40 DUP3 ADD SWAP1 POP PUSH2 0x3ED9 PUSH1 0x0 DUP4 ADD DUP6 PUSH2 0x2EBD JUMP JUMPDEST PUSH2 0x3EE6 PUSH1 0x20 DUP4 ADD DUP5 PUSH2 0x2EBD JUMP JUMPDEST SWAP4 SWAP3 POP POP POP JUMP JUMPDEST PUSH1 0x0 DUP2 MLOAD SWAP1 POP PUSH2 0x3EFC DUP2 PUSH2 0x2CCF JUMP JUMPDEST SWAP3 SWAP2 POP POP JUMP JUMPDEST PUSH1 0x0 PUSH1 0x20 DUP3 DUP5 SUB SLT ISZERO PUSH2 0x3F18 JUMPI PUSH2 0x3F17 PUSH2 0x2C5D JUMP JUMPDEST JUMPDEST PUSH1 0x0 PUSH2 0x3F26 DUP5 DUP3 DUP6 ADD PUSH2 0x3EED JUMP JUMPDEST SWAP2 POP POP SWAP3 SWAP2 POP POP JUMP JUMPDEST PUSH1 0x0 PUSH28 0xFFFFFFFFFFFFFFFFFFFFFFFFFFFFFFFFFFFFFFFFFFFFFFFFFFFFFFFF DUP3 AND SWAP1 POP SWAP2 SWAP1 POP JUMP JUMPDEST PUSH1 0x0 PUSH2 0x3F62 DUP3 PUSH2 0x3F2F JUMP JUMPDEST SWAP2 POP PUSH2 0x3F6D DUP4 PUSH2 0x3F2F JUMP JUMPDEST SWAP3 POP DUP2 PUSH28 0xFFFFFFFFFFFFFFFFFFFFFFFFFFFFFFFFFFFFFFFFFFFFFFFFFFFFFFFF DIV DUP4 GT DUP3 ISZERO ISZERO AND ISZERO PUSH2 0x3FA2 JUMPI PUSH2 0x3FA1 PUSH2 0x3513 JUMP JUMPDEST JUMPDEST DUP3 DUP3 MUL SWAP1 POP SWAP3 SWAP2 POP POP JUMP JUMPDEST PUSH1 0x0 PUSH2 0x3FB8 DUP3 PUSH2 0x3F2F JUMP JUMPDEST SWAP2 POP PUSH2 0x3FC3 DUP4 PUSH2 0x3F2F JUMP JUMPDEST SWAP3 POP DUP3 PUSH2 0x3FD3 JUMPI PUSH2 0x3FD2 PUSH2 0x3725 JUMP JUMPDEST JUMPDEST DUP3 DUP3 DIV SWAP1 POP SWAP3 SWAP2 POP POP JUMP JUMPDEST PUSH32 0x64732D6D6174682D6164642D6F766572666C6F77000000000000000000000000 PUSH1 0x0 DUP3 ADD MSTORE POP JUMP JUMPDEST PUSH1 0x0 PUSH2 0x4014 PUSH1 0x14 DUP4 PUSH2 0x2DF3 JUMP JUMPDEST SWAP2 POP PUSH2 0x401F DUP3 PUSH2 0x3FDE JUMP JUMPDEST PUSH1 0x20 DUP3 ADD SWAP1 POP SWAP2 SWAP1 POP JUMP JUMPDEST PUSH1 0x0 PUSH1 0x20 DUP3 ADD SWAP1 POP DUP2 DUP2 SUB PUSH1 0x0 DUP4 ADD MSTORE PUSH2 0x4043 DUP2 PUSH2 0x4007 JUMP JUMPDEST SWAP1 POP SWAP2 SWAP1 POP JUMP INVALID LOG2 PUSH5 0x6970667358 0x22 SLT KECCAK256 0xBA CALLDATACOPY 0xDF DELEGATECALL 0xA8 0xBA PUSH16 0x494EC30C4FFFE07BDA57ED78B9AE8450 LT 0xAA PUSH2 0x5418 EXTCODESIZE 0xC2 SWAP10 0xCB PUSH5 0x736F6C6343 STOP ADDMOD EXP STOP CALLER LOG2 PUSH5 0x6970667358 0x22 SLT KECCAK256 PUSH13 0x317777726A99D74E7A662007A7 PUSH9 0x65637F7F7A5FD6D56D BALANCE 0xB3 CREATE2 0x5F DUP12 0xE5 CHAINID ADDMOD PUSH5 0x736F6C6343 STOP ADDMOD EXP STOP CALLER "
		},
		"gasEstimates": {
			"creation": {
				"codeDepositCost": "3495800",
				"executionCost": "3917",
				"totalCost": "3499717"
			},
			"external": {
				"getInitHash()": "infinite"
			}
		},
		"methodIdentifiers": {
			"getInitHash()": "3c9de1b8"
		}
	},
	"abi": [
		{
			"inputs": [],
			"name": "getInitHash",
			"outputs": [
				{
					"internalType": "bytes32",
					"name": "",
					"type": "bytes32"
				}
			],
			"stateMutability": "pure",
			"type": "function"
		}
	]
}