{
	"data": {
		"bytecode": {
			"linkReferences": {},
			"object": "60a060405260018060006101000a81548173ffffffffffffffffffffffffffffffffffffffff021916908373ffffffffffffffffffffffffffffffffffffffff1602179055503480156200005257600080fd5b5060405162005115380380620051158339818101604052810190620000789190620002fa565b620000986200008c620000ef60201b60201c565b620000f760201b60201c565b8073ffffffffffffffffffffffffffffffffffffffff1660808173ffffffffffffffffffffffffffffffffffffffff1681525050620000e7816002620001bb60201b620018531790919060201c565b50506200032c565b600033905090565b60008060009054906101000a900473ffffffffffffffffffffffffffffffffffffffff169050816000806101000a81548173ffffffffffffffffffffffffffffffffffffffff021916908373ffffffffffffffffffffffffffffffffffffffff1602179055508173ffffffffffffffffffffffffffffffffffffffff168173ffffffffffffffffffffffffffffffffffffffff167f8be0079c531659141344cd1fd0a4f28419497f9722a3daafe3b4186f6b6457e060405160405180910390a35050565b6000620001eb836000018373ffffffffffffffffffffffffffffffffffffffff1660001b620001f360201b60201c565b905092915050565b60006200020783836200026d60201b60201c565b6200026257826000018290806001815401808255809150506001900390600052602060002001600090919091909150558260000180549050836001016000848152602001908152602001600020819055506001905062000267565b600090505b92915050565b600080836001016000848152602001908152602001600020541415905092915050565b600080fd5b600073ffffffffffffffffffffffffffffffffffffffff82169050919050565b6000620002c28262000295565b9050919050565b620002d481620002b5565b8114620002e057600080fd5b50565b600081519050620002f481620002c9565b92915050565b60006020828403121562000313576200031262000290565b5b60006200032384828501620002e3565b91505092915050565b608051614dd06200034560003960005050614dd06000f3fe608060405234801561001057600080fd5b50600436106101215760003560e01c806384800812116100ad5780639912af74116100715780639912af74146102f7578063a863baf914610327578063bbd1e12214610345578063bed64c2f14610361578063f2fde38b1461037f57610121565b8063848008121461025157806385f8c2591461026d57806386b6fccb1461029d5780638772fa25146102bb5780638da5cb5b146102d957610121565b8063536e35e1116100f4578063536e35e1146101ac578063715018a6146101ca578063759eee10146101d45780637e19a0c41461020557806383e280d91461023557610121565b8063054d50d41461012657806310d1e85c1461015657806321d09426146101725780633ccfd60b146101a2575b600080fd5b610140600480360381019061013b91906132bc565b61039b565b60405161014d919061331e565b60405180910390f35b610170600480360381019061016b91906134dd565b6104a1565b005b61018c60048036038101906101879190613560565b610724565b60405161019991906135a8565b60405180910390f35b6101aa610780565b005b6101b4610978565b6040516101c191906135d2565b60405180910390f35b6101d261099e565b005b6101ee60048036038101906101e991906135ed565b6109b2565b6040516101fc92919061362d565b60405180910390f35b61021f600480360381019061021a9190613656565b610b28565b60405161022c91906135a8565b60405180910390f35b61024f600480360381019061024a9190613560565b61101a565b005b61026b600480360381019061026691906134dd565b61107d565b005b610287600480360381019061028291906132bc565b61133e565b604051610294919061331e565b60405180910390f35b6102a5611451565b6040516102b291906135a8565b60405180910390f35b6102c3611464565b6040516102d0919061331e565b60405180910390f35b6102e161146a565b6040516102ee91906135d2565b60405180910390f35b610311600480360381019061030c91906136a9565b611493565b60405161031e91906135a8565b60405180910390f35b61032f611578565b60405161033c919061331e565b60405180910390f35b61035f600480360381019061035a9190613560565b61157e565b005b6103696116f0565b60405161037691906137a7565b60405180910390f35b61039960048036038101906103949190613560565b6117cf565b005b60008084116103df576040517f08c379a00000000000000000000000000000000000000000000000000000000081526004016103d69061384c565b60405180910390fd5b6000831180156103ef5750600082115b61042e576040517f08c379a0000000000000000000000000000000000000000000000000000000008152600401610425906138de565b60405180910390fd5b60006104456103e58661188390919063ffffffff16565b9050600061045c848361188390919063ffffffff16565b90506000610487836104796103e88961188390919063ffffffff16565b61189990919063ffffffff16565b90508082610495919061395c565b93505050509392505050565b600160009054906101000a900473ffffffffffffffffffffffffffffffffffffffff1673ffffffffffffffffffffffffffffffffffffffff163373ffffffffffffffffffffffffffffffffffffffff1614610531576040517f08c379a0000000000000000000000000000000000000000000000000000000008152600401610528906139d9565b60405180910390fd5b3073ffffffffffffffffffffffffffffffffffffffff168473ffffffffffffffffffffffffffffffffffffffff161461059f576040517f08c379a000000000000000000000000000000000000000000000000000000000815260040161059690613a45565b60405180910390fd5b60008084116105ae57826105b0565b835b90506000828060200190518101906105c89190613b74565b90506105fd816020015183836060015173ffffffffffffffffffffffffffffffffffffffff166118af9092919063ffffffff16565b60008082604001516106155760008360c0015161061d565b8260c0015160005b91509150826020015173ffffffffffffffffffffffffffffffffffffffff1663022c0d9f838330600067ffffffffffffffff81111561065f5761065e6133b2565b5b6040519080825280601f01601f1916602001820160405280156106915781602001600182028036833780820191505090505b506040518563ffffffff1660e01b81526004016106b19493929190613c29565b600060405180830381600087803b1580156106cb57600080fd5b505af11580156106df573d6000803e3d6000fd5b5050505061071a83600001518460a00151856080015173ffffffffffffffffffffffffffffffffffffffff166118af9092919063ffffffff16565b5050505050505050565b60006107656040518060400160405280601a81526020017f62617365546f6b656e73436f6e7461696e73206164647265737300000000000081525083611935565b6107798260026119d190919063ffffffff16565b9050919050565b600047905060008111156108285761079661146a565b73ffffffffffffffffffffffffffffffffffffffff166108fc829081150290604051600060405180830381858888f193505050501580156107db573d6000803e3d6000fd5b50806107e561146a565b73ffffffffffffffffffffffffffffffffffffffff167f7084f5476618d8e60b11ef0d7d3f06914655adb8793e28ff7f018d4c76d505d560405160405180910390a35b60005b6108356002611a01565b811015610974576000610852826002611a1690919063ffffffff16565b90508073ffffffffffffffffffffffffffffffffffffffff166370a08231306040518263ffffffff1660e01b815260040161088d91906135d2565b602060405180830381865afa1580156108aa573d6000803e3d6000fd5b505050506040513d601f19601f820116820180604052508101906108ce9190613c75565b92506000831115610960578073ffffffffffffffffffffffffffffffffffffffff1663a9059cbb6108fd61146a565b856040518363ffffffff1660e01b815260040161091b929190613ca2565b6020604051808303816000875af115801561093a573d6000803e3d6000fd5b505050506040513d601f19601f8201168201806040525081019061095e9190613ccb565b505b50808061096c90613cf8565b91505061082b565b5050565b600660009054906101000a900473ffffffffffffffffffffffffffffffffffffffff1681565b6109a6611a30565b6109b06000611aae565b565b60008060006109c18585611b72565b5050905080610a3e578473ffffffffffffffffffffffffffffffffffffffff1663d21220a76040518163ffffffff1660e01b8152600401602060405180830381865afa158015610a15573d6000803e3d6000fd5b505050506040513d601f19601f82011682018060405250810190610a399190613d41565b610aae565b8473ffffffffffffffffffffffffffffffffffffffff16630dfe16816040518163ffffffff1660e01b8152600401602060405180830381865afa158015610a89573d6000803e3d6000fd5b505050506040513d601f19601f82011682018060405250810190610aad9190613d41565b5b91506000610abd868684611f84565b925050506000610acc82612279565b90506000610ae3828460000151856020015161133e565b90506000610afa838560600151866040015161039b565b905081811015610b0d5760009650610b1c565b8181610b199190613d6e565b96505b50505050509250929050565b6000806000610b3786866109b2565b915091508160048190555080600660006101000a81548173ffffffffffffffffffffffffffffffffffffffff021916908373ffffffffffffffffffffffffffffffffffffffff160217905550610b8b61310d565b610b958787611b72565b8360400184600001856020018373ffffffffffffffffffffffffffffffffffffffff1673ffffffffffffffffffffffffffffffffffffffff168152508373ffffffffffffffffffffffffffffffffffffffff1673ffffffffffffffffffffffffffffffffffffffff1681525083151515158152505050508060400151600660146101000a81548160ff021916908315150217905550610c32613196565b610c4188888460400151611f84565b84606001856080018295508373ffffffffffffffffffffffffffffffffffffffff1673ffffffffffffffffffffffffffffffffffffffff168152508373ffffffffffffffffffffffffffffffffffffffff1673ffffffffffffffffffffffffffffffffffffffff168152505050508160600151600160006101000a81548173ffffffffffffffffffffffffffffffffffffffff021916908373ffffffffffffffffffffffffffffffffffffffff1602179055506000826000015173ffffffffffffffffffffffffffffffffffffffff166370a08231306040518263ffffffff1660e01b8152600401610d3391906135d2565b602060405180830381865afa158015610d50573d6000803e3d6000fd5b505050506040513d601f19601f82011682018060405250810190610d749190613c75565b905080600581905550610dbc6040518060400160405280600e81526020017f626f72726f77416d6f756e743a200000000000000000000000000000000000008152508861261f565b6000808460400151610dd057886000610dd4565b6000895b91509150610e4e6040518060400160405280600c81526020017f616d6f756e74304f75743a200000000000000000000000000000000000000000815250836040518060400160405280600a81526020017f616d6f756e74314f757400000000000000000000000000000000000000000000815250846126bb565b6000610e638a8660000151876020015161133e565b9050610e87604051806060016040528060268152602001614d75602691398261261f565b6000610e9c8b8760600151886040015161039b565b9050610ec0604051806060016040528060308152602001614d45603091398261261f565b610ec86131be565b8760600151816000019073ffffffffffffffffffffffffffffffffffffffff16908173ffffffffffffffffffffffffffffffffffffffff16815250508760800151816020019073ffffffffffffffffffffffffffffffffffffffff16908173ffffffffffffffffffffffffffffffffffffffff168152505087604001518160400190151590811515815250508760200151816060019073ffffffffffffffffffffffffffffffffffffffff16908173ffffffffffffffffffffffffffffffffffffffff16815250508760000151816080019073ffffffffffffffffffffffffffffffffffffffff16908173ffffffffffffffffffffffffffffffffffffffff1681525050828160a0018181525050818160c0018181525050600081604051602001610ff39190613e4e565b604051602081830303815290604052905060019b5050505050505050505050509392505050565b611022611a30565b61103681600261185390919063ffffffff16565b508073ffffffffffffffffffffffffffffffffffffffff167ffa1388d6e7328e9c711a539b0addfc27de8bfb6f5924cce26f80f41023b1525360405160405180910390a250565b600160009054906101000a900473ffffffffffffffffffffffffffffffffffffffff1673ffffffffffffffffffffffffffffffffffffffff163373ffffffffffffffffffffffffffffffffffffffff161461110d576040517f08c379a0000000000000000000000000000000000000000000000000000000008152600401611104906139d9565b60405180910390fd5b3073ffffffffffffffffffffffffffffffffffffffff168473ffffffffffffffffffffffffffffffffffffffff161461117b576040517f08c379a000000000000000000000000000000000000000000000000000000000815260040161117290613a45565b60405180910390fd5b6111b96040518060400160405280601b81526020017f6869692069276d2063616c6c6564206279206c6f616e2070616972000000000081525061275d565b60008084116111c857826111ca565b835b90506000828060200190518101906111e29190613b74565b9050611217816020015183836060015173ffffffffffffffffffffffffffffffffffffffff166118af9092919063ffffffff16565b600080826040015161122f5760008360c00151611237565b8260c0015160005b91509150826020015173ffffffffffffffffffffffffffffffffffffffff1663022c0d9f838330600067ffffffffffffffff811115611279576112786133b2565b5b6040519080825280601f01601f1916602001820160405280156112ab5781602001600182028036833780820191505090505b506040518563ffffffff1660e01b81526004016112cb9493929190613c29565b600060405180830381600087803b1580156112e557600080fd5b505af11580156112f9573d6000803e3d6000fd5b5050505061133483600001518460a00151856080015173ffffffffffffffffffffffffffffffffffffffff166118af9092919063ffffffff16565b5050505050505050565b6000808411611382576040517f08c379a000000000000000000000000000000000000000000000000000000000815260040161137990613edb565b60405180910390fd5b6000831180156113925750600082115b6113d1576040517f08c379a00000000000000000000000000000000000000000000000000000000081526004016113c8906138de565b60405180910390fd5b60006113fa6103e86113ec878761188390919063ffffffff16565b61188390919063ffffffff16565b905060006114256103e561141788876127f690919063ffffffff16565b61188390919063ffffffff16565b905061144660018284611438919061395c565b61189990919063ffffffff16565b925050509392505050565b600660149054906101000a900460ff1681565b60045481565b60008060009054906101000a900473ffffffffffffffffffffffffffffffffffffffff16905090565b600080600a836114a3919061395c565b90506114e46040518060400160405280601481526020017f617262697472616765645f616d6f756e743d3d3e0000000000000000000000008152508261261f565b60008490508073ffffffffffffffffffffffffffffffffffffffff1663a9059cbb61150d61146a565b846040518363ffffffff1660e01b815260040161152b929190613ca2565b6020604051808303816000875af115801561154a573d6000803e3d6000fd5b505050506040513d601f19601f8201168201806040525081019061156e9190613ccb565b9250505092915050565b60055481565b611586611a30565b60008173ffffffffffffffffffffffffffffffffffffffff166370a08231306040518263ffffffff1660e01b81526004016115c191906135d2565b602060405180830381865afa1580156115de573d6000803e3d6000fd5b505050506040513d601f19601f820116820180604052508101906116029190613c75565b90506000811115611694578173ffffffffffffffffffffffffffffffffffffffff1663a9059cbb61163161146a565b836040518363ffffffff1660e01b815260040161164f929190613ca2565b6020604051808303816000875af115801561166e573d6000803e3d6000fd5b505050506040513d601f19601f820116820180604052508101906116929190613ccb565b505b6116a882600261280c90919063ffffffff16565b508173ffffffffffffffffffffffffffffffffffffffff167fdc23a849435922f20a9732eb85192a9d0c1cb34725ebe6d7de0be10212ba02fb60405160405180910390a25050565b606060006116fe6002611a01565b90508067ffffffffffffffff81111561171a576117196133b2565b5b6040519080825280602002602001820160405280156117485781602001602082028036833780820191505090505b50915060005b818110156117ca5761176a816002611a1690919063ffffffff16565b83828151811061177d5761177c613efb565b5b602002602001019073ffffffffffffffffffffffffffffffffffffffff16908173ffffffffffffffffffffffffffffffffffffffff168152505080806117c290613cf8565b91505061174e565b505090565b6117d7611a30565b600073ffffffffffffffffffffffffffffffffffffffff168173ffffffffffffffffffffffffffffffffffffffff161415611847576040517f08c379a000000000000000000000000000000000000000000000000000000000815260040161183e90613f9c565b60405180910390fd5b61185081611aae565b50565b600061187b836000018373ffffffffffffffffffffffffffffffffffffffff1660001b61283c565b905092915050565b600081836118919190613fbc565b905092915050565b600081836118a79190614016565b905092915050565b6119308363a9059cbb60e01b84846040516024016118ce929190613ca2565b604051602081830303815290604052907bffffffffffffffffffffffffffffffffffffffffffffffffffffffff19166020820180517bffffffffffffffffffffffffffffffffffffffffffffffffffffffff83818316178352505050506128ac565b505050565b6119cd828260405160240161194b9291906140b0565b6040516020818303038152906040527f319af333000000000000000000000000000000000000000000000000000000007bffffffffffffffffffffffffffffffffffffffffffffffffffffffff19166020820180517bffffffffffffffffffffffffffffffffffffffffffffffffffffffff8381831617835250505050612974565b5050565b60006119f9836000018373ffffffffffffffffffffffffffffffffffffffff1660001b61298e565b905092915050565b6000611a0f826000016129b1565b9050919050565b6000611a2583600001836129c2565b60001c905092915050565b611a386129ed565b73ffffffffffffffffffffffffffffffffffffffff16611a5661146a565b73ffffffffffffffffffffffffffffffffffffffff1614611aac576040517f08c379a0000000000000000000000000000000000000000000000000000000008152600401611aa39061412c565b60405180910390fd5b565b60008060009054906101000a900473ffffffffffffffffffffffffffffffffffffffff169050816000806101000a81548173ffffffffffffffffffffffffffffffffffffffff021916908373ffffffffffffffffffffffffffffffffffffffff1602179055508173ffffffffffffffffffffffffffffffffffffffff168173ffffffffffffffffffffffffffffffffffffffff167f8be0079c531659141344cd1fd0a4f28419497f9722a3daafe3b4186f6b6457e060405160405180910390a35050565b60008060008373ffffffffffffffffffffffffffffffffffffffff168573ffffffffffffffffffffffffffffffffffffffff161415611be6576040517f08c379a0000000000000000000000000000000000000000000000000000000008152600401611bdd90614198565b60405180910390fd5b6000808673ffffffffffffffffffffffffffffffffffffffff16630dfe16816040518163ffffffff1660e01b8152600401602060405180830381865afa158015611c34573d6000803e3d6000fd5b505050506040513d601f19601f82011682018060405250810190611c589190613d41565b8773ffffffffffffffffffffffffffffffffffffffff1663d21220a76040518163ffffffff1660e01b8152600401602060405180830381865afa158015611ca3573d6000803e3d6000fd5b505050506040513d601f19601f82011682018060405250810190611cc79190613d41565b915091506000808773ffffffffffffffffffffffffffffffffffffffff16630dfe16816040518163ffffffff1660e01b8152600401602060405180830381865afa158015611d19573d6000803e3d6000fd5b505050506040513d601f19601f82011682018060405250810190611d3d9190613d41565b8873ffffffffffffffffffffffffffffffffffffffff1663d21220a76040518163ffffffff1660e01b8152600401602060405180830381865afa158015611d88573d6000803e3d6000fd5b505050506040513d601f19601f82011682018060405250810190611dac9190613d41565b915091508273ffffffffffffffffffffffffffffffffffffffff168473ffffffffffffffffffffffffffffffffffffffff16108015611e1657508073ffffffffffffffffffffffffffffffffffffffff168273ffffffffffffffffffffffffffffffffffffffff16105b611e55576040517f08c379a0000000000000000000000000000000000000000000000000000000008152600401611e4c90614204565b60405180910390fd5b8173ffffffffffffffffffffffffffffffffffffffff168473ffffffffffffffffffffffffffffffffffffffff16148015611ebb57508073ffffffffffffffffffffffffffffffffffffffff168373ffffffffffffffffffffffffffffffffffffffff16145b611efa576040517f08c379a0000000000000000000000000000000000000000000000000000000008152600401611ef190614270565b60405180910390fd5b611f0384610724565b80611f135750611f1283610724565b5b611f52576040517f08c379a0000000000000000000000000000000000000000000000000000000008152600401611f49906142dc565b60405180910390fd5b611f5b84610724565b611f685760008385611f6d565b600184845b809750819850829950505050505050509250925092565b600080611f8f613196565b6000808773ffffffffffffffffffffffffffffffffffffffff16630902f1ac6040518163ffffffff1660e01b8152600401606060405180830381865afa158015611fdd573d6000803e3d6000fd5b505050506040513d601f19601f82011682018060405250810190612001919061437e565b506dffffffffffffffffffffffffffff1691506dffffffffffffffffffffffffffff1691506000808873ffffffffffffffffffffffffffffffffffffffff16630902f1ac6040518163ffffffff1660e01b8152600401606060405180830381865afa158015612074573d6000803e3d6000fd5b505050506040513d601f19601f82011682018060405250810190612098919061437e565b506dffffffffffffffffffffffffffff1691506dffffffffffffffffffffffffffff16915060008089612100576120e0866120d2876129f5565b612a2d90919063ffffffff16565b6120fb856120ed866129f5565b612a2d90919063ffffffff16565b612137565b61211b8561210d886129f5565b612a2d90919063ffffffff16565b61213684612128876129f5565b612a2d90919063ffffffff16565b5b9150915061214e8183612a6290919063ffffffff16565b156121ea576121a46040518060400160405280601f81526020017f6865726520707269636530206973206c657373207468656e207072696365310081525061219f8385612a6290919063ffffffff16565b612a78565b8b8b809950819a505050896121bc57848684866121c1565b858585855b8a6000018b6020018c6040018d606001848152508481525084815250848152505050505061226a565b6122286040518060400160405280600b81526020017f68657265696e20656c736500000000000000000000000000000000000000000081525061275d565b8a8c809950819a505050896122405782848688612245565b838387875b8a6000018b6020018c6040018d60600184815250848152508481525084815250505050505b50505050505093509350939050565b600080826020015183600001511061229557826020015161229b565b82600001515b9050600083606001518460400151106122b85783606001516122be565b83604001515b905060008183106122cf57816122d1565b825b9050600069d3c21bcecceda10000008211156122f85768056bc75e2d631000009050612422565b69152d02c7e14af680000082111561231a57678ac7230489e800009050612421565b69021e19e0c9bab240000082111561233c57670de0b6b3a76400009050612420565b683635c9adc5dea0000082111561235d5767016345785d8a0000905061241f565b68056bc75e2d6310000082111561237d57662386f26fc10000905061241e565b678ac7230489e8000082111561239c5766038d7ea4c68000905061241d565b670de0b6b3a76400008211156123ba57655af3107a4000905061241c565b67016345785d8a00008211156123d8576509184e72a000905061241b565b662386f26fc100008211156123f45764e8d4a51000905061241a565b66038d7ea4c680008211156124105764174876e8009050612419565b6402540be40090505b5b5b5b5b5b5b5b5b5b6124616040518060400160405280600b81526020017f64646464646464646464640000000000000000000000000000000000000000008152508261261f565b600080600080848a60000151612477919061395c565b858b60400151612487919061395c565b868c60200151612497919061395c565b878d606001516124a7919061395c565b9350935093509350600081846124bd91906143db565b83866124c991906143db565b6124d391906144f2565b9050600084866124e39190614586565b838560026124f191906143db565b6124fb91906143db565b61250591906143db565b90506000848661251591906143db565b848861252191906143db565b61252b91906144f2565b848661253791906143db565b61254191906143db565b9050600080612551858585612b14565b9150915060008213801561256457508682125b801561256f57508582125b80612590575060008113801561258457508681125b801561258f57508581125b5b6125cf576040517f08c379a00000000000000000000000000000000000000000000000000000000081526004016125c690614666565b60405180910390fd5b6000821380156125de57508682125b80156125e957508582125b6125fe5789816125f99190613fbc565b61260b565b898261260a9190613fbc565b5b9d5050505050505050505050505050919050565b6126b78282604051602401612635929190614686565b6040516020818303038152906040527fb60e72cc000000000000000000000000000000000000000000000000000000007bffffffffffffffffffffffffffffffffffffffffffffffffffffffff19166020820180517bffffffffffffffffffffffffffffffffffffffffffffffffffffffff8381831617835250505050612974565b5050565b612757848484846040516024016126d594939291906146b6565b6040516020818303038152906040527fc67ea9d1000000000000000000000000000000000000000000000000000000007bffffffffffffffffffffffffffffffffffffffffffffffffffffffff19166020820180517bffffffffffffffffffffffffffffffffffffffffffffffffffffffff8381831617835250505050612974565b50505050565b6127f3816040516024016127719190614709565b6040516020818303038152906040527f41304fac000000000000000000000000000000000000000000000000000000007bffffffffffffffffffffffffffffffffffffffffffffffffffffffff19166020820180517bffffffffffffffffffffffffffffffffffffffffffffffffffffffff8381831617835250505050612974565b50565b600081836128049190613d6e565b905092915050565b6000612834836000018373ffffffffffffffffffffffffffffffffffffffff1660001b612c00565b905092915050565b6000612848838361298e565b6128a15782600001829080600181540180825580915050600190039060005260206000200160009091909190915055826000018054905083600101600084815260200190815260200160002081905550600190506128a6565b600090505b92915050565b600061290e826040518060400160405280602081526020017f5361666545524332303a206c6f772d6c6576656c2063616c6c206661696c65648152508573ffffffffffffffffffffffffffffffffffffffff16612d149092919063ffffffff16565b905060008151148061293057508080602001905181019061292f9190613ccb565b5b61296f576040517f08c379a00000000000000000000000000000000000000000000000000000000081526004016129669061479d565b60405180910390fd5b505050565b61298b81612983612d2c612d4d565b63ffffffff16565b50565b600080836001016000848152602001908152602001600020541415905092915050565b600081600001805490509050919050565b60008260000182815481106129da576129d9613efb565b5b9060005260206000200154905092915050565b600033905090565b6129fd613255565b6040518060200160405280612a23670de0b6b3a764000085612d5890919063ffffffff16565b8152509050919050565b612a35613255565b6040518060200160405280612a57848660000151612dd390919063ffffffff16565b815250905092915050565b600080612a6f8484612e1d565b14905092915050565b612b108282604051602401612a8e9291906147bd565b6040516020818303038152906040527fc3b55635000000000000000000000000000000000000000000000000000000007bffffffffffffffffffffffffffffffffffffffffffffffffffffffff19166020820180517bffffffffffffffffffffffffffffffffffffffffffffffffffffffff8381831617835250505050612974565b5050565b600080600083866004612b2791906143db565b612b3191906143db565b600286612b3e9190614949565b612b4891906144f2565b905060008113612b8d576040517f08c379a0000000000000000000000000000000000000000000000000000000008152600401612b8490614a01565b60405180910390fd5b6000612b9882612e5d565b9050866002612ba791906143db565b8187612bb290614a21565b612bbc9190614586565b612bc69190614a6a565b9350866002612bd591906143db565b8187612be090614a21565b612bea91906144f2565b612bf49190614a6a565b92505050935093915050565b60008083600101600084815260200190815260200160002054905060008114612d08576000600182612c329190613d6e565b9050600060018660000180549050612c4a9190613d6e565b9050818114612cb9576000866000018281548110612c6b57612c6a613efb565b5b9060005260206000200154905080876000018481548110612c8f57612c8e613efb565b5b90600052602060002001819055508387600101600083815260200190815260200160002081905550505b85600001805480612ccd57612ccc614ad4565b5b600190038181906000526020600020016000905590558560010160008681526020019081526020016000206000905560019350505050612d0e565b60009150505b92915050565b6060612d238484600085612ef4565b90509392505050565b60006a636f6e736f6c652e6c6f679050600080835160208501845afa505050565b613268819050919050565b600080831415612d6b5760009050612dcd565b60008284612d799190613fbc565b9050828482612d88919061395c565b14612dc8576040517f08c379a0000000000000000000000000000000000000000000000000000000008152600401612dbf90614b75565b60405180910390fd5b809150505b92915050565b6000612e1583836040518060400160405280601a81526020017f536166654d6174683a206469766973696f6e206279207a65726f000000000000815250612fc1565b905092915050565b6000816000015183600001511415612e385760019050612e57565b8160000151836000015111612e4e576000612e51565b60025b60ff1690505b92915050565b600060018211612e7057612e6f614b95565b5b6000620f424083612e819190613fbc565b9050600081905081925060005b600115612edc5760028483612ea3919061395c565b85612eae9190614016565b612eb8919061395c565b90506103e88185612ec99190613d6e565b1015612ed457612edc565b809350612e8e565b6103e884612eea919061395c565b9350505050919050565b606082471015612f39576040517f08c379a0000000000000000000000000000000000000000000000000000000008152600401612f3090614c36565b60405180910390fd5b6000808673ffffffffffffffffffffffffffffffffffffffff168587604051612f629190614c92565b60006040518083038185875af1925050503d8060008114612f9f576040519150601f19603f3d011682016040523d82523d6000602084013e612fa4565b606091505b5091509150612fb587838387613024565b92505050949350505050565b60008083118290613008576040517f08c379a0000000000000000000000000000000000000000000000000000000008152600401612fff9190614709565b60405180910390fd5b5060008385613017919061395c565b9050809150509392505050565b606083156130875760008351141561307f5761303f8561309a565b61307e576040517f08c379a000000000000000000000000000000000000000000000000000000000815260040161307590614cf5565b60405180910390fd5b5b829050613092565b61309183836130bd565b5b949350505050565b6000808273ffffffffffffffffffffffffffffffffffffffff163b119050919050565b6000825111156130d05781518083602001fd5b806040517f08c379a00000000000000000000000000000000000000000000000000000000081526004016131049190614709565b60405180910390fd5b6040518060a00160405280600073ffffffffffffffffffffffffffffffffffffffff168152602001600073ffffffffffffffffffffffffffffffffffffffff168152602001600015158152602001600073ffffffffffffffffffffffffffffffffffffffff168152602001600073ffffffffffffffffffffffffffffffffffffffff1681525090565b6040518060800160405280600081526020016000815260200160008152602001600081525090565b6040518060e00160405280600073ffffffffffffffffffffffffffffffffffffffff168152602001600073ffffffffffffffffffffffffffffffffffffffff168152602001600015158152602001600073ffffffffffffffffffffffffffffffffffffffff168152602001600073ffffffffffffffffffffffffffffffffffffffff16815260200160008152602001600081525090565b6040518060200160405280600081525090565b613270614d15565b565b6000604051905090565b600080fd5b600080fd5b6000819050919050565b61329981613286565b81146132a457600080fd5b50565b6000813590506132b681613290565b92915050565b6000806000606084860312156132d5576132d461327c565b5b60006132e3868287016132a7565b93505060206132f4868287016132a7565b9250506040613305868287016132a7565b9150509250925092565b61331881613286565b82525050565b6000602082019050613333600083018461330f565b92915050565b600073ffffffffffffffffffffffffffffffffffffffff82169050919050565b600061336482613339565b9050919050565b61337481613359565b811461337f57600080fd5b50565b6000813590506133918161336b565b92915050565b600080fd5b600080fd5b6000601f19601f8301169050919050565b7f4e487b7100000000000000000000000000000000000000000000000000000000600052604160045260246000fd5b6133ea826133a1565b810181811067ffffffffffffffff82111715613409576134086133b2565b5b80604052505050565b600061341c613272565b905061342882826133e1565b919050565b600067ffffffffffffffff821115613448576134476133b2565b5b613451826133a1565b9050602081019050919050565b82818337600083830152505050565b600061348061347b8461342d565b613412565b90508281526020810184848401111561349c5761349b61339c565b5b6134a784828561345e565b509392505050565b600082601f8301126134c4576134c3613397565b5b81356134d484826020860161346d565b91505092915050565b600080600080608085870312156134f7576134f661327c565b5b600061350587828801613382565b9450506020613516878288016132a7565b9350506040613527878288016132a7565b925050606085013567ffffffffffffffff81111561354857613547613281565b5b613554878288016134af565b91505092959194509250565b6000602082840312156135765761357561327c565b5b600061358484828501613382565b91505092915050565b60008115159050919050565b6135a28161358d565b82525050565b60006020820190506135bd6000830184613599565b92915050565b6135cc81613359565b82525050565b60006020820190506135e760008301846135c3565b92915050565b600080604083850312156136045761360361327c565b5b600061361285828601613382565b925050602061362385828601613382565b9150509250929050565b6000604082019050613642600083018561330f565b61364f60208301846135c3565b9392505050565b60008060006060848603121561366f5761366e61327c565b5b600061367d86828701613382565b935050602061368e86828701613382565b925050604061369f868287016132a7565b9150509250925092565b600080604083850312156136c0576136bf61327c565b5b60006136ce85828601613382565b92505060206136df858286016132a7565b9150509250929050565b600081519050919050565b600082825260208201905092915050565b6000819050602082019050919050565b61371e81613359565b82525050565b60006137308383613715565b60208301905092915050565b6000602082019050919050565b6000613754826136e9565b61375e81856136f4565b935061376983613705565b8060005b8381101561379a5781516137818882613724565b975061378c8361373c565b92505060018101905061376d565b5085935050505092915050565b600060208201905081810360008301526137c18184613749565b905092915050565b600082825260208201905092915050565b7f556e697377617056324c6962726172793a20494e53554646494349454e545f4960008201527f4e5055545f414d4f554e54000000000000000000000000000000000000000000602082015250565b6000613836602b836137c9565b9150613841826137da565b604082019050919050565b6000602082019050818103600083015261386581613829565b9050919050565b7f556e697377617056324c6962726172793a20494e53554646494349454e545f4c60008201527f4951554944495459000000000000000000000000000000000000000000000000602082015250565b60006138c86028836137c9565b91506138d38261386c565b604082019050919050565b600060208201905081810360008301526138f7816138bb565b9050919050565b7f4e487b7100000000000000000000000000000000000000000000000000000000600052601260045260246000fd5b7f4e487b7100000000000000000000000000000000000000000000000000000000600052601160045260246000fd5b600061396782613286565b915061397283613286565b925082613982576139816138fe565b5b828204905092915050565b7f4e6f6e207065726d697373696f6e656420616464726573732063616c6c000000600082015250565b60006139c3601d836137c9565b91506139ce8261398d565b602082019050919050565b600060208201905081810360008301526139f2816139b6565b9050919050565b7f4e6f742066726f6d207468697320636f6e747261637400000000000000000000600082015250565b6000613a2f6016836137c9565b9150613a3a826139f9565b602082019050919050565b60006020820190508181036000830152613a5e81613a22565b9050919050565b600080fd5b600081519050613a798161336b565b92915050565b613a888161358d565b8114613a9357600080fd5b50565b600081519050613aa581613a7f565b92915050565b600081519050613aba81613290565b92915050565b600060e08284031215613ad657613ad5613a65565b5b613ae060e0613412565b90506000613af084828501613a6a565b6000830152506020613b0484828501613a6a565b6020830152506040613b1884828501613a96565b6040830152506060613b2c84828501613a6a565b6060830152506080613b4084828501613a6a565b60808301525060a0613b5484828501613aab565b60a08301525060c0613b6884828501613aab565b60c08301525092915050565b600060e08284031215613b8a57613b8961327c565b5b6000613b9884828501613ac0565b91505092915050565b600081519050919050565b600082825260208201905092915050565b60005b83811015613bdb578082015181840152602081019050613bc0565b83811115613bea576000848401525b50505050565b6000613bfb82613ba1565b613c058185613bac565b9350613c15818560208601613bbd565b613c1e816133a1565b840191505092915050565b6000608082019050613c3e600083018761330f565b613c4b602083018661330f565b613c5860408301856135c3565b8181036060830152613c6a8184613bf0565b905095945050505050565b600060208284031215613c8b57613c8a61327c565b5b6000613c9984828501613aab565b91505092915050565b6000604082019050613cb760008301856135c3565b613cc4602083018461330f565b9392505050565b600060208284031215613ce157613ce061327c565b5b6000613cef84828501613a96565b91505092915050565b6000613d0382613286565b91507fffffffffffffffffffffffffffffffffffffffffffffffffffffffffffffffff821415613d3657613d3561392d565b5b600182019050919050565b600060208284031215613d5757613d5661327c565b5b6000613d6584828501613a6a565b91505092915050565b6000613d7982613286565b9150613d8483613286565b925082821015613d9757613d9661392d565b5b828203905092915050565b613dab8161358d565b82525050565b613dba81613286565b82525050565b60e082016000820151613dd66000850182613715565b506020820151613de96020850182613715565b506040820151613dfc6040850182613da2565b506060820151613e0f6060850182613715565b506080820151613e226080850182613715565b5060a0820151613e3560a0850182613db1565b5060c0820151613e4860c0850182613db1565b50505050565b600060e082019050613e636000830184613dc0565b92915050565b7f556e697377617056324c6962726172793a20494e53554646494349454e545f4f60008201527f55545055545f414d4f554e540000000000000000000000000000000000000000602082015250565b6000613ec5602c836137c9565b9150613ed082613e69565b604082019050919050565b60006020820190508181036000830152613ef481613eb8565b9050919050565b7f4e487b7100000000000000000000000000000000000000000000000000000000600052603260045260246000fd5b7f4f776e61626c653a206e6577206f776e657220697320746865207a65726f206160008201527f6464726573730000000000000000000000000000000000000000000000000000602082015250565b6000613f866026836137c9565b9150613f9182613f2a565b604082019050919050565b60006020820190508181036000830152613fb581613f79565b9050919050565b6000613fc782613286565b9150613fd283613286565b9250817fffffffffffffffffffffffffffffffffffffffffffffffffffffffffffffffff048311821515161561400b5761400a61392d565b5b828202905092915050565b600061402182613286565b915061402c83613286565b9250827fffffffffffffffffffffffffffffffffffffffffffffffffffffffffffffffff038211156140615761406061392d565b5b828201905092915050565b600081519050919050565b60006140828261406c565b61408c81856137c9565b935061409c818560208601613bbd565b6140a5816133a1565b840191505092915050565b600060408201905081810360008301526140ca8185614077565b90506140d960208301846135c3565b9392505050565b7f4f776e61626c653a2063616c6c6572206973206e6f7420746865206f776e6572600082015250565b60006141166020836137c9565b9150614121826140e0565b602082019050919050565b6000602082019050818103600083015261414581614109565b9050919050565b7f53616d6520706169722061646472657373000000000000000000000000000000600082015250565b60006141826011836137c9565b915061418d8261414c565b602082019050919050565b600060208201905081810360008301526141b181614175565b9050919050565b7f4e6f6e207374616e6461726420756e697377617020414d4d2070616972000000600082015250565b60006141ee601d836137c9565b91506141f9826141b8565b602082019050919050565b6000602082019050818103600083015261421d816141e1565b9050919050565b7f526571756972652073616d6520746f6b656e2070616972000000000000000000600082015250565b600061425a6017836137c9565b915061426582614224565b602082019050919050565b600060208201905081810360008301526142898161424d565b9050919050565b7f4e6f206261736520746f6b656e20696e20706169720000000000000000000000600082015250565b60006142c66015836137c9565b91506142d182614290565b602082019050919050565b600060208201905081810360008301526142f5816142b9565b9050919050565b60006dffffffffffffffffffffffffffff82169050919050565b61431f816142fc565b811461432a57600080fd5b50565b60008151905061433c81614316565b92915050565b600063ffffffff82169050919050565b61435b81614342565b811461436657600080fd5b50565b60008151905061437881614352565b92915050565b6000806000606084860312156143975761439661327c565b5b60006143a58682870161432d565b93505060206143b68682870161432d565b92505060406143c786828701614369565b9150509250925092565b6000819050919050565b60006143e6826143d1565b91506143f1836143d1565b9250827f7fffffffffffffffffffffffffffffffffffffffffffffffffffffffffffffff04821160008413600084131616156144305761442f61392d565b5b817f8000000000000000000000000000000000000000000000000000000000000000058312600084126000841316161561446d5761446c61392d565b5b827f800000000000000000000000000000000000000000000000000000000000000005821260008413600084121616156144aa576144a961392d565b5b827f7fffffffffffffffffffffffffffffffffffffffffffffffffffffffffffffff05821260008412600084121616156144e7576144e661392d565b5b828202905092915050565b60006144fd826143d1565b9150614508836143d1565b9250827f8000000000000000000000000000000000000000000000000000000000000000018212600084121516156145435761454261392d565b5b827f7fffffffffffffffffffffffffffffffffffffffffffffffffffffffffffffff01821360008412161561457b5761457a61392d565b5b828203905092915050565b6000614591826143d1565b915061459c836143d1565b9250817f7fffffffffffffffffffffffffffffffffffffffffffffffffffffffffffffff038313600083121516156145d7576145d661392d565b5b817f800000000000000000000000000000000000000000000000000000000000000003831260008312161561460f5761460e61392d565b5b828201905092915050565b7f57726f6e6720696e707574206f72646572000000000000000000000000000000600082015250565b60006146506011836137c9565b915061465b8261461a565b602082019050919050565b6000602082019050818103600083015261467f81614643565b9050919050565b600060408201905081810360008301526146a08185614077565b90506146af602083018461330f565b9392505050565b600060808201905081810360008301526146d08187614077565b90506146df602083018661330f565b81810360408301526146f18185614077565b9050614700606083018461330f565b95945050505050565b600060208201905081810360008301526147238184614077565b905092915050565b7f5361666545524332303a204552433230206f7065726174696f6e20646964206e60008201527f6f74207375636365656400000000000000000000000000000000000000000000602082015250565b6000614787602a836137c9565b91506147928261472b565b604082019050919050565b600060208201905081810360008301526147b68161477a565b9050919050565b600060408201905081810360008301526147d78185614077565b90506147e66020830184613599565b9392505050565b60008160011c9050919050565b6000808291508390505b6001851115614844578086048111156148205761481f61392d565b5b600185161561482f5780820291505b808102905061483d856147ed565b9450614804565b94509492505050565b60008260008114614865576001811461486f57614878565b6001915050614934565b82915050614934565b50816148875760009050614934565b6001905060008213600181146148a457600081146148bc576148d0565b8286048311156148b7576148b661392d565b5b6148d0565b8286058312156148cf576148ce61392d565b5b5b5060018316156148de578190505b81820291506148ec836147ed565b92506148fa858484846147fa565b9250905081850481116000821316156149165761491561392d565b5b818405811260008212161561492e5761492d61392d565b5b81810290505b949350505050565b600060ff82169050919050565b6000614954826143d1565b915061495f8361493c565b92506149ad7f7fffffffffffffffffffffffffffffffffffffffffffffffffffffffffffffff7f8000000000000000000000000000000000000000000000000000000000000000858561484d565b905092915050565b7f436f6d706c6578206e756d626572000000000000000000000000000000000000600082015250565b60006149eb600e836137c9565b91506149f6826149b5565b602082019050919050565b60006020820190508181036000830152614a1a816149de565b9050919050565b6000614a2c826143d1565b91507f8000000000000000000000000000000000000000000000000000000000000000821415614a5f57614a5e61392d565b5b816000039050919050565b6000614a75826143d1565b9150614a80836143d1565b925082614a9057614a8f6138fe565b5b600160000383147f800000000000000000000000000000000000000000000000000000000000000083141615614ac957614ac861392d565b5b828205905092915050565b7f4e487b7100000000000000000000000000000000000000000000000000000000600052603160045260246000fd5b7f536166654d6174683a206d756c7469706c69636174696f6e206f766572666c6f60008201527f7700000000000000000000000000000000000000000000000000000000000000602082015250565b6000614b5f6021836137c9565b9150614b6a82614b03565b604082019050919050565b60006020820190508181036000830152614b8e81614b52565b9050919050565b7f4e487b7100000000000000000000000000000000000000000000000000000000600052600160045260246000fd5b7f416464726573733a20696e73756666696369656e742062616c616e636520666f60008201527f722063616c6c0000000000000000000000000000000000000000000000000000602082015250565b6000614c206026836137c9565b9150614c2b82614bc4565b604082019050919050565b60006020820190508181036000830152614c4f81614c13565b9050919050565b600081905092915050565b6000614c6c82613ba1565b614c768185614c56565b9350614c86818560208601613bbd565b80840191505092915050565b6000614c9e8284614c61565b915081905092915050565b7f416464726573733a2063616c6c20746f206e6f6e2d636f6e7472616374000000600082015250565b6000614cdf601d836137c9565b9150614cea82614ca9565b602082019050919050565b60006020820190508181036000830152614d0e81614cd2565b9050919050565b7f4e487b7100000000000000000000000000000000000000000000000000000000600052605160045260246000fdfe73656c6c20626f72726f7765642071756f746520746f6b656e206f6e206869676865722070726963653d3d3d3d3e3e20626f72726f772071756f746520746f6b656e2066726f6d20636865617020706f6f6c3d3d3e20a2646970667358221220ce09846f7004d6f64a047db5a1b6e342386cd721a715e0ad6c4b84638190d28964736f6c634300080a0033",
			"opcodes": "PUSH1 0xA0 PUSH1 0x40 MSTORE PUSH1 0x1 DUP1 PUSH1 0x0 PUSH2 0x100 EXP DUP2 SLOAD DUP2 PUSH20 0xFFFFFFFFFFFFFFFFFFFFFFFFFFFFFFFFFFFFFFFF MUL NOT AND SWAP1 DUP4 PUSH20 0xFFFFFFFFFFFFFFFFFFFFFFFFFFFFFFFFFFFFFFFF AND MUL OR SWAP1 SSTORE POP CALLVALUE DUP1 ISZERO PUSH3 0x52 JUMPI PUSH1 0x0 DUP1 REVERT JUMPDEST POP PUSH1 0x40 MLOAD PUSH3 0x5115 CODESIZE SUB DUP1 PUSH3 0x5115 DUP4 CODECOPY DUP2 DUP2 ADD PUSH1 0x40 MSTORE DUP2 ADD SWAP1 PUSH3 0x78 SWAP2 SWAP1 PUSH3 0x2FA JUMP JUMPDEST PUSH3 0x98 PUSH3 0x8C PUSH3 0xEF PUSH1 0x20 SHL PUSH1 0x20 SHR JUMP JUMPDEST PUSH3 0xF7 PUSH1 0x20 SHL PUSH1 0x20 SHR JUMP JUMPDEST DUP1 PUSH20 0xFFFFFFFFFFFFFFFFFFFFFFFFFFFFFFFFFFFFFFFF AND PUSH1 0x80 DUP2 PUSH20 0xFFFFFFFFFFFFFFFFFFFFFFFFFFFFFFFFFFFFFFFF AND DUP2 MSTORE POP POP PUSH3 0xE7 DUP2 PUSH1 0x2 PUSH3 0x1BB PUSH1 0x20 SHL PUSH3 0x1853 OR SWAP1 SWAP2 SWAP1 PUSH1 0x20 SHR JUMP JUMPDEST POP POP PUSH3 0x32C JUMP JUMPDEST PUSH1 0x0 CALLER SWAP1 POP SWAP1 JUMP JUMPDEST PUSH1 0x0 DUP1 PUSH1 0x0 SWAP1 SLOAD SWAP1 PUSH2 0x100 EXP SWAP1 DIV PUSH20 0xFFFFFFFFFFFFFFFFFFFFFFFFFFFFFFFFFFFFFFFF AND SWAP1 POP DUP2 PUSH1 0x0 DUP1 PUSH2 0x100 EXP DUP2 SLOAD DUP2 PUSH20 0xFFFFFFFFFFFFFFFFFFFFFFFFFFFFFFFFFFFFFFFF MUL NOT AND SWAP1 DUP4 PUSH20 0xFFFFFFFFFFFFFFFFFFFFFFFFFFFFFFFFFFFFFFFF AND MUL OR SWAP1 SSTORE POP DUP2 PUSH20 0xFFFFFFFFFFFFFFFFFFFFFFFFFFFFFFFFFFFFFFFF AND DUP2 PUSH20 0xFFFFFFFFFFFFFFFFFFFFFFFFFFFFFFFFFFFFFFFF AND PUSH32 0x8BE0079C531659141344CD1FD0A4F28419497F9722A3DAAFE3B4186F6B6457E0 PUSH1 0x40 MLOAD PUSH1 0x40 MLOAD DUP1 SWAP2 SUB SWAP1 LOG3 POP POP JUMP JUMPDEST PUSH1 0x0 PUSH3 0x1EB DUP4 PUSH1 0x0 ADD DUP4 PUSH20 0xFFFFFFFFFFFFFFFFFFFFFFFFFFFFFFFFFFFFFFFF AND PUSH1 0x0 SHL PUSH3 0x1F3 PUSH1 0x20 SHL PUSH1 0x20 SHR JUMP JUMPDEST SWAP1 POP SWAP3 SWAP2 POP POP JUMP JUMPDEST PUSH1 0x0 PUSH3 0x207 DUP4 DUP4 PUSH3 0x26D PUSH1 0x20 SHL PUSH1 0x20 SHR JUMP JUMPDEST PUSH3 0x262 JUMPI DUP3 PUSH1 0x0 ADD DUP3 SWAP1 DUP1 PUSH1 0x1 DUP2 SLOAD ADD DUP1 DUP3 SSTORE DUP1 SWAP2 POP POP PUSH1 0x1 SWAP1 SUB SWAP1 PUSH1 0x0 MSTORE PUSH1 0x20 PUSH1 0x0 KECCAK256 ADD PUSH1 0x0 SWAP1 SWAP2 SWAP1 SWAP2 SWAP1 SWAP2 POP SSTORE DUP3 PUSH1 0x0 ADD DUP1 SLOAD SWAP1 POP DUP4 PUSH1 0x1 ADD PUSH1 0x0 DUP5 DUP2 MSTORE PUSH1 0x20 ADD SWAP1 DUP2 MSTORE PUSH1 0x20 ADD PUSH1 0x0 KECCAK256 DUP2 SWAP1 SSTORE POP PUSH1 0x1 SWAP1 POP PUSH3 0x267 JUMP JUMPDEST PUSH1 0x0 SWAP1 POP JUMPDEST SWAP3 SWAP2 POP POP JUMP JUMPDEST PUSH1 0x0 DUP1 DUP4 PUSH1 0x1 ADD PUSH1 0x0 DUP5 DUP2 MSTORE PUSH1 0x20 ADD SWAP1 DUP2 MSTORE PUSH1 0x20 ADD PUSH1 0x0 KECCAK256 SLOAD EQ ISZERO SWAP1 POP SWAP3 SWAP2 POP POP JUMP JUMPDEST PUSH1 0x0 DUP1 REVERT JUMPDEST PUSH1 0x0 PUSH20 0xFFFFFFFFFFFFFFFFFFFFFFFFFFFFFFFFFFFFFFFF DUP3 AND SWAP1 POP SWAP2 SWAP1 POP JUMP JUMPDEST PUSH1 0x0 PUSH3 0x2C2 DUP3 PUSH3 0x295 JUMP JUMPDEST SWAP1 POP SWAP2 SWAP1 POP JUMP JUMPDEST PUSH3 0x2D4 DUP2 PUSH3 0x2B5 JUMP JUMPDEST DUP2 EQ PUSH3 0x2E0 JUMPI PUSH1 0x0 DUP1 REVERT JUMPDEST POP JUMP JUMPDEST PUSH1 0x0 DUP2 MLOAD SWAP1 POP PUSH3 0x2F4 DUP2 PUSH3 0x2C9 JUMP JUMPDEST SWAP3 SWAP2 POP POP JUMP JUMPDEST PUSH1 0x0 PUSH1 0x20 DUP3 DUP5 SUB SLT ISZERO PUSH3 0x313 JUMPI PUSH3 0x312 PUSH3 0x290 JUMP JUMPDEST JUMPDEST PUSH1 0x0 PUSH3 0x323 DUP5 DUP3 DUP6 ADD PUSH3 0x2E3 JUMP JUMPDEST SWAP2 POP POP SWAP3 SWAP2 POP POP JUMP JUMPDEST PUSH1 0x80 MLOAD PUSH2 0x4DD0 PUSH3 0x345 PUSH1 0x0 CODECOPY PUSH1 0x0 POP POP PUSH2 0x4DD0 PUSH1 0x0 RETURN INVALID PUSH1 0x80 PUSH1 0x40 MSTORE CALLVALUE DUP1 ISZERO PUSH2 0x10 JUMPI PUSH1 0x0 DUP1 REVERT JUMPDEST POP PUSH1 0x4 CALLDATASIZE LT PUSH2 0x121 JUMPI PUSH1 0x0 CALLDATALOAD PUSH1 0xE0 SHR DUP1 PUSH4 0x84800812 GT PUSH2 0xAD JUMPI DUP1 PUSH4 0x9912AF74 GT PUSH2 0x71 JUMPI DUP1 PUSH4 0x9912AF74 EQ PUSH2 0x2F7 JUMPI DUP1 PUSH4 0xA863BAF9 EQ PUSH2 0x327 JUMPI DUP1 PUSH4 0xBBD1E122 EQ PUSH2 0x345 JUMPI DUP1 PUSH4 0xBED64C2F EQ PUSH2 0x361 JUMPI DUP1 PUSH4 0xF2FDE38B EQ PUSH2 0x37F JUMPI PUSH2 0x121 JUMP JUMPDEST DUP1 PUSH4 0x84800812 EQ PUSH2 0x251 JUMPI DUP1 PUSH4 0x85F8C259 EQ PUSH2 0x26D JUMPI DUP1 PUSH4 0x86B6FCCB EQ PUSH2 0x29D JUMPI DUP1 PUSH4 0x8772FA25 EQ PUSH2 0x2BB JUMPI DUP1 PUSH4 0x8DA5CB5B EQ PUSH2 0x2D9 JUMPI PUSH2 0x121 JUMP JUMPDEST DUP1 PUSH4 0x536E35E1 GT PUSH2 0xF4 JUMPI DUP1 PUSH4 0x536E35E1 EQ PUSH2 0x1AC JUMPI DUP1 PUSH4 0x715018A6 EQ PUSH2 0x1CA JUMPI DUP1 PUSH4 0x759EEE10 EQ PUSH2 0x1D4 JUMPI DUP1 PUSH4 0x7E19A0C4 EQ PUSH2 0x205 JUMPI DUP1 PUSH4 0x83E280D9 EQ PUSH2 0x235 JUMPI PUSH2 0x121 JUMP JUMPDEST DUP1 PUSH4 0x54D50D4 EQ PUSH2 0x126 JUMPI DUP1 PUSH4 0x10D1E85C EQ PUSH2 0x156 JUMPI DUP1 PUSH4 0x21D09426 EQ PUSH2 0x172 JUMPI DUP1 PUSH4 0x3CCFD60B EQ PUSH2 0x1A2 JUMPI JUMPDEST PUSH1 0x0 DUP1 REVERT JUMPDEST PUSH2 0x140 PUSH1 0x4 DUP1 CALLDATASIZE SUB DUP2 ADD SWAP1 PUSH2 0x13B SWAP2 SWAP1 PUSH2 0x32BC JUMP JUMPDEST PUSH2 0x39B JUMP JUMPDEST PUSH1 0x40 MLOAD PUSH2 0x14D SWAP2 SWAP1 PUSH2 0x331E JUMP JUMPDEST PUSH1 0x40 MLOAD DUP1 SWAP2 SUB SWAP1 RETURN JUMPDEST PUSH2 0x170 PUSH1 0x4 DUP1 CALLDATASIZE SUB DUP2 ADD SWAP1 PUSH2 0x16B SWAP2 SWAP1 PUSH2 0x34DD JUMP JUMPDEST PUSH2 0x4A1 JUMP JUMPDEST STOP JUMPDEST PUSH2 0x18C PUSH1 0x4 DUP1 CALLDATASIZE SUB DUP2 ADD SWAP1 PUSH2 0x187 SWAP2 SWAP1 PUSH2 0x3560 JUMP JUMPDEST PUSH2 0x724 JUMP JUMPDEST PUSH1 0x40 MLOAD PUSH2 0x199 SWAP2 SWAP1 PUSH2 0x35A8 JUMP JUMPDEST PUSH1 0x40 MLOAD DUP1 SWAP2 SUB SWAP1 RETURN JUMPDEST PUSH2 0x1AA PUSH2 0x780 JUMP JUMPDEST STOP JUMPDEST PUSH2 0x1B4 PUSH2 0x978 JUMP JUMPDEST PUSH1 0x40 MLOAD PUSH2 0x1C1 SWAP2 SWAP1 PUSH2 0x35D2 JUMP JUMPDEST PUSH1 0x40 MLOAD DUP1 SWAP2 SUB SWAP1 RETURN JUMPDEST PUSH2 0x1D2 PUSH2 0x99E JUMP JUMPDEST STOP JUMPDEST PUSH2 0x1EE PUSH1 0x4 DUP1 CALLDATASIZE SUB DUP2 ADD SWAP1 PUSH2 0x1E9 SWAP2 SWAP1 PUSH2 0x35ED JUMP JUMPDEST PUSH2 0x9B2 JUMP JUMPDEST PUSH1 0x40 MLOAD PUSH2 0x1FC SWAP3 SWAP2 SWAP1 PUSH2 0x362D JUMP JUMPDEST PUSH1 0x40 MLOAD DUP1 SWAP2 SUB SWAP1 RETURN JUMPDEST PUSH2 0x21F PUSH1 0x4 DUP1 CALLDATASIZE SUB DUP2 ADD SWAP1 PUSH2 0x21A SWAP2 SWAP1 PUSH2 0x3656 JUMP JUMPDEST PUSH2 0xB28 JUMP JUMPDEST PUSH1 0x40 MLOAD PUSH2 0x22C SWAP2 SWAP1 PUSH2 0x35A8 JUMP JUMPDEST PUSH1 0x40 MLOAD DUP1 SWAP2 SUB SWAP1 RETURN JUMPDEST PUSH2 0x24F PUSH1 0x4 DUP1 CALLDATASIZE SUB DUP2 ADD SWAP1 PUSH2 0x24A SWAP2 SWAP1 PUSH2 0x3560 JUMP JUMPDEST PUSH2 0x101A JUMP JUMPDEST STOP JUMPDEST PUSH2 0x26B PUSH1 0x4 DUP1 CALLDATASIZE SUB DUP2 ADD SWAP1 PUSH2 0x266 SWAP2 SWAP1 PUSH2 0x34DD JUMP JUMPDEST PUSH2 0x107D JUMP JUMPDEST STOP JUMPDEST PUSH2 0x287 PUSH1 0x4 DUP1 CALLDATASIZE SUB DUP2 ADD SWAP1 PUSH2 0x282 SWAP2 SWAP1 PUSH2 0x32BC JUMP JUMPDEST PUSH2 0x133E JUMP JUMPDEST PUSH1 0x40 MLOAD PUSH2 0x294 SWAP2 SWAP1 PUSH2 0x331E JUMP JUMPDEST PUSH1 0x40 MLOAD DUP1 SWAP2 SUB SWAP1 RETURN JUMPDEST PUSH2 0x2A5 PUSH2 0x1451 JUMP JUMPDEST PUSH1 0x40 MLOAD PUSH2 0x2B2 SWAP2 SWAP1 PUSH2 0x35A8 JUMP JUMPDEST PUSH1 0x40 MLOAD DUP1 SWAP2 SUB SWAP1 RETURN JUMPDEST PUSH2 0x2C3 PUSH2 0x1464 JUMP JUMPDEST PUSH1 0x40 MLOAD PUSH2 0x2D0 SWAP2 SWAP1 PUSH2 0x331E JUMP JUMPDEST PUSH1 0x40 MLOAD DUP1 SWAP2 SUB SWAP1 RETURN JUMPDEST PUSH2 0x2E1 PUSH2 0x146A JUMP JUMPDEST PUSH1 0x40 MLOAD PUSH2 0x2EE SWAP2 SWAP1 PUSH2 0x35D2 JUMP JUMPDEST PUSH1 0x40 MLOAD DUP1 SWAP2 SUB SWAP1 RETURN JUMPDEST PUSH2 0x311 PUSH1 0x4 DUP1 CALLDATASIZE SUB DUP2 ADD SWAP1 PUSH2 0x30C SWAP2 SWAP1 PUSH2 0x36A9 JUMP JUMPDEST PUSH2 0x1493 JUMP JUMPDEST PUSH1 0x40 MLOAD PUSH2 0x31E SWAP2 SWAP1 PUSH2 0x35A8 JUMP JUMPDEST PUSH1 0x40 MLOAD DUP1 SWAP2 SUB SWAP1 RETURN JUMPDEST PUSH2 0x32F PUSH2 0x1578 JUMP JUMPDEST PUSH1 0x40 MLOAD PUSH2 0x33C SWAP2 SWAP1 PUSH2 0x331E JUMP JUMPDEST PUSH1 0x40 MLOAD DUP1 SWAP2 SUB SWAP1 RETURN JUMPDEST PUSH2 0x35F PUSH1 0x4 DUP1 CALLDATASIZE SUB DUP2 ADD SWAP1 PUSH2 0x35A SWAP2 SWAP1 PUSH2 0x3560 JUMP JUMPDEST PUSH2 0x157E JUMP JUMPDEST STOP JUMPDEST PUSH2 0x369 PUSH2 0x16F0 JUMP JUMPDEST PUSH1 0x40 MLOAD PUSH2 0x376 SWAP2 SWAP1 PUSH2 0x37A7 JUMP JUMPDEST PUSH1 0x40 MLOAD DUP1 SWAP2 SUB SWAP1 RETURN JUMPDEST PUSH2 0x399 PUSH1 0x4 DUP1 CALLDATASIZE SUB DUP2 ADD SWAP1 PUSH2 0x394 SWAP2 SWAP1 PUSH2 0x3560 JUMP JUMPDEST PUSH2 0x17CF JUMP JUMPDEST STOP JUMPDEST PUSH1 0x0 DUP1 DUP5 GT PUSH2 0x3DF JUMPI PUSH1 0x40 MLOAD PUSH32 0x8C379A000000000000000000000000000000000000000000000000000000000 DUP2 MSTORE PUSH1 0x4 ADD PUSH2 0x3D6 SWAP1 PUSH2 0x384C JUMP JUMPDEST PUSH1 0x40 MLOAD DUP1 SWAP2 SUB SWAP1 REVERT JUMPDEST PUSH1 0x0 DUP4 GT DUP1 ISZERO PUSH2 0x3EF JUMPI POP PUSH1 0x0 DUP3 GT JUMPDEST PUSH2 0x42E JUMPI PUSH1 0x40 MLOAD PUSH32 0x8C379A000000000000000000000000000000000000000000000000000000000 DUP2 MSTORE PUSH1 0x4 ADD PUSH2 0x425 SWAP1 PUSH2 0x38DE JUMP JUMPDEST PUSH1 0x40 MLOAD DUP1 SWAP2 SUB SWAP1 REVERT JUMPDEST PUSH1 0x0 PUSH2 0x445 PUSH2 0x3E5 DUP7 PUSH2 0x1883 SWAP1 SWAP2 SWAP1 PUSH4 0xFFFFFFFF AND JUMP JUMPDEST SWAP1 POP PUSH1 0x0 PUSH2 0x45C DUP5 DUP4 PUSH2 0x1883 SWAP1 SWAP2 SWAP1 PUSH4 0xFFFFFFFF AND JUMP JUMPDEST SWAP1 POP PUSH1 0x0 PUSH2 0x487 DUP4 PUSH2 0x479 PUSH2 0x3E8 DUP10 PUSH2 0x1883 SWAP1 SWAP2 SWAP1 PUSH4 0xFFFFFFFF AND JUMP JUMPDEST PUSH2 0x1899 SWAP1 SWAP2 SWAP1 PUSH4 0xFFFFFFFF AND JUMP JUMPDEST SWAP1 POP DUP1 DUP3 PUSH2 0x495 SWAP2 SWAP1 PUSH2 0x395C JUMP JUMPDEST SWAP4 POP POP POP POP SWAP4 SWAP3 POP POP POP JUMP JUMPDEST PUSH1 0x1 PUSH1 0x0 SWAP1 SLOAD SWAP1 PUSH2 0x100 EXP SWAP1 DIV PUSH20 0xFFFFFFFFFFFFFFFFFFFFFFFFFFFFFFFFFFFFFFFF AND PUSH20 0xFFFFFFFFFFFFFFFFFFFFFFFFFFFFFFFFFFFFFFFF AND CALLER PUSH20 0xFFFFFFFFFFFFFFFFFFFFFFFFFFFFFFFFFFFFFFFF AND EQ PUSH2 0x531 JUMPI PUSH1 0x40 MLOAD PUSH32 0x8C379A000000000000000000000000000000000000000000000000000000000 DUP2 MSTORE PUSH1 0x4 ADD PUSH2 0x528 SWAP1 PUSH2 0x39D9 JUMP JUMPDEST PUSH1 0x40 MLOAD DUP1 SWAP2 SUB SWAP1 REVERT JUMPDEST ADDRESS PUSH20 0xFFFFFFFFFFFFFFFFFFFFFFFFFFFFFFFFFFFFFFFF AND DUP5 PUSH20 0xFFFFFFFFFFFFFFFFFFFFFFFFFFFFFFFFFFFFFFFF AND EQ PUSH2 0x59F JUMPI PUSH1 0x40 MLOAD PUSH32 0x8C379A000000000000000000000000000000000000000000000000000000000 DUP2 MSTORE PUSH1 0x4 ADD PUSH2 0x596 SWAP1 PUSH2 0x3A45 JUMP JUMPDEST PUSH1 0x40 MLOAD DUP1 SWAP2 SUB SWAP1 REVERT JUMPDEST PUSH1 0x0 DUP1 DUP5 GT PUSH2 0x5AE JUMPI DUP3 PUSH2 0x5B0 JUMP JUMPDEST DUP4 JUMPDEST SWAP1 POP PUSH1 0x0 DUP3 DUP1 PUSH1 0x20 ADD SWAP1 MLOAD DUP2 ADD SWAP1 PUSH2 0x5C8 SWAP2 SWAP1 PUSH2 0x3B74 JUMP JUMPDEST SWAP1 POP PUSH2 0x5FD DUP2 PUSH1 0x20 ADD MLOAD DUP4 DUP4 PUSH1 0x60 ADD MLOAD PUSH20 0xFFFFFFFFFFFFFFFFFFFFFFFFFFFFFFFFFFFFFFFF AND PUSH2 0x18AF SWAP1 SWAP3 SWAP2 SWAP1 PUSH4 0xFFFFFFFF AND JUMP JUMPDEST PUSH1 0x0 DUP1 DUP3 PUSH1 0x40 ADD MLOAD PUSH2 0x615 JUMPI PUSH1 0x0 DUP4 PUSH1 0xC0 ADD MLOAD PUSH2 0x61D JUMP JUMPDEST DUP3 PUSH1 0xC0 ADD MLOAD PUSH1 0x0 JUMPDEST SWAP2 POP SWAP2 POP DUP3 PUSH1 0x20 ADD MLOAD PUSH20 0xFFFFFFFFFFFFFFFFFFFFFFFFFFFFFFFFFFFFFFFF AND PUSH4 0x22C0D9F DUP4 DUP4 ADDRESS PUSH1 0x0 PUSH8 0xFFFFFFFFFFFFFFFF DUP2 GT ISZERO PUSH2 0x65F JUMPI PUSH2 0x65E PUSH2 0x33B2 JUMP JUMPDEST JUMPDEST PUSH1 0x40 MLOAD SWAP1 DUP1 DUP3 MSTORE DUP1 PUSH1 0x1F ADD PUSH1 0x1F NOT AND PUSH1 0x20 ADD DUP3 ADD PUSH1 0x40 MSTORE DUP1 ISZERO PUSH2 0x691 JUMPI DUP2 PUSH1 0x20 ADD PUSH1 0x1 DUP3 MUL DUP1 CALLDATASIZE DUP4 CALLDATACOPY DUP1 DUP3 ADD SWAP2 POP POP SWAP1 POP JUMPDEST POP PUSH1 0x40 MLOAD DUP6 PUSH4 0xFFFFFFFF AND PUSH1 0xE0 SHL DUP2 MSTORE PUSH1 0x4 ADD PUSH2 0x6B1 SWAP5 SWAP4 SWAP3 SWAP2 SWAP1 PUSH2 0x3C29 JUMP JUMPDEST PUSH1 0x0 PUSH1 0x40 MLOAD DUP1 DUP4 SUB DUP2 PUSH1 0x0 DUP8 DUP1 EXTCODESIZE ISZERO DUP1 ISZERO PUSH2 0x6CB JUMPI PUSH1 0x0 DUP1 REVERT JUMPDEST POP GAS CALL ISZERO DUP1 ISZERO PUSH2 0x6DF JUMPI RETURNDATASIZE PUSH1 0x0 DUP1 RETURNDATACOPY RETURNDATASIZE PUSH1 0x0 REVERT JUMPDEST POP POP POP POP PUSH2 0x71A DUP4 PUSH1 0x0 ADD MLOAD DUP5 PUSH1 0xA0 ADD MLOAD DUP6 PUSH1 0x80 ADD MLOAD PUSH20 0xFFFFFFFFFFFFFFFFFFFFFFFFFFFFFFFFFFFFFFFF AND PUSH2 0x18AF SWAP1 SWAP3 SWAP2 SWAP1 PUSH4 0xFFFFFFFF AND JUMP JUMPDEST POP POP POP POP POP POP POP POP JUMP JUMPDEST PUSH1 0x0 PUSH2 0x765 PUSH1 0x40 MLOAD DUP1 PUSH1 0x40 ADD PUSH1 0x40 MSTORE DUP1 PUSH1 0x1A DUP2 MSTORE PUSH1 0x20 ADD PUSH32 0x62617365546F6B656E73436F6E7461696E732061646472657373000000000000 DUP2 MSTORE POP DUP4 PUSH2 0x1935 JUMP JUMPDEST PUSH2 0x779 DUP3 PUSH1 0x2 PUSH2 0x19D1 SWAP1 SWAP2 SWAP1 PUSH4 0xFFFFFFFF AND JUMP JUMPDEST SWAP1 POP SWAP2 SWAP1 POP JUMP JUMPDEST PUSH1 0x0 SELFBALANCE SWAP1 POP PUSH1 0x0 DUP2 GT ISZERO PUSH2 0x828 JUMPI PUSH2 0x796 PUSH2 0x146A JUMP JUMPDEST PUSH20 0xFFFFFFFFFFFFFFFFFFFFFFFFFFFFFFFFFFFFFFFF AND PUSH2 0x8FC DUP3 SWAP1 DUP2 ISZERO MUL SWAP1 PUSH1 0x40 MLOAD PUSH1 0x0 PUSH1 0x40 MLOAD DUP1 DUP4 SUB DUP2 DUP6 DUP9 DUP9 CALL SWAP4 POP POP POP POP ISZERO DUP1 ISZERO PUSH2 0x7DB JUMPI RETURNDATASIZE PUSH1 0x0 DUP1 RETURNDATACOPY RETURNDATASIZE PUSH1 0x0 REVERT JUMPDEST POP DUP1 PUSH2 0x7E5 PUSH2 0x146A JUMP JUMPDEST PUSH20 0xFFFFFFFFFFFFFFFFFFFFFFFFFFFFFFFFFFFFFFFF AND PUSH32 0x7084F5476618D8E60B11EF0D7D3F06914655ADB8793E28FF7F018D4C76D505D5 PUSH1 0x40 MLOAD PUSH1 0x40 MLOAD DUP1 SWAP2 SUB SWAP1 LOG3 JUMPDEST PUSH1 0x0 JUMPDEST PUSH2 0x835 PUSH1 0x2 PUSH2 0x1A01 JUMP JUMPDEST DUP2 LT ISZERO PUSH2 0x974 JUMPI PUSH1 0x0 PUSH2 0x852 DUP3 PUSH1 0x2 PUSH2 0x1A16 SWAP1 SWAP2 SWAP1 PUSH4 0xFFFFFFFF AND JUMP JUMPDEST SWAP1 POP DUP1 PUSH20 0xFFFFFFFFFFFFFFFFFFFFFFFFFFFFFFFFFFFFFFFF AND PUSH4 0x70A08231 ADDRESS PUSH1 0x40 MLOAD DUP3 PUSH4 0xFFFFFFFF AND PUSH1 0xE0 SHL DUP2 MSTORE PUSH1 0x4 ADD PUSH2 0x88D SWAP2 SWAP1 PUSH2 0x35D2 JUMP JUMPDEST PUSH1 0x20 PUSH1 0x40 MLOAD DUP1 DUP4 SUB DUP2 DUP7 GAS STATICCALL ISZERO DUP1 ISZERO PUSH2 0x8AA JUMPI RETURNDATASIZE PUSH1 0x0 DUP1 RETURNDATACOPY RETURNDATASIZE PUSH1 0x0 REVERT JUMPDEST POP POP POP POP PUSH1 0x40 MLOAD RETURNDATASIZE PUSH1 0x1F NOT PUSH1 0x1F DUP3 ADD AND DUP3 ADD DUP1 PUSH1 0x40 MSTORE POP DUP2 ADD SWAP1 PUSH2 0x8CE SWAP2 SWAP1 PUSH2 0x3C75 JUMP JUMPDEST SWAP3 POP PUSH1 0x0 DUP4 GT ISZERO PUSH2 0x960 JUMPI DUP1 PUSH20 0xFFFFFFFFFFFFFFFFFFFFFFFFFFFFFFFFFFFFFFFF AND PUSH4 0xA9059CBB PUSH2 0x8FD PUSH2 0x146A JUMP JUMPDEST DUP6 PUSH1 0x40 MLOAD DUP4 PUSH4 0xFFFFFFFF AND PUSH1 0xE0 SHL DUP2 MSTORE PUSH1 0x4 ADD PUSH2 0x91B SWAP3 SWAP2 SWAP1 PUSH2 0x3CA2 JUMP JUMPDEST PUSH1 0x20 PUSH1 0x40 MLOAD DUP1 DUP4 SUB DUP2 PUSH1 0x0 DUP8 GAS CALL ISZERO DUP1 ISZERO PUSH2 0x93A JUMPI RETURNDATASIZE PUSH1 0x0 DUP1 RETURNDATACOPY RETURNDATASIZE PUSH1 0x0 REVERT JUMPDEST POP POP POP POP PUSH1 0x40 MLOAD RETURNDATASIZE PUSH1 0x1F NOT PUSH1 0x1F DUP3 ADD AND DUP3 ADD DUP1 PUSH1 0x40 MSTORE POP DUP2 ADD SWAP1 PUSH2 0x95E SWAP2 SWAP1 PUSH2 0x3CCB JUMP JUMPDEST POP JUMPDEST POP DUP1 DUP1 PUSH2 0x96C SWAP1 PUSH2 0x3CF8 JUMP JUMPDEST SWAP2 POP POP PUSH2 0x82B JUMP JUMPDEST POP POP JUMP JUMPDEST PUSH1 0x6 PUSH1 0x0 SWAP1 SLOAD SWAP1 PUSH2 0x100 EXP SWAP1 DIV PUSH20 0xFFFFFFFFFFFFFFFFFFFFFFFFFFFFFFFFFFFFFFFF AND DUP2 JUMP JUMPDEST PUSH2 0x9A6 PUSH2 0x1A30 JUMP JUMPDEST PUSH2 0x9B0 PUSH1 0x0 PUSH2 0x1AAE JUMP JUMPDEST JUMP JUMPDEST PUSH1 0x0 DUP1 PUSH1 0x0 PUSH2 0x9C1 DUP6 DUP6 PUSH2 0x1B72 JUMP JUMPDEST POP POP SWAP1 POP DUP1 PUSH2 0xA3E JUMPI DUP5 PUSH20 0xFFFFFFFFFFFFFFFFFFFFFFFFFFFFFFFFFFFFFFFF AND PUSH4 0xD21220A7 PUSH1 0x40 MLOAD DUP2 PUSH4 0xFFFFFFFF AND PUSH1 0xE0 SHL DUP2 MSTORE PUSH1 0x4 ADD PUSH1 0x20 PUSH1 0x40 MLOAD DUP1 DUP4 SUB DUP2 DUP7 GAS STATICCALL ISZERO DUP1 ISZERO PUSH2 0xA15 JUMPI RETURNDATASIZE PUSH1 0x0 DUP1 RETURNDATACOPY RETURNDATASIZE PUSH1 0x0 REVERT JUMPDEST POP POP POP POP PUSH1 0x40 MLOAD RETURNDATASIZE PUSH1 0x1F NOT PUSH1 0x1F DUP3 ADD AND DUP3 ADD DUP1 PUSH1 0x40 MSTORE POP DUP2 ADD SWAP1 PUSH2 0xA39 SWAP2 SWAP1 PUSH2 0x3D41 JUMP JUMPDEST PUSH2 0xAAE JUMP JUMPDEST DUP5 PUSH20 0xFFFFFFFFFFFFFFFFFFFFFFFFFFFFFFFFFFFFFFFF AND PUSH4 0xDFE1681 PUSH1 0x40 MLOAD DUP2 PUSH4 0xFFFFFFFF AND PUSH1 0xE0 SHL DUP2 MSTORE PUSH1 0x4 ADD PUSH1 0x20 PUSH1 0x40 MLOAD DUP1 DUP4 SUB DUP2 DUP7 GAS STATICCALL ISZERO DUP1 ISZERO PUSH2 0xA89 JUMPI RETURNDATASIZE PUSH1 0x0 DUP1 RETURNDATACOPY RETURNDATASIZE PUSH1 0x0 REVERT JUMPDEST POP POP POP POP PUSH1 0x40 MLOAD RETURNDATASIZE PUSH1 0x1F NOT PUSH1 0x1F DUP3 ADD AND DUP3 ADD DUP1 PUSH1 0x40 MSTORE POP DUP2 ADD SWAP1 PUSH2 0xAAD SWAP2 SWAP1 PUSH2 0x3D41 JUMP JUMPDEST JUMPDEST SWAP2 POP PUSH1 0x0 PUSH2 0xABD DUP7 DUP7 DUP5 PUSH2 0x1F84 JUMP JUMPDEST SWAP3 POP POP POP PUSH1 0x0 PUSH2 0xACC DUP3 PUSH2 0x2279 JUMP JUMPDEST SWAP1 POP PUSH1 0x0 PUSH2 0xAE3 DUP3 DUP5 PUSH1 0x0 ADD MLOAD DUP6 PUSH1 0x20 ADD MLOAD PUSH2 0x133E JUMP JUMPDEST SWAP1 POP PUSH1 0x0 PUSH2 0xAFA DUP4 DUP6 PUSH1 0x60 ADD MLOAD DUP7 PUSH1 0x40 ADD MLOAD PUSH2 0x39B JUMP JUMPDEST SWAP1 POP DUP2 DUP2 LT ISZERO PUSH2 0xB0D JUMPI PUSH1 0x0 SWAP7 POP PUSH2 0xB1C JUMP JUMPDEST DUP2 DUP2 PUSH2 0xB19 SWAP2 SWAP1 PUSH2 0x3D6E JUMP JUMPDEST SWAP7 POP JUMPDEST POP POP POP POP POP SWAP3 POP SWAP3 SWAP1 POP JUMP JUMPDEST PUSH1 0x0 DUP1 PUSH1 0x0 PUSH2 0xB37 DUP7 DUP7 PUSH2 0x9B2 JUMP JUMPDEST SWAP2 POP SWAP2 POP DUP2 PUSH1 0x4 DUP2 SWAP1 SSTORE POP DUP1 PUSH1 0x6 PUSH1 0x0 PUSH2 0x100 EXP DUP2 SLOAD DUP2 PUSH20 0xFFFFFFFFFFFFFFFFFFFFFFFFFFFFFFFFFFFFFFFF MUL NOT AND SWAP1 DUP4 PUSH20 0xFFFFFFFFFFFFFFFFFFFFFFFFFFFFFFFFFFFFFFFF AND MUL OR SWAP1 SSTORE POP PUSH2 0xB8B PUSH2 0x310D JUMP JUMPDEST PUSH2 0xB95 DUP8 DUP8 PUSH2 0x1B72 JUMP JUMPDEST DUP4 PUSH1 0x40 ADD DUP5 PUSH1 0x0 ADD DUP6 PUSH1 0x20 ADD DUP4 PUSH20 0xFFFFFFFFFFFFFFFFFFFFFFFFFFFFFFFFFFFFFFFF AND PUSH20 0xFFFFFFFFFFFFFFFFFFFFFFFFFFFFFFFFFFFFFFFF AND DUP2 MSTORE POP DUP4 PUSH20 0xFFFFFFFFFFFFFFFFFFFFFFFFFFFFFFFFFFFFFFFF AND PUSH20 0xFFFFFFFFFFFFFFFFFFFFFFFFFFFFFFFFFFFFFFFF AND DUP2 MSTORE POP DUP4 ISZERO ISZERO ISZERO ISZERO DUP2 MSTORE POP POP POP POP DUP1 PUSH1 0x40 ADD MLOAD PUSH1 0x6 PUSH1 0x14 PUSH2 0x100 EXP DUP2 SLOAD DUP2 PUSH1 0xFF MUL NOT AND SWAP1 DUP4 ISZERO ISZERO MUL OR SWAP1 SSTORE POP PUSH2 0xC32 PUSH2 0x3196 JUMP JUMPDEST PUSH2 0xC41 DUP9 DUP9 DUP5 PUSH1 0x40 ADD MLOAD PUSH2 0x1F84 JUMP JUMPDEST DUP5 PUSH1 0x60 ADD DUP6 PUSH1 0x80 ADD DUP3 SWAP6 POP DUP4 PUSH20 0xFFFFFFFFFFFFFFFFFFFFFFFFFFFFFFFFFFFFFFFF AND PUSH20 0xFFFFFFFFFFFFFFFFFFFFFFFFFFFFFFFFFFFFFFFF AND DUP2 MSTORE POP DUP4 PUSH20 0xFFFFFFFFFFFFFFFFFFFFFFFFFFFFFFFFFFFFFFFF AND PUSH20 0xFFFFFFFFFFFFFFFFFFFFFFFFFFFFFFFFFFFFFFFF AND DUP2 MSTORE POP POP POP POP DUP2 PUSH1 0x60 ADD MLOAD PUSH1 0x1 PUSH1 0x0 PUSH2 0x100 EXP DUP2 SLOAD DUP2 PUSH20 0xFFFFFFFFFFFFFFFFFFFFFFFFFFFFFFFFFFFFFFFF MUL NOT AND SWAP1 DUP4 PUSH20 0xFFFFFFFFFFFFFFFFFFFFFFFFFFFFFFFFFFFFFFFF AND MUL OR SWAP1 SSTORE POP PUSH1 0x0 DUP3 PUSH1 0x0 ADD MLOAD PUSH20 0xFFFFFFFFFFFFFFFFFFFFFFFFFFFFFFFFFFFFFFFF AND PUSH4 0x70A08231 ADDRESS PUSH1 0x40 MLOAD DUP3 PUSH4 0xFFFFFFFF AND PUSH1 0xE0 SHL DUP2 MSTORE PUSH1 0x4 ADD PUSH2 0xD33 SWAP2 SWAP1 PUSH2 0x35D2 JUMP JUMPDEST PUSH1 0x20 PUSH1 0x40 MLOAD DUP1 DUP4 SUB DUP2 DUP7 GAS STATICCALL ISZERO DUP1 ISZERO PUSH2 0xD50 JUMPI RETURNDATASIZE PUSH1 0x0 DUP1 RETURNDATACOPY RETURNDATASIZE PUSH1 0x0 REVERT JUMPDEST POP POP POP POP PUSH1 0x40 MLOAD RETURNDATASIZE PUSH1 0x1F NOT PUSH1 0x1F DUP3 ADD AND DUP3 ADD DUP1 PUSH1 0x40 MSTORE POP DUP2 ADD SWAP1 PUSH2 0xD74 SWAP2 SWAP1 PUSH2 0x3C75 JUMP JUMPDEST SWAP1 POP DUP1 PUSH1 0x5 DUP2 SWAP1 SSTORE POP PUSH2 0xDBC PUSH1 0x40 MLOAD DUP1 PUSH1 0x40 ADD PUSH1 0x40 MSTORE DUP1 PUSH1 0xE DUP2 MSTORE PUSH1 0x20 ADD PUSH32 0x626F72726F77416D6F756E743A20000000000000000000000000000000000000 DUP2 MSTORE POP DUP9 PUSH2 0x261F JUMP JUMPDEST PUSH1 0x0 DUP1 DUP5 PUSH1 0x40 ADD MLOAD PUSH2 0xDD0 JUMPI DUP9 PUSH1 0x0 PUSH2 0xDD4 JUMP JUMPDEST PUSH1 0x0 DUP10 JUMPDEST SWAP2 POP SWAP2 POP PUSH2 0xE4E PUSH1 0x40 MLOAD DUP1 PUSH1 0x40 ADD PUSH1 0x40 MSTORE DUP1 PUSH1 0xC DUP2 MSTORE PUSH1 0x20 ADD PUSH32 0x616D6F756E74304F75743A200000000000000000000000000000000000000000 DUP2 MSTORE POP DUP4 PUSH1 0x40 MLOAD DUP1 PUSH1 0x40 ADD PUSH1 0x40 MSTORE DUP1 PUSH1 0xA DUP2 MSTORE PUSH1 0x20 ADD PUSH32 0x616D6F756E74314F757400000000000000000000000000000000000000000000 DUP2 MSTORE POP DUP5 PUSH2 0x26BB JUMP JUMPDEST PUSH1 0x0 PUSH2 0xE63 DUP11 DUP7 PUSH1 0x0 ADD MLOAD DUP8 PUSH1 0x20 ADD MLOAD PUSH2 0x133E JUMP JUMPDEST SWAP1 POP PUSH2 0xE87 PUSH1 0x40 MLOAD DUP1 PUSH1 0x60 ADD PUSH1 0x40 MSTORE DUP1 PUSH1 0x26 DUP2 MSTORE PUSH1 0x20 ADD PUSH2 0x4D75 PUSH1 0x26 SWAP2 CODECOPY DUP3 PUSH2 0x261F JUMP JUMPDEST PUSH1 0x0 PUSH2 0xE9C DUP12 DUP8 PUSH1 0x60 ADD MLOAD DUP9 PUSH1 0x40 ADD MLOAD PUSH2 0x39B JUMP JUMPDEST SWAP1 POP PUSH2 0xEC0 PUSH1 0x40 MLOAD DUP1 PUSH1 0x60 ADD PUSH1 0x40 MSTORE DUP1 PUSH1 0x30 DUP2 MSTORE PUSH1 0x20 ADD PUSH2 0x4D45 PUSH1 0x30 SWAP2 CODECOPY DUP3 PUSH2 0x261F JUMP JUMPDEST PUSH2 0xEC8 PUSH2 0x31BE JUMP JUMPDEST DUP8 PUSH1 0x60 ADD MLOAD DUP2 PUSH1 0x0 ADD SWAP1 PUSH20 0xFFFFFFFFFFFFFFFFFFFFFFFFFFFFFFFFFFFFFFFF AND SWAP1 DUP2 PUSH20 0xFFFFFFFFFFFFFFFFFFFFFFFFFFFFFFFFFFFFFFFF AND DUP2 MSTORE POP POP DUP8 PUSH1 0x80 ADD MLOAD DUP2 PUSH1 0x20 ADD SWAP1 PUSH20 0xFFFFFFFFFFFFFFFFFFFFFFFFFFFFFFFFFFFFFFFF AND SWAP1 DUP2 PUSH20 0xFFFFFFFFFFFFFFFFFFFFFFFFFFFFFFFFFFFFFFFF AND DUP2 MSTORE POP POP DUP8 PUSH1 0x40 ADD MLOAD DUP2 PUSH1 0x40 ADD SWAP1 ISZERO ISZERO SWAP1 DUP2 ISZERO ISZERO DUP2 MSTORE POP POP DUP8 PUSH1 0x20 ADD MLOAD DUP2 PUSH1 0x60 ADD SWAP1 PUSH20 0xFFFFFFFFFFFFFFFFFFFFFFFFFFFFFFFFFFFFFFFF AND SWAP1 DUP2 PUSH20 0xFFFFFFFFFFFFFFFFFFFFFFFFFFFFFFFFFFFFFFFF AND DUP2 MSTORE POP POP DUP8 PUSH1 0x0 ADD MLOAD DUP2 PUSH1 0x80 ADD SWAP1 PUSH20 0xFFFFFFFFFFFFFFFFFFFFFFFFFFFFFFFFFFFFFFFF AND SWAP1 DUP2 PUSH20 0xFFFFFFFFFFFFFFFFFFFFFFFFFFFFFFFFFFFFFFFF AND DUP2 MSTORE POP POP DUP3 DUP2 PUSH1 0xA0 ADD DUP2 DUP2 MSTORE POP POP DUP2 DUP2 PUSH1 0xC0 ADD DUP2 DUP2 MSTORE POP POP PUSH1 0x0 DUP2 PUSH1 0x40 MLOAD PUSH1 0x20 ADD PUSH2 0xFF3 SWAP2 SWAP1 PUSH2 0x3E4E JUMP JUMPDEST PUSH1 0x40 MLOAD PUSH1 0x20 DUP2 DUP4 SUB SUB DUP2 MSTORE SWAP1 PUSH1 0x40 MSTORE SWAP1 POP PUSH1 0x1 SWAP12 POP POP POP POP POP POP POP POP POP POP POP POP SWAP4 SWAP3 POP POP POP JUMP JUMPDEST PUSH2 0x1022 PUSH2 0x1A30 JUMP JUMPDEST PUSH2 0x1036 DUP2 PUSH1 0x2 PUSH2 0x1853 SWAP1 SWAP2 SWAP1 PUSH4 0xFFFFFFFF AND JUMP JUMPDEST POP DUP1 PUSH20 0xFFFFFFFFFFFFFFFFFFFFFFFFFFFFFFFFFFFFFFFF AND PUSH32 0xFA1388D6E7328E9C711A539B0ADDFC27DE8BFB6F5924CCE26F80F41023B15253 PUSH1 0x40 MLOAD PUSH1 0x40 MLOAD DUP1 SWAP2 SUB SWAP1 LOG2 POP JUMP JUMPDEST PUSH1 0x1 PUSH1 0x0 SWAP1 SLOAD SWAP1 PUSH2 0x100 EXP SWAP1 DIV PUSH20 0xFFFFFFFFFFFFFFFFFFFFFFFFFFFFFFFFFFFFFFFF AND PUSH20 0xFFFFFFFFFFFFFFFFFFFFFFFFFFFFFFFFFFFFFFFF AND CALLER PUSH20 0xFFFFFFFFFFFFFFFFFFFFFFFFFFFFFFFFFFFFFFFF AND EQ PUSH2 0x110D JUMPI PUSH1 0x40 MLOAD PUSH32 0x8C379A000000000000000000000000000000000000000000000000000000000 DUP2 MSTORE PUSH1 0x4 ADD PUSH2 0x1104 SWAP1 PUSH2 0x39D9 JUMP JUMPDEST PUSH1 0x40 MLOAD DUP1 SWAP2 SUB SWAP1 REVERT JUMPDEST ADDRESS PUSH20 0xFFFFFFFFFFFFFFFFFFFFFFFFFFFFFFFFFFFFFFFF AND DUP5 PUSH20 0xFFFFFFFFFFFFFFFFFFFFFFFFFFFFFFFFFFFFFFFF AND EQ PUSH2 0x117B JUMPI PUSH1 0x40 MLOAD PUSH32 0x8C379A000000000000000000000000000000000000000000000000000000000 DUP2 MSTORE PUSH1 0x4 ADD PUSH2 0x1172 SWAP1 PUSH2 0x3A45 JUMP JUMPDEST PUSH1 0x40 MLOAD DUP1 SWAP2 SUB SWAP1 REVERT JUMPDEST PUSH2 0x11B9 PUSH1 0x40 MLOAD DUP1 PUSH1 0x40 ADD PUSH1 0x40 MSTORE DUP1 PUSH1 0x1B DUP2 MSTORE PUSH1 0x20 ADD PUSH32 0x6869692069276D2063616C6C6564206279206C6F616E20706169720000000000 DUP2 MSTORE POP PUSH2 0x275D JUMP JUMPDEST PUSH1 0x0 DUP1 DUP5 GT PUSH2 0x11C8 JUMPI DUP3 PUSH2 0x11CA JUMP JUMPDEST DUP4 JUMPDEST SWAP1 POP PUSH1 0x0 DUP3 DUP1 PUSH1 0x20 ADD SWAP1 MLOAD DUP2 ADD SWAP1 PUSH2 0x11E2 SWAP2 SWAP1 PUSH2 0x3B74 JUMP JUMPDEST SWAP1 POP PUSH2 0x1217 DUP2 PUSH1 0x20 ADD MLOAD DUP4 DUP4 PUSH1 0x60 ADD MLOAD PUSH20 0xFFFFFFFFFFFFFFFFFFFFFFFFFFFFFFFFFFFFFFFF AND PUSH2 0x18AF SWAP1 SWAP3 SWAP2 SWAP1 PUSH4 0xFFFFFFFF AND JUMP JUMPDEST PUSH1 0x0 DUP1 DUP3 PUSH1 0x40 ADD MLOAD PUSH2 0x122F JUMPI PUSH1 0x0 DUP4 PUSH1 0xC0 ADD MLOAD PUSH2 0x1237 JUMP JUMPDEST DUP3 PUSH1 0xC0 ADD MLOAD PUSH1 0x0 JUMPDEST SWAP2 POP SWAP2 POP DUP3 PUSH1 0x20 ADD MLOAD PUSH20 0xFFFFFFFFFFFFFFFFFFFFFFFFFFFFFFFFFFFFFFFF AND PUSH4 0x22C0D9F DUP4 DUP4 ADDRESS PUSH1 0x0 PUSH8 0xFFFFFFFFFFFFFFFF DUP2 GT ISZERO PUSH2 0x1279 JUMPI PUSH2 0x1278 PUSH2 0x33B2 JUMP JUMPDEST JUMPDEST PUSH1 0x40 MLOAD SWAP1 DUP1 DUP3 MSTORE DUP1 PUSH1 0x1F ADD PUSH1 0x1F NOT AND PUSH1 0x20 ADD DUP3 ADD PUSH1 0x40 MSTORE DUP1 ISZERO PUSH2 0x12AB JUMPI DUP2 PUSH1 0x20 ADD PUSH1 0x1 DUP3 MUL DUP1 CALLDATASIZE DUP4 CALLDATACOPY DUP1 DUP3 ADD SWAP2 POP POP SWAP1 POP JUMPDEST POP PUSH1 0x40 MLOAD DUP6 PUSH4 0xFFFFFFFF AND PUSH1 0xE0 SHL DUP2 MSTORE PUSH1 0x4 ADD PUSH2 0x12CB SWAP5 SWAP4 SWAP3 SWAP2 SWAP1 PUSH2 0x3C29 JUMP JUMPDEST PUSH1 0x0 PUSH1 0x40 MLOAD DUP1 DUP4 SUB DUP2 PUSH1 0x0 DUP8 DUP1 EXTCODESIZE ISZERO DUP1 ISZERO PUSH2 0x12E5 JUMPI PUSH1 0x0 DUP1 REVERT JUMPDEST POP GAS CALL ISZERO DUP1 ISZERO PUSH2 0x12F9 JUMPI RETURNDATASIZE PUSH1 0x0 DUP1 RETURNDATACOPY RETURNDATASIZE PUSH1 0x0 REVERT JUMPDEST POP POP POP POP PUSH2 0x1334 DUP4 PUSH1 0x0 ADD MLOAD DUP5 PUSH1 0xA0 ADD MLOAD DUP6 PUSH1 0x80 ADD MLOAD PUSH20 0xFFFFFFFFFFFFFFFFFFFFFFFFFFFFFFFFFFFFFFFF AND PUSH2 0x18AF SWAP1 SWAP3 SWAP2 SWAP1 PUSH4 0xFFFFFFFF AND JUMP JUMPDEST POP POP POP POP POP POP POP POP JUMP JUMPDEST PUSH1 0x0 DUP1 DUP5 GT PUSH2 0x1382 JUMPI PUSH1 0x40 MLOAD PUSH32 0x8C379A000000000000000000000000000000000000000000000000000000000 DUP2 MSTORE PUSH1 0x4 ADD PUSH2 0x1379 SWAP1 PUSH2 0x3EDB JUMP JUMPDEST PUSH1 0x40 MLOAD DUP1 SWAP2 SUB SWAP1 REVERT JUMPDEST PUSH1 0x0 DUP4 GT DUP1 ISZERO PUSH2 0x1392 JUMPI POP PUSH1 0x0 DUP3 GT JUMPDEST PUSH2 0x13D1 JUMPI PUSH1 0x40 MLOAD PUSH32 0x8C379A000000000000000000000000000000000000000000000000000000000 DUP2 MSTORE PUSH1 0x4 ADD PUSH2 0x13C8 SWAP1 PUSH2 0x38DE JUMP JUMPDEST PUSH1 0x40 MLOAD DUP1 SWAP2 SUB SWAP1 REVERT JUMPDEST PUSH1 0x0 PUSH2 0x13FA PUSH2 0x3E8 PUSH2 0x13EC DUP8 DUP8 PUSH2 0x1883 SWAP1 SWAP2 SWAP1 PUSH4 0xFFFFFFFF AND JUMP JUMPDEST PUSH2 0x1883 SWAP1 SWAP2 SWAP1 PUSH4 0xFFFFFFFF AND JUMP JUMPDEST SWAP1 POP PUSH1 0x0 PUSH2 0x1425 PUSH2 0x3E5 PUSH2 0x1417 DUP9 DUP8 PUSH2 0x27F6 SWAP1 SWAP2 SWAP1 PUSH4 0xFFFFFFFF AND JUMP JUMPDEST PUSH2 0x1883 SWAP1 SWAP2 SWAP1 PUSH4 0xFFFFFFFF AND JUMP JUMPDEST SWAP1 POP PUSH2 0x1446 PUSH1 0x1 DUP3 DUP5 PUSH2 0x1438 SWAP2 SWAP1 PUSH2 0x395C JUMP JUMPDEST PUSH2 0x1899 SWAP1 SWAP2 SWAP1 PUSH4 0xFFFFFFFF AND JUMP JUMPDEST SWAP3 POP POP POP SWAP4 SWAP3 POP POP POP JUMP JUMPDEST PUSH1 0x6 PUSH1 0x14 SWAP1 SLOAD SWAP1 PUSH2 0x100 EXP SWAP1 DIV PUSH1 0xFF AND DUP2 JUMP JUMPDEST PUSH1 0x4 SLOAD DUP2 JUMP JUMPDEST PUSH1 0x0 DUP1 PUSH1 0x0 SWAP1 SLOAD SWAP1 PUSH2 0x100 EXP SWAP1 DIV PUSH20 0xFFFFFFFFFFFFFFFFFFFFFFFFFFFFFFFFFFFFFFFF AND SWAP1 POP SWAP1 JUMP JUMPDEST PUSH1 0x0 DUP1 PUSH1 0xA DUP4 PUSH2 0x14A3 SWAP2 SWAP1 PUSH2 0x395C JUMP JUMPDEST SWAP1 POP PUSH2 0x14E4 PUSH1 0x40 MLOAD DUP1 PUSH1 0x40 ADD PUSH1 0x40 MSTORE DUP1 PUSH1 0x14 DUP2 MSTORE PUSH1 0x20 ADD PUSH32 0x617262697472616765645F616D6F756E743D3D3E000000000000000000000000 DUP2 MSTORE POP DUP3 PUSH2 0x261F JUMP JUMPDEST PUSH1 0x0 DUP5 SWAP1 POP DUP1 PUSH20 0xFFFFFFFFFFFFFFFFFFFFFFFFFFFFFFFFFFFFFFFF AND PUSH4 0xA9059CBB PUSH2 0x150D PUSH2 0x146A JUMP JUMPDEST DUP5 PUSH1 0x40 MLOAD DUP4 PUSH4 0xFFFFFFFF AND PUSH1 0xE0 SHL DUP2 MSTORE PUSH1 0x4 ADD PUSH2 0x152B SWAP3 SWAP2 SWAP1 PUSH2 0x3CA2 JUMP JUMPDEST PUSH1 0x20 PUSH1 0x40 MLOAD DUP1 DUP4 SUB DUP2 PUSH1 0x0 DUP8 GAS CALL ISZERO DUP1 ISZERO PUSH2 0x154A JUMPI RETURNDATASIZE PUSH1 0x0 DUP1 RETURNDATACOPY RETURNDATASIZE PUSH1 0x0 REVERT JUMPDEST POP POP POP POP PUSH1 0x40 MLOAD RETURNDATASIZE PUSH1 0x1F NOT PUSH1 0x1F DUP3 ADD AND DUP3 ADD DUP1 PUSH1 0x40 MSTORE POP DUP2 ADD SWAP1 PUSH2 0x156E SWAP2 SWAP1 PUSH2 0x3CCB JUMP JUMPDEST SWAP3 POP POP POP SWAP3 SWAP2 POP POP JUMP JUMPDEST PUSH1 0x5 SLOAD DUP2 JUMP JUMPDEST PUSH2 0x1586 PUSH2 0x1A30 JUMP JUMPDEST PUSH1 0x0 DUP2 PUSH20 0xFFFFFFFFFFFFFFFFFFFFFFFFFFFFFFFFFFFFFFFF AND PUSH4 0x70A08231 ADDRESS PUSH1 0x40 MLOAD DUP3 PUSH4 0xFFFFFFFF AND PUSH1 0xE0 SHL DUP2 MSTORE PUSH1 0x4 ADD PUSH2 0x15C1 SWAP2 SWAP1 PUSH2 0x35D2 JUMP JUMPDEST PUSH1 0x20 PUSH1 0x40 MLOAD DUP1 DUP4 SUB DUP2 DUP7 GAS STATICCALL ISZERO DUP1 ISZERO PUSH2 0x15DE JUMPI RETURNDATASIZE PUSH1 0x0 DUP1 RETURNDATACOPY RETURNDATASIZE PUSH1 0x0 REVERT JUMPDEST POP POP POP POP PUSH1 0x40 MLOAD RETURNDATASIZE PUSH1 0x1F NOT PUSH1 0x1F DUP3 ADD AND DUP3 ADD DUP1 PUSH1 0x40 MSTORE POP DUP2 ADD SWAP1 PUSH2 0x1602 SWAP2 SWAP1 PUSH2 0x3C75 JUMP JUMPDEST SWAP1 POP PUSH1 0x0 DUP2 GT ISZERO PUSH2 0x1694 JUMPI DUP2 PUSH20 0xFFFFFFFFFFFFFFFFFFFFFFFFFFFFFFFFFFFFFFFF AND PUSH4 0xA9059CBB PUSH2 0x1631 PUSH2 0x146A JUMP JUMPDEST DUP4 PUSH1 0x40 MLOAD DUP4 PUSH4 0xFFFFFFFF AND PUSH1 0xE0 SHL DUP2 MSTORE PUSH1 0x4 ADD PUSH2 0x164F SWAP3 SWAP2 SWAP1 PUSH2 0x3CA2 JUMP JUMPDEST PUSH1 0x20 PUSH1 0x40 MLOAD DUP1 DUP4 SUB DUP2 PUSH1 0x0 DUP8 GAS CALL ISZERO DUP1 ISZERO PUSH2 0x166E JUMPI RETURNDATASIZE PUSH1 0x0 DUP1 RETURNDATACOPY RETURNDATASIZE PUSH1 0x0 REVERT JUMPDEST POP POP POP POP PUSH1 0x40 MLOAD RETURNDATASIZE PUSH1 0x1F NOT PUSH1 0x1F DUP3 ADD AND DUP3 ADD DUP1 PUSH1 0x40 MSTORE POP DUP2 ADD SWAP1 PUSH2 0x1692 SWAP2 SWAP1 PUSH2 0x3CCB JUMP JUMPDEST POP JUMPDEST PUSH2 0x16A8 DUP3 PUSH1 0x2 PUSH2 0x280C SWAP1 SWAP2 SWAP1 PUSH4 0xFFFFFFFF AND JUMP JUMPDEST POP DUP2 PUSH20 0xFFFFFFFFFFFFFFFFFFFFFFFFFFFFFFFFFFFFFFFF AND PUSH32 0xDC23A849435922F20A9732EB85192A9D0C1CB34725EBE6D7DE0BE10212BA02FB PUSH1 0x40 MLOAD PUSH1 0x40 MLOAD DUP1 SWAP2 SUB SWAP1 LOG2 POP POP JUMP JUMPDEST PUSH1 0x60 PUSH1 0x0 PUSH2 0x16FE PUSH1 0x2 PUSH2 0x1A01 JUMP JUMPDEST SWAP1 POP DUP1 PUSH8 0xFFFFFFFFFFFFFFFF DUP2 GT ISZERO PUSH2 0x171A JUMPI PUSH2 0x1719 PUSH2 0x33B2 JUMP JUMPDEST JUMPDEST PUSH1 0x40 MLOAD SWAP1 DUP1 DUP3 MSTORE DUP1 PUSH1 0x20 MUL PUSH1 0x20 ADD DUP3 ADD PUSH1 0x40 MSTORE DUP1 ISZERO PUSH2 0x1748 JUMPI DUP2 PUSH1 0x20 ADD PUSH1 0x20 DUP3 MUL DUP1 CALLDATASIZE DUP4 CALLDATACOPY DUP1 DUP3 ADD SWAP2 POP POP SWAP1 POP JUMPDEST POP SWAP2 POP PUSH1 0x0 JUMPDEST DUP2 DUP2 LT ISZERO PUSH2 0x17CA JUMPI PUSH2 0x176A DUP2 PUSH1 0x2 PUSH2 0x1A16 SWAP1 SWAP2 SWAP1 PUSH4 0xFFFFFFFF AND JUMP JUMPDEST DUP4 DUP3 DUP2 MLOAD DUP2 LT PUSH2 0x177D JUMPI PUSH2 0x177C PUSH2 0x3EFB JUMP JUMPDEST JUMPDEST PUSH1 0x20 MUL PUSH1 0x20 ADD ADD SWAP1 PUSH20 0xFFFFFFFFFFFFFFFFFFFFFFFFFFFFFFFFFFFFFFFF AND SWAP1 DUP2 PUSH20 0xFFFFFFFFFFFFFFFFFFFFFFFFFFFFFFFFFFFFFFFF AND DUP2 MSTORE POP POP DUP1 DUP1 PUSH2 0x17C2 SWAP1 PUSH2 0x3CF8 JUMP JUMPDEST SWAP2 POP POP PUSH2 0x174E JUMP JUMPDEST POP POP SWAP1 JUMP JUMPDEST PUSH2 0x17D7 PUSH2 0x1A30 JUMP JUMPDEST PUSH1 0x0 PUSH20 0xFFFFFFFFFFFFFFFFFFFFFFFFFFFFFFFFFFFFFFFF AND DUP2 PUSH20 0xFFFFFFFFFFFFFFFFFFFFFFFFFFFFFFFFFFFFFFFF AND EQ ISZERO PUSH2 0x1847 JUMPI PUSH1 0x40 MLOAD PUSH32 0x8C379A000000000000000000000000000000000000000000000000000000000 DUP2 MSTORE PUSH1 0x4 ADD PUSH2 0x183E SWAP1 PUSH2 0x3F9C JUMP JUMPDEST PUSH1 0x40 MLOAD DUP1 SWAP2 SUB SWAP1 REVERT JUMPDEST PUSH2 0x1850 DUP2 PUSH2 0x1AAE JUMP JUMPDEST POP JUMP JUMPDEST PUSH1 0x0 PUSH2 0x187B DUP4 PUSH1 0x0 ADD DUP4 PUSH20 0xFFFFFFFFFFFFFFFFFFFFFFFFFFFFFFFFFFFFFFFF AND PUSH1 0x0 SHL PUSH2 0x283C JUMP JUMPDEST SWAP1 POP SWAP3 SWAP2 POP POP JUMP JUMPDEST PUSH1 0x0 DUP2 DUP4 PUSH2 0x1891 SWAP2 SWAP1 PUSH2 0x3FBC JUMP JUMPDEST SWAP1 POP SWAP3 SWAP2 POP POP JUMP JUMPDEST PUSH1 0x0 DUP2 DUP4 PUSH2 0x18A7 SWAP2 SWAP1 PUSH2 0x4016 JUMP JUMPDEST SWAP1 POP SWAP3 SWAP2 POP POP JUMP JUMPDEST PUSH2 0x1930 DUP4 PUSH4 0xA9059CBB PUSH1 0xE0 SHL DUP5 DUP5 PUSH1 0x40 MLOAD PUSH1 0x24 ADD PUSH2 0x18CE SWAP3 SWAP2 SWAP1 PUSH2 0x3CA2 JUMP JUMPDEST PUSH1 0x40 MLOAD PUSH1 0x20 DUP2 DUP4 SUB SUB DUP2 MSTORE SWAP1 PUSH1 0x40 MSTORE SWAP1 PUSH28 0xFFFFFFFFFFFFFFFFFFFFFFFFFFFFFFFFFFFFFFFFFFFFFFFFFFFFFFFF NOT AND PUSH1 0x20 DUP3 ADD DUP1 MLOAD PUSH28 0xFFFFFFFFFFFFFFFFFFFFFFFFFFFFFFFFFFFFFFFFFFFFFFFFFFFFFFFF DUP4 DUP2 DUP4 AND OR DUP4 MSTORE POP POP POP POP PUSH2 0x28AC JUMP JUMPDEST POP POP POP JUMP JUMPDEST PUSH2 0x19CD DUP3 DUP3 PUSH1 0x40 MLOAD PUSH1 0x24 ADD PUSH2 0x194B SWAP3 SWAP2 SWAP1 PUSH2 0x40B0 JUMP JUMPDEST PUSH1 0x40 MLOAD PUSH1 0x20 DUP2 DUP4 SUB SUB DUP2 MSTORE SWAP1 PUSH1 0x40 MSTORE PUSH32 0x319AF33300000000000000000000000000000000000000000000000000000000 PUSH28 0xFFFFFFFFFFFFFFFFFFFFFFFFFFFFFFFFFFFFFFFFFFFFFFFFFFFFFFFF NOT AND PUSH1 0x20 DUP3 ADD DUP1 MLOAD PUSH28 0xFFFFFFFFFFFFFFFFFFFFFFFFFFFFFFFFFFFFFFFFFFFFFFFFFFFFFFFF DUP4 DUP2 DUP4 AND OR DUP4 MSTORE POP POP POP POP PUSH2 0x2974 JUMP JUMPDEST POP POP JUMP JUMPDEST PUSH1 0x0 PUSH2 0x19F9 DUP4 PUSH1 0x0 ADD DUP4 PUSH20 0xFFFFFFFFFFFFFFFFFFFFFFFFFFFFFFFFFFFFFFFF AND PUSH1 0x0 SHL PUSH2 0x298E JUMP JUMPDEST SWAP1 POP SWAP3 SWAP2 POP POP JUMP JUMPDEST PUSH1 0x0 PUSH2 0x1A0F DUP3 PUSH1 0x0 ADD PUSH2 0x29B1 JUMP JUMPDEST SWAP1 POP SWAP2 SWAP1 POP JUMP JUMPDEST PUSH1 0x0 PUSH2 0x1A25 DUP4 PUSH1 0x0 ADD DUP4 PUSH2 0x29C2 JUMP JUMPDEST PUSH1 0x0 SHR SWAP1 POP SWAP3 SWAP2 POP POP JUMP JUMPDEST PUSH2 0x1A38 PUSH2 0x29ED JUMP JUMPDEST PUSH20 0xFFFFFFFFFFFFFFFFFFFFFFFFFFFFFFFFFFFFFFFF AND PUSH2 0x1A56 PUSH2 0x146A JUMP JUMPDEST PUSH20 0xFFFFFFFFFFFFFFFFFFFFFFFFFFFFFFFFFFFFFFFF AND EQ PUSH2 0x1AAC JUMPI PUSH1 0x40 MLOAD PUSH32 0x8C379A000000000000000000000000000000000000000000000000000000000 DUP2 MSTORE PUSH1 0x4 ADD PUSH2 0x1AA3 SWAP1 PUSH2 0x412C JUMP JUMPDEST PUSH1 0x40 MLOAD DUP1 SWAP2 SUB SWAP1 REVERT JUMPDEST JUMP JUMPDEST PUSH1 0x0 DUP1 PUSH1 0x0 SWAP1 SLOAD SWAP1 PUSH2 0x100 EXP SWAP1 DIV PUSH20 0xFFFFFFFFFFFFFFFFFFFFFFFFFFFFFFFFFFFFFFFF AND SWAP1 POP DUP2 PUSH1 0x0 DUP1 PUSH2 0x100 EXP DUP2 SLOAD DUP2 PUSH20 0xFFFFFFFFFFFFFFFFFFFFFFFFFFFFFFFFFFFFFFFF MUL NOT AND SWAP1 DUP4 PUSH20 0xFFFFFFFFFFFFFFFFFFFFFFFFFFFFFFFFFFFFFFFF AND MUL OR SWAP1 SSTORE POP DUP2 PUSH20 0xFFFFFFFFFFFFFFFFFFFFFFFFFFFFFFFFFFFFFFFF AND DUP2 PUSH20 0xFFFFFFFFFFFFFFFFFFFFFFFFFFFFFFFFFFFFFFFF AND PUSH32 0x8BE0079C531659141344CD1FD0A4F28419497F9722A3DAAFE3B4186F6B6457E0 PUSH1 0x40 MLOAD PUSH1 0x40 MLOAD DUP1 SWAP2 SUB SWAP1 LOG3 POP POP JUMP JUMPDEST PUSH1 0x0 DUP1 PUSH1 0x0 DUP4 PUSH20 0xFFFFFFFFFFFFFFFFFFFFFFFFFFFFFFFFFFFFFFFF AND DUP6 PUSH20 0xFFFFFFFFFFFFFFFFFFFFFFFFFFFFFFFFFFFFFFFF AND EQ ISZERO PUSH2 0x1BE6 JUMPI PUSH1 0x40 MLOAD PUSH32 0x8C379A000000000000000000000000000000000000000000000000000000000 DUP2 MSTORE PUSH1 0x4 ADD PUSH2 0x1BDD SWAP1 PUSH2 0x4198 JUMP JUMPDEST PUSH1 0x40 MLOAD DUP1 SWAP2 SUB SWAP1 REVERT JUMPDEST PUSH1 0x0 DUP1 DUP7 PUSH20 0xFFFFFFFFFFFFFFFFFFFFFFFFFFFFFFFFFFFFFFFF AND PUSH4 0xDFE1681 PUSH1 0x40 MLOAD DUP2 PUSH4 0xFFFFFFFF AND PUSH1 0xE0 SHL DUP2 MSTORE PUSH1 0x4 ADD PUSH1 0x20 PUSH1 0x40 MLOAD DUP1 DUP4 SUB DUP2 DUP7 GAS STATICCALL ISZERO DUP1 ISZERO PUSH2 0x1C34 JUMPI RETURNDATASIZE PUSH1 0x0 DUP1 RETURNDATACOPY RETURNDATASIZE PUSH1 0x0 REVERT JUMPDEST POP POP POP POP PUSH1 0x40 MLOAD RETURNDATASIZE PUSH1 0x1F NOT PUSH1 0x1F DUP3 ADD AND DUP3 ADD DUP1 PUSH1 0x40 MSTORE POP DUP2 ADD SWAP1 PUSH2 0x1C58 SWAP2 SWAP1 PUSH2 0x3D41 JUMP JUMPDEST DUP8 PUSH20 0xFFFFFFFFFFFFFFFFFFFFFFFFFFFFFFFFFFFFFFFF AND PUSH4 0xD21220A7 PUSH1 0x40 MLOAD DUP2 PUSH4 0xFFFFFFFF AND PUSH1 0xE0 SHL DUP2 MSTORE PUSH1 0x4 ADD PUSH1 0x20 PUSH1 0x40 MLOAD DUP1 DUP4 SUB DUP2 DUP7 GAS STATICCALL ISZERO DUP1 ISZERO PUSH2 0x1CA3 JUMPI RETURNDATASIZE PUSH1 0x0 DUP1 RETURNDATACOPY RETURNDATASIZE PUSH1 0x0 REVERT JUMPDEST POP POP POP POP PUSH1 0x40 MLOAD RETURNDATASIZE PUSH1 0x1F NOT PUSH1 0x1F DUP3 ADD AND DUP3 ADD DUP1 PUSH1 0x40 MSTORE POP DUP2 ADD SWAP1 PUSH2 0x1CC7 SWAP2 SWAP1 PUSH2 0x3D41 JUMP JUMPDEST SWAP2 POP SWAP2 POP PUSH1 0x0 DUP1 DUP8 PUSH20 0xFFFFFFFFFFFFFFFFFFFFFFFFFFFFFFFFFFFFFFFF AND PUSH4 0xDFE1681 PUSH1 0x40 MLOAD DUP2 PUSH4 0xFFFFFFFF AND PUSH1 0xE0 SHL DUP2 MSTORE PUSH1 0x4 ADD PUSH1 0x20 PUSH1 0x40 MLOAD DUP1 DUP4 SUB DUP2 DUP7 GAS STATICCALL ISZERO DUP1 ISZERO PUSH2 0x1D19 JUMPI RETURNDATASIZE PUSH1 0x0 DUP1 RETURNDATACOPY RETURNDATASIZE PUSH1 0x0 REVERT JUMPDEST POP POP POP POP PUSH1 0x40 MLOAD RETURNDATASIZE PUSH1 0x1F NOT PUSH1 0x1F DUP3 ADD AND DUP3 ADD DUP1 PUSH1 0x40 MSTORE POP DUP2 ADD SWAP1 PUSH2 0x1D3D SWAP2 SWAP1 PUSH2 0x3D41 JUMP JUMPDEST DUP9 PUSH20 0xFFFFFFFFFFFFFFFFFFFFFFFFFFFFFFFFFFFFFFFF AND PUSH4 0xD21220A7 PUSH1 0x40 MLOAD DUP2 PUSH4 0xFFFFFFFF AND PUSH1 0xE0 SHL DUP2 MSTORE PUSH1 0x4 ADD PUSH1 0x20 PUSH1 0x40 MLOAD DUP1 DUP4 SUB DUP2 DUP7 GAS STATICCALL ISZERO DUP1 ISZERO PUSH2 0x1D88 JUMPI RETURNDATASIZE PUSH1 0x0 DUP1 RETURNDATACOPY RETURNDATASIZE PUSH1 0x0 REVERT JUMPDEST POP POP POP POP PUSH1 0x40 MLOAD RETURNDATASIZE PUSH1 0x1F NOT PUSH1 0x1F DUP3 ADD AND DUP3 ADD DUP1 PUSH1 0x40 MSTORE POP DUP2 ADD SWAP1 PUSH2 0x1DAC SWAP2 SWAP1 PUSH2 0x3D41 JUMP JUMPDEST SWAP2 POP SWAP2 POP DUP3 PUSH20 0xFFFFFFFFFFFFFFFFFFFFFFFFFFFFFFFFFFFFFFFF AND DUP5 PUSH20 0xFFFFFFFFFFFFFFFFFFFFFFFFFFFFFFFFFFFFFFFF AND LT DUP1 ISZERO PUSH2 0x1E16 JUMPI POP DUP1 PUSH20 0xFFFFFFFFFFFFFFFFFFFFFFFFFFFFFFFFFFFFFFFF AND DUP3 PUSH20 0xFFFFFFFFFFFFFFFFFFFFFFFFFFFFFFFFFFFFFFFF AND LT JUMPDEST PUSH2 0x1E55 JUMPI PUSH1 0x40 MLOAD PUSH32 0x8C379A000000000000000000000000000000000000000000000000000000000 DUP2 MSTORE PUSH1 0x4 ADD PUSH2 0x1E4C SWAP1 PUSH2 0x4204 JUMP JUMPDEST PUSH1 0x40 MLOAD DUP1 SWAP2 SUB SWAP1 REVERT JUMPDEST DUP2 PUSH20 0xFFFFFFFFFFFFFFFFFFFFFFFFFFFFFFFFFFFFFFFF AND DUP5 PUSH20 0xFFFFFFFFFFFFFFFFFFFFFFFFFFFFFFFFFFFFFFFF AND EQ DUP1 ISZERO PUSH2 0x1EBB JUMPI POP DUP1 PUSH20 0xFFFFFFFFFFFFFFFFFFFFFFFFFFFFFFFFFFFFFFFF AND DUP4 PUSH20 0xFFFFFFFFFFFFFFFFFFFFFFFFFFFFFFFFFFFFFFFF AND EQ JUMPDEST PUSH2 0x1EFA JUMPI PUSH1 0x40 MLOAD PUSH32 0x8C379A000000000000000000000000000000000000000000000000000000000 DUP2 MSTORE PUSH1 0x4 ADD PUSH2 0x1EF1 SWAP1 PUSH2 0x4270 JUMP JUMPDEST PUSH1 0x40 MLOAD DUP1 SWAP2 SUB SWAP1 REVERT JUMPDEST PUSH2 0x1F03 DUP5 PUSH2 0x724 JUMP JUMPDEST DUP1 PUSH2 0x1F13 JUMPI POP PUSH2 0x1F12 DUP4 PUSH2 0x724 JUMP JUMPDEST JUMPDEST PUSH2 0x1F52 JUMPI PUSH1 0x40 MLOAD PUSH32 0x8C379A000000000000000000000000000000000000000000000000000000000 DUP2 MSTORE PUSH1 0x4 ADD PUSH2 0x1F49 SWAP1 PUSH2 0x42DC JUMP JUMPDEST PUSH1 0x40 MLOAD DUP1 SWAP2 SUB SWAP1 REVERT JUMPDEST PUSH2 0x1F5B DUP5 PUSH2 0x724 JUMP JUMPDEST PUSH2 0x1F68 JUMPI PUSH1 0x0 DUP4 DUP6 PUSH2 0x1F6D JUMP JUMPDEST PUSH1 0x1 DUP5 DUP5 JUMPDEST DUP1 SWAP8 POP DUP2 SWAP9 POP DUP3 SWAP10 POP POP POP POP POP POP POP POP SWAP3 POP SWAP3 POP SWAP3 JUMP JUMPDEST PUSH1 0x0 DUP1 PUSH2 0x1F8F PUSH2 0x3196 JUMP JUMPDEST PUSH1 0x0 DUP1 DUP8 PUSH20 0xFFFFFFFFFFFFFFFFFFFFFFFFFFFFFFFFFFFFFFFF AND PUSH4 0x902F1AC PUSH1 0x40 MLOAD DUP2 PUSH4 0xFFFFFFFF AND PUSH1 0xE0 SHL DUP2 MSTORE PUSH1 0x4 ADD PUSH1 0x60 PUSH1 0x40 MLOAD DUP1 DUP4 SUB DUP2 DUP7 GAS STATICCALL ISZERO DUP1 ISZERO PUSH2 0x1FDD JUMPI RETURNDATASIZE PUSH1 0x0 DUP1 RETURNDATACOPY RETURNDATASIZE PUSH1 0x0 REVERT JUMPDEST POP POP POP POP PUSH1 0x40 MLOAD RETURNDATASIZE PUSH1 0x1F NOT PUSH1 0x1F DUP3 ADD AND DUP3 ADD DUP1 PUSH1 0x40 MSTORE POP DUP2 ADD SWAP1 PUSH2 0x2001 SWAP2 SWAP1 PUSH2 0x437E JUMP JUMPDEST POP PUSH14 0xFFFFFFFFFFFFFFFFFFFFFFFFFFFF AND SWAP2 POP PUSH14 0xFFFFFFFFFFFFFFFFFFFFFFFFFFFF AND SWAP2 POP PUSH1 0x0 DUP1 DUP9 PUSH20 0xFFFFFFFFFFFFFFFFFFFFFFFFFFFFFFFFFFFFFFFF AND PUSH4 0x902F1AC PUSH1 0x40 MLOAD DUP2 PUSH4 0xFFFFFFFF AND PUSH1 0xE0 SHL DUP2 MSTORE PUSH1 0x4 ADD PUSH1 0x60 PUSH1 0x40 MLOAD DUP1 DUP4 SUB DUP2 DUP7 GAS STATICCALL ISZERO DUP1 ISZERO PUSH2 0x2074 JUMPI RETURNDATASIZE PUSH1 0x0 DUP1 RETURNDATACOPY RETURNDATASIZE PUSH1 0x0 REVERT JUMPDEST POP POP POP POP PUSH1 0x40 MLOAD RETURNDATASIZE PUSH1 0x1F NOT PUSH1 0x1F DUP3 ADD AND DUP3 ADD DUP1 PUSH1 0x40 MSTORE POP DUP2 ADD SWAP1 PUSH2 0x2098 SWAP2 SWAP1 PUSH2 0x437E JUMP JUMPDEST POP PUSH14 0xFFFFFFFFFFFFFFFFFFFFFFFFFFFF AND SWAP2 POP PUSH14 0xFFFFFFFFFFFFFFFFFFFFFFFFFFFF AND SWAP2 POP PUSH1 0x0 DUP1 DUP10 PUSH2 0x2100 JUMPI PUSH2 0x20E0 DUP7 PUSH2 0x20D2 DUP8 PUSH2 0x29F5 JUMP JUMPDEST PUSH2 0x2A2D SWAP1 SWAP2 SWAP1 PUSH4 0xFFFFFFFF AND JUMP JUMPDEST PUSH2 0x20FB DUP6 PUSH2 0x20ED DUP7 PUSH2 0x29F5 JUMP JUMPDEST PUSH2 0x2A2D SWAP1 SWAP2 SWAP1 PUSH4 0xFFFFFFFF AND JUMP JUMPDEST PUSH2 0x2137 JUMP JUMPDEST PUSH2 0x211B DUP6 PUSH2 0x210D DUP9 PUSH2 0x29F5 JUMP JUMPDEST PUSH2 0x2A2D SWAP1 SWAP2 SWAP1 PUSH4 0xFFFFFFFF AND JUMP JUMPDEST PUSH2 0x2136 DUP5 PUSH2 0x2128 DUP8 PUSH2 0x29F5 JUMP JUMPDEST PUSH2 0x2A2D SWAP1 SWAP2 SWAP1 PUSH4 0xFFFFFFFF AND JUMP JUMPDEST JUMPDEST SWAP2 POP SWAP2 POP PUSH2 0x214E DUP2 DUP4 PUSH2 0x2A62 SWAP1 SWAP2 SWAP1 PUSH4 0xFFFFFFFF AND JUMP JUMPDEST ISZERO PUSH2 0x21EA JUMPI PUSH2 0x21A4 PUSH1 0x40 MLOAD DUP1 PUSH1 0x40 ADD PUSH1 0x40 MSTORE DUP1 PUSH1 0x1F DUP2 MSTORE PUSH1 0x20 ADD PUSH32 0x6865726520707269636530206973206C657373207468656E2070726963653100 DUP2 MSTORE POP PUSH2 0x219F DUP4 DUP6 PUSH2 0x2A62 SWAP1 SWAP2 SWAP1 PUSH4 0xFFFFFFFF AND JUMP JUMPDEST PUSH2 0x2A78 JUMP JUMPDEST DUP12 DUP12 DUP1 SWAP10 POP DUP2 SWAP11 POP POP POP DUP10 PUSH2 0x21BC JUMPI DUP5 DUP7 DUP5 DUP7 PUSH2 0x21C1 JUMP JUMPDEST DUP6 DUP6 DUP6 DUP6 JUMPDEST DUP11 PUSH1 0x0 ADD DUP12 PUSH1 0x20 ADD DUP13 PUSH1 0x40 ADD DUP14 PUSH1 0x60 ADD DUP5 DUP2 MSTORE POP DUP5 DUP2 MSTORE POP DUP5 DUP2 MSTORE POP DUP5 DUP2 MSTORE POP POP POP POP POP PUSH2 0x226A JUMP JUMPDEST PUSH2 0x2228 PUSH1 0x40 MLOAD DUP1 PUSH1 0x40 ADD PUSH1 0x40 MSTORE DUP1 PUSH1 0xB DUP2 MSTORE PUSH1 0x20 ADD PUSH32 0x68657265696E20656C7365000000000000000000000000000000000000000000 DUP2 MSTORE POP PUSH2 0x275D JUMP JUMPDEST DUP11 DUP13 DUP1 SWAP10 POP DUP2 SWAP11 POP POP POP DUP10 PUSH2 0x2240 JUMPI DUP3 DUP5 DUP7 DUP9 PUSH2 0x2245 JUMP JUMPDEST DUP4 DUP4 DUP8 DUP8 JUMPDEST DUP11 PUSH1 0x0 ADD DUP12 PUSH1 0x20 ADD DUP13 PUSH1 0x40 ADD DUP14 PUSH1 0x60 ADD DUP5 DUP2 MSTORE POP DUP5 DUP2 MSTORE POP DUP5 DUP2 MSTORE POP DUP5 DUP2 MSTORE POP POP POP POP POP JUMPDEST POP POP POP POP POP POP SWAP4 POP SWAP4 POP SWAP4 SWAP1 POP JUMP JUMPDEST PUSH1 0x0 DUP1 DUP3 PUSH1 0x20 ADD MLOAD DUP4 PUSH1 0x0 ADD MLOAD LT PUSH2 0x2295 JUMPI DUP3 PUSH1 0x20 ADD MLOAD PUSH2 0x229B JUMP JUMPDEST DUP3 PUSH1 0x0 ADD MLOAD JUMPDEST SWAP1 POP PUSH1 0x0 DUP4 PUSH1 0x60 ADD MLOAD DUP5 PUSH1 0x40 ADD MLOAD LT PUSH2 0x22B8 JUMPI DUP4 PUSH1 0x60 ADD MLOAD PUSH2 0x22BE JUMP JUMPDEST DUP4 PUSH1 0x40 ADD MLOAD JUMPDEST SWAP1 POP PUSH1 0x0 DUP2 DUP4 LT PUSH2 0x22CF JUMPI DUP2 PUSH2 0x22D1 JUMP JUMPDEST DUP3 JUMPDEST SWAP1 POP PUSH1 0x0 PUSH10 0xD3C21BCECCEDA1000000 DUP3 GT ISZERO PUSH2 0x22F8 JUMPI PUSH9 0x56BC75E2D63100000 SWAP1 POP PUSH2 0x2422 JUMP JUMPDEST PUSH10 0x152D02C7E14AF6800000 DUP3 GT ISZERO PUSH2 0x231A JUMPI PUSH8 0x8AC7230489E80000 SWAP1 POP PUSH2 0x2421 JUMP JUMPDEST PUSH10 0x21E19E0C9BAB2400000 DUP3 GT ISZERO PUSH2 0x233C JUMPI PUSH8 0xDE0B6B3A7640000 SWAP1 POP PUSH2 0x2420 JUMP JUMPDEST PUSH9 0x3635C9ADC5DEA00000 DUP3 GT ISZERO PUSH2 0x235D JUMPI PUSH8 0x16345785D8A0000 SWAP1 POP PUSH2 0x241F JUMP JUMPDEST PUSH9 0x56BC75E2D63100000 DUP3 GT ISZERO PUSH2 0x237D JUMPI PUSH7 0x2386F26FC10000 SWAP1 POP PUSH2 0x241E JUMP JUMPDEST PUSH8 0x8AC7230489E80000 DUP3 GT ISZERO PUSH2 0x239C JUMPI PUSH7 0x38D7EA4C68000 SWAP1 POP PUSH2 0x241D JUMP JUMPDEST PUSH8 0xDE0B6B3A7640000 DUP3 GT ISZERO PUSH2 0x23BA JUMPI PUSH6 0x5AF3107A4000 SWAP1 POP PUSH2 0x241C JUMP JUMPDEST PUSH8 0x16345785D8A0000 DUP3 GT ISZERO PUSH2 0x23D8 JUMPI PUSH6 0x9184E72A000 SWAP1 POP PUSH2 0x241B JUMP JUMPDEST PUSH7 0x2386F26FC10000 DUP3 GT ISZERO PUSH2 0x23F4 JUMPI PUSH5 0xE8D4A51000 SWAP1 POP PUSH2 0x241A JUMP JUMPDEST PUSH7 0x38D7EA4C68000 DUP3 GT ISZERO PUSH2 0x2410 JUMPI PUSH5 0x174876E800 SWAP1 POP PUSH2 0x2419 JUMP JUMPDEST PUSH5 0x2540BE400 SWAP1 POP JUMPDEST JUMPDEST JUMPDEST JUMPDEST JUMPDEST JUMPDEST JUMPDEST JUMPDEST JUMPDEST JUMPDEST PUSH2 0x2461 PUSH1 0x40 MLOAD DUP1 PUSH1 0x40 ADD PUSH1 0x40 MSTORE DUP1 PUSH1 0xB DUP2 MSTORE PUSH1 0x20 ADD PUSH32 0x6464646464646464646464000000000000000000000000000000000000000000 DUP2 MSTORE POP DUP3 PUSH2 0x261F JUMP JUMPDEST PUSH1 0x0 DUP1 PUSH1 0x0 DUP1 DUP5 DUP11 PUSH1 0x0 ADD MLOAD PUSH2 0x2477 SWAP2 SWAP1 PUSH2 0x395C JUMP JUMPDEST DUP6 DUP12 PUSH1 0x40 ADD MLOAD PUSH2 0x2487 SWAP2 SWAP1 PUSH2 0x395C JUMP JUMPDEST DUP7 DUP13 PUSH1 0x20 ADD MLOAD PUSH2 0x2497 SWAP2 SWAP1 PUSH2 0x395C JUMP JUMPDEST DUP8 DUP14 PUSH1 0x60 ADD MLOAD PUSH2 0x24A7 SWAP2 SWAP1 PUSH2 0x395C JUMP JUMPDEST SWAP4 POP SWAP4 POP SWAP4 POP SWAP4 POP PUSH1 0x0 DUP2 DUP5 PUSH2 0x24BD SWAP2 SWAP1 PUSH2 0x43DB JUMP JUMPDEST DUP4 DUP7 PUSH2 0x24C9 SWAP2 SWAP1 PUSH2 0x43DB JUMP JUMPDEST PUSH2 0x24D3 SWAP2 SWAP1 PUSH2 0x44F2 JUMP JUMPDEST SWAP1 POP PUSH1 0x0 DUP5 DUP7 PUSH2 0x24E3 SWAP2 SWAP1 PUSH2 0x4586 JUMP JUMPDEST DUP4 DUP6 PUSH1 0x2 PUSH2 0x24F1 SWAP2 SWAP1 PUSH2 0x43DB JUMP JUMPDEST PUSH2 0x24FB SWAP2 SWAP1 PUSH2 0x43DB JUMP JUMPDEST PUSH2 0x2505 SWAP2 SWAP1 PUSH2 0x43DB JUMP JUMPDEST SWAP1 POP PUSH1 0x0 DUP5 DUP7 PUSH2 0x2515 SWAP2 SWAP1 PUSH2 0x43DB JUMP JUMPDEST DUP5 DUP9 PUSH2 0x2521 SWAP2 SWAP1 PUSH2 0x43DB JUMP JUMPDEST PUSH2 0x252B SWAP2 SWAP1 PUSH2 0x44F2 JUMP JUMPDEST DUP5 DUP7 PUSH2 0x2537 SWAP2 SWAP1 PUSH2 0x43DB JUMP JUMPDEST PUSH2 0x2541 SWAP2 SWAP1 PUSH2 0x43DB JUMP JUMPDEST SWAP1 POP PUSH1 0x0 DUP1 PUSH2 0x2551 DUP6 DUP6 DUP6 PUSH2 0x2B14 JUMP JUMPDEST SWAP2 POP SWAP2 POP PUSH1 0x0 DUP3 SGT DUP1 ISZERO PUSH2 0x2564 JUMPI POP DUP7 DUP3 SLT JUMPDEST DUP1 ISZERO PUSH2 0x256F JUMPI POP DUP6 DUP3 SLT JUMPDEST DUP1 PUSH2 0x2590 JUMPI POP PUSH1 0x0 DUP2 SGT DUP1 ISZERO PUSH2 0x2584 JUMPI POP DUP7 DUP2 SLT JUMPDEST DUP1 ISZERO PUSH2 0x258F JUMPI POP DUP6 DUP2 SLT JUMPDEST JUMPDEST PUSH2 0x25CF JUMPI PUSH1 0x40 MLOAD PUSH32 0x8C379A000000000000000000000000000000000000000000000000000000000 DUP2 MSTORE PUSH1 0x4 ADD PUSH2 0x25C6 SWAP1 PUSH2 0x4666 JUMP JUMPDEST PUSH1 0x40 MLOAD DUP1 SWAP2 SUB SWAP1 REVERT JUMPDEST PUSH1 0x0 DUP3 SGT DUP1 ISZERO PUSH2 0x25DE JUMPI POP DUP7 DUP3 SLT JUMPDEST DUP1 ISZERO PUSH2 0x25E9 JUMPI POP DUP6 DUP3 SLT JUMPDEST PUSH2 0x25FE JUMPI DUP10 DUP2 PUSH2 0x25F9 SWAP2 SWAP1 PUSH2 0x3FBC JUMP JUMPDEST PUSH2 0x260B JUMP JUMPDEST DUP10 DUP3 PUSH2 0x260A SWAP2 SWAP1 PUSH2 0x3FBC JUMP JUMPDEST JUMPDEST SWAP14 POP POP POP POP POP POP POP POP POP POP POP POP POP POP SWAP2 SWAP1 POP JUMP JUMPDEST PUSH2 0x26B7 DUP3 DUP3 PUSH1 0x40 MLOAD PUSH1 0x24 ADD PUSH2 0x2635 SWAP3 SWAP2 SWAP1 PUSH2 0x4686 JUMP JUMPDEST PUSH1 0x40 MLOAD PUSH1 0x20 DUP2 DUP4 SUB SUB DUP2 MSTORE SWAP1 PUSH1 0x40 MSTORE PUSH32 0xB60E72CC00000000000000000000000000000000000000000000000000000000 PUSH28 0xFFFFFFFFFFFFFFFFFFFFFFFFFFFFFFFFFFFFFFFFFFFFFFFFFFFFFFFF NOT AND PUSH1 0x20 DUP3 ADD DUP1 MLOAD PUSH28 0xFFFFFFFFFFFFFFFFFFFFFFFFFFFFFFFFFFFFFFFFFFFFFFFFFFFFFFFF DUP4 DUP2 DUP4 AND OR DUP4 MSTORE POP POP POP POP PUSH2 0x2974 JUMP JUMPDEST POP POP JUMP JUMPDEST PUSH2 0x2757 DUP5 DUP5 DUP5 DUP5 PUSH1 0x40 MLOAD PUSH1 0x24 ADD PUSH2 0x26D5 SWAP5 SWAP4 SWAP3 SWAP2 SWAP1 PUSH2 0x46B6 JUMP JUMPDEST PUSH1 0x40 MLOAD PUSH1 0x20 DUP2 DUP4 SUB SUB DUP2 MSTORE SWAP1 PUSH1 0x40 MSTORE PUSH32 0xC67EA9D100000000000000000000000000000000000000000000000000000000 PUSH28 0xFFFFFFFFFFFFFFFFFFFFFFFFFFFFFFFFFFFFFFFFFFFFFFFFFFFFFFFF NOT AND PUSH1 0x20 DUP3 ADD DUP1 MLOAD PUSH28 0xFFFFFFFFFFFFFFFFFFFFFFFFFFFFFFFFFFFFFFFFFFFFFFFFFFFFFFFF DUP4 DUP2 DUP4 AND OR DUP4 MSTORE POP POP POP POP PUSH2 0x2974 JUMP JUMPDEST POP POP POP POP JUMP JUMPDEST PUSH2 0x27F3 DUP2 PUSH1 0x40 MLOAD PUSH1 0x24 ADD PUSH2 0x2771 SWAP2 SWAP1 PUSH2 0x4709 JUMP JUMPDEST PUSH1 0x40 MLOAD PUSH1 0x20 DUP2 DUP4 SUB SUB DUP2 MSTORE SWAP1 PUSH1 0x40 MSTORE PUSH32 0x41304FAC00000000000000000000000000000000000000000000000000000000 PUSH28 0xFFFFFFFFFFFFFFFFFFFFFFFFFFFFFFFFFFFFFFFFFFFFFFFFFFFFFFFF NOT AND PUSH1 0x20 DUP3 ADD DUP1 MLOAD PUSH28 0xFFFFFFFFFFFFFFFFFFFFFFFFFFFFFFFFFFFFFFFFFFFFFFFFFFFFFFFF DUP4 DUP2 DUP4 AND OR DUP4 MSTORE POP POP POP POP PUSH2 0x2974 JUMP JUMPDEST POP JUMP JUMPDEST PUSH1 0x0 DUP2 DUP4 PUSH2 0x2804 SWAP2 SWAP1 PUSH2 0x3D6E JUMP JUMPDEST SWAP1 POP SWAP3 SWAP2 POP POP JUMP JUMPDEST PUSH1 0x0 PUSH2 0x2834 DUP4 PUSH1 0x0 ADD DUP4 PUSH20 0xFFFFFFFFFFFFFFFFFFFFFFFFFFFFFFFFFFFFFFFF AND PUSH1 0x0 SHL PUSH2 0x2C00 JUMP JUMPDEST SWAP1 POP SWAP3 SWAP2 POP POP JUMP JUMPDEST PUSH1 0x0 PUSH2 0x2848 DUP4 DUP4 PUSH2 0x298E JUMP JUMPDEST PUSH2 0x28A1 JUMPI DUP3 PUSH1 0x0 ADD DUP3 SWAP1 DUP1 PUSH1 0x1 DUP2 SLOAD ADD DUP1 DUP3 SSTORE DUP1 SWAP2 POP POP PUSH1 0x1 SWAP1 SUB SWAP1 PUSH1 0x0 MSTORE PUSH1 0x20 PUSH1 0x0 KECCAK256 ADD PUSH1 0x0 SWAP1 SWAP2 SWAP1 SWAP2 SWAP1 SWAP2 POP SSTORE DUP3 PUSH1 0x0 ADD DUP1 SLOAD SWAP1 POP DUP4 PUSH1 0x1 ADD PUSH1 0x0 DUP5 DUP2 MSTORE PUSH1 0x20 ADD SWAP1 DUP2 MSTORE PUSH1 0x20 ADD PUSH1 0x0 KECCAK256 DUP2 SWAP1 SSTORE POP PUSH1 0x1 SWAP1 POP PUSH2 0x28A6 JUMP JUMPDEST PUSH1 0x0 SWAP1 POP JUMPDEST SWAP3 SWAP2 POP POP JUMP JUMPDEST PUSH1 0x0 PUSH2 0x290E DUP3 PUSH1 0x40 MLOAD DUP1 PUSH1 0x40 ADD PUSH1 0x40 MSTORE DUP1 PUSH1 0x20 DUP2 MSTORE PUSH1 0x20 ADD PUSH32 0x5361666545524332303A206C6F772D6C6576656C2063616C6C206661696C6564 DUP2 MSTORE POP DUP6 PUSH20 0xFFFFFFFFFFFFFFFFFFFFFFFFFFFFFFFFFFFFFFFF AND PUSH2 0x2D14 SWAP1 SWAP3 SWAP2 SWAP1 PUSH4 0xFFFFFFFF AND JUMP JUMPDEST SWAP1 POP PUSH1 0x0 DUP2 MLOAD EQ DUP1 PUSH2 0x2930 JUMPI POP DUP1 DUP1 PUSH1 0x20 ADD SWAP1 MLOAD DUP2 ADD SWAP1 PUSH2 0x292F SWAP2 SWAP1 PUSH2 0x3CCB JUMP JUMPDEST JUMPDEST PUSH2 0x296F JUMPI PUSH1 0x40 MLOAD PUSH32 0x8C379A000000000000000000000000000000000000000000000000000000000 DUP2 MSTORE PUSH1 0x4 ADD PUSH2 0x2966 SWAP1 PUSH2 0x479D JUMP JUMPDEST PUSH1 0x40 MLOAD DUP1 SWAP2 SUB SWAP1 REVERT JUMPDEST POP POP POP JUMP JUMPDEST PUSH2 0x298B DUP2 PUSH2 0x2983 PUSH2 0x2D2C PUSH2 0x2D4D JUMP JUMPDEST PUSH4 0xFFFFFFFF AND JUMP JUMPDEST POP JUMP JUMPDEST PUSH1 0x0 DUP1 DUP4 PUSH1 0x1 ADD PUSH1 0x0 DUP5 DUP2 MSTORE PUSH1 0x20 ADD SWAP1 DUP2 MSTORE PUSH1 0x20 ADD PUSH1 0x0 KECCAK256 SLOAD EQ ISZERO SWAP1 POP SWAP3 SWAP2 POP POP JUMP JUMPDEST PUSH1 0x0 DUP2 PUSH1 0x0 ADD DUP1 SLOAD SWAP1 POP SWAP1 POP SWAP2 SWAP1 POP JUMP JUMPDEST PUSH1 0x0 DUP3 PUSH1 0x0 ADD DUP3 DUP2 SLOAD DUP2 LT PUSH2 0x29DA JUMPI PUSH2 0x29D9 PUSH2 0x3EFB JUMP JUMPDEST JUMPDEST SWAP1 PUSH1 0x0 MSTORE PUSH1 0x20 PUSH1 0x0 KECCAK256 ADD SLOAD SWAP1 POP SWAP3 SWAP2 POP POP JUMP JUMPDEST PUSH1 0x0 CALLER SWAP1 POP SWAP1 JUMP JUMPDEST PUSH2 0x29FD PUSH2 0x3255 JUMP JUMPDEST PUSH1 0x40 MLOAD DUP1 PUSH1 0x20 ADD PUSH1 0x40 MSTORE DUP1 PUSH2 0x2A23 PUSH8 0xDE0B6B3A7640000 DUP6 PUSH2 0x2D58 SWAP1 SWAP2 SWAP1 PUSH4 0xFFFFFFFF AND JUMP JUMPDEST DUP2 MSTORE POP SWAP1 POP SWAP2 SWAP1 POP JUMP JUMPDEST PUSH2 0x2A35 PUSH2 0x3255 JUMP JUMPDEST PUSH1 0x40 MLOAD DUP1 PUSH1 0x20 ADD PUSH1 0x40 MSTORE DUP1 PUSH2 0x2A57 DUP5 DUP7 PUSH1 0x0 ADD MLOAD PUSH2 0x2DD3 SWAP1 SWAP2 SWAP1 PUSH4 0xFFFFFFFF AND JUMP JUMPDEST DUP2 MSTORE POP SWAP1 POP SWAP3 SWAP2 POP POP JUMP JUMPDEST PUSH1 0x0 DUP1 PUSH2 0x2A6F DUP5 DUP5 PUSH2 0x2E1D JUMP JUMPDEST EQ SWAP1 POP SWAP3 SWAP2 POP POP JUMP JUMPDEST PUSH2 0x2B10 DUP3 DUP3 PUSH1 0x40 MLOAD PUSH1 0x24 ADD PUSH2 0x2A8E SWAP3 SWAP2 SWAP1 PUSH2 0x47BD JUMP JUMPDEST PUSH1 0x40 MLOAD PUSH1 0x20 DUP2 DUP4 SUB SUB DUP2 MSTORE SWAP1 PUSH1 0x40 MSTORE PUSH32 0xC3B5563500000000000000000000000000000000000000000000000000000000 PUSH28 0xFFFFFFFFFFFFFFFFFFFFFFFFFFFFFFFFFFFFFFFFFFFFFFFFFFFFFFFF NOT AND PUSH1 0x20 DUP3 ADD DUP1 MLOAD PUSH28 0xFFFFFFFFFFFFFFFFFFFFFFFFFFFFFFFFFFFFFFFFFFFFFFFFFFFFFFFF DUP4 DUP2 DUP4 AND OR DUP4 MSTORE POP POP POP POP PUSH2 0x2974 JUMP JUMPDEST POP POP JUMP JUMPDEST PUSH1 0x0 DUP1 PUSH1 0x0 DUP4 DUP7 PUSH1 0x4 PUSH2 0x2B27 SWAP2 SWAP1 PUSH2 0x43DB JUMP JUMPDEST PUSH2 0x2B31 SWAP2 SWAP1 PUSH2 0x43DB JUMP JUMPDEST PUSH1 0x2 DUP7 PUSH2 0x2B3E SWAP2 SWAP1 PUSH2 0x4949 JUMP JUMPDEST PUSH2 0x2B48 SWAP2 SWAP1 PUSH2 0x44F2 JUMP JUMPDEST SWAP1 POP PUSH1 0x0 DUP2 SGT PUSH2 0x2B8D JUMPI PUSH1 0x40 MLOAD PUSH32 0x8C379A000000000000000000000000000000000000000000000000000000000 DUP2 MSTORE PUSH1 0x4 ADD PUSH2 0x2B84 SWAP1 PUSH2 0x4A01 JUMP JUMPDEST PUSH1 0x40 MLOAD DUP1 SWAP2 SUB SWAP1 REVERT JUMPDEST PUSH1 0x0 PUSH2 0x2B98 DUP3 PUSH2 0x2E5D JUMP JUMPDEST SWAP1 POP DUP7 PUSH1 0x2 PUSH2 0x2BA7 SWAP2 SWAP1 PUSH2 0x43DB JUMP JUMPDEST DUP2 DUP8 PUSH2 0x2BB2 SWAP1 PUSH2 0x4A21 JUMP JUMPDEST PUSH2 0x2BBC SWAP2 SWAP1 PUSH2 0x4586 JUMP JUMPDEST PUSH2 0x2BC6 SWAP2 SWAP1 PUSH2 0x4A6A JUMP JUMPDEST SWAP4 POP DUP7 PUSH1 0x2 PUSH2 0x2BD5 SWAP2 SWAP1 PUSH2 0x43DB JUMP JUMPDEST DUP2 DUP8 PUSH2 0x2BE0 SWAP1 PUSH2 0x4A21 JUMP JUMPDEST PUSH2 0x2BEA SWAP2 SWAP1 PUSH2 0x44F2 JUMP JUMPDEST PUSH2 0x2BF4 SWAP2 SWAP1 PUSH2 0x4A6A JUMP JUMPDEST SWAP3 POP POP POP SWAP4 POP SWAP4 SWAP2 POP POP JUMP JUMPDEST PUSH1 0x0 DUP1 DUP4 PUSH1 0x1 ADD PUSH1 0x0 DUP5 DUP2 MSTORE PUSH1 0x20 ADD SWAP1 DUP2 MSTORE PUSH1 0x20 ADD PUSH1 0x0 KECCAK256 SLOAD SWAP1 POP PUSH1 0x0 DUP2 EQ PUSH2 0x2D08 JUMPI PUSH1 0x0 PUSH1 0x1 DUP3 PUSH2 0x2C32 SWAP2 SWAP1 PUSH2 0x3D6E JUMP JUMPDEST SWAP1 POP PUSH1 0x0 PUSH1 0x1 DUP7 PUSH1 0x0 ADD DUP1 SLOAD SWAP1 POP PUSH2 0x2C4A SWAP2 SWAP1 PUSH2 0x3D6E JUMP JUMPDEST SWAP1 POP DUP2 DUP2 EQ PUSH2 0x2CB9 JUMPI PUSH1 0x0 DUP7 PUSH1 0x0 ADD DUP3 DUP2 SLOAD DUP2 LT PUSH2 0x2C6B JUMPI PUSH2 0x2C6A PUSH2 0x3EFB JUMP JUMPDEST JUMPDEST SWAP1 PUSH1 0x0 MSTORE PUSH1 0x20 PUSH1 0x0 KECCAK256 ADD SLOAD SWAP1 POP DUP1 DUP8 PUSH1 0x0 ADD DUP5 DUP2 SLOAD DUP2 LT PUSH2 0x2C8F JUMPI PUSH2 0x2C8E PUSH2 0x3EFB JUMP JUMPDEST JUMPDEST SWAP1 PUSH1 0x0 MSTORE PUSH1 0x20 PUSH1 0x0 KECCAK256 ADD DUP2 SWAP1 SSTORE POP DUP4 DUP8 PUSH1 0x1 ADD PUSH1 0x0 DUP4 DUP2 MSTORE PUSH1 0x20 ADD SWAP1 DUP2 MSTORE PUSH1 0x20 ADD PUSH1 0x0 KECCAK256 DUP2 SWAP1 SSTORE POP POP JUMPDEST DUP6 PUSH1 0x0 ADD DUP1 SLOAD DUP1 PUSH2 0x2CCD JUMPI PUSH2 0x2CCC PUSH2 0x4AD4 JUMP JUMPDEST JUMPDEST PUSH1 0x1 SWAP1 SUB DUP2 DUP2 SWAP1 PUSH1 0x0 MSTORE PUSH1 0x20 PUSH1 0x0 KECCAK256 ADD PUSH1 0x0 SWAP1 SSTORE SWAP1 SSTORE DUP6 PUSH1 0x1 ADD PUSH1 0x0 DUP7 DUP2 MSTORE PUSH1 0x20 ADD SWAP1 DUP2 MSTORE PUSH1 0x20 ADD PUSH1 0x0 KECCAK256 PUSH1 0x0 SWAP1 SSTORE PUSH1 0x1 SWAP4 POP POP POP POP PUSH2 0x2D0E JUMP JUMPDEST PUSH1 0x0 SWAP2 POP POP JUMPDEST SWAP3 SWAP2 POP POP JUMP JUMPDEST PUSH1 0x60 PUSH2 0x2D23 DUP5 DUP5 PUSH1 0x0 DUP6 PUSH2 0x2EF4 JUMP JUMPDEST SWAP1 POP SWAP4 SWAP3 POP POP POP JUMP JUMPDEST PUSH1 0x0 PUSH11 0x636F6E736F6C652E6C6F67 SWAP1 POP PUSH1 0x0 DUP1 DUP4 MLOAD PUSH1 0x20 DUP6 ADD DUP5 GAS STATICCALL POP POP POP JUMP JUMPDEST PUSH2 0x3268 DUP2 SWAP1 POP SWAP2 SWAP1 POP JUMP JUMPDEST PUSH1 0x0 DUP1 DUP4 EQ ISZERO PUSH2 0x2D6B JUMPI PUSH1 0x0 SWAP1 POP PUSH2 0x2DCD JUMP JUMPDEST PUSH1 0x0 DUP3 DUP5 PUSH2 0x2D79 SWAP2 SWAP1 PUSH2 0x3FBC JUMP JUMPDEST SWAP1 POP DUP3 DUP5 DUP3 PUSH2 0x2D88 SWAP2 SWAP1 PUSH2 0x395C JUMP JUMPDEST EQ PUSH2 0x2DC8 JUMPI PUSH1 0x40 MLOAD PUSH32 0x8C379A000000000000000000000000000000000000000000000000000000000 DUP2 MSTORE PUSH1 0x4 ADD PUSH2 0x2DBF SWAP1 PUSH2 0x4B75 JUMP JUMPDEST PUSH1 0x40 MLOAD DUP1 SWAP2 SUB SWAP1 REVERT JUMPDEST DUP1 SWAP2 POP POP JUMPDEST SWAP3 SWAP2 POP POP JUMP JUMPDEST PUSH1 0x0 PUSH2 0x2E15 DUP4 DUP4 PUSH1 0x40 MLOAD DUP1 PUSH1 0x40 ADD PUSH1 0x40 MSTORE DUP1 PUSH1 0x1A DUP2 MSTORE PUSH1 0x20 ADD PUSH32 0x536166654D6174683A206469766973696F6E206279207A65726F000000000000 DUP2 MSTORE POP PUSH2 0x2FC1 JUMP JUMPDEST SWAP1 POP SWAP3 SWAP2 POP POP JUMP JUMPDEST PUSH1 0x0 DUP2 PUSH1 0x0 ADD MLOAD DUP4 PUSH1 0x0 ADD MLOAD EQ ISZERO PUSH2 0x2E38 JUMPI PUSH1 0x1 SWAP1 POP PUSH2 0x2E57 JUMP JUMPDEST DUP2 PUSH1 0x0 ADD MLOAD DUP4 PUSH1 0x0 ADD MLOAD GT PUSH2 0x2E4E JUMPI PUSH1 0x0 PUSH2 0x2E51 JUMP JUMPDEST PUSH1 0x2 JUMPDEST PUSH1 0xFF AND SWAP1 POP JUMPDEST SWAP3 SWAP2 POP POP JUMP JUMPDEST PUSH1 0x0 PUSH1 0x1 DUP3 GT PUSH2 0x2E70 JUMPI PUSH2 0x2E6F PUSH2 0x4B95 JUMP JUMPDEST JUMPDEST PUSH1 0x0 PUSH3 0xF4240 DUP4 PUSH2 0x2E81 SWAP2 SWAP1 PUSH2 0x3FBC JUMP JUMPDEST SWAP1 POP PUSH1 0x0 DUP2 SWAP1 POP DUP2 SWAP3 POP PUSH1 0x0 JUMPDEST PUSH1 0x1 ISZERO PUSH2 0x2EDC JUMPI PUSH1 0x2 DUP5 DUP4 PUSH2 0x2EA3 SWAP2 SWAP1 PUSH2 0x395C JUMP JUMPDEST DUP6 PUSH2 0x2EAE SWAP2 SWAP1 PUSH2 0x4016 JUMP JUMPDEST PUSH2 0x2EB8 SWAP2 SWAP1 PUSH2 0x395C JUMP JUMPDEST SWAP1 POP PUSH2 0x3E8 DUP2 DUP6 PUSH2 0x2EC9 SWAP2 SWAP1 PUSH2 0x3D6E JUMP JUMPDEST LT ISZERO PUSH2 0x2ED4 JUMPI PUSH2 0x2EDC JUMP JUMPDEST DUP1 SWAP4 POP PUSH2 0x2E8E JUMP JUMPDEST PUSH2 0x3E8 DUP5 PUSH2 0x2EEA SWAP2 SWAP1 PUSH2 0x395C JUMP JUMPDEST SWAP4 POP POP POP POP SWAP2 SWAP1 POP JUMP JUMPDEST PUSH1 0x60 DUP3 SELFBALANCE LT ISZERO PUSH2 0x2F39 JUMPI PUSH1 0x40 MLOAD PUSH32 0x8C379A000000000000000000000000000000000000000000000000000000000 DUP2 MSTORE PUSH1 0x4 ADD PUSH2 0x2F30 SWAP1 PUSH2 0x4C36 JUMP JUMPDEST PUSH1 0x40 MLOAD DUP1 SWAP2 SUB SWAP1 REVERT JUMPDEST PUSH1 0x0 DUP1 DUP7 PUSH20 0xFFFFFFFFFFFFFFFFFFFFFFFFFFFFFFFFFFFFFFFF AND DUP6 DUP8 PUSH1 0x40 MLOAD PUSH2 0x2F62 SWAP2 SWAP1 PUSH2 0x4C92 JUMP JUMPDEST PUSH1 0x0 PUSH1 0x40 MLOAD DUP1 DUP4 SUB DUP2 DUP6 DUP8 GAS CALL SWAP3 POP POP POP RETURNDATASIZE DUP1 PUSH1 0x0 DUP2 EQ PUSH2 0x2F9F JUMPI PUSH1 0x40 MLOAD SWAP2 POP PUSH1 0x1F NOT PUSH1 0x3F RETURNDATASIZE ADD AND DUP3 ADD PUSH1 0x40 MSTORE RETURNDATASIZE DUP3 MSTORE RETURNDATASIZE PUSH1 0x0 PUSH1 0x20 DUP5 ADD RETURNDATACOPY PUSH2 0x2FA4 JUMP JUMPDEST PUSH1 0x60 SWAP2 POP JUMPDEST POP SWAP2 POP SWAP2 POP PUSH2 0x2FB5 DUP8 DUP4 DUP4 DUP8 PUSH2 0x3024 JUMP JUMPDEST SWAP3 POP POP POP SWAP5 SWAP4 POP POP POP POP JUMP JUMPDEST PUSH1 0x0 DUP1 DUP4 GT DUP3 SWAP1 PUSH2 0x3008 JUMPI PUSH1 0x40 MLOAD PUSH32 0x8C379A000000000000000000000000000000000000000000000000000000000 DUP2 MSTORE PUSH1 0x4 ADD PUSH2 0x2FFF SWAP2 SWAP1 PUSH2 0x4709 JUMP JUMPDEST PUSH1 0x40 MLOAD DUP1 SWAP2 SUB SWAP1 REVERT JUMPDEST POP PUSH1 0x0 DUP4 DUP6 PUSH2 0x3017 SWAP2 SWAP1 PUSH2 0x395C JUMP JUMPDEST SWAP1 POP DUP1 SWAP2 POP POP SWAP4 SWAP3 POP POP POP JUMP JUMPDEST PUSH1 0x60 DUP4 ISZERO PUSH2 0x3087 JUMPI PUSH1 0x0 DUP4 MLOAD EQ ISZERO PUSH2 0x307F JUMPI PUSH2 0x303F DUP6 PUSH2 0x309A JUMP JUMPDEST PUSH2 0x307E JUMPI PUSH1 0x40 MLOAD PUSH32 0x8C379A000000000000000000000000000000000000000000000000000000000 DUP2 MSTORE PUSH1 0x4 ADD PUSH2 0x3075 SWAP1 PUSH2 0x4CF5 JUMP JUMPDEST PUSH1 0x40 MLOAD DUP1 SWAP2 SUB SWAP1 REVERT JUMPDEST JUMPDEST DUP3 SWAP1 POP PUSH2 0x3092 JUMP JUMPDEST PUSH2 0x3091 DUP4 DUP4 PUSH2 0x30BD JUMP JUMPDEST JUMPDEST SWAP5 SWAP4 POP POP POP POP JUMP JUMPDEST PUSH1 0x0 DUP1 DUP3 PUSH20 0xFFFFFFFFFFFFFFFFFFFFFFFFFFFFFFFFFFFFFFFF AND EXTCODESIZE GT SWAP1 POP SWAP2 SWAP1 POP JUMP JUMPDEST PUSH1 0x0 DUP3 MLOAD GT ISZERO PUSH2 0x30D0 JUMPI DUP2 MLOAD DUP1 DUP4 PUSH1 0x20 ADD REVERT JUMPDEST DUP1 PUSH1 0x40 MLOAD PUSH32 0x8C379A000000000000000000000000000000000000000000000000000000000 DUP2 MSTORE PUSH1 0x4 ADD PUSH2 0x3104 SWAP2 SWAP1 PUSH2 0x4709 JUMP JUMPDEST PUSH1 0x40 MLOAD DUP1 SWAP2 SUB SWAP1 REVERT JUMPDEST PUSH1 0x40 MLOAD DUP1 PUSH1 0xA0 ADD PUSH1 0x40 MSTORE DUP1 PUSH1 0x0 PUSH20 0xFFFFFFFFFFFFFFFFFFFFFFFFFFFFFFFFFFFFFFFF AND DUP2 MSTORE PUSH1 0x20 ADD PUSH1 0x0 PUSH20 0xFFFFFFFFFFFFFFFFFFFFFFFFFFFFFFFFFFFFFFFF AND DUP2 MSTORE PUSH1 0x20 ADD PUSH1 0x0 ISZERO ISZERO DUP2 MSTORE PUSH1 0x20 ADD PUSH1 0x0 PUSH20 0xFFFFFFFFFFFFFFFFFFFFFFFFFFFFFFFFFFFFFFFF AND DUP2 MSTORE PUSH1 0x20 ADD PUSH1 0x0 PUSH20 0xFFFFFFFFFFFFFFFFFFFFFFFFFFFFFFFFFFFFFFFF AND DUP2 MSTORE POP SWAP1 JUMP JUMPDEST PUSH1 0x40 MLOAD DUP1 PUSH1 0x80 ADD PUSH1 0x40 MSTORE DUP1 PUSH1 0x0 DUP2 MSTORE PUSH1 0x20 ADD PUSH1 0x0 DUP2 MSTORE PUSH1 0x20 ADD PUSH1 0x0 DUP2 MSTORE PUSH1 0x20 ADD PUSH1 0x0 DUP2 MSTORE POP SWAP1 JUMP JUMPDEST PUSH1 0x40 MLOAD DUP1 PUSH1 0xE0 ADD PUSH1 0x40 MSTORE DUP1 PUSH1 0x0 PUSH20 0xFFFFFFFFFFFFFFFFFFFFFFFFFFFFFFFFFFFFFFFF AND DUP2 MSTORE PUSH1 0x20 ADD PUSH1 0x0 PUSH20 0xFFFFFFFFFFFFFFFFFFFFFFFFFFFFFFFFFFFFFFFF AND DUP2 MSTORE PUSH1 0x20 ADD PUSH1 0x0 ISZERO ISZERO DUP2 MSTORE PUSH1 0x20 ADD PUSH1 0x0 PUSH20 0xFFFFFFFFFFFFFFFFFFFFFFFFFFFFFFFFFFFFFFFF AND DUP2 MSTORE PUSH1 0x20 ADD PUSH1 0x0 PUSH20 0xFFFFFFFFFFFFFFFFFFFFFFFFFFFFFFFFFFFFFFFF AND DUP2 MSTORE PUSH1 0x20 ADD PUSH1 0x0 DUP2 MSTORE PUSH1 0x20 ADD PUSH1 0x0 DUP2 MSTORE POP SWAP1 JUMP JUMPDEST PUSH1 0x40 MLOAD DUP1 PUSH1 0x20 ADD PUSH1 0x40 MSTORE DUP1 PUSH1 0x0 DUP2 MSTORE POP SWAP1 JUMP JUMPDEST PUSH2 0x3270 PUSH2 0x4D15 JUMP JUMPDEST JUMP JUMPDEST PUSH1 0x0 PUSH1 0x40 MLOAD SWAP1 POP SWAP1 JUMP JUMPDEST PUSH1 0x0 DUP1 REVERT JUMPDEST PUSH1 0x0 DUP1 REVERT JUMPDEST PUSH1 0x0 DUP2 SWAP1 POP SWAP2 SWAP1 POP JUMP JUMPDEST PUSH2 0x3299 DUP2 PUSH2 0x3286 JUMP JUMPDEST DUP2 EQ PUSH2 0x32A4 JUMPI PUSH1 0x0 DUP1 REVERT JUMPDEST POP JUMP JUMPDEST PUSH1 0x0 DUP2 CALLDATALOAD SWAP1 POP PUSH2 0x32B6 DUP2 PUSH2 0x3290 JUMP JUMPDEST SWAP3 SWAP2 POP POP JUMP JUMPDEST PUSH1 0x0 DUP1 PUSH1 0x0 PUSH1 0x60 DUP5 DUP7 SUB SLT ISZERO PUSH2 0x32D5 JUMPI PUSH2 0x32D4 PUSH2 0x327C JUMP JUMPDEST JUMPDEST PUSH1 0x0 PUSH2 0x32E3 DUP7 DUP3 DUP8 ADD PUSH2 0x32A7 JUMP JUMPDEST SWAP4 POP POP PUSH1 0x20 PUSH2 0x32F4 DUP7 DUP3 DUP8 ADD PUSH2 0x32A7 JUMP JUMPDEST SWAP3 POP POP PUSH1 0x40 PUSH2 0x3305 DUP7 DUP3 DUP8 ADD PUSH2 0x32A7 JUMP JUMPDEST SWAP2 POP POP SWAP3 POP SWAP3 POP SWAP3 JUMP JUMPDEST PUSH2 0x3318 DUP2 PUSH2 0x3286 JUMP JUMPDEST DUP3 MSTORE POP POP JUMP JUMPDEST PUSH1 0x0 PUSH1 0x20 DUP3 ADD SWAP1 POP PUSH2 0x3333 PUSH1 0x0 DUP4 ADD DUP5 PUSH2 0x330F JUMP JUMPDEST SWAP3 SWAP2 POP POP JUMP JUMPDEST PUSH1 0x0 PUSH20 0xFFFFFFFFFFFFFFFFFFFFFFFFFFFFFFFFFFFFFFFF DUP3 AND SWAP1 POP SWAP2 SWAP1 POP JUMP JUMPDEST PUSH1 0x0 PUSH2 0x3364 DUP3 PUSH2 0x3339 JUMP JUMPDEST SWAP1 POP SWAP2 SWAP1 POP JUMP JUMPDEST PUSH2 0x3374 DUP2 PUSH2 0x3359 JUMP JUMPDEST DUP2 EQ PUSH2 0x337F JUMPI PUSH1 0x0 DUP1 REVERT JUMPDEST POP JUMP JUMPDEST PUSH1 0x0 DUP2 CALLDATALOAD SWAP1 POP PUSH2 0x3391 DUP2 PUSH2 0x336B JUMP JUMPDEST SWAP3 SWAP2 POP POP JUMP JUMPDEST PUSH1 0x0 DUP1 REVERT JUMPDEST PUSH1 0x0 DUP1 REVERT JUMPDEST PUSH1 0x0 PUSH1 0x1F NOT PUSH1 0x1F DUP4 ADD AND SWAP1 POP SWAP2 SWAP1 POP JUMP JUMPDEST PUSH32 0x4E487B7100000000000000000000000000000000000000000000000000000000 PUSH1 0x0 MSTORE PUSH1 0x41 PUSH1 0x4 MSTORE PUSH1 0x24 PUSH1 0x0 REVERT JUMPDEST PUSH2 0x33EA DUP3 PUSH2 0x33A1 JUMP JUMPDEST DUP2 ADD DUP2 DUP2 LT PUSH8 0xFFFFFFFFFFFFFFFF DUP3 GT OR ISZERO PUSH2 0x3409 JUMPI PUSH2 0x3408 PUSH2 0x33B2 JUMP JUMPDEST JUMPDEST DUP1 PUSH1 0x40 MSTORE POP POP POP JUMP JUMPDEST PUSH1 0x0 PUSH2 0x341C PUSH2 0x3272 JUMP JUMPDEST SWAP1 POP PUSH2 0x3428 DUP3 DUP3 PUSH2 0x33E1 JUMP JUMPDEST SWAP2 SWAP1 POP JUMP JUMPDEST PUSH1 0x0 PUSH8 0xFFFFFFFFFFFFFFFF DUP3 GT ISZERO PUSH2 0x3448 JUMPI PUSH2 0x3447 PUSH2 0x33B2 JUMP JUMPDEST JUMPDEST PUSH2 0x3451 DUP3 PUSH2 0x33A1 JUMP JUMPDEST SWAP1 POP PUSH1 0x20 DUP2 ADD SWAP1 POP SWAP2 SWAP1 POP JUMP JUMPDEST DUP3 DUP2 DUP4 CALLDATACOPY PUSH1 0x0 DUP4 DUP4 ADD MSTORE POP POP POP JUMP JUMPDEST PUSH1 0x0 PUSH2 0x3480 PUSH2 0x347B DUP5 PUSH2 0x342D JUMP JUMPDEST PUSH2 0x3412 JUMP JUMPDEST SWAP1 POP DUP3 DUP2 MSTORE PUSH1 0x20 DUP2 ADD DUP5 DUP5 DUP5 ADD GT ISZERO PUSH2 0x349C JUMPI PUSH2 0x349B PUSH2 0x339C JUMP JUMPDEST JUMPDEST PUSH2 0x34A7 DUP5 DUP3 DUP6 PUSH2 0x345E JUMP JUMPDEST POP SWAP4 SWAP3 POP POP POP JUMP JUMPDEST PUSH1 0x0 DUP3 PUSH1 0x1F DUP4 ADD SLT PUSH2 0x34C4 JUMPI PUSH2 0x34C3 PUSH2 0x3397 JUMP JUMPDEST JUMPDEST DUP2 CALLDATALOAD PUSH2 0x34D4 DUP5 DUP3 PUSH1 0x20 DUP7 ADD PUSH2 0x346D JUMP JUMPDEST SWAP2 POP POP SWAP3 SWAP2 POP POP JUMP JUMPDEST PUSH1 0x0 DUP1 PUSH1 0x0 DUP1 PUSH1 0x80 DUP6 DUP8 SUB SLT ISZERO PUSH2 0x34F7 JUMPI PUSH2 0x34F6 PUSH2 0x327C JUMP JUMPDEST JUMPDEST PUSH1 0x0 PUSH2 0x3505 DUP8 DUP3 DUP9 ADD PUSH2 0x3382 JUMP JUMPDEST SWAP5 POP POP PUSH1 0x20 PUSH2 0x3516 DUP8 DUP3 DUP9 ADD PUSH2 0x32A7 JUMP JUMPDEST SWAP4 POP POP PUSH1 0x40 PUSH2 0x3527 DUP8 DUP3 DUP9 ADD PUSH2 0x32A7 JUMP JUMPDEST SWAP3 POP POP PUSH1 0x60 DUP6 ADD CALLDATALOAD PUSH8 0xFFFFFFFFFFFFFFFF DUP2 GT ISZERO PUSH2 0x3548 JUMPI PUSH2 0x3547 PUSH2 0x3281 JUMP JUMPDEST JUMPDEST PUSH2 0x3554 DUP8 DUP3 DUP9 ADD PUSH2 0x34AF JUMP JUMPDEST SWAP2 POP POP SWAP3 SWAP6 SWAP2 SWAP5 POP SWAP3 POP JUMP JUMPDEST PUSH1 0x0 PUSH1 0x20 DUP3 DUP5 SUB SLT ISZERO PUSH2 0x3576 JUMPI PUSH2 0x3575 PUSH2 0x327C JUMP JUMPDEST JUMPDEST PUSH1 0x0 PUSH2 0x3584 DUP5 DUP3 DUP6 ADD PUSH2 0x3382 JUMP JUMPDEST SWAP2 POP POP SWAP3 SWAP2 POP POP JUMP JUMPDEST PUSH1 0x0 DUP2 ISZERO ISZERO SWAP1 POP SWAP2 SWAP1 POP JUMP JUMPDEST PUSH2 0x35A2 DUP2 PUSH2 0x358D JUMP JUMPDEST DUP3 MSTORE POP POP JUMP JUMPDEST PUSH1 0x0 PUSH1 0x20 DUP3 ADD SWAP1 POP PUSH2 0x35BD PUSH1 0x0 DUP4 ADD DUP5 PUSH2 0x3599 JUMP JUMPDEST SWAP3 SWAP2 POP POP JUMP JUMPDEST PUSH2 0x35CC DUP2 PUSH2 0x3359 JUMP JUMPDEST DUP3 MSTORE POP POP JUMP JUMPDEST PUSH1 0x0 PUSH1 0x20 DUP3 ADD SWAP1 POP PUSH2 0x35E7 PUSH1 0x0 DUP4 ADD DUP5 PUSH2 0x35C3 JUMP JUMPDEST SWAP3 SWAP2 POP POP JUMP JUMPDEST PUSH1 0x0 DUP1 PUSH1 0x40 DUP4 DUP6 SUB SLT ISZERO PUSH2 0x3604 JUMPI PUSH2 0x3603 PUSH2 0x327C JUMP JUMPDEST JUMPDEST PUSH1 0x0 PUSH2 0x3612 DUP6 DUP3 DUP7 ADD PUSH2 0x3382 JUMP JUMPDEST SWAP3 POP POP PUSH1 0x20 PUSH2 0x3623 DUP6 DUP3 DUP7 ADD PUSH2 0x3382 JUMP JUMPDEST SWAP2 POP POP SWAP3 POP SWAP3 SWAP1 POP JUMP JUMPDEST PUSH1 0x0 PUSH1 0x40 DUP3 ADD SWAP1 POP PUSH2 0x3642 PUSH1 0x0 DUP4 ADD DUP6 PUSH2 0x330F JUMP JUMPDEST PUSH2 0x364F PUSH1 0x20 DUP4 ADD DUP5 PUSH2 0x35C3 JUMP JUMPDEST SWAP4 SWAP3 POP POP POP JUMP JUMPDEST PUSH1 0x0 DUP1 PUSH1 0x0 PUSH1 0x60 DUP5 DUP7 SUB SLT ISZERO PUSH2 0x366F JUMPI PUSH2 0x366E PUSH2 0x327C JUMP JUMPDEST JUMPDEST PUSH1 0x0 PUSH2 0x367D DUP7 DUP3 DUP8 ADD PUSH2 0x3382 JUMP JUMPDEST SWAP4 POP POP PUSH1 0x20 PUSH2 0x368E DUP7 DUP3 DUP8 ADD PUSH2 0x3382 JUMP JUMPDEST SWAP3 POP POP PUSH1 0x40 PUSH2 0x369F DUP7 DUP3 DUP8 ADD PUSH2 0x32A7 JUMP JUMPDEST SWAP2 POP POP SWAP3 POP SWAP3 POP SWAP3 JUMP JUMPDEST PUSH1 0x0 DUP1 PUSH1 0x40 DUP4 DUP6 SUB SLT ISZERO PUSH2 0x36C0 JUMPI PUSH2 0x36BF PUSH2 0x327C JUMP JUMPDEST JUMPDEST PUSH1 0x0 PUSH2 0x36CE DUP6 DUP3 DUP7 ADD PUSH2 0x3382 JUMP JUMPDEST SWAP3 POP POP PUSH1 0x20 PUSH2 0x36DF DUP6 DUP3 DUP7 ADD PUSH2 0x32A7 JUMP JUMPDEST SWAP2 POP POP SWAP3 POP SWAP3 SWAP1 POP JUMP JUMPDEST PUSH1 0x0 DUP2 MLOAD SWAP1 POP SWAP2 SWAP1 POP JUMP JUMPDEST PUSH1 0x0 DUP3 DUP3 MSTORE PUSH1 0x20 DUP3 ADD SWAP1 POP SWAP3 SWAP2 POP POP JUMP JUMPDEST PUSH1 0x0 DUP2 SWAP1 POP PUSH1 0x20 DUP3 ADD SWAP1 POP SWAP2 SWAP1 POP JUMP JUMPDEST PUSH2 0x371E DUP2 PUSH2 0x3359 JUMP JUMPDEST DUP3 MSTORE POP POP JUMP JUMPDEST PUSH1 0x0 PUSH2 0x3730 DUP4 DUP4 PUSH2 0x3715 JUMP JUMPDEST PUSH1 0x20 DUP4 ADD SWAP1 POP SWAP3 SWAP2 POP POP JUMP JUMPDEST PUSH1 0x0 PUSH1 0x20 DUP3 ADD SWAP1 POP SWAP2 SWAP1 POP JUMP JUMPDEST PUSH1 0x0 PUSH2 0x3754 DUP3 PUSH2 0x36E9 JUMP JUMPDEST PUSH2 0x375E DUP2 DUP6 PUSH2 0x36F4 JUMP JUMPDEST SWAP4 POP PUSH2 0x3769 DUP4 PUSH2 0x3705 JUMP JUMPDEST DUP1 PUSH1 0x0 JUMPDEST DUP4 DUP2 LT ISZERO PUSH2 0x379A JUMPI DUP2 MLOAD PUSH2 0x3781 DUP9 DUP3 PUSH2 0x3724 JUMP JUMPDEST SWAP8 POP PUSH2 0x378C DUP4 PUSH2 0x373C JUMP JUMPDEST SWAP3 POP POP PUSH1 0x1 DUP2 ADD SWAP1 POP PUSH2 0x376D JUMP JUMPDEST POP DUP6 SWAP4 POP POP POP POP SWAP3 SWAP2 POP POP JUMP JUMPDEST PUSH1 0x0 PUSH1 0x20 DUP3 ADD SWAP1 POP DUP2 DUP2 SUB PUSH1 0x0 DUP4 ADD MSTORE PUSH2 0x37C1 DUP2 DUP5 PUSH2 0x3749 JUMP JUMPDEST SWAP1 POP SWAP3 SWAP2 POP POP JUMP JUMPDEST PUSH1 0x0 DUP3 DUP3 MSTORE PUSH1 0x20 DUP3 ADD SWAP1 POP SWAP3 SWAP2 POP POP JUMP JUMPDEST PUSH32 0x556E697377617056324C6962726172793A20494E53554646494349454E545F49 PUSH1 0x0 DUP3 ADD MSTORE PUSH32 0x4E5055545F414D4F554E54000000000000000000000000000000000000000000 PUSH1 0x20 DUP3 ADD MSTORE POP JUMP JUMPDEST PUSH1 0x0 PUSH2 0x3836 PUSH1 0x2B DUP4 PUSH2 0x37C9 JUMP JUMPDEST SWAP2 POP PUSH2 0x3841 DUP3 PUSH2 0x37DA JUMP JUMPDEST PUSH1 0x40 DUP3 ADD SWAP1 POP SWAP2 SWAP1 POP JUMP JUMPDEST PUSH1 0x0 PUSH1 0x20 DUP3 ADD SWAP1 POP DUP2 DUP2 SUB PUSH1 0x0 DUP4 ADD MSTORE PUSH2 0x3865 DUP2 PUSH2 0x3829 JUMP JUMPDEST SWAP1 POP SWAP2 SWAP1 POP JUMP JUMPDEST PUSH32 0x556E697377617056324C6962726172793A20494E53554646494349454E545F4C PUSH1 0x0 DUP3 ADD MSTORE PUSH32 0x4951554944495459000000000000000000000000000000000000000000000000 PUSH1 0x20 DUP3 ADD MSTORE POP JUMP JUMPDEST PUSH1 0x0 PUSH2 0x38C8 PUSH1 0x28 DUP4 PUSH2 0x37C9 JUMP JUMPDEST SWAP2 POP PUSH2 0x38D3 DUP3 PUSH2 0x386C JUMP JUMPDEST PUSH1 0x40 DUP3 ADD SWAP1 POP SWAP2 SWAP1 POP JUMP JUMPDEST PUSH1 0x0 PUSH1 0x20 DUP3 ADD SWAP1 POP DUP2 DUP2 SUB PUSH1 0x0 DUP4 ADD MSTORE PUSH2 0x38F7 DUP2 PUSH2 0x38BB JUMP JUMPDEST SWAP1 POP SWAP2 SWAP1 POP JUMP JUMPDEST PUSH32 0x4E487B7100000000000000000000000000000000000000000000000000000000 PUSH1 0x0 MSTORE PUSH1 0x12 PUSH1 0x4 MSTORE PUSH1 0x24 PUSH1 0x0 REVERT JUMPDEST PUSH32 0x4E487B7100000000000000000000000000000000000000000000000000000000 PUSH1 0x0 MSTORE PUSH1 0x11 PUSH1 0x4 MSTORE PUSH1 0x24 PUSH1 0x0 REVERT JUMPDEST PUSH1 0x0 PUSH2 0x3967 DUP3 PUSH2 0x3286 JUMP JUMPDEST SWAP2 POP PUSH2 0x3972 DUP4 PUSH2 0x3286 JUMP JUMPDEST SWAP3 POP DUP3 PUSH2 0x3982 JUMPI PUSH2 0x3981 PUSH2 0x38FE JUMP JUMPDEST JUMPDEST DUP3 DUP3 DIV SWAP1 POP SWAP3 SWAP2 POP POP JUMP JUMPDEST PUSH32 0x4E6F6E207065726D697373696F6E656420616464726573732063616C6C000000 PUSH1 0x0 DUP3 ADD MSTORE POP JUMP JUMPDEST PUSH1 0x0 PUSH2 0x39C3 PUSH1 0x1D DUP4 PUSH2 0x37C9 JUMP JUMPDEST SWAP2 POP PUSH2 0x39CE DUP3 PUSH2 0x398D JUMP JUMPDEST PUSH1 0x20 DUP3 ADD SWAP1 POP SWAP2 SWAP1 POP JUMP JUMPDEST PUSH1 0x0 PUSH1 0x20 DUP3 ADD SWAP1 POP DUP2 DUP2 SUB PUSH1 0x0 DUP4 ADD MSTORE PUSH2 0x39F2 DUP2 PUSH2 0x39B6 JUMP JUMPDEST SWAP1 POP SWAP2 SWAP1 POP JUMP JUMPDEST PUSH32 0x4E6F742066726F6D207468697320636F6E747261637400000000000000000000 PUSH1 0x0 DUP3 ADD MSTORE POP JUMP JUMPDEST PUSH1 0x0 PUSH2 0x3A2F PUSH1 0x16 DUP4 PUSH2 0x37C9 JUMP JUMPDEST SWAP2 POP PUSH2 0x3A3A DUP3 PUSH2 0x39F9 JUMP JUMPDEST PUSH1 0x20 DUP3 ADD SWAP1 POP SWAP2 SWAP1 POP JUMP JUMPDEST PUSH1 0x0 PUSH1 0x20 DUP3 ADD SWAP1 POP DUP2 DUP2 SUB PUSH1 0x0 DUP4 ADD MSTORE PUSH2 0x3A5E DUP2 PUSH2 0x3A22 JUMP JUMPDEST SWAP1 POP SWAP2 SWAP1 POP JUMP JUMPDEST PUSH1 0x0 DUP1 REVERT JUMPDEST PUSH1 0x0 DUP2 MLOAD SWAP1 POP PUSH2 0x3A79 DUP2 PUSH2 0x336B JUMP JUMPDEST SWAP3 SWAP2 POP POP JUMP JUMPDEST PUSH2 0x3A88 DUP2 PUSH2 0x358D JUMP JUMPDEST DUP2 EQ PUSH2 0x3A93 JUMPI PUSH1 0x0 DUP1 REVERT JUMPDEST POP JUMP JUMPDEST PUSH1 0x0 DUP2 MLOAD SWAP1 POP PUSH2 0x3AA5 DUP2 PUSH2 0x3A7F JUMP JUMPDEST SWAP3 SWAP2 POP POP JUMP JUMPDEST PUSH1 0x0 DUP2 MLOAD SWAP1 POP PUSH2 0x3ABA DUP2 PUSH2 0x3290 JUMP JUMPDEST SWAP3 SWAP2 POP POP JUMP JUMPDEST PUSH1 0x0 PUSH1 0xE0 DUP3 DUP5 SUB SLT ISZERO PUSH2 0x3AD6 JUMPI PUSH2 0x3AD5 PUSH2 0x3A65 JUMP JUMPDEST JUMPDEST PUSH2 0x3AE0 PUSH1 0xE0 PUSH2 0x3412 JUMP JUMPDEST SWAP1 POP PUSH1 0x0 PUSH2 0x3AF0 DUP5 DUP3 DUP6 ADD PUSH2 0x3A6A JUMP JUMPDEST PUSH1 0x0 DUP4 ADD MSTORE POP PUSH1 0x20 PUSH2 0x3B04 DUP5 DUP3 DUP6 ADD PUSH2 0x3A6A JUMP JUMPDEST PUSH1 0x20 DUP4 ADD MSTORE POP PUSH1 0x40 PUSH2 0x3B18 DUP5 DUP3 DUP6 ADD PUSH2 0x3A96 JUMP JUMPDEST PUSH1 0x40 DUP4 ADD MSTORE POP PUSH1 0x60 PUSH2 0x3B2C DUP5 DUP3 DUP6 ADD PUSH2 0x3A6A JUMP JUMPDEST PUSH1 0x60 DUP4 ADD MSTORE POP PUSH1 0x80 PUSH2 0x3B40 DUP5 DUP3 DUP6 ADD PUSH2 0x3A6A JUMP JUMPDEST PUSH1 0x80 DUP4 ADD MSTORE POP PUSH1 0xA0 PUSH2 0x3B54 DUP5 DUP3 DUP6 ADD PUSH2 0x3AAB JUMP JUMPDEST PUSH1 0xA0 DUP4 ADD MSTORE POP PUSH1 0xC0 PUSH2 0x3B68 DUP5 DUP3 DUP6 ADD PUSH2 0x3AAB JUMP JUMPDEST PUSH1 0xC0 DUP4 ADD MSTORE POP SWAP3 SWAP2 POP POP JUMP JUMPDEST PUSH1 0x0 PUSH1 0xE0 DUP3 DUP5 SUB SLT ISZERO PUSH2 0x3B8A JUMPI PUSH2 0x3B89 PUSH2 0x327C JUMP JUMPDEST JUMPDEST PUSH1 0x0 PUSH2 0x3B98 DUP5 DUP3 DUP6 ADD PUSH2 0x3AC0 JUMP JUMPDEST SWAP2 POP POP SWAP3 SWAP2 POP POP JUMP JUMPDEST PUSH1 0x0 DUP2 MLOAD SWAP1 POP SWAP2 SWAP1 POP JUMP JUMPDEST PUSH1 0x0 DUP3 DUP3 MSTORE PUSH1 0x20 DUP3 ADD SWAP1 POP SWAP3 SWAP2 POP POP JUMP JUMPDEST PUSH1 0x0 JUMPDEST DUP4 DUP2 LT ISZERO PUSH2 0x3BDB JUMPI DUP1 DUP3 ADD MLOAD DUP2 DUP5 ADD MSTORE PUSH1 0x20 DUP2 ADD SWAP1 POP PUSH2 0x3BC0 JUMP JUMPDEST DUP4 DUP2 GT ISZERO PUSH2 0x3BEA JUMPI PUSH1 0x0 DUP5 DUP5 ADD MSTORE JUMPDEST POP POP POP POP JUMP JUMPDEST PUSH1 0x0 PUSH2 0x3BFB DUP3 PUSH2 0x3BA1 JUMP JUMPDEST PUSH2 0x3C05 DUP2 DUP6 PUSH2 0x3BAC JUMP JUMPDEST SWAP4 POP PUSH2 0x3C15 DUP2 DUP6 PUSH1 0x20 DUP7 ADD PUSH2 0x3BBD JUMP JUMPDEST PUSH2 0x3C1E DUP2 PUSH2 0x33A1 JUMP JUMPDEST DUP5 ADD SWAP2 POP POP SWAP3 SWAP2 POP POP JUMP JUMPDEST PUSH1 0x0 PUSH1 0x80 DUP3 ADD SWAP1 POP PUSH2 0x3C3E PUSH1 0x0 DUP4 ADD DUP8 PUSH2 0x330F JUMP JUMPDEST PUSH2 0x3C4B PUSH1 0x20 DUP4 ADD DUP7 PUSH2 0x330F JUMP JUMPDEST PUSH2 0x3C58 PUSH1 0x40 DUP4 ADD DUP6 PUSH2 0x35C3 JUMP JUMPDEST DUP2 DUP2 SUB PUSH1 0x60 DUP4 ADD MSTORE PUSH2 0x3C6A DUP2 DUP5 PUSH2 0x3BF0 JUMP JUMPDEST SWAP1 POP SWAP6 SWAP5 POP POP POP POP POP JUMP JUMPDEST PUSH1 0x0 PUSH1 0x20 DUP3 DUP5 SUB SLT ISZERO PUSH2 0x3C8B JUMPI PUSH2 0x3C8A PUSH2 0x327C JUMP JUMPDEST JUMPDEST PUSH1 0x0 PUSH2 0x3C99 DUP5 DUP3 DUP6 ADD PUSH2 0x3AAB JUMP JUMPDEST SWAP2 POP POP SWAP3 SWAP2 POP POP JUMP JUMPDEST PUSH1 0x0 PUSH1 0x40 DUP3 ADD SWAP1 POP PUSH2 0x3CB7 PUSH1 0x0 DUP4 ADD DUP6 PUSH2 0x35C3 JUMP JUMPDEST PUSH2 0x3CC4 PUSH1 0x20 DUP4 ADD DUP5 PUSH2 0x330F JUMP JUMPDEST SWAP4 SWAP3 POP POP POP JUMP JUMPDEST PUSH1 0x0 PUSH1 0x20 DUP3 DUP5 SUB SLT ISZERO PUSH2 0x3CE1 JUMPI PUSH2 0x3CE0 PUSH2 0x327C JUMP JUMPDEST JUMPDEST PUSH1 0x0 PUSH2 0x3CEF DUP5 DUP3 DUP6 ADD PUSH2 0x3A96 JUMP JUMPDEST SWAP2 POP POP SWAP3 SWAP2 POP POP JUMP JUMPDEST PUSH1 0x0 PUSH2 0x3D03 DUP3 PUSH2 0x3286 JUMP JUMPDEST SWAP2 POP PUSH32 0xFFFFFFFFFFFFFFFFFFFFFFFFFFFFFFFFFFFFFFFFFFFFFFFFFFFFFFFFFFFFFFFF DUP3 EQ ISZERO PUSH2 0x3D36 JUMPI PUSH2 0x3D35 PUSH2 0x392D JUMP JUMPDEST JUMPDEST PUSH1 0x1 DUP3 ADD SWAP1 POP SWAP2 SWAP1 POP JUMP JUMPDEST PUSH1 0x0 PUSH1 0x20 DUP3 DUP5 SUB SLT ISZERO PUSH2 0x3D57 JUMPI PUSH2 0x3D56 PUSH2 0x327C JUMP JUMPDEST JUMPDEST PUSH1 0x0 PUSH2 0x3D65 DUP5 DUP3 DUP6 ADD PUSH2 0x3A6A JUMP JUMPDEST SWAP2 POP POP SWAP3 SWAP2 POP POP JUMP JUMPDEST PUSH1 0x0 PUSH2 0x3D79 DUP3 PUSH2 0x3286 JUMP JUMPDEST SWAP2 POP PUSH2 0x3D84 DUP4 PUSH2 0x3286 JUMP JUMPDEST SWAP3 POP DUP3 DUP3 LT ISZERO PUSH2 0x3D97 JUMPI PUSH2 0x3D96 PUSH2 0x392D JUMP JUMPDEST JUMPDEST DUP3 DUP3 SUB SWAP1 POP SWAP3 SWAP2 POP POP JUMP JUMPDEST PUSH2 0x3DAB DUP2 PUSH2 0x358D JUMP JUMPDEST DUP3 MSTORE POP POP JUMP JUMPDEST PUSH2 0x3DBA DUP2 PUSH2 0x3286 JUMP JUMPDEST DUP3 MSTORE POP POP JUMP JUMPDEST PUSH1 0xE0 DUP3 ADD PUSH1 0x0 DUP3 ADD MLOAD PUSH2 0x3DD6 PUSH1 0x0 DUP6 ADD DUP3 PUSH2 0x3715 JUMP JUMPDEST POP PUSH1 0x20 DUP3 ADD MLOAD PUSH2 0x3DE9 PUSH1 0x20 DUP6 ADD DUP3 PUSH2 0x3715 JUMP JUMPDEST POP PUSH1 0x40 DUP3 ADD MLOAD PUSH2 0x3DFC PUSH1 0x40 DUP6 ADD DUP3 PUSH2 0x3DA2 JUMP JUMPDEST POP PUSH1 0x60 DUP3 ADD MLOAD PUSH2 0x3E0F PUSH1 0x60 DUP6 ADD DUP3 PUSH2 0x3715 JUMP JUMPDEST POP PUSH1 0x80 DUP3 ADD MLOAD PUSH2 0x3E22 PUSH1 0x80 DUP6 ADD DUP3 PUSH2 0x3715 JUMP JUMPDEST POP PUSH1 0xA0 DUP3 ADD MLOAD PUSH2 0x3E35 PUSH1 0xA0 DUP6 ADD DUP3 PUSH2 0x3DB1 JUMP JUMPDEST POP PUSH1 0xC0 DUP3 ADD MLOAD PUSH2 0x3E48 PUSH1 0xC0 DUP6 ADD DUP3 PUSH2 0x3DB1 JUMP JUMPDEST POP POP POP POP JUMP JUMPDEST PUSH1 0x0 PUSH1 0xE0 DUP3 ADD SWAP1 POP PUSH2 0x3E63 PUSH1 0x0 DUP4 ADD DUP5 PUSH2 0x3DC0 JUMP JUMPDEST SWAP3 SWAP2 POP POP JUMP JUMPDEST PUSH32 0x556E697377617056324C6962726172793A20494E53554646494349454E545F4F PUSH1 0x0 DUP3 ADD MSTORE PUSH32 0x55545055545F414D4F554E540000000000000000000000000000000000000000 PUSH1 0x20 DUP3 ADD MSTORE POP JUMP JUMPDEST PUSH1 0x0 PUSH2 0x3EC5 PUSH1 0x2C DUP4 PUSH2 0x37C9 JUMP JUMPDEST SWAP2 POP PUSH2 0x3ED0 DUP3 PUSH2 0x3E69 JUMP JUMPDEST PUSH1 0x40 DUP3 ADD SWAP1 POP SWAP2 SWAP1 POP JUMP JUMPDEST PUSH1 0x0 PUSH1 0x20 DUP3 ADD SWAP1 POP DUP2 DUP2 SUB PUSH1 0x0 DUP4 ADD MSTORE PUSH2 0x3EF4 DUP2 PUSH2 0x3EB8 JUMP JUMPDEST SWAP1 POP SWAP2 SWAP1 POP JUMP JUMPDEST PUSH32 0x4E487B7100000000000000000000000000000000000000000000000000000000 PUSH1 0x0 MSTORE PUSH1 0x32 PUSH1 0x4 MSTORE PUSH1 0x24 PUSH1 0x0 REVERT JUMPDEST PUSH32 0x4F776E61626C653A206E6577206F776E657220697320746865207A65726F2061 PUSH1 0x0 DUP3 ADD MSTORE PUSH32 0x6464726573730000000000000000000000000000000000000000000000000000 PUSH1 0x20 DUP3 ADD MSTORE POP JUMP JUMPDEST PUSH1 0x0 PUSH2 0x3F86 PUSH1 0x26 DUP4 PUSH2 0x37C9 JUMP JUMPDEST SWAP2 POP PUSH2 0x3F91 DUP3 PUSH2 0x3F2A JUMP JUMPDEST PUSH1 0x40 DUP3 ADD SWAP1 POP SWAP2 SWAP1 POP JUMP JUMPDEST PUSH1 0x0 PUSH1 0x20 DUP3 ADD SWAP1 POP DUP2 DUP2 SUB PUSH1 0x0 DUP4 ADD MSTORE PUSH2 0x3FB5 DUP2 PUSH2 0x3F79 JUMP JUMPDEST SWAP1 POP SWAP2 SWAP1 POP JUMP JUMPDEST PUSH1 0x0 PUSH2 0x3FC7 DUP3 PUSH2 0x3286 JUMP JUMPDEST SWAP2 POP PUSH2 0x3FD2 DUP4 PUSH2 0x3286 JUMP JUMPDEST SWAP3 POP DUP2 PUSH32 0xFFFFFFFFFFFFFFFFFFFFFFFFFFFFFFFFFFFFFFFFFFFFFFFFFFFFFFFFFFFFFFFF DIV DUP4 GT DUP3 ISZERO ISZERO AND ISZERO PUSH2 0x400B JUMPI PUSH2 0x400A PUSH2 0x392D JUMP JUMPDEST JUMPDEST DUP3 DUP3 MUL SWAP1 POP SWAP3 SWAP2 POP POP JUMP JUMPDEST PUSH1 0x0 PUSH2 0x4021 DUP3 PUSH2 0x3286 JUMP JUMPDEST SWAP2 POP PUSH2 0x402C DUP4 PUSH2 0x3286 JUMP JUMPDEST SWAP3 POP DUP3 PUSH32 0xFFFFFFFFFFFFFFFFFFFFFFFFFFFFFFFFFFFFFFFFFFFFFFFFFFFFFFFFFFFFFFFF SUB DUP3 GT ISZERO PUSH2 0x4061 JUMPI PUSH2 0x4060 PUSH2 0x392D JUMP JUMPDEST JUMPDEST DUP3 DUP3 ADD SWAP1 POP SWAP3 SWAP2 POP POP JUMP JUMPDEST PUSH1 0x0 DUP2 MLOAD SWAP1 POP SWAP2 SWAP1 POP JUMP JUMPDEST PUSH1 0x0 PUSH2 0x4082 DUP3 PUSH2 0x406C JUMP JUMPDEST PUSH2 0x408C DUP2 DUP6 PUSH2 0x37C9 JUMP JUMPDEST SWAP4 POP PUSH2 0x409C DUP2 DUP6 PUSH1 0x20 DUP7 ADD PUSH2 0x3BBD JUMP JUMPDEST PUSH2 0x40A5 DUP2 PUSH2 0x33A1 JUMP JUMPDEST DUP5 ADD SWAP2 POP POP SWAP3 SWAP2 POP POP JUMP JUMPDEST PUSH1 0x0 PUSH1 0x40 DUP3 ADD SWAP1 POP DUP2 DUP2 SUB PUSH1 0x0 DUP4 ADD MSTORE PUSH2 0x40CA DUP2 DUP6 PUSH2 0x4077 JUMP JUMPDEST SWAP1 POP PUSH2 0x40D9 PUSH1 0x20 DUP4 ADD DUP5 PUSH2 0x35C3 JUMP JUMPDEST SWAP4 SWAP3 POP POP POP JUMP JUMPDEST PUSH32 0x4F776E61626C653A2063616C6C6572206973206E6F7420746865206F776E6572 PUSH1 0x0 DUP3 ADD MSTORE POP JUMP JUMPDEST PUSH1 0x0 PUSH2 0x4116 PUSH1 0x20 DUP4 PUSH2 0x37C9 JUMP JUMPDEST SWAP2 POP PUSH2 0x4121 DUP3 PUSH2 0x40E0 JUMP JUMPDEST PUSH1 0x20 DUP3 ADD SWAP1 POP SWAP2 SWAP1 POP JUMP JUMPDEST PUSH1 0x0 PUSH1 0x20 DUP3 ADD SWAP1 POP DUP2 DUP2 SUB PUSH1 0x0 DUP4 ADD MSTORE PUSH2 0x4145 DUP2 PUSH2 0x4109 JUMP JUMPDEST SWAP1 POP SWAP2 SWAP1 POP JUMP JUMPDEST PUSH32 0x53616D6520706169722061646472657373000000000000000000000000000000 PUSH1 0x0 DUP3 ADD MSTORE POP JUMP JUMPDEST PUSH1 0x0 PUSH2 0x4182 PUSH1 0x11 DUP4 PUSH2 0x37C9 JUMP JUMPDEST SWAP2 POP PUSH2 0x418D DUP3 PUSH2 0x414C JUMP JUMPDEST PUSH1 0x20 DUP3 ADD SWAP1 POP SWAP2 SWAP1 POP JUMP JUMPDEST PUSH1 0x0 PUSH1 0x20 DUP3 ADD SWAP1 POP DUP2 DUP2 SUB PUSH1 0x0 DUP4 ADD MSTORE PUSH2 0x41B1 DUP2 PUSH2 0x4175 JUMP JUMPDEST SWAP1 POP SWAP2 SWAP1 POP JUMP JUMPDEST PUSH32 0x4E6F6E207374616E6461726420756E697377617020414D4D2070616972000000 PUSH1 0x0 DUP3 ADD MSTORE POP JUMP JUMPDEST PUSH1 0x0 PUSH2 0x41EE PUSH1 0x1D DUP4 PUSH2 0x37C9 JUMP JUMPDEST SWAP2 POP PUSH2 0x41F9 DUP3 PUSH2 0x41B8 JUMP JUMPDEST PUSH1 0x20 DUP3 ADD SWAP1 POP SWAP2 SWAP1 POP JUMP JUMPDEST PUSH1 0x0 PUSH1 0x20 DUP3 ADD SWAP1 POP DUP2 DUP2 SUB PUSH1 0x0 DUP4 ADD MSTORE PUSH2 0x421D DUP2 PUSH2 0x41E1 JUMP JUMPDEST SWAP1 POP SWAP2 SWAP1 POP JUMP JUMPDEST PUSH32 0x526571756972652073616D6520746F6B656E2070616972000000000000000000 PUSH1 0x0 DUP3 ADD MSTORE POP JUMP JUMPDEST PUSH1 0x0 PUSH2 0x425A PUSH1 0x17 DUP4 PUSH2 0x37C9 JUMP JUMPDEST SWAP2 POP PUSH2 0x4265 DUP3 PUSH2 0x4224 JUMP JUMPDEST PUSH1 0x20 DUP3 ADD SWAP1 POP SWAP2 SWAP1 POP JUMP JUMPDEST PUSH1 0x0 PUSH1 0x20 DUP3 ADD SWAP1 POP DUP2 DUP2 SUB PUSH1 0x0 DUP4 ADD MSTORE PUSH2 0x4289 DUP2 PUSH2 0x424D JUMP JUMPDEST SWAP1 POP SWAP2 SWAP1 POP JUMP JUMPDEST PUSH32 0x4E6F206261736520746F6B656E20696E20706169720000000000000000000000 PUSH1 0x0 DUP3 ADD MSTORE POP JUMP JUMPDEST PUSH1 0x0 PUSH2 0x42C6 PUSH1 0x15 DUP4 PUSH2 0x37C9 JUMP JUMPDEST SWAP2 POP PUSH2 0x42D1 DUP3 PUSH2 0x4290 JUMP JUMPDEST PUSH1 0x20 DUP3 ADD SWAP1 POP SWAP2 SWAP1 POP JUMP JUMPDEST PUSH1 0x0 PUSH1 0x20 DUP3 ADD SWAP1 POP DUP2 DUP2 SUB PUSH1 0x0 DUP4 ADD MSTORE PUSH2 0x42F5 DUP2 PUSH2 0x42B9 JUMP JUMPDEST SWAP1 POP SWAP2 SWAP1 POP JUMP JUMPDEST PUSH1 0x0 PUSH14 0xFFFFFFFFFFFFFFFFFFFFFFFFFFFF DUP3 AND SWAP1 POP SWAP2 SWAP1 POP JUMP JUMPDEST PUSH2 0x431F DUP2 PUSH2 0x42FC JUMP JUMPDEST DUP2 EQ PUSH2 0x432A JUMPI PUSH1 0x0 DUP1 REVERT JUMPDEST POP JUMP JUMPDEST PUSH1 0x0 DUP2 MLOAD SWAP1 POP PUSH2 0x433C DUP2 PUSH2 0x4316 JUMP JUMPDEST SWAP3 SWAP2 POP POP JUMP JUMPDEST PUSH1 0x0 PUSH4 0xFFFFFFFF DUP3 AND SWAP1 POP SWAP2 SWAP1 POP JUMP JUMPDEST PUSH2 0x435B DUP2 PUSH2 0x4342 JUMP JUMPDEST DUP2 EQ PUSH2 0x4366 JUMPI PUSH1 0x0 DUP1 REVERT JUMPDEST POP JUMP JUMPDEST PUSH1 0x0 DUP2 MLOAD SWAP1 POP PUSH2 0x4378 DUP2 PUSH2 0x4352 JUMP JUMPDEST SWAP3 SWAP2 POP POP JUMP JUMPDEST PUSH1 0x0 DUP1 PUSH1 0x0 PUSH1 0x60 DUP5 DUP7 SUB SLT ISZERO PUSH2 0x4397 JUMPI PUSH2 0x4396 PUSH2 0x327C JUMP JUMPDEST JUMPDEST PUSH1 0x0 PUSH2 0x43A5 DUP7 DUP3 DUP8 ADD PUSH2 0x432D JUMP JUMPDEST SWAP4 POP POP PUSH1 0x20 PUSH2 0x43B6 DUP7 DUP3 DUP8 ADD PUSH2 0x432D JUMP JUMPDEST SWAP3 POP POP PUSH1 0x40 PUSH2 0x43C7 DUP7 DUP3 DUP8 ADD PUSH2 0x4369 JUMP JUMPDEST SWAP2 POP POP SWAP3 POP SWAP3 POP SWAP3 JUMP JUMPDEST PUSH1 0x0 DUP2 SWAP1 POP SWAP2 SWAP1 POP JUMP JUMPDEST PUSH1 0x0 PUSH2 0x43E6 DUP3 PUSH2 0x43D1 JUMP JUMPDEST SWAP2 POP PUSH2 0x43F1 DUP4 PUSH2 0x43D1 JUMP JUMPDEST SWAP3 POP DUP3 PUSH32 0x7FFFFFFFFFFFFFFFFFFFFFFFFFFFFFFFFFFFFFFFFFFFFFFFFFFFFFFFFFFFFFFF DIV DUP3 GT PUSH1 0x0 DUP5 SGT PUSH1 0x0 DUP5 SGT AND AND ISZERO PUSH2 0x4430 JUMPI PUSH2 0x442F PUSH2 0x392D JUMP JUMPDEST JUMPDEST DUP2 PUSH32 0x8000000000000000000000000000000000000000000000000000000000000000 SDIV DUP4 SLT PUSH1 0x0 DUP5 SLT PUSH1 0x0 DUP5 SGT AND AND ISZERO PUSH2 0x446D JUMPI PUSH2 0x446C PUSH2 0x392D JUMP JUMPDEST JUMPDEST DUP3 PUSH32 0x8000000000000000000000000000000000000000000000000000000000000000 SDIV DUP3 SLT PUSH1 0x0 DUP5 SGT PUSH1 0x0 DUP5 SLT AND AND ISZERO PUSH2 0x44AA JUMPI PUSH2 0x44A9 PUSH2 0x392D JUMP JUMPDEST JUMPDEST DUP3 PUSH32 0x7FFFFFFFFFFFFFFFFFFFFFFFFFFFFFFFFFFFFFFFFFFFFFFFFFFFFFFFFFFFFFFF SDIV DUP3 SLT PUSH1 0x0 DUP5 SLT PUSH1 0x0 DUP5 SLT AND AND ISZERO PUSH2 0x44E7 JUMPI PUSH2 0x44E6 PUSH2 0x392D JUMP JUMPDEST JUMPDEST DUP3 DUP3 MUL SWAP1 POP SWAP3 SWAP2 POP POP JUMP JUMPDEST PUSH1 0x0 PUSH2 0x44FD DUP3 PUSH2 0x43D1 JUMP JUMPDEST SWAP2 POP PUSH2 0x4508 DUP4 PUSH2 0x43D1 JUMP JUMPDEST SWAP3 POP DUP3 PUSH32 0x8000000000000000000000000000000000000000000000000000000000000000 ADD DUP3 SLT PUSH1 0x0 DUP5 SLT ISZERO AND ISZERO PUSH2 0x4543 JUMPI PUSH2 0x4542 PUSH2 0x392D JUMP JUMPDEST JUMPDEST DUP3 PUSH32 0x7FFFFFFFFFFFFFFFFFFFFFFFFFFFFFFFFFFFFFFFFFFFFFFFFFFFFFFFFFFFFFFF ADD DUP3 SGT PUSH1 0x0 DUP5 SLT AND ISZERO PUSH2 0x457B JUMPI PUSH2 0x457A PUSH2 0x392D JUMP JUMPDEST JUMPDEST DUP3 DUP3 SUB SWAP1 POP SWAP3 SWAP2 POP POP JUMP JUMPDEST PUSH1 0x0 PUSH2 0x4591 DUP3 PUSH2 0x43D1 JUMP JUMPDEST SWAP2 POP PUSH2 0x459C DUP4 PUSH2 0x43D1 JUMP JUMPDEST SWAP3 POP DUP2 PUSH32 0x7FFFFFFFFFFFFFFFFFFFFFFFFFFFFFFFFFFFFFFFFFFFFFFFFFFFFFFFFFFFFFFF SUB DUP4 SGT PUSH1 0x0 DUP4 SLT ISZERO AND ISZERO PUSH2 0x45D7 JUMPI PUSH2 0x45D6 PUSH2 0x392D JUMP JUMPDEST JUMPDEST DUP2 PUSH32 0x8000000000000000000000000000000000000000000000000000000000000000 SUB DUP4 SLT PUSH1 0x0 DUP4 SLT AND ISZERO PUSH2 0x460F JUMPI PUSH2 0x460E PUSH2 0x392D JUMP JUMPDEST JUMPDEST DUP3 DUP3 ADD SWAP1 POP SWAP3 SWAP2 POP POP JUMP JUMPDEST PUSH32 0x57726F6E6720696E707574206F72646572000000000000000000000000000000 PUSH1 0x0 DUP3 ADD MSTORE POP JUMP JUMPDEST PUSH1 0x0 PUSH2 0x4650 PUSH1 0x11 DUP4 PUSH2 0x37C9 JUMP JUMPDEST SWAP2 POP PUSH2 0x465B DUP3 PUSH2 0x461A JUMP JUMPDEST PUSH1 0x20 DUP3 ADD SWAP1 POP SWAP2 SWAP1 POP JUMP JUMPDEST PUSH1 0x0 PUSH1 0x20 DUP3 ADD SWAP1 POP DUP2 DUP2 SUB PUSH1 0x0 DUP4 ADD MSTORE PUSH2 0x467F DUP2 PUSH2 0x4643 JUMP JUMPDEST SWAP1 POP SWAP2 SWAP1 POP JUMP JUMPDEST PUSH1 0x0 PUSH1 0x40 DUP3 ADD SWAP1 POP DUP2 DUP2 SUB PUSH1 0x0 DUP4 ADD MSTORE PUSH2 0x46A0 DUP2 DUP6 PUSH2 0x4077 JUMP JUMPDEST SWAP1 POP PUSH2 0x46AF PUSH1 0x20 DUP4 ADD DUP5 PUSH2 0x330F JUMP JUMPDEST SWAP4 SWAP3 POP POP POP JUMP JUMPDEST PUSH1 0x0 PUSH1 0x80 DUP3 ADD SWAP1 POP DUP2 DUP2 SUB PUSH1 0x0 DUP4 ADD MSTORE PUSH2 0x46D0 DUP2 DUP8 PUSH2 0x4077 JUMP JUMPDEST SWAP1 POP PUSH2 0x46DF PUSH1 0x20 DUP4 ADD DUP7 PUSH2 0x330F JUMP JUMPDEST DUP2 DUP2 SUB PUSH1 0x40 DUP4 ADD MSTORE PUSH2 0x46F1 DUP2 DUP6 PUSH2 0x4077 JUMP JUMPDEST SWAP1 POP PUSH2 0x4700 PUSH1 0x60 DUP4 ADD DUP5 PUSH2 0x330F JUMP JUMPDEST SWAP6 SWAP5 POP POP POP POP POP JUMP JUMPDEST PUSH1 0x0 PUSH1 0x20 DUP3 ADD SWAP1 POP DUP2 DUP2 SUB PUSH1 0x0 DUP4 ADD MSTORE PUSH2 0x4723 DUP2 DUP5 PUSH2 0x4077 JUMP JUMPDEST SWAP1 POP SWAP3 SWAP2 POP POP JUMP JUMPDEST PUSH32 0x5361666545524332303A204552433230206F7065726174696F6E20646964206E PUSH1 0x0 DUP3 ADD MSTORE PUSH32 0x6F74207375636365656400000000000000000000000000000000000000000000 PUSH1 0x20 DUP3 ADD MSTORE POP JUMP JUMPDEST PUSH1 0x0 PUSH2 0x4787 PUSH1 0x2A DUP4 PUSH2 0x37C9 JUMP JUMPDEST SWAP2 POP PUSH2 0x4792 DUP3 PUSH2 0x472B JUMP JUMPDEST PUSH1 0x40 DUP3 ADD SWAP1 POP SWAP2 SWAP1 POP JUMP JUMPDEST PUSH1 0x0 PUSH1 0x20 DUP3 ADD SWAP1 POP DUP2 DUP2 SUB PUSH1 0x0 DUP4 ADD MSTORE PUSH2 0x47B6 DUP2 PUSH2 0x477A JUMP JUMPDEST SWAP1 POP SWAP2 SWAP1 POP JUMP JUMPDEST PUSH1 0x0 PUSH1 0x40 DUP3 ADD SWAP1 POP DUP2 DUP2 SUB PUSH1 0x0 DUP4 ADD MSTORE PUSH2 0x47D7 DUP2 DUP6 PUSH2 0x4077 JUMP JUMPDEST SWAP1 POP PUSH2 0x47E6 PUSH1 0x20 DUP4 ADD DUP5 PUSH2 0x3599 JUMP JUMPDEST SWAP4 SWAP3 POP POP POP JUMP JUMPDEST PUSH1 0x0 DUP2 PUSH1 0x1 SHR SWAP1 POP SWAP2 SWAP1 POP JUMP JUMPDEST PUSH1 0x0 DUP1 DUP3 SWAP2 POP DUP4 SWAP1 POP JUMPDEST PUSH1 0x1 DUP6 GT ISZERO PUSH2 0x4844 JUMPI DUP1 DUP7 DIV DUP2 GT ISZERO PUSH2 0x4820 JUMPI PUSH2 0x481F PUSH2 0x392D JUMP JUMPDEST JUMPDEST PUSH1 0x1 DUP6 AND ISZERO PUSH2 0x482F JUMPI DUP1 DUP3 MUL SWAP2 POP JUMPDEST DUP1 DUP2 MUL SWAP1 POP PUSH2 0x483D DUP6 PUSH2 0x47ED JUMP JUMPDEST SWAP5 POP PUSH2 0x4804 JUMP JUMPDEST SWAP5 POP SWAP5 SWAP3 POP POP POP JUMP JUMPDEST PUSH1 0x0 DUP3 PUSH1 0x0 DUP2 EQ PUSH2 0x4865 JUMPI PUSH1 0x1 DUP2 EQ PUSH2 0x486F JUMPI PUSH2 0x4878 JUMP JUMPDEST PUSH1 0x1 SWAP2 POP POP PUSH2 0x4934 JUMP JUMPDEST DUP3 SWAP2 POP POP PUSH2 0x4934 JUMP JUMPDEST POP DUP2 PUSH2 0x4887 JUMPI PUSH1 0x0 SWAP1 POP PUSH2 0x4934 JUMP JUMPDEST PUSH1 0x1 SWAP1 POP PUSH1 0x0 DUP3 SGT PUSH1 0x1 DUP2 EQ PUSH2 0x48A4 JUMPI PUSH1 0x0 DUP2 EQ PUSH2 0x48BC JUMPI PUSH2 0x48D0 JUMP JUMPDEST DUP3 DUP7 DIV DUP4 GT ISZERO PUSH2 0x48B7 JUMPI PUSH2 0x48B6 PUSH2 0x392D JUMP JUMPDEST JUMPDEST PUSH2 0x48D0 JUMP JUMPDEST DUP3 DUP7 SDIV DUP4 SLT ISZERO PUSH2 0x48CF JUMPI PUSH2 0x48CE PUSH2 0x392D JUMP JUMPDEST JUMPDEST JUMPDEST POP PUSH1 0x1 DUP4 AND ISZERO PUSH2 0x48DE JUMPI DUP2 SWAP1 POP JUMPDEST DUP2 DUP3 MUL SWAP2 POP PUSH2 0x48EC DUP4 PUSH2 0x47ED JUMP JUMPDEST SWAP3 POP PUSH2 0x48FA DUP6 DUP5 DUP5 DUP5 PUSH2 0x47FA JUMP JUMPDEST SWAP3 POP SWAP1 POP DUP2 DUP6 DIV DUP2 GT PUSH1 0x0 DUP3 SGT AND ISZERO PUSH2 0x4916 JUMPI PUSH2 0x4915 PUSH2 0x392D JUMP JUMPDEST JUMPDEST DUP2 DUP5 SDIV DUP2 SLT PUSH1 0x0 DUP3 SLT AND ISZERO PUSH2 0x492E JUMPI PUSH2 0x492D PUSH2 0x392D JUMP JUMPDEST JUMPDEST DUP2 DUP2 MUL SWAP1 POP JUMPDEST SWAP5 SWAP4 POP POP POP POP JUMP JUMPDEST PUSH1 0x0 PUSH1 0xFF DUP3 AND SWAP1 POP SWAP2 SWAP1 POP JUMP JUMPDEST PUSH1 0x0 PUSH2 0x4954 DUP3 PUSH2 0x43D1 JUMP JUMPDEST SWAP2 POP PUSH2 0x495F DUP4 PUSH2 0x493C JUMP JUMPDEST SWAP3 POP PUSH2 0x49AD PUSH32 0x7FFFFFFFFFFFFFFFFFFFFFFFFFFFFFFFFFFFFFFFFFFFFFFFFFFFFFFFFFFFFFFF PUSH32 0x8000000000000000000000000000000000000000000000000000000000000000 DUP6 DUP6 PUSH2 0x484D JUMP JUMPDEST SWAP1 POP SWAP3 SWAP2 POP POP JUMP JUMPDEST PUSH32 0x436F6D706C6578206E756D626572000000000000000000000000000000000000 PUSH1 0x0 DUP3 ADD MSTORE POP JUMP JUMPDEST PUSH1 0x0 PUSH2 0x49EB PUSH1 0xE DUP4 PUSH2 0x37C9 JUMP JUMPDEST SWAP2 POP PUSH2 0x49F6 DUP3 PUSH2 0x49B5 JUMP JUMPDEST PUSH1 0x20 DUP3 ADD SWAP1 POP SWAP2 SWAP1 POP JUMP JUMPDEST PUSH1 0x0 PUSH1 0x20 DUP3 ADD SWAP1 POP DUP2 DUP2 SUB PUSH1 0x0 DUP4 ADD MSTORE PUSH2 0x4A1A DUP2 PUSH2 0x49DE JUMP JUMPDEST SWAP1 POP SWAP2 SWAP1 POP JUMP JUMPDEST PUSH1 0x0 PUSH2 0x4A2C DUP3 PUSH2 0x43D1 JUMP JUMPDEST SWAP2 POP PUSH32 0x8000000000000000000000000000000000000000000000000000000000000000 DUP3 EQ ISZERO PUSH2 0x4A5F JUMPI PUSH2 0x4A5E PUSH2 0x392D JUMP JUMPDEST JUMPDEST DUP2 PUSH1 0x0 SUB SWAP1 POP SWAP2 SWAP1 POP JUMP JUMPDEST PUSH1 0x0 PUSH2 0x4A75 DUP3 PUSH2 0x43D1 JUMP JUMPDEST SWAP2 POP PUSH2 0x4A80 DUP4 PUSH2 0x43D1 JUMP JUMPDEST SWAP3 POP DUP3 PUSH2 0x4A90 JUMPI PUSH2 0x4A8F PUSH2 0x38FE JUMP JUMPDEST JUMPDEST PUSH1 0x1 PUSH1 0x0 SUB DUP4 EQ PUSH32 0x8000000000000000000000000000000000000000000000000000000000000000 DUP4 EQ AND ISZERO PUSH2 0x4AC9 JUMPI PUSH2 0x4AC8 PUSH2 0x392D JUMP JUMPDEST JUMPDEST DUP3 DUP3 SDIV SWAP1 POP SWAP3 SWAP2 POP POP JUMP JUMPDEST PUSH32 0x4E487B7100000000000000000000000000000000000000000000000000000000 PUSH1 0x0 MSTORE PUSH1 0x31 PUSH1 0x4 MSTORE PUSH1 0x24 PUSH1 0x0 REVERT JUMPDEST PUSH32 0x536166654D6174683A206D756C7469706C69636174696F6E206F766572666C6F PUSH1 0x0 DUP3 ADD MSTORE PUSH32 0x7700000000000000000000000000000000000000000000000000000000000000 PUSH1 0x20 DUP3 ADD MSTORE POP JUMP JUMPDEST PUSH1 0x0 PUSH2 0x4B5F PUSH1 0x21 DUP4 PUSH2 0x37C9 JUMP JUMPDEST SWAP2 POP PUSH2 0x4B6A DUP3 PUSH2 0x4B03 JUMP JUMPDEST PUSH1 0x40 DUP3 ADD SWAP1 POP SWAP2 SWAP1 POP JUMP JUMPDEST PUSH1 0x0 PUSH1 0x20 DUP3 ADD SWAP1 POP DUP2 DUP2 SUB PUSH1 0x0 DUP4 ADD MSTORE PUSH2 0x4B8E DUP2 PUSH2 0x4B52 JUMP JUMPDEST SWAP1 POP SWAP2 SWAP1 POP JUMP JUMPDEST PUSH32 0x4E487B7100000000000000000000000000000000000000000000000000000000 PUSH1 0x0 MSTORE PUSH1 0x1 PUSH1 0x4 MSTORE PUSH1 0x24 PUSH1 0x0 REVERT JUMPDEST PUSH32 0x416464726573733A20696E73756666696369656E742062616C616E636520666F PUSH1 0x0 DUP3 ADD MSTORE PUSH32 0x722063616C6C0000000000000000000000000000000000000000000000000000 PUSH1 0x20 DUP3 ADD MSTORE POP JUMP JUMPDEST PUSH1 0x0 PUSH2 0x4C20 PUSH1 0x26 DUP4 PUSH2 0x37C9 JUMP JUMPDEST SWAP2 POP PUSH2 0x4C2B DUP3 PUSH2 0x4BC4 JUMP JUMPDEST PUSH1 0x40 DUP3 ADD SWAP1 POP SWAP2 SWAP1 POP JUMP JUMPDEST PUSH1 0x0 PUSH1 0x20 DUP3 ADD SWAP1 POP DUP2 DUP2 SUB PUSH1 0x0 DUP4 ADD MSTORE PUSH2 0x4C4F DUP2 PUSH2 0x4C13 JUMP JUMPDEST SWAP1 POP SWAP2 SWAP1 POP JUMP JUMPDEST PUSH1 0x0 DUP2 SWAP1 POP SWAP3 SWAP2 POP POP JUMP JUMPDEST PUSH1 0x0 PUSH2 0x4C6C DUP3 PUSH2 0x3BA1 JUMP JUMPDEST PUSH2 0x4C76 DUP2 DUP6 PUSH2 0x4C56 JUMP JUMPDEST SWAP4 POP PUSH2 0x4C86 DUP2 DUP6 PUSH1 0x20 DUP7 ADD PUSH2 0x3BBD JUMP JUMPDEST DUP1 DUP5 ADD SWAP2 POP POP SWAP3 SWAP2 POP POP JUMP JUMPDEST PUSH1 0x0 PUSH2 0x4C9E DUP3 DUP5 PUSH2 0x4C61 JUMP JUMPDEST SWAP2 POP DUP2 SWAP1 POP SWAP3 SWAP2 POP POP JUMP JUMPDEST PUSH32 0x416464726573733A2063616C6C20746F206E6F6E2D636F6E7472616374000000 PUSH1 0x0 DUP3 ADD MSTORE POP JUMP JUMPDEST PUSH1 0x0 PUSH2 0x4CDF PUSH1 0x1D DUP4 PUSH2 0x37C9 JUMP JUMPDEST SWAP2 POP PUSH2 0x4CEA DUP3 PUSH2 0x4CA9 JUMP JUMPDEST PUSH1 0x20 DUP3 ADD SWAP1 POP SWAP2 SWAP1 POP JUMP JUMPDEST PUSH1 0x0 PUSH1 0x20 DUP3 ADD SWAP1 POP DUP2 DUP2 SUB PUSH1 0x0 DUP4 ADD MSTORE PUSH2 0x4D0E DUP2 PUSH2 0x4CD2 JUMP JUMPDEST SWAP1 POP SWAP2 SWAP1 POP JUMP JUMPDEST PUSH32 0x4E487B7100000000000000000000000000000000000000000000000000000000 PUSH1 0x0 MSTORE PUSH1 0x51 PUSH1 0x4 MSTORE PUSH1 0x24 PUSH1 0x0 REVERT INVALID PUSH20 0x656C6C20626F72726F7765642071756F74652074 PUSH16 0x6B656E206F6E20686967686572207072 PUSH10 0x63653D3D3D3D3E3E2062 PUSH16 0x72726F772071756F746520746F6B656E KECCAK256 PUSH7 0x726F6D20636865 PUSH2 0x7020 PUSH17 0x6F6F6C3D3D3E20A2646970667358221220 0xCE MULMOD DUP5 PUSH16 0x7004D6F64A047DB5A1B6E342386CD721 0xA7 ISZERO 0xE0 0xAD PUSH13 0x4B84638190D28964736F6C6343 STOP ADDMOD EXP STOP CALLER "
		},
		"gasEstimates": {
			"creation": {
				"codeDepositCost": "3984000",
				"executionCost": "infinite",
				"totalCost": "infinite"
			},
			"external": {
				"BalanceBefore()": "2473",
				"addBaseToken(address)": "infinite",
				"arbitrargeUSDC(address,uint256)": "infinite",
				"baseTokenAave()": "2537",
				"baseTokenSmaller()": "2588",
				"baseTokensContains(address)": "infinite",
				"flashArbitrageAave(address,address,uint256)": "infinite",
				"getAmountIn(uint256,uint256,uint256)": "infinite",
				"getAmountOut(uint256,uint256,uint256)": "infinite",
				"getBaseTokens()": "infinite",
				"getProfit(address,address)": "infinite",
				"owner()": "2633",
				"pancakeCall(address,uint256,uint256,bytes)": "infinite",
				"profitaave()": "2518",
				"removeBaseToken(address)": "infinite",
				"renounceOwnership()": "30443",
				"transferOwnership(address)": "30857",
				"uniswapV2Call(address,uint256,uint256,bytes)": "infinite",
				"withdraw()": "infinite"
			},
			"internal": {
				"calcBorrowAmount(struct OrderedReserves memory)": "infinite",
				"calcSolutionForQuadratic(int256,int256,int256)": "infinite",
				"getOrderedReserves(address,address,bool)": "infinite",
				"isbaseTokenSmaller(address,address)": "infinite",
				"sqrt(uint256)": "infinite"
			}
		},
		"methodIdentifiers": {
			"BalanceBefore()": "a863baf9",
			"addBaseToken(address)": "83e280d9",
			"arbitrargeUSDC(address,uint256)": "9912af74",
			"baseTokenAave()": "536e35e1",
			"baseTokenSmaller()": "86b6fccb",
			"baseTokensContains(address)": "21d09426",
			"flashArbitrageAave(address,address,uint256)": "7e19a0c4",
			"getAmountIn(uint256,uint256,uint256)": "85f8c259",
			"getAmountOut(uint256,uint256,uint256)": "054d50d4",
			"getBaseTokens()": "bed64c2f",
			"getProfit(address,address)": "759eee10",
			"owner()": "8da5cb5b",
			"pancakeCall(address,uint256,uint256,bytes)": "84800812",
			"profitaave()": "8772fa25",
			"removeBaseToken(address)": "bbd1e122",
			"renounceOwnership()": "715018a6",
			"transferOwnership(address)": "f2fde38b",
			"uniswapV2Call(address,uint256,uint256,bytes)": "10d1e85c",
			"withdraw()": "3ccfd60b"
		}
	},
	"abi": [
		{
			"inputs": [
				{
					"internalType": "address",
					"name": "_WETHBase",
					"type": "address"
				}
			],
			"stateMutability": "nonpayable",
			"type": "constructor"
		},
		{
			"anonymous": false,
			"inputs": [
				{
					"indexed": false,
					"internalType": "address",
					"name": "BaseToken",
					"type": "address"
				},
				{
					"indexed": false,
					"internalType": "address",
					"name": "Pair1",
					"type": "address"
				},
				{
					"indexed": false,
					"internalType": "address",
					"name": "Pair2",
					"type": "address"
				}
			],
			"name": "ArbitrageDataAddr",
			"type": "event"
		},
		{
			"anonymous": false,
			"inputs": [
				{
					"indexed": false,
					"internalType": "uint256",
					"name": "BorrowedAmount",
					"type": "uint256"
				},
				{
					"indexed": false,
					"internalType": "uint256",
					"name": "Profit",
					"type": "uint256"
				}
			],
			"name": "ArbitrageDataValue",
			"type": "event"
		},
		{
			"anonymous": false,
			"inputs": [
				{
					"indexed": true,
					"internalType": "address",
					"name": "token",
					"type": "address"
				}
			],
			"name": "BaseTokenAdded",
			"type": "event"
		},
		{
			"anonymous": false,
			"inputs": [
				{
					"indexed": true,
					"internalType": "address",
					"name": "token",
					"type": "address"
				}
			],
			"name": "BaseTokenRemoved",
			"type": "event"
		},
		{
			"anonymous": false,
			"inputs": [
				{
					"indexed": true,
					"internalType": "address",
					"name": "previousOwner",
					"type": "address"
				},
				{
					"indexed": true,
					"internalType": "address",
					"name": "newOwner",
					"type": "address"
				}
			],
			"name": "OwnershipTransferred",
			"type": "event"
		},
		{
			"anonymous": false,
			"inputs": [
				{
					"indexed": true,
					"internalType": "address",
					"name": "to",
					"type": "address"
				},
				{
					"indexed": true,
					"internalType": "uint256",
					"name": "value",
					"type": "uint256"
				}
			],
			"name": "Withdrawn",
			"type": "event"
		},
		{
			"inputs": [],
			"name": "BalanceBefore",
			"outputs": [
				{
					"internalType": "uint256",
					"name": "",
					"type": "uint256"
				}
			],
			"stateMutability": "view",
			"type": "function"
		},
		{
			"inputs": [
				{
					"internalType": "address",
					"name": "token",
					"type": "address"
				}
			],
			"name": "addBaseToken",
			"outputs": [],
			"stateMutability": "nonpayable",
			"type": "function"
		},
		{
			"inputs": [
				{
					"internalType": "address",
					"name": "_tokenAddress",
					"type": "address"
				},
				{
					"internalType": "uint256",
					"name": "_amount",
					"type": "uint256"
				}
			],
			"name": "arbitrargeUSDC",
			"outputs": [
				{
					"internalType": "bool",
					"name": "",
					"type": "bool"
				}
			],
			"stateMutability": "nonpayable",
			"type": "function"
		},
		{
			"inputs": [],
			"name": "baseTokenAave",
			"outputs": [
				{
					"internalType": "address",
					"name": "",
					"type": "address"
				}
			],
			"stateMutability": "view",
			"type": "function"
		},
		{
			"inputs": [],
			"name": "baseTokenSmaller",
			"outputs": [
				{
					"internalType": "bool",
					"name": "",
					"type": "bool"
				}
			],
			"stateMutability": "view",
			"type": "function"
		},
		{
			"inputs": [
				{
					"internalType": "address",
					"name": "token",
					"type": "address"
				}
			],
			"name": "baseTokensContains",
			"outputs": [
				{
					"internalType": "bool",
					"name": "",
					"type": "bool"
				}
			],
			"stateMutability": "view",
			"type": "function"
		},
		{
			"inputs": [
				{
					"internalType": "address",
					"name": "pool0",
					"type": "address"
				},
				{
					"internalType": "address",
					"name": "pool1",
					"type": "address"
				},
				{
					"internalType": "uint256",
					"name": "borrowAmount",
					"type": "uint256"
				}
			],
			"name": "flashArbitrageAave",
			"outputs": [
				{
					"internalType": "bool",
					"name": "",
					"type": "bool"
				}
			],
			"stateMutability": "nonpayable",
			"type": "function"
		},
		{
			"inputs": [
				{
					"internalType": "uint256",
					"name": "amountOut",
					"type": "uint256"
				},
				{
					"internalType": "uint256",
					"name": "reserveIn",
					"type": "uint256"
				},
				{
					"internalType": "uint256",
					"name": "reserveOut",
					"type": "uint256"
				}
			],
			"name": "getAmountIn",
			"outputs": [
				{
					"internalType": "uint256",
					"name": "amountIn",
					"type": "uint256"
				}
			],
			"stateMutability": "pure",
			"type": "function"
		},
		{
			"inputs": [
				{
					"internalType": "uint256",
					"name": "amountIn",
					"type": "uint256"
				},
				{
					"internalType": "uint256",
					"name": "reserveIn",
					"type": "uint256"
				},
				{
					"internalType": "uint256",
					"name": "reserveOut",
					"type": "uint256"
				}
			],
			"name": "getAmountOut",
			"outputs": [
				{
					"internalType": "uint256",
					"name": "amountOut",
					"type": "uint256"
				}
			],
			"stateMutability": "pure",
			"type": "function"
		},
		{
			"inputs": [],
			"name": "getBaseTokens",
			"outputs": [
				{
					"internalType": "address[]",
					"name": "tokens",
					"type": "address[]"
				}
			],
			"stateMutability": "view",
			"type": "function"
		},
		{
			"inputs": [
				{
					"internalType": "address",
					"name": "pool0",
					"type": "address"
				},
				{
					"internalType": "address",
					"name": "pool1",
					"type": "address"
				}
			],
			"name": "getProfit",
			"outputs": [
				{
					"internalType": "uint256",
					"name": "profit",
					"type": "uint256"
				},
				{
					"internalType": "address",
					"name": "baseToken",
					"type": "address"
				}
			],
			"stateMutability": "view",
			"type": "function"
		},
		{
			"inputs": [],
			"name": "owner",
			"outputs": [
				{
					"internalType": "address",
					"name": "",
					"type": "address"
				}
			],
			"stateMutability": "view",
			"type": "function"
		},
		{
			"inputs": [
				{
					"internalType": "address",
					"name": "sender",
					"type": "address"
				},
				{
					"internalType": "uint256",
					"name": "amount0",
					"type": "uint256"
				},
				{
					"internalType": "uint256",
					"name": "amount1",
					"type": "uint256"
				},
				{
					"internalType": "bytes",
					"name": "data",
					"type": "bytes"
				}
			],
			"name": "pancakeCall",
			"outputs": [],
			"stateMutability": "nonpayable",
			"type": "function"
		},
		{
			"inputs": [],
			"name": "profitaave",
			"outputs": [
				{
					"internalType": "uint256",
					"name": "",
					"type": "uint256"
				}
			],
			"stateMutability": "view",
			"type": "function"
		},
		{
			"inputs": [
				{
					"internalType": "address",
					"name": "token",
					"type": "address"
				}
			],
			"name": "removeBaseToken",
			"outputs": [],
			"stateMutability": "nonpayable",
			"type": "function"
		},
		{
			"inputs": [],
			"name": "renounceOwnership",
			"outputs": [],
			"stateMutability": "nonpayable",
			"type": "function"
		},
		{
			"inputs": [
				{
					"internalType": "address",
					"name": "newOwner",
					"type": "address"
				}
			],
			"name": "transferOwnership",
			"outputs": [],
			"stateMutability": "nonpayable",
			"type": "function"
		},
		{
			"inputs": [
				{
					"internalType": "address",
					"name": "sender",
					"type": "address"
				},
				{
					"internalType": "uint256",
					"name": "amount0",
					"type": "uint256"
				},
				{
					"internalType": "uint256",
					"name": "amount1",
					"type": "uint256"
				},
				{
					"internalType": "bytes",
					"name": "data",
					"type": "bytes"
				}
			],
			"name": "uniswapV2Call",
			"outputs": [],
			"stateMutability": "nonpayable",
			"type": "function"
		},
		{
			"inputs": [],
			"name": "withdraw",
			"outputs": [],
			"stateMutability": "nonpayable",
			"type": "function"
		}
	]
}