{
  "_format": "hh-sol-artifact-1",
  "contractName": "FlashBot",
  "sourceName": "contracts/FlashBot.sol",
  "abi": [
    {
      "inputs": [
        {
          "internalType": "address",
          "name": "_WETHBase",
          "type": "address"
        }
      ],
      "stateMutability": "nonpayable",
      "type": "constructor"
    },
    {
      "anonymous": false,
      "inputs": [
        {
          "indexed": false,
          "internalType": "address",
          "name": "BaseToken",
          "type": "address"
        },
        {
          "indexed": false,
          "internalType": "address",
          "name": "Pair1",
          "type": "address"
        },
        {
          "indexed": false,
          "internalType": "address",
          "name": "Pair2",
          "type": "address"
        }
      ],
      "name": "ArbitrageDataAddr",
      "type": "event"
    },
    {
      "anonymous": false,
      "inputs": [
        {
          "indexed": false,
          "internalType": "uint256",
          "name": "BorrowedAmount",
          "type": "uint256"
        },
        {
          "indexed": false,
          "internalType": "uint256",
          "name": "Profit",
          "type": "uint256"
        }
      ],
      "name": "ArbitrageDataValue",
      "type": "event"
    },
    {
      "anonymous": false,
      "inputs": [
        {
          "indexed": true,
          "internalType": "address",
          "name": "token",
          "type": "address"
        }
      ],
      "name": "BaseTokenAdded",
      "type": "event"
    },
    {
      "anonymous": false,
      "inputs": [
        {
          "indexed": true,
          "internalType": "address",
          "name": "token",
          "type": "address"
        }
      ],
      "name": "BaseTokenRemoved",
      "type": "event"
    },
    {
      "anonymous": false,
      "inputs": [
        {
          "indexed": true,
          "internalType": "address",
          "name": "previousOwner",
          "type": "address"
        },
        {
          "indexed": true,
          "internalType": "address",
          "name": "newOwner",
          "type": "address"
        }
      ],
      "name": "OwnershipTransferred",
      "type": "event"
    },
    {
      "anonymous": false,
      "inputs": [
        {
          "indexed": true,
          "internalType": "address",
          "name": "to",
          "type": "address"
        },
        {
          "indexed": true,
          "internalType": "uint256",
          "name": "value",
          "type": "uint256"
        }
      ],
      "name": "Withdrawn",
      "type": "event"
    },
    {
      "inputs": [],
      "name": "BalanceBefore",
      "outputs": [
        {
          "internalType": "uint256",
          "name": "",
          "type": "uint256"
        }
      ],
      "stateMutability": "view",
      "type": "function"
    },
    {
      "inputs": [
        {
          "internalType": "address",
          "name": "token",
          "type": "address"
        }
      ],
      "name": "addBaseToken",
      "outputs": [],
      "stateMutability": "nonpayable",
      "type": "function"
    },
    {
      "inputs": [
        {
          "internalType": "address",
          "name": "_tokenAddress",
          "type": "address"
        },
        {
          "internalType": "uint256",
          "name": "_amount",
          "type": "uint256"
        }
      ],
      "name": "arbitrargeUSDC",
      "outputs": [
        {
          "internalType": "bool",
          "name": "",
          "type": "bool"
        }
      ],
      "stateMutability": "nonpayable",
      "type": "function"
    },
    {
      "inputs": [],
      "name": "baseTokenAave",
      "outputs": [
        {
          "internalType": "address",
          "name": "",
          "type": "address"
        }
      ],
      "stateMutability": "view",
      "type": "function"
    },
    {
      "inputs": [],
      "name": "baseTokenSmaller",
      "outputs": [
        {
          "internalType": "bool",
          "name": "",
          "type": "bool"
        }
      ],
      "stateMutability": "view",
      "type": "function"
    },
    {
      "inputs": [
        {
          "internalType": "address",
          "name": "token",
          "type": "address"
        }
      ],
      "name": "baseTokensContains",
      "outputs": [
        {
          "internalType": "bool",
          "name": "",
          "type": "bool"
        }
      ],
      "stateMutability": "view",
      "type": "function"
    },
    {
      "inputs": [
        {
          "internalType": "address",
          "name": "pool0",
          "type": "address"
        },
        {
          "internalType": "address",
          "name": "pool1",
          "type": "address"
        },
        {
          "internalType": "uint256",
          "name": "borrowAmount",
          "type": "uint256"
        }
      ],
      "name": "flashArbitrageAave",
      "outputs": [
        {
          "internalType": "bool",
          "name": "",
          "type": "bool"
        }
      ],
      "stateMutability": "nonpayable",
      "type": "function"
    },
    {
      "inputs": [
        {
          "internalType": "uint256",
          "name": "amountOut",
          "type": "uint256"
        },
        {
          "internalType": "uint256",
          "name": "reserveIn",
          "type": "uint256"
        },
        {
          "internalType": "uint256",
          "name": "reserveOut",
          "type": "uint256"
        }
      ],
      "name": "getAmountIn",
      "outputs": [
        {
          "internalType": "uint256",
          "name": "amountIn",
          "type": "uint256"
        }
      ],
      "stateMutability": "pure",
      "type": "function"
    },
    {
      "inputs": [
        {
          "internalType": "uint256",
          "name": "amountIn",
          "type": "uint256"
        },
        {
          "internalType": "uint256",
          "name": "reserveIn",
          "type": "uint256"
        },
        {
          "internalType": "uint256",
          "name": "reserveOut",
          "type": "uint256"
        }
      ],
      "name": "getAmountOut",
      "outputs": [
        {
          "internalType": "uint256",
          "name": "amountOut",
          "type": "uint256"
        }
      ],
      "stateMutability": "pure",
      "type": "function"
    },
    {
      "inputs": [],
      "name": "getBaseTokens",
      "outputs": [
        {
          "internalType": "address[]",
          "name": "tokens",
          "type": "address[]"
        }
      ],
      "stateMutability": "view",
      "type": "function"
    },
    {
      "inputs": [
        {
          "internalType": "address",
          "name": "pool0",
          "type": "address"
        },
        {
          "internalType": "address",
          "name": "pool1",
          "type": "address"
        }
      ],
      "name": "getProfit",
      "outputs": [
        {
          "internalType": "uint256",
          "name": "profit",
          "type": "uint256"
        },
        {
          "internalType": "address",
          "name": "baseToken",
          "type": "address"
        }
      ],
      "stateMutability": "view",
      "type": "function"
    },
    {
      "inputs": [],
      "name": "owner",
      "outputs": [
        {
          "internalType": "address",
          "name": "",
          "type": "address"
        }
      ],
      "stateMutability": "view",
      "type": "function"
    },
    {
      "inputs": [
        {
          "internalType": "address",
          "name": "sender",
          "type": "address"
        },
        {
          "internalType": "uint256",
          "name": "amount0",
          "type": "uint256"
        },
        {
          "internalType": "uint256",
          "name": "amount1",
          "type": "uint256"
        },
        {
          "internalType": "bytes",
          "name": "data",
          "type": "bytes"
        }
      ],
      "name": "pancakeCall",
      "outputs": [],
      "stateMutability": "nonpayable",
      "type": "function"
    },
    {
      "inputs": [],
      "name": "profitaave",
      "outputs": [
        {
          "internalType": "uint256",
          "name": "",
          "type": "uint256"
        }
      ],
      "stateMutability": "view",
      "type": "function"
    },
    {
      "inputs": [
        {
          "internalType": "address",
          "name": "token",
          "type": "address"
        }
      ],
      "name": "removeBaseToken",
      "outputs": [],
      "stateMutability": "nonpayable",
      "type": "function"
    },
    {
      "inputs": [],
      "name": "renounceOwnership",
      "outputs": [],
      "stateMutability": "nonpayable",
      "type": "function"
    },
    {
      "inputs": [
        {
          "internalType": "address",
          "name": "newOwner",
          "type": "address"
        }
      ],
      "name": "transferOwnership",
      "outputs": [],
      "stateMutability": "nonpayable",
      "type": "function"
    },
    {
      "inputs": [
        {
          "internalType": "address",
          "name": "sender",
          "type": "address"
        },
        {
          "internalType": "uint256",
          "name": "amount0",
          "type": "uint256"
        },
        {
          "internalType": "uint256",
          "name": "amount1",
          "type": "uint256"
        },
        {
          "internalType": "bytes",
          "name": "data",
          "type": "bytes"
        }
      ],
      "name": "uniswapV2Call",
      "outputs": [],
      "stateMutability": "nonpayable",
      "type": "function"
    },
    {
      "inputs": [],
      "name": "withdraw",
      "outputs": [],
      "stateMutability": "nonpayable",
      "type": "function"
    }
  ],
  "bytecode": "0x60a0604052600180546001600160a01b031916811790553480156200002357600080fd5b5060405162002f6f38038062002f6f833981016040819052620000469162000135565b620000513362000073565b6001600160a01b0381166080526200006b600282620000c3565b505062000167565b600080546001600160a01b038381166001600160a01b0319831681178455604051919092169283917f8be0079c531659141344cd1fd0a4f28419497f9722a3daafe3b4186f6b6457e09190a35050565b6000620000da836001600160a01b038416620000e3565b90505b92915050565b60008181526001830160205260408120546200012c57508154600181810184556000848152602080822090930184905584548482528286019093526040902091909155620000dd565b506000620000dd565b6000602082840312156200014857600080fd5b81516001600160a01b03811681146200016057600080fd5b9392505050565b608051612def6200018060003960005050612def6000f3fe608060405234801561001057600080fd5b50600436106101215760003560e01c806384800812116100ad5780639912af74116100715780639912af7414610269578063a863baf91461027c578063bbd1e12214610285578063bed64c2f14610298578063f2fde38b146102ad57600080fd5b8063848008121461021557806385f8c2591461022857806386b6fccb1461023b5780638772fa251461024f5780638da5cb5b1461025857600080fd5b8063536e35e1116100f4578063536e35e11461018c578063715018a6146101b7578063759eee10146101bf5780637e19a0c4146101ef57806383e280d91461020257600080fd5b8063054d50d41461012657806310d1e85c1461014c57806321d09426146101615780633ccfd60b14610184575b600080fd5b610139610134366004612518565b6102c0565b6040519081526020015b60405180910390f35b61015f61015a3660046125a0565b6103a3565b005b61017461016f36600461265b565b61057a565b6040519015158152602001610143565b61015f6105cc565b60065461019f906001600160a01b031681565b6040516001600160a01b039091168152602001610143565b61015f610795565b6101d26101cd366004612678565b6107a9565b604080519283526001600160a01b03909116602083015201610143565b6101746101fd3660046126b1565b610902565b61015f61021036600461265b565b610c9f565b61015f6102233660046125a0565b610cea565b610139610236366004612518565b610dd3565b60065461017490600160a01b900460ff1681565b61013960045481565b6000546001600160a01b031661019f565b6101746102773660046126f2565b610eac565b61013960055481565b61015f61029336600461265b565b610f8e565b6102a06110e1565b604051610143919061271e565b61015f6102bb36600461265b565b61118d565b600080841161032a5760405162461bcd60e51b815260206004820152602b60248201527f556e697377617056324c6962726172793a20494e53554646494349454e545f4960448201526a1394155517d05353d5539560aa1b60648201526084015b60405180910390fd5b60008311801561033a5750600082115b6103565760405162461bcd60e51b81526004016103219061276b565b6000610364856103e5611206565b905060006103728285611206565b9050600061038c83610386886103e8611206565b90611219565b905061039881836127df565b979650505050505050565b6001546001600160a01b031633146103fd5760405162461bcd60e51b815260206004820152601d60248201527f4e6f6e207065726d697373696f6e656420616464726573732063616c6c0000006044820152606401610321565b6001600160a01b038416301461044e5760405162461bcd60e51b8152602060048201526016602482015275139bdd08199c9bdb481d1a1a5cc818dbdb9d1c9858dd60521b6044820152606401610321565b600080841161045d578261045f565b835b90506000828060200190518101906104779190612808565b60208101516060820151919250610498916001600160a01b03169084611225565b60008082604001516104b05760008360c001516104b8565b8260c0015160005b602085015191935091506001600160a01b031663022c0d9f83833060006040519080825280601f01601f1916602001820160405280156104ff576020820181803683370190505b506040518563ffffffff1660e01b815260040161051f9493929190612904565b600060405180830381600087803b15801561053957600080fd5b505af115801561054d573d6000803e3d6000fd5b5050845160a0860151608087015161057094506001600160a01b03169250611225565b5050505050505050565b60006105bb6040518060400160405280601a81526020017f62617365546f6b656e73436f6e7461696e7320616464726573730000000000008152508361127c565b6105c66002836112c1565b92915050565b47801561065657600080546040516001600160a01b039091169183156108fc02918491818181858888f1935050505015801561060c573d6000803e3d6000fd5b50806106206000546001600160a01b031690565b6001600160a01b03167f7084f5476618d8e60b11ef0d7d3f06914655adb8793e28ff7f018d4c76d505d560405160405180910390a35b60005b61066360026112e3565b8110156107915760006106776002836112ed565b6040516370a0823160e01b81523060048201529091506001600160a01b038216906370a0823190602401602060405180830381865afa1580156106be573d6000803e3d6000fd5b505050506040513d601f19601f820116820180604052508101906106e29190612931565b9250821561077e57806001600160a01b031663a9059cbb61070b6000546001600160a01b031690565b6040516001600160e01b031960e084901b1681526001600160a01b039091166004820152602481018690526044016020604051808303816000875af1158015610758573d6000803e3d6000fd5b505050506040513d601f19601f8201168201806040525081019061077c919061294a565b505b508061078981612965565b915050610659565b5050565b61079d6112f9565b6107a76000611353565b565b60008060006107b885856113a3565b505090508061082857846001600160a01b031663d21220a76040518163ffffffff1660e01b8152600401602060405180830381865afa1580156107ff573d6000803e3d6000fd5b505050506040513d601f19601f82011682018060405250810190610823919061297e565b61088a565b846001600160a01b0316630dfe16816040518163ffffffff1660e01b8152600401602060405180830381865afa158015610866573d6000803e3d6000fd5b505050506040513d601f19601f8201168201806040525081019061088a919061297e565b91506000610899868684611718565b9250505060006108a882611975565b905060006108bf8284600001518560200151610dd3565b905060006108d683856060015186604001516102c0565b9050818110156108e957600096506108f6565b6108f3828261299b565b96505b50505050509250929050565b600080600061091186866107a9565b6004829055600680546001600160a01b0319166001600160a01b0383161790556040805160a081018252600080825260208201819052918101829052606081018290526080810191909152919350915061096b87876113a3565b6001600160a01b039081166020858101919091529116835290151560408084018290526006805460ff60a01b1916600160a01b909302929092179091558051608081018252600080825292810183905290810182905260608101919091526109d888888460400151611718565b6001600160a01b03918216608086015291811660608501819052600180546001600160a01b031916909117905583516040516370a0823160e01b81523060048201529293506000929116906370a0823190602401602060405180830381865afa158015610a49573d6000803e3d6000fd5b505050506040513d601f19601f82011682018060405250810190610a6d9190612931565b905080600581905550610aa66040518060400160405280600e81526020016d03137b93937bba0b6b7bab73a1d160951b81525088611ce0565b6000808460400151610aba57886000610abe565b6000895b91509150610b146040518060400160405280600c81526020016b030b6b7bab73a1827baba1d160a51b815250836040518060400160405280600a815260200169185b5bdd5b9d0c53dd5d60b21b81525084611d25565b6000610b298a86600001518760200151610dd3565b9050610b4d604051806060016040528060268152602001612d946026913982611ce0565b6000610b628b876060015188604001516102c0565b9050610b86604051806060016040528060308152602001612d646030913982611ce0565b6040805160e081018252600080825260208201819052918101829052606081018290526080810182905260a0810182905260c08101919091526060808901516001600160a01b0390811683526080808b015182166020808601919091526040808d0151151581870152818d01518416948601949094528b519092169084015260a0830185905260c083018490529051600091610c7c9184910181516001600160a01b0390811682526020808401518216908301526040808401511515908301526060808401518216908301526080808401519091169082015260a0828101519082015260c0918201519181019190915260e00190565b60408051808303601f19019052525060019e9d5050505050505050505050505050565b610ca76112f9565b610cb2600282611d74565b506040516001600160a01b038216907ffa1388d6e7328e9c711a539b0addfc27de8bfb6f5924cce26f80f41023b1525390600090a250565b6001546001600160a01b03163314610d445760405162461bcd60e51b815260206004820152601d60248201527f4e6f6e207065726d697373696f6e656420616464726573732063616c6c0000006044820152606401610321565b6001600160a01b0384163014610d955760405162461bcd60e51b8152602060048201526016602482015275139bdd08199c9bdb481d1a1a5cc818dbdb9d1c9858dd60521b6044820152606401610321565b61044e6040518060400160405280601b81526020017f6869692069276d2063616c6c6564206279206c6f616e20706169720000000000815250611d89565b6000808411610e395760405162461bcd60e51b815260206004820152602c60248201527f556e697377617056324c6962726172793a20494e53554646494349454e545f4f60448201526b155514155517d05353d5539560a21b6064820152608401610321565b600083118015610e495750600082115b610e655760405162461bcd60e51b81526004016103219061276b565b6000610e7d6103e8610e778688611206565b90611206565b90506000610e916103e5610e778689611dcc565b9050610ea2600161038683856127df565b9695505050505050565b600080610eba600a846127df565b9050610ef26040518060400160405280601481526020017330b93134ba3930b3b2b22fb0b6b7bab73a1e9e9f60611b81525082611ce0565b836001600160a01b03811663a9059cbb610f146000546001600160a01b031690565b6040516001600160e01b031960e084901b1681526001600160a01b039091166004820152602481018590526044016020604051808303816000875af1158015610f61573d6000803e3d6000fd5b505050506040513d601f19601f82011682018060405250810190610f85919061294a565b95945050505050565b610f966112f9565b6040516370a0823160e01b81523060048201526000906001600160a01b038316906370a0823190602401602060405180830381865afa158015610fdd573d6000803e3d6000fd5b505050506040513d601f19601f820116820180604052508101906110019190612931565b9050801561109d57816001600160a01b031663a9059cbb61102a6000546001600160a01b031690565b6040516001600160e01b031960e084901b1681526001600160a01b039091166004820152602481018490526044016020604051808303816000875af1158015611077573d6000803e3d6000fd5b505050506040513d601f19601f8201168201806040525081019061109b919061294a565b505b6110a8600283611dd8565b506040516001600160a01b038316907fdc23a849435922f20a9732eb85192a9d0c1cb34725ebe6d7de0be10212ba02fb90600090a25050565b606060006110ef60026112e3565b90508067ffffffffffffffff81111561110a5761110a612559565b604051908082528060200260200182016040528015611133578160200160208202803683370190505b50915060005b818110156111885761114c6002826112ed565b83828151811061115e5761115e6129ae565b6001600160a01b03909216602092830291909101909101528061118081612965565b915050611139565b505090565b6111956112f9565b6001600160a01b0381166111fa5760405162461bcd60e51b815260206004820152602660248201527f4f776e61626c653a206e6577206f776e657220697320746865207a65726f206160448201526564647265737360d01b6064820152608401610321565b61120381611353565b50565b600061121282846129c4565b9392505050565b600061121282846129db565b604080516001600160a01b038416602482015260448082018490528251808303909101815260649091019091526020810180516001600160e01b031663a9059cbb60e01b179052611277908490611ded565b505050565b61079182826040516024016112929291906129ee565b60408051601f198184030181529190526020810180516001600160e01b031663319af33360e01b179052611ec2565b6001600160a01b03811660009081526001830160205260408120541515611212565b60006105c6825490565b60006112128383611ecb565b6000546001600160a01b031633146107a75760405162461bcd60e51b815260206004820181905260248201527f4f776e61626c653a2063616c6c6572206973206e6f7420746865206f776e65726044820152606401610321565b600080546001600160a01b038381166001600160a01b0319831681178455604051919092169283917f8be0079c531659141344cd1fd0a4f28419497f9722a3daafe3b4186f6b6457e09190a35050565b6000806000836001600160a01b0316856001600160a01b0316036113fd5760405162461bcd60e51b815260206004820152601160248201527053616d652070616972206164647265737360781b6044820152606401610321565b600080866001600160a01b0316630dfe16816040518163ffffffff1660e01b8152600401602060405180830381865afa15801561143e573d6000803e3d6000fd5b505050506040513d601f19601f82011682018060405250810190611462919061297e565b876001600160a01b031663d21220a76040518163ffffffff1660e01b8152600401602060405180830381865afa1580156114a0573d6000803e3d6000fd5b505050506040513d601f19601f820116820180604052508101906114c4919061297e565b91509150600080876001600160a01b0316630dfe16816040518163ffffffff1660e01b8152600401602060405180830381865afa158015611509573d6000803e3d6000fd5b505050506040513d601f19601f8201168201806040525081019061152d919061297e565b886001600160a01b031663d21220a76040518163ffffffff1660e01b8152600401602060405180830381865afa15801561156b573d6000803e3d6000fd5b505050506040513d601f19601f8201168201806040525081019061158f919061297e565b91509150826001600160a01b0316846001600160a01b03161080156115c55750806001600160a01b0316826001600160a01b0316105b6116115760405162461bcd60e51b815260206004820152601d60248201527f4e6f6e207374616e6461726420756e697377617020414d4d20706169720000006044820152606401610321565b816001600160a01b0316846001600160a01b03161480156116435750806001600160a01b0316836001600160a01b0316145b61168f5760405162461bcd60e51b815260206004820152601760248201527f526571756972652073616d6520746f6b656e20706169720000000000000000006044820152606401610321565b6116988461057a565b806116a757506116a78361057a565b6116eb5760405162461bcd60e51b81526020600482015260156024820152742737903130b9b2903a37b5b2b71034b7103830b4b960591b6044820152606401610321565b6116f48461057a565b6117015760008385611706565b600184845b919b909a509098509650505050505050565b6000806117466040518060800160405280600081526020016000815260200160008152602001600081525090565b600080876001600160a01b0316630902f1ac6040518163ffffffff1660e01b8152600401606060405180830381865afa158015611787573d6000803e3d6000fd5b505050506040513d601f19601f820116820180604052508101906117ab9190612a2f565b506001600160701b031691506001600160701b03169150600080886001600160a01b0316630902f1ac6040518163ffffffff1660e01b8152600401606060405180830381865afa158015611803573d6000803e3d6000fd5b505050506040513d601f19601f820116820180604052508101906118279190612a2f565b506001600160701b031691506001600160701b031691506000808961186b576118598661185387611ef5565b90611f2a565b6118668561185386611ef5565b611885565b6118788561185388611ef5565b6118858461185387611ef5565b90925090506118948282611f5b565b1561190f5760408051808201909152601f81527f6865726520707269636530206973206c657373207468656e207072696365310060208201526118e0906118db8484611f5b565b611f6f565b8b98508a9750896118f457848684866118f9565b858585855b60608b015260408a015260208901528752611966565b61193b6040518060400160405280600b81526020016a68657265696e20656c736560a81b815250611d89565b8a98508b97508961194f5782848688611954565b838387875b60608b015260408a0152602089015287525b50505050505093509350939050565b6000808260200151836000015110611991578260200151611994565b82515b9050600083606001518460400151106119b15783606001516119b7565b83604001515b905060008183106119c857816119ca565b825b9050600069d3c21bcecceda10000008211156119f0575068056bc75e2d63100000611b07565b69152d02c7e14af6800000821115611a115750678ac7230489e80000611b07565b69021e19e0c9bab2400000821115611a325750670de0b6b3a7640000611b07565b683635c9adc5dea00000821115611a52575067016345785d8a0000611b07565b68056bc75e2d63100000821115611a715750662386f26fc10000611b07565b678ac7230489e80000821115611a8f575066038d7ea4c68000611b07565b670de0b6b3a7640000821115611aac5750655af3107a4000611b07565b67016345785d8a0000821115611ac957506509184e72a000611b07565b662386f26fc10000821115611ae4575064e8d4a51000611b07565b66038d7ea4c68000821115611aff575064174876e800611b07565b506402540be4005b611b346040518060400160405280600b81526020016a191919191919191919191960aa1b81525082611ce0565b600080600080848a60000151611b4a91906127df565b858b60400151611b5a91906127df565b868c60200151611b6a91906127df565b878d60600151611b7a91906127df565b935093509350935060008184611b909190612a7f565b611b9a8487612a7f565b611ba49190612aaf565b90506000611bb28587612acf565b83611bbe866002612a7f565b611bc89190612a7f565b611bd29190612a7f565b90506000611be08587612a7f565b611bea8589612a7f565b611bf49190612aaf565b611bfe8587612a7f565b611c089190612a7f565b9050600080611c18858585611fb4565b91509150600082138015611c2b57508682125b8015611c3657508582125b80611c565750600081138015611c4b57508681125b8015611c5657508581125b611c965760405162461bcd60e51b81526020600482015260116024820152702bb937b7339034b7383aba1037b93232b960791b6044820152606401610321565b600082138015611ca557508682125b8015611cb057508582125b611cc357611cbe8a826129c4565b611ccd565b611ccd8a836129c4565b9f9e505050505050505050505050505050565b6107918282604051602401611cf6929190612af7565b60408051601f198184030181529190526020810180516001600160e01b0316632d839cb360e21b179052611ec2565b611d6e84848484604051602401611d3f9493929190612b19565b60408051601f198184030181529190526020810180516001600160e01b031663c67ea9d160e01b179052611ec2565b50505050565b6000611212836001600160a01b038416612093565b61120381604051602401611d9d9190612b56565b60408051601f198184030181529190526020810180516001600160e01b031663104c13eb60e21b179052611ec2565b6000611212828461299b565b6000611212836001600160a01b0384166120e2565b6000611e42826040518060400160405280602081526020017f5361666545524332303a206c6f772d6c6576656c2063616c6c206661696c6564815250856001600160a01b03166121dc9092919063ffffffff16565b9050805160001480611e63575080806020019051810190611e63919061294a565b6112775760405162461bcd60e51b815260206004820152602a60248201527f5361666545524332303a204552433230206f7065726174696f6e20646964206e6044820152691bdd081cdd58d8d9595960b21b6064820152608401610321565b611203816121f3565b6000826000018281548110611ee257611ee26129ae565b9060005260206000200154905092915050565b604080516020810190915260008152604080516020810190915280611f2284670de0b6b3a7640000612214565b905292915050565b604080516020810190915260008152604080516020810190915283518190611f529085612296565b90529392505050565b6000611f6783836122d8565b159392505050565b6107918282604051602401611f85929190612b69565b60408051601f198184030181529190526020810180516001600160e01b031663c3b5563560e01b179052611ec2565b6000808083611fc4876004612a7f565b611fce9190612a7f565b611fd9600287612cc2565b611fe39190612aaf565b9050600081136120265760405162461bcd60e51b815260206004820152600e60248201526d21b7b6b83632bc10373ab6b132b960911b6044820152606401610321565b60006120318261230a565b905061203e876002612a7f565b8161204888612cd1565b6120529190612acf565b61205c9190612ced565b9350612069876002612a7f565b8161207388612cd1565b61207d9190612aaf565b6120879190612ced565b92505050935093915050565b60008181526001830160205260408120546120da575081546001818101845560008481526020808220909301849055845484825282860190935260409020919091556105c6565b5060006105c6565b600081815260018301602052604081205480156121cb57600061210660018361299b565b855490915060009061211a9060019061299b565b905081811461217f57600086600001828154811061213a5761213a6129ae565b906000526020600020015490508087600001848154811061215d5761215d6129ae565b6000918252602080832090910192909255918252600188019052604090208390555b855486908061219057612190612d1b565b6001900381819060005260206000200160009055905585600101600086815260200190815260200160002060009055600193505050506105c6565b60009150506105c6565b5092915050565b60606121eb848460008561237c565b949350505050565b60006a636f6e736f6c652e6c6f679050600080835160208501845afa505050565b600082600003612226575060006105c6565b600061223283856129c4565b90508261223f85836127df565b146112125760405162461bcd60e51b815260206004820152602160248201527f536166654d6174683a206d756c7469706c69636174696f6e206f766572666c6f6044820152607760f81b6064820152608401610321565b600061121283836040518060400160405280601a81526020017f536166654d6174683a206469766973696f6e206279207a65726f00000000000081525061244c565b8051825160009190036122ed575060016105c6565b81518351116122fd576000612300565b60025b60ff169392505050565b60006001821161231c5761231c612d31565b600061232b83620f42406129c4565b91508190508060005b600261234085846127df565b61234a90866129db565b61235491906127df565b90506103e8612363828661299b565b1061237057809350612334565b610f856103e8856127df565b6060824710156123dd5760405162461bcd60e51b815260206004820152602660248201527f416464726573733a20696e73756666696369656e742062616c616e636520666f6044820152651c8818d85b1b60d21b6064820152608401610321565b600080866001600160a01b031685876040516123f99190612d47565b60006040518083038185875af1925050503d8060008114612436576040519150601f19603f3d011682016040523d82523d6000602084013e61243b565b606091505b50915091506103988783838761247a565b6000818361246d5760405162461bcd60e51b81526004016103219190612b56565b506000610f8584866127df565b606083156124e95782516000036124e2576001600160a01b0385163b6124e25760405162461bcd60e51b815260206004820152601d60248201527f416464726573733a2063616c6c20746f206e6f6e2d636f6e74726163740000006044820152606401610321565b50816121eb565b6121eb83838151156124fe5781518083602001fd5b8060405162461bcd60e51b81526004016103219190612b56565b60008060006060848603121561252d57600080fd5b505081359360208301359350604090920135919050565b6001600160a01b038116811461120357600080fd5b634e487b7160e01b600052604160045260246000fd5b604051601f8201601f1916810167ffffffffffffffff8111828210171561259857612598612559565b604052919050565b600080600080608085870312156125b657600080fd5b84356125c181612544565b9350602085810135935060408601359250606086013567ffffffffffffffff808211156125ed57600080fd5b818801915088601f83011261260157600080fd5b81358181111561261357612613612559565b612625601f8201601f1916850161256f565b9150808252898482850101111561263b57600080fd5b808484018584013760008482840101525080935050505092959194509250565b60006020828403121561266d57600080fd5b813561121281612544565b6000806040838503121561268b57600080fd5b823561269681612544565b915060208301356126a681612544565b809150509250929050565b6000806000606084860312156126c657600080fd5b83356126d181612544565b925060208401356126e181612544565b929592945050506040919091013590565b6000806040838503121561270557600080fd5b823561271081612544565b946020939093013593505050565b6020808252825182820181905260009190848201906040850190845b8181101561275f5783516001600160a01b03168352928401929184019160010161273a565b50909695505050505050565b60208082526028908201527f556e697377617056324c6962726172793a20494e53554646494349454e545f4c604082015267495155494449545960c01b606082015260800190565b634e487b7160e01b600052601260045260246000fd5b634e487b7160e01b600052601160045260246000fd5b6000826127ee576127ee6127b3565b500490565b8051801515811461280357600080fd5b919050565b600060e0828403121561281a57600080fd5b60405160e0810181811067ffffffffffffffff8211171561283d5761283d612559565b604052825161284b81612544565b8152602083015161285b81612544565b602082015261286c604084016127f3565b6040820152606083015161287f81612544565b6060820152608083015161289281612544565b608082015260a0838101519082015260c0928301519281019290925250919050565b60005b838110156128cf5781810151838201526020016128b7565b50506000910152565b600081518084526128f08160208601602086016128b4565b601f01601f19169290920160200192915050565b84815283602082015260018060a01b0383166040820152608060608201526000610ea260808301846128d8565b60006020828403121561294357600080fd5b5051919050565b60006020828403121561295c57600080fd5b611212826127f3565b600060018201612977576129776127c9565b5060010190565b60006020828403121561299057600080fd5b815161121281612544565b818103818111156105c6576105c66127c9565b634e487b7160e01b600052603260045260246000fd5b80820281158282048414176105c6576105c66127c9565b808201808211156105c6576105c66127c9565b604081526000612a0160408301856128d8565b905060018060a01b03831660208301529392505050565b80516001600160701b038116811461280357600080fd5b600080600060608486031215612a4457600080fd5b612a4d84612a18565b9250612a5b60208501612a18565b9150604084015163ffffffff81168114612a7457600080fd5b809150509250925092565b80820260008212600160ff1b84141615612a9b57612a9b6127c9565b81810583148215176105c6576105c66127c9565b81810360008312801583831316838312821617156121d5576121d56127c9565b8082018281126000831280158216821582161715612aef57612aef6127c9565b505092915050565b604081526000612b0a60408301856128d8565b90508260208301529392505050565b608081526000612b2c60808301876128d8565b8560208401528281036040840152612b4481866128d8565b91505082606083015295945050505050565b60208152600061121260208301846128d8565b604081526000612b7c60408301856128d8565b905082151560208301529392505050565b80825b6001808611612b9f5750612bd2565b6001600160ff1b03829004821115612bb957612bb96127c9565b80861615612bc657918102915b9490941c938002612b90565b935093915050565b6000828015612bf05760018114612bfa57612c03565b60019150506105c6565b829150506105c6565b5081612c11575060006105c6565b50600160008213808214612c2a578015612c4957612c63565b6001600160ff1b03839004831115612c4457612c446127c9565b612c63565b6001600160ff1b03839005831215612c6357612c636127c9565b5080831615612c6f5750805b612c7f8360011c83840283612b8d565b600082136001600160ff1b0382900483111615612c9e57612c9e6127c9565b60008212600160ff1b82900583121615612cba57612cba6127c9565b029392505050565b600061121260ff841683612bda565b6000600160ff1b8201612ce657612ce66127c9565b5060000390565b600082612cfc57612cfc6127b3565b600160ff1b821460001984141615612d1657612d166127c9565b500590565b634e487b7160e01b600052603160045260246000fd5b634e487b7160e01b600052600160045260246000fd5b60008251612d598184602087016128b4565b919091019291505056fe73656c6c20626f72726f7765642071756f746520746f6b656e206f6e206869676865722070726963653d3d3d3d3e3e20626f72726f772071756f746520746f6b656e2066726f6d20636865617020706f6f6c3d3d3e20a26469706673582212202419699412cc16fe3057cbcb99640221399a679136548c07922e41597f6cdd6664736f6c63430008130033",
  "linkReferences": {},
  "deployedLinkReferences": {}
}