{
  "_format": "hh-sol-artifact-1",
  "contractName": "DelegationAwareAToken",
  "sourceName": "contracts/contractsAave/protocol/tokenization/DelegationAwareAToken.sol",
  "abi": [
    {
      "inputs": [
        {
          "internalType": "contract IPool",
          "name": "pool",
          "type": "address"
        }
      ],
      "stateMutability": "nonpayable",
      "type": "constructor"
    },
    {
      "anonymous": false,
      "inputs": [
        {
          "indexed": true,
          "internalType": "address",
          "name": "owner",
          "type": "address"
        },
        {
          "indexed": true,
          "internalType": "address",
          "name": "spender",
          "type": "address"
        },
        {
          "indexed": false,
          "internalType": "uint256",
          "name": "value",
          "type": "uint256"
        }
      ],
      "name": "Approval",
      "type": "event"
    },
    {
      "anonymous": false,
      "inputs": [
        {
          "indexed": true,
          "internalType": "address",
          "name": "from",
          "type": "address"
        },
        {
          "indexed": true,
          "internalType": "address",
          "name": "to",
          "type": "address"
        },
        {
          "indexed": false,
          "internalType": "uint256",
          "name": "value",
          "type": "uint256"
        },
        {
          "indexed": false,
          "internalType": "uint256",
          "name": "index",
          "type": "uint256"
        }
      ],
      "name": "BalanceTransfer",
      "type": "event"
    },
    {
      "anonymous": false,
      "inputs": [
        {
          "indexed": true,
          "internalType": "address",
          "name": "from",
          "type": "address"
        },
        {
          "indexed": true,
          "internalType": "address",
          "name": "target",
          "type": "address"
        },
        {
          "indexed": false,
          "internalType": "uint256",
          "name": "value",
          "type": "uint256"
        },
        {
          "indexed": false,
          "internalType": "uint256",
          "name": "balanceIncrease",
          "type": "uint256"
        },
        {
          "indexed": false,
          "internalType": "uint256",
          "name": "index",
          "type": "uint256"
        }
      ],
      "name": "Burn",
      "type": "event"
    },
    {
      "anonymous": false,
      "inputs": [
        {
          "indexed": true,
          "internalType": "address",
          "name": "delegatee",
          "type": "address"
        }
      ],
      "name": "DelegateUnderlyingTo",
      "type": "event"
    },
    {
      "anonymous": false,
      "inputs": [
        {
          "indexed": true,
          "internalType": "address",
          "name": "underlyingAsset",
          "type": "address"
        },
        {
          "indexed": true,
          "internalType": "address",
          "name": "pool",
          "type": "address"
        },
        {
          "indexed": false,
          "internalType": "address",
          "name": "treasury",
          "type": "address"
        },
        {
          "indexed": false,
          "internalType": "address",
          "name": "incentivesController",
          "type": "address"
        },
        {
          "indexed": false,
          "internalType": "uint8",
          "name": "aTokenDecimals",
          "type": "uint8"
        },
        {
          "indexed": false,
          "internalType": "string",
          "name": "aTokenName",
          "type": "string"
        },
        {
          "indexed": false,
          "internalType": "string",
          "name": "aTokenSymbol",
          "type": "string"
        },
        {
          "indexed": false,
          "internalType": "bytes",
          "name": "params",
          "type": "bytes"
        }
      ],
      "name": "Initialized",
      "type": "event"
    },
    {
      "anonymous": false,
      "inputs": [
        {
          "indexed": true,
          "internalType": "address",
          "name": "caller",
          "type": "address"
        },
        {
          "indexed": true,
          "internalType": "address",
          "name": "onBehalfOf",
          "type": "address"
        },
        {
          "indexed": false,
          "internalType": "uint256",
          "name": "value",
          "type": "uint256"
        },
        {
          "indexed": false,
          "internalType": "uint256",
          "name": "balanceIncrease",
          "type": "uint256"
        },
        {
          "indexed": false,
          "internalType": "uint256",
          "name": "index",
          "type": "uint256"
        }
      ],
      "name": "Mint",
      "type": "event"
    },
    {
      "anonymous": false,
      "inputs": [
        {
          "indexed": true,
          "internalType": "address",
          "name": "from",
          "type": "address"
        },
        {
          "indexed": true,
          "internalType": "address",
          "name": "to",
          "type": "address"
        },
        {
          "indexed": false,
          "internalType": "uint256",
          "name": "value",
          "type": "uint256"
        }
      ],
      "name": "Transfer",
      "type": "event"
    },
    {
      "inputs": [],
      "name": "ATOKEN_REVISION",
      "outputs": [
        {
          "internalType": "uint256",
          "name": "",
          "type": "uint256"
        }
      ],
      "stateMutability": "view",
      "type": "function"
    },
    {
      "inputs": [],
      "name": "DOMAIN_SEPARATOR",
      "outputs": [
        {
          "internalType": "bytes32",
          "name": "",
          "type": "bytes32"
        }
      ],
      "stateMutability": "view",
      "type": "function"
    },
    {
      "inputs": [],
      "name": "EIP712_REVISION",
      "outputs": [
        {
          "internalType": "bytes",
          "name": "",
          "type": "bytes"
        }
      ],
      "stateMutability": "view",
      "type": "function"
    },
    {
      "inputs": [],
      "name": "PERMIT_TYPEHASH",
      "outputs": [
        {
          "internalType": "bytes32",
          "name": "",
          "type": "bytes32"
        }
      ],
      "stateMutability": "view",
      "type": "function"
    },
    {
      "inputs": [],
      "name": "POOL",
      "outputs": [
        {
          "internalType": "contract IPool",
          "name": "",
          "type": "address"
        }
      ],
      "stateMutability": "view",
      "type": "function"
    },
    {
      "inputs": [],
      "name": "RESERVE_TREASURY_ADDRESS",
      "outputs": [
        {
          "internalType": "address",
          "name": "",
          "type": "address"
        }
      ],
      "stateMutability": "view",
      "type": "function"
    },
    {
      "inputs": [],
      "name": "UNDERLYING_ASSET_ADDRESS",
      "outputs": [
        {
          "internalType": "address",
          "name": "",
          "type": "address"
        }
      ],
      "stateMutability": "view",
      "type": "function"
    },
    {
      "inputs": [
        {
          "internalType": "address",
          "name": "owner",
          "type": "address"
        },
        {
          "internalType": "address",
          "name": "spender",
          "type": "address"
        }
      ],
      "name": "allowance",
      "outputs": [
        {
          "internalType": "uint256",
          "name": "",
          "type": "uint256"
        }
      ],
      "stateMutability": "view",
      "type": "function"
    },
    {
      "inputs": [
        {
          "internalType": "address",
          "name": "spender",
          "type": "address"
        },
        {
          "internalType": "uint256",
          "name": "amount",
          "type": "uint256"
        }
      ],
      "name": "approve",
      "outputs": [
        {
          "internalType": "bool",
          "name": "",
          "type": "bool"
        }
      ],
      "stateMutability": "nonpayable",
      "type": "function"
    },
    {
      "inputs": [
        {
          "internalType": "address",
          "name": "user",
          "type": "address"
        }
      ],
      "name": "balanceOf",
      "outputs": [
        {
          "internalType": "uint256",
          "name": "",
          "type": "uint256"
        }
      ],
      "stateMutability": "view",
      "type": "function"
    },
    {
      "inputs": [
        {
          "internalType": "address",
          "name": "from",
          "type": "address"
        },
        {
          "internalType": "address",
          "name": "receiverOfUnderlying",
          "type": "address"
        },
        {
          "internalType": "uint256",
          "name": "amount",
          "type": "uint256"
        },
        {
          "internalType": "uint256",
          "name": "index",
          "type": "uint256"
        }
      ],
      "name": "burn",
      "outputs": [],
      "stateMutability": "nonpayable",
      "type": "function"
    },
    {
      "inputs": [],
      "name": "decimals",
      "outputs": [
        {
          "internalType": "uint8",
          "name": "",
          "type": "uint8"
        }
      ],
      "stateMutability": "view",
      "type": "function"
    },
    {
      "inputs": [
        {
          "internalType": "address",
          "name": "spender",
          "type": "address"
        },
        {
          "internalType": "uint256",
          "name": "subtractedValue",
          "type": "uint256"
        }
      ],
      "name": "decreaseAllowance",
      "outputs": [
        {
          "internalType": "bool",
          "name": "",
          "type": "bool"
        }
      ],
      "stateMutability": "nonpayable",
      "type": "function"
    },
    {
      "inputs": [
        {
          "internalType": "address",
          "name": "delegatee",
          "type": "address"
        }
      ],
      "name": "delegateUnderlyingTo",
      "outputs": [],
      "stateMutability": "nonpayable",
      "type": "function"
    },
    {
      "inputs": [],
      "name": "getIncentivesController",
      "outputs": [
        {
          "internalType": "contract IAaveIncentivesController",
          "name": "",
          "type": "address"
        }
      ],
      "stateMutability": "view",
      "type": "function"
    },
    {
      "inputs": [
        {
          "internalType": "address",
          "name": "user",
          "type": "address"
        }
      ],
      "name": "getPreviousIndex",
      "outputs": [
        {
          "internalType": "uint256",
          "name": "",
          "type": "uint256"
        }
      ],
      "stateMutability": "view",
      "type": "function"
    },
    {
      "inputs": [
        {
          "internalType": "address",
          "name": "user",
          "type": "address"
        }
      ],
      "name": "getScaledUserBalanceAndSupply",
      "outputs": [
        {
          "internalType": "uint256",
          "name": "",
          "type": "uint256"
        },
        {
          "internalType": "uint256",
          "name": "",
          "type": "uint256"
        }
      ],
      "stateMutability": "view",
      "type": "function"
    },
    {
      "inputs": [
        {
          "internalType": "address",
          "name": "user",
          "type": "address"
        },
        {
          "internalType": "address",
          "name": "onBehalfOf",
          "type": "address"
        },
        {
          "internalType": "uint256",
          "name": "amount",
          "type": "uint256"
        }
      ],
      "name": "handleRepayment",
      "outputs": [],
      "stateMutability": "nonpayable",
      "type": "function"
    },
    {
      "inputs": [
        {
          "internalType": "address",
          "name": "spender",
          "type": "address"
        },
        {
          "internalType": "uint256",
          "name": "addedValue",
          "type": "uint256"
        }
      ],
      "name": "increaseAllowance",
      "outputs": [
        {
          "internalType": "bool",
          "name": "",
          "type": "bool"
        }
      ],
      "stateMutability": "nonpayable",
      "type": "function"
    },
    {
      "inputs": [
        {
          "internalType": "contract IPool",
          "name": "initializingPool",
          "type": "address"
        },
        {
          "internalType": "address",
          "name": "treasury",
          "type": "address"
        },
        {
          "internalType": "address",
          "name": "underlyingAsset",
          "type": "address"
        },
        {
          "internalType": "contract IAaveIncentivesController",
          "name": "incentivesController",
          "type": "address"
        },
        {
          "internalType": "uint8",
          "name": "aTokenDecimals",
          "type": "uint8"
        },
        {
          "internalType": "string",
          "name": "aTokenName",
          "type": "string"
        },
        {
          "internalType": "string",
          "name": "aTokenSymbol",
          "type": "string"
        },
        {
          "internalType": "bytes",
          "name": "params",
          "type": "bytes"
        }
      ],
      "name": "initialize",
      "outputs": [],
      "stateMutability": "nonpayable",
      "type": "function"
    },
    {
      "inputs": [
        {
          "internalType": "address",
          "name": "caller",
          "type": "address"
        },
        {
          "internalType": "address",
          "name": "onBehalfOf",
          "type": "address"
        },
        {
          "internalType": "uint256",
          "name": "amount",
          "type": "uint256"
        },
        {
          "internalType": "uint256",
          "name": "index",
          "type": "uint256"
        }
      ],
      "name": "mint",
      "outputs": [
        {
          "internalType": "bool",
          "name": "",
          "type": "bool"
        }
      ],
      "stateMutability": "nonpayable",
      "type": "function"
    },
    {
      "inputs": [
        {
          "internalType": "uint256",
          "name": "amount",
          "type": "uint256"
        },
        {
          "internalType": "uint256",
          "name": "index",
          "type": "uint256"
        }
      ],
      "name": "mintToTreasury",
      "outputs": [],
      "stateMutability": "nonpayable",
      "type": "function"
    },
    {
      "inputs": [],
      "name": "name",
      "outputs": [
        {
          "internalType": "string",
          "name": "",
          "type": "string"
        }
      ],
      "stateMutability": "view",
      "type": "function"
    },
    {
      "inputs": [
        {
          "internalType": "address",
          "name": "owner",
          "type": "address"
        }
      ],
      "name": "nonces",
      "outputs": [
        {
          "internalType": "uint256",
          "name": "",
          "type": "uint256"
        }
      ],
      "stateMutability": "view",
      "type": "function"
    },
    {
      "inputs": [
        {
          "internalType": "address",
          "name": "owner",
          "type": "address"
        },
        {
          "internalType": "address",
          "name": "spender",
          "type": "address"
        },
        {
          "internalType": "uint256",
          "name": "value",
          "type": "uint256"
        },
        {
          "internalType": "uint256",
          "name": "deadline",
          "type": "uint256"
        },
        {
          "internalType": "uint8",
          "name": "v",
          "type": "uint8"
        },
        {
          "internalType": "bytes32",
          "name": "r",
          "type": "bytes32"
        },
        {
          "internalType": "bytes32",
          "name": "s",
          "type": "bytes32"
        }
      ],
      "name": "permit",
      "outputs": [],
      "stateMutability": "nonpayable",
      "type": "function"
    },
    {
      "inputs": [
        {
          "internalType": "address",
          "name": "token",
          "type": "address"
        },
        {
          "internalType": "address",
          "name": "to",
          "type": "address"
        },
        {
          "internalType": "uint256",
          "name": "amount",
          "type": "uint256"
        }
      ],
      "name": "rescueTokens",
      "outputs": [],
      "stateMutability": "nonpayable",
      "type": "function"
    },
    {
      "inputs": [
        {
          "internalType": "address",
          "name": "user",
          "type": "address"
        }
      ],
      "name": "scaledBalanceOf",
      "outputs": [
        {
          "internalType": "uint256",
          "name": "",
          "type": "uint256"
        }
      ],
      "stateMutability": "view",
      "type": "function"
    },
    {
      "inputs": [],
      "name": "scaledTotalSupply",
      "outputs": [
        {
          "internalType": "uint256",
          "name": "",
          "type": "uint256"
        }
      ],
      "stateMutability": "view",
      "type": "function"
    },
    {
      "inputs": [
        {
          "internalType": "contract IAaveIncentivesController",
          "name": "controller",
          "type": "address"
        }
      ],
      "name": "setIncentivesController",
      "outputs": [],
      "stateMutability": "nonpayable",
      "type": "function"
    },
    {
      "inputs": [],
      "name": "symbol",
      "outputs": [
        {
          "internalType": "string",
          "name": "",
          "type": "string"
        }
      ],
      "stateMutability": "view",
      "type": "function"
    },
    {
      "inputs": [],
      "name": "totalSupply",
      "outputs": [
        {
          "internalType": "uint256",
          "name": "",
          "type": "uint256"
        }
      ],
      "stateMutability": "view",
      "type": "function"
    },
    {
      "inputs": [
        {
          "internalType": "address",
          "name": "recipient",
          "type": "address"
        },
        {
          "internalType": "uint256",
          "name": "amount",
          "type": "uint256"
        }
      ],
      "name": "transfer",
      "outputs": [
        {
          "internalType": "bool",
          "name": "",
          "type": "bool"
        }
      ],
      "stateMutability": "nonpayable",
      "type": "function"
    },
    {
      "inputs": [
        {
          "internalType": "address",
          "name": "sender",
          "type": "address"
        },
        {
          "internalType": "address",
          "name": "recipient",
          "type": "address"
        },
        {
          "internalType": "uint256",
          "name": "amount",
          "type": "uint256"
        }
      ],
      "name": "transferFrom",
      "outputs": [
        {
          "internalType": "bool",
          "name": "",
          "type": "bool"
        }
      ],
      "stateMutability": "nonpayable",
      "type": "function"
    },
    {
      "inputs": [
        {
          "internalType": "address",
          "name": "from",
          "type": "address"
        },
        {
          "internalType": "address",
          "name": "to",
          "type": "address"
        },
        {
          "internalType": "uint256",
          "name": "value",
          "type": "uint256"
        }
      ],
      "name": "transferOnLiquidation",
      "outputs": [],
      "stateMutability": "nonpayable",
      "type": "function"
    },
    {
      "inputs": [
        {
          "internalType": "address",
          "name": "target",
          "type": "address"
        },
        {
          "internalType": "uint256",
          "name": "amount",
          "type": "uint256"
        }
      ],
      "name": "transferUnderlyingTo",
      "outputs": [],
      "stateMutability": "nonpayable",
      "type": "function"
    }
  ],
  "bytecode": "0x60e0604052600080553480156200001557600080fd5b5060405162002d3e38038062002d3e83398101604081905262000038916200021f565b80806040518060400160405280600b81526020016a105513d2d15397d253541360aa1b8152506040518060400160405280600b81526020016a105513d2d15397d253541360aa1b81525060008383838383838383836001600160a01b0316630542975c6040518163ffffffff1660e01b8152600401602060405180830381865afa158015620000cb573d6000803e3d6000fd5b505050506040513d601f19601f82011682018060405250810190620000f191906200021f565b6001600160a01b031660805282516200011290603790602086019062000160565b5081516200012890603890602085019062000160565b506039805460ff191660ff9290921691909117905550506001600160a01b031660a05250504660c05250620002839650505050505050565b8280546200016e9062000246565b90600052602060002090601f016020900481019282620001925760008555620001dd565b82601f10620001ad57805160ff1916838001178555620001dd565b82800160010185558215620001dd579182015b82811115620001dd578251825591602001919060010190620001c0565b50620001eb929150620001ef565b5090565b5b80821115620001eb5760008155600101620001f0565b6001600160a01b03811681146200021c57600080fd5b50565b6000602082840312156200023257600080fd5b81516200023f8162000206565b9392505050565b600181811c908216806200025b57607f821691505b602082108114156200027d57634e487b7160e01b600052602260045260246000fd5b50919050565b60805160a05160c051612a226200031c60003960006117520152600081816103800152818161065301528181610771015281816108c701528181610bfc01528181610c7a01528181610cef01528181610d8701528181610de001528181610ec6015281816112f8015281816114df01528181611be80152611ccf0152600081816109df01528181610f2601526113760152612a226000f3fe608060405234801561001057600080fd5b50600436106102115760003560e01c806375d2641311610125578063b1bf962d116100ad578063d7020d0a1161007c578063d7020d0a146104a7578063dd62ed3e146104ba578063e0753986146104f3578063e655dbd81461052c578063f866c3191461053f57600080fd5b8063b1bf962d14610466578063b3f1c93d1461046e578063cea9d26f14610481578063d505accf1461049457600080fd5b806395d89b41116100f457806395d89b4114610416578063a457c2d71461041e578063a9059cbb14610431578063ae16733514610444578063b16a19de1461045557600080fd5b806375d26413146103ba57806378160376146103d05780637df5bd3b146103f05780637ecebe001461040357600080fd5b80632f114618116101a85780633950935111610177578063395093511461032f5780634efecaa5146103425780636fd976761461035557806370a08231146103685780637535d2461461037b57600080fd5b80632f114618146102d857806330adf81f146102eb578063313ce567146103125780633644e5151461032757600080fd5b806318160ddd116101e457806318160ddd14610295578063183fb4131461029d5780631da24f3e146102b257806323b872dd146102c557600080fd5b806306fdde0314610216578063095ea7b3146102345780630afbcdc9146102575780630bd7ad3b1461027f575b600080fd5b61021e610552565b60405161022b919061249d565b60405180910390f35b6102476102423660046124df565b6105e4565b604051901515815260200161022b565b61026a61026536600461250b565b6105fa565b6040805192835260208301919091520161022b565b610287600181565b60405190815260200161022b565b610287610612565b6102b06102ab366004612582565b6106cb565b005b6102876102c036600461250b565b610960565b6102476102d3366004612676565b610971565b6102b06102e636600461250b565b6109db565b6102877f6e71edae12b1b97f4d1f60370fef10105fa2faae0126114a169c64845d6126c981565b60395460405160ff909116815260200161022b565b610287610b9a565b61024761033d3660046124df565b610ba9565b6102b06103503660046124df565b610be0565b6102b0610363366004612676565b610c5e565b61028761037636600461250b565b610cc6565b6103a27f000000000000000000000000000000000000000000000000000000000000000081565b6040516001600160a01b03909116815260200161022b565b60395461010090046001600160a01b03166103a2565b61021e604051806040016040528060018152602001603160f81b81525081565b6102b06103fe3660046126b7565b610d6b565b61028761041136600461250b565b610e15565b61021e610e33565b61024761042c3660046124df565b610e42565b61024761043f3660046124df565b610e79565b603c546001600160a01b03166103a2565b603d546001600160a01b03166103a2565b610287610e9c565b61024761047c3660046126d9565b610ea7565b6102b061048f366004612676565b610f22565b6102b06104a236600461271f565b6110a8565b6102b06104b53660046126d9565b6112dc565b6102876104c836600461278d565b6001600160a01b03918216600090815260356020908152604080832093909416825291909152205490565b61028761050136600461250b565b6001600160a01b0316600090815260346020526040902054600160801b90046001600160801b031690565b6102b061053a36600461250b565b611372565b6102b061054d366004612676565b6114c3565b606060378054610561906127c6565b80601f016020809104026020016040519081016040528092919081815260200182805461058d906127c6565b80156105da5780601f106105af576101008083540402835291602001916105da565b820191906000526020600020905b8154815290600101906020018083116105bd57829003601f168201915b5050505050905090565b60006105f1338484611533565b50600192915050565b60008061060683611594565b60365491509150915091565b60008061061e60365490565b90508061062d57600091505090565b603d5460405163d15e005360e01b81526001600160a01b0391821660048201526106c5917f0000000000000000000000000000000000000000000000000000000000000000169063d15e005390602401602060405180830381865afa15801561069a573d6000803e3d6000fd5b505050506040513d601f19601f820116820180604052508101906106be91906127fb565b82906115b8565b91505090565b6001805460ff16806106dc5750303b155b806106e8575060005481115b6107505760405162461bcd60e51b815260206004820152602e60248201527f436f6e747261637420696e7374616e63652068617320616c726561647920626560448201526d195b881a5b9a5d1a585b1a5e995960921b60648201526084015b60405180910390fd5b60015460ff1615801561076f576001805460ff19168117905560008290555b7f00000000000000000000000000000000000000000000000000000000000000006001600160a01b03168d6001600160a01b03161460405180604001604052806002815260200161383760f01b815250906107dd5760405162461bcd60e51b8152600401610747919061249d565b5061081d88888080601f0160208091040260200160405190810160405280939291908181526020018383808284376000920191909152506115fc92505050565b61085c86868080601f01602080910402602001604051908101604052809392919081815260200183838082843760009201919091525061160f92505050565b6039805460ff191660ff8b16179055603c80546001600160a01b03808f166001600160a01b031992831617909255603d80548e8416921691909117905560398054918c1661010002610100600160a81b03199092169190911790556108bf611622565b603b819055507f00000000000000000000000000000000000000000000000000000000000000006001600160a01b03168b6001600160a01b03167fb19e051f8af41150ccccb3fc2c2d8d15f4a4cf434f32a559ba75fe73d6eea20b8e8d8d8d8d8d8d8d8d6040516109389998979695949392919061283d565b60405180910390a38015610951576001805460ff191690555b50505050505050505050505050565b600061096b82611594565b92915050565b60008061097d836116cb565b6001600160a01b0386166000908152603560209081526040808320338085529252909120549192506109c5918791906109c0906001600160801b038616906128c1565b611533565b6109d0858583611738565b506001949350505050565b60007f00000000000000000000000000000000000000000000000000000000000000006001600160a01b031663707cd7166040518163ffffffff1660e01b8152600401602060405180830381865afa158015610a3b573d6000803e3d6000fd5b505050506040513d601f19601f82011682018060405250810190610a5f91906128d8565b604051637be53ca160e01b81523360048201529091506001600160a01b03821690637be53ca190602401602060405180830381865afa158015610aa6573d6000803e3d6000fd5b505050506040513d601f19601f82011682018060405250810190610aca91906128f5565b604051806040016040528060018152602001603160f81b81525090610b025760405162461bcd60e51b8152600401610747919061249d565b50603d546040516317066a5760e21b81526001600160a01b03848116600483015290911690635c19a95c90602401600060405180830381600087803b158015610b4a57600080fd5b505af1158015610b5e573d6000803e3d6000fd5b50506040516001600160a01b03851692507fc7a5523bfd09724fd56950e708e523ad6a61ab165b8e997a31d42357a77f0e0f9150600090a25050565b6000610ba461174e565b905090565b3360008181526035602090815260408083206001600160a01b038716845290915281205490916105f19185906109c0908690612917565b604080518082019091526002815261323360f01b6020820152337f00000000000000000000000000000000000000000000000000000000000000006001600160a01b031614610c425760405162461bcd60e51b8152600401610747919061249d565b50603d54610c5a906001600160a01b03168383611787565b5050565b604080518082019091526002815261323360f01b6020820152337f00000000000000000000000000000000000000000000000000000000000000006001600160a01b031614610cc05760405162461bcd60e51b8152600401610747919061249d565b50505050565b603d5460405163d15e005360e01b81526001600160a01b03918216600482015260009161096b917f00000000000000000000000000000000000000000000000000000000000000009091169063d15e005390602401602060405180830381865afa158015610d38573d6000803e3d6000fd5b505050506040513d601f19601f82011682018060405250810190610d5c91906127fb565b610d6584611594565b906115b8565b604080518082019091526002815261323360f01b6020820152337f00000000000000000000000000000000000000000000000000000000000000006001600160a01b031614610dcd5760405162461bcd60e51b8152600401610747919061249d565b5081610dd7575050565b603c54610e10907f0000000000000000000000000000000000000000000000000000000000000000906001600160a01b03168484611812565b505050565b6001600160a01b0381166000908152603a602052604081205461096b565b606060388054610561906127c6565b3360008181526035602090815260408083206001600160a01b038716845290915281205490916105f19185906109c09086906128c1565b600080610e85836116cb565b9050610e92338583611738565b5060019392505050565b6000610ba460365490565b604080518082019091526002815261323360f01b6020820152600090337f00000000000000000000000000000000000000000000000000000000000000006001600160a01b031614610f0c5760405162461bcd60e51b8152600401610747919061249d565b50610f1985858585611812565b95945050505050565b60007f00000000000000000000000000000000000000000000000000000000000000006001600160a01b031663707cd7166040518163ffffffff1660e01b8152600401602060405180830381865afa158015610f82573d6000803e3d6000fd5b505050506040513d601f19601f82011682018060405250810190610fa691906128d8565b604051637be53ca160e01b81523360048201529091506001600160a01b03821690637be53ca190602401602060405180830381865afa158015610fed573d6000803e3d6000fd5b505050506040513d601f19601f8201168201806040525081019061101191906128f5565b604051806040016040528060018152602001603160f81b815250906110495760405162461bcd60e51b8152600401610747919061249d565b50603d54604080518082019091526002815261383560f01b6020820152906001600160a01b03868116911614156110935760405162461bcd60e51b8152600401610747919061249d565b50610cc06001600160a01b0385168484611787565b604080518082019091526002815261373760f01b60208201526001600160a01b0388166110e85760405162461bcd60e51b8152600401610747919061249d565b50834211156040518060400160405280600281526020016106e760f31b815250906111265760405162461bcd60e51b8152600401610747919061249d565b506001600160a01b0387166000908152603a602052604081205490611149610b9a565b604080517f6e71edae12b1b97f4d1f60370fef10105fa2faae0126114a169c64845d6126c960208201526001600160a01b03808d1692820192909252908a1660608201526080810189905260a0810184905260c0810188905260e001604051602081830303815290604052805190602001206040516020016111e292919061190160f01b81526002810192909252602282015260420190565b60408051601f1981840301815282825280516020918201206000845290830180835281905260ff8816918301919091526060820186905260808201859052915060019060a0016020604051602081039080840390855afa15801561124a573d6000803e3d6000fd5b505050602060405103516001600160a01b0316896001600160a01b03161460405180604001604052806002815260200161373960f01b815250906112a15760405162461bcd60e51b8152600401610747919061249d565b506112ad826001612917565b6001600160a01b038a166000908152603a60205260409020556112d1898989611533565b505050505050505050565b604080518082019091526002815261323360f01b6020820152337f00000000000000000000000000000000000000000000000000000000000000006001600160a01b03161461133e5760405162461bcd60e51b8152600401610747919061249d565b5061134b84848484611997565b6001600160a01b0383163014610cc057603d54610cc0906001600160a01b03168484611787565b60007f00000000000000000000000000000000000000000000000000000000000000006001600160a01b031663707cd7166040518163ffffffff1660e01b8152600401602060405180830381865afa1580156113d2573d6000803e3d6000fd5b505050506040513d601f19601f820116820180604052508101906113f691906128d8565b604051637be53ca160e01b81523360048201529091506001600160a01b03821690637be53ca190602401602060405180830381865afa15801561143d573d6000803e3d6000fd5b505050506040513d601f19601f8201168201806040525081019061146191906128f5565b604051806040016040528060018152602001603160f81b815250906114995760405162461bcd60e51b8152600401610747919061249d565b5050603980546001600160a01b0390921661010002610100600160a81b0319909216919091179055565b604080518082019091526002815261323360f01b6020820152337f00000000000000000000000000000000000000000000000000000000000000006001600160a01b0316146115255760405162461bcd60e51b8152600401610747919061249d565b50610e108383836000611bc0565b6001600160a01b0383811660008181526035602090815260408083209487168084529482529182902085905590518481527f8c5be1e5ebec7d5bd14f71427d1e84f3dd0314c0f7b2291e5b200ac8c7c3b925910160405180910390a3505050565b6001600160a01b03166000908152603460205260409020546001600160801b031690565b600081156b019d971e4fe8401e7400000019839004841115176115da57600080fd5b506b033b2e3c9fd0803ce800000091026b019d971e4fe8401e74000000010490565b8051610c5a9060379060208401906123c0565b8051610c5a9060389060208401906123c0565b60007f8b73c3c69bb8fe3d512ecc4cf759cc79239f7b179b0ffacaa9a75d522b39400f61164d611d79565b805160209182012060408051808201825260018152603160f81b90840152805192830193909352918101919091527fc89efdaa54c0f20c7adf612882df0950f5a951637e0307cdcb4c672f298b8bc660608201524660808201523060a082015260c00160405160208183030381529060405280519060200120905090565b60006001600160801b038211156117345760405162461bcd60e51b815260206004820152602760248201527f53616665436173743a2076616c756520646f65736e27742066697420696e20316044820152663238206269747360c81b6064820152608401610747565b5090565b610e108383836001600160801b03166001611bc0565b60007f000000000000000000000000000000000000000000000000000000000000000046141561177f5750603b5490565b610ba4611622565b60405163a9059cbb60e01b8082526001600160a01b0384166004830152602482018390529060008060448382895af16117c4573d6000803e3d6000fd5b506117ce84611d83565b610cc05760405162461bcd60e51b815260206004820152601560248201527423a83b191d103330b4b632b2103a3930b739b332b960591b6044820152606401610747565b60008061181f8484611e2c565b6040805180820190915260028152610c8d60f21b6020820152909150816118595760405162461bcd60e51b8152600401610747919061249d565b50600061186586611594565b6001600160a01b0387166000908152603460205260408120549192509061189d908390600160801b90046001600160801b03166115b8565b6118a783876115b8565b6118b191906128c1565b90506118bc856116cb565b6001600160a01b038816600090815260346020526040902080546001600160801b03928316600160801b029216919091179055611901876118fc856116cb565b611e6b565b600061190d8288612917565b9050876001600160a01b031660006001600160a01b03166000805160206129cd8339815191528360405161194391815260200190565b60405180910390a360408051828152602081018490529081018790526001600160a01b03808a1691908b16906000805160206129ad8339815191529060600160405180910390a35050159695505050505050565b60006119a38383611e2c565b604080518082019091526002815261323560f01b6020820152909150816119dd5760405162461bcd60e51b8152600401610747919061249d565b5060006119e986611594565b6001600160a01b03871660009081526034602052604081205491925090611a21908390600160801b90046001600160801b03166115b8565b611a2b83866115b8565b611a3591906128c1565b9050611a40846116cb565b6001600160a01b038816600090815260346020526040902080546001600160801b03928316600160801b029216919091179055611a8587611a80856116cb565b611f5c565b84811115611b19576000611a9986836128c1565b9050876001600160a01b031660006001600160a01b03166000805160206129cd83398151915283604051611acf91815260200190565b60405180910390a360408051828152602081018490529081018690526001600160a01b0389169081906000805160206129ad8339815191529060600160405180910390a350611bb7565b6000611b2582876128c1565b905060006001600160a01b0316886001600160a01b03166000805160206129cd83398151915283604051611b5b91815260200190565b60405180910390a360408051828152602081018490529081018690526001600160a01b0380891691908a16907f4cf25bc1d991c17529c25213d3cc0cda295eeaad5f13f361969b12ea48015f90906060015b60405180910390a3505b50505050505050565b603d5460405163d15e005360e01b81526001600160a01b0391821660048201819052916000917f00000000000000000000000000000000000000000000000000000000000000009091169063d15e005390602401602060405180830381865afa158015611c31573d6000803e3d6000fd5b505050506040513d601f19601f82011682018060405250810190611c5591906127fb565b90506000611c6682610d6589611594565b90506000611c7783610d6589611594565b9050611c8588888886611fa1565b8415611d2c5760405163d5ed393360e01b81526001600160a01b03858116600483015289811660248301528881166044830152606482018890526084820184905260a482018390527f0000000000000000000000000000000000000000000000000000000000000000169063d5ed39339060c401600060405180830381600087803b158015611d1357600080fd5b505af1158015611d27573d6000803e3d6000fd5b505050505b6001600160a01b038088169089167f4beccb90f994c31aced7a23b5611020728a23d8ec5cddd1a3e9d97b96fda8666611d658987611e2c565b604080519182526020820188905201611bad565b6060610ba4610552565b6000611da9565b62461bcd60e51b60005260206004528060245250806044525060646000fd5b3d8015611de85760208114611e1957611de37f475076323a206d616c666f726d6564207472616e7366657220726573756c7400601f611d8a565b611e26565b823b611e1057611e107311d41d8c8e881b9bdd08184818dbdb9d1c9858dd60621b6014611d8a565b60019150611e26565b3d6000803e600051151591505b50919050565b600081156b033b2e3c9fd0803ce800000060028404190484111715611e5057600080fd5b506b033b2e3c9fd0803ce80000009190910260028204010490565b603654611e816001600160801b03831682612917565b6036556001600160a01b0383166000908152603460205260409020546001600160801b0316611eb0838261292f565b6001600160a01b03858116600090815260346020526040902080546001600160801b0319166001600160801b0393909316929092179091556039546101009004168015611f55576040516318c39f1760e11b81526001600160a01b038216906331873e2e90611f279088908790879060040161295a565b600060405180830381600087803b158015611f4157600080fd5b505af11580156112d1573d6000803e3d6000fd5b5050505050565b603654611f726001600160801b038316826128c1565b6036556001600160a01b0383166000908152603460205260409020546001600160801b0316611eb08382612984565b6000611fac85611594565b6001600160a01b03861660009081526034602052604081205491925090611fe4908390600160801b90046001600160801b03166115b8565b611fee83856115b8565b611ff891906128c1565b9050600061200586611594565b6001600160a01b0387166000908152603460205260408120549192509061203d908390600160801b90046001600160801b03166115b8565b61204783876115b8565b61205191906128c1565b905061205c856116cb565b6001600160a01b038916600090815260346020526040902080546001600160801b03928316600160801b029216919091179055612098856116cb565b6001600160a01b038816600090815260346020526040902080546001600160801b03928316600160801b0292169190911790556120e788886120e26120dd8a8a611e2c565b6116cb565b61221d565b8215612158576040518381526001600160a01b038916906000906000805160206129cd8339815191529060200160405180910390a3604080518481526020810185905280820187905290516001600160a01b038a169133916000805160206129ad8339815191529181900360600190a35b866001600160a01b0316886001600160a01b03161415801561217a5750600081115b156121ea576040518181526001600160a01b038816906000906000805160206129cd8339815191529060200160405180910390a3604080518281526020810183905280820187905290516001600160a01b0389169133916000805160206129ad8339815191529181900360600190a35b866001600160a01b0316886001600160a01b03166000805160206129cd83398151915288604051611bad91815260200190565b6001600160a01b0383166000908152603460205260409020546001600160801b03166122498282612984565b6001600160a01b0385811660009081526034602052604080822080546001600160801b0319166001600160801b03958616179055918616815220541661228f838261292f565b6001600160a01b03858116600090815260346020526040902080546001600160801b0319166001600160801b03939093169290921790915560395461010090041680156123b8576036546040516318c39f1760e11b81526001600160a01b038316906331873e2e90612309908a908590899060040161295a565b600060405180830381600087803b15801561232357600080fd5b505af1158015612337573d6000803e3d6000fd5b50505050856001600160a01b0316876001600160a01b031614611bb7576040516318c39f1760e11b81526001600160a01b038316906331873e2e906123849089908590889060040161295a565b600060405180830381600087803b15801561239e57600080fd5b505af11580156123b2573d6000803e3d6000fd5b50505050505b505050505050565b8280546123cc906127c6565b90600052602060002090601f0160209004810192826123ee5760008555612434565b82601f1061240757805160ff1916838001178555612434565b82800160010185558215612434579182015b82811115612434578251825591602001919060010190612419565b506117349291505b80821115611734576000815560010161243c565b6000815180845260005b818110156124765760208185018101518683018201520161245a565b81811115612488576000602083870101525b50601f01601f19169290920160200192915050565b6020815260006124b06020830184612450565b9392505050565b6001600160a01b03811681146124cc57600080fd5b50565b80356124da816124b7565b919050565b600080604083850312156124f257600080fd5b82356124fd816124b7565b946020939093013593505050565b60006020828403121561251d57600080fd5b81356124b0816124b7565b803560ff811681146124da57600080fd5b60008083601f84011261254b57600080fd5b50813567ffffffffffffffff81111561256357600080fd5b60208301915083602082850101111561257b57600080fd5b9250929050565b60008060008060008060008060008060006101008c8e0312156125a457600080fd5b6125ad8c6124cf565b9a506125bb60208d016124cf565b99506125c960408d016124cf565b98506125d760608d016124cf565b97506125e560808d01612528565b965067ffffffffffffffff8060a08e0135111561260157600080fd5b6126118e60a08f01358f01612539565b909750955060c08d013581101561262757600080fd5b6126378e60c08f01358f01612539565b909550935060e08d013581101561264d57600080fd5b5061265e8d60e08e01358e01612539565b81935080925050509295989b509295989b9093969950565b60008060006060848603121561268b57600080fd5b8335612696816124b7565b925060208401356126a6816124b7565b929592945050506040919091013590565b600080604083850312156126ca57600080fd5b50508035926020909101359150565b600080600080608085870312156126ef57600080fd5b84356126fa816124b7565b9350602085013561270a816124b7565b93969395505050506040820135916060013590565b600080600080600080600060e0888a03121561273a57600080fd5b8735612745816124b7565b96506020880135612755816124b7565b9550604088013594506060880135935061277160808901612528565b925060a0880135915060c0880135905092959891949750929550565b600080604083850312156127a057600080fd5b82356127ab816124b7565b915060208301356127bb816124b7565b809150509250929050565b600181811c908216806127da57607f821691505b60208210811415611e2657634e487b7160e01b600052602260045260246000fd5b60006020828403121561280d57600080fd5b5051919050565b81835281816020850137506000828201602090810191909152601f909101601f19169091010190565b6001600160a01b038a811682528916602082015260ff8816604082015260c060608201819052600090612873908301888a612814565b8281036080840152612886818789612814565b905082810360a084015261289b818587612814565b9c9b505050505050505050505050565b634e487b7160e01b600052601160045260246000fd5b6000828210156128d3576128d36128ab565b500390565b6000602082840312156128ea57600080fd5b81516124b0816124b7565b60006020828403121561290757600080fd5b815180151581146124b057600080fd5b6000821982111561292a5761292a6128ab565b500190565b60006001600160801b03808316818516808303821115612951576129516128ab565b01949350505050565b6001600160a01b0393909316835260208301919091526001600160801b0316604082015260600190565b60006001600160801b03838116908316818110156129a4576129a46128ab565b03939250505056fe458f5fa412d0f69b08dd84872b0215675cc67bc1d5b6fd93300a1c3878b86196ddf252ad1be2c89b69c2b068fc378daa952ba7f163c4a11628f55a4df523b3efa2646970667358221220f3f0ed38ce038c1da86fc915911dbb99bde32eba28f13eb33ebd385f339d4d2264736f6c634300080a0033",
  "linkReferences": {},
  "deployedLinkReferences": {}
}