{
  "_format": "hh-sol-artifact-1",
  "contractName": "ReservesSetupHelper",
  "sourceName": "contracts/contractsAave/deployments/ReservesSetupHelper.sol",
  "abi": [
    {
      "anonymous": false,
      "inputs": [
        {
          "indexed": true,
          "internalType": "address",
          "name": "previousOwner",
          "type": "address"
        },
        {
          "indexed": true,
          "internalType": "address",
          "name": "newOwner",
          "type": "address"
        }
      ],
      "name": "OwnershipTransferred",
      "type": "event"
    },
    {
      "inputs": [
        {
          "internalType": "contract PoolConfigurator",
          "name": "configurator",
          "type": "address"
        },
        {
          "components": [
            {
              "internalType": "address",
              "name": "asset",
              "type": "address"
            },
            {
              "internalType": "uint256",
              "name": "baseLTV",
              "type": "uint256"
            },
            {
              "internalType": "uint256",
              "name": "liquidationThreshold",
              "type": "uint256"
            },
            {
              "internalType": "uint256",
              "name": "liquidationBonus",
              "type": "uint256"
            },
            {
              "internalType": "uint256",
              "name": "reserveFactor",
              "type": "uint256"
            },
            {
              "internalType": "uint256",
              "name": "borrowCap",
              "type": "uint256"
            },
            {
              "internalType": "uint256",
              "name": "supplyCap",
              "type": "uint256"
            },
            {
              "internalType": "bool",
              "name": "stableBorrowingEnabled",
              "type": "bool"
            },
            {
              "internalType": "bool",
              "name": "borrowingEnabled",
              "type": "bool"
            },
            {
              "internalType": "bool",
              "name": "flashLoanEnabled",
              "type": "bool"
            }
          ],
          "internalType": "struct ReservesSetupHelper.ConfigureReserveInput[]",
          "name": "inputParams",
          "type": "tuple[]"
        }
      ],
      "name": "configureReserves",
      "outputs": [],
      "stateMutability": "nonpayable",
      "type": "function"
    },
    {
      "inputs": [],
      "name": "owner",
      "outputs": [
        {
          "internalType": "address",
          "name": "",
          "type": "address"
        }
      ],
      "stateMutability": "view",
      "type": "function"
    },
    {
      "inputs": [],
      "name": "renounceOwnership",
      "outputs": [],
      "stateMutability": "nonpayable",
      "type": "function"
    },
    {
      "inputs": [
        {
          "internalType": "address",
          "name": "newOwner",
          "type": "address"
        }
      ],
      "name": "transferOwnership",
      "outputs": [],
      "stateMutability": "nonpayable",
      "type": "function"
    }
  ],
  "bytecode": "0x608060405234801561001057600080fd5b50600080546001600160a01b031916339081178255604051909182917f8be0079c531659141344cd1fd0a4f28419497f9722a3daafe3b4186f6b6457e0908290a35061095d806100616000396000f3fe608060405234801561001057600080fd5b506004361061004c5760003560e01c806323bb109314610051578063715018a6146100665780638da5cb5b1461006e578063f2fde38b1461008d575b600080fd5b61006461005f3660046107e4565b6100a0565b005b61006461066e565b600054604080516001600160a01b039092168252519081900360200190f35b61006461009b36600461086d565b6106e2565b6000546001600160a01b031633146100d35760405162461bcd60e51b81526004016100ca90610891565b60405180910390fd5b60005b8181101561066857836001600160a01b0316637c4e560b8484848181106100ff576100ff6108c6565b61011692602061014090920201908101915061086d565b858585818110610128576101286108c6565b9050610140020160200135868686818110610145576101456108c6565b9050610140020160400135878787818110610162576101626108c6565b6040516001600160e01b031960e089901b1681526001600160a01b039096166004870152602486019490945250604484019190915260606101409092020101356064820152608401600060405180830381600087803b1580156101c457600080fd5b505af11580156101d8573d6000803e3d6000fd5b505050508282828181106101ee576101ee6108c6565b9050610140020161010001602081019061020891906108dc565b1561042157836001600160a01b031663682cf26484848481811061022e5761022e6108c6565b61024592602061014090920201908101915061086d565b6040516001600160e01b031960e084901b1681526001600160a01b03909116600482015260016024820152604401600060405180830381600087803b15801561028d57600080fd5b505af11580156102a1573d6000803e3d6000fd5b50505050836001600160a01b031663d14a09838484848181106102c6576102c66108c6565b6102dd92602061014090920201908101915061086d565b8585858181106102ef576102ef6108c6565b9050610140020160a001356040518363ffffffff1660e01b815260040161032b9291906001600160a01b03929092168252602082015260400190565b600060405180830381600087803b15801561034557600080fd5b505af1158015610359573d6000803e3d6000fd5b50505050836001600160a01b0316638a751a6084848481811061037e5761037e6108c6565b61039592602061014090920201908101915061086d565b8585858181106103a7576103a76108c6565b9050610140020160e00160208101906103c091906108dc565b6040516001600160e01b031960e085901b1681526001600160a01b03909216600483015215156024820152604401600060405180830381600087803b15801561040857600080fd5b505af115801561041c573d6000803e3d6000fd5b505050505b836001600160a01b031663f213ef0e848484818110610442576104426108c6565b61045992602061014090920201908101915061086d565b85858581811061046b5761046b6108c6565b9050610140020161012001602081019061048591906108dc565b6040516001600160e01b031960e085901b1681526001600160a01b03909216600483015215156024820152604401600060405180830381600087803b1580156104cd57600080fd5b505af11580156104e1573d6000803e3d6000fd5b50505050836001600160a01b031663571f03e5848484818110610506576105066108c6565b61051d92602061014090920201908101915061086d565b85858581811061052f5761052f6108c6565b9050610140020160c001356040518363ffffffff1660e01b815260040161056b9291906001600160a01b03929092168252602082015260400190565b600060405180830381600087803b15801561058557600080fd5b505af1158015610599573d6000803e3d6000fd5b50505050836001600160a01b0316634b4e67538484848181106105be576105be6108c6565b6105d592602061014090920201908101915061086d565b8585858181106105e7576105e76108c6565b90506101400201608001356040518363ffffffff1660e01b81526004016106239291906001600160a01b03929092168252602082015260400190565b600060405180830381600087803b15801561063d57600080fd5b505af1158015610651573d6000803e3d6000fd5b505050508080610660906108fe565b9150506100d6565b50505050565b6000546001600160a01b031633146106985760405162461bcd60e51b81526004016100ca90610891565b600080546040516001600160a01b03909116907f8be0079c531659141344cd1fd0a4f28419497f9722a3daafe3b4186f6b6457e0908390a3600080546001600160a01b0319169055565b6000546001600160a01b0316331461070c5760405162461bcd60e51b81526004016100ca90610891565b6001600160a01b0381166107715760405162461bcd60e51b815260206004820152602660248201527f4f776e61626c653a206e6577206f776e657220697320746865207a65726f206160448201526564647265737360d01b60648201526084016100ca565b600080546040516001600160a01b03808516939216917f8be0079c531659141344cd1fd0a4f28419497f9722a3daafe3b4186f6b6457e091a3600080546001600160a01b0319166001600160a01b0392909216919091179055565b6001600160a01b03811681146107e157600080fd5b50565b6000806000604084860312156107f957600080fd5b8335610804816107cc565b9250602084013567ffffffffffffffff8082111561082157600080fd5b818601915086601f83011261083557600080fd5b81358181111561084457600080fd5b8760206101408302850101111561085a57600080fd5b6020830194508093505050509250925092565b60006020828403121561087f57600080fd5b813561088a816107cc565b9392505050565b6020808252818101527f4f776e61626c653a2063616c6c6572206973206e6f7420746865206f776e6572604082015260600190565b634e487b7160e01b600052603260045260246000fd5b6000602082840312156108ee57600080fd5b8135801515811461088a57600080fd5b600060001982141561092057634e487b7160e01b600052601160045260246000fd5b506001019056fea26469706673582212200575ac31c6eda96d7b639fa2b645a5260435c3419afd2492b2ce35abf8bfe8cd64736f6c634300080a0033",
  "linkReferences": {},
  "deployedLinkReferences": {}
}