{
  "_format": "hh-sol-artifact-1",
  "contractName": "MockFlashLoanSimpleReceiver",
  "sourceName": "contracts/contractsAave/mocks/flashloan/MockSimpleFlashLoanReceiver.sol",
  "abi": [
    {
      "inputs": [
        {
          "internalType": "contract IPoolAddressesProvider",
          "name": "provider",
          "type": "address"
        }
      ],
      "stateMutability": "nonpayable",
      "type": "constructor"
    },
    {
      "anonymous": false,
      "inputs": [
        {
          "indexed": false,
          "internalType": "address",
          "name": "asset",
          "type": "address"
        },
        {
          "indexed": false,
          "internalType": "uint256",
          "name": "amount",
          "type": "uint256"
        },
        {
          "indexed": false,
          "internalType": "uint256",
          "name": "premium",
          "type": "uint256"
        }
      ],
      "name": "ExecutedWithFail",
      "type": "event"
    },
    {
      "anonymous": false,
      "inputs": [
        {
          "indexed": false,
          "internalType": "address",
          "name": "asset",
          "type": "address"
        },
        {
          "indexed": false,
          "internalType": "uint256",
          "name": "amount",
          "type": "uint256"
        },
        {
          "indexed": false,
          "internalType": "uint256",
          "name": "premium",
          "type": "uint256"
        }
      ],
      "name": "ExecutedWithSuccess",
      "type": "event"
    },
    {
      "inputs": [],
      "name": "ADDRESSES_PROVIDER",
      "outputs": [
        {
          "internalType": "contract IPoolAddressesProvider",
          "name": "",
          "type": "address"
        }
      ],
      "stateMutability": "view",
      "type": "function"
    },
    {
      "inputs": [],
      "name": "POOL",
      "outputs": [
        {
          "internalType": "contract IPool",
          "name": "",
          "type": "address"
        }
      ],
      "stateMutability": "view",
      "type": "function"
    },
    {
      "inputs": [
        {
          "internalType": "address",
          "name": "asset",
          "type": "address"
        },
        {
          "internalType": "uint256",
          "name": "amount",
          "type": "uint256"
        },
        {
          "internalType": "uint256",
          "name": "premium",
          "type": "uint256"
        },
        {
          "internalType": "address",
          "name": "",
          "type": "address"
        },
        {
          "internalType": "bytes",
          "name": "",
          "type": "bytes"
        }
      ],
      "name": "executeOperation",
      "outputs": [
        {
          "internalType": "bool",
          "name": "",
          "type": "bool"
        }
      ],
      "stateMutability": "nonpayable",
      "type": "function"
    },
    {
      "inputs": [],
      "name": "getAmountToApprove",
      "outputs": [
        {
          "internalType": "uint256",
          "name": "",
          "type": "uint256"
        }
      ],
      "stateMutability": "view",
      "type": "function"
    },
    {
      "inputs": [
        {
          "internalType": "uint256",
          "name": "amountToApprove",
          "type": "uint256"
        }
      ],
      "name": "setAmountToApprove",
      "outputs": [],
      "stateMutability": "nonpayable",
      "type": "function"
    },
    {
      "inputs": [
        {
          "internalType": "bool",
          "name": "fail",
          "type": "bool"
        }
      ],
      "name": "setFailExecutionTransfer",
      "outputs": [],
      "stateMutability": "nonpayable",
      "type": "function"
    },
    {
      "inputs": [
        {
          "internalType": "bool",
          "name": "flag",
          "type": "bool"
        }
      ],
      "name": "setSimulateEOA",
      "outputs": [],
      "stateMutability": "nonpayable",
      "type": "function"
    },
    {
      "inputs": [],
      "name": "simulateEOA",
      "outputs": [
        {
          "internalType": "bool",
          "name": "",
          "type": "bool"
        }
      ],
      "stateMutability": "view",
      "type": "function"
    }
  ],
  "bytecode": "0x60c060405234801561001057600080fd5b5060405161073a38038061073a83398101604081905261002f916100d8565b80806001600160a01b03166080816001600160a01b031681525050806001600160a01b031663026b1d5f6040518163ffffffff1660e01b8152600401602060405180830381865afa158015610088573d6000803e3d6000fd5b505050506040513d601f19601f820116820180604052508101906100ac91906100d8565b6001600160a01b031660a052506100fc9050565b6001600160a01b03811681146100d557600080fd5b50565b6000602082840312156100ea57600080fd5b81516100f5816100c0565b9392505050565b60805160a05161061361012760003960008181610138015261035401526000609201526106136000f3fe608060405234801561001057600080fd5b50600436106100885760003560e01c80635e76bba31161005b5780635e76bba3146101225780637535d24614610133578063bf443f851461015a578063e9a6a25b1461016d57600080fd5b80630542975c1461008d5780631b11d0ff146100d1578063388f70f1146100f45780634444f33114610117575b600080fd5b6100b47f000000000000000000000000000000000000000000000000000000000000000081565b6040516001600160a01b0390911681526020015b60405180910390f35b6100e46100df366004610473565b61018e565b60405190151581526020016100c8565b61011561010236600461056a565b6000805460ff1916911515919091179055565b005b60025460ff166100e4565b6001546040519081526020016100c8565b6100b47f000000000000000000000000000000000000000000000000000000000000000081565b61011561016836600461058e565b600155565b61011561017b36600461056a565b6002805460ff1916911515919091179055565b6000805460ff16156101f157604080516001600160a01b0388168152602081018790529081018590527f816f6a6bc084e1996be1a831afa1af30763d0501b6b43b9e1922a11f347366d79060600160405180910390a15060025460ff1615610422565b6040516370a0823160e01b815230600482015286906001600160a01b038216906370a0823190602401602060405180830381865afa158015610237573d6000803e3d6000fd5b505050506040513d601f19601f8201168201806040525081019061025b91906105a7565b8611156102ae5760405162461bcd60e51b815260206004820181905260248201527f496e76616c69642062616c616e636520666f722074686520636f6e7472616374604482015260640160405180910390fd5b6000600154600014156102ca576102c5878761042b565b6102ce565b6001545b60405163140e25ad60e31b8152600481018890529091506001600160a01b0383169063a0712d68906024016020604051808303816000875af1158015610318573d6000803e3d6000fd5b505050506040513d601f19601f8201168201806040525081019061033c91906105c0565b5060405163095ea7b360e01b81526001600160a01b037f0000000000000000000000000000000000000000000000000000000000000000811660048301526024820183905289169063095ea7b3906044016020604051808303816000875af11580156103ac573d6000803e3d6000fd5b505050506040513d601f19601f820116820180604052508101906103d091906105c0565b50604080516001600160a01b038a168152602081018990529081018790527f7d94e9d0c906b8d7b2b52a581b9e9ba728aa6f8cd8532bd87243d193f47401be9060600160405180910390a16001925050505b95945050505050565b8082018281101561043b57600080fd5b92915050565b80356001600160a01b038116811461045857600080fd5b919050565b634e487b7160e01b600052604160045260246000fd5b600080600080600060a0868803121561048b57600080fd5b61049486610441565b945060208601359350604086013592506104b060608701610441565b9150608086013567ffffffffffffffff808211156104cd57600080fd5b818801915088601f8301126104e157600080fd5b8135818111156104f3576104f361045d565b604051601f8201601f19908116603f0116810190838211818310171561051b5761051b61045d565b816040528281528b602084870101111561053457600080fd5b8260208601602083013760006020848301015280955050505050509295509295909350565b801515811461056757600080fd5b50565b60006020828403121561057c57600080fd5b813561058781610559565b9392505050565b6000602082840312156105a057600080fd5b5035919050565b6000602082840312156105b957600080fd5b5051919050565b6000602082840312156105d257600080fd5b81516105878161055956fea2646970667358221220d86b41ea7418f191a6fd7453fbb9309052ccfc2939d67f35d14be22b8dab2c3064736f6c634300080a0033",
  "linkReferences": {},
  "deployedLinkReferences": {}
}