{
  "_format": "hh-sol-artifact-1",
  "contractName": "LiquidationLogic",
  "sourceName": "contracts/contractsAave/protocol/libraries/logic/LiquidationLogic.sol",
  "abi": [
    {
      "anonymous": false,
      "inputs": [
        {
          "indexed": true,
          "internalType": "address",
          "name": "collateralAsset",
          "type": "address"
        },
        {
          "indexed": true,
          "internalType": "address",
          "name": "debtAsset",
          "type": "address"
        },
        {
          "indexed": true,
          "internalType": "address",
          "name": "user",
          "type": "address"
        },
        {
          "indexed": false,
          "internalType": "uint256",
          "name": "debtToCover",
          "type": "uint256"
        },
        {
          "indexed": false,
          "internalType": "uint256",
          "name": "liquidatedCollateralAmount",
          "type": "uint256"
        },
        {
          "indexed": false,
          "internalType": "address",
          "name": "liquidator",
          "type": "address"
        },
        {
          "indexed": false,
          "internalType": "bool",
          "name": "receiveAToken",
          "type": "bool"
        }
      ],
      "name": "LiquidationCall",
      "type": "event"
    },
    {
      "anonymous": false,
      "inputs": [
        {
          "indexed": true,
          "internalType": "address",
          "name": "reserve",
          "type": "address"
        },
        {
          "indexed": true,
          "internalType": "address",
          "name": "user",
          "type": "address"
        }
      ],
      "name": "ReserveUsedAsCollateralDisabled",
      "type": "event"
    },
    {
      "anonymous": false,
      "inputs": [
        {
          "indexed": true,
          "internalType": "address",
          "name": "reserve",
          "type": "address"
        },
        {
          "indexed": true,
          "internalType": "address",
          "name": "user",
          "type": "address"
        }
      ],
      "name": "ReserveUsedAsCollateralEnabled",
      "type": "event"
    },
    {
      "inputs": [],
      "name": "CLOSE_FACTOR_HF_THRESHOLD",
      "outputs": [
        {
          "internalType": "uint256",
          "name": "",
          "type": "uint256"
        }
      ],
      "stateMutability": "view",
      "type": "function"
    },
    {
      "inputs": [],
      "name": "MAX_LIQUIDATION_CLOSE_FACTOR",
      "outputs": [
        {
          "internalType": "uint256",
          "name": "",
          "type": "uint256"
        }
      ],
      "stateMutability": "view",
      "type": "function"
    }
  ],
  "bytecode": "0x61345361003a600b82828239805160001a60731461002d57634e487b7160e01b600052600060045260246000fd5b30600052607381538281f3fe730000000000000000000000000000000000000000301460806040526004361061004b5760003560e01c806383c1087d14610050578063a18964a514610072578063d246754414610093575b600080fd5b81801561005c57600080fd5b5061007061006b36600461300e565b61009c565b005b610081670d2f13f7789f000081565b60405190815260200160405180910390f35b61008161271081565b6100a4612e56565b6040808301516001600160a01b039081166000908152602089815283822060608701518416835284832060808801519094168352908890529290206100e8826106e6565b61016085018190526100fb9083906108b6565b6101678989886040518060a001604052808660405180602001604052908160008201548152505081526020018a6000015181526020018a608001516001600160a01b031681526020018a60c001516001600160a01b031681526020018a60e0015160ff16815250610910565b5060c08901819052610160890151610186955093508992509050610df1565b8660200187604001886060018381525083815250838152505050506101e7818460405180608001604052808861016001518152602001886040015181526020018860c0015181526020018961010001516001600160a01b0316815250610e77565b6101f2868487611170565b60a08801526001600160a01b03908116610120880152908116610100870152908116610140860181905260808701516040516370a0823160e01b815292166004830152906370a0823190602401602060405180830381865afa15801561025c573d6000803e3d6000fd5b505050506040513d601f19601f8201168201806040525081019061028091906130f9565b808552610160850151610100860151610120870151606088015160a089015160c08b01516102b5968a96959493929091611270565b60e0870152606086018190526080860191909152604085015114156102f15760038201546102f1908290600160a81b900461ffff166000611584565b835160e085015160808601516103079190613128565b141561037357600383015461032a908290600160a81b900461ffff1660006115e4565b84608001516001600160a01b031685604001516001600160a01b03167f44c58d81365b66dd4b1a7f36c25aa97b8c71c361ee4937adc1a00000227db5dd60405160405180910390a35b61037d8585611638565b6101608401516060808701519086015161039c9285929091600061184b565b6103b28989838761016001518860600151611ae2565b8460a00151156103cf576103ca898989868989611c6f565b6103da565b6103da838686611e03565b60e0840151156105975760006103ef84611eb5565b9050600061040a828760e00151611f2090919063ffffffff16565b6101408701516080890151604051630ed1279f60e11b81526001600160a01b039182166004820152929350600092911690631da24f3e90602401602060405180830381865afa158015610461573d6000803e3d6000fd5b505050506040513d601f19601f8201168201806040525081019061048591906130f9565b90508082111561049f576104998184611f5f565b60e08801525b8661014001516001600160a01b031663f866c31989608001518961014001516001600160a01b031663ae1673356040518163ffffffff1660e01b8152600401602060405180830381865afa1580156104fb573d6000803e3d6000fd5b505050506040513d601f19601f8201168201806040525081019061051f9190613140565b8a60e001516040518463ffffffff1660e01b8152600401610561939291906001600160a01b039384168152919092166020820152604081019190915260600190565b600060405180830381600087803b15801561057b57600080fd5b505af115801561058f573d6000803e3d6000fd5b505050505050505b6105c9338561016001516101e00151866060015188606001516001600160a01b0316611fa3909392919063ffffffff16565b6101608401516101e00151608086015160608601516040516337ecbb3b60e11b81523360048201526001600160a01b0392831660248201526044810191909152911690636fd9767690606401600060405180830381600087803b15801561062f57600080fd5b505af1158015610643573d6000803e3d6000fd5b5050505084608001516001600160a01b031685606001516001600160a01b031686604001516001600160a01b03167fe413a321e8681d831f4dbccbca790d2952b56f977908e45be37335533e00528687606001518860800151338b60a001516040516106d3949392919093845260208401929092526001600160a01b031660408301521515606082015260800190565b60405180910390a4505050505050505050565b6106ee612ed7565b6106f6612ed7565b60408051602081018252845481526101c0830181905251901c61ffff166101a082015260018301546001600160801b03808216610100840181905260e084015260028501548082166101408501819052610120850152600160801b928390048216610160850152829004166101808301526004808501546001600160a01b039081166101e085015260058601548116610200850152600686015416610220840181905260038601549290920464ffffffffff166102408401526040805163b1bf962d60e01b8152905163b1bf962d928281019260209291908290030181865afa1580156107e7573d6000803e3d6000fd5b505050506040513d601f19601f8201168201806040525081019061080b91906130f9565b81602001818152508160000181815250508061020001516001600160a01b031663797743386040518163ffffffff1660e01b8152600401608060405180830381865afa15801561085f573d6000803e3d6000fd5b505050506040513d601f19601f82011682018060405250810190610883919061315d565b64ffffffffff166102608501526060840181905260808401829052604084019290925260c083015260a082015292915050565b60038201544264ffffffffff908116600160801b9092041614156108d8575050565b6108e2828261203e565b6108ec828261211e565b50600301805464ffffffffff60801b1916600160801b4264ffffffffff1602179055565b6000806000806000806109268760000151511590565b15610944575060009450849350839250829150600019905081610de4565b6109e66040518061026001604052806000815260200160008152602001600081526020016000815260200160008152602001600081526020016000815260200160008152602001600081526020016000815260200160008152602001600081526020016000815260200160008152602001600081526020016000815260200160006001600160a01b031681526020016000151581526020016000151581525090565b608088015160ff1615610a2b57608088015160ff16600090815260208a9052604090206060890151610a189190612283565b6101808401526101c08301526101a08201525b87602001518160c001511015610d0a5760c08101518851610a4b9161232f565b610a5f5760c0810180516001019052610a2b565b60c0810151600090815260208b905260409020546001600160a01b03166102008201819052610a985760c0810180516001019052610a2b565b6102008101516001600160a01b0316600090815260208c8152604091829020825180830190935280549283905260ff60a884901c81166101e0860152603084901c166060850181905261ffff601085901c811660a08701529093166080850152600a9290920a9083015261018082015115801590610b215750816101e00151896080015160ff16145b610b9f57606089015161020083015160405163b3596f0760e01b81526001600160a01b03918216600482015291169063b3596f0790602401602060405180830381865afa158015610b76573d6000803e3d6000fd5b505050506040513d601f19601f82011682018060405250810190610b9a91906130f9565b610ba6565b8161018001515b825260a082015115801590610bc6575060c08201518951610bc691612382565b15610cb657610be3896040015182846000015185602001516123d1565b6040830181905261010083018051610bfc908390613128565b90525060808901516101e0830151610c179160ff1690612486565b1515610240830152608082015115610c6d57816102400151610c3d578160800151610c44565b816101a001515b8260400151610c5391906131a8565b8261014001818151610c659190613128565b905250610c76565b60016102208301525b816102400151610c8a578160a00151610c91565b816101c001515b8260400151610ca091906131a8565b8261016001818151610cb29190613128565b9052505b60c08201518951610cc691612497565b15610cf957610ce3896040015182846000015185602001516124e4565b8261012001818151610cf59190613128565b9052505b5060c0810180516001019052610a2b565b610100810151610d1b576000610d36565b80610100015181610140015181610d3457610d346131c7565b045b610140820152610100810151610d4d576000610d68565b80610100015181610160015181610d6657610d666131c7565b045b61016082015261012081015115610daa57610da5816101200151610d9f83610160015184610100015161261890919063ffffffff16565b9061263e565b610dae565b6000195b60e0820181905261010082015161012083015161014084015161016085015161022090950151929a509098509650919450925090505b9499939850945094509450565b6000806000806000610e07876080015189612675565b90925090506000610e188284613128565b90506000670d2f13f7789f00008811610e3357612710610e37565b6113885b90506000610e458383612618565b90506000818b6020015111610e5e578a60200151610e60565b815b949850929650929450505050505b93509350939050565b6040805160a081018252600080825260208201819052918101829052606081018290526080810191909152604080516020810190915283548152610eba90612766565b151560208601525050501515815281516101c00151610ed890612766565b151560608601525050501515604082015280518015610ef8575080604001515b60405180604001604052806002815260200161323760f01b81525090610f3a5760405162461bcd60e51b8152600401610f3191906131dd565b60405180910390fd5b508060200151158015610f4f57508060600151155b60405180604001604052806002815260200161323960f01b81525090610f885760405162461bcd60e51b8152600401610f3191906131dd565b5060608201516001600160a01b03161580610fae5750670d2f13f7789f00008260400151105b8061101a575081606001516001600160a01b0316637a5d20ea6040518163ffffffff1660e01b8152600401602060405180830381865afa158015610ff6573d6000803e3d6000fd5b505050506040513d601f19601f8201168201806040525081019061101a9190613232565b60405180604001604052806002815260200161353960f01b815250906110535760405162461bcd60e51b8152600401610f3191906131dd565b50670de0b6b3a764000082604001511060405180604001604052806002815260200161343560f01b8152509061109c5760405162461bcd60e51b8152600401610f3191906131dd565b50604080516020810190915283549081905260101c61ffff16158015906110e6575060038301546040805160208101909152855481526110e691600160a81b900461ffff16612382565b1515608082018190526040805180820190915260028152611a1b60f11b6020820152906111265760405162461bcd60e51b8152600401610f3191906131dd565b5081602001516000141560405180604001604052806002815260200161343760f01b815250906111695760405162461bcd60e51b8152600401610f3191906131dd565b5050505050565b6004820154604080516020808201835285549182905291840151606085015160e08601516000958695869586956001600160a01b0390931694911c61ffff169260ff161561125f5760e08901805160ff908116600090815260208e815260409182902054935182519182019092528d549081905266010000000000009093046001600160a01b03169261120d929182169160a89190911c16612486565b1561124a5760e08a015160ff16600090815260208d90526040902054640100000000900461ffff1693506001600160a01b0381161561124a578092505b6001600160a01b0381161561125d578091505b505b929a90995091975095509350505050565b60008060006112e0604051806101a00160405280600081526020016000815260200160008152602001600081526020016000815260200160008152602001600081526020016000815260200160008152602001600081526020016000815260200160008152602001600081525090565b60405163b3596f0760e01b81526001600160a01b038b8116600483015286169063b3596f0790602401602060405180830381865afa158015611326573d6000803e3d6000fd5b505050506040513d601f19601f8201168201806040525081019061134a91906130f9565b815260405163b3596f0760e01b81526001600160a01b038a8116600483015286169063b3596f0790602401602060405180830381865afa158015611392573d6000803e3d6000fd5b505050506040513d601f19601f820116820180604052508101906113b691906130f9565b6020828101919091526040805191820190528c549081905260301c60ff1660c08201526101c08b01515160301c60ff1660a0820181905260c0820151600a90810a60e08401520a61010082015260408051602081019091528c549081905260981c61ffff16610160820152610100810151815161143391906131a8565b8160e0015189836020015161144891906131a8565b61145291906131a8565b61145c919061324f565b6060820181905261146d9087612618565b604082018190528710156114da57610120810187905260e081015160208201516114cf91889161149d91906131a8565b61010084015161012085015185516114b591906131a8565b6114bf91906131a8565b6114c9919061324f565b906127ae565b6101408201526114ee565b604081015161012082015261014081018890525b610160810151156115605761012081015161150990876127ae565b8161012001516115199190613271565b608082018190526101608201516115309190612618565b61018082018190526101208201516115489190613271565b81610140015182610180015193509350935050611576565b8061012001518161014001516000935093509350505b985098509895505050505050565b6040805180820190915260028152610dcd60f21b6020820152608083106115be5760405162461bcd60e51b8152600401610f3191906131dd565b50600182811b1b81156115d6578354811784556115de565b835481191684555b50505050565b6040805180820190915260028152610dcd60f21b60208201526080831061161e5760405162461bcd60e51b8152600401610f3191906131dd565b50600182811b81011b81156115d6578354811784556115de565b80606001518160200151106116ea576101608101516102208101516080840151606084015161014090930151604051637a94c56560e11b81526001600160a01b03928316600482015260248101949094526044840152169063f5298aca906064016020604051808303816000875af11580156116b8573d6000803e3d6000fd5b505050506040513d601f19601f820116820180604052508101906116dc91906130f9565b610160820151602001525050565b602081015115611794576101608101516102208101516080840151602084015161014090930151604051637a94c56560e11b81526001600160a01b03928316600482015260248101949094526044840152169063f5298aca906064016020604051808303816000875af1158015611765573d6000803e3d6000fd5b505050506040513d601f19601f8201168201806040525081019061178991906130f9565b610160820151602001525b80610160015161020001516001600160a01b0316639dc29fac8360800151836020015184606001516117c69190613271565b6040516001600160e01b031960e085901b1681526001600160a01b039092166004830152602482015260440160408051808303816000875af1158015611810573d6000803e3d6000fd5b505050506040513d601f19601f820116820180604052508101906118349190613288565b61016083015160a081019190915260c001525b5050565b6118766040518060800160405280600081526020016000815260200160008152602001600081525090565b610140850151602086015161188a91611f5f565b60608083019182526007880154604080516101208101825260088b01546001600160801b03600160801b9091041681526020810188905280820187905260c0808b0151948201949094529351608085015260a0808a0151908501526101a0890151928401929092526001600160a01b0387811660e08501526101e08901518116610100850152915163a589870960e01b815291169163a58987099161199b9190600401815181526020808301519082015260408083015190820152606080830151908201526080808301519082015260a0808301519082015260c0808301519082015260e0808301516001600160a01b03908116918301919091526101009283015116918101919091526101200190565b606060405180830381865afa1580156119b8573d6000803e3d6000fd5b505050506040513d601f19601f820116820180604052508101906119dc91906132ac565b604084015260208301528082526119f2906127d9565b6001870180546001600160801b03928316600160801b0292169190911790556020810151611a1f906127d9565b6003870180546001600160801b0319166001600160801b03929092169190911790556040810151611a4f906127d9565b6002870180546001600160801b03928316600160801b02921691909117905580516020808301516040808501516101008a01516101408b015183519687529486019390935290840152606083015260808201526001600160a01b038516907f804c9b842b2748a22bb64b345453a3de7ca54a6ca45ce00d415894979e22897a9060a00160405180910390a2505050505050565b6040805160208101909152835481526000908190611b01908888612846565b50915091508115611c66576001600160a01b0381166000908152602088905260408120600901546101c0860151516001600160801b039091169190611b6d9060029060301c60ff16611b539190613271565b611b5e90600a6133be565b611b68908761324f565b6127d9565b9050806001600160801b0316826001600160801b031611611be6576001600160a01b038316600081815260208b8152604080832060090180546001600160801b0319169055519182527faef84d3b40895fd58c561f3998000f0583abb992a52fbdc99ace8e8de4d676a5910160405180910390a2611c63565b6000611bf282846133ca565b6001600160a01b038516600081815260208d815260409182902060090180546001600160801b0319166001600160801b03959095169485179055905183815292935090917faef84d3b40895fd58c561f3998000f0583abb992a52fbdc99ace8e8de4d676a5910160405180910390a2505b50505b50505050505050565b6101408101516040516370a0823160e01b81523360048201526000916001600160a01b0316906370a0823190602401602060405180830381865afa158015611cbb573d6000803e3d6000fd5b505050506040513d601f19601f82011682018060405250810190611cdf91906130f9565b6101408301516080808601519085015160405163f866c31960e01b81526001600160a01b0392831660048201523360248201526044810191909152929350169063f866c31990606401600060405180830381600087803b158015611d4257600080fd5b505af1158015611d56573d6000803e3d6000fd5b505050508060001415611c665733600090815260208681526040918290208251918201909252855481526004860154611d9d918a918a9185916001600160a01b03166128ee565b15611df9576003850154611dbf908290600160a81b900461ffff1660016115e4565b604080850151905133916001600160a01b0316907e058a56ea94653cdf4f152d227ace22d4c00ad99e2a43f58cb7d9e3feb295f290600090a35b5050505050505050565b6000611e0e846106e6565b9050611e1a84826108b6565b60408301516080830151611e3591869184919060009061184b565b61014082015160808085015190840151610100840151604051636b81068560e11b81526001600160a01b0393841660048201523360248201526044810192909252606482015291169063d7020d0a90608401600060405180830381600087803b158015611ea157600080fd5b505af1158015611df9573d6000803e3d6000fd5b6003810154600090600160801b900464ffffffffff1642811415611ee5575050600101546001600160801b031690565b6001830154611f13906001600160801b0380821691611f0d91600160801b9091041684612ae3565b90611f5f565b9392505050565b50919050565b600081156b033b2e3c9fd0803ce800000060028404190484111715611f4457600080fd5b506b033b2e3c9fd0803ce80000009190910260028204010490565b600081156b019d971e4fe8401e740000001983900484111517611f8157600080fd5b506b033b2e3c9fd0803ce800000091026b019d971e4fe8401e74000000010490565b6040516323b872dd60e01b8082526001600160a01b038581166004840152841660248301526044820183905290600080606483828a5af1611fe8573d6000803e3d6000fd5b50611ff285612b20565b6111695760405162461bcd60e51b815260206004820152601960248201527f475076323a206661696c6564207472616e7366657246726f6d000000000000006044820152606401610f31565b610160810151156120ad57600061205f826101600151836102400151612ae3565b90506120788260e0015182611f5f90919063ffffffff16565b6101008301819052612089906127d9565b6001840180546001600160801b0319166001600160801b0392909216919091179055505b8051156118475760006120ca826101800151836102400151612bc7565b90506120e482610120015182611f5f90919063ffffffff16565b61014083018190526120f5906127d9565b6002840180546001600160801b03929092166001600160801b0319909216919091179055505050565b6121576040518060c001604052806000815260200160008152602001600081526020016000815260200160008152602001600081525090565b6101a082015161216657505050565b610120820151825161217791611f5f565b6020820152610140820151825161218d91611f5f565b604082015260608201516102608301516102408401516121b592919064ffffffffff16612bd0565b6060820181905260408301516121ca91611f5f565b8082526020820151608084015160408401516121e69190613128565b6121f09190613271565b6121fa9190613271565b608082018190526101a08301516122119190612618565b60a082018190521561227e5761223c611b688361010001518360a00151611f2090919063ffffffff16565b6008840180546000906122599084906001600160801b03166133f2565b92506101000a8154816001600160801b0302191690836001600160801b031602179055505b505050565b8154600090819081908190660100000000000090046001600160a01b031680156123145760405163b3596f0760e01b81526001600160a01b03828116600483015287169063b3596f0790602401602060405180830381865afa1580156122ed573d6000803e3d6000fd5b505050506040513d601f19601f8201168201806040525081019061231191906130f9565b91505b50945461ffff80821697620100009092041695945092505050565b6040805180820190915260028152610dcd60f21b60208201526000906080831061236c5760405162461bcd60e51b8152600401610f3191906131dd565b50508151600182901b1c60031615155b92915050565b6040805180820190915260028152610dcd60f21b6020820152600090608083106123bf5760405162461bcd60e51b8152600401610f3191906131dd565b50509051600191821b82011c16151590565b6000806123dd85611eb5565b600486810154604051630ed1279f60e11b81526001600160a01b038a811693820193909352929350600092879261245d928692911690631da24f3e90602401602060405180830381865afa158015612439573d6000803e3d6000fd5b505050506040513d601f19601f82011682018060405250810190611f0d91906130f9565b61246791906131a8565b9050838181612478576124786131c7565b04925050505b949350505050565b60008215801590611f135750501490565b6040805180820190915260028152610dcd60f21b6020820152600090608083106124d45760405162461bcd60e51b8152600401610f3191906131dd565b50509051600191821b1c16151590565b6006830154604051630ed1279f60e11b81526001600160a01b0386811660048301526000928392911690631da24f3e90602401602060405180830381865afa158015612534573d6000803e3d6000fd5b505050506040513d601f19601f8201168201806040525081019061255891906130f9565b905080156125765761257361256c86612cf9565b8290611f5f565b90505b60058501546040516370a0823160e01b81526001600160a01b038881166004830152909116906370a0823190602401602060405180830381865afa1580156125c2573d6000803e3d6000fd5b505050506040513d601f19601f820116820180604052508101906125e691906130f9565b6125f09082613128565b90506125fc81856131a8565b905082818161260d5761260d6131c7565b049695505050505050565b60008115611388198390048411151761263057600080fd5b506127109102611388010490565b60008115670de0b6b3a76400006002840419048411171561265e57600080fd5b50670de0b6b3a76400009190910260028204010490565b6102008101516040516370a0823160e01b81526001600160a01b03848116600483015260009283929116906370a0823190602401602060405180830381865afa1580156126c6573d6000803e3d6000fd5b505050506040513d601f19601f820116820180604052508101906126ea91906130f9565b6102208401516040516370a0823160e01b81526001600160a01b038781166004830152909116906370a0823190602401602060405180830381865afa158015612737573d6000803e3d6000fd5b505050506040513d601f19601f8201168201806040525081019061275b91906130f9565b915091509250929050565b51670100000000000000811615159167020000000000000082161515916704000000000000008116151591670800000000000000821615159167100000000000000016151590565b60008115612710600284041904841117156127c857600080fd5b506127109190910260028204010490565b60006001600160801b038211156128425760405162461bcd60e51b815260206004820152602760248201527f53616665436173743a2076616c756520646f65736e27742066697420696e20316044820152663238206269747360c81b6064820152608401610f31565b5090565b600080600061285486612d51565b156128de576000612885877faaaaaaaaaaaaaaaaaaaaaaaaaaaaaaaaaaaaaaaaaaaaaaaaaaaaaaaaaaaaaaaa612d95565b600081815260208781526040808320546001600160a01b03168084528a8352818420825193840190925290549182905292935060d41c64ffffffffff16905080156128da57600195509093509150610e6e9050565b5050505b5060009586955085945092505050565b815160009060d41c64ffffffffff1615612acb576000826001600160a01b0316637535d2466040518163ffffffff1660e01b8152600401602060405180830381865afa158015612942573d6000803e3d6000fd5b505050506040513d601f19601f820116820180604052508101906129669190613140565b6001600160a01b0316630542975c6040518163ffffffff1660e01b8152600401602060405180830381865afa1580156129a3573d6000803e3d6000fd5b505050506040513d601f19601f820116820180604052508101906129c79190613140565b9050806001600160a01b031663707cd7166040518163ffffffff1660e01b8152600401602060405180830381865afa158015612a07573d6000803e3d6000fd5b505050506040513d601f19601f82011682018060405250810190612a2b9190613140565b604051632474521560e21b81527fd1d2cf869016112a9af1107bcf43c3759daf22cf734aad47d0c9c726e33bc78260048201523360248201526001600160a01b0391909116906391d1485490604401602060405180830381865afa158015612a97573d6000803e3d6000fd5b505050506040513d601f19601f82011682018060405250810190612abb9190613232565b612ac9576000915050612ada565b505b612ad786868686612dbb565b90505b95945050505050565b600080612af764ffffffffff841642613271565b612b0190856131a8565b6301e133809004905061247e816b033b2e3c9fd0803ce8000000613128565b6000612b46565b62461bcd60e51b60005260206004528060245250806044525060646000fd5b3d8015612b855760208114612bb657612b807f475076323a206d616c666f726d6564207472616e7366657220726573756c7400601f612b27565b611f1a565b823b612bad57612bad7311d41d8c8e881b9bdd08184818dbdb9d1c9858dd60621b6014612b27565b60019150611f1a565b3d6000803e50506000511515919050565b6000611f138383425b600080612be464ffffffffff851684613271565b905080612c00576b033b2e3c9fd0803ce8000000915050611f13565b60001981016000808060028511612c18576000612c1d565b600285035b925066038882915c4000612c318a80611f5f565b81612c3e57612c3e6131c7565b0491506301e13380612c50838b611f5f565b81612c5d57612c5d6131c7565b049050600082612c6d86886131a8565b612c7791906131a8565b60029004905060008285612c8b888a6131a8565b612c9591906131a8565b612c9f91906131a8565b60069004905080826301e13380612cb68a8f6131a8565b612cc0919061324f565b612cd6906b033b2e3c9fd0803ce8000000613128565b612ce09190613128565b612cea9190613128565b9b9a5050505050505050505050565b6003810154600090600160801b900464ffffffffff1642811415612d29575050600201546001600160801b031690565b6002830154611f13906001600160801b0380821691611f0d91600160801b9091041684612bc7565b80516000907faaaaaaaaaaaaaaaaaaaaaaaaaaaaaaaaaaaaaaaaaaaaaaaaaaaaaaaaaaaaaaaa168015801590611f135750612d8d600182613271565b161592915050565b815160009082166000198101198116825b60029190911c908115612ada57600101612da6565b6000612dc9825161ffff1690565b612dd55750600061247e565b60408051602081019091528354908190527faaaaaaaaaaaaaaaaaaaaaaaaaaaaaaaaaaaaaaaaaaaaaaaaaaaaaaaaaaaaaaaa16612e145750600161247e565b604080516020810190915283548152600090612e31908787612846565b5050905080158015612e4c5750825160d41c64ffffffffff16155b9695505050505050565b604051806101800160405280600081526020016000815260200160008152602001600081526020016000815260200160008152602001600081526020016000815260200160006001600160a01b0316815260200160006001600160a01b0316815260200160006001600160a01b03168152602001612ed2612ed7565b905290565b6040518061028001604052806000815260200160008152602001600081526020016000815260200160008152602001600081526020016000815260200160008152602001600081526020016000815260200160008152602001600081526020016000815260200160008152602001612f5b6040518060200160405280600081525090565b815260006020820181905260408201819052606082018190526080820181905260a09091015290565b604051610120810167ffffffffffffffff81118282101715612fb657634e487b7160e01b600052604160045260246000fd5b60405290565b6001600160a01b0381168114612fd157600080fd5b50565b8035612fdf81612fbc565b919050565b8015158114612fd157600080fd5b8035612fdf81612fe4565b803560ff81168114612fdf57600080fd5b60008060008060008587036101a081121561302857600080fd5b8635955060208701359450604087013593506060870135925061012080607f198301121561305557600080fd5b61305d612f84565b91506080880135825260a0880135602083015261307c60c08901612fd4565b604083015261308d60e08901612fd4565b60608301526101006130a0818a01612fd4565b60808401526130b0828a01612ff2565b60a08401526130c26101408a01612fd4565b60c08401526130d46101608a01612ffd565b60e08401526130e66101808a01612fd4565b9083015250949793965091945092919050565b60006020828403121561310b57600080fd5b5051919050565b634e487b7160e01b600052601160045260246000fd5b6000821982111561313b5761313b613112565b500190565b60006020828403121561315257600080fd5b8151611f1381612fbc565b6000806000806080858703121561317357600080fd5b845193506020850151925060408501519150606085015164ffffffffff8116811461319d57600080fd5b939692955090935050565b60008160001904831182151516156131c2576131c2613112565b500290565b634e487b7160e01b600052601260045260246000fd5b600060208083528351808285015260005b8181101561320a578581018301518582016040015282016131ee565b8181111561321c576000604083870101525b50601f01601f1916929092016040019392505050565b60006020828403121561324457600080fd5b8151611f1381612fe4565b60008261326c57634e487b7160e01b600052601260045260246000fd5b500490565b60008282101561328357613283613112565b500390565b6000806040838503121561329b57600080fd5b505080516020909101519092909150565b6000806000606084860312156132c157600080fd5b8351925060208401519150604084015190509250925092565b600181815b808511156133155781600019048211156132fb576132fb613112565b8085161561330857918102915b93841c93908002906132df565b509250929050565b60008261332c5750600161237c565b816133395750600061237c565b816001811461334f576002811461335957613375565b600191505061237c565b60ff84111561336a5761336a613112565b50506001821b61237c565b5060208310610133831016604e8410600b8410161715613398575081810a61237c565b6133a283836132da565b80600019048211156133b6576133b6613112565b029392505050565b6000611f13838361331d565b60006001600160801b03838116908316818110156133ea576133ea613112565b039392505050565b60006001600160801b0380831681851680830382111561341457613414613112565b0194935050505056fea2646970667358221220f16fbcaa4e6264ba7bd2bd0bf43c8bf7aee97b49df6c8b129c3fca53392e8d4564736f6c634300080a0033",
  "linkReferences": {},
  "deployedLinkReferences": {}
}