{
  "_format": "hh-sol-artifact-1",
  "contractName": "AToken",
  "sourceName": "contracts/contractsAave/protocol/tokenization/AToken.sol",
  "abi": [
    {
      "inputs": [
        {
          "internalType": "contract IPool",
          "name": "pool",
          "type": "address"
        }
      ],
      "stateMutability": "nonpayable",
      "type": "constructor"
    },
    {
      "anonymous": false,
      "inputs": [
        {
          "indexed": true,
          "internalType": "address",
          "name": "owner",
          "type": "address"
        },
        {
          "indexed": true,
          "internalType": "address",
          "name": "spender",
          "type": "address"
        },
        {
          "indexed": false,
          "internalType": "uint256",
          "name": "value",
          "type": "uint256"
        }
      ],
      "name": "Approval",
      "type": "event"
    },
    {
      "anonymous": false,
      "inputs": [
        {
          "indexed": true,
          "internalType": "address",
          "name": "from",
          "type": "address"
        },
        {
          "indexed": true,
          "internalType": "address",
          "name": "to",
          "type": "address"
        },
        {
          "indexed": false,
          "internalType": "uint256",
          "name": "value",
          "type": "uint256"
        },
        {
          "indexed": false,
          "internalType": "uint256",
          "name": "index",
          "type": "uint256"
        }
      ],
      "name": "BalanceTransfer",
      "type": "event"
    },
    {
      "anonymous": false,
      "inputs": [
        {
          "indexed": true,
          "internalType": "address",
          "name": "from",
          "type": "address"
        },
        {
          "indexed": true,
          "internalType": "address",
          "name": "target",
          "type": "address"
        },
        {
          "indexed": false,
          "internalType": "uint256",
          "name": "value",
          "type": "uint256"
        },
        {
          "indexed": false,
          "internalType": "uint256",
          "name": "balanceIncrease",
          "type": "uint256"
        },
        {
          "indexed": false,
          "internalType": "uint256",
          "name": "index",
          "type": "uint256"
        }
      ],
      "name": "Burn",
      "type": "event"
    },
    {
      "anonymous": false,
      "inputs": [
        {
          "indexed": true,
          "internalType": "address",
          "name": "underlyingAsset",
          "type": "address"
        },
        {
          "indexed": true,
          "internalType": "address",
          "name": "pool",
          "type": "address"
        },
        {
          "indexed": false,
          "internalType": "address",
          "name": "treasury",
          "type": "address"
        },
        {
          "indexed": false,
          "internalType": "address",
          "name": "incentivesController",
          "type": "address"
        },
        {
          "indexed": false,
          "internalType": "uint8",
          "name": "aTokenDecimals",
          "type": "uint8"
        },
        {
          "indexed": false,
          "internalType": "string",
          "name": "aTokenName",
          "type": "string"
        },
        {
          "indexed": false,
          "internalType": "string",
          "name": "aTokenSymbol",
          "type": "string"
        },
        {
          "indexed": false,
          "internalType": "bytes",
          "name": "params",
          "type": "bytes"
        }
      ],
      "name": "Initialized",
      "type": "event"
    },
    {
      "anonymous": false,
      "inputs": [
        {
          "indexed": true,
          "internalType": "address",
          "name": "caller",
          "type": "address"
        },
        {
          "indexed": true,
          "internalType": "address",
          "name": "onBehalfOf",
          "type": "address"
        },
        {
          "indexed": false,
          "internalType": "uint256",
          "name": "value",
          "type": "uint256"
        },
        {
          "indexed": false,
          "internalType": "uint256",
          "name": "balanceIncrease",
          "type": "uint256"
        },
        {
          "indexed": false,
          "internalType": "uint256",
          "name": "index",
          "type": "uint256"
        }
      ],
      "name": "Mint",
      "type": "event"
    },
    {
      "anonymous": false,
      "inputs": [
        {
          "indexed": true,
          "internalType": "address",
          "name": "from",
          "type": "address"
        },
        {
          "indexed": true,
          "internalType": "address",
          "name": "to",
          "type": "address"
        },
        {
          "indexed": false,
          "internalType": "uint256",
          "name": "value",
          "type": "uint256"
        }
      ],
      "name": "Transfer",
      "type": "event"
    },
    {
      "inputs": [],
      "name": "ATOKEN_REVISION",
      "outputs": [
        {
          "internalType": "uint256",
          "name": "",
          "type": "uint256"
        }
      ],
      "stateMutability": "view",
      "type": "function"
    },
    {
      "inputs": [],
      "name": "DOMAIN_SEPARATOR",
      "outputs": [
        {
          "internalType": "bytes32",
          "name": "",
          "type": "bytes32"
        }
      ],
      "stateMutability": "view",
      "type": "function"
    },
    {
      "inputs": [],
      "name": "EIP712_REVISION",
      "outputs": [
        {
          "internalType": "bytes",
          "name": "",
          "type": "bytes"
        }
      ],
      "stateMutability": "view",
      "type": "function"
    },
    {
      "inputs": [],
      "name": "PERMIT_TYPEHASH",
      "outputs": [
        {
          "internalType": "bytes32",
          "name": "",
          "type": "bytes32"
        }
      ],
      "stateMutability": "view",
      "type": "function"
    },
    {
      "inputs": [],
      "name": "POOL",
      "outputs": [
        {
          "internalType": "contract IPool",
          "name": "",
          "type": "address"
        }
      ],
      "stateMutability": "view",
      "type": "function"
    },
    {
      "inputs": [],
      "name": "RESERVE_TREASURY_ADDRESS",
      "outputs": [
        {
          "internalType": "address",
          "name": "",
          "type": "address"
        }
      ],
      "stateMutability": "view",
      "type": "function"
    },
    {
      "inputs": [],
      "name": "UNDERLYING_ASSET_ADDRESS",
      "outputs": [
        {
          "internalType": "address",
          "name": "",
          "type": "address"
        }
      ],
      "stateMutability": "view",
      "type": "function"
    },
    {
      "inputs": [
        {
          "internalType": "address",
          "name": "owner",
          "type": "address"
        },
        {
          "internalType": "address",
          "name": "spender",
          "type": "address"
        }
      ],
      "name": "allowance",
      "outputs": [
        {
          "internalType": "uint256",
          "name": "",
          "type": "uint256"
        }
      ],
      "stateMutability": "view",
      "type": "function"
    },
    {
      "inputs": [
        {
          "internalType": "address",
          "name": "spender",
          "type": "address"
        },
        {
          "internalType": "uint256",
          "name": "amount",
          "type": "uint256"
        }
      ],
      "name": "approve",
      "outputs": [
        {
          "internalType": "bool",
          "name": "",
          "type": "bool"
        }
      ],
      "stateMutability": "nonpayable",
      "type": "function"
    },
    {
      "inputs": [
        {
          "internalType": "address",
          "name": "user",
          "type": "address"
        }
      ],
      "name": "balanceOf",
      "outputs": [
        {
          "internalType": "uint256",
          "name": "",
          "type": "uint256"
        }
      ],
      "stateMutability": "view",
      "type": "function"
    },
    {
      "inputs": [
        {
          "internalType": "address",
          "name": "from",
          "type": "address"
        },
        {
          "internalType": "address",
          "name": "receiverOfUnderlying",
          "type": "address"
        },
        {
          "internalType": "uint256",
          "name": "amount",
          "type": "uint256"
        },
        {
          "internalType": "uint256",
          "name": "index",
          "type": "uint256"
        }
      ],
      "name": "burn",
      "outputs": [],
      "stateMutability": "nonpayable",
      "type": "function"
    },
    {
      "inputs": [],
      "name": "decimals",
      "outputs": [
        {
          "internalType": "uint8",
          "name": "",
          "type": "uint8"
        }
      ],
      "stateMutability": "view",
      "type": "function"
    },
    {
      "inputs": [
        {
          "internalType": "address",
          "name": "spender",
          "type": "address"
        },
        {
          "internalType": "uint256",
          "name": "subtractedValue",
          "type": "uint256"
        }
      ],
      "name": "decreaseAllowance",
      "outputs": [
        {
          "internalType": "bool",
          "name": "",
          "type": "bool"
        }
      ],
      "stateMutability": "nonpayable",
      "type": "function"
    },
    {
      "inputs": [],
      "name": "getIncentivesController",
      "outputs": [
        {
          "internalType": "contract IAaveIncentivesController",
          "name": "",
          "type": "address"
        }
      ],
      "stateMutability": "view",
      "type": "function"
    },
    {
      "inputs": [
        {
          "internalType": "address",
          "name": "user",
          "type": "address"
        }
      ],
      "name": "getPreviousIndex",
      "outputs": [
        {
          "internalType": "uint256",
          "name": "",
          "type": "uint256"
        }
      ],
      "stateMutability": "view",
      "type": "function"
    },
    {
      "inputs": [
        {
          "internalType": "address",
          "name": "user",
          "type": "address"
        }
      ],
      "name": "getScaledUserBalanceAndSupply",
      "outputs": [
        {
          "internalType": "uint256",
          "name": "",
          "type": "uint256"
        },
        {
          "internalType": "uint256",
          "name": "",
          "type": "uint256"
        }
      ],
      "stateMutability": "view",
      "type": "function"
    },
    {
      "inputs": [
        {
          "internalType": "address",
          "name": "user",
          "type": "address"
        },
        {
          "internalType": "address",
          "name": "onBehalfOf",
          "type": "address"
        },
        {
          "internalType": "uint256",
          "name": "amount",
          "type": "uint256"
        }
      ],
      "name": "handleRepayment",
      "outputs": [],
      "stateMutability": "nonpayable",
      "type": "function"
    },
    {
      "inputs": [
        {
          "internalType": "address",
          "name": "spender",
          "type": "address"
        },
        {
          "internalType": "uint256",
          "name": "addedValue",
          "type": "uint256"
        }
      ],
      "name": "increaseAllowance",
      "outputs": [
        {
          "internalType": "bool",
          "name": "",
          "type": "bool"
        }
      ],
      "stateMutability": "nonpayable",
      "type": "function"
    },
    {
      "inputs": [
        {
          "internalType": "contract IPool",
          "name": "initializingPool",
          "type": "address"
        },
        {
          "internalType": "address",
          "name": "treasury",
          "type": "address"
        },
        {
          "internalType": "address",
          "name": "underlyingAsset",
          "type": "address"
        },
        {
          "internalType": "contract IAaveIncentivesController",
          "name": "incentivesController",
          "type": "address"
        },
        {
          "internalType": "uint8",
          "name": "aTokenDecimals",
          "type": "uint8"
        },
        {
          "internalType": "string",
          "name": "aTokenName",
          "type": "string"
        },
        {
          "internalType": "string",
          "name": "aTokenSymbol",
          "type": "string"
        },
        {
          "internalType": "bytes",
          "name": "params",
          "type": "bytes"
        }
      ],
      "name": "initialize",
      "outputs": [],
      "stateMutability": "nonpayable",
      "type": "function"
    },
    {
      "inputs": [
        {
          "internalType": "address",
          "name": "caller",
          "type": "address"
        },
        {
          "internalType": "address",
          "name": "onBehalfOf",
          "type": "address"
        },
        {
          "internalType": "uint256",
          "name": "amount",
          "type": "uint256"
        },
        {
          "internalType": "uint256",
          "name": "index",
          "type": "uint256"
        }
      ],
      "name": "mint",
      "outputs": [
        {
          "internalType": "bool",
          "name": "",
          "type": "bool"
        }
      ],
      "stateMutability": "nonpayable",
      "type": "function"
    },
    {
      "inputs": [
        {
          "internalType": "uint256",
          "name": "amount",
          "type": "uint256"
        },
        {
          "internalType": "uint256",
          "name": "index",
          "type": "uint256"
        }
      ],
      "name": "mintToTreasury",
      "outputs": [],
      "stateMutability": "nonpayable",
      "type": "function"
    },
    {
      "inputs": [],
      "name": "name",
      "outputs": [
        {
          "internalType": "string",
          "name": "",
          "type": "string"
        }
      ],
      "stateMutability": "view",
      "type": "function"
    },
    {
      "inputs": [
        {
          "internalType": "address",
          "name": "owner",
          "type": "address"
        }
      ],
      "name": "nonces",
      "outputs": [
        {
          "internalType": "uint256",
          "name": "",
          "type": "uint256"
        }
      ],
      "stateMutability": "view",
      "type": "function"
    },
    {
      "inputs": [
        {
          "internalType": "address",
          "name": "owner",
          "type": "address"
        },
        {
          "internalType": "address",
          "name": "spender",
          "type": "address"
        },
        {
          "internalType": "uint256",
          "name": "value",
          "type": "uint256"
        },
        {
          "internalType": "uint256",
          "name": "deadline",
          "type": "uint256"
        },
        {
          "internalType": "uint8",
          "name": "v",
          "type": "uint8"
        },
        {
          "internalType": "bytes32",
          "name": "r",
          "type": "bytes32"
        },
        {
          "internalType": "bytes32",
          "name": "s",
          "type": "bytes32"
        }
      ],
      "name": "permit",
      "outputs": [],
      "stateMutability": "nonpayable",
      "type": "function"
    },
    {
      "inputs": [
        {
          "internalType": "address",
          "name": "token",
          "type": "address"
        },
        {
          "internalType": "address",
          "name": "to",
          "type": "address"
        },
        {
          "internalType": "uint256",
          "name": "amount",
          "type": "uint256"
        }
      ],
      "name": "rescueTokens",
      "outputs": [],
      "stateMutability": "nonpayable",
      "type": "function"
    },
    {
      "inputs": [
        {
          "internalType": "address",
          "name": "user",
          "type": "address"
        }
      ],
      "name": "scaledBalanceOf",
      "outputs": [
        {
          "internalType": "uint256",
          "name": "",
          "type": "uint256"
        }
      ],
      "stateMutability": "view",
      "type": "function"
    },
    {
      "inputs": [],
      "name": "scaledTotalSupply",
      "outputs": [
        {
          "internalType": "uint256",
          "name": "",
          "type": "uint256"
        }
      ],
      "stateMutability": "view",
      "type": "function"
    },
    {
      "inputs": [
        {
          "internalType": "contract IAaveIncentivesController",
          "name": "controller",
          "type": "address"
        }
      ],
      "name": "setIncentivesController",
      "outputs": [],
      "stateMutability": "nonpayable",
      "type": "function"
    },
    {
      "inputs": [],
      "name": "symbol",
      "outputs": [
        {
          "internalType": "string",
          "name": "",
          "type": "string"
        }
      ],
      "stateMutability": "view",
      "type": "function"
    },
    {
      "inputs": [],
      "name": "totalSupply",
      "outputs": [
        {
          "internalType": "uint256",
          "name": "",
          "type": "uint256"
        }
      ],
      "stateMutability": "view",
      "type": "function"
    },
    {
      "inputs": [
        {
          "internalType": "address",
          "name": "recipient",
          "type": "address"
        },
        {
          "internalType": "uint256",
          "name": "amount",
          "type": "uint256"
        }
      ],
      "name": "transfer",
      "outputs": [
        {
          "internalType": "bool",
          "name": "",
          "type": "bool"
        }
      ],
      "stateMutability": "nonpayable",
      "type": "function"
    },
    {
      "inputs": [
        {
          "internalType": "address",
          "name": "sender",
          "type": "address"
        },
        {
          "internalType": "address",
          "name": "recipient",
          "type": "address"
        },
        {
          "internalType": "uint256",
          "name": "amount",
          "type": "uint256"
        }
      ],
      "name": "transferFrom",
      "outputs": [
        {
          "internalType": "bool",
          "name": "",
          "type": "bool"
        }
      ],
      "stateMutability": "nonpayable",
      "type": "function"
    },
    {
      "inputs": [
        {
          "internalType": "address",
          "name": "from",
          "type": "address"
        },
        {
          "internalType": "address",
          "name": "to",
          "type": "address"
        },
        {
          "internalType": "uint256",
          "name": "value",
          "type": "uint256"
        }
      ],
      "name": "transferOnLiquidation",
      "outputs": [],
      "stateMutability": "nonpayable",
      "type": "function"
    },
    {
      "inputs": [
        {
          "internalType": "address",
          "name": "target",
          "type": "address"
        },
        {
          "internalType": "uint256",
          "name": "amount",
          "type": "uint256"
        }
      ],
      "name": "transferUnderlyingTo",
      "outputs": [],
      "stateMutability": "nonpayable",
      "type": "function"
    }
  ],
  "bytecode": "0x60e0604052600080553480156200001557600080fd5b5060405162002b5838038062002b5883398101604081905262000038916200021d565b806040518060400160405280600b81526020016a105513d2d15397d253541360aa1b8152506040518060400160405280600b81526020016a105513d2d15397d253541360aa1b81525060008383838383838383836001600160a01b0316630542975c6040518163ffffffff1660e01b8152600401602060405180830381865afa158015620000ca573d6000803e3d6000fd5b505050506040513d601f19601f82011682018060405250810190620000f091906200021d565b6001600160a01b03166080528251620001119060379060208601906200015e565b508151620001279060389060208501906200015e565b506039805460ff191660ff9290921691909117905550506001600160a01b031660a05250504660c052506200028195505050505050565b8280546200016c9062000244565b90600052602060002090601f016020900481019282620001905760008555620001db565b82601f10620001ab57805160ff1916838001178555620001db565b82800160010185558215620001db579182015b82811115620001db578251825591602001919060010190620001be565b50620001e9929150620001ed565b5090565b5b80821115620001e95760008155600101620001ee565b6001600160a01b03811681146200021a57600080fd5b50565b6000602082840312156200023057600080fd5b81516200023d8162000204565b9392505050565b600181811c908216806200025957607f821691505b602082108114156200027b57634e487b7160e01b600052602260045260246000fd5b50919050565b60805160a05160c0516128456200031360003960006115750152600081816103620152818161063501528181610753015281816108a901528181610a1f01528181610a9d01528181610b1201528181610baa01528181610c0301528181610ce90152818161111b0152818161130201528181611a0b0152611af2015260008181610d49015261119901526128456000f3fe608060405234801561001057600080fd5b50600436106102065760003560e01c8063781603761161011a578063b1bf962d116100ad578063d7020d0a1161007c578063d7020d0a14610489578063dd62ed3e1461049c578063e0753986146104d5578063e655dbd81461050e578063f866c3191461052157600080fd5b8063b1bf962d14610448578063b3f1c93d14610450578063cea9d26f14610463578063d505accf1461047657600080fd5b8063a457c2d7116100e9578063a457c2d714610400578063a9059cbb14610413578063ae16733514610426578063b16a19de1461043757600080fd5b806378160376146103b25780637df5bd3b146103d25780637ecebe00146103e557806395d89b41146103f857600080fd5b806330adf81f1161019d5780634efecaa51161016c5780634efecaa5146103245780636fd976761461033757806370a082311461034a5780637535d2461461035d57806375d264131461039c57600080fd5b806330adf81f146102cd578063313ce567146102f45780633644e51514610309578063395093511461031157600080fd5b806318160ddd116101d957806318160ddd1461028a578063183fb413146102925780631da24f3e146102a757806323b872dd146102ba57600080fd5b806306fdde031461020b578063095ea7b3146102295780630afbcdc91461024c5780630bd7ad3b14610274575b600080fd5b610213610534565b60405161022091906122c0565b60405180910390f35b61023c610237366004612302565b6105c6565b6040519015158152602001610220565b61025f61025a36600461232e565b6105dc565b60408051928352602083019190915201610220565b61027c600181565b604051908152602001610220565b61027c6105f4565b6102a56102a03660046123a5565b6106ad565b005b61027c6102b536600461232e565b610942565b61023c6102c8366004612499565b610953565b61027c7f6e71edae12b1b97f4d1f60370fef10105fa2faae0126114a169c64845d6126c981565b60395460405160ff9091168152602001610220565b61027c6109bd565b61023c61031f366004612302565b6109cc565b6102a5610332366004612302565b610a03565b6102a5610345366004612499565b610a81565b61027c61035836600461232e565b610ae9565b6103847f000000000000000000000000000000000000000000000000000000000000000081565b6040516001600160a01b039091168152602001610220565b60395461010090046001600160a01b0316610384565b610213604051806040016040528060018152602001603160f81b81525081565b6102a56103e03660046124da565b610b8e565b61027c6103f336600461232e565b610c38565b610213610c56565b61023c61040e366004612302565b610c65565b61023c610421366004612302565b610c9c565b603c546001600160a01b0316610384565b603d546001600160a01b0316610384565b61027c610cbf565b61023c61045e3660046124fc565b610cca565b6102a5610471366004612499565b610d45565b6102a5610484366004612542565b610ecb565b6102a56104973660046124fc565b6110ff565b61027c6104aa3660046125b0565b6001600160a01b03918216600090815260356020908152604080832093909416825291909152205490565b61027c6104e336600461232e565b6001600160a01b0316600090815260346020526040902054600160801b90046001600160801b031690565b6102a561051c36600461232e565b611195565b6102a561052f366004612499565b6112e6565b606060378054610543906125e9565b80601f016020809104026020016040519081016040528092919081815260200182805461056f906125e9565b80156105bc5780601f10610591576101008083540402835291602001916105bc565b820191906000526020600020905b81548152906001019060200180831161059f57829003601f168201915b5050505050905090565b60006105d3338484611356565b50600192915050565b6000806105e8836113b7565b60365491509150915091565b60008061060060365490565b90508061060f57600091505090565b603d5460405163d15e005360e01b81526001600160a01b0391821660048201526106a7917f0000000000000000000000000000000000000000000000000000000000000000169063d15e005390602401602060405180830381865afa15801561067c573d6000803e3d6000fd5b505050506040513d601f19601f820116820180604052508101906106a0919061261e565b82906113db565b91505090565b6001805460ff16806106be5750303b155b806106ca575060005481115b6107325760405162461bcd60e51b815260206004820152602e60248201527f436f6e747261637420696e7374616e63652068617320616c726561647920626560448201526d195b881a5b9a5d1a585b1a5e995960921b60648201526084015b60405180910390fd5b60015460ff16158015610751576001805460ff19168117905560008290555b7f00000000000000000000000000000000000000000000000000000000000000006001600160a01b03168d6001600160a01b03161460405180604001604052806002815260200161383760f01b815250906107bf5760405162461bcd60e51b815260040161072991906122c0565b506107ff88888080601f01602080910402602001604051908101604052809392919081815260200183838082843760009201919091525061141f92505050565b61083e86868080601f01602080910402602001604051908101604052809392919081815260200183838082843760009201919091525061143292505050565b6039805460ff191660ff8b16179055603c80546001600160a01b03808f166001600160a01b031992831617909255603d80548e8416921691909117905560398054918c1661010002610100600160a81b03199092169190911790556108a1611445565b603b819055507f00000000000000000000000000000000000000000000000000000000000000006001600160a01b03168b6001600160a01b03167fb19e051f8af41150ccccb3fc2c2d8d15f4a4cf434f32a559ba75fe73d6eea20b8e8d8d8d8d8d8d8d8d60405161091a99989796959493929190612660565b60405180910390a38015610933576001805460ff191690555b50505050505050505050505050565b600061094d826113b7565b92915050565b60008061095f836114ee565b6001600160a01b0386166000908152603560209081526040808320338085529252909120549192506109a7918791906109a2906001600160801b038616906126e4565b611356565b6109b285858361155b565b506001949350505050565b60006109c7611571565b905090565b3360008181526035602090815260408083206001600160a01b038716845290915281205490916105d39185906109a29086906126fb565b604080518082019091526002815261323360f01b6020820152337f00000000000000000000000000000000000000000000000000000000000000006001600160a01b031614610a655760405162461bcd60e51b815260040161072991906122c0565b50603d54610a7d906001600160a01b031683836115aa565b5050565b604080518082019091526002815261323360f01b6020820152337f00000000000000000000000000000000000000000000000000000000000000006001600160a01b031614610ae35760405162461bcd60e51b815260040161072991906122c0565b50505050565b603d5460405163d15e005360e01b81526001600160a01b03918216600482015260009161094d917f00000000000000000000000000000000000000000000000000000000000000009091169063d15e005390602401602060405180830381865afa158015610b5b573d6000803e3d6000fd5b505050506040513d601f19601f82011682018060405250810190610b7f919061261e565b610b88846113b7565b906113db565b604080518082019091526002815261323360f01b6020820152337f00000000000000000000000000000000000000000000000000000000000000006001600160a01b031614610bf05760405162461bcd60e51b815260040161072991906122c0565b5081610bfa575050565b603c54610c33907f0000000000000000000000000000000000000000000000000000000000000000906001600160a01b03168484611635565b505050565b6001600160a01b0381166000908152603a602052604081205461094d565b606060388054610543906125e9565b3360008181526035602090815260408083206001600160a01b038716845290915281205490916105d39185906109a29086906126e4565b600080610ca8836114ee565b9050610cb533858361155b565b5060019392505050565b60006109c760365490565b604080518082019091526002815261323360f01b6020820152600090337f00000000000000000000000000000000000000000000000000000000000000006001600160a01b031614610d2f5760405162461bcd60e51b815260040161072991906122c0565b50610d3c85858585611635565b95945050505050565b60007f00000000000000000000000000000000000000000000000000000000000000006001600160a01b031663707cd7166040518163ffffffff1660e01b8152600401602060405180830381865afa158015610da5573d6000803e3d6000fd5b505050506040513d601f19601f82011682018060405250810190610dc99190612713565b604051637be53ca160e01b81523360048201529091506001600160a01b03821690637be53ca190602401602060405180830381865afa158015610e10573d6000803e3d6000fd5b505050506040513d601f19601f82011682018060405250810190610e349190612730565b604051806040016040528060018152602001603160f81b81525090610e6c5760405162461bcd60e51b815260040161072991906122c0565b50603d54604080518082019091526002815261383560f01b6020820152906001600160a01b0386811691161415610eb65760405162461bcd60e51b815260040161072991906122c0565b50610ae36001600160a01b03851684846115aa565b604080518082019091526002815261373760f01b60208201526001600160a01b038816610f0b5760405162461bcd60e51b815260040161072991906122c0565b50834211156040518060400160405280600281526020016106e760f31b81525090610f495760405162461bcd60e51b815260040161072991906122c0565b506001600160a01b0387166000908152603a602052604081205490610f6c6109bd565b604080517f6e71edae12b1b97f4d1f60370fef10105fa2faae0126114a169c64845d6126c960208201526001600160a01b03808d1692820192909252908a1660608201526080810189905260a0810184905260c0810188905260e0016040516020818303038152906040528051906020012060405160200161100592919061190160f01b81526002810192909252602282015260420190565b60408051601f1981840301815282825280516020918201206000845290830180835281905260ff8816918301919091526060820186905260808201859052915060019060a0016020604051602081039080840390855afa15801561106d573d6000803e3d6000fd5b505050602060405103516001600160a01b0316896001600160a01b03161460405180604001604052806002815260200161373960f01b815250906110c45760405162461bcd60e51b815260040161072991906122c0565b506110d08260016126fb565b6001600160a01b038a166000908152603a60205260409020556110f4898989611356565b505050505050505050565b604080518082019091526002815261323360f01b6020820152337f00000000000000000000000000000000000000000000000000000000000000006001600160a01b0316146111615760405162461bcd60e51b815260040161072991906122c0565b5061116e848484846117ba565b6001600160a01b0383163014610ae357603d54610ae3906001600160a01b031684846115aa565b60007f00000000000000000000000000000000000000000000000000000000000000006001600160a01b031663707cd7166040518163ffffffff1660e01b8152600401602060405180830381865afa1580156111f5573d6000803e3d6000fd5b505050506040513d601f19601f820116820180604052508101906112199190612713565b604051637be53ca160e01b81523360048201529091506001600160a01b03821690637be53ca190602401602060405180830381865afa158015611260573d6000803e3d6000fd5b505050506040513d601f19601f820116820180604052508101906112849190612730565b604051806040016040528060018152602001603160f81b815250906112bc5760405162461bcd60e51b815260040161072991906122c0565b5050603980546001600160a01b0390921661010002610100600160a81b0319909216919091179055565b604080518082019091526002815261323360f01b6020820152337f00000000000000000000000000000000000000000000000000000000000000006001600160a01b0316146113485760405162461bcd60e51b815260040161072991906122c0565b50610c3383838360006119e3565b6001600160a01b0383811660008181526035602090815260408083209487168084529482529182902085905590518481527f8c5be1e5ebec7d5bd14f71427d1e84f3dd0314c0f7b2291e5b200ac8c7c3b925910160405180910390a3505050565b6001600160a01b03166000908152603460205260409020546001600160801b031690565b600081156b019d971e4fe8401e7400000019839004841115176113fd57600080fd5b506b033b2e3c9fd0803ce800000091026b019d971e4fe8401e74000000010490565b8051610a7d9060379060208401906121e3565b8051610a7d9060389060208401906121e3565b60007f8b73c3c69bb8fe3d512ecc4cf759cc79239f7b179b0ffacaa9a75d522b39400f611470611b9c565b805160209182012060408051808201825260018152603160f81b90840152805192830193909352918101919091527fc89efdaa54c0f20c7adf612882df0950f5a951637e0307cdcb4c672f298b8bc660608201524660808201523060a082015260c00160405160208183030381529060405280519060200120905090565b60006001600160801b038211156115575760405162461bcd60e51b815260206004820152602760248201527f53616665436173743a2076616c756520646f65736e27742066697420696e20316044820152663238206269747360c81b6064820152608401610729565b5090565b610c338383836001600160801b031660016119e3565b60007f00000000000000000000000000000000000000000000000000000000000000004614156115a25750603b5490565b6109c7611445565b60405163a9059cbb60e01b8082526001600160a01b0384166004830152602482018390529060008060448382895af16115e7573d6000803e3d6000fd5b506115f184611ba6565b610ae35760405162461bcd60e51b815260206004820152601560248201527423a83b191d103330b4b632b2103a3930b739b332b960591b6044820152606401610729565b6000806116428484611c4f565b6040805180820190915260028152610c8d60f21b60208201529091508161167c5760405162461bcd60e51b815260040161072991906122c0565b506000611688866113b7565b6001600160a01b038716600090815260346020526040812054919250906116c0908390600160801b90046001600160801b03166113db565b6116ca83876113db565b6116d491906126e4565b90506116df856114ee565b6001600160a01b038816600090815260346020526040902080546001600160801b03928316600160801b0292169190911790556117248761171f856114ee565b611c8e565b600061173082886126fb565b9050876001600160a01b031660006001600160a01b03166000805160206127f08339815191528360405161176691815260200190565b60405180910390a360408051828152602081018490529081018790526001600160a01b03808a1691908b16906000805160206127d08339815191529060600160405180910390a35050159695505050505050565b60006117c68383611c4f565b604080518082019091526002815261323560f01b6020820152909150816118005760405162461bcd60e51b815260040161072991906122c0565b50600061180c866113b7565b6001600160a01b03871660009081526034602052604081205491925090611844908390600160801b90046001600160801b03166113db565b61184e83866113db565b61185891906126e4565b9050611863846114ee565b6001600160a01b038816600090815260346020526040902080546001600160801b03928316600160801b0292169190911790556118a8876118a3856114ee565b611d7f565b8481111561193c5760006118bc86836126e4565b9050876001600160a01b031660006001600160a01b03166000805160206127f0833981519152836040516118f291815260200190565b60405180910390a360408051828152602081018490529081018690526001600160a01b0389169081906000805160206127d08339815191529060600160405180910390a3506119da565b600061194882876126e4565b905060006001600160a01b0316886001600160a01b03166000805160206127f08339815191528360405161197e91815260200190565b60405180910390a360408051828152602081018490529081018690526001600160a01b0380891691908a16907f4cf25bc1d991c17529c25213d3cc0cda295eeaad5f13f361969b12ea48015f90906060015b60405180910390a3505b50505050505050565b603d5460405163d15e005360e01b81526001600160a01b0391821660048201819052916000917f00000000000000000000000000000000000000000000000000000000000000009091169063d15e005390602401602060405180830381865afa158015611a54573d6000803e3d6000fd5b505050506040513d601f19601f82011682018060405250810190611a78919061261e565b90506000611a8982610b88896113b7565b90506000611a9a83610b88896113b7565b9050611aa888888886611dc4565b8415611b4f5760405163d5ed393360e01b81526001600160a01b03858116600483015289811660248301528881166044830152606482018890526084820184905260a482018390527f0000000000000000000000000000000000000000000000000000000000000000169063d5ed39339060c401600060405180830381600087803b158015611b3657600080fd5b505af1158015611b4a573d6000803e3d6000fd5b505050505b6001600160a01b038088169089167f4beccb90f994c31aced7a23b5611020728a23d8ec5cddd1a3e9d97b96fda8666611b888987611c4f565b6040805191825260208201889052016119d0565b60606109c7610534565b6000611bcc565b62461bcd60e51b60005260206004528060245250806044525060646000fd5b3d8015611c0b5760208114611c3c57611c067f475076323a206d616c666f726d6564207472616e7366657220726573756c7400601f611bad565b611c49565b823b611c3357611c337311d41d8c8e881b9bdd08184818dbdb9d1c9858dd60621b6014611bad565b60019150611c49565b3d6000803e600051151591505b50919050565b600081156b033b2e3c9fd0803ce800000060028404190484111715611c7357600080fd5b506b033b2e3c9fd0803ce80000009190910260028204010490565b603654611ca46001600160801b038316826126fb565b6036556001600160a01b0383166000908152603460205260409020546001600160801b0316611cd38382612752565b6001600160a01b03858116600090815260346020526040902080546001600160801b0319166001600160801b0393909316929092179091556039546101009004168015611d78576040516318c39f1760e11b81526001600160a01b038216906331873e2e90611d4a9088908790879060040161277d565b600060405180830381600087803b158015611d6457600080fd5b505af11580156110f4573d6000803e3d6000fd5b5050505050565b603654611d956001600160801b038316826126e4565b6036556001600160a01b0383166000908152603460205260409020546001600160801b0316611cd383826127a7565b6000611dcf856113b7565b6001600160a01b03861660009081526034602052604081205491925090611e07908390600160801b90046001600160801b03166113db565b611e1183856113db565b611e1b91906126e4565b90506000611e28866113b7565b6001600160a01b03871660009081526034602052604081205491925090611e60908390600160801b90046001600160801b03166113db565b611e6a83876113db565b611e7491906126e4565b9050611e7f856114ee565b6001600160a01b038916600090815260346020526040902080546001600160801b03928316600160801b029216919091179055611ebb856114ee565b6001600160a01b038816600090815260346020526040902080546001600160801b03928316600160801b029216919091179055611f0a8888611f05611f008a8a611c4f565b6114ee565b612040565b8215611f7b576040518381526001600160a01b038916906000906000805160206127f08339815191529060200160405180910390a3604080518481526020810185905280820187905290516001600160a01b038a169133916000805160206127d08339815191529181900360600190a35b866001600160a01b0316886001600160a01b031614158015611f9d5750600081115b1561200d576040518181526001600160a01b038816906000906000805160206127f08339815191529060200160405180910390a3604080518281526020810183905280820187905290516001600160a01b0389169133916000805160206127d08339815191529181900360600190a35b866001600160a01b0316886001600160a01b03166000805160206127f0833981519152886040516119d091815260200190565b6001600160a01b0383166000908152603460205260409020546001600160801b031661206c82826127a7565b6001600160a01b0385811660009081526034602052604080822080546001600160801b0319166001600160801b0395861617905591861681522054166120b28382612752565b6001600160a01b03858116600090815260346020526040902080546001600160801b0319166001600160801b03939093169290921790915560395461010090041680156121db576036546040516318c39f1760e11b81526001600160a01b038316906331873e2e9061212c908a908590899060040161277d565b600060405180830381600087803b15801561214657600080fd5b505af115801561215a573d6000803e3d6000fd5b50505050856001600160a01b0316876001600160a01b0316146119da576040516318c39f1760e11b81526001600160a01b038316906331873e2e906121a79089908590889060040161277d565b600060405180830381600087803b1580156121c157600080fd5b505af11580156121d5573d6000803e3d6000fd5b50505050505b505050505050565b8280546121ef906125e9565b90600052602060002090601f0160209004810192826122115760008555612257565b82601f1061222a57805160ff1916838001178555612257565b82800160010185558215612257579182015b8281111561225757825182559160200191906001019061223c565b506115579291505b80821115611557576000815560010161225f565b6000815180845260005b818110156122995760208185018101518683018201520161227d565b818111156122ab576000602083870101525b50601f01601f19169290920160200192915050565b6020815260006122d36020830184612273565b9392505050565b6001600160a01b03811681146122ef57600080fd5b50565b80356122fd816122da565b919050565b6000806040838503121561231557600080fd5b8235612320816122da565b946020939093013593505050565b60006020828403121561234057600080fd5b81356122d3816122da565b803560ff811681146122fd57600080fd5b60008083601f84011261236e57600080fd5b50813567ffffffffffffffff81111561238657600080fd5b60208301915083602082850101111561239e57600080fd5b9250929050565b60008060008060008060008060008060006101008c8e0312156123c757600080fd5b6123d08c6122f2565b9a506123de60208d016122f2565b99506123ec60408d016122f2565b98506123fa60608d016122f2565b975061240860808d0161234b565b965067ffffffffffffffff8060a08e0135111561242457600080fd5b6124348e60a08f01358f0161235c565b909750955060c08d013581101561244a57600080fd5b61245a8e60c08f01358f0161235c565b909550935060e08d013581101561247057600080fd5b506124818d60e08e01358e0161235c565b81935080925050509295989b509295989b9093969950565b6000806000606084860312156124ae57600080fd5b83356124b9816122da565b925060208401356124c9816122da565b929592945050506040919091013590565b600080604083850312156124ed57600080fd5b50508035926020909101359150565b6000806000806080858703121561251257600080fd5b843561251d816122da565b9350602085013561252d816122da565b93969395505050506040820135916060013590565b600080600080600080600060e0888a03121561255d57600080fd5b8735612568816122da565b96506020880135612578816122da565b955060408801359450606088013593506125946080890161234b565b925060a0880135915060c0880135905092959891949750929550565b600080604083850312156125c357600080fd5b82356125ce816122da565b915060208301356125de816122da565b809150509250929050565b600181811c908216806125fd57607f821691505b60208210811415611c4957634e487b7160e01b600052602260045260246000fd5b60006020828403121561263057600080fd5b5051919050565b81835281816020850137506000828201602090810191909152601f909101601f19169091010190565b6001600160a01b038a811682528916602082015260ff8816604082015260c060608201819052600090612696908301888a612637565b82810360808401526126a9818789612637565b905082810360a08401526126be818587612637565b9c9b505050505050505050505050565b634e487b7160e01b600052601160045260246000fd5b6000828210156126f6576126f66126ce565b500390565b6000821982111561270e5761270e6126ce565b500190565b60006020828403121561272557600080fd5b81516122d3816122da565b60006020828403121561274257600080fd5b815180151581146122d357600080fd5b60006001600160801b03808316818516808303821115612774576127746126ce565b01949350505050565b6001600160a01b0393909316835260208301919091526001600160801b0316604082015260600190565b60006001600160801b03838116908316818110156127c7576127c76126ce565b03939250505056fe458f5fa412d0f69b08dd84872b0215675cc67bc1d5b6fd93300a1c3878b86196ddf252ad1be2c89b69c2b068fc378daa952ba7f163c4a11628f55a4df523b3efa26469706673582212205413cc70166f0f9c92baa8b0a8c09c3ea6f4cbe325f53f476cd0612a7a805f5d64736f6c634300080a0033",
  "linkReferences": {},
  "deployedLinkReferences": {}
}