{
  "protocol/libraries/helpers/Errors.sol": {
    "Errors": {
      "abi": [
        {
          "inputs": [],
          "name": "ACL_ADMIN_CANNOT_BE_ZERO",
          "outputs": [
            {
              "internalType": "string",
              "name": "",
              "type": "string"
            }
          ],
          "stateMutability": "view",
          "type": "function"
        },
        {
          "inputs": [],
          "name": "ADDRESSES_PROVIDER_ALREADY_ADDED",
          "outputs": [
            {
              "internalType": "string",
              "name": "",
              "type": "string"
            }
          ],
          "stateMutability": "view",
          "type": "function"
        },
        {
          "inputs": [],
          "name": "ADDRESSES_PROVIDER_NOT_REGISTERED",
          "outputs": [
            {
              "internalType": "string",
              "name": "",
              "type": "string"
            }
          ],
          "stateMutability": "view",
          "type": "function"
        },
        {
          "inputs": [],
          "name": "AMOUNT_BIGGER_THAN_MAX_LOAN_SIZE_STABLE",
          "outputs": [
            {
              "internalType": "string",
              "name": "",
              "type": "string"
            }
          ],
          "stateMutability": "view",
          "type": "function"
        },
        {
          "inputs": [],
          "name": "ASSET_NOT_BORROWABLE_IN_ISOLATION",
          "outputs": [
            {
              "internalType": "string",
              "name": "",
              "type": "string"
            }
          ],
          "stateMutability": "view",
          "type": "function"
        },
        {
          "inputs": [],
          "name": "ASSET_NOT_LISTED",
          "outputs": [
            {
              "internalType": "string",
              "name": "",
              "type": "string"
            }
          ],
          "stateMutability": "view",
          "type": "function"
        },
        {
          "inputs": [],
          "name": "ATOKEN_SUPPLY_NOT_ZERO",
          "outputs": [
            {
              "internalType": "string",
              "name": "",
              "type": "string"
            }
          ],
          "stateMutability": "view",
          "type": "function"
        },
        {
          "inputs": [],
          "name": "BORROWING_NOT_ENABLED",
          "outputs": [
            {
              "internalType": "string",
              "name": "",
              "type": "string"
            }
          ],
          "stateMutability": "view",
          "type": "function"
        },
        {
          "inputs": [],
          "name": "BORROW_CAP_EXCEEDED",
          "outputs": [
            {
              "internalType": "string",
              "name": "",
              "type": "string"
            }
          ],
          "stateMutability": "view",
          "type": "function"
        },
        {
          "inputs": [],
          "name": "BRIDGE_PROTOCOL_FEE_INVALID",
          "outputs": [
            {
              "internalType": "string",
              "name": "",
              "type": "string"
            }
          ],
          "stateMutability": "view",
          "type": "function"
        },
        {
          "inputs": [],
          "name": "CALLER_MUST_BE_POOL",
          "outputs": [
            {
              "internalType": "string",
              "name": "",
              "type": "string"
            }
          ],
          "stateMutability": "view",
          "type": "function"
        },
        {
          "inputs": [],
          "name": "CALLER_NOT_ASSET_LISTING_OR_POOL_ADMIN",
          "outputs": [
            {
              "internalType": "string",
              "name": "",
              "type": "string"
            }
          ],
          "stateMutability": "view",
          "type": "function"
        },
        {
          "inputs": [],
          "name": "CALLER_NOT_ATOKEN",
          "outputs": [
            {
              "internalType": "string",
              "name": "",
              "type": "string"
            }
          ],
          "stateMutability": "view",
          "type": "function"
        },
        {
          "inputs": [],
          "name": "CALLER_NOT_BRIDGE",
          "outputs": [
            {
              "internalType": "string",
              "name": "",
              "type": "string"
            }
          ],
          "stateMutability": "view",
          "type": "function"
        },
        {
          "inputs": [],
          "name": "CALLER_NOT_EMERGENCY_ADMIN",
          "outputs": [
            {
              "internalType": "string",
              "name": "",
              "type": "string"
            }
          ],
          "stateMutability": "view",
          "type": "function"
        },
        {
          "inputs": [],
          "name": "CALLER_NOT_POOL_ADMIN",
          "outputs": [
            {
              "internalType": "string",
              "name": "",
              "type": "string"
            }
          ],
          "stateMutability": "view",
          "type": "function"
        },
        {
          "inputs": [],
          "name": "CALLER_NOT_POOL_CONFIGURATOR",
          "outputs": [
            {
              "internalType": "string",
              "name": "",
              "type": "string"
            }
          ],
          "stateMutability": "view",
          "type": "function"
        },
        {
          "inputs": [],
          "name": "CALLER_NOT_POOL_OR_EMERGENCY_ADMIN",
          "outputs": [
            {
              "internalType": "string",
              "name": "",
              "type": "string"
            }
          ],
          "stateMutability": "view",
          "type": "function"
        },
        {
          "inputs": [],
          "name": "CALLER_NOT_RISK_OR_POOL_ADMIN",
          "outputs": [
            {
              "internalType": "string",
              "name": "",
              "type": "string"
            }
          ],
          "stateMutability": "view",
          "type": "function"
        },
        {
          "inputs": [],
          "name": "COLLATERAL_BALANCE_IS_ZERO",
          "outputs": [
            {
              "internalType": "string",
              "name": "",
              "type": "string"
            }
          ],
          "stateMutability": "view",
          "type": "function"
        },
        {
          "inputs": [],
          "name": "COLLATERAL_CANNOT_BE_LIQUIDATED",
          "outputs": [
            {
              "internalType": "string",
              "name": "",
              "type": "string"
            }
          ],
          "stateMutability": "view",
          "type": "function"
        },
        {
          "inputs": [],
          "name": "COLLATERAL_CANNOT_COVER_NEW_BORROW",
          "outputs": [
            {
              "internalType": "string",
              "name": "",
              "type": "string"
            }
          ],
          "stateMutability": "view",
          "type": "function"
        },
        {
          "inputs": [],
          "name": "COLLATERAL_SAME_AS_BORROWING_CURRENCY",
          "outputs": [
            {
              "internalType": "string",
              "name": "",
              "type": "string"
            }
          ],
          "stateMutability": "view",
          "type": "function"
        },
        {
          "inputs": [],
          "name": "DEBT_CEILING_EXCEEDED",
          "outputs": [
            {
              "internalType": "string",
              "name": "",
              "type": "string"
            }
          ],
          "stateMutability": "view",
          "type": "function"
        },
        {
          "inputs": [],
          "name": "DEBT_CEILING_NOT_ZERO",
          "outputs": [
            {
              "internalType": "string",
              "name": "",
              "type": "string"
            }
          ],
          "stateMutability": "view",
          "type": "function"
        },
        {
          "inputs": [],
          "name": "EMODE_CATEGORY_RESERVED",
          "outputs": [
            {
              "internalType": "string",
              "name": "",
              "type": "string"
            }
          ],
          "stateMutability": "view",
          "type": "function"
        },
        {
          "inputs": [],
          "name": "FLASHLOAN_PREMIUM_INVALID",
          "outputs": [
            {
              "internalType": "string",
              "name": "",
              "type": "string"
            }
          ],
          "stateMutability": "view",
          "type": "function"
        },
        {
          "inputs": [],
          "name": "HEALTH_FACTOR_LOWER_THAN_LIQUIDATION_THRESHOLD",
          "outputs": [
            {
              "internalType": "string",
              "name": "",
              "type": "string"
            }
          ],
          "stateMutability": "view",
          "type": "function"
        },
        {
          "inputs": [],
          "name": "HEALTH_FACTOR_NOT_BELOW_THRESHOLD",
          "outputs": [
            {
              "internalType": "string",
              "name": "",
              "type": "string"
            }
          ],
          "stateMutability": "view",
          "type": "function"
        },
        {
          "inputs": [],
          "name": "INCONSISTENT_EMODE_CATEGORY",
          "outputs": [
            {
              "internalType": "string",
              "name": "",
              "type": "string"
            }
          ],
          "stateMutability": "view",
          "type": "function"
        },
        {
          "inputs": [],
          "name": "INCONSISTENT_FLASHLOAN_PARAMS",
          "outputs": [
            {
              "internalType": "string",
              "name": "",
              "type": "string"
            }
          ],
          "stateMutability": "view",
          "type": "function"
        },
        {
          "inputs": [],
          "name": "INCONSISTENT_PARAMS_LENGTH",
          "outputs": [
            {
              "internalType": "string",
              "name": "",
              "type": "string"
            }
          ],
          "stateMutability": "view",
          "type": "function"
        },
        {
          "inputs": [],
          "name": "INTEREST_RATE_REBALANCE_CONDITIONS_NOT_MET",
          "outputs": [
            {
              "internalType": "string",
              "name": "",
              "type": "string"
            }
          ],
          "stateMutability": "view",
          "type": "function"
        },
        {
          "inputs": [],
          "name": "INVALID_ADDRESSES_PROVIDER",
          "outputs": [
            {
              "internalType": "string",
              "name": "",
              "type": "string"
            }
          ],
          "stateMutability": "view",
          "type": "function"
        },
        {
          "inputs": [],
          "name": "INVALID_ADDRESSES_PROVIDER_ID",
          "outputs": [
            {
              "internalType": "string",
              "name": "",
              "type": "string"
            }
          ],
          "stateMutability": "view",
          "type": "function"
        },
        {
          "inputs": [],
          "name": "INVALID_AMOUNT",
          "outputs": [
            {
              "internalType": "string",
              "name": "",
              "type": "string"
            }
          ],
          "stateMutability": "view",
          "type": "function"
        },
        {
          "inputs": [],
          "name": "INVALID_BORROW_CAP",
          "outputs": [
            {
              "internalType": "string",
              "name": "",
              "type": "string"
            }
          ],
          "stateMutability": "view",
          "type": "function"
        },
        {
          "inputs": [],
          "name": "INVALID_BURN_AMOUNT",
          "outputs": [
            {
              "internalType": "string",
              "name": "",
              "type": "string"
            }
          ],
          "stateMutability": "view",
          "type": "function"
        },
        {
          "inputs": [],
          "name": "INVALID_DEBT_CEILING",
          "outputs": [
            {
              "internalType": "string",
              "name": "",
              "type": "string"
            }
          ],
          "stateMutability": "view",
          "type": "function"
        },
        {
          "inputs": [],
          "name": "INVALID_DECIMALS",
          "outputs": [
            {
              "internalType": "string",
              "name": "",
              "type": "string"
            }
          ],
          "stateMutability": "view",
          "type": "function"
        },
        {
          "inputs": [],
          "name": "INVALID_EMODE_CATEGORY",
          "outputs": [
            {
              "internalType": "string",
              "name": "",
              "type": "string"
            }
          ],
          "stateMutability": "view",
          "type": "function"
        },
        {
          "inputs": [],
          "name": "INVALID_EMODE_CATEGORY_ASSIGNMENT",
          "outputs": [
            {
              "internalType": "string",
              "name": "",
              "type": "string"
            }
          ],
          "stateMutability": "view",
          "type": "function"
        },
        {
          "inputs": [],
          "name": "INVALID_EMODE_CATEGORY_PARAMS",
          "outputs": [
            {
              "internalType": "string",
              "name": "",
              "type": "string"
            }
          ],
          "stateMutability": "view",
          "type": "function"
        },
        {
          "inputs": [],
          "name": "INVALID_EXPIRATION",
          "outputs": [
            {
              "internalType": "string",
              "name": "",
              "type": "string"
            }
          ],
          "stateMutability": "view",
          "type": "function"
        },
        {
          "inputs": [],
          "name": "INVALID_FLASHLOAN_EXECUTOR_RETURN",
          "outputs": [
            {
              "internalType": "string",
              "name": "",
              "type": "string"
            }
          ],
          "stateMutability": "view",
          "type": "function"
        },
        {
          "inputs": [],
          "name": "INVALID_INTEREST_RATE_MODE_SELECTED",
          "outputs": [
            {
              "internalType": "string",
              "name": "",
              "type": "string"
            }
          ],
          "stateMutability": "view",
          "type": "function"
        },
        {
          "inputs": [],
          "name": "INVALID_LIQUIDATION_PROTOCOL_FEE",
          "outputs": [
            {
              "internalType": "string",
              "name": "",
              "type": "string"
            }
          ],
          "stateMutability": "view",
          "type": "function"
        },
        {
          "inputs": [],
          "name": "INVALID_LIQ_BONUS",
          "outputs": [
            {
              "internalType": "string",
              "name": "",
              "type": "string"
            }
          ],
          "stateMutability": "view",
          "type": "function"
        },
        {
          "inputs": [],
          "name": "INVALID_LIQ_THRESHOLD",
          "outputs": [
            {
              "internalType": "string",
              "name": "",
              "type": "string"
            }
          ],
          "stateMutability": "view",
          "type": "function"
        },
        {
          "inputs": [],
          "name": "INVALID_LTV",
          "outputs": [
            {
              "internalType": "string",
              "name": "",
              "type": "string"
            }
          ],
          "stateMutability": "view",
          "type": "function"
        },
        {
          "inputs": [],
          "name": "INVALID_MINT_AMOUNT",
          "outputs": [
            {
              "internalType": "string",
              "name": "",
              "type": "string"
            }
          ],
          "stateMutability": "view",
          "type": "function"
        },
        {
          "inputs": [],
          "name": "INVALID_OPTIMAL_STABLE_TO_TOTAL_DEBT_RATIO",
          "outputs": [
            {
              "internalType": "string",
              "name": "",
              "type": "string"
            }
          ],
          "stateMutability": "view",
          "type": "function"
        },
        {
          "inputs": [],
          "name": "INVALID_OPTIMAL_USAGE_RATIO",
          "outputs": [
            {
              "internalType": "string",
              "name": "",
              "type": "string"
            }
          ],
          "stateMutability": "view",
          "type": "function"
        },
        {
          "inputs": [],
          "name": "INVALID_RESERVE_FACTOR",
          "outputs": [
            {
              "internalType": "string",
              "name": "",
              "type": "string"
            }
          ],
          "stateMutability": "view",
          "type": "function"
        },
        {
          "inputs": [],
          "name": "INVALID_RESERVE_INDEX",
          "outputs": [
            {
              "internalType": "string",
              "name": "",
              "type": "string"
            }
          ],
          "stateMutability": "view",
          "type": "function"
        },
        {
          "inputs": [],
          "name": "INVALID_RESERVE_PARAMS",
          "outputs": [
            {
              "internalType": "string",
              "name": "",
              "type": "string"
            }
          ],
          "stateMutability": "view",
          "type": "function"
        },
        {
          "inputs": [],
          "name": "INVALID_SIGNATURE",
          "outputs": [
            {
              "internalType": "string",
              "name": "",
              "type": "string"
            }
          ],
          "stateMutability": "view",
          "type": "function"
        },
        {
          "inputs": [],
          "name": "INVALID_SUPPLY_CAP",
          "outputs": [
            {
              "internalType": "string",
              "name": "",
              "type": "string"
            }
          ],
          "stateMutability": "view",
          "type": "function"
        },
        {
          "inputs": [],
          "name": "INVALID_UNBACKED_MINT_CAP",
          "outputs": [
            {
              "internalType": "string",
              "name": "",
              "type": "string"
            }
          ],
          "stateMutability": "view",
          "type": "function"
        },
        {
          "inputs": [],
          "name": "LTV_VALIDATION_FAILED",
          "outputs": [
            {
              "internalType": "string",
              "name": "",
              "type": "string"
            }
          ],
          "stateMutability": "view",
          "type": "function"
        },
        {
          "inputs": [],
          "name": "NOT_CONTRACT",
          "outputs": [
            {
              "internalType": "string",
              "name": "",
              "type": "string"
            }
          ],
          "stateMutability": "view",
          "type": "function"
        },
        {
          "inputs": [],
          "name": "NOT_ENOUGH_AVAILABLE_USER_BALANCE",
          "outputs": [
            {
              "internalType": "string",
              "name": "",
              "type": "string"
            }
          ],
          "stateMutability": "view",
          "type": "function"
        },
        {
          "inputs": [],
          "name": "NO_DEBT_OF_SELECTED_TYPE",
          "outputs": [
            {
              "internalType": "string",
              "name": "",
              "type": "string"
            }
          ],
          "stateMutability": "view",
          "type": "function"
        },
        {
          "inputs": [],
          "name": "NO_EXPLICIT_AMOUNT_TO_REPAY_ON_BEHALF",
          "outputs": [
            {
              "internalType": "string",
              "name": "",
              "type": "string"
            }
          ],
          "stateMutability": "view",
          "type": "function"
        },
        {
          "inputs": [],
          "name": "NO_MORE_RESERVES_ALLOWED",
          "outputs": [
            {
              "internalType": "string",
              "name": "",
              "type": "string"
            }
          ],
          "stateMutability": "view",
          "type": "function"
        },
        {
          "inputs": [],
          "name": "NO_OUTSTANDING_STABLE_DEBT",
          "outputs": [
            {
              "internalType": "string",
              "name": "",
              "type": "string"
            }
          ],
          "stateMutability": "view",
          "type": "function"
        },
        {
          "inputs": [],
          "name": "NO_OUTSTANDING_VARIABLE_DEBT",
          "outputs": [
            {
              "internalType": "string",
              "name": "",
              "type": "string"
            }
          ],
          "stateMutability": "view",
          "type": "function"
        },
        {
          "inputs": [],
          "name": "OPERATION_NOT_SUPPORTED",
          "outputs": [
            {
              "internalType": "string",
              "name": "",
              "type": "string"
            }
          ],
          "stateMutability": "view",
          "type": "function"
        },
        {
          "inputs": [],
          "name": "POOL_ADDRESSES_DO_NOT_MATCH",
          "outputs": [
            {
              "internalType": "string",
              "name": "",
              "type": "string"
            }
          ],
          "stateMutability": "view",
          "type": "function"
        },
        {
          "inputs": [],
          "name": "PRICE_ORACLE_SENTINEL_CHECK_FAILED",
          "outputs": [
            {
              "internalType": "string",
              "name": "",
              "type": "string"
            }
          ],
          "stateMutability": "view",
          "type": "function"
        },
        {
          "inputs": [],
          "name": "RESERVE_ALREADY_ADDED",
          "outputs": [
            {
              "internalType": "string",
              "name": "",
              "type": "string"
            }
          ],
          "stateMutability": "view",
          "type": "function"
        },
        {
          "inputs": [],
          "name": "RESERVE_ALREADY_INITIALIZED",
          "outputs": [
            {
              "internalType": "string",
              "name": "",
              "type": "string"
            }
          ],
          "stateMutability": "view",
          "type": "function"
        },
        {
          "inputs": [],
          "name": "RESERVE_DEBT_NOT_ZERO",
          "outputs": [
            {
              "internalType": "string",
              "name": "",
              "type": "string"
            }
          ],
          "stateMutability": "view",
          "type": "function"
        },
        {
          "inputs": [],
          "name": "RESERVE_FROZEN",
          "outputs": [
            {
              "internalType": "string",
              "name": "",
              "type": "string"
            }
          ],
          "stateMutability": "view",
          "type": "function"
        },
        {
          "inputs": [],
          "name": "RESERVE_INACTIVE",
          "outputs": [
            {
              "internalType": "string",
              "name": "",
              "type": "string"
            }
          ],
          "stateMutability": "view",
          "type": "function"
        },
        {
          "inputs": [],
          "name": "RESERVE_LIQUIDITY_NOT_ZERO",
          "outputs": [
            {
              "internalType": "string",
              "name": "",
              "type": "string"
            }
          ],
          "stateMutability": "view",
          "type": "function"
        },
        {
          "inputs": [],
          "name": "RESERVE_PAUSED",
          "outputs": [
            {
              "internalType": "string",
              "name": "",
              "type": "string"
            }
          ],
          "stateMutability": "view",
          "type": "function"
        },
        {
          "inputs": [],
          "name": "SAME_BLOCK_BORROW_REPAY",
          "outputs": [
            {
              "internalType": "string",
              "name": "",
              "type": "string"
            }
          ],
          "stateMutability": "view",
          "type": "function"
        },
        {
          "inputs": [],
          "name": "SILOED_BORROWING_VIOLATION",
          "outputs": [
            {
              "internalType": "string",
              "name": "",
              "type": "string"
            }
          ],
          "stateMutability": "view",
          "type": "function"
        },
        {
          "inputs": [],
          "name": "SPECIFIED_CURRENCY_NOT_BORROWED_BY_USER",
          "outputs": [
            {
              "internalType": "string",
              "name": "",
              "type": "string"
            }
          ],
          "stateMutability": "view",
          "type": "function"
        },
        {
          "inputs": [],
          "name": "STABLE_BORROWING_ENABLED",
          "outputs": [
            {
              "internalType": "string",
              "name": "",
              "type": "string"
            }
          ],
          "stateMutability": "view",
          "type": "function"
        },
        {
          "inputs": [],
          "name": "STABLE_BORROWING_NOT_ENABLED",
          "outputs": [
            {
              "internalType": "string",
              "name": "",
              "type": "string"
            }
          ],
          "stateMutability": "view",
          "type": "function"
        },
        {
          "inputs": [],
          "name": "STABLE_DEBT_NOT_ZERO",
          "outputs": [
            {
              "internalType": "string",
              "name": "",
              "type": "string"
            }
          ],
          "stateMutability": "view",
          "type": "function"
        },
        {
          "inputs": [],
          "name": "SUPPLY_CAP_EXCEEDED",
          "outputs": [
            {
              "internalType": "string",
              "name": "",
              "type": "string"
            }
          ],
          "stateMutability": "view",
          "type": "function"
        },
        {
          "inputs": [],
          "name": "UNBACKED_MINT_CAP_EXCEEDED",
          "outputs": [
            {
              "internalType": "string",
              "name": "",
              "type": "string"
            }
          ],
          "stateMutability": "view",
          "type": "function"
        },
        {
          "inputs": [],
          "name": "UNDERLYING_BALANCE_ZERO",
          "outputs": [
            {
              "internalType": "string",
              "name": "",
              "type": "string"
            }
          ],
          "stateMutability": "view",
          "type": "function"
        },
        {
          "inputs": [],
          "name": "UNDERLYING_CANNOT_BE_RESCUED",
          "outputs": [
            {
              "internalType": "string",
              "name": "",
              "type": "string"
            }
          ],
          "stateMutability": "view",
          "type": "function"
        },
        {
          "inputs": [],
          "name": "USER_IN_ISOLATION_MODE",
          "outputs": [
            {
              "internalType": "string",
              "name": "",
              "type": "string"
            }
          ],
          "stateMutability": "view",
          "type": "function"
        },
        {
          "inputs": [],
          "name": "VARIABLE_DEBT_SUPPLY_NOT_ZERO",
          "outputs": [
            {
              "internalType": "string",
              "name": "",
              "type": "string"
            }
          ],
          "stateMutability": "view",
          "type": "function"
        },
        {
          "inputs": [],
          "name": "ZERO_ADDRESS_NOT_VALID",
          "outputs": [
            {
              "internalType": "string",
              "name": "",
              "type": "string"
            }
          ],
          "stateMutability": "view",
          "type": "function"
        }
      ],
      "devdoc": {
        "author": "Aave",
        "kind": "dev",
        "methods": {},
        "title": "Errors library",
        "version": 1
      },
      "evm": {
        "assembly": "    /* \"protocol/libraries/helpers/Errors.sol\":205:9828  library Errors {... */\n  dataSize(sub_0)\n  dataOffset(sub_0)\n  0x0b\n  dup3\n  dup3\n  dup3\n  codecopy\n  dup1\n  mload\n  0x00\n  byte\n  0x73\n  eq\n  tag_1\n  jumpi\n  mstore(0x00, 0x4e487b7100000000000000000000000000000000000000000000000000000000)\n  mstore(0x04, 0x00)\n  revert(0x00, 0x24)\ntag_1:\n  mstore(0x00, address)\n  0x73\n  dup2\n  mstore8\n  dup3\n  dup2\n  return\nstop\n\nsub_0: assembly {\n        /* \"protocol/libraries/helpers/Errors.sol\":205:9828  library Errors {... */\n      eq(address, deployTimeAddress())\n      mstore(0x40, 0x80)\n      jumpi(tag_1, lt(calldatasize, 0x04))\n      shr(0xe0, calldataload(0x00))\n      dup1\n      0x89c5d45f\n      gt\n      tag_92\n      jumpi\n      dup1\n      0xbad8308c\n      gt\n      tag_93\n      jumpi\n      dup1\n      0xdd1dd95f\n      gt\n      tag_94\n      jumpi\n      dup1\n      0xf07f6785\n      gt\n      tag_95\n      jumpi\n      dup1\n      0xf07f6785\n      eq\n      tag_86\n      jumpi\n      dup1\n      0xf10727db\n      eq\n      tag_87\n      jumpi\n      dup1\n      0xf479ea11\n      eq\n      tag_88\n      jumpi\n      dup1\n      0xfa163a83\n      eq\n      tag_89\n      jumpi\n      dup1\n      0xfae82791\n      eq\n      tag_90\n      jumpi\n      dup1\n      0xfd1828ff\n      eq\n      tag_91\n      jumpi\n      jump(tag_1)\n    tag_95:\n      dup1\n      0xdd1dd95f\n      eq\n      tag_80\n      jumpi\n      dup1\n      0xde24948c\n      eq\n      tag_81\n      jumpi\n      dup1\n      0xe02f07ee\n      eq\n      tag_82\n      jumpi\n      dup1\n      0xe3fa20f5\n      eq\n      tag_83\n      jumpi\n      dup1\n      0xe4dd8b74\n      eq\n      tag_84\n      jumpi\n      dup1\n      0xe981483a\n      eq\n      tag_85\n      jumpi\n      jump(tag_1)\n    tag_94:\n      dup1\n      0xd14bb17a\n      gt\n      tag_96\n      jumpi\n      dup1\n      0xd14bb17a\n      eq\n      tag_74\n      jumpi\n      dup1\n      0xd1cd8b1d\n      eq\n      tag_75\n      jumpi\n      dup1\n      0xd6f9fcde\n      eq\n      tag_76\n      jumpi\n      dup1\n      0xd9adda85\n      eq\n      tag_77\n      jumpi\n      dup1\n      0xdc191bd9\n      eq\n      tag_78\n      jumpi\n      dup1\n      0xdcc56db6\n      eq\n      tag_79\n      jumpi\n      jump(tag_1)\n    tag_96:\n      dup1\n      0xbad8308c\n      eq\n      tag_69\n      jumpi\n      dup1\n      0xc08a1146\n      eq\n      tag_70\n      jumpi\n      dup1\n      0xc8638082\n      eq\n      tag_71\n      jumpi\n      dup1\n      0xc899301a\n      eq\n      tag_72\n      jumpi\n      dup1\n      0xcd23367c\n      eq\n      tag_73\n      jumpi\n      jump(tag_1)\n    tag_93:\n      dup1\n      0xa4868dca\n      gt\n      tag_97\n      jumpi\n      dup1\n      0xb0510054\n      gt\n      tag_98\n      jumpi\n      dup1\n      0xb0510054\n      eq\n      tag_63\n      jumpi\n      dup1\n      0xb4a45730\n      eq\n      tag_64\n      jumpi\n      dup1\n      0xb5e79366\n      eq\n      tag_65\n      jumpi\n      dup1\n      0xb68774e9\n      eq\n      tag_66\n      jumpi\n      dup1\n      0xb7f5e224\n      eq\n      tag_67\n      jumpi\n      dup1\n      0xb87041c2\n      eq\n      tag_68\n      jumpi\n      jump(tag_1)\n    tag_98:\n      dup1\n      0xa4868dca\n      eq\n      tag_58\n      jumpi\n      dup1\n      0xa8c97853\n      eq\n      tag_59\n      jumpi\n      dup1\n      0xab883ca0\n      eq\n      tag_60\n      jumpi\n      dup1\n      0xabd351b1\n      eq\n      tag_61\n      jumpi\n      dup1\n      0xac753236\n      eq\n      tag_62\n      jumpi\n      jump(tag_1)\n    tag_97:\n      dup1\n      0x952633c5\n      gt\n      tag_99\n      jumpi\n      dup1\n      0x952633c5\n      eq\n      tag_52\n      jumpi\n      dup1\n      0x9527e9d9\n      eq\n      tag_53\n      jumpi\n      dup1\n      0x99ce53f3\n      eq\n      tag_54\n      jumpi\n      dup1\n      0xa2797c80\n      eq\n      tag_55\n      jumpi\n      dup1\n      0xa2e976c6\n      eq\n      tag_56\n      jumpi\n      dup1\n      0xa3402a38\n      eq\n      tag_57\n      jumpi\n      jump(tag_1)\n    tag_99:\n      dup1\n      0x89c5d45f\n      eq\n      tag_47\n      jumpi\n      dup1\n      0x8a344000\n      eq\n      tag_48\n      jumpi\n      dup1\n      0x8b8b98d7\n      eq\n      tag_49\n      jumpi\n      dup1\n      0x8eda46bd\n      eq\n      tag_50\n      jumpi\n      dup1\n      0x8f7722b2\n      eq\n      tag_51\n      jumpi\n      jump(tag_1)\n    tag_92:\n      dup1\n      0x4e3aed37\n      gt\n      tag_100\n      jumpi\n      dup1\n      0x6b3f7cc7\n      gt\n      tag_101\n      jumpi\n      dup1\n      0x747fa556\n      gt\n      tag_102\n      jumpi\n      dup1\n      0x747fa556\n      eq\n      tag_41\n      jumpi\n      dup1\n      0x76ae8fca\n      eq\n      tag_42\n      jumpi\n      dup1\n      0x7aa0767e\n      eq\n      tag_43\n      jumpi\n      dup1\n      0x7fea6f36\n      eq\n      tag_44\n      jumpi\n      dup1\n      0x8596aad5\n      eq\n      tag_45\n      jumpi\n      dup1\n      0x895f7dc8\n      eq\n      tag_46\n      jumpi\n      jump(tag_1)\n    tag_102:\n      dup1\n      0x6b3f7cc7\n      eq\n      tag_35\n      jumpi\n      dup1\n      0x6cd3cfbc\n      eq\n      tag_36\n      jumpi\n      dup1\n      0x712f536a\n      eq\n      tag_37\n      jumpi\n      dup1\n      0x73dea5e3\n      eq\n      tag_38\n      jumpi\n      dup1\n      0x744465cc\n      eq\n      tag_39\n      jumpi\n      dup1\n      0x74459b14\n      eq\n      tag_40\n      jumpi\n      jump(tag_1)\n    tag_101:\n      dup1\n      0x570e3547\n      gt\n      tag_103\n      jumpi\n      dup1\n      0x570e3547\n      eq\n      tag_29\n      jumpi\n      dup1\n      0x5d9c76c0\n      eq\n      tag_30\n      jumpi\n      dup1\n      0x60c3de80\n      eq\n      tag_31\n      jumpi\n      dup1\n      0x61c111d2\n      eq\n      tag_32\n      jumpi\n      dup1\n      0x65a83bab\n      eq\n      tag_33\n      jumpi\n      dup1\n      0x65e7ef4c\n      eq\n      tag_34\n      jumpi\n      jump(tag_1)\n    tag_103:\n      dup1\n      0x4e3aed37\n      eq\n      tag_24\n      jumpi\n      dup1\n      0x4ef999ff\n      eq\n      tag_25\n      jumpi\n      dup1\n      0x4f77647b\n      eq\n      tag_26\n      jumpi\n      dup1\n      0x51267450\n      eq\n      tag_27\n      jumpi\n      dup1\n      0x52ba9dbe\n      eq\n      tag_28\n      jumpi\n      jump(tag_1)\n    tag_100:\n      dup1\n      0x2eed17e8\n      gt\n      tag_104\n      jumpi\n      dup1\n      0x471df685\n      gt\n      tag_105\n      jumpi\n      dup1\n      0x471df685\n      eq\n      tag_18\n      jumpi\n      dup1\n      0x47ba93d8\n      eq\n      tag_19\n      jumpi\n      dup1\n      0x47cf1523\n      eq\n      tag_20\n      jumpi\n      dup1\n      0x485c8ff6\n      eq\n      tag_21\n      jumpi\n      dup1\n      0x4d86f393\n      eq\n      tag_22\n      jumpi\n      dup1\n      0x4e01e3c1\n      eq\n      tag_23\n      jumpi\n      jump(tag_1)\n    tag_105:\n      dup1\n      0x2eed17e8\n      eq\n      tag_13\n      jumpi\n      dup1\n      0x335763de\n      eq\n      tag_14\n      jumpi\n      dup1\n      0x366eb54d\n      eq\n      tag_15\n      jumpi\n      dup1\n      0x37930782\n      eq\n      tag_16\n      jumpi\n      dup1\n      0x43e97c6b\n      eq\n      tag_17\n      jumpi\n      jump(tag_1)\n    tag_104:\n      dup1\n      0x1abbb001\n      gt\n      tag_106\n      jumpi\n      dup1\n      0x1abbb001\n      eq\n      tag_7\n      jumpi\n      dup1\n      0x22a73446\n      eq\n      tag_8\n      jumpi\n      dup1\n      0x26bbd053\n      eq\n      tag_9\n      jumpi\n      dup1\n      0x26e7b312\n      eq\n      tag_10\n      jumpi\n      dup1\n      0x2926c971\n      eq\n      tag_11\n      jumpi\n      dup1\n      0x2c8e3b4c\n      eq\n      tag_12\n      jumpi\n      jump(tag_1)\n    tag_106:\n      dup1\n      0x084dfa0d\n      eq\n      tag_2\n      jumpi\n      dup1\n      0x11d7b006\n      eq\n      tag_3\n      jumpi\n      dup1\n      0x12dcade8\n      eq\n      tag_4\n      jumpi\n      dup1\n      0x14dcfbbc\n      eq\n      tag_5\n      jumpi\n      dup1\n      0x198d6a6b\n      eq\n      tag_6\n      jumpi\n    tag_1:\n      0x00\n      dup1\n      revert\n        /* \"protocol/libraries/helpers/Errors.sol\":2169:2225  string public constant RESERVE_LIQUIDITY_NOT_ZERO = '18' */\n    tag_2:\n      tag_107\n      tag_108\n      jump\t// in\n    tag_107:\n      mload(0x40)\n      tag_109\n      swap2\n      swap1\n      tag_110\n      jump\t// in\n    tag_109:\n      mload(0x40)\n      dup1\n      swap2\n      sub\n      swap1\n      return\n        /* \"protocol/libraries/helpers/Errors.sol\":1163:1204  string public constant NOT_CONTRACT = '9' */\n    tag_3:\n      tag_111\n      tag_112\n      jump\t// in\n    tag_111:\n      mload(0x40)\n      tag_113\n      swap2\n      swap1\n      tag_110\n      jump\t// in\n    tag_113:\n      mload(0x40)\n      dup1\n      swap2\n      sub\n      swap1\n      return\n        /* \"protocol/libraries/helpers/Errors.sol\":1709:1760  string public constant RESERVE_ALREADY_ADDED = '14' */\n    tag_4:\n      tag_114\n      tag_115\n      jump\t// in\n    tag_114:\n      mload(0x40)\n      tag_116\n      swap2\n      swap1\n      tag_110\n      jump\t// in\n    tag_116:\n      mload(0x40)\n      dup1\n      swap2\n      sub\n      swap1\n      return\n        /* \"protocol/libraries/helpers/Errors.sol\":9217:9279  string public constant ADDRESSES_PROVIDER_ALREADY_ADDED = '86' */\n    tag_5:\n      tag_117\n      tag_118\n      jump\t// in\n    tag_117:\n      mload(0x40)\n      tag_119\n      swap2\n      swap1\n      tag_110\n      jump\t// in\n    tag_119:\n      mload(0x40)\n      dup1\n      swap2\n      sub\n      swap1\n      return\n        /* \"protocol/libraries/helpers/Errors.sol\":9507:9561  string public constant STABLE_BORROWING_ENABLED = '88' */\n    tag_6:\n      tag_120\n      tag_121\n      jump\t// in\n    tag_120:\n      mload(0x40)\n      tag_122\n      swap2\n      swap1\n      tag_110\n      jump\t// in\n    tag_122:\n      mload(0x40)\n      dup1\n      swap2\n      sub\n      swap1\n      return\n        /* \"protocol/libraries/helpers/Errors.sol\":9335:9392  string public constant POOL_ADDRESSES_DO_NOT_MATCH = '87' */\n    tag_7:\n      tag_123\n      tag_124\n      jump\t// in\n    tag_123:\n      mload(0x40)\n      tag_125\n      swap2\n      swap1\n      tag_110\n      jump\t// in\n    tag_125:\n      mload(0x40)\n      dup1\n      swap2\n      sub\n      swap1\n      return\n        /* \"protocol/libraries/helpers/Errors.sol\":5418:5487  string public constant SPECIFIED_CURRENCY_NOT_BORROWED_BY_USER = '47' */\n    tag_8:\n      tag_126\n      tag_127\n      jump\t// in\n    tag_126:\n      mload(0x40)\n      tag_128\n      swap2\n      swap1\n      tag_110\n      jump\t// in\n    tag_128:\n      mload(0x40)\n      dup1\n      swap2\n      sub\n      swap1\n      return\n        /* \"protocol/libraries/helpers/Errors.sol\":7593:7641  string public constant INVALID_SUPPLY_CAP = '69' */\n    tag_9:\n      tag_129\n      tag_130\n      jump\t// in\n    tag_129:\n      mload(0x40)\n      tag_131\n      swap2\n      swap1\n      tag_110\n      jump\t// in\n    tag_131:\n      mload(0x40)\n      dup1\n      swap2\n      sub\n      swap1\n      return\n        /* \"protocol/libraries/helpers/Errors.sol\":447:510  string public constant CALLER_NOT_POOL_OR_EMERGENCY_ADMIN = '3' */\n    tag_10:\n      tag_132\n      tag_133\n      jump\t// in\n    tag_132:\n      mload(0x40)\n      tag_134\n      swap2\n      swap1\n      tag_110\n      jump\t// in\n    tag_134:\n      mload(0x40)\n      dup1\n      swap2\n      sub\n      swap1\n      return\n        /* \"protocol/libraries/helpers/Errors.sol\":5063:5135  string public constant INTEREST_RATE_REBALANCE_CONDITIONS_NOT_MET = '44' */\n    tag_11:\n      tag_135\n      tag_136\n      jump\t// in\n    tag_135:\n      mload(0x40)\n      tag_137\n      swap2\n      swap1\n      tag_110\n      jump\t// in\n    tag_137:\n      mload(0x40)\n      dup1\n      swap2\n      sub\n      swap1\n      return\n        /* \"protocol/libraries/helpers/Errors.sol\":701:768  string public constant CALLER_NOT_ASSET_LISTING_OR_POOL_ADMIN = '5' */\n    tag_12:\n      tag_138\n      tag_139\n      jump\t// in\n    tag_138:\n      mload(0x40)\n      tag_140\n      swap2\n      swap1\n      tag_110\n      jump\t// in\n    tag_140:\n      mload(0x40)\n      dup1\n      swap2\n      sub\n      swap1\n      return\n        /* \"protocol/libraries/helpers/Errors.sol\":5749:5798  string public constant BORROW_CAP_EXCEEDED = '50' */\n    tag_13:\n      tag_141\n      tag_142\n      jump\t// in\n    tag_141:\n      mload(0x40)\n      tag_143\n      swap2\n      swap1\n      tag_110\n      jump\t// in\n    tag_143:\n      mload(0x40)\n      dup1\n      swap2\n      sub\n      swap1\n      return\n        /* \"protocol/libraries/helpers/Errors.sol\":2367:2419  string public constant INVALID_RESERVE_PARAMS = '20' */\n    tag_14:\n      tag_144\n      tag_145\n      jump\t// in\n    tag_144:\n      mload(0x40)\n      tag_146\n      swap2\n      swap1\n      tag_110\n      jump\t// in\n    tag_146:\n      mload(0x40)\n      dup1\n      swap2\n      sub\n      swap1\n      return\n        /* \"protocol/libraries/helpers/Errors.sol\":3844:3920  string public constant HEALTH_FACTOR_LOWER_THAN_LIQUIDATION_THRESHOLD = '35' */\n    tag_15:\n      tag_147\n      tag_148\n      jump\t// in\n    tag_147:\n      mload(0x40)\n      tag_149\n      swap2\n      swap1\n      tag_110\n      jump\t// in\n    tag_149:\n      mload(0x40)\n      dup1\n      swap2\n      sub\n      swap1\n      return\n        /* \"protocol/libraries/helpers/Errors.sol\":1462:1518  string public constant INVALID_ADDRESSES_PROVIDER = '12' */\n    tag_16:\n      tag_150\n      tag_151\n      jump\t// in\n    tag_150:\n      mload(0x40)\n      tag_152\n      swap2\n      swap1\n      tag_110\n      jump\t// in\n    tag_152:\n      mload(0x40)\n      dup1\n      swap2\n      sub\n      swap1\n      return\n        /* \"protocol/libraries/helpers/Errors.sol\":6091:6143  string public constant ATOKEN_SUPPLY_NOT_ZERO = '54' */\n    tag_17:\n      tag_153\n      tag_154\n      jump\t// in\n    tag_153:\n      mload(0x40)\n      tag_155\n      swap2\n      swap1\n      tag_110\n      jump\t// in\n    tag_155:\n      mload(0x40)\n      dup1\n      swap2\n      sub\n      swap1\n      return\n        /* \"protocol/libraries/helpers/Errors.sol\":2677:2726  string public constant CALLER_MUST_BE_POOL = '23' */\n    tag_18:\n      tag_156\n      tag_157\n      jump\t// in\n    tag_156:\n      mload(0x40)\n      tag_158\n      swap2\n      swap1\n      tag_110\n      jump\t// in\n    tag_158:\n      mload(0x40)\n      dup1\n      swap2\n      sub\n      swap1\n      return\n        /* \"protocol/libraries/helpers/Errors.sol\":7905:7960  string public constant INVALID_UNBACKED_MINT_CAP = '72' */\n    tag_19:\n      tag_159\n      tag_160\n      jump\t// in\n    tag_159:\n      mload(0x40)\n      tag_161\n      swap2\n      swap1\n      tag_110\n      jump\t// in\n    tag_161:\n      mload(0x40)\n      dup1\n      swap2\n      sub\n      swap1\n      return\n        /* \"protocol/libraries/helpers/Errors.sol\":2468:2527  string public constant INVALID_EMODE_CATEGORY_PARAMS = '21' */\n    tag_20:\n      tag_162\n      tag_163\n      jump\t// in\n    tag_162:\n      mload(0x40)\n      tag_164\n      swap2\n      swap1\n      tag_110\n      jump\t// in\n    tag_164:\n      mload(0x40)\n      dup1\n      swap2\n      sub\n      swap1\n      return\n        /* \"protocol/libraries/helpers/Errors.sol\":330:385  string public constant CALLER_NOT_EMERGENCY_ADMIN = '2' */\n    tag_21:\n      tag_165\n      tag_166\n      jump\t// in\n    tag_165:\n      mload(0x40)\n      tag_167\n      swap2\n      swap1\n      tag_110\n      jump\t// in\n    tag_167:\n      mload(0x40)\n      dup1\n      swap2\n      sub\n      swap1\n      return\n        /* \"protocol/libraries/helpers/Errors.sol\":3417:3475  string public constant STABLE_BORROWING_NOT_ENABLED = '31' */\n    tag_22:\n      tag_168\n      tag_169\n      jump\t// in\n    tag_168:\n      mload(0x40)\n      tag_170\n      swap2\n      swap1\n      tag_110\n      jump\t// in\n    tag_170:\n      mload(0x40)\n      dup1\n      swap2\n      sub\n      swap1\n      return\n        /* \"protocol/libraries/helpers/Errors.sol\":3751:3807  string public constant COLLATERAL_BALANCE_IS_ZERO = '34' */\n    tag_23:\n      tag_171\n      tag_172\n      jump\t// in\n    tag_171:\n      mload(0x40)\n      tag_173\n      swap2\n      swap1\n      tag_110\n      jump\t// in\n    tag_173:\n      mload(0x40)\n      dup1\n      swap2\n      sub\n      swap1\n      return\n        /* \"protocol/libraries/helpers/Errors.sol\":8893:8950  string public constant INVALID_OPTIMAL_USAGE_RATIO = '83' */\n    tag_24:\n      tag_174\n      tag_175\n      jump\t// in\n    tag_174:\n      mload(0x40)\n      tag_176\n      swap2\n      swap1\n      tag_110\n      jump\t// in\n    tag_176:\n      mload(0x40)\n      dup1\n      swap2\n      sub\n      swap1\n      return\n        /* \"protocol/libraries/helpers/Errors.sol\":3332:3383  string public constant BORROWING_NOT_ENABLED = '30' */\n    tag_25:\n      tag_177\n      tag_178\n      jump\t// in\n    tag_177:\n      mload(0x40)\n      tag_179\n      swap2\n      swap1\n      tag_110\n      jump\t// in\n    tag_179:\n      mload(0x40)\n      dup1\n      swap2\n      sub\n      swap1\n      return\n        /* \"protocol/libraries/helpers/Errors.sol\":842:888  string public constant CALLER_NOT_BRIDGE = '6' */\n    tag_26:\n      tag_180\n      tag_181\n      jump\t// in\n    tag_180:\n      mload(0x40)\n      tag_182\n      swap2\n      swap1\n      tag_110\n      jump\t// in\n    tag_182:\n      mload(0x40)\n      dup1\n      swap2\n      sub\n      swap1\n      return\n        /* \"protocol/libraries/helpers/Errors.sol\":2859:2908  string public constant INVALID_BURN_AMOUNT = '25' */\n    tag_27:\n      tag_183\n      tag_184\n      jump\t// in\n    tag_183:\n      mload(0x40)\n      tag_185\n      swap2\n      swap1\n      tag_110\n      jump\t// in\n    tag_185:\n      mload(0x40)\n      dup1\n      swap2\n      sub\n      swap1\n      return\n        /* \"protocol/libraries/helpers/Errors.sol\":3023:3069  string public constant RESERVE_INACTIVE = '27' */\n    tag_28:\n      tag_186\n      tag_187\n      jump\t// in\n    tag_186:\n      mload(0x40)\n      tag_188\n      swap2\n      swap1\n      tag_110\n      jump\t// in\n    tag_188:\n      mload(0x40)\n      dup1\n      swap2\n      sub\n      swap1\n      return\n        /* \"protocol/libraries/helpers/Errors.sol\":5539:5592  string public constant SAME_BLOCK_BORROW_REPAY = '48' */\n    tag_29:\n      tag_189\n      tag_190\n      jump\t// in\n    tag_189:\n      mload(0x40)\n      tag_191\n      swap2\n      swap1\n      tag_110\n      jump\t// in\n    tag_191:\n      mload(0x40)\n      dup1\n      swap2\n      sub\n      swap1\n      return\n        /* \"protocol/libraries/helpers/Errors.sol\":2054:2117  string public constant INVALID_EMODE_CATEGORY_ASSIGNMENT = '17' */\n    tag_30:\n      tag_192\n      tag_193\n      jump\t// in\n    tag_192:\n      mload(0x40)\n      tag_194\n      swap2\n      swap1\n      tag_110\n      jump\t// in\n    tag_194:\n      mload(0x40)\n      dup1\n      swap2\n      sub\n      swap1\n      return\n        /* \"protocol/libraries/helpers/Errors.sol\":1053:1111  string public constant INVALID_ADDRESSES_PROVIDER_ID = '8' */\n    tag_31:\n      tag_195\n      tag_196\n      jump\t// in\n    tag_195:\n      mload(0x40)\n      tag_197\n      swap2\n      swap1\n      tag_110\n      jump\t// in\n    tag_197:\n      mload(0x40)\n      dup1\n      swap2\n      sub\n      swap1\n      return\n        /* \"protocol/libraries/helpers/Errors.sol\":1239:1297  string public constant CALLER_NOT_POOL_CONFIGURATOR = '10' */\n    tag_32:\n      tag_198\n      tag_199\n      jump\t// in\n    tag_198:\n      mload(0x40)\n      tag_200\n      swap2\n      swap1\n      tag_110\n      jump\t// in\n    tag_200:\n      mload(0x40)\n      dup1\n      swap2\n      sub\n      swap1\n      return\n        /* \"protocol/libraries/helpers/Errors.sol\":6006:6057  string public constant DEBT_CEILING_EXCEEDED = '53' */\n    tag_33:\n      tag_201\n      tag_202\n      jump\t// in\n    tag_201:\n      mload(0x40)\n      tag_203\n      swap2\n      swap1\n      tag_110\n      jump\t// in\n    tag_203:\n      mload(0x40)\n      dup1\n      swap2\n      sub\n      swap1\n      return\n        /* \"protocol/libraries/helpers/Errors.sol\":6178:6228  string public constant STABLE_DEBT_NOT_ZERO = '55' */\n    tag_34:\n      tag_204\n      tag_205\n      jump\t// in\n    tag_204:\n      mload(0x40)\n      tag_206\n      swap2\n      swap1\n      tag_110\n      jump\t// in\n    tag_206:\n      mload(0x40)\n      dup1\n      swap2\n      sub\n      swap1\n      return\n        /* \"protocol/libraries/helpers/Errors.sol\":5911:5967  string public constant UNBACKED_MINT_CAP_EXCEEDED = '52' */\n    tag_35:\n      tag_207\n      tag_208\n      jump\t// in\n    tag_207:\n      mload(0x40)\n      tag_209\n      swap2\n      swap1\n      tag_110\n      jump\t// in\n    tag_209:\n      mload(0x40)\n      dup1\n      swap2\n      sub\n      swap1\n      return\n        /* \"protocol/libraries/helpers/Errors.sol\":3112:3156  string public constant RESERVE_FROZEN = '28' */\n    tag_36:\n      tag_210\n      tag_211\n      jump\t// in\n    tag_210:\n      mload(0x40)\n      tag_212\n      swap2\n      swap1\n      tag_110\n      jump\t// in\n    tag_212:\n      mload(0x40)\n      dup1\n      swap2\n      sub\n      swap1\n      return\n        /* \"protocol/libraries/helpers/Errors.sol\":4546:4613  string public constant NO_EXPLICIT_AMOUNT_TO_REPAY_ON_BEHALF = '40' */\n    tag_37:\n      tag_213\n      tag_214\n      jump\t// in\n    tag_213:\n      mload(0x40)\n      tag_215\n      swap2\n      swap1\n      tag_110\n      jump\t// in\n    tag_215:\n      mload(0x40)\n      dup1\n      swap2\n      sub\n      swap1\n      return\n        /* \"protocol/libraries/helpers/Errors.sol\":5647:5706  string public constant INCONSISTENT_FLASHLOAN_PARAMS = '49' */\n    tag_38:\n      tag_216\n      tag_217\n      jump\t// in\n    tag_216:\n      mload(0x40)\n      tag_218\n      swap2\n      swap1\n      tag_110\n      jump\t// in\n    tag_218:\n      mload(0x40)\n      dup1\n      swap2\n      sub\n      swap1\n      return\n        /* \"protocol/libraries/helpers/Errors.sol\":6875:6927  string public constant USER_IN_ISOLATION_MODE = '62' */\n    tag_39:\n      tag_219\n      tag_220\n      jump\t// in\n    tag_219:\n      mload(0x40)\n      tag_221\n      swap2\n      swap1\n      tag_110\n      jump\t// in\n    tag_221:\n      mload(0x40)\n      dup1\n      swap2\n      sub\n      swap1\n      return\n        /* \"protocol/libraries/helpers/Errors.sol\":4689:4745  string public constant NO_OUTSTANDING_STABLE_DEBT = '41' */\n    tag_40:\n      tag_222\n      tag_223\n      jump\t// in\n    tag_222:\n      mload(0x40)\n      tag_224\n      swap2\n      swap1\n      tag_110\n      jump\t// in\n    tag_224:\n      mload(0x40)\n      dup1\n      swap2\n      sub\n      swap1\n      return\n        /* \"protocol/libraries/helpers/Errors.sol\":2277:2332  string public constant FLASHLOAN_PREMIUM_INVALID = '19' */\n    tag_41:\n      tag_225\n      tag_226\n      jump\t// in\n    tag_225:\n      mload(0x40)\n      tag_227\n      swap2\n      swap1\n      tag_110\n      jump\t// in\n    tag_227:\n      mload(0x40)\n      dup1\n      swap2\n      sub\n      swap1\n      return\n        /* \"protocol/libraries/helpers/Errors.sol\":1816:1870  string public constant NO_MORE_RESERVES_ALLOWED = '15' */\n    tag_42:\n      tag_228\n      tag_229\n      jump\t// in\n    tag_228:\n      mload(0x40)\n      tag_230\n      swap2\n      swap1\n      tag_110\n      jump\t// in\n    tag_230:\n      mload(0x40)\n      dup1\n      swap2\n      sub\n      swap1\n      return\n        /* \"protocol/libraries/helpers/Errors.sol\":2583:2640  string public constant BRIDGE_PROTOCOL_FEE_INVALID = '22' */\n    tag_43:\n      tag_231\n      tag_232\n      jump\t// in\n    tag_231:\n      mload(0x40)\n      tag_233\n      swap2\n      swap1\n      tag_110\n      jump\t// in\n    tag_233:\n      mload(0x40)\n      dup1\n      swap2\n      sub\n      swap1\n      return\n        /* \"protocol/libraries/helpers/Errors.sol\":1581:1644  string public constant INVALID_FLASHLOAN_EXECUTOR_RETURN = '13' */\n    tag_44:\n      tag_234\n      tag_235\n      jump\t// in\n    tag_234:\n      mload(0x40)\n      tag_236\n      swap2\n      swap1\n      tag_110\n      jump\t// in\n    tag_236:\n      mload(0x40)\n      dup1\n      swap2\n      sub\n      swap1\n      return\n        /* \"protocol/libraries/helpers/Errors.sol\":6658:6721  string public constant ASSET_NOT_BORROWABLE_IN_ISOLATION = '60' */\n    tag_45:\n      tag_237\n      tag_238\n      jump\t// in\n    tag_237:\n      mload(0x40)\n      tag_239\n      swap2\n      swap1\n      tag_110\n      jump\t// in\n    tag_239:\n      mload(0x40)\n      dup1\n      swap2\n      sub\n      swap1\n      return\n        /* \"protocol/libraries/helpers/Errors.sol\":5305:5366  string public constant COLLATERAL_CANNOT_BE_LIQUIDATED = '46' */\n    tag_46:\n      tag_240\n      tag_241\n      jump\t// in\n    tag_240:\n      mload(0x40)\n      tag_242\n      swap2\n      swap1\n      tag_110\n      jump\t// in\n    tag_242:\n      mload(0x40)\n      dup1\n      swap2\n      sub\n      swap1\n      return\n        /* \"protocol/libraries/helpers/Errors.sol\":3641:3706  string public constant INVALID_INTEREST_RATE_MODE_SELECTED = '33' */\n    tag_47:\n      tag_243\n      tag_244\n      jump\t// in\n    tag_243:\n      mload(0x40)\n      tag_245\n      swap2\n      swap1\n      tag_110\n      jump\t// in\n    tag_245:\n      mload(0x40)\n      dup1\n      swap2\n      sub\n      swap1\n      return\n        /* \"protocol/libraries/helpers/Errors.sol\":4110:4177  string public constant COLLATERAL_SAME_AS_BORROWING_CURRENCY = '37' */\n    tag_48:\n      tag_246\n      tag_247\n      jump\t// in\n    tag_246:\n      mload(0x40)\n      tag_248\n      swap2\n      swap1\n      tag_110\n      jump\t// in\n    tag_248:\n      mload(0x40)\n      dup1\n      swap2\n      sub\n      swap1\n      return\n        /* \"protocol/libraries/helpers/Errors.sol\":8647:8700  string public constant OPERATION_NOT_SUPPORTED = '80' */\n    tag_49:\n      tag_249\n      tag_250\n      jump\t// in\n    tag_249:\n      mload(0x40)\n      tag_251\n      swap2\n      swap1\n      tag_110\n      jump\t// in\n    tag_251:\n      mload(0x40)\n      dup1\n      swap2\n      sub\n      swap1\n      return\n        /* \"protocol/libraries/helpers/Errors.sol\":7685:7747  string public constant INVALID_LIQUIDATION_PROTOCOL_FEE = '70' */\n    tag_50:\n      tag_252\n      tag_253\n      jump\t// in\n    tag_252:\n      mload(0x40)\n      tag_254\n      swap2\n      swap1\n      tag_110\n      jump\t// in\n    tag_254:\n      mload(0x40)\n      dup1\n      swap2\n      sub\n      swap1\n      return\n        /* \"protocol/libraries/helpers/Errors.sol\":6451:6508  string public constant INCONSISTENT_EMODE_CATEGORY = '58' */\n    tag_51:\n      tag_255\n      tag_256\n      jump\t// in\n    tag_255:\n      mload(0x40)\n      tag_257\n      swap2\n      swap1\n      tag_110\n      jump\t// in\n    tag_257:\n      mload(0x40)\n      dup1\n      swap2\n      sub\n      swap1\n      return\n        /* \"protocol/libraries/helpers/Errors.sol\":5192:5255  string public constant HEALTH_FACTOR_NOT_BELOW_THRESHOLD = '45' */\n    tag_52:\n      tag_258\n      tag_259\n      jump\t// in\n    tag_258:\n      mload(0x40)\n      tag_260\n      swap2\n      swap1\n      tag_110\n      jump\t// in\n    tag_260:\n      mload(0x40)\n      dup1\n      swap2\n      sub\n      swap1\n      return\n        /* \"protocol/libraries/helpers/Errors.sol\":7164:7211  string public constant INVALID_LIQ_BONUS = '65' */\n    tag_53:\n      tag_261\n      tag_262\n      jump\t// in\n    tag_261:\n      mload(0x40)\n      tag_263\n      swap2\n      swap1\n      tag_110\n      jump\t// in\n    tag_263:\n      mload(0x40)\n      dup1\n      swap2\n      sub\n      swap1\n      return\n        /* \"protocol/libraries/helpers/Errors.sol\":6962:7003  string public constant INVALID_LTV = '63' */\n    tag_54:\n      tag_264\n      tag_265\n      jump\t// in\n    tag_264:\n      mload(0x40)\n      tag_266\n      swap2\n      swap1\n      tag_110\n      jump\t// in\n    tag_266:\n      mload(0x40)\n      dup1\n      swap2\n      sub\n      swap1\n      return\n        /* \"protocol/libraries/helpers/Errors.sol\":4951:5004  string public constant UNDERLYING_BALANCE_ZERO = '43' */\n    tag_55:\n      tag_267\n      tag_268\n      jump\t// in\n    tag_267:\n      mload(0x40)\n      tag_269\n      swap2\n      swap1\n      tag_110\n      jump\t// in\n    tag_269:\n      mload(0x40)\n      dup1\n      swap2\n      sub\n      swap1\n      return\n        /* \"protocol/libraries/helpers/Errors.sol\":1362:1409  string public constant CALLER_NOT_ATOKEN = '11' */\n    tag_56:\n      tag_270\n      tag_271\n      jump\t// in\n    tag_270:\n      mload(0x40)\n      tag_272\n      swap2\n      swap1\n      tag_110\n      jump\t// in\n    tag_272:\n      mload(0x40)\n      dup1\n      swap2\n      sub\n      swap1\n      return\n        /* \"protocol/libraries/helpers/Errors.sol\":8573:8620  string public constant INVALID_SIGNATURE = '79' */\n    tag_57:\n      tag_273\n      tag_274\n      jump\t// in\n    tag_273:\n      mload(0x40)\n      tag_275\n      swap2\n      swap1\n      tag_110\n      jump\t// in\n    tag_275:\n      mload(0x40)\n      dup1\n      swap2\n      sub\n      swap1\n      return\n        /* \"protocol/libraries/helpers/Errors.sol\":7391:7443  string public constant INVALID_RESERVE_FACTOR = '67' */\n    tag_58:\n      tag_276\n      tag_277\n      jump\t// in\n    tag_276:\n      mload(0x40)\n      tag_278\n      swap2\n      swap1\n      tag_110\n      jump\t// in\n    tag_278:\n      mload(0x40)\n      dup1\n      swap2\n      sub\n      swap1\n      return\n        /* \"protocol/libraries/helpers/Errors.sol\":7805:7857  string public constant INVALID_EMODE_CATEGORY = '71' */\n    tag_59:\n      tag_279\n      tag_280\n      jump\t// in\n    tag_279:\n      mload(0x40)\n      tag_281\n      swap2\n      swap1\n      tag_110\n      jump\t// in\n    tag_281:\n      mload(0x40)\n      dup1\n      swap2\n      sub\n      swap1\n      return\n        /* \"protocol/libraries/helpers/Errors.sol\":9111:9169  string public constant UNDERLYING_CANNOT_BE_RESCUED = '85' */\n    tag_60:\n      tag_282\n      tag_283\n      jump\t// in\n    tag_282:\n      mload(0x40)\n      tag_284\n      swap2\n      swap1\n      tag_110\n      jump\t// in\n    tag_284:\n      mload(0x40)\n      dup1\n      swap2\n      sub\n      swap1\n      return\n        /* \"protocol/libraries/helpers/Errors.sol\":2778:2827  string public constant INVALID_MINT_AMOUNT = '24' */\n    tag_61:\n      tag_285\n      tag_286\n      jump\t// in\n    tag_285:\n      mload(0x40)\n      tag_287\n      swap2\n      swap1\n      tag_110\n      jump\t// in\n    tag_287:\n      mload(0x40)\n      dup1\n      swap2\n      sub\n      swap1\n      return\n        /* \"protocol/libraries/helpers/Errors.sol\":224:274  string public constant CALLER_NOT_POOL_ADMIN = '1' */\n    tag_62:\n      tag_288\n      tag_289\n      jump\t// in\n    tag_288:\n      mload(0x40)\n      tag_290\n      swap2\n      swap1\n      tag_110\n      jump\t// in\n    tag_290:\n      mload(0x40)\n      dup1\n      swap2\n      sub\n      swap1\n      return\n        /* \"protocol/libraries/helpers/Errors.sol\":5830:5879  string public constant SUPPLY_CAP_EXCEEDED = '51' */\n    tag_63:\n      tag_291\n      tag_292\n      jump\t// in\n    tag_291:\n      mload(0x40)\n      tag_293\n      swap2\n      swap1\n      tag_110\n      jump\t// in\n    tag_293:\n      mload(0x40)\n      dup1\n      swap2\n      sub\n      swap1\n      return\n        /* \"protocol/libraries/helpers/Errors.sol\":4818:4876  string public constant NO_OUTSTANDING_VARIABLE_DEBT = '42' */\n    tag_64:\n      tag_294\n      tag_295\n      jump\t// in\n    tag_294:\n      mload(0x40)\n      tag_296\n      swap2\n      swap1\n      tag_110\n      jump\t// in\n    tag_296:\n      mload(0x40)\n      dup1\n      swap2\n      sub\n      swap1\n      return\n        /* \"protocol/libraries/helpers/Errors.sol\":579:637  string public constant CALLER_NOT_RISK_OR_POOL_ADMIN = '4' */\n    tag_65:\n      tag_297\n      tag_298\n      jump\t// in\n    tag_297:\n      mload(0x40)\n      tag_299\n      swap2\n      swap1\n      tag_110\n      jump\t// in\n    tag_299:\n      mload(0x40)\n      dup1\n      swap2\n      sub\n      swap1\n      return\n        /* \"protocol/libraries/helpers/Errors.sol\":3222:3266  string public constant RESERVE_PAUSED = '29' */\n    tag_66:\n      tag_300\n      tag_301\n      jump\t// in\n    tag_300:\n      mload(0x40)\n      tag_302\n      swap2\n      swap1\n      tag_110\n      jump\t// in\n    tag_302:\n      mload(0x40)\n      dup1\n      swap2\n      sub\n      swap1\n      return\n        /* \"protocol/libraries/helpers/Errors.sol\":3516:3579  string public constant NOT_ENOUGH_AVAILABLE_USER_BALANCE = '32' */\n    tag_67:\n      tag_303\n      tag_304\n      jump\t// in\n    tag_303:\n      mload(0x40)\n      tag_305\n      swap2\n      swap1\n      tag_110\n      jump\t// in\n    tag_305:\n      mload(0x40)\n      dup1\n      swap2\n      sub\n      swap1\n      return\n        /* \"protocol/libraries/helpers/Errors.sol\":6369:6420  string public constant LTV_VALIDATION_FAILED = '57' */\n    tag_68:\n      tag_306\n      tag_307\n      jump\t// in\n    tag_306:\n      mload(0x40)\n      tag_308\n      swap2\n      swap1\n      tag_110\n      jump\t// in\n    tag_308:\n      mload(0x40)\n      dup1\n      swap2\n      sub\n      swap1\n      return\n        /* \"protocol/libraries/helpers/Errors.sol\":8295:8351  string public constant INCONSISTENT_PARAMS_LENGTH = '76' */\n    tag_69:\n      tag_309\n      tag_310\n      jump\t// in\n    tag_309:\n      mload(0x40)\n      tag_311\n      swap2\n      swap1\n      tag_110\n      jump\t// in\n    tag_311:\n      mload(0x40)\n      dup1\n      swap2\n      sub\n      swap1\n      return\n        /* \"protocol/libraries/helpers/Errors.sol\":8497:8545  string public constant INVALID_EXPIRATION = '78' */\n    tag_70:\n      tag_312\n      tag_313\n      jump\t// in\n    tag_312:\n      mload(0x40)\n      tag_314\n      swap2\n      swap1\n      tag_110\n      jump\t// in\n    tag_314:\n      mload(0x40)\n      dup1\n      swap2\n      sub\n      swap1\n      return\n        /* \"protocol/libraries/helpers/Errors.sol\":6545:6609  string public constant PRICE_ORACLE_SENTINEL_CHECK_FAILED = '59' */\n    tag_71:\n      tag_315\n      tag_316\n      jump\t// in\n    tag_315:\n      mload(0x40)\n      tag_317\n      swap2\n      swap1\n      tag_110\n      jump\t// in\n    tag_317:\n      mload(0x40)\n      dup1\n      swap2\n      sub\n      swap1\n      return\n        /* \"protocol/libraries/helpers/Errors.sol\":8987:9059  string public constant INVALID_OPTIMAL_STABLE_TO_TOTAL_DEBT_RATIO = '84' */\n    tag_72:\n      tag_318\n      tag_319\n      jump\t// in\n    tag_318:\n      mload(0x40)\n      tag_320\n      swap2\n      swap1\n      tag_110\n      jump\t// in\n    tag_320:\n      mload(0x40)\n      dup1\n      swap2\n      sub\n      swap1\n      return\n        /* \"protocol/libraries/helpers/Errors.sol\":8818:8864  string public constant ASSET_NOT_LISTED = '82' */\n    tag_73:\n      tag_321\n      tag_322\n      jump\t// in\n    tag_321:\n      mload(0x40)\n      tag_323\n      swap2\n      swap1\n      tag_110\n      jump\t// in\n    tag_323:\n      mload(0x40)\n      dup1\n      swap2\n      sub\n      swap1\n      return\n        /* \"protocol/libraries/helpers/Errors.sol\":8413:8465  string public constant ZERO_ADDRESS_NOT_VALID = '77' */\n    tag_74:\n      tag_324\n      tag_325\n      jump\t// in\n    tag_324:\n      mload(0x40)\n      tag_326\n      swap2\n      swap1\n      tag_110\n      jump\t// in\n    tag_326:\n      mload(0x40)\n      dup1\n      swap2\n      sub\n      swap1\n      return\n        /* \"protocol/libraries/helpers/Errors.sol\":8106:8157  string public constant INVALID_RESERVE_INDEX = '74' */\n    tag_75:\n      tag_327\n      tag_328\n      jump\t// in\n    tag_327:\n      mload(0x40)\n      tag_329\n      swap2\n      swap1\n      tag_110\n      jump\t// in\n    tag_329:\n      mload(0x40)\n      dup1\n      swap2\n      sub\n      swap1\n      return\n        /* \"protocol/libraries/helpers/Errors.sol\":7501:7549  string public constant INVALID_BORROW_CAP = '68' */\n    tag_76:\n      tag_330\n      tag_331\n      jump\t// in\n    tag_330:\n      mload(0x40)\n      tag_332\n      swap2\n      swap1\n      tag_110\n      jump\t// in\n    tag_332:\n      mload(0x40)\n      dup1\n      swap2\n      sub\n      swap1\n      return\n        /* \"protocol/libraries/helpers/Errors.sol\":6772:6829  string public constant RESERVE_ALREADY_INITIALIZED = '61' */\n    tag_77:\n      tag_333\n      tag_334\n      jump\t// in\n    tag_333:\n      mload(0x40)\n      tag_335\n      swap2\n      swap1\n      tag_110\n      jump\t// in\n    tag_335:\n      mload(0x40)\n      dup1\n      swap2\n      sub\n      swap1\n      return\n        /* \"protocol/libraries/helpers/Errors.sol\":4403:4457  string public constant NO_DEBT_OF_SELECTED_TYPE = '39' */\n    tag_78:\n      tag_336\n      tag_337\n      jump\t// in\n    tag_336:\n      mload(0x40)\n      tag_338\n      swap2\n      swap1\n      tag_110\n      jump\t// in\n    tag_338:\n      mload(0x40)\n      dup1\n      swap2\n      sub\n      swap1\n      return\n        /* \"protocol/libraries/helpers/Errors.sol\":8011:8061  string public constant INVALID_DEBT_CEILING = '73' */\n    tag_79:\n      tag_339\n      tag_340\n      jump\t// in\n    tag_339:\n      mload(0x40)\n      tag_341\n      swap2\n      swap1\n      tag_110\n      jump\t// in\n    tag_341:\n      mload(0x40)\n      dup1\n      swap2\n      sub\n      swap1\n      return\n        /* \"protocol/libraries/helpers/Errors.sol\":7050:7101  string public constant INVALID_LIQ_THRESHOLD = '64' */\n    tag_80:\n      tag_342\n      tag_343\n      jump\t// in\n    tag_342:\n      mload(0x40)\n      tag_344\n      swap2\n      swap1\n      tag_110\n      jump\t// in\n    tag_344:\n      mload(0x40)\n      dup1\n      swap2\n      sub\n      swap1\n      return\n        /* \"protocol/libraries/helpers/Errors.sol\":9598:9654  string public constant SILOED_BORROWING_VIOLATION = '89' */\n    tag_81:\n      tag_345\n      tag_346\n      jump\t// in\n    tag_345:\n      mload(0x40)\n      tag_347\n      swap2\n      swap1\n      tag_110\n      jump\t// in\n    tag_347:\n      mload(0x40)\n      dup1\n      swap2\n      sub\n      swap1\n      return\n        /* \"protocol/libraries/helpers/Errors.sol\":940:1002  string public constant ADDRESSES_PROVIDER_NOT_REGISTERED = '7' */\n    tag_82:\n      tag_348\n      tag_349\n      jump\t// in\n    tag_348:\n      mload(0x40)\n      tag_350\n      swap2\n      swap1\n      tag_110\n      jump\t// in\n    tag_350:\n      mload(0x40)\n      dup1\n      swap2\n      sub\n      swap1\n      return\n        /* \"protocol/libraries/helpers/Errors.sol\":3984:4048  string public constant COLLATERAL_CANNOT_COVER_NEW_BORROW = '36' */\n    tag_83:\n      tag_351\n      tag_352\n      jump\t// in\n    tag_351:\n      mload(0x40)\n      tag_353\n      swap2\n      swap1\n      tag_110\n      jump\t// in\n    tag_353:\n      mload(0x40)\n      dup1\n      swap2\n      sub\n      swap1\n      return\n        /* \"protocol/libraries/helpers/Errors.sol\":8733:8784  string public constant DEBT_CEILING_NOT_ZERO = '81' */\n    tag_84:\n      tag_354\n      tag_355\n      jump\t// in\n    tag_354:\n      mload(0x40)\n      tag_356\n      swap2\n      swap1\n      tag_110\n      jump\t// in\n    tag_356:\n      mload(0x40)\n      dup1\n      swap2\n      sub\n      swap1\n      return\n        /* \"protocol/libraries/helpers/Errors.sol\":9727:9778  string public constant RESERVE_DEBT_NOT_ZERO = '90' */\n    tag_85:\n      tag_357\n      tag_358\n      jump\t// in\n    tag_357:\n      mload(0x40)\n      tag_359\n      swap2\n      swap1\n      tag_110\n      jump\t// in\n    tag_359:\n      mload(0x40)\n      dup1\n      swap2\n      sub\n      swap1\n      return\n        /* \"protocol/libraries/helpers/Errors.sol\":4250:4319  string public constant AMOUNT_BIGGER_THAN_MAX_LOAN_SIZE_STABLE = '38' */\n    tag_86:\n      tag_360\n      tag_361\n      jump\t// in\n    tag_360:\n      mload(0x40)\n      tag_362\n      swap2\n      swap1\n      tag_110\n      jump\t// in\n    tag_362:\n      mload(0x40)\n      dup1\n      swap2\n      sub\n      swap1\n      return\n        /* \"protocol/libraries/helpers/Errors.sol\":6268:6327  string public constant VARIABLE_DEBT_SUPPLY_NOT_ZERO = '56' */\n    tag_87:\n      tag_363\n      tag_364\n      jump\t// in\n    tag_363:\n      mload(0x40)\n      tag_365\n      swap2\n      swap1\n      tag_110\n      jump\t// in\n    tag_365:\n      mload(0x40)\n      dup1\n      swap2\n      sub\n      swap1\n      return\n        /* \"protocol/libraries/helpers/Errors.sol\":1926:1979  string public constant EMODE_CATEGORY_RESERVED = '16' */\n    tag_88:\n      tag_366\n      tag_367\n      jump\t// in\n    tag_366:\n      mload(0x40)\n      tag_368\n      swap2\n      swap1\n      tag_110\n      jump\t// in\n    tag_368:\n      mload(0x40)\n      dup1\n      swap2\n      sub\n      swap1\n      return\n        /* \"protocol/libraries/helpers/Errors.sol\":7270:7316  string public constant INVALID_DECIMALS = '66' */\n    tag_89:\n      tag_369\n      tag_370\n      jump\t// in\n    tag_369:\n      mload(0x40)\n      tag_371\n      swap2\n      swap1\n      tag_110\n      jump\t// in\n    tag_371:\n      mload(0x40)\n      dup1\n      swap2\n      sub\n      swap1\n      return\n        /* \"protocol/libraries/helpers/Errors.sol\":2940:2984  string public constant INVALID_AMOUNT = '26' */\n    tag_90:\n      tag_372\n      tag_373\n      jump\t// in\n    tag_372:\n      mload(0x40)\n      tag_374\n      swap2\n      swap1\n      tag_110\n      jump\t// in\n    tag_374:\n      mload(0x40)\n      dup1\n      swap2\n      sub\n      swap1\n      return\n        /* \"protocol/libraries/helpers/Errors.sol\":8188:8242  string public constant ACL_ADMIN_CANNOT_BE_ZERO = '75' */\n    tag_91:\n      tag_375\n      tag_376\n      jump\t// in\n    tag_375:\n      mload(0x40)\n      tag_377\n      swap2\n      swap1\n      tag_110\n      jump\t// in\n    tag_377:\n      mload(0x40)\n      dup1\n      swap2\n      sub\n      swap1\n      return\n        /* \"protocol/libraries/helpers/Errors.sol\":2169:2225  string public constant RESERVE_LIQUIDITY_NOT_ZERO = '18' */\n    tag_108:\n      mload(0x40)\n      dup1\n      0x40\n      add\n      0x40\n      mstore\n      dup1\n      0x02\n      dup2\n      mstore\n      0x20\n      add\n      0x3138000000000000000000000000000000000000000000000000000000000000\n      dup2\n      mstore\n      pop\n      dup2\n      jump\t// out\n        /* \"protocol/libraries/helpers/Errors.sol\":1163:1204  string public constant NOT_CONTRACT = '9' */\n    tag_112:\n      mload(0x40)\n      dup1\n      0x40\n      add\n      0x40\n      mstore\n      dup1\n      0x01\n      dup2\n      mstore\n      0x20\n      add\n      0x3900000000000000000000000000000000000000000000000000000000000000\n      dup2\n      mstore\n      pop\n      dup2\n      jump\t// out\n        /* \"protocol/libraries/helpers/Errors.sol\":1709:1760  string public constant RESERVE_ALREADY_ADDED = '14' */\n    tag_115:\n      mload(0x40)\n      dup1\n      0x40\n      add\n      0x40\n      mstore\n      dup1\n      0x02\n      dup2\n      mstore\n      0x20\n      add\n      0x3134000000000000000000000000000000000000000000000000000000000000\n      dup2\n      mstore\n      pop\n      dup2\n      jump\t// out\n        /* \"protocol/libraries/helpers/Errors.sol\":9217:9279  string public constant ADDRESSES_PROVIDER_ALREADY_ADDED = '86' */\n    tag_118:\n      mload(0x40)\n      dup1\n      0x40\n      add\n      0x40\n      mstore\n      dup1\n      0x02\n      dup2\n      mstore\n      0x20\n      add\n      0x3836000000000000000000000000000000000000000000000000000000000000\n      dup2\n      mstore\n      pop\n      dup2\n      jump\t// out\n        /* \"protocol/libraries/helpers/Errors.sol\":9507:9561  string public constant STABLE_BORROWING_ENABLED = '88' */\n    tag_121:\n      mload(0x40)\n      dup1\n      0x40\n      add\n      0x40\n      mstore\n      dup1\n      0x02\n      dup2\n      mstore\n      0x20\n      add\n      0x3838000000000000000000000000000000000000000000000000000000000000\n      dup2\n      mstore\n      pop\n      dup2\n      jump\t// out\n        /* \"protocol/libraries/helpers/Errors.sol\":9335:9392  string public constant POOL_ADDRESSES_DO_NOT_MATCH = '87' */\n    tag_124:\n      mload(0x40)\n      dup1\n      0x40\n      add\n      0x40\n      mstore\n      dup1\n      0x02\n      dup2\n      mstore\n      0x20\n      add\n      0x3837000000000000000000000000000000000000000000000000000000000000\n      dup2\n      mstore\n      pop\n      dup2\n      jump\t// out\n        /* \"protocol/libraries/helpers/Errors.sol\":5418:5487  string public constant SPECIFIED_CURRENCY_NOT_BORROWED_BY_USER = '47' */\n    tag_127:\n      mload(0x40)\n      dup1\n      0x40\n      add\n      0x40\n      mstore\n      dup1\n      0x02\n      dup2\n      mstore\n      0x20\n      add\n      0x3437000000000000000000000000000000000000000000000000000000000000\n      dup2\n      mstore\n      pop\n      dup2\n      jump\t// out\n        /* \"protocol/libraries/helpers/Errors.sol\":7593:7641  string public constant INVALID_SUPPLY_CAP = '69' */\n    tag_130:\n      mload(0x40)\n      dup1\n      0x40\n      add\n      0x40\n      mstore\n      dup1\n      0x02\n      dup2\n      mstore\n      0x20\n      add\n      0x3639000000000000000000000000000000000000000000000000000000000000\n      dup2\n      mstore\n      pop\n      dup2\n      jump\t// out\n        /* \"protocol/libraries/helpers/Errors.sol\":447:510  string public constant CALLER_NOT_POOL_OR_EMERGENCY_ADMIN = '3' */\n    tag_133:\n      mload(0x40)\n      dup1\n      0x40\n      add\n      0x40\n      mstore\n      dup1\n      0x01\n      dup2\n      mstore\n      0x20\n      add\n      0x3300000000000000000000000000000000000000000000000000000000000000\n      dup2\n      mstore\n      pop\n      dup2\n      jump\t// out\n        /* \"protocol/libraries/helpers/Errors.sol\":5063:5135  string public constant INTEREST_RATE_REBALANCE_CONDITIONS_NOT_MET = '44' */\n    tag_136:\n      mload(0x40)\n      dup1\n      0x40\n      add\n      0x40\n      mstore\n      dup1\n      0x02\n      dup2\n      mstore\n      0x20\n      add\n      0x3434000000000000000000000000000000000000000000000000000000000000\n      dup2\n      mstore\n      pop\n      dup2\n      jump\t// out\n        /* \"protocol/libraries/helpers/Errors.sol\":701:768  string public constant CALLER_NOT_ASSET_LISTING_OR_POOL_ADMIN = '5' */\n    tag_139:\n      mload(0x40)\n      dup1\n      0x40\n      add\n      0x40\n      mstore\n      dup1\n      0x01\n      dup2\n      mstore\n      0x20\n      add\n      0x3500000000000000000000000000000000000000000000000000000000000000\n      dup2\n      mstore\n      pop\n      dup2\n      jump\t// out\n        /* \"protocol/libraries/helpers/Errors.sol\":5749:5798  string public constant BORROW_CAP_EXCEEDED = '50' */\n    tag_142:\n      mload(0x40)\n      dup1\n      0x40\n      add\n      0x40\n      mstore\n      dup1\n      0x02\n      dup2\n      mstore\n      0x20\n      add\n      0x3530000000000000000000000000000000000000000000000000000000000000\n      dup2\n      mstore\n      pop\n      dup2\n      jump\t// out\n        /* \"protocol/libraries/helpers/Errors.sol\":2367:2419  string public constant INVALID_RESERVE_PARAMS = '20' */\n    tag_145:\n      mload(0x40)\n      dup1\n      0x40\n      add\n      0x40\n      mstore\n      dup1\n      0x02\n      dup2\n      mstore\n      0x20\n      add\n      0x3230000000000000000000000000000000000000000000000000000000000000\n      dup2\n      mstore\n      pop\n      dup2\n      jump\t// out\n        /* \"protocol/libraries/helpers/Errors.sol\":3844:3920  string public constant HEALTH_FACTOR_LOWER_THAN_LIQUIDATION_THRESHOLD = '35' */\n    tag_148:\n      mload(0x40)\n      dup1\n      0x40\n      add\n      0x40\n      mstore\n      dup1\n      0x02\n      dup2\n      mstore\n      0x20\n      add\n      0x3335000000000000000000000000000000000000000000000000000000000000\n      dup2\n      mstore\n      pop\n      dup2\n      jump\t// out\n        /* \"protocol/libraries/helpers/Errors.sol\":1462:1518  string public constant INVALID_ADDRESSES_PROVIDER = '12' */\n    tag_151:\n      mload(0x40)\n      dup1\n      0x40\n      add\n      0x40\n      mstore\n      dup1\n      0x02\n      dup2\n      mstore\n      0x20\n      add\n      0x3132000000000000000000000000000000000000000000000000000000000000\n      dup2\n      mstore\n      pop\n      dup2\n      jump\t// out\n        /* \"protocol/libraries/helpers/Errors.sol\":6091:6143  string public constant ATOKEN_SUPPLY_NOT_ZERO = '54' */\n    tag_154:\n      mload(0x40)\n      dup1\n      0x40\n      add\n      0x40\n      mstore\n      dup1\n      0x02\n      dup2\n      mstore\n      0x20\n      add\n      0x3534000000000000000000000000000000000000000000000000000000000000\n      dup2\n      mstore\n      pop\n      dup2\n      jump\t// out\n        /* \"protocol/libraries/helpers/Errors.sol\":2677:2726  string public constant CALLER_MUST_BE_POOL = '23' */\n    tag_157:\n      mload(0x40)\n      dup1\n      0x40\n      add\n      0x40\n      mstore\n      dup1\n      0x02\n      dup2\n      mstore\n      0x20\n      add\n      0x3233000000000000000000000000000000000000000000000000000000000000\n      dup2\n      mstore\n      pop\n      dup2\n      jump\t// out\n        /* \"protocol/libraries/helpers/Errors.sol\":7905:7960  string public constant INVALID_UNBACKED_MINT_CAP = '72' */\n    tag_160:\n      mload(0x40)\n      dup1\n      0x40\n      add\n      0x40\n      mstore\n      dup1\n      0x02\n      dup2\n      mstore\n      0x20\n      add\n      0x3732000000000000000000000000000000000000000000000000000000000000\n      dup2\n      mstore\n      pop\n      dup2\n      jump\t// out\n        /* \"protocol/libraries/helpers/Errors.sol\":2468:2527  string public constant INVALID_EMODE_CATEGORY_PARAMS = '21' */\n    tag_163:\n      mload(0x40)\n      dup1\n      0x40\n      add\n      0x40\n      mstore\n      dup1\n      0x02\n      dup2\n      mstore\n      0x20\n      add\n      0x3231000000000000000000000000000000000000000000000000000000000000\n      dup2\n      mstore\n      pop\n      dup2\n      jump\t// out\n        /* \"protocol/libraries/helpers/Errors.sol\":330:385  string public constant CALLER_NOT_EMERGENCY_ADMIN = '2' */\n    tag_166:\n      mload(0x40)\n      dup1\n      0x40\n      add\n      0x40\n      mstore\n      dup1\n      0x01\n      dup2\n      mstore\n      0x20\n      add\n      0x3200000000000000000000000000000000000000000000000000000000000000\n      dup2\n      mstore\n      pop\n      dup2\n      jump\t// out\n        /* \"protocol/libraries/helpers/Errors.sol\":3417:3475  string public constant STABLE_BORROWING_NOT_ENABLED = '31' */\n    tag_169:\n      mload(0x40)\n      dup1\n      0x40\n      add\n      0x40\n      mstore\n      dup1\n      0x02\n      dup2\n      mstore\n      0x20\n      add\n      0x3331000000000000000000000000000000000000000000000000000000000000\n      dup2\n      mstore\n      pop\n      dup2\n      jump\t// out\n        /* \"protocol/libraries/helpers/Errors.sol\":3751:3807  string public constant COLLATERAL_BALANCE_IS_ZERO = '34' */\n    tag_172:\n      mload(0x40)\n      dup1\n      0x40\n      add\n      0x40\n      mstore\n      dup1\n      0x02\n      dup2\n      mstore\n      0x20\n      add\n      0x3334000000000000000000000000000000000000000000000000000000000000\n      dup2\n      mstore\n      pop\n      dup2\n      jump\t// out\n        /* \"protocol/libraries/helpers/Errors.sol\":8893:8950  string public constant INVALID_OPTIMAL_USAGE_RATIO = '83' */\n    tag_175:\n      mload(0x40)\n      dup1\n      0x40\n      add\n      0x40\n      mstore\n      dup1\n      0x02\n      dup2\n      mstore\n      0x20\n      add\n      0x3833000000000000000000000000000000000000000000000000000000000000\n      dup2\n      mstore\n      pop\n      dup2\n      jump\t// out\n        /* \"protocol/libraries/helpers/Errors.sol\":3332:3383  string public constant BORROWING_NOT_ENABLED = '30' */\n    tag_178:\n      mload(0x40)\n      dup1\n      0x40\n      add\n      0x40\n      mstore\n      dup1\n      0x02\n      dup2\n      mstore\n      0x20\n      add\n      0x3330000000000000000000000000000000000000000000000000000000000000\n      dup2\n      mstore\n      pop\n      dup2\n      jump\t// out\n        /* \"protocol/libraries/helpers/Errors.sol\":842:888  string public constant CALLER_NOT_BRIDGE = '6' */\n    tag_181:\n      mload(0x40)\n      dup1\n      0x40\n      add\n      0x40\n      mstore\n      dup1\n      0x01\n      dup2\n      mstore\n      0x20\n      add\n      0x3600000000000000000000000000000000000000000000000000000000000000\n      dup2\n      mstore\n      pop\n      dup2\n      jump\t// out\n        /* \"protocol/libraries/helpers/Errors.sol\":2859:2908  string public constant INVALID_BURN_AMOUNT = '25' */\n    tag_184:\n      mload(0x40)\n      dup1\n      0x40\n      add\n      0x40\n      mstore\n      dup1\n      0x02\n      dup2\n      mstore\n      0x20\n      add\n      0x3235000000000000000000000000000000000000000000000000000000000000\n      dup2\n      mstore\n      pop\n      dup2\n      jump\t// out\n        /* \"protocol/libraries/helpers/Errors.sol\":3023:3069  string public constant RESERVE_INACTIVE = '27' */\n    tag_187:\n      mload(0x40)\n      dup1\n      0x40\n      add\n      0x40\n      mstore\n      dup1\n      0x02\n      dup2\n      mstore\n      0x20\n      add\n      0x3237000000000000000000000000000000000000000000000000000000000000\n      dup2\n      mstore\n      pop\n      dup2\n      jump\t// out\n        /* \"protocol/libraries/helpers/Errors.sol\":5539:5592  string public constant SAME_BLOCK_BORROW_REPAY = '48' */\n    tag_190:\n      mload(0x40)\n      dup1\n      0x40\n      add\n      0x40\n      mstore\n      dup1\n      0x02\n      dup2\n      mstore\n      0x20\n      add\n      0x3438000000000000000000000000000000000000000000000000000000000000\n      dup2\n      mstore\n      pop\n      dup2\n      jump\t// out\n        /* \"protocol/libraries/helpers/Errors.sol\":2054:2117  string public constant INVALID_EMODE_CATEGORY_ASSIGNMENT = '17' */\n    tag_193:\n      mload(0x40)\n      dup1\n      0x40\n      add\n      0x40\n      mstore\n      dup1\n      0x02\n      dup2\n      mstore\n      0x20\n      add\n      0x3137000000000000000000000000000000000000000000000000000000000000\n      dup2\n      mstore\n      pop\n      dup2\n      jump\t// out\n        /* \"protocol/libraries/helpers/Errors.sol\":1053:1111  string public constant INVALID_ADDRESSES_PROVIDER_ID = '8' */\n    tag_196:\n      mload(0x40)\n      dup1\n      0x40\n      add\n      0x40\n      mstore\n      dup1\n      0x01\n      dup2\n      mstore\n      0x20\n      add\n      0x3800000000000000000000000000000000000000000000000000000000000000\n      dup2\n      mstore\n      pop\n      dup2\n      jump\t// out\n        /* \"protocol/libraries/helpers/Errors.sol\":1239:1297  string public constant CALLER_NOT_POOL_CONFIGURATOR = '10' */\n    tag_199:\n      mload(0x40)\n      dup1\n      0x40\n      add\n      0x40\n      mstore\n      dup1\n      0x02\n      dup2\n      mstore\n      0x20\n      add\n      0x3130000000000000000000000000000000000000000000000000000000000000\n      dup2\n      mstore\n      pop\n      dup2\n      jump\t// out\n        /* \"protocol/libraries/helpers/Errors.sol\":6006:6057  string public constant DEBT_CEILING_EXCEEDED = '53' */\n    tag_202:\n      mload(0x40)\n      dup1\n      0x40\n      add\n      0x40\n      mstore\n      dup1\n      0x02\n      dup2\n      mstore\n      0x20\n      add\n      0x3533000000000000000000000000000000000000000000000000000000000000\n      dup2\n      mstore\n      pop\n      dup2\n      jump\t// out\n        /* \"protocol/libraries/helpers/Errors.sol\":6178:6228  string public constant STABLE_DEBT_NOT_ZERO = '55' */\n    tag_205:\n      mload(0x40)\n      dup1\n      0x40\n      add\n      0x40\n      mstore\n      dup1\n      0x02\n      dup2\n      mstore\n      0x20\n      add\n      0x3535000000000000000000000000000000000000000000000000000000000000\n      dup2\n      mstore\n      pop\n      dup2\n      jump\t// out\n        /* \"protocol/libraries/helpers/Errors.sol\":5911:5967  string public constant UNBACKED_MINT_CAP_EXCEEDED = '52' */\n    tag_208:\n      mload(0x40)\n      dup1\n      0x40\n      add\n      0x40\n      mstore\n      dup1\n      0x02\n      dup2\n      mstore\n      0x20\n      add\n      0x3532000000000000000000000000000000000000000000000000000000000000\n      dup2\n      mstore\n      pop\n      dup2\n      jump\t// out\n        /* \"protocol/libraries/helpers/Errors.sol\":3112:3156  string public constant RESERVE_FROZEN = '28' */\n    tag_211:\n      mload(0x40)\n      dup1\n      0x40\n      add\n      0x40\n      mstore\n      dup1\n      0x02\n      dup2\n      mstore\n      0x20\n      add\n      0x3238000000000000000000000000000000000000000000000000000000000000\n      dup2\n      mstore\n      pop\n      dup2\n      jump\t// out\n        /* \"protocol/libraries/helpers/Errors.sol\":4546:4613  string public constant NO_EXPLICIT_AMOUNT_TO_REPAY_ON_BEHALF = '40' */\n    tag_214:\n      mload(0x40)\n      dup1\n      0x40\n      add\n      0x40\n      mstore\n      dup1\n      0x02\n      dup2\n      mstore\n      0x20\n      add\n      0x3430000000000000000000000000000000000000000000000000000000000000\n      dup2\n      mstore\n      pop\n      dup2\n      jump\t// out\n        /* \"protocol/libraries/helpers/Errors.sol\":5647:5706  string public constant INCONSISTENT_FLASHLOAN_PARAMS = '49' */\n    tag_217:\n      mload(0x40)\n      dup1\n      0x40\n      add\n      0x40\n      mstore\n      dup1\n      0x02\n      dup2\n      mstore\n      0x20\n      add\n      0x3439000000000000000000000000000000000000000000000000000000000000\n      dup2\n      mstore\n      pop\n      dup2\n      jump\t// out\n        /* \"protocol/libraries/helpers/Errors.sol\":6875:6927  string public constant USER_IN_ISOLATION_MODE = '62' */\n    tag_220:\n      mload(0x40)\n      dup1\n      0x40\n      add\n      0x40\n      mstore\n      dup1\n      0x02\n      dup2\n      mstore\n      0x20\n      add\n      0x3632000000000000000000000000000000000000000000000000000000000000\n      dup2\n      mstore\n      pop\n      dup2\n      jump\t// out\n        /* \"protocol/libraries/helpers/Errors.sol\":4689:4745  string public constant NO_OUTSTANDING_STABLE_DEBT = '41' */\n    tag_223:\n      mload(0x40)\n      dup1\n      0x40\n      add\n      0x40\n      mstore\n      dup1\n      0x02\n      dup2\n      mstore\n      0x20\n      add\n      0x3431000000000000000000000000000000000000000000000000000000000000\n      dup2\n      mstore\n      pop\n      dup2\n      jump\t// out\n        /* \"protocol/libraries/helpers/Errors.sol\":2277:2332  string public constant FLASHLOAN_PREMIUM_INVALID = '19' */\n    tag_226:\n      mload(0x40)\n      dup1\n      0x40\n      add\n      0x40\n      mstore\n      dup1\n      0x02\n      dup2\n      mstore\n      0x20\n      add\n      0x3139000000000000000000000000000000000000000000000000000000000000\n      dup2\n      mstore\n      pop\n      dup2\n      jump\t// out\n        /* \"protocol/libraries/helpers/Errors.sol\":1816:1870  string public constant NO_MORE_RESERVES_ALLOWED = '15' */\n    tag_229:\n      mload(0x40)\n      dup1\n      0x40\n      add\n      0x40\n      mstore\n      dup1\n      0x02\n      dup2\n      mstore\n      0x20\n      add\n      0x3135000000000000000000000000000000000000000000000000000000000000\n      dup2\n      mstore\n      pop\n      dup2\n      jump\t// out\n        /* \"protocol/libraries/helpers/Errors.sol\":2583:2640  string public constant BRIDGE_PROTOCOL_FEE_INVALID = '22' */\n    tag_232:\n      mload(0x40)\n      dup1\n      0x40\n      add\n      0x40\n      mstore\n      dup1\n      0x02\n      dup2\n      mstore\n      0x20\n      add\n      0x3232000000000000000000000000000000000000000000000000000000000000\n      dup2\n      mstore\n      pop\n      dup2\n      jump\t// out\n        /* \"protocol/libraries/helpers/Errors.sol\":1581:1644  string public constant INVALID_FLASHLOAN_EXECUTOR_RETURN = '13' */\n    tag_235:\n      mload(0x40)\n      dup1\n      0x40\n      add\n      0x40\n      mstore\n      dup1\n      0x02\n      dup2\n      mstore\n      0x20\n      add\n      0x3133000000000000000000000000000000000000000000000000000000000000\n      dup2\n      mstore\n      pop\n      dup2\n      jump\t// out\n        /* \"protocol/libraries/helpers/Errors.sol\":6658:6721  string public constant ASSET_NOT_BORROWABLE_IN_ISOLATION = '60' */\n    tag_238:\n      mload(0x40)\n      dup1\n      0x40\n      add\n      0x40\n      mstore\n      dup1\n      0x02\n      dup2\n      mstore\n      0x20\n      add\n      0x3630000000000000000000000000000000000000000000000000000000000000\n      dup2\n      mstore\n      pop\n      dup2\n      jump\t// out\n        /* \"protocol/libraries/helpers/Errors.sol\":5305:5366  string public constant COLLATERAL_CANNOT_BE_LIQUIDATED = '46' */\n    tag_241:\n      mload(0x40)\n      dup1\n      0x40\n      add\n      0x40\n      mstore\n      dup1\n      0x02\n      dup2\n      mstore\n      0x20\n      add\n      0x3436000000000000000000000000000000000000000000000000000000000000\n      dup2\n      mstore\n      pop\n      dup2\n      jump\t// out\n        /* \"protocol/libraries/helpers/Errors.sol\":3641:3706  string public constant INVALID_INTEREST_RATE_MODE_SELECTED = '33' */\n    tag_244:\n      mload(0x40)\n      dup1\n      0x40\n      add\n      0x40\n      mstore\n      dup1\n      0x02\n      dup2\n      mstore\n      0x20\n      add\n      0x3333000000000000000000000000000000000000000000000000000000000000\n      dup2\n      mstore\n      pop\n      dup2\n      jump\t// out\n        /* \"protocol/libraries/helpers/Errors.sol\":4110:4177  string public constant COLLATERAL_SAME_AS_BORROWING_CURRENCY = '37' */\n    tag_247:\n      mload(0x40)\n      dup1\n      0x40\n      add\n      0x40\n      mstore\n      dup1\n      0x02\n      dup2\n      mstore\n      0x20\n      add\n      0x3337000000000000000000000000000000000000000000000000000000000000\n      dup2\n      mstore\n      pop\n      dup2\n      jump\t// out\n        /* \"protocol/libraries/helpers/Errors.sol\":8647:8700  string public constant OPERATION_NOT_SUPPORTED = '80' */\n    tag_250:\n      mload(0x40)\n      dup1\n      0x40\n      add\n      0x40\n      mstore\n      dup1\n      0x02\n      dup2\n      mstore\n      0x20\n      add\n      0x3830000000000000000000000000000000000000000000000000000000000000\n      dup2\n      mstore\n      pop\n      dup2\n      jump\t// out\n        /* \"protocol/libraries/helpers/Errors.sol\":7685:7747  string public constant INVALID_LIQUIDATION_PROTOCOL_FEE = '70' */\n    tag_253:\n      mload(0x40)\n      dup1\n      0x40\n      add\n      0x40\n      mstore\n      dup1\n      0x02\n      dup2\n      mstore\n      0x20\n      add\n      0x3730000000000000000000000000000000000000000000000000000000000000\n      dup2\n      mstore\n      pop\n      dup2\n      jump\t// out\n        /* \"protocol/libraries/helpers/Errors.sol\":6451:6508  string public constant INCONSISTENT_EMODE_CATEGORY = '58' */\n    tag_256:\n      mload(0x40)\n      dup1\n      0x40\n      add\n      0x40\n      mstore\n      dup1\n      0x02\n      dup2\n      mstore\n      0x20\n      add\n      0x3538000000000000000000000000000000000000000000000000000000000000\n      dup2\n      mstore\n      pop\n      dup2\n      jump\t// out\n        /* \"protocol/libraries/helpers/Errors.sol\":5192:5255  string public constant HEALTH_FACTOR_NOT_BELOW_THRESHOLD = '45' */\n    tag_259:\n      mload(0x40)\n      dup1\n      0x40\n      add\n      0x40\n      mstore\n      dup1\n      0x02\n      dup2\n      mstore\n      0x20\n      add\n      0x3435000000000000000000000000000000000000000000000000000000000000\n      dup2\n      mstore\n      pop\n      dup2\n      jump\t// out\n        /* \"protocol/libraries/helpers/Errors.sol\":7164:7211  string public constant INVALID_LIQ_BONUS = '65' */\n    tag_262:\n      mload(0x40)\n      dup1\n      0x40\n      add\n      0x40\n      mstore\n      dup1\n      0x02\n      dup2\n      mstore\n      0x20\n      add\n      0x3635000000000000000000000000000000000000000000000000000000000000\n      dup2\n      mstore\n      pop\n      dup2\n      jump\t// out\n        /* \"protocol/libraries/helpers/Errors.sol\":6962:7003  string public constant INVALID_LTV = '63' */\n    tag_265:\n      mload(0x40)\n      dup1\n      0x40\n      add\n      0x40\n      mstore\n      dup1\n      0x02\n      dup2\n      mstore\n      0x20\n      add\n      0x3633000000000000000000000000000000000000000000000000000000000000\n      dup2\n      mstore\n      pop\n      dup2\n      jump\t// out\n        /* \"protocol/libraries/helpers/Errors.sol\":4951:5004  string public constant UNDERLYING_BALANCE_ZERO = '43' */\n    tag_268:\n      mload(0x40)\n      dup1\n      0x40\n      add\n      0x40\n      mstore\n      dup1\n      0x02\n      dup2\n      mstore\n      0x20\n      add\n      0x3433000000000000000000000000000000000000000000000000000000000000\n      dup2\n      mstore\n      pop\n      dup2\n      jump\t// out\n        /* \"protocol/libraries/helpers/Errors.sol\":1362:1409  string public constant CALLER_NOT_ATOKEN = '11' */\n    tag_271:\n      mload(0x40)\n      dup1\n      0x40\n      add\n      0x40\n      mstore\n      dup1\n      0x02\n      dup2\n      mstore\n      0x20\n      add\n      0x3131000000000000000000000000000000000000000000000000000000000000\n      dup2\n      mstore\n      pop\n      dup2\n      jump\t// out\n        /* \"protocol/libraries/helpers/Errors.sol\":8573:8620  string public constant INVALID_SIGNATURE = '79' */\n    tag_274:\n      mload(0x40)\n      dup1\n      0x40\n      add\n      0x40\n      mstore\n      dup1\n      0x02\n      dup2\n      mstore\n      0x20\n      add\n      0x3739000000000000000000000000000000000000000000000000000000000000\n      dup2\n      mstore\n      pop\n      dup2\n      jump\t// out\n        /* \"protocol/libraries/helpers/Errors.sol\":7391:7443  string public constant INVALID_RESERVE_FACTOR = '67' */\n    tag_277:\n      mload(0x40)\n      dup1\n      0x40\n      add\n      0x40\n      mstore\n      dup1\n      0x02\n      dup2\n      mstore\n      0x20\n      add\n      0x3637000000000000000000000000000000000000000000000000000000000000\n      dup2\n      mstore\n      pop\n      dup2\n      jump\t// out\n        /* \"protocol/libraries/helpers/Errors.sol\":7805:7857  string public constant INVALID_EMODE_CATEGORY = '71' */\n    tag_280:\n      mload(0x40)\n      dup1\n      0x40\n      add\n      0x40\n      mstore\n      dup1\n      0x02\n      dup2\n      mstore\n      0x20\n      add\n      0x3731000000000000000000000000000000000000000000000000000000000000\n      dup2\n      mstore\n      pop\n      dup2\n      jump\t// out\n        /* \"protocol/libraries/helpers/Errors.sol\":9111:9169  string public constant UNDERLYING_CANNOT_BE_RESCUED = '85' */\n    tag_283:\n      mload(0x40)\n      dup1\n      0x40\n      add\n      0x40\n      mstore\n      dup1\n      0x02\n      dup2\n      mstore\n      0x20\n      add\n      0x3835000000000000000000000000000000000000000000000000000000000000\n      dup2\n      mstore\n      pop\n      dup2\n      jump\t// out\n        /* \"protocol/libraries/helpers/Errors.sol\":2778:2827  string public constant INVALID_MINT_AMOUNT = '24' */\n    tag_286:\n      mload(0x40)\n      dup1\n      0x40\n      add\n      0x40\n      mstore\n      dup1\n      0x02\n      dup2\n      mstore\n      0x20\n      add\n      0x3234000000000000000000000000000000000000000000000000000000000000\n      dup2\n      mstore\n      pop\n      dup2\n      jump\t// out\n        /* \"protocol/libraries/helpers/Errors.sol\":224:274  string public constant CALLER_NOT_POOL_ADMIN = '1' */\n    tag_289:\n      mload(0x40)\n      dup1\n      0x40\n      add\n      0x40\n      mstore\n      dup1\n      0x01\n      dup2\n      mstore\n      0x20\n      add\n      0x3100000000000000000000000000000000000000000000000000000000000000\n      dup2\n      mstore\n      pop\n      dup2\n      jump\t// out\n        /* \"protocol/libraries/helpers/Errors.sol\":5830:5879  string public constant SUPPLY_CAP_EXCEEDED = '51' */\n    tag_292:\n      mload(0x40)\n      dup1\n      0x40\n      add\n      0x40\n      mstore\n      dup1\n      0x02\n      dup2\n      mstore\n      0x20\n      add\n      0x3531000000000000000000000000000000000000000000000000000000000000\n      dup2\n      mstore\n      pop\n      dup2\n      jump\t// out\n        /* \"protocol/libraries/helpers/Errors.sol\":4818:4876  string public constant NO_OUTSTANDING_VARIABLE_DEBT = '42' */\n    tag_295:\n      mload(0x40)\n      dup1\n      0x40\n      add\n      0x40\n      mstore\n      dup1\n      0x02\n      dup2\n      mstore\n      0x20\n      add\n      0x3432000000000000000000000000000000000000000000000000000000000000\n      dup2\n      mstore\n      pop\n      dup2\n      jump\t// out\n        /* \"protocol/libraries/helpers/Errors.sol\":579:637  string public constant CALLER_NOT_RISK_OR_POOL_ADMIN = '4' */\n    tag_298:\n      mload(0x40)\n      dup1\n      0x40\n      add\n      0x40\n      mstore\n      dup1\n      0x01\n      dup2\n      mstore\n      0x20\n      add\n      0x3400000000000000000000000000000000000000000000000000000000000000\n      dup2\n      mstore\n      pop\n      dup2\n      jump\t// out\n        /* \"protocol/libraries/helpers/Errors.sol\":3222:3266  string public constant RESERVE_PAUSED = '29' */\n    tag_301:\n      mload(0x40)\n      dup1\n      0x40\n      add\n      0x40\n      mstore\n      dup1\n      0x02\n      dup2\n      mstore\n      0x20\n      add\n      0x3239000000000000000000000000000000000000000000000000000000000000\n      dup2\n      mstore\n      pop\n      dup2\n      jump\t// out\n        /* \"protocol/libraries/helpers/Errors.sol\":3516:3579  string public constant NOT_ENOUGH_AVAILABLE_USER_BALANCE = '32' */\n    tag_304:\n      mload(0x40)\n      dup1\n      0x40\n      add\n      0x40\n      mstore\n      dup1\n      0x02\n      dup2\n      mstore\n      0x20\n      add\n      0x3332000000000000000000000000000000000000000000000000000000000000\n      dup2\n      mstore\n      pop\n      dup2\n      jump\t// out\n        /* \"protocol/libraries/helpers/Errors.sol\":6369:6420  string public constant LTV_VALIDATION_FAILED = '57' */\n    tag_307:\n      mload(0x40)\n      dup1\n      0x40\n      add\n      0x40\n      mstore\n      dup1\n      0x02\n      dup2\n      mstore\n      0x20\n      add\n      0x3537000000000000000000000000000000000000000000000000000000000000\n      dup2\n      mstore\n      pop\n      dup2\n      jump\t// out\n        /* \"protocol/libraries/helpers/Errors.sol\":8295:8351  string public constant INCONSISTENT_PARAMS_LENGTH = '76' */\n    tag_310:\n      mload(0x40)\n      dup1\n      0x40\n      add\n      0x40\n      mstore\n      dup1\n      0x02\n      dup2\n      mstore\n      0x20\n      add\n      0x3736000000000000000000000000000000000000000000000000000000000000\n      dup2\n      mstore\n      pop\n      dup2\n      jump\t// out\n        /* \"protocol/libraries/helpers/Errors.sol\":8497:8545  string public constant INVALID_EXPIRATION = '78' */\n    tag_313:\n      mload(0x40)\n      dup1\n      0x40\n      add\n      0x40\n      mstore\n      dup1\n      0x02\n      dup2\n      mstore\n      0x20\n      add\n      0x3738000000000000000000000000000000000000000000000000000000000000\n      dup2\n      mstore\n      pop\n      dup2\n      jump\t// out\n        /* \"protocol/libraries/helpers/Errors.sol\":6545:6609  string public constant PRICE_ORACLE_SENTINEL_CHECK_FAILED = '59' */\n    tag_316:\n      mload(0x40)\n      dup1\n      0x40\n      add\n      0x40\n      mstore\n      dup1\n      0x02\n      dup2\n      mstore\n      0x20\n      add\n      0x3539000000000000000000000000000000000000000000000000000000000000\n      dup2\n      mstore\n      pop\n      dup2\n      jump\t// out\n        /* \"protocol/libraries/helpers/Errors.sol\":8987:9059  string public constant INVALID_OPTIMAL_STABLE_TO_TOTAL_DEBT_RATIO = '84' */\n    tag_319:\n      mload(0x40)\n      dup1\n      0x40\n      add\n      0x40\n      mstore\n      dup1\n      0x02\n      dup2\n      mstore\n      0x20\n      add\n      0x3834000000000000000000000000000000000000000000000000000000000000\n      dup2\n      mstore\n      pop\n      dup2\n      jump\t// out\n        /* \"protocol/libraries/helpers/Errors.sol\":8818:8864  string public constant ASSET_NOT_LISTED = '82' */\n    tag_322:\n      mload(0x40)\n      dup1\n      0x40\n      add\n      0x40\n      mstore\n      dup1\n      0x02\n      dup2\n      mstore\n      0x20\n      add\n      0x3832000000000000000000000000000000000000000000000000000000000000\n      dup2\n      mstore\n      pop\n      dup2\n      jump\t// out\n        /* \"protocol/libraries/helpers/Errors.sol\":8413:8465  string public constant ZERO_ADDRESS_NOT_VALID = '77' */\n    tag_325:\n      mload(0x40)\n      dup1\n      0x40\n      add\n      0x40\n      mstore\n      dup1\n      0x02\n      dup2\n      mstore\n      0x20\n      add\n      0x3737000000000000000000000000000000000000000000000000000000000000\n      dup2\n      mstore\n      pop\n      dup2\n      jump\t// out\n        /* \"protocol/libraries/helpers/Errors.sol\":8106:8157  string public constant INVALID_RESERVE_INDEX = '74' */\n    tag_328:\n      mload(0x40)\n      dup1\n      0x40\n      add\n      0x40\n      mstore\n      dup1\n      0x02\n      dup2\n      mstore\n      0x20\n      add\n      0x3734000000000000000000000000000000000000000000000000000000000000\n      dup2\n      mstore\n      pop\n      dup2\n      jump\t// out\n        /* \"protocol/libraries/helpers/Errors.sol\":7501:7549  string public constant INVALID_BORROW_CAP = '68' */\n    tag_331:\n      mload(0x40)\n      dup1\n      0x40\n      add\n      0x40\n      mstore\n      dup1\n      0x02\n      dup2\n      mstore\n      0x20\n      add\n      0x3638000000000000000000000000000000000000000000000000000000000000\n      dup2\n      mstore\n      pop\n      dup2\n      jump\t// out\n        /* \"protocol/libraries/helpers/Errors.sol\":6772:6829  string public constant RESERVE_ALREADY_INITIALIZED = '61' */\n    tag_334:\n      mload(0x40)\n      dup1\n      0x40\n      add\n      0x40\n      mstore\n      dup1\n      0x02\n      dup2\n      mstore\n      0x20\n      add\n      0x3631000000000000000000000000000000000000000000000000000000000000\n      dup2\n      mstore\n      pop\n      dup2\n      jump\t// out\n        /* \"protocol/libraries/helpers/Errors.sol\":4403:4457  string public constant NO_DEBT_OF_SELECTED_TYPE = '39' */\n    tag_337:\n      mload(0x40)\n      dup1\n      0x40\n      add\n      0x40\n      mstore\n      dup1\n      0x02\n      dup2\n      mstore\n      0x20\n      add\n      0x3339000000000000000000000000000000000000000000000000000000000000\n      dup2\n      mstore\n      pop\n      dup2\n      jump\t// out\n        /* \"protocol/libraries/helpers/Errors.sol\":8011:8061  string public constant INVALID_DEBT_CEILING = '73' */\n    tag_340:\n      mload(0x40)\n      dup1\n      0x40\n      add\n      0x40\n      mstore\n      dup1\n      0x02\n      dup2\n      mstore\n      0x20\n      add\n      0x3733000000000000000000000000000000000000000000000000000000000000\n      dup2\n      mstore\n      pop\n      dup2\n      jump\t// out\n        /* \"protocol/libraries/helpers/Errors.sol\":7050:7101  string public constant INVALID_LIQ_THRESHOLD = '64' */\n    tag_343:\n      mload(0x40)\n      dup1\n      0x40\n      add\n      0x40\n      mstore\n      dup1\n      0x02\n      dup2\n      mstore\n      0x20\n      add\n      0x3634000000000000000000000000000000000000000000000000000000000000\n      dup2\n      mstore\n      pop\n      dup2\n      jump\t// out\n        /* \"protocol/libraries/helpers/Errors.sol\":9598:9654  string public constant SILOED_BORROWING_VIOLATION = '89' */\n    tag_346:\n      mload(0x40)\n      dup1\n      0x40\n      add\n      0x40\n      mstore\n      dup1\n      0x02\n      dup2\n      mstore\n      0x20\n      add\n      0x3839000000000000000000000000000000000000000000000000000000000000\n      dup2\n      mstore\n      pop\n      dup2\n      jump\t// out\n        /* \"protocol/libraries/helpers/Errors.sol\":940:1002  string public constant ADDRESSES_PROVIDER_NOT_REGISTERED = '7' */\n    tag_349:\n      mload(0x40)\n      dup1\n      0x40\n      add\n      0x40\n      mstore\n      dup1\n      0x01\n      dup2\n      mstore\n      0x20\n      add\n      0x3700000000000000000000000000000000000000000000000000000000000000\n      dup2\n      mstore\n      pop\n      dup2\n      jump\t// out\n        /* \"protocol/libraries/helpers/Errors.sol\":3984:4048  string public constant COLLATERAL_CANNOT_COVER_NEW_BORROW = '36' */\n    tag_352:\n      mload(0x40)\n      dup1\n      0x40\n      add\n      0x40\n      mstore\n      dup1\n      0x02\n      dup2\n      mstore\n      0x20\n      add\n      0x3336000000000000000000000000000000000000000000000000000000000000\n      dup2\n      mstore\n      pop\n      dup2\n      jump\t// out\n        /* \"protocol/libraries/helpers/Errors.sol\":8733:8784  string public constant DEBT_CEILING_NOT_ZERO = '81' */\n    tag_355:\n      mload(0x40)\n      dup1\n      0x40\n      add\n      0x40\n      mstore\n      dup1\n      0x02\n      dup2\n      mstore\n      0x20\n      add\n      0x3831000000000000000000000000000000000000000000000000000000000000\n      dup2\n      mstore\n      pop\n      dup2\n      jump\t// out\n        /* \"protocol/libraries/helpers/Errors.sol\":9727:9778  string public constant RESERVE_DEBT_NOT_ZERO = '90' */\n    tag_358:\n      mload(0x40)\n      dup1\n      0x40\n      add\n      0x40\n      mstore\n      dup1\n      0x02\n      dup2\n      mstore\n      0x20\n      add\n      0x3930000000000000000000000000000000000000000000000000000000000000\n      dup2\n      mstore\n      pop\n      dup2\n      jump\t// out\n        /* \"protocol/libraries/helpers/Errors.sol\":4250:4319  string public constant AMOUNT_BIGGER_THAN_MAX_LOAN_SIZE_STABLE = '38' */\n    tag_361:\n      mload(0x40)\n      dup1\n      0x40\n      add\n      0x40\n      mstore\n      dup1\n      0x02\n      dup2\n      mstore\n      0x20\n      add\n      0x3338000000000000000000000000000000000000000000000000000000000000\n      dup2\n      mstore\n      pop\n      dup2\n      jump\t// out\n        /* \"protocol/libraries/helpers/Errors.sol\":6268:6327  string public constant VARIABLE_DEBT_SUPPLY_NOT_ZERO = '56' */\n    tag_364:\n      mload(0x40)\n      dup1\n      0x40\n      add\n      0x40\n      mstore\n      dup1\n      0x02\n      dup2\n      mstore\n      0x20\n      add\n      0x3536000000000000000000000000000000000000000000000000000000000000\n      dup2\n      mstore\n      pop\n      dup2\n      jump\t// out\n        /* \"protocol/libraries/helpers/Errors.sol\":1926:1979  string public constant EMODE_CATEGORY_RESERVED = '16' */\n    tag_367:\n      mload(0x40)\n      dup1\n      0x40\n      add\n      0x40\n      mstore\n      dup1\n      0x02\n      dup2\n      mstore\n      0x20\n      add\n      0x3136000000000000000000000000000000000000000000000000000000000000\n      dup2\n      mstore\n      pop\n      dup2\n      jump\t// out\n        /* \"protocol/libraries/helpers/Errors.sol\":7270:7316  string public constant INVALID_DECIMALS = '66' */\n    tag_370:\n      mload(0x40)\n      dup1\n      0x40\n      add\n      0x40\n      mstore\n      dup1\n      0x02\n      dup2\n      mstore\n      0x20\n      add\n      0x3636000000000000000000000000000000000000000000000000000000000000\n      dup2\n      mstore\n      pop\n      dup2\n      jump\t// out\n        /* \"protocol/libraries/helpers/Errors.sol\":2940:2984  string public constant INVALID_AMOUNT = '26' */\n    tag_373:\n      mload(0x40)\n      dup1\n      0x40\n      add\n      0x40\n      mstore\n      dup1\n      0x02\n      dup2\n      mstore\n      0x20\n      add\n      0x3236000000000000000000000000000000000000000000000000000000000000\n      dup2\n      mstore\n      pop\n      dup2\n      jump\t// out\n        /* \"protocol/libraries/helpers/Errors.sol\":8188:8242  string public constant ACL_ADMIN_CANNOT_BE_ZERO = '75' */\n    tag_376:\n      mload(0x40)\n      dup1\n      0x40\n      add\n      0x40\n      mstore\n      dup1\n      0x02\n      dup2\n      mstore\n      0x20\n      add\n      0x3735000000000000000000000000000000000000000000000000000000000000\n      dup2\n      mstore\n      pop\n      dup2\n      jump\t// out\n        /* \"#utility.yul\":7:106   */\n    tag_378:\n        /* \"#utility.yul\":59:65   */\n      0x00\n        /* \"#utility.yul\":93:98   */\n      dup2\n        /* \"#utility.yul\":87:99   */\n      mload\n        /* \"#utility.yul\":77:99   */\n      swap1\n      pop\n        /* \"#utility.yul\":7:106   */\n      swap2\n      swap1\n      pop\n      jump\t// out\n        /* \"#utility.yul\":112:289   */\n    tag_379:\n        /* \"#utility.yul\":204:215   */\n      0x00\n        /* \"#utility.yul\":238:244   */\n      dup3\n        /* \"#utility.yul\":233:236   */\n      dup3\n        /* \"#utility.yul\":226:245   */\n      mstore\n        /* \"#utility.yul\":278:282   */\n      0x20\n        /* \"#utility.yul\":273:276   */\n      dup3\n        /* \"#utility.yul\":269:283   */\n      add\n        /* \"#utility.yul\":254:283   */\n      swap1\n      pop\n        /* \"#utility.yul\":112:289   */\n      swap3\n      swap2\n      pop\n      pop\n      jump\t// out\n        /* \"#utility.yul\":295:602   */\n    tag_380:\n        /* \"#utility.yul\":363:364   */\n      0x00\n        /* \"#utility.yul\":373:486   */\n    tag_387:\n        /* \"#utility.yul\":387:393   */\n      dup4\n        /* \"#utility.yul\":384:385   */\n      dup2\n        /* \"#utility.yul\":381:394   */\n      lt\n        /* \"#utility.yul\":373:486   */\n      iszero\n      tag_389\n      jumpi\n        /* \"#utility.yul\":472:473   */\n      dup1\n        /* \"#utility.yul\":467:470   */\n      dup3\n        /* \"#utility.yul\":463:474   */\n      add\n        /* \"#utility.yul\":457:475   */\n      mload\n        /* \"#utility.yul\":453:454   */\n      dup2\n        /* \"#utility.yul\":448:451   */\n      dup5\n        /* \"#utility.yul\":444:455   */\n      add\n        /* \"#utility.yul\":437:476   */\n      mstore\n        /* \"#utility.yul\":409:411   */\n      0x20\n        /* \"#utility.yul\":406:407   */\n      dup2\n        /* \"#utility.yul\":402:412   */\n      add\n        /* \"#utility.yul\":397:412   */\n      swap1\n      pop\n        /* \"#utility.yul\":373:486   */\n      jump(tag_387)\n    tag_389:\n        /* \"#utility.yul\":504:510   */\n      dup4\n        /* \"#utility.yul\":501:502   */\n      dup2\n        /* \"#utility.yul\":498:511   */\n      gt\n        /* \"#utility.yul\":495:596   */\n      iszero\n      tag_390\n      jumpi\n        /* \"#utility.yul\":584:585   */\n      0x00\n        /* \"#utility.yul\":575:581   */\n      dup5\n        /* \"#utility.yul\":570:573   */\n      dup5\n        /* \"#utility.yul\":566:582   */\n      add\n        /* \"#utility.yul\":559:586   */\n      mstore\n        /* \"#utility.yul\":495:596   */\n    tag_390:\n        /* \"#utility.yul\":344:602   */\n      pop\n        /* \"#utility.yul\":295:602   */\n      pop\n      pop\n      pop\n      jump\t// out\n        /* \"#utility.yul\":608:710   */\n    tag_381:\n        /* \"#utility.yul\":649:655   */\n      0x00\n        /* \"#utility.yul\":700:702   */\n      0x1f\n        /* \"#utility.yul\":696:703   */\n      not\n        /* \"#utility.yul\":691:693   */\n      0x1f\n        /* \"#utility.yul\":684:689   */\n      dup4\n        /* \"#utility.yul\":680:694   */\n      add\n        /* \"#utility.yul\":676:704   */\n      and\n        /* \"#utility.yul\":666:704   */\n      swap1\n      pop\n        /* \"#utility.yul\":608:710   */\n      swap2\n      swap1\n      pop\n      jump\t// out\n        /* \"#utility.yul\":716:1096   */\n    tag_382:\n        /* \"#utility.yul\":812:815   */\n      0x00\n        /* \"#utility.yul\":840:879   */\n      tag_393\n        /* \"#utility.yul\":873:878   */\n      dup3\n        /* \"#utility.yul\":840:879   */\n      tag_378\n      jump\t// in\n    tag_393:\n        /* \"#utility.yul\":895:974   */\n      tag_394\n        /* \"#utility.yul\":967:973   */\n      dup2\n        /* \"#utility.yul\":962:965   */\n      dup6\n        /* \"#utility.yul\":895:974   */\n      tag_379\n      jump\t// in\n    tag_394:\n        /* \"#utility.yul\":888:974   */\n      swap4\n      pop\n        /* \"#utility.yul\":983:1035   */\n      tag_395\n        /* \"#utility.yul\":1028:1034   */\n      dup2\n        /* \"#utility.yul\":1023:1026   */\n      dup6\n        /* \"#utility.yul\":1016:1020   */\n      0x20\n        /* \"#utility.yul\":1009:1014   */\n      dup7\n        /* \"#utility.yul\":1005:1021   */\n      add\n        /* \"#utility.yul\":983:1035   */\n      tag_380\n      jump\t// in\n    tag_395:\n        /* \"#utility.yul\":1060:1089   */\n      tag_396\n        /* \"#utility.yul\":1082:1088   */\n      dup2\n        /* \"#utility.yul\":1060:1089   */\n      tag_381\n      jump\t// in\n    tag_396:\n        /* \"#utility.yul\":1055:1058   */\n      dup5\n        /* \"#utility.yul\":1051:1090   */\n      add\n        /* \"#utility.yul\":1044:1090   */\n      swap2\n      pop\n        /* \"#utility.yul\":816:1096   */\n      pop\n        /* \"#utility.yul\":716:1096   */\n      swap3\n      swap2\n      pop\n      pop\n      jump\t// out\n        /* \"#utility.yul\":1102:1431   */\n    tag_110:\n        /* \"#utility.yul\":1223:1227   */\n      0x00\n        /* \"#utility.yul\":1261:1263   */\n      0x20\n        /* \"#utility.yul\":1250:1259   */\n      dup3\n        /* \"#utility.yul\":1246:1264   */\n      add\n        /* \"#utility.yul\":1238:1264   */\n      swap1\n      pop\n        /* \"#utility.yul\":1310:1319   */\n      dup2\n        /* \"#utility.yul\":1304:1308   */\n      dup2\n        /* \"#utility.yul\":1300:1320   */\n      sub\n        /* \"#utility.yul\":1296:1297   */\n      0x00\n        /* \"#utility.yul\":1285:1294   */\n      dup4\n        /* \"#utility.yul\":1281:1298   */\n      add\n        /* \"#utility.yul\":1274:1321   */\n      mstore\n        /* \"#utility.yul\":1338:1424   */\n      tag_398\n        /* \"#utility.yul\":1419:1423   */\n      dup2\n        /* \"#utility.yul\":1410:1416   */\n      dup5\n        /* \"#utility.yul\":1338:1424   */\n      tag_382\n      jump\t// in\n    tag_398:\n        /* \"#utility.yul\":1330:1424   */\n      swap1\n      pop\n        /* \"#utility.yul\":1102:1431   */\n      swap3\n      swap2\n      pop\n      pop\n      jump\t// out\n\n    auxdata: 0xa2646970667358221220b9a248923f39a1da472936d8786331462962500f03eb3a38dc8777f14e5678a564736f6c634300080a0033\n}\n",
        "bytecode": {
          "linkReferences": {},
          "object": "612484610053600b82828239805160001a607314610046577f4e487b7100000000000000000000000000000000000000000000000000000000600052600060045260246000fd5b30600052607381538281f3fe73000000000000000000000000000000000000000030146080604052600436106104f85760003560e01c806389c5d45f11610298578063bad8308c11610171578063dd1dd95f116100e3578063f07f67851161009c578063f07f678514610ed5578063f10727db14610ef3578063f479ea1114610f11578063fa163a8314610f2f578063fae8279114610f4d578063fd1828ff14610f6b576104f8565b8063dd1dd95f14610e21578063de24948c14610e3f578063e02f07ee14610e5d578063e3fa20f514610e7b578063e4dd8b7414610e99578063e981483a14610eb7576104f8565b8063d14bb17a11610135578063d14bb17a14610d6d578063d1cd8b1d14610d8b578063d6f9fcde14610da9578063d9adda8514610dc7578063dc191bd914610de5578063dcc56db614610e03576104f8565b8063bad8308c14610cd7578063c08a114614610cf5578063c863808214610d13578063c899301a14610d31578063cd23367c14610d4f576104f8565b8063a4868dca1161020a578063b0510054116101ce578063b051005414610c23578063b4a4573014610c41578063b5e7936614610c5f578063b68774e914610c7d578063b7f5e22414610c9b578063b87041c214610cb9576104f8565b8063a4868dca14610b8d578063a8c9785314610bab578063ab883ca014610bc9578063abd351b114610be7578063ac75323614610c05576104f8565b8063952633c51161025c578063952633c514610ad95780639527e9d914610af757806399ce53f314610b15578063a2797c8014610b33578063a2e976c614610b51578063a3402a3814610b6f576104f8565b806389c5d45f14610a435780638a34400014610a615780638b8b98d714610a7f5780638eda46bd14610a9d5780638f7722b214610abb576104f8565b80634e3aed37116103d55780636b3f7cc711610347578063747fa55611610300578063747fa5561461098f57806376ae8fca146109ad5780637aa0767e146109cb5780637fea6f36146109e95780638596aad514610a07578063895f7dc814610a25576104f8565b80636b3f7cc7146108db5780636cd3cfbc146108f9578063712f536a1461091757806373dea5e314610935578063744465cc1461095357806374459b1414610971576104f8565b8063570e354711610399578063570e3547146108275780635d9c76c01461084557806360c3de801461086357806361c111d21461088157806365a83bab1461089f57806365e7ef4c146108bd576104f8565b80634e3aed37146107915780634ef999ff146107af5780634f77647b146107cd57806351267450146107eb57806352ba9dbe14610809576104f8565b80632eed17e81161046e578063471df68511610432578063471df685146106dd57806347ba93d8146106fb57806347cf152314610719578063485c8ff6146107375780634d86f393146107555780634e01e3c114610773576104f8565b80632eed17e814610647578063335763de14610665578063366eb54d1461068357806337930782146106a157806343e97c6b146106bf576104f8565b80631abbb001116104c05780631abbb0011461059357806322a73446146105b157806326bbd053146105cf57806326e7b312146105ed5780632926c9711461060b5780632c8e3b4c14610629576104f8565b8063084dfa0d146104fd57806311d7b0061461051b57806312dcade81461053957806314dcfbbc14610557578063198d6a6b14610575575b600080fd5b610505610f89565b604051610512919061242c565b60405180910390f35b610523610fc2565b604051610530919061242c565b60405180910390f35b610541610ffb565b60405161054e919061242c565b60405180910390f35b61055f611034565b60405161056c919061242c565b60405180910390f35b61057d61106d565b60405161058a919061242c565b60405180910390f35b61059b6110a6565b6040516105a8919061242c565b60405180910390f35b6105b96110df565b6040516105c6919061242c565b60405180910390f35b6105d7611118565b6040516105e4919061242c565b60405180910390f35b6105f5611151565b604051610602919061242c565b60405180910390f35b61061361118a565b604051610620919061242c565b60405180910390f35b6106316111c3565b60405161063e919061242c565b60405180910390f35b61064f6111fc565b60405161065c919061242c565b60405180910390f35b61066d611235565b60405161067a919061242c565b60405180910390f35b61068b61126e565b604051610698919061242c565b60405180910390f35b6106a96112a7565b6040516106b6919061242c565b60405180910390f35b6106c76112e0565b6040516106d4919061242c565b60405180910390f35b6106e5611319565b6040516106f2919061242c565b60405180910390f35b610703611352565b604051610710919061242c565b60405180910390f35b61072161138b565b60405161072e919061242c565b60405180910390f35b61073f6113c4565b60405161074c919061242c565b60405180910390f35b61075d6113fd565b60405161076a919061242c565b60405180910390f35b61077b611436565b604051610788919061242c565b60405180910390f35b61079961146f565b6040516107a6919061242c565b60405180910390f35b6107b76114a8565b6040516107c4919061242c565b60405180910390f35b6107d56114e1565b6040516107e2919061242c565b60405180910390f35b6107f361151a565b604051610800919061242c565b60405180910390f35b610811611553565b60405161081e919061242c565b60405180910390f35b61082f61158c565b60405161083c919061242c565b60405180910390f35b61084d6115c5565b60405161085a919061242c565b60405180910390f35b61086b6115fe565b604051610878919061242c565b60405180910390f35b610889611637565b604051610896919061242c565b60405180910390f35b6108a7611670565b6040516108b4919061242c565b60405180910390f35b6108c56116a9565b6040516108d2919061242c565b60405180910390f35b6108e36116e2565b6040516108f0919061242c565b60405180910390f35b61090161171b565b60405161090e919061242c565b60405180910390f35b61091f611754565b60405161092c919061242c565b60405180910390f35b61093d61178d565b60405161094a919061242c565b60405180910390f35b61095b6117c6565b604051610968919061242c565b60405180910390f35b6109796117ff565b604051610986919061242c565b60405180910390f35b610997611838565b6040516109a4919061242c565b60405180910390f35b6109b5611871565b6040516109c2919061242c565b60405180910390f35b6109d36118aa565b6040516109e0919061242c565b60405180910390f35b6109f16118e3565b6040516109fe919061242c565b60405180910390f35b610a0f61191c565b604051610a1c919061242c565b60405180910390f35b610a2d611955565b604051610a3a919061242c565b60405180910390f35b610a4b61198e565b604051610a58919061242c565b60405180910390f35b610a696119c7565b604051610a76919061242c565b60405180910390f35b610a87611a00565b604051610a94919061242c565b60405180910390f35b610aa5611a39565b604051610ab2919061242c565b60405180910390f35b610ac3611a72565b604051610ad0919061242c565b60405180910390f35b610ae1611aab565b604051610aee919061242c565b60405180910390f35b610aff611ae4565b604051610b0c919061242c565b60405180910390f35b610b1d611b1d565b604051610b2a919061242c565b60405180910390f35b610b3b611b56565b604051610b48919061242c565b60405180910390f35b610b59611b8f565b604051610b66919061242c565b60405180910390f35b610b77611bc8565b604051610b84919061242c565b60405180910390f35b610b95611c01565b604051610ba2919061242c565b60405180910390f35b610bb3611c3a565b604051610bc0919061242c565b60405180910390f35b610bd1611c73565b604051610bde919061242c565b60405180910390f35b610bef611cac565b604051610bfc919061242c565b60405180910390f35b610c0d611ce5565b604051610c1a919061242c565b60405180910390f35b610c2b611d1e565b604051610c38919061242c565b60405180910390f35b610c49611d57565b604051610c56919061242c565b60405180910390f35b610c67611d90565b604051610c74919061242c565b60405180910390f35b610c85611dc9565b604051610c92919061242c565b60405180910390f35b610ca3611e02565b604051610cb0919061242c565b60405180910390f35b610cc1611e3b565b604051610cce919061242c565b60405180910390f35b610cdf611e74565b604051610cec919061242c565b60405180910390f35b610cfd611ead565b604051610d0a919061242c565b60405180910390f35b610d1b611ee6565b604051610d28919061242c565b60405180910390f35b610d39611f1f565b604051610d46919061242c565b60405180910390f35b610d57611f58565b604051610d64919061242c565b60405180910390f35b610d75611f91565b604051610d82919061242c565b60405180910390f35b610d93611fca565b604051610da0919061242c565b60405180910390f35b610db1612003565b604051610dbe919061242c565b60405180910390f35b610dcf61203c565b604051610ddc919061242c565b60405180910390f35b610ded612075565b604051610dfa919061242c565b60405180910390f35b610e0b6120ae565b604051610e18919061242c565b60405180910390f35b610e296120e7565b604051610e36919061242c565b60405180910390f35b610e47612120565b604051610e54919061242c565b60405180910390f35b610e65612159565b604051610e72919061242c565b60405180910390f35b610e83612192565b604051610e90919061242c565b60405180910390f35b610ea16121cb565b604051610eae919061242c565b60405180910390f35b610ebf612204565b604051610ecc919061242c565b60405180910390f35b610edd61223d565b604051610eea919061242c565b60405180910390f35b610efb612276565b604051610f08919061242c565b60405180910390f35b610f196122af565b604051610f26919061242c565b60405180910390f35b610f376122e8565b604051610f44919061242c565b60405180910390f35b610f55612321565b604051610f62919061242c565b60405180910390f35b610f7361235a565b604051610f80919061242c565b60405180910390f35b6040518060400160405280600281526020017f313800000000000000000000000000000000000000000000000000000000000081525081565b6040518060400160405280600181526020017f390000000000000000000000000000000000000000000000000000000000000081525081565b6040518060400160405280600281526020017f313400000000000000000000000000000000000000000000000000000000000081525081565b6040518060400160405280600281526020017f383600000000000000000000000000000000000000000000000000000000000081525081565b6040518060400160405280600281526020017f383800000000000000000000000000000000000000000000000000000000000081525081565b6040518060400160405280600281526020017f383700000000000000000000000000000000000000000000000000000000000081525081565b6040518060400160405280600281526020017f343700000000000000000000000000000000000000000000000000000000000081525081565b6040518060400160405280600281526020017f363900000000000000000000000000000000000000000000000000000000000081525081565b6040518060400160405280600181526020017f330000000000000000000000000000000000000000000000000000000000000081525081565b6040518060400160405280600281526020017f343400000000000000000000000000000000000000000000000000000000000081525081565b6040518060400160405280600181526020017f350000000000000000000000000000000000000000000000000000000000000081525081565b6040518060400160405280600281526020017f353000000000000000000000000000000000000000000000000000000000000081525081565b6040518060400160405280600281526020017f323000000000000000000000000000000000000000000000000000000000000081525081565b6040518060400160405280600281526020017f333500000000000000000000000000000000000000000000000000000000000081525081565b6040518060400160405280600281526020017f313200000000000000000000000000000000000000000000000000000000000081525081565b6040518060400160405280600281526020017f353400000000000000000000000000000000000000000000000000000000000081525081565b6040518060400160405280600281526020017f323300000000000000000000000000000000000000000000000000000000000081525081565b6040518060400160405280600281526020017f373200000000000000000000000000000000000000000000000000000000000081525081565b6040518060400160405280600281526020017f323100000000000000000000000000000000000000000000000000000000000081525081565b6040518060400160405280600181526020017f320000000000000000000000000000000000000000000000000000000000000081525081565b6040518060400160405280600281526020017f333100000000000000000000000000000000000000000000000000000000000081525081565b6040518060400160405280600281526020017f333400000000000000000000000000000000000000000000000000000000000081525081565b6040518060400160405280600281526020017f383300000000000000000000000000000000000000000000000000000000000081525081565b6040518060400160405280600281526020017f333000000000000000000000000000000000000000000000000000000000000081525081565b6040518060400160405280600181526020017f360000000000000000000000000000000000000000000000000000000000000081525081565b6040518060400160405280600281526020017f323500000000000000000000000000000000000000000000000000000000000081525081565b6040518060400160405280600281526020017f323700000000000000000000000000000000000000000000000000000000000081525081565b6040518060400160405280600281526020017f343800000000000000000000000000000000000000000000000000000000000081525081565b6040518060400160405280600281526020017f313700000000000000000000000000000000000000000000000000000000000081525081565b6040518060400160405280600181526020017f380000000000000000000000000000000000000000000000000000000000000081525081565b6040518060400160405280600281526020017f313000000000000000000000000000000000000000000000000000000000000081525081565b6040518060400160405280600281526020017f353300000000000000000000000000000000000000000000000000000000000081525081565b6040518060400160405280600281526020017f353500000000000000000000000000000000000000000000000000000000000081525081565b6040518060400160405280600281526020017f353200000000000000000000000000000000000000000000000000000000000081525081565b6040518060400160405280600281526020017f323800000000000000000000000000000000000000000000000000000000000081525081565b6040518060400160405280600281526020017f343000000000000000000000000000000000000000000000000000000000000081525081565b6040518060400160405280600281526020017f343900000000000000000000000000000000000000000000000000000000000081525081565b6040518060400160405280600281526020017f363200000000000000000000000000000000000000000000000000000000000081525081565b6040518060400160405280600281526020017f343100000000000000000000000000000000000000000000000000000000000081525081565b6040518060400160405280600281526020017f313900000000000000000000000000000000000000000000000000000000000081525081565b6040518060400160405280600281526020017f313500000000000000000000000000000000000000000000000000000000000081525081565b6040518060400160405280600281526020017f323200000000000000000000000000000000000000000000000000000000000081525081565b6040518060400160405280600281526020017f313300000000000000000000000000000000000000000000000000000000000081525081565b6040518060400160405280600281526020017f363000000000000000000000000000000000000000000000000000000000000081525081565b6040518060400160405280600281526020017f343600000000000000000000000000000000000000000000000000000000000081525081565b6040518060400160405280600281526020017f333300000000000000000000000000000000000000000000000000000000000081525081565b6040518060400160405280600281526020017f333700000000000000000000000000000000000000000000000000000000000081525081565b6040518060400160405280600281526020017f383000000000000000000000000000000000000000000000000000000000000081525081565b6040518060400160405280600281526020017f373000000000000000000000000000000000000000000000000000000000000081525081565b6040518060400160405280600281526020017f353800000000000000000000000000000000000000000000000000000000000081525081565b6040518060400160405280600281526020017f343500000000000000000000000000000000000000000000000000000000000081525081565b6040518060400160405280600281526020017f363500000000000000000000000000000000000000000000000000000000000081525081565b6040518060400160405280600281526020017f363300000000000000000000000000000000000000000000000000000000000081525081565b6040518060400160405280600281526020017f343300000000000000000000000000000000000000000000000000000000000081525081565b6040518060400160405280600281526020017f313100000000000000000000000000000000000000000000000000000000000081525081565b6040518060400160405280600281526020017f373900000000000000000000000000000000000000000000000000000000000081525081565b6040518060400160405280600281526020017f363700000000000000000000000000000000000000000000000000000000000081525081565b6040518060400160405280600281526020017f373100000000000000000000000000000000000000000000000000000000000081525081565b6040518060400160405280600281526020017f383500000000000000000000000000000000000000000000000000000000000081525081565b6040518060400160405280600281526020017f323400000000000000000000000000000000000000000000000000000000000081525081565b6040518060400160405280600181526020017f310000000000000000000000000000000000000000000000000000000000000081525081565b6040518060400160405280600281526020017f353100000000000000000000000000000000000000000000000000000000000081525081565b6040518060400160405280600281526020017f343200000000000000000000000000000000000000000000000000000000000081525081565b6040518060400160405280600181526020017f340000000000000000000000000000000000000000000000000000000000000081525081565b6040518060400160405280600281526020017f323900000000000000000000000000000000000000000000000000000000000081525081565b6040518060400160405280600281526020017f333200000000000000000000000000000000000000000000000000000000000081525081565b6040518060400160405280600281526020017f353700000000000000000000000000000000000000000000000000000000000081525081565b6040518060400160405280600281526020017f373600000000000000000000000000000000000000000000000000000000000081525081565b6040518060400160405280600281526020017f373800000000000000000000000000000000000000000000000000000000000081525081565b6040518060400160405280600281526020017f353900000000000000000000000000000000000000000000000000000000000081525081565b6040518060400160405280600281526020017f383400000000000000000000000000000000000000000000000000000000000081525081565b6040518060400160405280600281526020017f383200000000000000000000000000000000000000000000000000000000000081525081565b6040518060400160405280600281526020017f373700000000000000000000000000000000000000000000000000000000000081525081565b6040518060400160405280600281526020017f373400000000000000000000000000000000000000000000000000000000000081525081565b6040518060400160405280600281526020017f363800000000000000000000000000000000000000000000000000000000000081525081565b6040518060400160405280600281526020017f363100000000000000000000000000000000000000000000000000000000000081525081565b6040518060400160405280600281526020017f333900000000000000000000000000000000000000000000000000000000000081525081565b6040518060400160405280600281526020017f373300000000000000000000000000000000000000000000000000000000000081525081565b6040518060400160405280600281526020017f363400000000000000000000000000000000000000000000000000000000000081525081565b6040518060400160405280600281526020017f383900000000000000000000000000000000000000000000000000000000000081525081565b6040518060400160405280600181526020017f370000000000000000000000000000000000000000000000000000000000000081525081565b6040518060400160405280600281526020017f333600000000000000000000000000000000000000000000000000000000000081525081565b6040518060400160405280600281526020017f383100000000000000000000000000000000000000000000000000000000000081525081565b6040518060400160405280600281526020017f393000000000000000000000000000000000000000000000000000000000000081525081565b6040518060400160405280600281526020017f333800000000000000000000000000000000000000000000000000000000000081525081565b6040518060400160405280600281526020017f353600000000000000000000000000000000000000000000000000000000000081525081565b6040518060400160405280600281526020017f313600000000000000000000000000000000000000000000000000000000000081525081565b6040518060400160405280600281526020017f363600000000000000000000000000000000000000000000000000000000000081525081565b6040518060400160405280600281526020017f323600000000000000000000000000000000000000000000000000000000000081525081565b6040518060400160405280600281526020017f373500000000000000000000000000000000000000000000000000000000000081525081565b600081519050919050565b600082825260208201905092915050565b60005b838110156123cd5780820151818401526020810190506123b2565b838111156123dc576000848401525b50505050565b6000601f19601f8301169050919050565b60006123fe82612393565b612408818561239e565b93506124188185602086016123af565b612421816123e2565b840191505092915050565b6000602082019050818103600083015261244681846123f3565b90509291505056fea2646970667358221220b9a248923f39a1da472936d8786331462962500f03eb3a38dc8777f14e5678a564736f6c634300080a0033",
          "opcodes": "PUSH2 0x2484 PUSH2 0x53 PUSH1 0xB DUP3 DUP3 DUP3 CODECOPY DUP1 MLOAD PUSH1 0x0 BYTE PUSH1 0x73 EQ PUSH2 0x46 JUMPI PUSH32 0x4E487B7100000000000000000000000000000000000000000000000000000000 PUSH1 0x0 MSTORE PUSH1 0x0 PUSH1 0x4 MSTORE PUSH1 0x24 PUSH1 0x0 REVERT JUMPDEST ADDRESS PUSH1 0x0 MSTORE PUSH1 0x73 DUP2 MSTORE8 DUP3 DUP2 RETURN INVALID PUSH20 0x0 ADDRESS EQ PUSH1 0x80 PUSH1 0x40 MSTORE PUSH1 0x4 CALLDATASIZE LT PUSH2 0x4F8 JUMPI PUSH1 0x0 CALLDATALOAD PUSH1 0xE0 SHR DUP1 PUSH4 0x89C5D45F GT PUSH2 0x298 JUMPI DUP1 PUSH4 0xBAD8308C GT PUSH2 0x171 JUMPI DUP1 PUSH4 0xDD1DD95F GT PUSH2 0xE3 JUMPI DUP1 PUSH4 0xF07F6785 GT PUSH2 0x9C JUMPI DUP1 PUSH4 0xF07F6785 EQ PUSH2 0xED5 JUMPI DUP1 PUSH4 0xF10727DB EQ PUSH2 0xEF3 JUMPI DUP1 PUSH4 0xF479EA11 EQ PUSH2 0xF11 JUMPI DUP1 PUSH4 0xFA163A83 EQ PUSH2 0xF2F JUMPI DUP1 PUSH4 0xFAE82791 EQ PUSH2 0xF4D JUMPI DUP1 PUSH4 0xFD1828FF EQ PUSH2 0xF6B JUMPI PUSH2 0x4F8 JUMP JUMPDEST DUP1 PUSH4 0xDD1DD95F EQ PUSH2 0xE21 JUMPI DUP1 PUSH4 0xDE24948C EQ PUSH2 0xE3F JUMPI DUP1 PUSH4 0xE02F07EE EQ PUSH2 0xE5D JUMPI DUP1 PUSH4 0xE3FA20F5 EQ PUSH2 0xE7B JUMPI DUP1 PUSH4 0xE4DD8B74 EQ PUSH2 0xE99 JUMPI DUP1 PUSH4 0xE981483A EQ PUSH2 0xEB7 JUMPI PUSH2 0x4F8 JUMP JUMPDEST DUP1 PUSH4 0xD14BB17A GT PUSH2 0x135 JUMPI DUP1 PUSH4 0xD14BB17A EQ PUSH2 0xD6D JUMPI DUP1 PUSH4 0xD1CD8B1D EQ PUSH2 0xD8B JUMPI DUP1 PUSH4 0xD6F9FCDE EQ PUSH2 0xDA9 JUMPI DUP1 PUSH4 0xD9ADDA85 EQ PUSH2 0xDC7 JUMPI DUP1 PUSH4 0xDC191BD9 EQ PUSH2 0xDE5 JUMPI DUP1 PUSH4 0xDCC56DB6 EQ PUSH2 0xE03 JUMPI PUSH2 0x4F8 JUMP JUMPDEST DUP1 PUSH4 0xBAD8308C EQ PUSH2 0xCD7 JUMPI DUP1 PUSH4 0xC08A1146 EQ PUSH2 0xCF5 JUMPI DUP1 PUSH4 0xC8638082 EQ PUSH2 0xD13 JUMPI DUP1 PUSH4 0xC899301A EQ PUSH2 0xD31 JUMPI DUP1 PUSH4 0xCD23367C EQ PUSH2 0xD4F JUMPI PUSH2 0x4F8 JUMP JUMPDEST DUP1 PUSH4 0xA4868DCA GT PUSH2 0x20A JUMPI DUP1 PUSH4 0xB0510054 GT PUSH2 0x1CE JUMPI DUP1 PUSH4 0xB0510054 EQ PUSH2 0xC23 JUMPI DUP1 PUSH4 0xB4A45730 EQ PUSH2 0xC41 JUMPI DUP1 PUSH4 0xB5E79366 EQ PUSH2 0xC5F JUMPI DUP1 PUSH4 0xB68774E9 EQ PUSH2 0xC7D JUMPI DUP1 PUSH4 0xB7F5E224 EQ PUSH2 0xC9B JUMPI DUP1 PUSH4 0xB87041C2 EQ PUSH2 0xCB9 JUMPI PUSH2 0x4F8 JUMP JUMPDEST DUP1 PUSH4 0xA4868DCA EQ PUSH2 0xB8D JUMPI DUP1 PUSH4 0xA8C97853 EQ PUSH2 0xBAB JUMPI DUP1 PUSH4 0xAB883CA0 EQ PUSH2 0xBC9 JUMPI DUP1 PUSH4 0xABD351B1 EQ PUSH2 0xBE7 JUMPI DUP1 PUSH4 0xAC753236 EQ PUSH2 0xC05 JUMPI PUSH2 0x4F8 JUMP JUMPDEST DUP1 PUSH4 0x952633C5 GT PUSH2 0x25C JUMPI DUP1 PUSH4 0x952633C5 EQ PUSH2 0xAD9 JUMPI DUP1 PUSH4 0x9527E9D9 EQ PUSH2 0xAF7 JUMPI DUP1 PUSH4 0x99CE53F3 EQ PUSH2 0xB15 JUMPI DUP1 PUSH4 0xA2797C80 EQ PUSH2 0xB33 JUMPI DUP1 PUSH4 0xA2E976C6 EQ PUSH2 0xB51 JUMPI DUP1 PUSH4 0xA3402A38 EQ PUSH2 0xB6F JUMPI PUSH2 0x4F8 JUMP JUMPDEST DUP1 PUSH4 0x89C5D45F EQ PUSH2 0xA43 JUMPI DUP1 PUSH4 0x8A344000 EQ PUSH2 0xA61 JUMPI DUP1 PUSH4 0x8B8B98D7 EQ PUSH2 0xA7F JUMPI DUP1 PUSH4 0x8EDA46BD EQ PUSH2 0xA9D JUMPI DUP1 PUSH4 0x8F7722B2 EQ PUSH2 0xABB JUMPI PUSH2 0x4F8 JUMP JUMPDEST DUP1 PUSH4 0x4E3AED37 GT PUSH2 0x3D5 JUMPI DUP1 PUSH4 0x6B3F7CC7 GT PUSH2 0x347 JUMPI DUP1 PUSH4 0x747FA556 GT PUSH2 0x300 JUMPI DUP1 PUSH4 0x747FA556 EQ PUSH2 0x98F JUMPI DUP1 PUSH4 0x76AE8FCA EQ PUSH2 0x9AD JUMPI DUP1 PUSH4 0x7AA0767E EQ PUSH2 0x9CB JUMPI DUP1 PUSH4 0x7FEA6F36 EQ PUSH2 0x9E9 JUMPI DUP1 PUSH4 0x8596AAD5 EQ PUSH2 0xA07 JUMPI DUP1 PUSH4 0x895F7DC8 EQ PUSH2 0xA25 JUMPI PUSH2 0x4F8 JUMP JUMPDEST DUP1 PUSH4 0x6B3F7CC7 EQ PUSH2 0x8DB JUMPI DUP1 PUSH4 0x6CD3CFBC EQ PUSH2 0x8F9 JUMPI DUP1 PUSH4 0x712F536A EQ PUSH2 0x917 JUMPI DUP1 PUSH4 0x73DEA5E3 EQ PUSH2 0x935 JUMPI DUP1 PUSH4 0x744465CC EQ PUSH2 0x953 JUMPI DUP1 PUSH4 0x74459B14 EQ PUSH2 0x971 JUMPI PUSH2 0x4F8 JUMP JUMPDEST DUP1 PUSH4 0x570E3547 GT PUSH2 0x399 JUMPI DUP1 PUSH4 0x570E3547 EQ PUSH2 0x827 JUMPI DUP1 PUSH4 0x5D9C76C0 EQ PUSH2 0x845 JUMPI DUP1 PUSH4 0x60C3DE80 EQ PUSH2 0x863 JUMPI DUP1 PUSH4 0x61C111D2 EQ PUSH2 0x881 JUMPI DUP1 PUSH4 0x65A83BAB EQ PUSH2 0x89F JUMPI DUP1 PUSH4 0x65E7EF4C EQ PUSH2 0x8BD JUMPI PUSH2 0x4F8 JUMP JUMPDEST DUP1 PUSH4 0x4E3AED37 EQ PUSH2 0x791 JUMPI DUP1 PUSH4 0x4EF999FF EQ PUSH2 0x7AF JUMPI DUP1 PUSH4 0x4F77647B EQ PUSH2 0x7CD JUMPI DUP1 PUSH4 0x51267450 EQ PUSH2 0x7EB JUMPI DUP1 PUSH4 0x52BA9DBE EQ PUSH2 0x809 JUMPI PUSH2 0x4F8 JUMP JUMPDEST DUP1 PUSH4 0x2EED17E8 GT PUSH2 0x46E JUMPI DUP1 PUSH4 0x471DF685 GT PUSH2 0x432 JUMPI DUP1 PUSH4 0x471DF685 EQ PUSH2 0x6DD JUMPI DUP1 PUSH4 0x47BA93D8 EQ PUSH2 0x6FB JUMPI DUP1 PUSH4 0x47CF1523 EQ PUSH2 0x719 JUMPI DUP1 PUSH4 0x485C8FF6 EQ PUSH2 0x737 JUMPI DUP1 PUSH4 0x4D86F393 EQ PUSH2 0x755 JUMPI DUP1 PUSH4 0x4E01E3C1 EQ PUSH2 0x773 JUMPI PUSH2 0x4F8 JUMP JUMPDEST DUP1 PUSH4 0x2EED17E8 EQ PUSH2 0x647 JUMPI DUP1 PUSH4 0x335763DE EQ PUSH2 0x665 JUMPI DUP1 PUSH4 0x366EB54D EQ PUSH2 0x683 JUMPI DUP1 PUSH4 0x37930782 EQ PUSH2 0x6A1 JUMPI DUP1 PUSH4 0x43E97C6B EQ PUSH2 0x6BF JUMPI PUSH2 0x4F8 JUMP JUMPDEST DUP1 PUSH4 0x1ABBB001 GT PUSH2 0x4C0 JUMPI DUP1 PUSH4 0x1ABBB001 EQ PUSH2 0x593 JUMPI DUP1 PUSH4 0x22A73446 EQ PUSH2 0x5B1 JUMPI DUP1 PUSH4 0x26BBD053 EQ PUSH2 0x5CF JUMPI DUP1 PUSH4 0x26E7B312 EQ PUSH2 0x5ED JUMPI DUP1 PUSH4 0x2926C971 EQ PUSH2 0x60B JUMPI DUP1 PUSH4 0x2C8E3B4C EQ PUSH2 0x629 JUMPI PUSH2 0x4F8 JUMP JUMPDEST DUP1 PUSH4 0x84DFA0D EQ PUSH2 0x4FD JUMPI DUP1 PUSH4 0x11D7B006 EQ PUSH2 0x51B JUMPI DUP1 PUSH4 0x12DCADE8 EQ PUSH2 0x539 JUMPI DUP1 PUSH4 0x14DCFBBC EQ PUSH2 0x557 JUMPI DUP1 PUSH4 0x198D6A6B EQ PUSH2 0x575 JUMPI JUMPDEST PUSH1 0x0 DUP1 REVERT JUMPDEST PUSH2 0x505 PUSH2 0xF89 JUMP JUMPDEST PUSH1 0x40 MLOAD PUSH2 0x512 SWAP2 SWAP1 PUSH2 0x242C JUMP JUMPDEST PUSH1 0x40 MLOAD DUP1 SWAP2 SUB SWAP1 RETURN JUMPDEST PUSH2 0x523 PUSH2 0xFC2 JUMP JUMPDEST PUSH1 0x40 MLOAD PUSH2 0x530 SWAP2 SWAP1 PUSH2 0x242C JUMP JUMPDEST PUSH1 0x40 MLOAD DUP1 SWAP2 SUB SWAP1 RETURN JUMPDEST PUSH2 0x541 PUSH2 0xFFB JUMP JUMPDEST PUSH1 0x40 MLOAD PUSH2 0x54E SWAP2 SWAP1 PUSH2 0x242C JUMP JUMPDEST PUSH1 0x40 MLOAD DUP1 SWAP2 SUB SWAP1 RETURN JUMPDEST PUSH2 0x55F PUSH2 0x1034 JUMP JUMPDEST PUSH1 0x40 MLOAD PUSH2 0x56C SWAP2 SWAP1 PUSH2 0x242C JUMP JUMPDEST PUSH1 0x40 MLOAD DUP1 SWAP2 SUB SWAP1 RETURN JUMPDEST PUSH2 0x57D PUSH2 0x106D JUMP JUMPDEST PUSH1 0x40 MLOAD PUSH2 0x58A SWAP2 SWAP1 PUSH2 0x242C JUMP JUMPDEST PUSH1 0x40 MLOAD DUP1 SWAP2 SUB SWAP1 RETURN JUMPDEST PUSH2 0x59B PUSH2 0x10A6 JUMP JUMPDEST PUSH1 0x40 MLOAD PUSH2 0x5A8 SWAP2 SWAP1 PUSH2 0x242C JUMP JUMPDEST PUSH1 0x40 MLOAD DUP1 SWAP2 SUB SWAP1 RETURN JUMPDEST PUSH2 0x5B9 PUSH2 0x10DF JUMP JUMPDEST PUSH1 0x40 MLOAD PUSH2 0x5C6 SWAP2 SWAP1 PUSH2 0x242C JUMP JUMPDEST PUSH1 0x40 MLOAD DUP1 SWAP2 SUB SWAP1 RETURN JUMPDEST PUSH2 0x5D7 PUSH2 0x1118 JUMP JUMPDEST PUSH1 0x40 MLOAD PUSH2 0x5E4 SWAP2 SWAP1 PUSH2 0x242C JUMP JUMPDEST PUSH1 0x40 MLOAD DUP1 SWAP2 SUB SWAP1 RETURN JUMPDEST PUSH2 0x5F5 PUSH2 0x1151 JUMP JUMPDEST PUSH1 0x40 MLOAD PUSH2 0x602 SWAP2 SWAP1 PUSH2 0x242C JUMP JUMPDEST PUSH1 0x40 MLOAD DUP1 SWAP2 SUB SWAP1 RETURN JUMPDEST PUSH2 0x613 PUSH2 0x118A JUMP JUMPDEST PUSH1 0x40 MLOAD PUSH2 0x620 SWAP2 SWAP1 PUSH2 0x242C JUMP JUMPDEST PUSH1 0x40 MLOAD DUP1 SWAP2 SUB SWAP1 RETURN JUMPDEST PUSH2 0x631 PUSH2 0x11C3 JUMP JUMPDEST PUSH1 0x40 MLOAD PUSH2 0x63E SWAP2 SWAP1 PUSH2 0x242C JUMP JUMPDEST PUSH1 0x40 MLOAD DUP1 SWAP2 SUB SWAP1 RETURN JUMPDEST PUSH2 0x64F PUSH2 0x11FC JUMP JUMPDEST PUSH1 0x40 MLOAD PUSH2 0x65C SWAP2 SWAP1 PUSH2 0x242C JUMP JUMPDEST PUSH1 0x40 MLOAD DUP1 SWAP2 SUB SWAP1 RETURN JUMPDEST PUSH2 0x66D PUSH2 0x1235 JUMP JUMPDEST PUSH1 0x40 MLOAD PUSH2 0x67A SWAP2 SWAP1 PUSH2 0x242C JUMP JUMPDEST PUSH1 0x40 MLOAD DUP1 SWAP2 SUB SWAP1 RETURN JUMPDEST PUSH2 0x68B PUSH2 0x126E JUMP JUMPDEST PUSH1 0x40 MLOAD PUSH2 0x698 SWAP2 SWAP1 PUSH2 0x242C JUMP JUMPDEST PUSH1 0x40 MLOAD DUP1 SWAP2 SUB SWAP1 RETURN JUMPDEST PUSH2 0x6A9 PUSH2 0x12A7 JUMP JUMPDEST PUSH1 0x40 MLOAD PUSH2 0x6B6 SWAP2 SWAP1 PUSH2 0x242C JUMP JUMPDEST PUSH1 0x40 MLOAD DUP1 SWAP2 SUB SWAP1 RETURN JUMPDEST PUSH2 0x6C7 PUSH2 0x12E0 JUMP JUMPDEST PUSH1 0x40 MLOAD PUSH2 0x6D4 SWAP2 SWAP1 PUSH2 0x242C JUMP JUMPDEST PUSH1 0x40 MLOAD DUP1 SWAP2 SUB SWAP1 RETURN JUMPDEST PUSH2 0x6E5 PUSH2 0x1319 JUMP JUMPDEST PUSH1 0x40 MLOAD PUSH2 0x6F2 SWAP2 SWAP1 PUSH2 0x242C JUMP JUMPDEST PUSH1 0x40 MLOAD DUP1 SWAP2 SUB SWAP1 RETURN JUMPDEST PUSH2 0x703 PUSH2 0x1352 JUMP JUMPDEST PUSH1 0x40 MLOAD PUSH2 0x710 SWAP2 SWAP1 PUSH2 0x242C JUMP JUMPDEST PUSH1 0x40 MLOAD DUP1 SWAP2 SUB SWAP1 RETURN JUMPDEST PUSH2 0x721 PUSH2 0x138B JUMP JUMPDEST PUSH1 0x40 MLOAD PUSH2 0x72E SWAP2 SWAP1 PUSH2 0x242C JUMP JUMPDEST PUSH1 0x40 MLOAD DUP1 SWAP2 SUB SWAP1 RETURN JUMPDEST PUSH2 0x73F PUSH2 0x13C4 JUMP JUMPDEST PUSH1 0x40 MLOAD PUSH2 0x74C SWAP2 SWAP1 PUSH2 0x242C JUMP JUMPDEST PUSH1 0x40 MLOAD DUP1 SWAP2 SUB SWAP1 RETURN JUMPDEST PUSH2 0x75D PUSH2 0x13FD JUMP JUMPDEST PUSH1 0x40 MLOAD PUSH2 0x76A SWAP2 SWAP1 PUSH2 0x242C JUMP JUMPDEST PUSH1 0x40 MLOAD DUP1 SWAP2 SUB SWAP1 RETURN JUMPDEST PUSH2 0x77B PUSH2 0x1436 JUMP JUMPDEST PUSH1 0x40 MLOAD PUSH2 0x788 SWAP2 SWAP1 PUSH2 0x242C JUMP JUMPDEST PUSH1 0x40 MLOAD DUP1 SWAP2 SUB SWAP1 RETURN JUMPDEST PUSH2 0x799 PUSH2 0x146F JUMP JUMPDEST PUSH1 0x40 MLOAD PUSH2 0x7A6 SWAP2 SWAP1 PUSH2 0x242C JUMP JUMPDEST PUSH1 0x40 MLOAD DUP1 SWAP2 SUB SWAP1 RETURN JUMPDEST PUSH2 0x7B7 PUSH2 0x14A8 JUMP JUMPDEST PUSH1 0x40 MLOAD PUSH2 0x7C4 SWAP2 SWAP1 PUSH2 0x242C JUMP JUMPDEST PUSH1 0x40 MLOAD DUP1 SWAP2 SUB SWAP1 RETURN JUMPDEST PUSH2 0x7D5 PUSH2 0x14E1 JUMP JUMPDEST PUSH1 0x40 MLOAD PUSH2 0x7E2 SWAP2 SWAP1 PUSH2 0x242C JUMP JUMPDEST PUSH1 0x40 MLOAD DUP1 SWAP2 SUB SWAP1 RETURN JUMPDEST PUSH2 0x7F3 PUSH2 0x151A JUMP JUMPDEST PUSH1 0x40 MLOAD PUSH2 0x800 SWAP2 SWAP1 PUSH2 0x242C JUMP JUMPDEST PUSH1 0x40 MLOAD DUP1 SWAP2 SUB SWAP1 RETURN JUMPDEST PUSH2 0x811 PUSH2 0x1553 JUMP JUMPDEST PUSH1 0x40 MLOAD PUSH2 0x81E SWAP2 SWAP1 PUSH2 0x242C JUMP JUMPDEST PUSH1 0x40 MLOAD DUP1 SWAP2 SUB SWAP1 RETURN JUMPDEST PUSH2 0x82F PUSH2 0x158C JUMP JUMPDEST PUSH1 0x40 MLOAD PUSH2 0x83C SWAP2 SWAP1 PUSH2 0x242C JUMP JUMPDEST PUSH1 0x40 MLOAD DUP1 SWAP2 SUB SWAP1 RETURN JUMPDEST PUSH2 0x84D PUSH2 0x15C5 JUMP JUMPDEST PUSH1 0x40 MLOAD PUSH2 0x85A SWAP2 SWAP1 PUSH2 0x242C JUMP JUMPDEST PUSH1 0x40 MLOAD DUP1 SWAP2 SUB SWAP1 RETURN JUMPDEST PUSH2 0x86B PUSH2 0x15FE JUMP JUMPDEST PUSH1 0x40 MLOAD PUSH2 0x878 SWAP2 SWAP1 PUSH2 0x242C JUMP JUMPDEST PUSH1 0x40 MLOAD DUP1 SWAP2 SUB SWAP1 RETURN JUMPDEST PUSH2 0x889 PUSH2 0x1637 JUMP JUMPDEST PUSH1 0x40 MLOAD PUSH2 0x896 SWAP2 SWAP1 PUSH2 0x242C JUMP JUMPDEST PUSH1 0x40 MLOAD DUP1 SWAP2 SUB SWAP1 RETURN JUMPDEST PUSH2 0x8A7 PUSH2 0x1670 JUMP JUMPDEST PUSH1 0x40 MLOAD PUSH2 0x8B4 SWAP2 SWAP1 PUSH2 0x242C JUMP JUMPDEST PUSH1 0x40 MLOAD DUP1 SWAP2 SUB SWAP1 RETURN JUMPDEST PUSH2 0x8C5 PUSH2 0x16A9 JUMP JUMPDEST PUSH1 0x40 MLOAD PUSH2 0x8D2 SWAP2 SWAP1 PUSH2 0x242C JUMP JUMPDEST PUSH1 0x40 MLOAD DUP1 SWAP2 SUB SWAP1 RETURN JUMPDEST PUSH2 0x8E3 PUSH2 0x16E2 JUMP JUMPDEST PUSH1 0x40 MLOAD PUSH2 0x8F0 SWAP2 SWAP1 PUSH2 0x242C JUMP JUMPDEST PUSH1 0x40 MLOAD DUP1 SWAP2 SUB SWAP1 RETURN JUMPDEST PUSH2 0x901 PUSH2 0x171B JUMP JUMPDEST PUSH1 0x40 MLOAD PUSH2 0x90E SWAP2 SWAP1 PUSH2 0x242C JUMP JUMPDEST PUSH1 0x40 MLOAD DUP1 SWAP2 SUB SWAP1 RETURN JUMPDEST PUSH2 0x91F PUSH2 0x1754 JUMP JUMPDEST PUSH1 0x40 MLOAD PUSH2 0x92C SWAP2 SWAP1 PUSH2 0x242C JUMP JUMPDEST PUSH1 0x40 MLOAD DUP1 SWAP2 SUB SWAP1 RETURN JUMPDEST PUSH2 0x93D PUSH2 0x178D JUMP JUMPDEST PUSH1 0x40 MLOAD PUSH2 0x94A SWAP2 SWAP1 PUSH2 0x242C JUMP JUMPDEST PUSH1 0x40 MLOAD DUP1 SWAP2 SUB SWAP1 RETURN JUMPDEST PUSH2 0x95B PUSH2 0x17C6 JUMP JUMPDEST PUSH1 0x40 MLOAD PUSH2 0x968 SWAP2 SWAP1 PUSH2 0x242C JUMP JUMPDEST PUSH1 0x40 MLOAD DUP1 SWAP2 SUB SWAP1 RETURN JUMPDEST PUSH2 0x979 PUSH2 0x17FF JUMP JUMPDEST PUSH1 0x40 MLOAD PUSH2 0x986 SWAP2 SWAP1 PUSH2 0x242C JUMP JUMPDEST PUSH1 0x40 MLOAD DUP1 SWAP2 SUB SWAP1 RETURN JUMPDEST PUSH2 0x997 PUSH2 0x1838 JUMP JUMPDEST PUSH1 0x40 MLOAD PUSH2 0x9A4 SWAP2 SWAP1 PUSH2 0x242C JUMP JUMPDEST PUSH1 0x40 MLOAD DUP1 SWAP2 SUB SWAP1 RETURN JUMPDEST PUSH2 0x9B5 PUSH2 0x1871 JUMP JUMPDEST PUSH1 0x40 MLOAD PUSH2 0x9C2 SWAP2 SWAP1 PUSH2 0x242C JUMP JUMPDEST PUSH1 0x40 MLOAD DUP1 SWAP2 SUB SWAP1 RETURN JUMPDEST PUSH2 0x9D3 PUSH2 0x18AA JUMP JUMPDEST PUSH1 0x40 MLOAD PUSH2 0x9E0 SWAP2 SWAP1 PUSH2 0x242C JUMP JUMPDEST PUSH1 0x40 MLOAD DUP1 SWAP2 SUB SWAP1 RETURN JUMPDEST PUSH2 0x9F1 PUSH2 0x18E3 JUMP JUMPDEST PUSH1 0x40 MLOAD PUSH2 0x9FE SWAP2 SWAP1 PUSH2 0x242C JUMP JUMPDEST PUSH1 0x40 MLOAD DUP1 SWAP2 SUB SWAP1 RETURN JUMPDEST PUSH2 0xA0F PUSH2 0x191C JUMP JUMPDEST PUSH1 0x40 MLOAD PUSH2 0xA1C SWAP2 SWAP1 PUSH2 0x242C JUMP JUMPDEST PUSH1 0x40 MLOAD DUP1 SWAP2 SUB SWAP1 RETURN JUMPDEST PUSH2 0xA2D PUSH2 0x1955 JUMP JUMPDEST PUSH1 0x40 MLOAD PUSH2 0xA3A SWAP2 SWAP1 PUSH2 0x242C JUMP JUMPDEST PUSH1 0x40 MLOAD DUP1 SWAP2 SUB SWAP1 RETURN JUMPDEST PUSH2 0xA4B PUSH2 0x198E JUMP JUMPDEST PUSH1 0x40 MLOAD PUSH2 0xA58 SWAP2 SWAP1 PUSH2 0x242C JUMP JUMPDEST PUSH1 0x40 MLOAD DUP1 SWAP2 SUB SWAP1 RETURN JUMPDEST PUSH2 0xA69 PUSH2 0x19C7 JUMP JUMPDEST PUSH1 0x40 MLOAD PUSH2 0xA76 SWAP2 SWAP1 PUSH2 0x242C JUMP JUMPDEST PUSH1 0x40 MLOAD DUP1 SWAP2 SUB SWAP1 RETURN JUMPDEST PUSH2 0xA87 PUSH2 0x1A00 JUMP JUMPDEST PUSH1 0x40 MLOAD PUSH2 0xA94 SWAP2 SWAP1 PUSH2 0x242C JUMP JUMPDEST PUSH1 0x40 MLOAD DUP1 SWAP2 SUB SWAP1 RETURN JUMPDEST PUSH2 0xAA5 PUSH2 0x1A39 JUMP JUMPDEST PUSH1 0x40 MLOAD PUSH2 0xAB2 SWAP2 SWAP1 PUSH2 0x242C JUMP JUMPDEST PUSH1 0x40 MLOAD DUP1 SWAP2 SUB SWAP1 RETURN JUMPDEST PUSH2 0xAC3 PUSH2 0x1A72 JUMP JUMPDEST PUSH1 0x40 MLOAD PUSH2 0xAD0 SWAP2 SWAP1 PUSH2 0x242C JUMP JUMPDEST PUSH1 0x40 MLOAD DUP1 SWAP2 SUB SWAP1 RETURN JUMPDEST PUSH2 0xAE1 PUSH2 0x1AAB JUMP JUMPDEST PUSH1 0x40 MLOAD PUSH2 0xAEE SWAP2 SWAP1 PUSH2 0x242C JUMP JUMPDEST PUSH1 0x40 MLOAD DUP1 SWAP2 SUB SWAP1 RETURN JUMPDEST PUSH2 0xAFF PUSH2 0x1AE4 JUMP JUMPDEST PUSH1 0x40 MLOAD PUSH2 0xB0C SWAP2 SWAP1 PUSH2 0x242C JUMP JUMPDEST PUSH1 0x40 MLOAD DUP1 SWAP2 SUB SWAP1 RETURN JUMPDEST PUSH2 0xB1D PUSH2 0x1B1D JUMP JUMPDEST PUSH1 0x40 MLOAD PUSH2 0xB2A SWAP2 SWAP1 PUSH2 0x242C JUMP JUMPDEST PUSH1 0x40 MLOAD DUP1 SWAP2 SUB SWAP1 RETURN JUMPDEST PUSH2 0xB3B PUSH2 0x1B56 JUMP JUMPDEST PUSH1 0x40 MLOAD PUSH2 0xB48 SWAP2 SWAP1 PUSH2 0x242C JUMP JUMPDEST PUSH1 0x40 MLOAD DUP1 SWAP2 SUB SWAP1 RETURN JUMPDEST PUSH2 0xB59 PUSH2 0x1B8F JUMP JUMPDEST PUSH1 0x40 MLOAD PUSH2 0xB66 SWAP2 SWAP1 PUSH2 0x242C JUMP JUMPDEST PUSH1 0x40 MLOAD DUP1 SWAP2 SUB SWAP1 RETURN JUMPDEST PUSH2 0xB77 PUSH2 0x1BC8 JUMP JUMPDEST PUSH1 0x40 MLOAD PUSH2 0xB84 SWAP2 SWAP1 PUSH2 0x242C JUMP JUMPDEST PUSH1 0x40 MLOAD DUP1 SWAP2 SUB SWAP1 RETURN JUMPDEST PUSH2 0xB95 PUSH2 0x1C01 JUMP JUMPDEST PUSH1 0x40 MLOAD PUSH2 0xBA2 SWAP2 SWAP1 PUSH2 0x242C JUMP JUMPDEST PUSH1 0x40 MLOAD DUP1 SWAP2 SUB SWAP1 RETURN JUMPDEST PUSH2 0xBB3 PUSH2 0x1C3A JUMP JUMPDEST PUSH1 0x40 MLOAD PUSH2 0xBC0 SWAP2 SWAP1 PUSH2 0x242C JUMP JUMPDEST PUSH1 0x40 MLOAD DUP1 SWAP2 SUB SWAP1 RETURN JUMPDEST PUSH2 0xBD1 PUSH2 0x1C73 JUMP JUMPDEST PUSH1 0x40 MLOAD PUSH2 0xBDE SWAP2 SWAP1 PUSH2 0x242C JUMP JUMPDEST PUSH1 0x40 MLOAD DUP1 SWAP2 SUB SWAP1 RETURN JUMPDEST PUSH2 0xBEF PUSH2 0x1CAC JUMP JUMPDEST PUSH1 0x40 MLOAD PUSH2 0xBFC SWAP2 SWAP1 PUSH2 0x242C JUMP JUMPDEST PUSH1 0x40 MLOAD DUP1 SWAP2 SUB SWAP1 RETURN JUMPDEST PUSH2 0xC0D PUSH2 0x1CE5 JUMP JUMPDEST PUSH1 0x40 MLOAD PUSH2 0xC1A SWAP2 SWAP1 PUSH2 0x242C JUMP JUMPDEST PUSH1 0x40 MLOAD DUP1 SWAP2 SUB SWAP1 RETURN JUMPDEST PUSH2 0xC2B PUSH2 0x1D1E JUMP JUMPDEST PUSH1 0x40 MLOAD PUSH2 0xC38 SWAP2 SWAP1 PUSH2 0x242C JUMP JUMPDEST PUSH1 0x40 MLOAD DUP1 SWAP2 SUB SWAP1 RETURN JUMPDEST PUSH2 0xC49 PUSH2 0x1D57 JUMP JUMPDEST PUSH1 0x40 MLOAD PUSH2 0xC56 SWAP2 SWAP1 PUSH2 0x242C JUMP JUMPDEST PUSH1 0x40 MLOAD DUP1 SWAP2 SUB SWAP1 RETURN JUMPDEST PUSH2 0xC67 PUSH2 0x1D90 JUMP JUMPDEST PUSH1 0x40 MLOAD PUSH2 0xC74 SWAP2 SWAP1 PUSH2 0x242C JUMP JUMPDEST PUSH1 0x40 MLOAD DUP1 SWAP2 SUB SWAP1 RETURN JUMPDEST PUSH2 0xC85 PUSH2 0x1DC9 JUMP JUMPDEST PUSH1 0x40 MLOAD PUSH2 0xC92 SWAP2 SWAP1 PUSH2 0x242C JUMP JUMPDEST PUSH1 0x40 MLOAD DUP1 SWAP2 SUB SWAP1 RETURN JUMPDEST PUSH2 0xCA3 PUSH2 0x1E02 JUMP JUMPDEST PUSH1 0x40 MLOAD PUSH2 0xCB0 SWAP2 SWAP1 PUSH2 0x242C JUMP JUMPDEST PUSH1 0x40 MLOAD DUP1 SWAP2 SUB SWAP1 RETURN JUMPDEST PUSH2 0xCC1 PUSH2 0x1E3B JUMP JUMPDEST PUSH1 0x40 MLOAD PUSH2 0xCCE SWAP2 SWAP1 PUSH2 0x242C JUMP JUMPDEST PUSH1 0x40 MLOAD DUP1 SWAP2 SUB SWAP1 RETURN JUMPDEST PUSH2 0xCDF PUSH2 0x1E74 JUMP JUMPDEST PUSH1 0x40 MLOAD PUSH2 0xCEC SWAP2 SWAP1 PUSH2 0x242C JUMP JUMPDEST PUSH1 0x40 MLOAD DUP1 SWAP2 SUB SWAP1 RETURN JUMPDEST PUSH2 0xCFD PUSH2 0x1EAD JUMP JUMPDEST PUSH1 0x40 MLOAD PUSH2 0xD0A SWAP2 SWAP1 PUSH2 0x242C JUMP JUMPDEST PUSH1 0x40 MLOAD DUP1 SWAP2 SUB SWAP1 RETURN JUMPDEST PUSH2 0xD1B PUSH2 0x1EE6 JUMP JUMPDEST PUSH1 0x40 MLOAD PUSH2 0xD28 SWAP2 SWAP1 PUSH2 0x242C JUMP JUMPDEST PUSH1 0x40 MLOAD DUP1 SWAP2 SUB SWAP1 RETURN JUMPDEST PUSH2 0xD39 PUSH2 0x1F1F JUMP JUMPDEST PUSH1 0x40 MLOAD PUSH2 0xD46 SWAP2 SWAP1 PUSH2 0x242C JUMP JUMPDEST PUSH1 0x40 MLOAD DUP1 SWAP2 SUB SWAP1 RETURN JUMPDEST PUSH2 0xD57 PUSH2 0x1F58 JUMP JUMPDEST PUSH1 0x40 MLOAD PUSH2 0xD64 SWAP2 SWAP1 PUSH2 0x242C JUMP JUMPDEST PUSH1 0x40 MLOAD DUP1 SWAP2 SUB SWAP1 RETURN JUMPDEST PUSH2 0xD75 PUSH2 0x1F91 JUMP JUMPDEST PUSH1 0x40 MLOAD PUSH2 0xD82 SWAP2 SWAP1 PUSH2 0x242C JUMP JUMPDEST PUSH1 0x40 MLOAD DUP1 SWAP2 SUB SWAP1 RETURN JUMPDEST PUSH2 0xD93 PUSH2 0x1FCA JUMP JUMPDEST PUSH1 0x40 MLOAD PUSH2 0xDA0 SWAP2 SWAP1 PUSH2 0x242C JUMP JUMPDEST PUSH1 0x40 MLOAD DUP1 SWAP2 SUB SWAP1 RETURN JUMPDEST PUSH2 0xDB1 PUSH2 0x2003 JUMP JUMPDEST PUSH1 0x40 MLOAD PUSH2 0xDBE SWAP2 SWAP1 PUSH2 0x242C JUMP JUMPDEST PUSH1 0x40 MLOAD DUP1 SWAP2 SUB SWAP1 RETURN JUMPDEST PUSH2 0xDCF PUSH2 0x203C JUMP JUMPDEST PUSH1 0x40 MLOAD PUSH2 0xDDC SWAP2 SWAP1 PUSH2 0x242C JUMP JUMPDEST PUSH1 0x40 MLOAD DUP1 SWAP2 SUB SWAP1 RETURN JUMPDEST PUSH2 0xDED PUSH2 0x2075 JUMP JUMPDEST PUSH1 0x40 MLOAD PUSH2 0xDFA SWAP2 SWAP1 PUSH2 0x242C JUMP JUMPDEST PUSH1 0x40 MLOAD DUP1 SWAP2 SUB SWAP1 RETURN JUMPDEST PUSH2 0xE0B PUSH2 0x20AE JUMP JUMPDEST PUSH1 0x40 MLOAD PUSH2 0xE18 SWAP2 SWAP1 PUSH2 0x242C JUMP JUMPDEST PUSH1 0x40 MLOAD DUP1 SWAP2 SUB SWAP1 RETURN JUMPDEST PUSH2 0xE29 PUSH2 0x20E7 JUMP JUMPDEST PUSH1 0x40 MLOAD PUSH2 0xE36 SWAP2 SWAP1 PUSH2 0x242C JUMP JUMPDEST PUSH1 0x40 MLOAD DUP1 SWAP2 SUB SWAP1 RETURN JUMPDEST PUSH2 0xE47 PUSH2 0x2120 JUMP JUMPDEST PUSH1 0x40 MLOAD PUSH2 0xE54 SWAP2 SWAP1 PUSH2 0x242C JUMP JUMPDEST PUSH1 0x40 MLOAD DUP1 SWAP2 SUB SWAP1 RETURN JUMPDEST PUSH2 0xE65 PUSH2 0x2159 JUMP JUMPDEST PUSH1 0x40 MLOAD PUSH2 0xE72 SWAP2 SWAP1 PUSH2 0x242C JUMP JUMPDEST PUSH1 0x40 MLOAD DUP1 SWAP2 SUB SWAP1 RETURN JUMPDEST PUSH2 0xE83 PUSH2 0x2192 JUMP JUMPDEST PUSH1 0x40 MLOAD PUSH2 0xE90 SWAP2 SWAP1 PUSH2 0x242C JUMP JUMPDEST PUSH1 0x40 MLOAD DUP1 SWAP2 SUB SWAP1 RETURN JUMPDEST PUSH2 0xEA1 PUSH2 0x21CB JUMP JUMPDEST PUSH1 0x40 MLOAD PUSH2 0xEAE SWAP2 SWAP1 PUSH2 0x242C JUMP JUMPDEST PUSH1 0x40 MLOAD DUP1 SWAP2 SUB SWAP1 RETURN JUMPDEST PUSH2 0xEBF PUSH2 0x2204 JUMP JUMPDEST PUSH1 0x40 MLOAD PUSH2 0xECC SWAP2 SWAP1 PUSH2 0x242C JUMP JUMPDEST PUSH1 0x40 MLOAD DUP1 SWAP2 SUB SWAP1 RETURN JUMPDEST PUSH2 0xEDD PUSH2 0x223D JUMP JUMPDEST PUSH1 0x40 MLOAD PUSH2 0xEEA SWAP2 SWAP1 PUSH2 0x242C JUMP JUMPDEST PUSH1 0x40 MLOAD DUP1 SWAP2 SUB SWAP1 RETURN JUMPDEST PUSH2 0xEFB PUSH2 0x2276 JUMP JUMPDEST PUSH1 0x40 MLOAD PUSH2 0xF08 SWAP2 SWAP1 PUSH2 0x242C JUMP JUMPDEST PUSH1 0x40 MLOAD DUP1 SWAP2 SUB SWAP1 RETURN JUMPDEST PUSH2 0xF19 PUSH2 0x22AF JUMP JUMPDEST PUSH1 0x40 MLOAD PUSH2 0xF26 SWAP2 SWAP1 PUSH2 0x242C JUMP JUMPDEST PUSH1 0x40 MLOAD DUP1 SWAP2 SUB SWAP1 RETURN JUMPDEST PUSH2 0xF37 PUSH2 0x22E8 JUMP JUMPDEST PUSH1 0x40 MLOAD PUSH2 0xF44 SWAP2 SWAP1 PUSH2 0x242C JUMP JUMPDEST PUSH1 0x40 MLOAD DUP1 SWAP2 SUB SWAP1 RETURN JUMPDEST PUSH2 0xF55 PUSH2 0x2321 JUMP JUMPDEST PUSH1 0x40 MLOAD PUSH2 0xF62 SWAP2 SWAP1 PUSH2 0x242C JUMP JUMPDEST PUSH1 0x40 MLOAD DUP1 SWAP2 SUB SWAP1 RETURN JUMPDEST PUSH2 0xF73 PUSH2 0x235A JUMP JUMPDEST PUSH1 0x40 MLOAD PUSH2 0xF80 SWAP2 SWAP1 PUSH2 0x242C JUMP JUMPDEST PUSH1 0x40 MLOAD DUP1 SWAP2 SUB SWAP1 RETURN JUMPDEST PUSH1 0x40 MLOAD DUP1 PUSH1 0x40 ADD PUSH1 0x40 MSTORE DUP1 PUSH1 0x2 DUP2 MSTORE PUSH1 0x20 ADD PUSH32 0x3138000000000000000000000000000000000000000000000000000000000000 DUP2 MSTORE POP DUP2 JUMP JUMPDEST PUSH1 0x40 MLOAD DUP1 PUSH1 0x40 ADD PUSH1 0x40 MSTORE DUP1 PUSH1 0x1 DUP2 MSTORE PUSH1 0x20 ADD PUSH32 0x3900000000000000000000000000000000000000000000000000000000000000 DUP2 MSTORE POP DUP2 JUMP JUMPDEST PUSH1 0x40 MLOAD DUP1 PUSH1 0x40 ADD PUSH1 0x40 MSTORE DUP1 PUSH1 0x2 DUP2 MSTORE PUSH1 0x20 ADD PUSH32 0x3134000000000000000000000000000000000000000000000000000000000000 DUP2 MSTORE POP DUP2 JUMP JUMPDEST PUSH1 0x40 MLOAD DUP1 PUSH1 0x40 ADD PUSH1 0x40 MSTORE DUP1 PUSH1 0x2 DUP2 MSTORE PUSH1 0x20 ADD PUSH32 0x3836000000000000000000000000000000000000000000000000000000000000 DUP2 MSTORE POP DUP2 JUMP JUMPDEST PUSH1 0x40 MLOAD DUP1 PUSH1 0x40 ADD PUSH1 0x40 MSTORE DUP1 PUSH1 0x2 DUP2 MSTORE PUSH1 0x20 ADD PUSH32 0x3838000000000000000000000000000000000000000000000000000000000000 DUP2 MSTORE POP DUP2 JUMP JUMPDEST PUSH1 0x40 MLOAD DUP1 PUSH1 0x40 ADD PUSH1 0x40 MSTORE DUP1 PUSH1 0x2 DUP2 MSTORE PUSH1 0x20 ADD PUSH32 0x3837000000000000000000000000000000000000000000000000000000000000 DUP2 MSTORE POP DUP2 JUMP JUMPDEST PUSH1 0x40 MLOAD DUP1 PUSH1 0x40 ADD PUSH1 0x40 MSTORE DUP1 PUSH1 0x2 DUP2 MSTORE PUSH1 0x20 ADD PUSH32 0x3437000000000000000000000000000000000000000000000000000000000000 DUP2 MSTORE POP DUP2 JUMP JUMPDEST PUSH1 0x40 MLOAD DUP1 PUSH1 0x40 ADD PUSH1 0x40 MSTORE DUP1 PUSH1 0x2 DUP2 MSTORE PUSH1 0x20 ADD PUSH32 0x3639000000000000000000000000000000000000000000000000000000000000 DUP2 MSTORE POP DUP2 JUMP JUMPDEST PUSH1 0x40 MLOAD DUP1 PUSH1 0x40 ADD PUSH1 0x40 MSTORE DUP1 PUSH1 0x1 DUP2 MSTORE PUSH1 0x20 ADD PUSH32 0x3300000000000000000000000000000000000000000000000000000000000000 DUP2 MSTORE POP DUP2 JUMP JUMPDEST PUSH1 0x40 MLOAD DUP1 PUSH1 0x40 ADD PUSH1 0x40 MSTORE DUP1 PUSH1 0x2 DUP2 MSTORE PUSH1 0x20 ADD PUSH32 0x3434000000000000000000000000000000000000000000000000000000000000 DUP2 MSTORE POP DUP2 JUMP JUMPDEST PUSH1 0x40 MLOAD DUP1 PUSH1 0x40 ADD PUSH1 0x40 MSTORE DUP1 PUSH1 0x1 DUP2 MSTORE PUSH1 0x20 ADD PUSH32 0x3500000000000000000000000000000000000000000000000000000000000000 DUP2 MSTORE POP DUP2 JUMP JUMPDEST PUSH1 0x40 MLOAD DUP1 PUSH1 0x40 ADD PUSH1 0x40 MSTORE DUP1 PUSH1 0x2 DUP2 MSTORE PUSH1 0x20 ADD PUSH32 0x3530000000000000000000000000000000000000000000000000000000000000 DUP2 MSTORE POP DUP2 JUMP JUMPDEST PUSH1 0x40 MLOAD DUP1 PUSH1 0x40 ADD PUSH1 0x40 MSTORE DUP1 PUSH1 0x2 DUP2 MSTORE PUSH1 0x20 ADD PUSH32 0x3230000000000000000000000000000000000000000000000000000000000000 DUP2 MSTORE POP DUP2 JUMP JUMPDEST PUSH1 0x40 MLOAD DUP1 PUSH1 0x40 ADD PUSH1 0x40 MSTORE DUP1 PUSH1 0x2 DUP2 MSTORE PUSH1 0x20 ADD PUSH32 0x3335000000000000000000000000000000000000000000000000000000000000 DUP2 MSTORE POP DUP2 JUMP JUMPDEST PUSH1 0x40 MLOAD DUP1 PUSH1 0x40 ADD PUSH1 0x40 MSTORE DUP1 PUSH1 0x2 DUP2 MSTORE PUSH1 0x20 ADD PUSH32 0x3132000000000000000000000000000000000000000000000000000000000000 DUP2 MSTORE POP DUP2 JUMP JUMPDEST PUSH1 0x40 MLOAD DUP1 PUSH1 0x40 ADD PUSH1 0x40 MSTORE DUP1 PUSH1 0x2 DUP2 MSTORE PUSH1 0x20 ADD PUSH32 0x3534000000000000000000000000000000000000000000000000000000000000 DUP2 MSTORE POP DUP2 JUMP JUMPDEST PUSH1 0x40 MLOAD DUP1 PUSH1 0x40 ADD PUSH1 0x40 MSTORE DUP1 PUSH1 0x2 DUP2 MSTORE PUSH1 0x20 ADD PUSH32 0x3233000000000000000000000000000000000000000000000000000000000000 DUP2 MSTORE POP DUP2 JUMP JUMPDEST PUSH1 0x40 MLOAD DUP1 PUSH1 0x40 ADD PUSH1 0x40 MSTORE DUP1 PUSH1 0x2 DUP2 MSTORE PUSH1 0x20 ADD PUSH32 0x3732000000000000000000000000000000000000000000000000000000000000 DUP2 MSTORE POP DUP2 JUMP JUMPDEST PUSH1 0x40 MLOAD DUP1 PUSH1 0x40 ADD PUSH1 0x40 MSTORE DUP1 PUSH1 0x2 DUP2 MSTORE PUSH1 0x20 ADD PUSH32 0x3231000000000000000000000000000000000000000000000000000000000000 DUP2 MSTORE POP DUP2 JUMP JUMPDEST PUSH1 0x40 MLOAD DUP1 PUSH1 0x40 ADD PUSH1 0x40 MSTORE DUP1 PUSH1 0x1 DUP2 MSTORE PUSH1 0x20 ADD PUSH32 0x3200000000000000000000000000000000000000000000000000000000000000 DUP2 MSTORE POP DUP2 JUMP JUMPDEST PUSH1 0x40 MLOAD DUP1 PUSH1 0x40 ADD PUSH1 0x40 MSTORE DUP1 PUSH1 0x2 DUP2 MSTORE PUSH1 0x20 ADD PUSH32 0x3331000000000000000000000000000000000000000000000000000000000000 DUP2 MSTORE POP DUP2 JUMP JUMPDEST PUSH1 0x40 MLOAD DUP1 PUSH1 0x40 ADD PUSH1 0x40 MSTORE DUP1 PUSH1 0x2 DUP2 MSTORE PUSH1 0x20 ADD PUSH32 0x3334000000000000000000000000000000000000000000000000000000000000 DUP2 MSTORE POP DUP2 JUMP JUMPDEST PUSH1 0x40 MLOAD DUP1 PUSH1 0x40 ADD PUSH1 0x40 MSTORE DUP1 PUSH1 0x2 DUP2 MSTORE PUSH1 0x20 ADD PUSH32 0x3833000000000000000000000000000000000000000000000000000000000000 DUP2 MSTORE POP DUP2 JUMP JUMPDEST PUSH1 0x40 MLOAD DUP1 PUSH1 0x40 ADD PUSH1 0x40 MSTORE DUP1 PUSH1 0x2 DUP2 MSTORE PUSH1 0x20 ADD PUSH32 0x3330000000000000000000000000000000000000000000000000000000000000 DUP2 MSTORE POP DUP2 JUMP JUMPDEST PUSH1 0x40 MLOAD DUP1 PUSH1 0x40 ADD PUSH1 0x40 MSTORE DUP1 PUSH1 0x1 DUP2 MSTORE PUSH1 0x20 ADD PUSH32 0x3600000000000000000000000000000000000000000000000000000000000000 DUP2 MSTORE POP DUP2 JUMP JUMPDEST PUSH1 0x40 MLOAD DUP1 PUSH1 0x40 ADD PUSH1 0x40 MSTORE DUP1 PUSH1 0x2 DUP2 MSTORE PUSH1 0x20 ADD PUSH32 0x3235000000000000000000000000000000000000000000000000000000000000 DUP2 MSTORE POP DUP2 JUMP JUMPDEST PUSH1 0x40 MLOAD DUP1 PUSH1 0x40 ADD PUSH1 0x40 MSTORE DUP1 PUSH1 0x2 DUP2 MSTORE PUSH1 0x20 ADD PUSH32 0x3237000000000000000000000000000000000000000000000000000000000000 DUP2 MSTORE POP DUP2 JUMP JUMPDEST PUSH1 0x40 MLOAD DUP1 PUSH1 0x40 ADD PUSH1 0x40 MSTORE DUP1 PUSH1 0x2 DUP2 MSTORE PUSH1 0x20 ADD PUSH32 0x3438000000000000000000000000000000000000000000000000000000000000 DUP2 MSTORE POP DUP2 JUMP JUMPDEST PUSH1 0x40 MLOAD DUP1 PUSH1 0x40 ADD PUSH1 0x40 MSTORE DUP1 PUSH1 0x2 DUP2 MSTORE PUSH1 0x20 ADD PUSH32 0x3137000000000000000000000000000000000000000000000000000000000000 DUP2 MSTORE POP DUP2 JUMP JUMPDEST PUSH1 0x40 MLOAD DUP1 PUSH1 0x40 ADD PUSH1 0x40 MSTORE DUP1 PUSH1 0x1 DUP2 MSTORE PUSH1 0x20 ADD PUSH32 0x3800000000000000000000000000000000000000000000000000000000000000 DUP2 MSTORE POP DUP2 JUMP JUMPDEST PUSH1 0x40 MLOAD DUP1 PUSH1 0x40 ADD PUSH1 0x40 MSTORE DUP1 PUSH1 0x2 DUP2 MSTORE PUSH1 0x20 ADD PUSH32 0x3130000000000000000000000000000000000000000000000000000000000000 DUP2 MSTORE POP DUP2 JUMP JUMPDEST PUSH1 0x40 MLOAD DUP1 PUSH1 0x40 ADD PUSH1 0x40 MSTORE DUP1 PUSH1 0x2 DUP2 MSTORE PUSH1 0x20 ADD PUSH32 0x3533000000000000000000000000000000000000000000000000000000000000 DUP2 MSTORE POP DUP2 JUMP JUMPDEST PUSH1 0x40 MLOAD DUP1 PUSH1 0x40 ADD PUSH1 0x40 MSTORE DUP1 PUSH1 0x2 DUP2 MSTORE PUSH1 0x20 ADD PUSH32 0x3535000000000000000000000000000000000000000000000000000000000000 DUP2 MSTORE POP DUP2 JUMP JUMPDEST PUSH1 0x40 MLOAD DUP1 PUSH1 0x40 ADD PUSH1 0x40 MSTORE DUP1 PUSH1 0x2 DUP2 MSTORE PUSH1 0x20 ADD PUSH32 0x3532000000000000000000000000000000000000000000000000000000000000 DUP2 MSTORE POP DUP2 JUMP JUMPDEST PUSH1 0x40 MLOAD DUP1 PUSH1 0x40 ADD PUSH1 0x40 MSTORE DUP1 PUSH1 0x2 DUP2 MSTORE PUSH1 0x20 ADD PUSH32 0x3238000000000000000000000000000000000000000000000000000000000000 DUP2 MSTORE POP DUP2 JUMP JUMPDEST PUSH1 0x40 MLOAD DUP1 PUSH1 0x40 ADD PUSH1 0x40 MSTORE DUP1 PUSH1 0x2 DUP2 MSTORE PUSH1 0x20 ADD PUSH32 0x3430000000000000000000000000000000000000000000000000000000000000 DUP2 MSTORE POP DUP2 JUMP JUMPDEST PUSH1 0x40 MLOAD DUP1 PUSH1 0x40 ADD PUSH1 0x40 MSTORE DUP1 PUSH1 0x2 DUP2 MSTORE PUSH1 0x20 ADD PUSH32 0x3439000000000000000000000000000000000000000000000000000000000000 DUP2 MSTORE POP DUP2 JUMP JUMPDEST PUSH1 0x40 MLOAD DUP1 PUSH1 0x40 ADD PUSH1 0x40 MSTORE DUP1 PUSH1 0x2 DUP2 MSTORE PUSH1 0x20 ADD PUSH32 0x3632000000000000000000000000000000000000000000000000000000000000 DUP2 MSTORE POP DUP2 JUMP JUMPDEST PUSH1 0x40 MLOAD DUP1 PUSH1 0x40 ADD PUSH1 0x40 MSTORE DUP1 PUSH1 0x2 DUP2 MSTORE PUSH1 0x20 ADD PUSH32 0x3431000000000000000000000000000000000000000000000000000000000000 DUP2 MSTORE POP DUP2 JUMP JUMPDEST PUSH1 0x40 MLOAD DUP1 PUSH1 0x40 ADD PUSH1 0x40 MSTORE DUP1 PUSH1 0x2 DUP2 MSTORE PUSH1 0x20 ADD PUSH32 0x3139000000000000000000000000000000000000000000000000000000000000 DUP2 MSTORE POP DUP2 JUMP JUMPDEST PUSH1 0x40 MLOAD DUP1 PUSH1 0x40 ADD PUSH1 0x40 MSTORE DUP1 PUSH1 0x2 DUP2 MSTORE PUSH1 0x20 ADD PUSH32 0x3135000000000000000000000000000000000000000000000000000000000000 DUP2 MSTORE POP DUP2 JUMP JUMPDEST PUSH1 0x40 MLOAD DUP1 PUSH1 0x40 ADD PUSH1 0x40 MSTORE DUP1 PUSH1 0x2 DUP2 MSTORE PUSH1 0x20 ADD PUSH32 0x3232000000000000000000000000000000000000000000000000000000000000 DUP2 MSTORE POP DUP2 JUMP JUMPDEST PUSH1 0x40 MLOAD DUP1 PUSH1 0x40 ADD PUSH1 0x40 MSTORE DUP1 PUSH1 0x2 DUP2 MSTORE PUSH1 0x20 ADD PUSH32 0x3133000000000000000000000000000000000000000000000000000000000000 DUP2 MSTORE POP DUP2 JUMP JUMPDEST PUSH1 0x40 MLOAD DUP1 PUSH1 0x40 ADD PUSH1 0x40 MSTORE DUP1 PUSH1 0x2 DUP2 MSTORE PUSH1 0x20 ADD PUSH32 0x3630000000000000000000000000000000000000000000000000000000000000 DUP2 MSTORE POP DUP2 JUMP JUMPDEST PUSH1 0x40 MLOAD DUP1 PUSH1 0x40 ADD PUSH1 0x40 MSTORE DUP1 PUSH1 0x2 DUP2 MSTORE PUSH1 0x20 ADD PUSH32 0x3436000000000000000000000000000000000000000000000000000000000000 DUP2 MSTORE POP DUP2 JUMP JUMPDEST PUSH1 0x40 MLOAD DUP1 PUSH1 0x40 ADD PUSH1 0x40 MSTORE DUP1 PUSH1 0x2 DUP2 MSTORE PUSH1 0x20 ADD PUSH32 0x3333000000000000000000000000000000000000000000000000000000000000 DUP2 MSTORE POP DUP2 JUMP JUMPDEST PUSH1 0x40 MLOAD DUP1 PUSH1 0x40 ADD PUSH1 0x40 MSTORE DUP1 PUSH1 0x2 DUP2 MSTORE PUSH1 0x20 ADD PUSH32 0x3337000000000000000000000000000000000000000000000000000000000000 DUP2 MSTORE POP DUP2 JUMP JUMPDEST PUSH1 0x40 MLOAD DUP1 PUSH1 0x40 ADD PUSH1 0x40 MSTORE DUP1 PUSH1 0x2 DUP2 MSTORE PUSH1 0x20 ADD PUSH32 0x3830000000000000000000000000000000000000000000000000000000000000 DUP2 MSTORE POP DUP2 JUMP JUMPDEST PUSH1 0x40 MLOAD DUP1 PUSH1 0x40 ADD PUSH1 0x40 MSTORE DUP1 PUSH1 0x2 DUP2 MSTORE PUSH1 0x20 ADD PUSH32 0x3730000000000000000000000000000000000000000000000000000000000000 DUP2 MSTORE POP DUP2 JUMP JUMPDEST PUSH1 0x40 MLOAD DUP1 PUSH1 0x40 ADD PUSH1 0x40 MSTORE DUP1 PUSH1 0x2 DUP2 MSTORE PUSH1 0x20 ADD PUSH32 0x3538000000000000000000000000000000000000000000000000000000000000 DUP2 MSTORE POP DUP2 JUMP JUMPDEST PUSH1 0x40 MLOAD DUP1 PUSH1 0x40 ADD PUSH1 0x40 MSTORE DUP1 PUSH1 0x2 DUP2 MSTORE PUSH1 0x20 ADD PUSH32 0x3435000000000000000000000000000000000000000000000000000000000000 DUP2 MSTORE POP DUP2 JUMP JUMPDEST PUSH1 0x40 MLOAD DUP1 PUSH1 0x40 ADD PUSH1 0x40 MSTORE DUP1 PUSH1 0x2 DUP2 MSTORE PUSH1 0x20 ADD PUSH32 0x3635000000000000000000000000000000000000000000000000000000000000 DUP2 MSTORE POP DUP2 JUMP JUMPDEST PUSH1 0x40 MLOAD DUP1 PUSH1 0x40 ADD PUSH1 0x40 MSTORE DUP1 PUSH1 0x2 DUP2 MSTORE PUSH1 0x20 ADD PUSH32 0x3633000000000000000000000000000000000000000000000000000000000000 DUP2 MSTORE POP DUP2 JUMP JUMPDEST PUSH1 0x40 MLOAD DUP1 PUSH1 0x40 ADD PUSH1 0x40 MSTORE DUP1 PUSH1 0x2 DUP2 MSTORE PUSH1 0x20 ADD PUSH32 0x3433000000000000000000000000000000000000000000000000000000000000 DUP2 MSTORE POP DUP2 JUMP JUMPDEST PUSH1 0x40 MLOAD DUP1 PUSH1 0x40 ADD PUSH1 0x40 MSTORE DUP1 PUSH1 0x2 DUP2 MSTORE PUSH1 0x20 ADD PUSH32 0x3131000000000000000000000000000000000000000000000000000000000000 DUP2 MSTORE POP DUP2 JUMP JUMPDEST PUSH1 0x40 MLOAD DUP1 PUSH1 0x40 ADD PUSH1 0x40 MSTORE DUP1 PUSH1 0x2 DUP2 MSTORE PUSH1 0x20 ADD PUSH32 0x3739000000000000000000000000000000000000000000000000000000000000 DUP2 MSTORE POP DUP2 JUMP JUMPDEST PUSH1 0x40 MLOAD DUP1 PUSH1 0x40 ADD PUSH1 0x40 MSTORE DUP1 PUSH1 0x2 DUP2 MSTORE PUSH1 0x20 ADD PUSH32 0x3637000000000000000000000000000000000000000000000000000000000000 DUP2 MSTORE POP DUP2 JUMP JUMPDEST PUSH1 0x40 MLOAD DUP1 PUSH1 0x40 ADD PUSH1 0x40 MSTORE DUP1 PUSH1 0x2 DUP2 MSTORE PUSH1 0x20 ADD PUSH32 0x3731000000000000000000000000000000000000000000000000000000000000 DUP2 MSTORE POP DUP2 JUMP JUMPDEST PUSH1 0x40 MLOAD DUP1 PUSH1 0x40 ADD PUSH1 0x40 MSTORE DUP1 PUSH1 0x2 DUP2 MSTORE PUSH1 0x20 ADD PUSH32 0x3835000000000000000000000000000000000000000000000000000000000000 DUP2 MSTORE POP DUP2 JUMP JUMPDEST PUSH1 0x40 MLOAD DUP1 PUSH1 0x40 ADD PUSH1 0x40 MSTORE DUP1 PUSH1 0x2 DUP2 MSTORE PUSH1 0x20 ADD PUSH32 0x3234000000000000000000000000000000000000000000000000000000000000 DUP2 MSTORE POP DUP2 JUMP JUMPDEST PUSH1 0x40 MLOAD DUP1 PUSH1 0x40 ADD PUSH1 0x40 MSTORE DUP1 PUSH1 0x1 DUP2 MSTORE PUSH1 0x20 ADD PUSH32 0x3100000000000000000000000000000000000000000000000000000000000000 DUP2 MSTORE POP DUP2 JUMP JUMPDEST PUSH1 0x40 MLOAD DUP1 PUSH1 0x40 ADD PUSH1 0x40 MSTORE DUP1 PUSH1 0x2 DUP2 MSTORE PUSH1 0x20 ADD PUSH32 0x3531000000000000000000000000000000000000000000000000000000000000 DUP2 MSTORE POP DUP2 JUMP JUMPDEST PUSH1 0x40 MLOAD DUP1 PUSH1 0x40 ADD PUSH1 0x40 MSTORE DUP1 PUSH1 0x2 DUP2 MSTORE PUSH1 0x20 ADD PUSH32 0x3432000000000000000000000000000000000000000000000000000000000000 DUP2 MSTORE POP DUP2 JUMP JUMPDEST PUSH1 0x40 MLOAD DUP1 PUSH1 0x40 ADD PUSH1 0x40 MSTORE DUP1 PUSH1 0x1 DUP2 MSTORE PUSH1 0x20 ADD PUSH32 0x3400000000000000000000000000000000000000000000000000000000000000 DUP2 MSTORE POP DUP2 JUMP JUMPDEST PUSH1 0x40 MLOAD DUP1 PUSH1 0x40 ADD PUSH1 0x40 MSTORE DUP1 PUSH1 0x2 DUP2 MSTORE PUSH1 0x20 ADD PUSH32 0x3239000000000000000000000000000000000000000000000000000000000000 DUP2 MSTORE POP DUP2 JUMP JUMPDEST PUSH1 0x40 MLOAD DUP1 PUSH1 0x40 ADD PUSH1 0x40 MSTORE DUP1 PUSH1 0x2 DUP2 MSTORE PUSH1 0x20 ADD PUSH32 0x3332000000000000000000000000000000000000000000000000000000000000 DUP2 MSTORE POP DUP2 JUMP JUMPDEST PUSH1 0x40 MLOAD DUP1 PUSH1 0x40 ADD PUSH1 0x40 MSTORE DUP1 PUSH1 0x2 DUP2 MSTORE PUSH1 0x20 ADD PUSH32 0x3537000000000000000000000000000000000000000000000000000000000000 DUP2 MSTORE POP DUP2 JUMP JUMPDEST PUSH1 0x40 MLOAD DUP1 PUSH1 0x40 ADD PUSH1 0x40 MSTORE DUP1 PUSH1 0x2 DUP2 MSTORE PUSH1 0x20 ADD PUSH32 0x3736000000000000000000000000000000000000000000000000000000000000 DUP2 MSTORE POP DUP2 JUMP JUMPDEST PUSH1 0x40 MLOAD DUP1 PUSH1 0x40 ADD PUSH1 0x40 MSTORE DUP1 PUSH1 0x2 DUP2 MSTORE PUSH1 0x20 ADD PUSH32 0x3738000000000000000000000000000000000000000000000000000000000000 DUP2 MSTORE POP DUP2 JUMP JUMPDEST PUSH1 0x40 MLOAD DUP1 PUSH1 0x40 ADD PUSH1 0x40 MSTORE DUP1 PUSH1 0x2 DUP2 MSTORE PUSH1 0x20 ADD PUSH32 0x3539000000000000000000000000000000000000000000000000000000000000 DUP2 MSTORE POP DUP2 JUMP JUMPDEST PUSH1 0x40 MLOAD DUP1 PUSH1 0x40 ADD PUSH1 0x40 MSTORE DUP1 PUSH1 0x2 DUP2 MSTORE PUSH1 0x20 ADD PUSH32 0x3834000000000000000000000000000000000000000000000000000000000000 DUP2 MSTORE POP DUP2 JUMP JUMPDEST PUSH1 0x40 MLOAD DUP1 PUSH1 0x40 ADD PUSH1 0x40 MSTORE DUP1 PUSH1 0x2 DUP2 MSTORE PUSH1 0x20 ADD PUSH32 0x3832000000000000000000000000000000000000000000000000000000000000 DUP2 MSTORE POP DUP2 JUMP JUMPDEST PUSH1 0x40 MLOAD DUP1 PUSH1 0x40 ADD PUSH1 0x40 MSTORE DUP1 PUSH1 0x2 DUP2 MSTORE PUSH1 0x20 ADD PUSH32 0x3737000000000000000000000000000000000000000000000000000000000000 DUP2 MSTORE POP DUP2 JUMP JUMPDEST PUSH1 0x40 MLOAD DUP1 PUSH1 0x40 ADD PUSH1 0x40 MSTORE DUP1 PUSH1 0x2 DUP2 MSTORE PUSH1 0x20 ADD PUSH32 0x3734000000000000000000000000000000000000000000000000000000000000 DUP2 MSTORE POP DUP2 JUMP JUMPDEST PUSH1 0x40 MLOAD DUP1 PUSH1 0x40 ADD PUSH1 0x40 MSTORE DUP1 PUSH1 0x2 DUP2 MSTORE PUSH1 0x20 ADD PUSH32 0x3638000000000000000000000000000000000000000000000000000000000000 DUP2 MSTORE POP DUP2 JUMP JUMPDEST PUSH1 0x40 MLOAD DUP1 PUSH1 0x40 ADD PUSH1 0x40 MSTORE DUP1 PUSH1 0x2 DUP2 MSTORE PUSH1 0x20 ADD PUSH32 0x3631000000000000000000000000000000000000000000000000000000000000 DUP2 MSTORE POP DUP2 JUMP JUMPDEST PUSH1 0x40 MLOAD DUP1 PUSH1 0x40 ADD PUSH1 0x40 MSTORE DUP1 PUSH1 0x2 DUP2 MSTORE PUSH1 0x20 ADD PUSH32 0x3339000000000000000000000000000000000000000000000000000000000000 DUP2 MSTORE POP DUP2 JUMP JUMPDEST PUSH1 0x40 MLOAD DUP1 PUSH1 0x40 ADD PUSH1 0x40 MSTORE DUP1 PUSH1 0x2 DUP2 MSTORE PUSH1 0x20 ADD PUSH32 0x3733000000000000000000000000000000000000000000000000000000000000 DUP2 MSTORE POP DUP2 JUMP JUMPDEST PUSH1 0x40 MLOAD DUP1 PUSH1 0x40 ADD PUSH1 0x40 MSTORE DUP1 PUSH1 0x2 DUP2 MSTORE PUSH1 0x20 ADD PUSH32 0x3634000000000000000000000000000000000000000000000000000000000000 DUP2 MSTORE POP DUP2 JUMP JUMPDEST PUSH1 0x40 MLOAD DUP1 PUSH1 0x40 ADD PUSH1 0x40 MSTORE DUP1 PUSH1 0x2 DUP2 MSTORE PUSH1 0x20 ADD PUSH32 0x3839000000000000000000000000000000000000000000000000000000000000 DUP2 MSTORE POP DUP2 JUMP JUMPDEST PUSH1 0x40 MLOAD DUP1 PUSH1 0x40 ADD PUSH1 0x40 MSTORE DUP1 PUSH1 0x1 DUP2 MSTORE PUSH1 0x20 ADD PUSH32 0x3700000000000000000000000000000000000000000000000000000000000000 DUP2 MSTORE POP DUP2 JUMP JUMPDEST PUSH1 0x40 MLOAD DUP1 PUSH1 0x40 ADD PUSH1 0x40 MSTORE DUP1 PUSH1 0x2 DUP2 MSTORE PUSH1 0x20 ADD PUSH32 0x3336000000000000000000000000000000000000000000000000000000000000 DUP2 MSTORE POP DUP2 JUMP JUMPDEST PUSH1 0x40 MLOAD DUP1 PUSH1 0x40 ADD PUSH1 0x40 MSTORE DUP1 PUSH1 0x2 DUP2 MSTORE PUSH1 0x20 ADD PUSH32 0x3831000000000000000000000000000000000000000000000000000000000000 DUP2 MSTORE POP DUP2 JUMP JUMPDEST PUSH1 0x40 MLOAD DUP1 PUSH1 0x40 ADD PUSH1 0x40 MSTORE DUP1 PUSH1 0x2 DUP2 MSTORE PUSH1 0x20 ADD PUSH32 0x3930000000000000000000000000000000000000000000000000000000000000 DUP2 MSTORE POP DUP2 JUMP JUMPDEST PUSH1 0x40 MLOAD DUP1 PUSH1 0x40 ADD PUSH1 0x40 MSTORE DUP1 PUSH1 0x2 DUP2 MSTORE PUSH1 0x20 ADD PUSH32 0x3338000000000000000000000000000000000000000000000000000000000000 DUP2 MSTORE POP DUP2 JUMP JUMPDEST PUSH1 0x40 MLOAD DUP1 PUSH1 0x40 ADD PUSH1 0x40 MSTORE DUP1 PUSH1 0x2 DUP2 MSTORE PUSH1 0x20 ADD PUSH32 0x3536000000000000000000000000000000000000000000000000000000000000 DUP2 MSTORE POP DUP2 JUMP JUMPDEST PUSH1 0x40 MLOAD DUP1 PUSH1 0x40 ADD PUSH1 0x40 MSTORE DUP1 PUSH1 0x2 DUP2 MSTORE PUSH1 0x20 ADD PUSH32 0x3136000000000000000000000000000000000000000000000000000000000000 DUP2 MSTORE POP DUP2 JUMP JUMPDEST PUSH1 0x40 MLOAD DUP1 PUSH1 0x40 ADD PUSH1 0x40 MSTORE DUP1 PUSH1 0x2 DUP2 MSTORE PUSH1 0x20 ADD PUSH32 0x3636000000000000000000000000000000000000000000000000000000000000 DUP2 MSTORE POP DUP2 JUMP JUMPDEST PUSH1 0x40 MLOAD DUP1 PUSH1 0x40 ADD PUSH1 0x40 MSTORE DUP1 PUSH1 0x2 DUP2 MSTORE PUSH1 0x20 ADD PUSH32 0x3236000000000000000000000000000000000000000000000000000000000000 DUP2 MSTORE POP DUP2 JUMP JUMPDEST PUSH1 0x40 MLOAD DUP1 PUSH1 0x40 ADD PUSH1 0x40 MSTORE DUP1 PUSH1 0x2 DUP2 MSTORE PUSH1 0x20 ADD PUSH32 0x3735000000000000000000000000000000000000000000000000000000000000 DUP2 MSTORE POP DUP2 JUMP JUMPDEST PUSH1 0x0 DUP2 MLOAD SWAP1 POP SWAP2 SWAP1 POP JUMP JUMPDEST PUSH1 0x0 DUP3 DUP3 MSTORE PUSH1 0x20 DUP3 ADD SWAP1 POP SWAP3 SWAP2 POP POP JUMP JUMPDEST PUSH1 0x0 JUMPDEST DUP4 DUP2 LT ISZERO PUSH2 0x23CD JUMPI DUP1 DUP3 ADD MLOAD DUP2 DUP5 ADD MSTORE PUSH1 0x20 DUP2 ADD SWAP1 POP PUSH2 0x23B2 JUMP JUMPDEST DUP4 DUP2 GT ISZERO PUSH2 0x23DC JUMPI PUSH1 0x0 DUP5 DUP5 ADD MSTORE JUMPDEST POP POP POP POP JUMP JUMPDEST PUSH1 0x0 PUSH1 0x1F NOT PUSH1 0x1F DUP4 ADD AND SWAP1 POP SWAP2 SWAP1 POP JUMP JUMPDEST PUSH1 0x0 PUSH2 0x23FE DUP3 PUSH2 0x2393 JUMP JUMPDEST PUSH2 0x2408 DUP2 DUP6 PUSH2 0x239E JUMP JUMPDEST SWAP4 POP PUSH2 0x2418 DUP2 DUP6 PUSH1 0x20 DUP7 ADD PUSH2 0x23AF JUMP JUMPDEST PUSH2 0x2421 DUP2 PUSH2 0x23E2 JUMP JUMPDEST DUP5 ADD SWAP2 POP POP SWAP3 SWAP2 POP POP JUMP JUMPDEST PUSH1 0x0 PUSH1 0x20 DUP3 ADD SWAP1 POP DUP2 DUP2 SUB PUSH1 0x0 DUP4 ADD MSTORE PUSH2 0x2446 DUP2 DUP5 PUSH2 0x23F3 JUMP JUMPDEST SWAP1 POP SWAP3 SWAP2 POP POP JUMP INVALID LOG2 PUSH5 0x6970667358 0x22 SLT KECCAK256 0xB9 LOG2 BASEFEE SWAP3 EXTCODEHASH CODECOPY LOG1 0xDA SELFBALANCE 0x29 CALLDATASIZE 0xD8 PUSH25 0x6331462962500F03EB3A38DC8777F14E5678A564736F6C6343 STOP ADDMOD EXP STOP CALLER "
        },
        "gasEstimates": {
          "creation": {
            "codeDepositCost": "1869600",
            "executionCost": "2001",
            "totalCost": "1871601"
          },
          "external": {
            "ACL_ADMIN_CANNOT_BE_ZERO()": "infinite",
            "ADDRESSES_PROVIDER_ALREADY_ADDED()": "infinite",
            "ADDRESSES_PROVIDER_NOT_REGISTERED()": "infinite",
            "AMOUNT_BIGGER_THAN_MAX_LOAN_SIZE_STABLE()": "infinite",
            "ASSET_NOT_BORROWABLE_IN_ISOLATION()": "infinite",
            "ASSET_NOT_LISTED()": "infinite",
            "ATOKEN_SUPPLY_NOT_ZERO()": "infinite",
            "BORROWING_NOT_ENABLED()": "infinite",
            "BORROW_CAP_EXCEEDED()": "infinite",
            "BRIDGE_PROTOCOL_FEE_INVALID()": "infinite",
            "CALLER_MUST_BE_POOL()": "infinite",
            "CALLER_NOT_ASSET_LISTING_OR_POOL_ADMIN()": "infinite",
            "CALLER_NOT_ATOKEN()": "infinite",
            "CALLER_NOT_BRIDGE()": "infinite",
            "CALLER_NOT_EMERGENCY_ADMIN()": "infinite",
            "CALLER_NOT_POOL_ADMIN()": "infinite",
            "CALLER_NOT_POOL_CONFIGURATOR()": "infinite",
            "CALLER_NOT_POOL_OR_EMERGENCY_ADMIN()": "infinite",
            "CALLER_NOT_RISK_OR_POOL_ADMIN()": "infinite",
            "COLLATERAL_BALANCE_IS_ZERO()": "infinite",
            "COLLATERAL_CANNOT_BE_LIQUIDATED()": "infinite",
            "COLLATERAL_CANNOT_COVER_NEW_BORROW()": "infinite",
            "COLLATERAL_SAME_AS_BORROWING_CURRENCY()": "infinite",
            "DEBT_CEILING_EXCEEDED()": "infinite",
            "DEBT_CEILING_NOT_ZERO()": "infinite",
            "EMODE_CATEGORY_RESERVED()": "infinite",
            "FLASHLOAN_PREMIUM_INVALID()": "infinite",
            "HEALTH_FACTOR_LOWER_THAN_LIQUIDATION_THRESHOLD()": "infinite",
            "HEALTH_FACTOR_NOT_BELOW_THRESHOLD()": "infinite",
            "INCONSISTENT_EMODE_CATEGORY()": "infinite",
            "INCONSISTENT_FLASHLOAN_PARAMS()": "infinite",
            "INCONSISTENT_PARAMS_LENGTH()": "infinite",
            "INTEREST_RATE_REBALANCE_CONDITIONS_NOT_MET()": "infinite",
            "INVALID_ADDRESSES_PROVIDER()": "infinite",
            "INVALID_ADDRESSES_PROVIDER_ID()": "infinite",
            "INVALID_AMOUNT()": "infinite",
            "INVALID_BORROW_CAP()": "infinite",
            "INVALID_BURN_AMOUNT()": "infinite",
            "INVALID_DEBT_CEILING()": "infinite",
            "INVALID_DECIMALS()": "infinite",
            "INVALID_EMODE_CATEGORY()": "infinite",
            "INVALID_EMODE_CATEGORY_ASSIGNMENT()": "infinite",
            "INVALID_EMODE_CATEGORY_PARAMS()": "infinite",
            "INVALID_EXPIRATION()": "infinite",
            "INVALID_FLASHLOAN_EXECUTOR_RETURN()": "infinite",
            "INVALID_INTEREST_RATE_MODE_SELECTED()": "infinite",
            "INVALID_LIQUIDATION_PROTOCOL_FEE()": "infinite",
            "INVALID_LIQ_BONUS()": "infinite",
            "INVALID_LIQ_THRESHOLD()": "infinite",
            "INVALID_LTV()": "infinite",
            "INVALID_MINT_AMOUNT()": "infinite",
            "INVALID_OPTIMAL_STABLE_TO_TOTAL_DEBT_RATIO()": "infinite",
            "INVALID_OPTIMAL_USAGE_RATIO()": "infinite",
            "INVALID_RESERVE_FACTOR()": "infinite",
            "INVALID_RESERVE_INDEX()": "infinite",
            "INVALID_RESERVE_PARAMS()": "infinite",
            "INVALID_SIGNATURE()": "infinite",
            "INVALID_SUPPLY_CAP()": "infinite",
            "INVALID_UNBACKED_MINT_CAP()": "infinite",
            "LTV_VALIDATION_FAILED()": "infinite",
            "NOT_CONTRACT()": "infinite",
            "NOT_ENOUGH_AVAILABLE_USER_BALANCE()": "infinite",
            "NO_DEBT_OF_SELECTED_TYPE()": "infinite",
            "NO_EXPLICIT_AMOUNT_TO_REPAY_ON_BEHALF()": "infinite",
            "NO_MORE_RESERVES_ALLOWED()": "infinite",
            "NO_OUTSTANDING_STABLE_DEBT()": "infinite",
            "NO_OUTSTANDING_VARIABLE_DEBT()": "infinite",
            "OPERATION_NOT_SUPPORTED()": "infinite",
            "POOL_ADDRESSES_DO_NOT_MATCH()": "infinite",
            "PRICE_ORACLE_SENTINEL_CHECK_FAILED()": "infinite",
            "RESERVE_ALREADY_ADDED()": "infinite",
            "RESERVE_ALREADY_INITIALIZED()": "infinite",
            "RESERVE_DEBT_NOT_ZERO()": "infinite",
            "RESERVE_FROZEN()": "infinite",
            "RESERVE_INACTIVE()": "infinite",
            "RESERVE_LIQUIDITY_NOT_ZERO()": "infinite",
            "RESERVE_PAUSED()": "infinite",
            "SAME_BLOCK_BORROW_REPAY()": "infinite",
            "SILOED_BORROWING_VIOLATION()": "infinite",
            "SPECIFIED_CURRENCY_NOT_BORROWED_BY_USER()": "infinite",
            "STABLE_BORROWING_ENABLED()": "infinite",
            "STABLE_BORROWING_NOT_ENABLED()": "infinite",
            "STABLE_DEBT_NOT_ZERO()": "infinite",
            "SUPPLY_CAP_EXCEEDED()": "infinite",
            "UNBACKED_MINT_CAP_EXCEEDED()": "infinite",
            "UNDERLYING_BALANCE_ZERO()": "infinite",
            "UNDERLYING_CANNOT_BE_RESCUED()": "infinite",
            "USER_IN_ISOLATION_MODE()": "infinite",
            "VARIABLE_DEBT_SUPPLY_NOT_ZERO()": "infinite",
            "ZERO_ADDRESS_NOT_VALID()": "infinite"
          }
        },
        "methodIdentifiers": {
          "ACL_ADMIN_CANNOT_BE_ZERO()": "fd1828ff",
          "ADDRESSES_PROVIDER_ALREADY_ADDED()": "14dcfbbc",
          "ADDRESSES_PROVIDER_NOT_REGISTERED()": "e02f07ee",
          "AMOUNT_BIGGER_THAN_MAX_LOAN_SIZE_STABLE()": "f07f6785",
          "ASSET_NOT_BORROWABLE_IN_ISOLATION()": "8596aad5",
          "ASSET_NOT_LISTED()": "cd23367c",
          "ATOKEN_SUPPLY_NOT_ZERO()": "43e97c6b",
          "BORROWING_NOT_ENABLED()": "4ef999ff",
          "BORROW_CAP_EXCEEDED()": "2eed17e8",
          "BRIDGE_PROTOCOL_FEE_INVALID()": "7aa0767e",
          "CALLER_MUST_BE_POOL()": "471df685",
          "CALLER_NOT_ASSET_LISTING_OR_POOL_ADMIN()": "2c8e3b4c",
          "CALLER_NOT_ATOKEN()": "a2e976c6",
          "CALLER_NOT_BRIDGE()": "4f77647b",
          "CALLER_NOT_EMERGENCY_ADMIN()": "485c8ff6",
          "CALLER_NOT_POOL_ADMIN()": "ac753236",
          "CALLER_NOT_POOL_CONFIGURATOR()": "61c111d2",
          "CALLER_NOT_POOL_OR_EMERGENCY_ADMIN()": "26e7b312",
          "CALLER_NOT_RISK_OR_POOL_ADMIN()": "b5e79366",
          "COLLATERAL_BALANCE_IS_ZERO()": "4e01e3c1",
          "COLLATERAL_CANNOT_BE_LIQUIDATED()": "895f7dc8",
          "COLLATERAL_CANNOT_COVER_NEW_BORROW()": "e3fa20f5",
          "COLLATERAL_SAME_AS_BORROWING_CURRENCY()": "8a344000",
          "DEBT_CEILING_EXCEEDED()": "65a83bab",
          "DEBT_CEILING_NOT_ZERO()": "e4dd8b74",
          "EMODE_CATEGORY_RESERVED()": "f479ea11",
          "FLASHLOAN_PREMIUM_INVALID()": "747fa556",
          "HEALTH_FACTOR_LOWER_THAN_LIQUIDATION_THRESHOLD()": "366eb54d",
          "HEALTH_FACTOR_NOT_BELOW_THRESHOLD()": "952633c5",
          "INCONSISTENT_EMODE_CATEGORY()": "8f7722b2",
          "INCONSISTENT_FLASHLOAN_PARAMS()": "73dea5e3",
          "INCONSISTENT_PARAMS_LENGTH()": "bad8308c",
          "INTEREST_RATE_REBALANCE_CONDITIONS_NOT_MET()": "2926c971",
          "INVALID_ADDRESSES_PROVIDER()": "37930782",
          "INVALID_ADDRESSES_PROVIDER_ID()": "60c3de80",
          "INVALID_AMOUNT()": "fae82791",
          "INVALID_BORROW_CAP()": "d6f9fcde",
          "INVALID_BURN_AMOUNT()": "51267450",
          "INVALID_DEBT_CEILING()": "dcc56db6",
          "INVALID_DECIMALS()": "fa163a83",
          "INVALID_EMODE_CATEGORY()": "a8c97853",
          "INVALID_EMODE_CATEGORY_ASSIGNMENT()": "5d9c76c0",
          "INVALID_EMODE_CATEGORY_PARAMS()": "47cf1523",
          "INVALID_EXPIRATION()": "c08a1146",
          "INVALID_FLASHLOAN_EXECUTOR_RETURN()": "7fea6f36",
          "INVALID_INTEREST_RATE_MODE_SELECTED()": "89c5d45f",
          "INVALID_LIQUIDATION_PROTOCOL_FEE()": "8eda46bd",
          "INVALID_LIQ_BONUS()": "9527e9d9",
          "INVALID_LIQ_THRESHOLD()": "dd1dd95f",
          "INVALID_LTV()": "99ce53f3",
          "INVALID_MINT_AMOUNT()": "abd351b1",
          "INVALID_OPTIMAL_STABLE_TO_TOTAL_DEBT_RATIO()": "c899301a",
          "INVALID_OPTIMAL_USAGE_RATIO()": "4e3aed37",
          "INVALID_RESERVE_FACTOR()": "a4868dca",
          "INVALID_RESERVE_INDEX()": "d1cd8b1d",
          "INVALID_RESERVE_PARAMS()": "335763de",
          "INVALID_SIGNATURE()": "a3402a38",
          "INVALID_SUPPLY_CAP()": "26bbd053",
          "INVALID_UNBACKED_MINT_CAP()": "47ba93d8",
          "LTV_VALIDATION_FAILED()": "b87041c2",
          "NOT_CONTRACT()": "11d7b006",
          "NOT_ENOUGH_AVAILABLE_USER_BALANCE()": "b7f5e224",
          "NO_DEBT_OF_SELECTED_TYPE()": "dc191bd9",
          "NO_EXPLICIT_AMOUNT_TO_REPAY_ON_BEHALF()": "712f536a",
          "NO_MORE_RESERVES_ALLOWED()": "76ae8fca",
          "NO_OUTSTANDING_STABLE_DEBT()": "74459b14",
          "NO_OUTSTANDING_VARIABLE_DEBT()": "b4a45730",
          "OPERATION_NOT_SUPPORTED()": "8b8b98d7",
          "POOL_ADDRESSES_DO_NOT_MATCH()": "1abbb001",
          "PRICE_ORACLE_SENTINEL_CHECK_FAILED()": "c8638082",
          "RESERVE_ALREADY_ADDED()": "12dcade8",
          "RESERVE_ALREADY_INITIALIZED()": "d9adda85",
          "RESERVE_DEBT_NOT_ZERO()": "e981483a",
          "RESERVE_FROZEN()": "6cd3cfbc",
          "RESERVE_INACTIVE()": "52ba9dbe",
          "RESERVE_LIQUIDITY_NOT_ZERO()": "084dfa0d",
          "RESERVE_PAUSED()": "b68774e9",
          "SAME_BLOCK_BORROW_REPAY()": "570e3547",
          "SILOED_BORROWING_VIOLATION()": "de24948c",
          "SPECIFIED_CURRENCY_NOT_BORROWED_BY_USER()": "22a73446",
          "STABLE_BORROWING_ENABLED()": "198d6a6b",
          "STABLE_BORROWING_NOT_ENABLED()": "4d86f393",
          "STABLE_DEBT_NOT_ZERO()": "65e7ef4c",
          "SUPPLY_CAP_EXCEEDED()": "b0510054",
          "UNBACKED_MINT_CAP_EXCEEDED()": "6b3f7cc7",
          "UNDERLYING_BALANCE_ZERO()": "a2797c80",
          "UNDERLYING_CANNOT_BE_RESCUED()": "ab883ca0",
          "USER_IN_ISOLATION_MODE()": "744465cc",
          "VARIABLE_DEBT_SUPPLY_NOT_ZERO()": "f10727db",
          "ZERO_ADDRESS_NOT_VALID()": "d14bb17a"
        }
      },
      "storageLayout": {
        "storage": [],
        "types": null
      },
      "userdoc": {
        "kind": "user",
        "methods": {},
        "notice": "Defines the error messages emitted by the different contracts of the Aave protocol",
        "version": 1
      }
    }
  }
}