{
  "protocol/configuration/ACLManager.sol": {
    "ACLManager": {
      "abi": [
        {
          "inputs": [
            {
              "internalType": "contract IPoolAddressesProvider",
              "name": "provider",
              "type": "address"
            }
          ],
          "stateMutability": "nonpayable",
          "type": "constructor"
        },
        {
          "anonymous": false,
          "inputs": [
            {
              "indexed": true,
              "internalType": "bytes32",
              "name": "role",
              "type": "bytes32"
            },
            {
              "indexed": true,
              "internalType": "bytes32",
              "name": "previousAdminRole",
              "type": "bytes32"
            },
            {
              "indexed": true,
              "internalType": "bytes32",
              "name": "newAdminRole",
              "type": "bytes32"
            }
          ],
          "name": "RoleAdminChanged",
          "type": "event"
        },
        {
          "anonymous": false,
          "inputs": [
            {
              "indexed": true,
              "internalType": "bytes32",
              "name": "role",
              "type": "bytes32"
            },
            {
              "indexed": true,
              "internalType": "address",
              "name": "account",
              "type": "address"
            },
            {
              "indexed": true,
              "internalType": "address",
              "name": "sender",
              "type": "address"
            }
          ],
          "name": "RoleGranted",
          "type": "event"
        },
        {
          "anonymous": false,
          "inputs": [
            {
              "indexed": true,
              "internalType": "bytes32",
              "name": "role",
              "type": "bytes32"
            },
            {
              "indexed": true,
              "internalType": "address",
              "name": "account",
              "type": "address"
            },
            {
              "indexed": true,
              "internalType": "address",
              "name": "sender",
              "type": "address"
            }
          ],
          "name": "RoleRevoked",
          "type": "event"
        },
        {
          "inputs": [],
          "name": "ADDRESSES_PROVIDER",
          "outputs": [
            {
              "internalType": "contract IPoolAddressesProvider",
              "name": "",
              "type": "address"
            }
          ],
          "stateMutability": "view",
          "type": "function"
        },
        {
          "inputs": [],
          "name": "ASSET_LISTING_ADMIN_ROLE",
          "outputs": [
            {
              "internalType": "bytes32",
              "name": "",
              "type": "bytes32"
            }
          ],
          "stateMutability": "view",
          "type": "function"
        },
        {
          "inputs": [],
          "name": "BRIDGE_ROLE",
          "outputs": [
            {
              "internalType": "bytes32",
              "name": "",
              "type": "bytes32"
            }
          ],
          "stateMutability": "view",
          "type": "function"
        },
        {
          "inputs": [],
          "name": "DEFAULT_ADMIN_ROLE",
          "outputs": [
            {
              "internalType": "bytes32",
              "name": "",
              "type": "bytes32"
            }
          ],
          "stateMutability": "view",
          "type": "function"
        },
        {
          "inputs": [],
          "name": "EMERGENCY_ADMIN_ROLE",
          "outputs": [
            {
              "internalType": "bytes32",
              "name": "",
              "type": "bytes32"
            }
          ],
          "stateMutability": "view",
          "type": "function"
        },
        {
          "inputs": [],
          "name": "FLASH_BORROWER_ROLE",
          "outputs": [
            {
              "internalType": "bytes32",
              "name": "",
              "type": "bytes32"
            }
          ],
          "stateMutability": "view",
          "type": "function"
        },
        {
          "inputs": [],
          "name": "POOL_ADMIN_ROLE",
          "outputs": [
            {
              "internalType": "bytes32",
              "name": "",
              "type": "bytes32"
            }
          ],
          "stateMutability": "view",
          "type": "function"
        },
        {
          "inputs": [],
          "name": "RISK_ADMIN_ROLE",
          "outputs": [
            {
              "internalType": "bytes32",
              "name": "",
              "type": "bytes32"
            }
          ],
          "stateMutability": "view",
          "type": "function"
        },
        {
          "inputs": [
            {
              "internalType": "address",
              "name": "admin",
              "type": "address"
            }
          ],
          "name": "addAssetListingAdmin",
          "outputs": [],
          "stateMutability": "nonpayable",
          "type": "function"
        },
        {
          "inputs": [
            {
              "internalType": "address",
              "name": "bridge",
              "type": "address"
            }
          ],
          "name": "addBridge",
          "outputs": [],
          "stateMutability": "nonpayable",
          "type": "function"
        },
        {
          "inputs": [
            {
              "internalType": "address",
              "name": "admin",
              "type": "address"
            }
          ],
          "name": "addEmergencyAdmin",
          "outputs": [],
          "stateMutability": "nonpayable",
          "type": "function"
        },
        {
          "inputs": [
            {
              "internalType": "address",
              "name": "borrower",
              "type": "address"
            }
          ],
          "name": "addFlashBorrower",
          "outputs": [],
          "stateMutability": "nonpayable",
          "type": "function"
        },
        {
          "inputs": [
            {
              "internalType": "address",
              "name": "admin",
              "type": "address"
            }
          ],
          "name": "addPoolAdmin",
          "outputs": [],
          "stateMutability": "nonpayable",
          "type": "function"
        },
        {
          "inputs": [
            {
              "internalType": "address",
              "name": "admin",
              "type": "address"
            }
          ],
          "name": "addRiskAdmin",
          "outputs": [],
          "stateMutability": "nonpayable",
          "type": "function"
        },
        {
          "inputs": [
            {
              "internalType": "bytes32",
              "name": "role",
              "type": "bytes32"
            }
          ],
          "name": "getRoleAdmin",
          "outputs": [
            {
              "internalType": "bytes32",
              "name": "",
              "type": "bytes32"
            }
          ],
          "stateMutability": "view",
          "type": "function"
        },
        {
          "inputs": [
            {
              "internalType": "bytes32",
              "name": "role",
              "type": "bytes32"
            },
            {
              "internalType": "address",
              "name": "account",
              "type": "address"
            }
          ],
          "name": "grantRole",
          "outputs": [],
          "stateMutability": "nonpayable",
          "type": "function"
        },
        {
          "inputs": [
            {
              "internalType": "bytes32",
              "name": "role",
              "type": "bytes32"
            },
            {
              "internalType": "address",
              "name": "account",
              "type": "address"
            }
          ],
          "name": "hasRole",
          "outputs": [
            {
              "internalType": "bool",
              "name": "",
              "type": "bool"
            }
          ],
          "stateMutability": "view",
          "type": "function"
        },
        {
          "inputs": [
            {
              "internalType": "address",
              "name": "admin",
              "type": "address"
            }
          ],
          "name": "isAssetListingAdmin",
          "outputs": [
            {
              "internalType": "bool",
              "name": "",
              "type": "bool"
            }
          ],
          "stateMutability": "view",
          "type": "function"
        },
        {
          "inputs": [
            {
              "internalType": "address",
              "name": "bridge",
              "type": "address"
            }
          ],
          "name": "isBridge",
          "outputs": [
            {
              "internalType": "bool",
              "name": "",
              "type": "bool"
            }
          ],
          "stateMutability": "view",
          "type": "function"
        },
        {
          "inputs": [
            {
              "internalType": "address",
              "name": "admin",
              "type": "address"
            }
          ],
          "name": "isEmergencyAdmin",
          "outputs": [
            {
              "internalType": "bool",
              "name": "",
              "type": "bool"
            }
          ],
          "stateMutability": "view",
          "type": "function"
        },
        {
          "inputs": [
            {
              "internalType": "address",
              "name": "borrower",
              "type": "address"
            }
          ],
          "name": "isFlashBorrower",
          "outputs": [
            {
              "internalType": "bool",
              "name": "",
              "type": "bool"
            }
          ],
          "stateMutability": "view",
          "type": "function"
        },
        {
          "inputs": [
            {
              "internalType": "address",
              "name": "admin",
              "type": "address"
            }
          ],
          "name": "isPoolAdmin",
          "outputs": [
            {
              "internalType": "bool",
              "name": "",
              "type": "bool"
            }
          ],
          "stateMutability": "view",
          "type": "function"
        },
        {
          "inputs": [
            {
              "internalType": "address",
              "name": "admin",
              "type": "address"
            }
          ],
          "name": "isRiskAdmin",
          "outputs": [
            {
              "internalType": "bool",
              "name": "",
              "type": "bool"
            }
          ],
          "stateMutability": "view",
          "type": "function"
        },
        {
          "inputs": [
            {
              "internalType": "address",
              "name": "admin",
              "type": "address"
            }
          ],
          "name": "removeAssetListingAdmin",
          "outputs": [],
          "stateMutability": "nonpayable",
          "type": "function"
        },
        {
          "inputs": [
            {
              "internalType": "address",
              "name": "bridge",
              "type": "address"
            }
          ],
          "name": "removeBridge",
          "outputs": [],
          "stateMutability": "nonpayable",
          "type": "function"
        },
        {
          "inputs": [
            {
              "internalType": "address",
              "name": "admin",
              "type": "address"
            }
          ],
          "name": "removeEmergencyAdmin",
          "outputs": [],
          "stateMutability": "nonpayable",
          "type": "function"
        },
        {
          "inputs": [
            {
              "internalType": "address",
              "name": "borrower",
              "type": "address"
            }
          ],
          "name": "removeFlashBorrower",
          "outputs": [],
          "stateMutability": "nonpayable",
          "type": "function"
        },
        {
          "inputs": [
            {
              "internalType": "address",
              "name": "admin",
              "type": "address"
            }
          ],
          "name": "removePoolAdmin",
          "outputs": [],
          "stateMutability": "nonpayable",
          "type": "function"
        },
        {
          "inputs": [
            {
              "internalType": "address",
              "name": "admin",
              "type": "address"
            }
          ],
          "name": "removeRiskAdmin",
          "outputs": [],
          "stateMutability": "nonpayable",
          "type": "function"
        },
        {
          "inputs": [
            {
              "internalType": "bytes32",
              "name": "role",
              "type": "bytes32"
            },
            {
              "internalType": "address",
              "name": "account",
              "type": "address"
            }
          ],
          "name": "renounceRole",
          "outputs": [],
          "stateMutability": "nonpayable",
          "type": "function"
        },
        {
          "inputs": [
            {
              "internalType": "bytes32",
              "name": "role",
              "type": "bytes32"
            },
            {
              "internalType": "address",
              "name": "account",
              "type": "address"
            }
          ],
          "name": "revokeRole",
          "outputs": [],
          "stateMutability": "nonpayable",
          "type": "function"
        },
        {
          "inputs": [
            {
              "internalType": "bytes32",
              "name": "role",
              "type": "bytes32"
            },
            {
              "internalType": "bytes32",
              "name": "adminRole",
              "type": "bytes32"
            }
          ],
          "name": "setRoleAdmin",
          "outputs": [],
          "stateMutability": "nonpayable",
          "type": "function"
        },
        {
          "inputs": [
            {
              "internalType": "bytes4",
              "name": "interfaceId",
              "type": "bytes4"
            }
          ],
          "name": "supportsInterface",
          "outputs": [
            {
              "internalType": "bool",
              "name": "",
              "type": "bool"
            }
          ],
          "stateMutability": "view",
          "type": "function"
        }
      ],
      "devdoc": {
        "author": "Aave",
        "kind": "dev",
        "methods": {
          "addAssetListingAdmin(address)": {
            "params": {
              "admin": "The address of the new admin"
            }
          },
          "addBridge(address)": {
            "params": {
              "bridge": "The address of the new Bridge"
            }
          },
          "addEmergencyAdmin(address)": {
            "params": {
              "admin": "The address of the new admin"
            }
          },
          "addFlashBorrower(address)": {
            "params": {
              "borrower": "The address of the new FlashBorrower"
            }
          },
          "addPoolAdmin(address)": {
            "params": {
              "admin": "The address of the new admin"
            }
          },
          "addRiskAdmin(address)": {
            "params": {
              "admin": "The address of the new admin"
            }
          },
          "constructor": {
            "details": "ConstructorThe ACL admin should be initialized at the addressesProvider beforehand",
            "params": {
              "provider": "The address of the PoolAddressesProvider"
            }
          },
          "getRoleAdmin(bytes32)": {
            "details": "Returns the admin role that controls `role`. See {grantRole} and {revokeRole}. To change a role's admin, use {_setRoleAdmin}."
          },
          "grantRole(bytes32,address)": {
            "details": "Grants `role` to `account`. If `account` had not been already granted `role`, emits a {RoleGranted} event. Requirements: - the caller must have ``role``'s admin role."
          },
          "hasRole(bytes32,address)": {
            "details": "Returns `true` if `account` has been granted `role`."
          },
          "isAssetListingAdmin(address)": {
            "params": {
              "admin": "The address to check"
            },
            "returns": {
              "_0": "True if the given address is AssetListingAdmin, false otherwise"
            }
          },
          "isBridge(address)": {
            "params": {
              "bridge": "The address to check"
            },
            "returns": {
              "_0": "True if the given address is Bridge, false otherwise"
            }
          },
          "isEmergencyAdmin(address)": {
            "params": {
              "admin": "The address to check"
            },
            "returns": {
              "_0": "True if the given address is EmergencyAdmin, false otherwise"
            }
          },
          "isFlashBorrower(address)": {
            "params": {
              "borrower": "The address to check"
            },
            "returns": {
              "_0": "True if the given address is FlashBorrower, false otherwise"
            }
          },
          "isPoolAdmin(address)": {
            "params": {
              "admin": "The address to check"
            },
            "returns": {
              "_0": "True if the given address is PoolAdmin, false otherwise"
            }
          },
          "isRiskAdmin(address)": {
            "params": {
              "admin": "The address to check"
            },
            "returns": {
              "_0": "True if the given address is RiskAdmin, false otherwise"
            }
          },
          "removeAssetListingAdmin(address)": {
            "params": {
              "admin": "The address of the admin to remove"
            }
          },
          "removeBridge(address)": {
            "params": {
              "bridge": "The address of the bridge to remove"
            }
          },
          "removeEmergencyAdmin(address)": {
            "params": {
              "admin": "The address of the admin to remove"
            }
          },
          "removeFlashBorrower(address)": {
            "params": {
              "borrower": "The address of the FlashBorrower to remove"
            }
          },
          "removePoolAdmin(address)": {
            "params": {
              "admin": "The address of the admin to remove"
            }
          },
          "removeRiskAdmin(address)": {
            "params": {
              "admin": "The address of the admin to remove"
            }
          },
          "renounceRole(bytes32,address)": {
            "details": "Revokes `role` from the calling account. Roles are often managed via {grantRole} and {revokeRole}: this function's purpose is to provide a mechanism for accounts to lose their privileges if they are compromised (such as when a trusted device is misplaced). If the calling account had been granted `role`, emits a {RoleRevoked} event. Requirements: - the caller must be `account`."
          },
          "revokeRole(bytes32,address)": {
            "details": "Revokes `role` from `account`. If `account` had been granted `role`, emits a {RoleRevoked} event. Requirements: - the caller must have ``role``'s admin role."
          },
          "setRoleAdmin(bytes32,bytes32)": {
            "details": "By default the admin role for all roles is `DEFAULT_ADMIN_ROLE`.",
            "params": {
              "adminRole": "The admin role",
              "role": "The role to be managed by the admin role"
            }
          },
          "supportsInterface(bytes4)": {
            "details": "See {IERC165-supportsInterface}."
          }
        },
        "stateVariables": {
          "ADDRESSES_PROVIDER": {
            "return": "The address of the PoolAddressesProvider",
            "returns": {
              "_0": "The address of the PoolAddressesProvider"
            }
          },
          "ASSET_LISTING_ADMIN_ROLE": {
            "return": "The id of the AssetListingAdmin role",
            "returns": {
              "_0": "The id of the AssetListingAdmin role"
            }
          },
          "BRIDGE_ROLE": {
            "return": "The id of the Bridge role",
            "returns": {
              "_0": "The id of the Bridge role"
            }
          },
          "EMERGENCY_ADMIN_ROLE": {
            "return": "The id of the EmergencyAdmin role",
            "returns": {
              "_0": "The id of the EmergencyAdmin role"
            }
          },
          "FLASH_BORROWER_ROLE": {
            "return": "The id of the FlashBorrower role",
            "returns": {
              "_0": "The id of the FlashBorrower role"
            }
          },
          "POOL_ADMIN_ROLE": {
            "return": "The id of the PoolAdmin role",
            "returns": {
              "_0": "The id of the PoolAdmin role"
            }
          },
          "RISK_ADMIN_ROLE": {
            "return": "The id of the RiskAdmin role",
            "returns": {
              "_0": "The id of the RiskAdmin role"
            }
          }
        },
        "title": "ACLManager",
        "version": 1
      },
      "evm": {
        "assembly": "    /* \"protocol/configuration/ACLManager.sol\":488:4391  contract ACLManager is AccessControl, IACLManager {... */\n  mstore(0x40, 0xa0)\n    /* \"protocol/configuration/ACLManager.sol\":1280:1528  constructor(IPoolAddressesProvider provider) {... */\n  callvalue\n  dup1\n  iszero\n  tag_1\n  jumpi\n  0x00\n  dup1\n  revert\ntag_1:\n  pop\n  mload(0x40)\n  sub(codesize, bytecodeSize)\n  dup1\n  bytecodeSize\n  dup4\n  codecopy\n  dup2\n  dup2\n  add\n  0x40\n  mstore\n  dup2\n  add\n  swap1\n  tag_2\n  swap2\n  swap1\n  tag_3\n  jump\t// in\ntag_2:\n    /* \"protocol/configuration/ACLManager.sol\":1352:1360  provider */\n  dup1\n    /* \"protocol/configuration/ACLManager.sol\":1331:1360  ADDRESSES_PROVIDER = provider */\n  0xffffffffffffffffffffffffffffffffffffffff\n  and\n  0x80\n  dup2\n  0xffffffffffffffffffffffffffffffffffffffff\n  and\n  dup2\n  mstore\n  pop\n  pop\n    /* \"protocol/configuration/ACLManager.sol\":1366:1382  address aclAdmin */\n  0x00\n    /* \"protocol/configuration/ACLManager.sol\":1385:1393  provider */\n  dup2\n    /* \"protocol/configuration/ACLManager.sol\":1385:1405  provider.getACLAdmin */\n  0xffffffffffffffffffffffffffffffffffffffff\n  and\n  0x0e67178c\n    /* \"protocol/configuration/ACLManager.sol\":1385:1407  provider.getACLAdmin() */\n  mload(0x40)\n  dup2\n  0xffffffff\n  and\n  0xe0\n  shl\n  dup2\n  mstore\n  0x04\n  add\n  0x20\n  mload(0x40)\n  dup1\n  dup4\n  sub\n  dup2\n  dup7\n  gas\n  staticcall\n  iszero\n  dup1\n  iszero\n  tag_7\n  jumpi\n  returndatasize\n  0x00\n  dup1\n  returndatacopy\n  revert(0x00, returndatasize)\ntag_7:\n  pop\n  pop\n  pop\n  pop\n  mload(0x40)\n  returndatasize\n  not(0x1f)\n  0x1f\n  dup3\n  add\n  and\n  dup3\n  add\n  dup1\n  0x40\n  mstore\n  pop\n  dup2\n  add\n  swap1\n  tag_8\n  swap2\n  swap1\n  tag_9\n  jump\t// in\ntag_8:\n    /* \"protocol/configuration/ACLManager.sol\":1366:1407  address aclAdmin = provider.getACLAdmin() */\n  swap1\n  pop\n    /* \"protocol/configuration/ACLManager.sol\":1441:1442  0 */\n  0x00\n    /* \"protocol/configuration/ACLManager.sol\":1421:1443  aclAdmin != address(0) */\n  0xffffffffffffffffffffffffffffffffffffffff\n  and\n    /* \"protocol/configuration/ACLManager.sol\":1421:1429  aclAdmin */\n  dup2\n    /* \"protocol/configuration/ACLManager.sol\":1421:1443  aclAdmin != address(0) */\n  0xffffffffffffffffffffffffffffffffffffffff\n  and\n  eq\n  iszero\n    /* \"protocol/configuration/ACLManager.sol\":1445:1476  Errors.ACL_ADMIN_CANNOT_BE_ZERO */\n  mload(0x40)\n  dup1\n  0x40\n  add\n  0x40\n  mstore\n  dup1\n  0x02\n  dup2\n  mstore\n  0x20\n  add\n  0x3735000000000000000000000000000000000000000000000000000000000000\n  dup2\n  mstore\n  pop\n    /* \"protocol/configuration/ACLManager.sol\":1413:1477  require(aclAdmin != address(0), Errors.ACL_ADMIN_CANNOT_BE_ZERO) */\n  swap1\n  tag_10\n  jumpi\n  mload(0x40)\n  0x08c379a000000000000000000000000000000000000000000000000000000000\n  dup2\n  mstore\n  0x04\n  add\n  tag_11\n  swap2\n  swap1\n  tag_12\n  jump\t// in\ntag_11:\n  mload(0x40)\n  dup1\n  swap2\n  sub\n  swap1\n  revert\ntag_10:\n  pop\n    /* \"protocol/configuration/ACLManager.sol\":1483:1523  _setupRole(DEFAULT_ADMIN_ROLE, aclAdmin) */\n  tag_13\n    /* \"dependencies/openzeppelin/contracts/AccessControl.sol\":1946:1950  0x00 */\n  0x00\n    /* \"protocol/configuration/ACLManager.sol\":1494:1512  DEFAULT_ADMIN_ROLE */\n  dup1\n  shl\n    /* \"protocol/configuration/ACLManager.sol\":1514:1522  aclAdmin */\n  dup3\n    /* \"protocol/configuration/ACLManager.sol\":1483:1493  _setupRole */\n  shl(0x20, tag_14)\n    /* \"protocol/configuration/ACLManager.sol\":1483:1523  _setupRole(DEFAULT_ADMIN_ROLE, aclAdmin) */\n  0x20\n  shr\n  jump\t// in\ntag_13:\n    /* \"protocol/configuration/ACLManager.sol\":1325:1528  {... */\n  pop\n    /* \"protocol/configuration/ACLManager.sol\":1280:1528  constructor(IPoolAddressesProvider provider) {... */\n  pop\n    /* \"protocol/configuration/ACLManager.sol\":488:4391  contract ACLManager is AccessControl, IACLManager {... */\n  jump(tag_15)\n    /* \"dependencies/openzeppelin/contracts/AccessControl.sol\":5739:5843  function _setupRole(bytes32 role, address account) internal virtual {... */\ntag_14:\n    /* \"dependencies/openzeppelin/contracts/AccessControl.sol\":5813:5838  _grantRole(role, account) */\n  tag_17\n    /* \"dependencies/openzeppelin/contracts/AccessControl.sol\":5824:5828  role */\n  dup3\n    /* \"dependencies/openzeppelin/contracts/AccessControl.sol\":5830:5837  account */\n  dup3\n    /* \"dependencies/openzeppelin/contracts/AccessControl.sol\":5813:5823  _grantRole */\n  shl(0x20, tag_18)\n    /* \"dependencies/openzeppelin/contracts/AccessControl.sol\":5813:5838  _grantRole(role, account) */\n  0x20\n  shr\n  jump\t// in\ntag_17:\n    /* \"dependencies/openzeppelin/contracts/AccessControl.sol\":5739:5843  function _setupRole(bytes32 role, address account) internal virtual {... */\n  pop\n  pop\n  jump\t// out\n    /* \"dependencies/openzeppelin/contracts/AccessControl.sol\":6193:6395  function _grantRole(bytes32 role, address account) private {... */\ntag_18:\n    /* \"dependencies/openzeppelin/contracts/AccessControl.sol\":6263:6285  hasRole(role, account) */\n  tag_20\n    /* \"dependencies/openzeppelin/contracts/AccessControl.sol\":6271:6275  role */\n  dup3\n    /* \"dependencies/openzeppelin/contracts/AccessControl.sol\":6277:6284  account */\n  dup3\n    /* \"dependencies/openzeppelin/contracts/AccessControl.sol\":6263:6270  hasRole */\n  shl(0x20, tag_21)\n    /* \"dependencies/openzeppelin/contracts/AccessControl.sol\":6263:6285  hasRole(role, account) */\n  0x20\n  shr\n  jump\t// in\ntag_20:\n    /* \"dependencies/openzeppelin/contracts/AccessControl.sol\":6258:6391  if (!hasRole(role, account)) {... */\n  tag_22\n  jumpi\n    /* \"dependencies/openzeppelin/contracts/AccessControl.sol\":6327:6331  true */\n  0x01\n    /* \"dependencies/openzeppelin/contracts/AccessControl.sol\":6295:6301  _roles */\n  0x00\n    /* \"dependencies/openzeppelin/contracts/AccessControl.sol\":6295:6307  _roles[role] */\n  dup1\n    /* \"dependencies/openzeppelin/contracts/AccessControl.sol\":6302:6306  role */\n  dup5\n    /* \"dependencies/openzeppelin/contracts/AccessControl.sol\":6295:6307  _roles[role] */\n  dup2\n  mstore\n  0x20\n  add\n  swap1\n  dup2\n  mstore\n  0x20\n  add\n  0x00\n  keccak256\n    /* \"dependencies/openzeppelin/contracts/AccessControl.sol\":6295:6315  _roles[role].members */\n  0x00\n  add\n    /* \"dependencies/openzeppelin/contracts/AccessControl.sol\":6295:6324  _roles[role].members[account] */\n  0x00\n    /* \"dependencies/openzeppelin/contracts/AccessControl.sol\":6316:6323  account */\n  dup4\n    /* \"dependencies/openzeppelin/contracts/AccessControl.sol\":6295:6324  _roles[role].members[account] */\n  0xffffffffffffffffffffffffffffffffffffffff\n  and\n  0xffffffffffffffffffffffffffffffffffffffff\n  and\n  dup2\n  mstore\n  0x20\n  add\n  swap1\n  dup2\n  mstore\n  0x20\n  add\n  0x00\n  keccak256\n  0x00\n    /* \"dependencies/openzeppelin/contracts/AccessControl.sol\":6295:6331  _roles[role].members[account] = true */\n  0x0100\n  exp\n  dup2\n  sload\n  dup2\n  0xff\n  mul\n  not\n  and\n  swap1\n  dup4\n  iszero\n  iszero\n  mul\n  or\n  swap1\n  sstore\n  pop\n    /* \"dependencies/openzeppelin/contracts/AccessControl.sol\":6371:6383  _msgSender() */\n  tag_23\n    /* \"dependencies/openzeppelin/contracts/AccessControl.sol\":6371:6381  _msgSender */\n  shl(0x20, tag_24)\n    /* \"dependencies/openzeppelin/contracts/AccessControl.sol\":6371:6383  _msgSender() */\n  0x20\n  shr\n  jump\t// in\ntag_23:\n    /* \"dependencies/openzeppelin/contracts/AccessControl.sol\":6344:6384  RoleGranted(role, account, _msgSender()) */\n  0xffffffffffffffffffffffffffffffffffffffff\n  and\n    /* \"dependencies/openzeppelin/contracts/AccessControl.sol\":6362:6369  account */\n  dup2\n    /* \"dependencies/openzeppelin/contracts/AccessControl.sol\":6344:6384  RoleGranted(role, account, _msgSender()) */\n  0xffffffffffffffffffffffffffffffffffffffff\n  and\n    /* \"dependencies/openzeppelin/contracts/AccessControl.sol\":6356:6360  role */\n  dup4\n    /* \"dependencies/openzeppelin/contracts/AccessControl.sol\":6344:6384  RoleGranted(role, account, _msgSender()) */\n  0x2f8788117e7eff1d82e926ec794901d17c78024a50270940304540a733656f0d\n  mload(0x40)\n  mload(0x40)\n  dup1\n  swap2\n  sub\n  swap1\n  log4\n    /* \"dependencies/openzeppelin/contracts/AccessControl.sol\":6258:6391  if (!hasRole(role, account)) {... */\ntag_22:\n    /* \"dependencies/openzeppelin/contracts/AccessControl.sol\":6193:6395  function _grantRole(bytes32 role, address account) private {... */\n  pop\n  pop\n  jump\t// out\n    /* \"dependencies/openzeppelin/contracts/AccessControl.sol\":2729:2860  function hasRole(bytes32 role, address account) public view override returns (bool) {... */\ntag_21:\n    /* \"dependencies/openzeppelin/contracts/AccessControl.sol\":2807:2811  bool */\n  0x00\n    /* \"dependencies/openzeppelin/contracts/AccessControl.sol\":2826:2832  _roles */\n  dup1\n    /* \"dependencies/openzeppelin/contracts/AccessControl.sol\":2826:2838  _roles[role] */\n  0x00\n    /* \"dependencies/openzeppelin/contracts/AccessControl.sol\":2833:2837  role */\n  dup5\n    /* \"dependencies/openzeppelin/contracts/AccessControl.sol\":2826:2838  _roles[role] */\n  dup2\n  mstore\n  0x20\n  add\n  swap1\n  dup2\n  mstore\n  0x20\n  add\n  0x00\n  keccak256\n    /* \"dependencies/openzeppelin/contracts/AccessControl.sol\":2826:2846  _roles[role].members */\n  0x00\n  add\n    /* \"dependencies/openzeppelin/contracts/AccessControl.sol\":2826:2855  _roles[role].members[account] */\n  0x00\n    /* \"dependencies/openzeppelin/contracts/AccessControl.sol\":2847:2854  account */\n  dup4\n    /* \"dependencies/openzeppelin/contracts/AccessControl.sol\":2826:2855  _roles[role].members[account] */\n  0xffffffffffffffffffffffffffffffffffffffff\n  and\n  0xffffffffffffffffffffffffffffffffffffffff\n  and\n  dup2\n  mstore\n  0x20\n  add\n  swap1\n  dup2\n  mstore\n  0x20\n  add\n  0x00\n  keccak256\n  0x00\n  swap1\n  sload\n  swap1\n  0x0100\n  exp\n  swap1\n  div\n  0xff\n  and\n    /* \"dependencies/openzeppelin/contracts/AccessControl.sol\":2819:2855  return _roles[role].members[account] */\n  swap1\n  pop\n    /* \"dependencies/openzeppelin/contracts/AccessControl.sol\":2729:2860  function hasRole(bytes32 role, address account) public view override returns (bool) {... */\n  swap3\n  swap2\n  pop\n  pop\n  jump\t// out\n    /* \"dependencies/openzeppelin/contracts/Context.sol\":587:694  function _msgSender() internal view virtual returns (address payable) {... */\ntag_24:\n    /* \"dependencies/openzeppelin/contracts/Context.sol\":640:655  address payable */\n  0x00\n    /* \"dependencies/openzeppelin/contracts/Context.sol\":678:688  msg.sender */\n  caller\n    /* \"dependencies/openzeppelin/contracts/Context.sol\":663:689  return payable(msg.sender) */\n  swap1\n  pop\n    /* \"dependencies/openzeppelin/contracts/Context.sol\":587:694  function _msgSender() internal view virtual returns (address payable) {... */\n  swap1\n  jump\t// out\n    /* \"#utility.yul\":88:205   */\ntag_28:\n    /* \"#utility.yul\":197:198   */\n  0x00\n    /* \"#utility.yul\":194:195   */\n  dup1\n    /* \"#utility.yul\":187:199   */\n  revert\n    /* \"#utility.yul\":334:460   */\ntag_30:\n    /* \"#utility.yul\":371:378   */\n  0x00\n    /* \"#utility.yul\":411:453   */\n  0xffffffffffffffffffffffffffffffffffffffff\n    /* \"#utility.yul\":404:409   */\n  dup3\n    /* \"#utility.yul\":400:454   */\n  and\n    /* \"#utility.yul\":389:454   */\n  swap1\n  pop\n    /* \"#utility.yul\":334:460   */\n  swap2\n  swap1\n  pop\n  jump\t// out\n    /* \"#utility.yul\":466:562   */\ntag_31:\n    /* \"#utility.yul\":503:510   */\n  0x00\n    /* \"#utility.yul\":532:556   */\n  tag_48\n    /* \"#utility.yul\":550:555   */\n  dup3\n    /* \"#utility.yul\":532:556   */\n  tag_30\n  jump\t// in\ntag_48:\n    /* \"#utility.yul\":521:556   */\n  swap1\n  pop\n    /* \"#utility.yul\":466:562   */\n  swap2\n  swap1\n  pop\n  jump\t// out\n    /* \"#utility.yul\":568:695   */\ntag_32:\n    /* \"#utility.yul\":636:643   */\n  0x00\n    /* \"#utility.yul\":665:689   */\n  tag_50\n    /* \"#utility.yul\":683:688   */\n  dup3\n    /* \"#utility.yul\":665:689   */\n  tag_31\n  jump\t// in\ntag_50:\n    /* \"#utility.yul\":654:689   */\n  swap1\n  pop\n    /* \"#utility.yul\":568:695   */\n  swap2\n  swap1\n  pop\n  jump\t// out\n    /* \"#utility.yul\":701:885   */\ntag_33:\n    /* \"#utility.yul\":805:860   */\n  tag_52\n    /* \"#utility.yul\":854:859   */\n  dup2\n    /* \"#utility.yul\":805:860   */\n  tag_32\n  jump\t// in\ntag_52:\n    /* \"#utility.yul\":798:803   */\n  dup2\n    /* \"#utility.yul\":795:861   */\n  eq\n    /* \"#utility.yul\":785:879   */\n  tag_53\n  jumpi\n    /* \"#utility.yul\":875:876   */\n  0x00\n    /* \"#utility.yul\":872:873   */\n  dup1\n    /* \"#utility.yul\":865:877   */\n  revert\n    /* \"#utility.yul\":785:879   */\ntag_53:\n    /* \"#utility.yul\":701:885   */\n  pop\n  jump\t// out\n    /* \"#utility.yul\":891:1096   */\ntag_34:\n    /* \"#utility.yul\":979:984   */\n  0x00\n    /* \"#utility.yul\":1010:1016   */\n  dup2\n    /* \"#utility.yul\":1004:1017   */\n  mload\n    /* \"#utility.yul\":995:1017   */\n  swap1\n  pop\n    /* \"#utility.yul\":1026:1090   */\n  tag_55\n    /* \"#utility.yul\":1084:1089   */\n  dup2\n    /* \"#utility.yul\":1026:1090   */\n  tag_33\n  jump\t// in\ntag_55:\n    /* \"#utility.yul\":891:1096   */\n  swap3\n  swap2\n  pop\n  pop\n  jump\t// out\n    /* \"#utility.yul\":1102:1515   */\ntag_3:\n    /* \"#utility.yul\":1203:1209   */\n  0x00\n    /* \"#utility.yul\":1252:1254   */\n  0x20\n    /* \"#utility.yul\":1240:1249   */\n  dup3\n    /* \"#utility.yul\":1231:1238   */\n  dup5\n    /* \"#utility.yul\":1227:1250   */\n  sub\n    /* \"#utility.yul\":1223:1255   */\n  slt\n    /* \"#utility.yul\":1220:1339   */\n  iszero\n  tag_57\n  jumpi\n    /* \"#utility.yul\":1258:1337   */\n  tag_58\n  tag_28\n  jump\t// in\ntag_58:\n    /* \"#utility.yul\":1220:1339   */\ntag_57:\n    /* \"#utility.yul\":1378:1379   */\n  0x00\n    /* \"#utility.yul\":1403:1498   */\n  tag_59\n    /* \"#utility.yul\":1490:1497   */\n  dup5\n    /* \"#utility.yul\":1481:1487   */\n  dup3\n    /* \"#utility.yul\":1470:1479   */\n  dup6\n    /* \"#utility.yul\":1466:1488   */\n  add\n    /* \"#utility.yul\":1403:1498   */\n  tag_34\n  jump\t// in\ntag_59:\n    /* \"#utility.yul\":1393:1498   */\n  swap2\n  pop\n    /* \"#utility.yul\":1349:1508   */\n  pop\n    /* \"#utility.yul\":1102:1515   */\n  swap3\n  swap2\n  pop\n  pop\n  jump\t// out\n    /* \"#utility.yul\":1521:1643   */\ntag_35:\n    /* \"#utility.yul\":1594:1618   */\n  tag_61\n    /* \"#utility.yul\":1612:1617   */\n  dup2\n    /* \"#utility.yul\":1594:1618   */\n  tag_31\n  jump\t// in\ntag_61:\n    /* \"#utility.yul\":1587:1592   */\n  dup2\n    /* \"#utility.yul\":1584:1619   */\n  eq\n    /* \"#utility.yul\":1574:1637   */\n  tag_62\n  jumpi\n    /* \"#utility.yul\":1633:1634   */\n  0x00\n    /* \"#utility.yul\":1630:1631   */\n  dup1\n    /* \"#utility.yul\":1623:1635   */\n  revert\n    /* \"#utility.yul\":1574:1637   */\ntag_62:\n    /* \"#utility.yul\":1521:1643   */\n  pop\n  jump\t// out\n    /* \"#utility.yul\":1649:1792   */\ntag_36:\n    /* \"#utility.yul\":1706:1711   */\n  0x00\n    /* \"#utility.yul\":1737:1743   */\n  dup2\n    /* \"#utility.yul\":1731:1744   */\n  mload\n    /* \"#utility.yul\":1722:1744   */\n  swap1\n  pop\n    /* \"#utility.yul\":1753:1786   */\n  tag_64\n    /* \"#utility.yul\":1780:1785   */\n  dup2\n    /* \"#utility.yul\":1753:1786   */\n  tag_35\n  jump\t// in\ntag_64:\n    /* \"#utility.yul\":1649:1792   */\n  swap3\n  swap2\n  pop\n  pop\n  jump\t// out\n    /* \"#utility.yul\":1798:2149   */\ntag_9:\n    /* \"#utility.yul\":1868:1874   */\n  0x00\n    /* \"#utility.yul\":1917:1919   */\n  0x20\n    /* \"#utility.yul\":1905:1914   */\n  dup3\n    /* \"#utility.yul\":1896:1903   */\n  dup5\n    /* \"#utility.yul\":1892:1915   */\n  sub\n    /* \"#utility.yul\":1888:1920   */\n  slt\n    /* \"#utility.yul\":1885:2004   */\n  iszero\n  tag_66\n  jumpi\n    /* \"#utility.yul\":1923:2002   */\n  tag_67\n  tag_28\n  jump\t// in\ntag_67:\n    /* \"#utility.yul\":1885:2004   */\ntag_66:\n    /* \"#utility.yul\":2043:2044   */\n  0x00\n    /* \"#utility.yul\":2068:2132   */\n  tag_68\n    /* \"#utility.yul\":2124:2131   */\n  dup5\n    /* \"#utility.yul\":2115:2121   */\n  dup3\n    /* \"#utility.yul\":2104:2113   */\n  dup6\n    /* \"#utility.yul\":2100:2122   */\n  add\n    /* \"#utility.yul\":2068:2132   */\n  tag_36\n  jump\t// in\ntag_68:\n    /* \"#utility.yul\":2058:2132   */\n  swap2\n  pop\n    /* \"#utility.yul\":2014:2142   */\n  pop\n    /* \"#utility.yul\":1798:2149   */\n  swap3\n  swap2\n  pop\n  pop\n  jump\t// out\n    /* \"#utility.yul\":2155:2254   */\ntag_37:\n    /* \"#utility.yul\":2207:2213   */\n  0x00\n    /* \"#utility.yul\":2241:2246   */\n  dup2\n    /* \"#utility.yul\":2235:2247   */\n  mload\n    /* \"#utility.yul\":2225:2247   */\n  swap1\n  pop\n    /* \"#utility.yul\":2155:2254   */\n  swap2\n  swap1\n  pop\n  jump\t// out\n    /* \"#utility.yul\":2260:2429   */\ntag_38:\n    /* \"#utility.yul\":2344:2355   */\n  0x00\n    /* \"#utility.yul\":2378:2384   */\n  dup3\n    /* \"#utility.yul\":2373:2376   */\n  dup3\n    /* \"#utility.yul\":2366:2385   */\n  mstore\n    /* \"#utility.yul\":2418:2422   */\n  0x20\n    /* \"#utility.yul\":2413:2416   */\n  dup3\n    /* \"#utility.yul\":2409:2423   */\n  add\n    /* \"#utility.yul\":2394:2423   */\n  swap1\n  pop\n    /* \"#utility.yul\":2260:2429   */\n  swap3\n  swap2\n  pop\n  pop\n  jump\t// out\n    /* \"#utility.yul\":2435:2742   */\ntag_39:\n    /* \"#utility.yul\":2503:2504   */\n  0x00\n    /* \"#utility.yul\":2513:2626   */\ntag_72:\n    /* \"#utility.yul\":2527:2533   */\n  dup4\n    /* \"#utility.yul\":2524:2525   */\n  dup2\n    /* \"#utility.yul\":2521:2534   */\n  lt\n    /* \"#utility.yul\":2513:2626   */\n  iszero\n  tag_74\n  jumpi\n    /* \"#utility.yul\":2612:2613   */\n  dup1\n    /* \"#utility.yul\":2607:2610   */\n  dup3\n    /* \"#utility.yul\":2603:2614   */\n  add\n    /* \"#utility.yul\":2597:2615   */\n  mload\n    /* \"#utility.yul\":2593:2594   */\n  dup2\n    /* \"#utility.yul\":2588:2591   */\n  dup5\n    /* \"#utility.yul\":2584:2595   */\n  add\n    /* \"#utility.yul\":2577:2616   */\n  mstore\n    /* \"#utility.yul\":2549:2551   */\n  0x20\n    /* \"#utility.yul\":2546:2547   */\n  dup2\n    /* \"#utility.yul\":2542:2552   */\n  add\n    /* \"#utility.yul\":2537:2552   */\n  swap1\n  pop\n    /* \"#utility.yul\":2513:2626   */\n  jump(tag_72)\ntag_74:\n    /* \"#utility.yul\":2644:2650   */\n  dup4\n    /* \"#utility.yul\":2641:2642   */\n  dup2\n    /* \"#utility.yul\":2638:2651   */\n  gt\n    /* \"#utility.yul\":2635:2736   */\n  iszero\n  tag_75\n  jumpi\n    /* \"#utility.yul\":2724:2725   */\n  0x00\n    /* \"#utility.yul\":2715:2721   */\n  dup5\n    /* \"#utility.yul\":2710:2713   */\n  dup5\n    /* \"#utility.yul\":2706:2722   */\n  add\n    /* \"#utility.yul\":2699:2726   */\n  mstore\n    /* \"#utility.yul\":2635:2736   */\ntag_75:\n    /* \"#utility.yul\":2484:2742   */\n  pop\n    /* \"#utility.yul\":2435:2742   */\n  pop\n  pop\n  pop\n  jump\t// out\n    /* \"#utility.yul\":2748:2850   */\ntag_40:\n    /* \"#utility.yul\":2789:2795   */\n  0x00\n    /* \"#utility.yul\":2840:2842   */\n  0x1f\n    /* \"#utility.yul\":2836:2843   */\n  not\n    /* \"#utility.yul\":2831:2833   */\n  0x1f\n    /* \"#utility.yul\":2824:2829   */\n  dup4\n    /* \"#utility.yul\":2820:2834   */\n  add\n    /* \"#utility.yul\":2816:2844   */\n  and\n    /* \"#utility.yul\":2806:2844   */\n  swap1\n  pop\n    /* \"#utility.yul\":2748:2850   */\n  swap2\n  swap1\n  pop\n  jump\t// out\n    /* \"#utility.yul\":2856:3220   */\ntag_41:\n    /* \"#utility.yul\":2944:2947   */\n  0x00\n    /* \"#utility.yul\":2972:3011   */\n  tag_78\n    /* \"#utility.yul\":3005:3010   */\n  dup3\n    /* \"#utility.yul\":2972:3011   */\n  tag_37\n  jump\t// in\ntag_78:\n    /* \"#utility.yul\":3027:3098   */\n  tag_79\n    /* \"#utility.yul\":3091:3097   */\n  dup2\n    /* \"#utility.yul\":3086:3089   */\n  dup6\n    /* \"#utility.yul\":3027:3098   */\n  tag_38\n  jump\t// in\ntag_79:\n    /* \"#utility.yul\":3020:3098   */\n  swap4\n  pop\n    /* \"#utility.yul\":3107:3159   */\n  tag_80\n    /* \"#utility.yul\":3152:3158   */\n  dup2\n    /* \"#utility.yul\":3147:3150   */\n  dup6\n    /* \"#utility.yul\":3140:3144   */\n  0x20\n    /* \"#utility.yul\":3133:3138   */\n  dup7\n    /* \"#utility.yul\":3129:3145   */\n  add\n    /* \"#utility.yul\":3107:3159   */\n  tag_39\n  jump\t// in\ntag_80:\n    /* \"#utility.yul\":3184:3213   */\n  tag_81\n    /* \"#utility.yul\":3206:3212   */\n  dup2\n    /* \"#utility.yul\":3184:3213   */\n  tag_40\n  jump\t// in\ntag_81:\n    /* \"#utility.yul\":3179:3182   */\n  dup5\n    /* \"#utility.yul\":3175:3214   */\n  add\n    /* \"#utility.yul\":3168:3214   */\n  swap2\n  pop\n    /* \"#utility.yul\":2948:3220   */\n  pop\n    /* \"#utility.yul\":2856:3220   */\n  swap3\n  swap2\n  pop\n  pop\n  jump\t// out\n    /* \"#utility.yul\":3226:3539   */\ntag_12:\n    /* \"#utility.yul\":3339:3343   */\n  0x00\n    /* \"#utility.yul\":3377:3379   */\n  0x20\n    /* \"#utility.yul\":3366:3375   */\n  dup3\n    /* \"#utility.yul\":3362:3380   */\n  add\n    /* \"#utility.yul\":3354:3380   */\n  swap1\n  pop\n    /* \"#utility.yul\":3426:3435   */\n  dup2\n    /* \"#utility.yul\":3420:3424   */\n  dup2\n    /* \"#utility.yul\":3416:3436   */\n  sub\n    /* \"#utility.yul\":3412:3413   */\n  0x00\n    /* \"#utility.yul\":3401:3410   */\n  dup4\n    /* \"#utility.yul\":3397:3414   */\n  add\n    /* \"#utility.yul\":3390:3437   */\n  mstore\n    /* \"#utility.yul\":3454:3532   */\n  tag_83\n    /* \"#utility.yul\":3527:3531   */\n  dup2\n    /* \"#utility.yul\":3518:3524   */\n  dup5\n    /* \"#utility.yul\":3454:3532   */\n  tag_41\n  jump\t// in\ntag_83:\n    /* \"#utility.yul\":3446:3532   */\n  swap1\n  pop\n    /* \"#utility.yul\":3226:3539   */\n  swap3\n  swap2\n  pop\n  pop\n  jump\t// out\n    /* \"protocol/configuration/ACLManager.sol\":488:4391  contract ACLManager is AccessControl, IACLManager {... */\ntag_15:\n  mload(0x80)\n  codecopy(0x00, dataOffset(sub_0), dataSize(sub_0))\n  0x00\n  assignImmutable(\"0x63f1589d04b1acca2eee17c7e4fcd27604d0b1130abe91a01e0f895b7d990172\")\n  return(0x00, dataSize(sub_0))\nstop\n\nsub_0: assembly {\n        /* \"protocol/configuration/ACLManager.sol\":488:4391  contract ACLManager is AccessControl, IACLManager {... */\n      mstore(0x40, 0x80)\n      callvalue\n      dup1\n      iszero\n      tag_1\n      jumpi\n      0x00\n      dup1\n      revert\n    tag_1:\n      pop\n      jumpi(tag_2, lt(calldatasize, 0x04))\n      shr(0xe0, calldataload(0x00))\n      dup1\n      0x674b5e4d\n      gt\n      tag_36\n      jumpi\n      dup1\n      0x9a2b96f7\n      gt\n      tag_37\n      jumpi\n      dup1\n      0xb5bfddea\n      gt\n      tag_38\n      jumpi\n      dup1\n      0xb5bfddea\n      eq\n      tag_31\n      jumpi\n      dup1\n      0xb8f6dba7\n      eq\n      tag_32\n      jumpi\n      dup1\n      0xd547741f\n      eq\n      tag_33\n      jumpi\n      dup1\n      0xf83695cb\n      eq\n      tag_34\n      jumpi\n      dup1\n      0xfa50f297\n      eq\n      tag_35\n      jumpi\n      jump(tag_2)\n    tag_38:\n      dup1\n      0x9a2b96f7\n      eq\n      tag_27\n      jumpi\n      dup1\n      0x9ac9d80b\n      eq\n      tag_28\n      jumpi\n      dup1\n      0xa217fddf\n      eq\n      tag_29\n      jumpi\n      dup1\n      0xa21bce15\n      eq\n      tag_30\n      jumpi\n      jump(tag_2)\n    tag_37:\n      dup1\n      0x7a9a93f4\n      gt\n      tag_39\n      jumpi\n      dup1\n      0x7a9a93f4\n      eq\n      tag_23\n      jumpi\n      dup1\n      0x7be53ca1\n      eq\n      tag_24\n      jumpi\n      dup1\n      0x91d14854\n      eq\n      tag_25\n      jumpi\n      dup1\n      0x9712fdf8\n      eq\n      tag_26\n      jumpi\n      jump(tag_2)\n    tag_39:\n      dup1\n      0x674b5e4d\n      eq\n      tag_19\n      jumpi\n      dup1\n      0x6e76fc8f\n      eq\n      tag_20\n      jumpi\n      dup1\n      0x726600ce\n      eq\n      tag_21\n      jumpi\n      dup1\n      0x78bb0a43\n      eq\n      tag_22\n      jumpi\n      jump(tag_2)\n    tag_36:\n      dup1\n      0x2500f2b6\n      gt\n      tag_40\n      jumpi\n      dup1\n      0x3c5a08e5\n      gt\n      tag_41\n      jumpi\n      dup1\n      0x3c5a08e5\n      eq\n      tag_15\n      jumpi\n      dup1\n      0x4f16b425\n      eq\n      tag_16\n      jumpi\n      dup1\n      0x5577b7a9\n      eq\n      tag_17\n      jumpi\n      dup1\n      0x5b9a94e4\n      eq\n      tag_18\n      jumpi\n      jump(tag_2)\n    tag_41:\n      dup1\n      0x2500f2b6\n      eq\n      tag_11\n      jumpi\n      dup1\n      0x253cf980\n      eq\n      tag_12\n      jumpi\n      dup1\n      0x2f2ff15d\n      eq\n      tag_13\n      jumpi\n      dup1\n      0x36568abe\n      eq\n      tag_14\n      jumpi\n      jump(tag_2)\n    tag_40:\n      dup1\n      0x179efb09\n      gt\n      tag_42\n      jumpi\n      dup1\n      0x179efb09\n      eq\n      tag_7\n      jumpi\n      dup1\n      0x1e4e0091\n      eq\n      tag_8\n      jumpi\n      dup1\n      0x22650caf\n      eq\n      tag_9\n      jumpi\n      dup1\n      0x248a9ca3\n      eq\n      tag_10\n      jumpi\n      jump(tag_2)\n    tag_42:\n      dup1\n      0x01ffc9a7\n      eq\n      tag_3\n      jumpi\n      dup1\n      0x04df017d\n      eq\n      tag_4\n      jumpi\n      dup1\n      0x0542975c\n      eq\n      tag_5\n      jumpi\n      dup1\n      0x13ee32e0\n      eq\n      tag_6\n      jumpi\n    tag_2:\n      0x00\n      dup1\n      revert\n        /* \"dependencies/openzeppelin/contracts/AccessControl.sol\":2454:2650  function supportsInterface(bytes4 interfaceId) public view virtual override returns (bool) {... */\n    tag_3:\n      tag_43\n      0x04\n      dup1\n      calldatasize\n      sub\n      dup2\n      add\n      swap1\n      tag_44\n      swap2\n      swap1\n      tag_45\n      jump\t// in\n    tag_44:\n      tag_46\n      jump\t// in\n    tag_43:\n      mload(0x40)\n      tag_47\n      swap2\n      swap1\n      tag_48\n      jump\t// in\n    tag_47:\n      mload(0x40)\n      dup1\n      swap2\n      sub\n      swap1\n      return\n        /* \"protocol/configuration/ACLManager.sol\":3661:3759  function removeBridge(address bridge) external override {... */\n    tag_4:\n      tag_49\n      0x04\n      dup1\n      calldatasize\n      sub\n      dup2\n      add\n      swap1\n      tag_50\n      swap2\n      swap1\n      tag_51\n      jump\t// in\n    tag_50:\n      tag_52\n      jump\t// in\n    tag_49:\n      stop\n        /* \"protocol/configuration/ACLManager.sol\":1039:1097  IPoolAddressesProvider public immutable ADDRESSES_PROVIDER */\n    tag_5:\n      tag_53\n      tag_54\n      jump\t// in\n    tag_53:\n      mload(0x40)\n      tag_55\n      swap2\n      swap1\n      tag_56\n      jump\t// in\n    tag_55:\n      mload(0x40)\n      dup1\n      swap2\n      sub\n      swap1\n      return\n        /* \"protocol/configuration/ACLManager.sol\":4249:4389  function isAssetListingAdmin(address admin) external view override returns (bool) {... */\n    tag_6:\n      tag_57\n      0x04\n      dup1\n      calldatasize\n      sub\n      dup2\n      add\n      swap1\n      tag_58\n      swap2\n      swap1\n      tag_51\n      jump\t// in\n    tag_58:\n      tag_59\n      jump\t// in\n    tag_57:\n      mload(0x40)\n      tag_60\n      swap2\n      swap1\n      tag_48\n      jump\t// in\n    tag_60:\n      mload(0x40)\n      dup1\n      swap2\n      sub\n      swap1\n      return\n        /* \"protocol/configuration/ACLManager.sol\":2180:2289  function addEmergencyAdmin(address admin) external override {... */\n    tag_7:\n      tag_61\n      0x04\n      dup1\n      calldatasize\n      sub\n      dup2\n      add\n      swap1\n      tag_62\n      swap2\n      swap1\n      tag_51\n      jump\t// in\n    tag_62:\n      tag_63\n      jump\t// in\n    tag_61:\n      stop\n        /* \"protocol/configuration/ACLManager.sol\":1562:1719  function setRoleAdmin(bytes32 role, bytes32 adminRole)... */\n    tag_8:\n      tag_64\n      0x04\n      dup1\n      calldatasize\n      sub\n      dup2\n      add\n      swap1\n      tag_65\n      swap2\n      swap1\n      tag_66\n      jump\t// in\n    tag_65:\n      tag_67\n      jump\t// in\n    tag_64:\n      stop\n        /* \"protocol/configuration/ACLManager.sol\":1753:1852  function addPoolAdmin(address admin) external override {... */\n    tag_9:\n      tag_68\n      0x04\n      dup1\n      calldatasize\n      sub\n      dup2\n      add\n      swap1\n      tag_69\n      swap2\n      swap1\n      tag_51\n      jump\t// in\n    tag_69:\n      tag_70\n      jump\t// in\n    tag_68:\n      stop\n        /* \"dependencies/openzeppelin/contracts/AccessControl.sol\":3670:3785  function getRoleAdmin(bytes32 role) public view override returns (bytes32) {... */\n    tag_10:\n      tag_71\n      0x04\n      dup1\n      calldatasize\n      sub\n      dup2\n      add\n      swap1\n      tag_72\n      swap2\n      swap1\n      tag_73\n      jump\t// in\n    tag_72:\n      tag_74\n      jump\t// in\n    tag_71:\n      mload(0x40)\n      tag_75\n      swap2\n      swap1\n      tag_76\n      jump\t// in\n    tag_75:\n      mload(0x40)\n      dup1\n      swap2\n      sub\n      swap1\n      return\n        /* \"protocol/configuration/ACLManager.sol\":2470:2603  function isEmergencyAdmin(address admin) external view override returns (bool) {... */\n    tag_11:\n      tag_77\n      0x04\n      dup1\n      calldatasize\n      sub\n      dup2\n      add\n      swap1\n      tag_78\n      swap2\n      swap1\n      tag_51\n      jump\t// in\n    tag_78:\n      tag_79\n      jump\t// in\n    tag_77:\n      mload(0x40)\n      tag_80\n      swap2\n      swap1\n      tag_48\n      jump\t// in\n    tag_80:\n      mload(0x40)\n      dup1\n      swap2\n      sub\n      swap1\n      return\n        /* \"protocol/configuration/ACLManager.sol\":3211:3328  function removeFlashBorrower(address borrower) external override {... */\n    tag_12:\n      tag_81\n      0x04\n      dup1\n      calldatasize\n      sub\n      dup2\n      add\n      swap1\n      tag_82\n      swap2\n      swap1\n      tag_51\n      jump\t// in\n    tag_82:\n      tag_83\n      jump\t// in\n    tag_81:\n      stop\n        /* \"dependencies/openzeppelin/contracts/AccessControl.sol\":4013:4170  function grantRole(bytes32 role, address account)... */\n    tag_13:\n      tag_84\n      0x04\n      dup1\n      calldatasize\n      sub\n      dup2\n      add\n      swap1\n      tag_85\n      swap2\n      swap1\n      tag_86\n      jump\t// in\n    tag_85:\n      tag_87\n      jump\t// in\n    tag_84:\n      stop\n        /* \"dependencies/openzeppelin/contracts/AccessControl.sol\":5004:5208  function renounceRole(bytes32 role, address account) public virtual override {... */\n    tag_14:\n      tag_88\n      0x04\n      dup1\n      calldatasize\n      sub\n      dup2\n      add\n      swap1\n      tag_89\n      swap2\n      swap1\n      tag_86\n      jump\t// in\n    tag_89:\n      tag_90\n      jump\t// in\n    tag_88:\n      stop\n        /* \"protocol/configuration/ACLManager.sol\":2770:2873  function removeRiskAdmin(address admin) external override {... */\n    tag_15:\n      tag_91\n      0x04\n      dup1\n      calldatasize\n      sub\n      dup2\n      add\n      swap1\n      tag_92\n      swap2\n      swap1\n      tag_51\n      jump\t// in\n    tag_92:\n      tag_93\n      jump\t// in\n    tag_91:\n      stop\n        /* \"protocol/configuration/ACLManager.sol\":708:782  bytes32 public constant override RISK_ADMIN_ROLE = keccak256('RISK_ADMIN') */\n    tag_16:\n      tag_94\n      tag_95\n      jump\t// in\n    tag_94:\n      mload(0x40)\n      tag_96\n      swap2\n      swap1\n      tag_76\n      jump\t// in\n    tag_96:\n      mload(0x40)\n      dup1\n      swap2\n      sub\n      swap1\n      return\n        /* \"protocol/configuration/ACLManager.sol\":786:868  bytes32 public constant override FLASH_BORROWER_ROLE = keccak256('FLASH_BORROWER') */\n    tag_17:\n      tag_97\n      tag_98\n      jump\t// in\n    tag_97:\n      mload(0x40)\n      tag_99\n      swap2\n      swap1\n      tag_76\n      jump\t// in\n    tag_99:\n      mload(0x40)\n      dup1\n      swap2\n      sub\n      swap1\n      return\n        /* \"protocol/configuration/ACLManager.sol\":2637:2736  function addRiskAdmin(address admin) external override {... */\n    tag_18:\n      tag_100\n      0x04\n      dup1\n      calldatasize\n      sub\n      dup2\n      add\n      swap1\n      tag_101\n      swap2\n      swap1\n      tag_51\n      jump\t// in\n    tag_101:\n      tag_102\n      jump\t// in\n    tag_100:\n      stop\n        /* \"protocol/configuration/ACLManager.sol\":2907:3030  function isRiskAdmin(address admin) external view override returns (bool) {... */\n    tag_19:\n      tag_103\n      0x04\n      dup1\n      calldatasize\n      sub\n      dup2\n      add\n      swap1\n      tag_104\n      swap2\n      swap1\n      tag_51\n      jump\t// in\n    tag_104:\n      tag_105\n      jump\t// in\n    tag_103:\n      mload(0x40)\n      tag_106\n      swap2\n      swap1\n      tag_48\n      jump\t// in\n    tag_106:\n      mload(0x40)\n      dup1\n      swap2\n      sub\n      swap1\n      return\n        /* \"protocol/configuration/ACLManager.sol\":620:704  bytes32 public constant override EMERGENCY_ADMIN_ROLE = keccak256('EMERGENCY_ADMIN') */\n    tag_20:\n      tag_107\n      tag_108\n      jump\t// in\n    tag_107:\n      mload(0x40)\n      tag_109\n      swap2\n      swap1\n      tag_76\n      jump\t// in\n    tag_109:\n      mload(0x40)\n      dup1\n      swap2\n      sub\n      swap1\n      return\n        /* \"protocol/configuration/ACLManager.sol\":3793:3911  function isBridge(address bridge) external view override returns (bool) {... */\n    tag_21:\n      tag_110\n      0x04\n      dup1\n      calldatasize\n      sub\n      dup2\n      add\n      swap1\n      tag_111\n      swap2\n      swap1\n      tag_51\n      jump\t// in\n    tag_111:\n      tag_112\n      jump\t// in\n    tag_110:\n      mload(0x40)\n      tag_113\n      swap2\n      swap1\n      tag_48\n      jump\t// in\n    tag_113:\n      mload(0x40)\n      dup1\n      swap2\n      sub\n      swap1\n      return\n        /* \"protocol/configuration/ACLManager.sol\":942:1034  bytes32 public constant override ASSET_LISTING_ADMIN_ROLE = keccak256('ASSET_LISTING_ADMIN') */\n    tag_22:\n      tag_114\n      tag_115\n      jump\t// in\n    tag_114:\n      mload(0x40)\n      tag_116\n      swap2\n      swap1\n      tag_76\n      jump\t// in\n    tag_116:\n      mload(0x40)\n      dup1\n      swap2\n      sub\n      swap1\n      return\n        /* \"protocol/configuration/ACLManager.sol\":2323:2436  function removeEmergencyAdmin(address admin) external override {... */\n    tag_23:\n      tag_117\n      0x04\n      dup1\n      calldatasize\n      sub\n      dup2\n      add\n      swap1\n      tag_118\n      swap2\n      swap1\n      tag_51\n      jump\t// in\n    tag_118:\n      tag_119\n      jump\t// in\n    tag_117:\n      stop\n        /* \"protocol/configuration/ACLManager.sol\":2023:2146  function isPoolAdmin(address admin) external view override returns (bool) {... */\n    tag_24:\n      tag_120\n      0x04\n      dup1\n      calldatasize\n      sub\n      dup2\n      add\n      swap1\n      tag_121\n      swap2\n      swap1\n      tag_51\n      jump\t// in\n    tag_121:\n      tag_122\n      jump\t// in\n    tag_120:\n      mload(0x40)\n      tag_123\n      swap2\n      swap1\n      tag_48\n      jump\t// in\n    tag_123:\n      mload(0x40)\n      dup1\n      swap2\n      sub\n      swap1\n      return\n        /* \"dependencies/openzeppelin/contracts/AccessControl.sol\":2729:2860  function hasRole(bytes32 role, address account) public view override returns (bool) {... */\n    tag_25:\n      tag_124\n      0x04\n      dup1\n      calldatasize\n      sub\n      dup2\n      add\n      swap1\n      tag_125\n      swap2\n      swap1\n      tag_86\n      jump\t// in\n    tag_125:\n      tag_126\n      jump\t// in\n    tag_124:\n      mload(0x40)\n      tag_127\n      swap2\n      swap1\n      tag_48\n      jump\t// in\n    tag_127:\n      mload(0x40)\n      dup1\n      swap2\n      sub\n      swap1\n      return\n        /* \"protocol/configuration/ACLManager.sol\":3533:3627  function addBridge(address bridge) external override {... */\n    tag_26:\n      tag_128\n      0x04\n      dup1\n      calldatasize\n      sub\n      dup2\n      add\n      swap1\n      tag_129\n      swap2\n      swap1\n      tag_51\n      jump\t// in\n    tag_129:\n      tag_130\n      jump\t// in\n    tag_128:\n      stop\n        /* \"protocol/configuration/ACLManager.sol\":3945:4061  function addAssetListingAdmin(address admin) external override {... */\n    tag_27:\n      tag_131\n      0x04\n      dup1\n      calldatasize\n      sub\n      dup2\n      add\n      swap1\n      tag_132\n      swap2\n      swap1\n      tag_51\n      jump\t// in\n    tag_132:\n      tag_133\n      jump\t// in\n    tag_131:\n      stop\n        /* \"protocol/configuration/ACLManager.sol\":3064:3177  function addFlashBorrower(address borrower) external override {... */\n    tag_28:\n      tag_134\n      0x04\n      dup1\n      calldatasize\n      sub\n      dup2\n      add\n      swap1\n      tag_135\n      swap2\n      swap1\n      tag_51\n      jump\t// in\n    tag_135:\n      tag_136\n      jump\t// in\n    tag_134:\n      stop\n        /* \"dependencies/openzeppelin/contracts/AccessControl.sol\":1901:1950  bytes32 public constant DEFAULT_ADMIN_ROLE = 0x00 */\n    tag_29:\n      tag_137\n      tag_138\n      jump\t// in\n    tag_137:\n      mload(0x40)\n      tag_139\n      swap2\n      swap1\n      tag_76\n      jump\t// in\n    tag_139:\n      mload(0x40)\n      dup1\n      swap2\n      sub\n      swap1\n      return\n        /* \"protocol/configuration/ACLManager.sol\":4095:4215  function removeAssetListingAdmin(address admin) external override {... */\n    tag_30:\n      tag_140\n      0x04\n      dup1\n      calldatasize\n      sub\n      dup2\n      add\n      swap1\n      tag_141\n      swap2\n      swap1\n      tag_51\n      jump\t// in\n    tag_141:\n      tag_142\n      jump\t// in\n    tag_140:\n      stop\n        /* \"protocol/configuration/ACLManager.sol\":872:938  bytes32 public constant override BRIDGE_ROLE = keccak256('BRIDGE') */\n    tag_31:\n      tag_143\n      tag_144\n      jump\t// in\n    tag_143:\n      mload(0x40)\n      tag_145\n      swap2\n      swap1\n      tag_76\n      jump\t// in\n    tag_145:\n      mload(0x40)\n      dup1\n      swap2\n      sub\n      swap1\n      return\n        /* \"protocol/configuration/ACLManager.sol\":542:616  bytes32 public constant override POOL_ADMIN_ROLE = keccak256('POOL_ADMIN') */\n    tag_32:\n      tag_146\n      tag_147\n      jump\t// in\n    tag_146:\n      mload(0x40)\n      tag_148\n      swap2\n      swap1\n      tag_76\n      jump\t// in\n    tag_148:\n      mload(0x40)\n      dup1\n      swap2\n      sub\n      swap1\n      return\n        /* \"dependencies/openzeppelin/contracts/AccessControl.sol\":4384:4543  function revokeRole(bytes32 role, address account)... */\n    tag_33:\n      tag_149\n      0x04\n      dup1\n      calldatasize\n      sub\n      dup2\n      add\n      swap1\n      tag_150\n      swap2\n      swap1\n      tag_86\n      jump\t// in\n    tag_150:\n      tag_151\n      jump\t// in\n    tag_149:\n      stop\n        /* \"protocol/configuration/ACLManager.sol\":1886:1989  function removePoolAdmin(address admin) external override {... */\n    tag_34:\n      tag_152\n      0x04\n      dup1\n      calldatasize\n      sub\n      dup2\n      add\n      swap1\n      tag_153\n      swap2\n      swap1\n      tag_51\n      jump\t// in\n    tag_153:\n      tag_154\n      jump\t// in\n    tag_152:\n      stop\n        /* \"protocol/configuration/ACLManager.sol\":3362:3499  function isFlashBorrower(address borrower) external view override returns (bool) {... */\n    tag_35:\n      tag_155\n      0x04\n      dup1\n      calldatasize\n      sub\n      dup2\n      add\n      swap1\n      tag_156\n      swap2\n      swap1\n      tag_51\n      jump\t// in\n    tag_156:\n      tag_157\n      jump\t// in\n    tag_155:\n      mload(0x40)\n      tag_158\n      swap2\n      swap1\n      tag_48\n      jump\t// in\n    tag_158:\n      mload(0x40)\n      dup1\n      swap2\n      sub\n      swap1\n      return\n        /* \"dependencies/openzeppelin/contracts/AccessControl.sol\":2454:2650  function supportsInterface(bytes4 interfaceId) public view virtual override returns (bool) {... */\n    tag_46:\n        /* \"dependencies/openzeppelin/contracts/AccessControl.sol\":2539:2543  bool */\n      0x00\n        /* \"dependencies/openzeppelin/contracts/AccessControl.sol\":2573:2605  type(IAccessControl).interfaceId */\n      0x7965db0b00000000000000000000000000000000000000000000000000000000\n        /* \"dependencies/openzeppelin/contracts/AccessControl.sol\":2558:2605  interfaceId == type(IAccessControl).interfaceId */\n      not(0xffffffffffffffffffffffffffffffffffffffffffffffffffffffff)\n      and\n        /* \"dependencies/openzeppelin/contracts/AccessControl.sol\":2558:2569  interfaceId */\n      dup3\n        /* \"dependencies/openzeppelin/contracts/AccessControl.sol\":2558:2605  interfaceId == type(IAccessControl).interfaceId */\n      not(0xffffffffffffffffffffffffffffffffffffffffffffffffffffffff)\n      and\n      eq\n        /* \"dependencies/openzeppelin/contracts/AccessControl.sol\":2558:2645  interfaceId == type(IAccessControl).interfaceId || super.supportsInterface(interfaceId) */\n      dup1\n      tag_160\n      jumpi\n      pop\n        /* \"dependencies/openzeppelin/contracts/AccessControl.sol\":2609:2645  super.supportsInterface(interfaceId) */\n      tag_161\n        /* \"dependencies/openzeppelin/contracts/AccessControl.sol\":2633:2644  interfaceId */\n      dup3\n        /* \"dependencies/openzeppelin/contracts/AccessControl.sol\":2609:2632  super.supportsInterface */\n      tag_162\n        /* \"dependencies/openzeppelin/contracts/AccessControl.sol\":2609:2645  super.supportsInterface(interfaceId) */\n      jump\t// in\n    tag_161:\n        /* \"dependencies/openzeppelin/contracts/AccessControl.sol\":2558:2645  interfaceId == type(IAccessControl).interfaceId || super.supportsInterface(interfaceId) */\n    tag_160:\n        /* \"dependencies/openzeppelin/contracts/AccessControl.sol\":2551:2645  return interfaceId == type(IAccessControl).interfaceId || super.supportsInterface(interfaceId) */\n      swap1\n      pop\n        /* \"dependencies/openzeppelin/contracts/AccessControl.sol\":2454:2650  function supportsInterface(bytes4 interfaceId) public view virtual override returns (bool) {... */\n      swap2\n      swap1\n      pop\n      jump\t// out\n        /* \"protocol/configuration/ACLManager.sol\":3661:3759  function removeBridge(address bridge) external override {... */\n    tag_52:\n        /* \"protocol/configuration/ACLManager.sol\":3723:3754  revokeRole(BRIDGE_ROLE, bridge) */\n      tag_164\n        /* \"protocol/configuration/ACLManager.sol\":919:938  keccak256('BRIDGE') */\n      0x08fb31c3e81624356c3314088aa971b73bcc82d22bc3e3b184b4593077ae3278\n        /* \"protocol/configuration/ACLManager.sol\":3747:3753  bridge */\n      dup3\n        /* \"protocol/configuration/ACLManager.sol\":3723:3733  revokeRole */\n      tag_151\n        /* \"protocol/configuration/ACLManager.sol\":3723:3754  revokeRole(BRIDGE_ROLE, bridge) */\n      jump\t// in\n    tag_164:\n        /* \"protocol/configuration/ACLManager.sol\":3661:3759  function removeBridge(address bridge) external override {... */\n      pop\n      jump\t// out\n        /* \"protocol/configuration/ACLManager.sol\":1039:1097  IPoolAddressesProvider public immutable ADDRESSES_PROVIDER */\n    tag_54:\n      immutable(\"0x63f1589d04b1acca2eee17c7e4fcd27604d0b1130abe91a01e0f895b7d990172\")\n      dup2\n      jump\t// out\n        /* \"protocol/configuration/ACLManager.sol\":4249:4389  function isAssetListingAdmin(address admin) external view override returns (bool) {... */\n    tag_59:\n        /* \"protocol/configuration/ACLManager.sol\":4325:4329  bool */\n      0x00\n        /* \"protocol/configuration/ACLManager.sol\":4344:4384  hasRole(ASSET_LISTING_ADMIN_ROLE, admin) */\n      tag_166\n        /* \"protocol/configuration/ACLManager.sol\":1002:1034  keccak256('ASSET_LISTING_ADMIN') */\n      0x19c860a63258efbd0ecb7d55c626237bf5c2044c26c073390b74f0c13c857433\n        /* \"protocol/configuration/ACLManager.sol\":4378:4383  admin */\n      dup4\n        /* \"protocol/configuration/ACLManager.sol\":4344:4351  hasRole */\n      tag_126\n        /* \"protocol/configuration/ACLManager.sol\":4344:4384  hasRole(ASSET_LISTING_ADMIN_ROLE, admin) */\n      jump\t// in\n    tag_166:\n        /* \"protocol/configuration/ACLManager.sol\":4337:4384  return hasRole(ASSET_LISTING_ADMIN_ROLE, admin) */\n      swap1\n      pop\n        /* \"protocol/configuration/ACLManager.sol\":4249:4389  function isAssetListingAdmin(address admin) external view override returns (bool) {... */\n      swap2\n      swap1\n      pop\n      jump\t// out\n        /* \"protocol/configuration/ACLManager.sol\":2180:2289  function addEmergencyAdmin(address admin) external override {... */\n    tag_63:\n        /* \"protocol/configuration/ACLManager.sol\":2246:2284  grantRole(EMERGENCY_ADMIN_ROLE, admin) */\n      tag_168\n        /* \"protocol/configuration/ACLManager.sol\":676:704  keccak256('EMERGENCY_ADMIN') */\n      0x5c91514091af31f62f596a314af7d5be40146b2f2355969392f055e12e0982fb\n        /* \"protocol/configuration/ACLManager.sol\":2278:2283  admin */\n      dup3\n        /* \"protocol/configuration/ACLManager.sol\":2246:2255  grantRole */\n      tag_87\n        /* \"protocol/configuration/ACLManager.sol\":2246:2284  grantRole(EMERGENCY_ADMIN_ROLE, admin) */\n      jump\t// in\n    tag_168:\n        /* \"protocol/configuration/ACLManager.sol\":2180:2289  function addEmergencyAdmin(address admin) external override {... */\n      pop\n      jump\t// out\n        /* \"protocol/configuration/ACLManager.sol\":1562:1719  function setRoleAdmin(bytes32 role, bytes32 adminRole)... */\n    tag_67:\n        /* \"dependencies/openzeppelin/contracts/AccessControl.sol\":1946:1950  0x00 */\n      0x00\n        /* \"protocol/configuration/ACLManager.sol\":1656:1674  DEFAULT_ADMIN_ROLE */\n      dup1\n      shl\n        /* \"dependencies/openzeppelin/contracts/AccessControl.sol\":2353:2383  _checkRole(role, _msgSender()) */\n      tag_170\n        /* \"dependencies/openzeppelin/contracts/AccessControl.sol\":2364:2368  role */\n      dup2\n        /* \"dependencies/openzeppelin/contracts/AccessControl.sol\":2370:2382  _msgSender() */\n      tag_171\n        /* \"dependencies/openzeppelin/contracts/AccessControl.sol\":2370:2380  _msgSender */\n      tag_172\n        /* \"dependencies/openzeppelin/contracts/AccessControl.sol\":2370:2382  _msgSender() */\n      jump\t// in\n    tag_171:\n        /* \"dependencies/openzeppelin/contracts/AccessControl.sol\":2353:2363  _checkRole */\n      tag_173\n        /* \"dependencies/openzeppelin/contracts/AccessControl.sol\":2353:2383  _checkRole(role, _msgSender()) */\n      jump\t// in\n    tag_170:\n        /* \"protocol/configuration/ACLManager.sol\":1684:1714  _setRoleAdmin(role, adminRole) */\n      tag_175\n        /* \"protocol/configuration/ACLManager.sol\":1698:1702  role */\n      dup4\n        /* \"protocol/configuration/ACLManager.sol\":1704:1713  adminRole */\n      dup4\n        /* \"protocol/configuration/ACLManager.sol\":1684:1697  _setRoleAdmin */\n      tag_176\n        /* \"protocol/configuration/ACLManager.sol\":1684:1714  _setRoleAdmin(role, adminRole) */\n      jump\t// in\n    tag_175:\n        /* \"protocol/configuration/ACLManager.sol\":1562:1719  function setRoleAdmin(bytes32 role, bytes32 adminRole)... */\n      pop\n      pop\n      pop\n      jump\t// out\n        /* \"protocol/configuration/ACLManager.sol\":1753:1852  function addPoolAdmin(address admin) external override {... */\n    tag_70:\n        /* \"protocol/configuration/ACLManager.sol\":1814:1847  grantRole(POOL_ADMIN_ROLE, admin) */\n      tag_178\n        /* \"protocol/configuration/ACLManager.sol\":593:616  keccak256('POOL_ADMIN') */\n      0x12ad05bde78c5ab75238ce885307f96ecd482bb402ef831f99e7018a0f169b7b\n        /* \"protocol/configuration/ACLManager.sol\":1841:1846  admin */\n      dup3\n        /* \"protocol/configuration/ACLManager.sol\":1814:1823  grantRole */\n      tag_87\n        /* \"protocol/configuration/ACLManager.sol\":1814:1847  grantRole(POOL_ADMIN_ROLE, admin) */\n      jump\t// in\n    tag_178:\n        /* \"protocol/configuration/ACLManager.sol\":1753:1852  function addPoolAdmin(address admin) external override {... */\n      pop\n      jump\t// out\n        /* \"dependencies/openzeppelin/contracts/AccessControl.sol\":3670:3785  function getRoleAdmin(bytes32 role) public view override returns (bytes32) {... */\n    tag_74:\n        /* \"dependencies/openzeppelin/contracts/AccessControl.sol\":3736:3743  bytes32 */\n      0x00\n        /* \"dependencies/openzeppelin/contracts/AccessControl.sol\":3758:3764  _roles */\n      dup1\n        /* \"dependencies/openzeppelin/contracts/AccessControl.sol\":3758:3770  _roles[role] */\n      0x00\n        /* \"dependencies/openzeppelin/contracts/AccessControl.sol\":3765:3769  role */\n      dup4\n        /* \"dependencies/openzeppelin/contracts/AccessControl.sol\":3758:3770  _roles[role] */\n      dup2\n      mstore\n      0x20\n      add\n      swap1\n      dup2\n      mstore\n      0x20\n      add\n      0x00\n      keccak256\n        /* \"dependencies/openzeppelin/contracts/AccessControl.sol\":3758:3780  _roles[role].adminRole */\n      0x01\n      add\n      sload\n        /* \"dependencies/openzeppelin/contracts/AccessControl.sol\":3751:3780  return _roles[role].adminRole */\n      swap1\n      pop\n        /* \"dependencies/openzeppelin/contracts/AccessControl.sol\":3670:3785  function getRoleAdmin(bytes32 role) public view override returns (bytes32) {... */\n      swap2\n      swap1\n      pop\n      jump\t// out\n        /* \"protocol/configuration/ACLManager.sol\":2470:2603  function isEmergencyAdmin(address admin) external view override returns (bool) {... */\n    tag_79:\n        /* \"protocol/configuration/ACLManager.sol\":2543:2547  bool */\n      0x00\n        /* \"protocol/configuration/ACLManager.sol\":2562:2598  hasRole(EMERGENCY_ADMIN_ROLE, admin) */\n      tag_181\n        /* \"protocol/configuration/ACLManager.sol\":676:704  keccak256('EMERGENCY_ADMIN') */\n      0x5c91514091af31f62f596a314af7d5be40146b2f2355969392f055e12e0982fb\n        /* \"protocol/configuration/ACLManager.sol\":2592:2597  admin */\n      dup4\n        /* \"protocol/configuration/ACLManager.sol\":2562:2569  hasRole */\n      tag_126\n        /* \"protocol/configuration/ACLManager.sol\":2562:2598  hasRole(EMERGENCY_ADMIN_ROLE, admin) */\n      jump\t// in\n    tag_181:\n        /* \"protocol/configuration/ACLManager.sol\":2555:2598  return hasRole(EMERGENCY_ADMIN_ROLE, admin) */\n      swap1\n      pop\n        /* \"protocol/configuration/ACLManager.sol\":2470:2603  function isEmergencyAdmin(address admin) external view override returns (bool) {... */\n      swap2\n      swap1\n      pop\n      jump\t// out\n        /* \"protocol/configuration/ACLManager.sol\":3211:3328  function removeFlashBorrower(address borrower) external override {... */\n    tag_83:\n        /* \"protocol/configuration/ACLManager.sol\":3282:3323  revokeRole(FLASH_BORROWER_ROLE, borrower) */\n      tag_183\n        /* \"protocol/configuration/ACLManager.sol\":841:868  keccak256('FLASH_BORROWER') */\n      0x939b8dfb57ecef2aea54a93a15e86768b9d4089f1ba61c245e6ec980695f4ca4\n        /* \"protocol/configuration/ACLManager.sol\":3314:3322  borrower */\n      dup3\n        /* \"protocol/configuration/ACLManager.sol\":3282:3292  revokeRole */\n      tag_151\n        /* \"protocol/configuration/ACLManager.sol\":3282:3323  revokeRole(FLASH_BORROWER_ROLE, borrower) */\n      jump\t// in\n    tag_183:\n        /* \"protocol/configuration/ACLManager.sol\":3211:3328  function removeFlashBorrower(address borrower) external override {... */\n      pop\n      jump\t// out\n        /* \"dependencies/openzeppelin/contracts/AccessControl.sol\":4013:4170  function grantRole(bytes32 role, address account)... */\n    tag_87:\n        /* \"dependencies/openzeppelin/contracts/AccessControl.sol\":4112:4130  getRoleAdmin(role) */\n      tag_184\n        /* \"dependencies/openzeppelin/contracts/AccessControl.sol\":4125:4129  role */\n      dup3\n        /* \"dependencies/openzeppelin/contracts/AccessControl.sol\":4112:4124  getRoleAdmin */\n      tag_74\n        /* \"dependencies/openzeppelin/contracts/AccessControl.sol\":4112:4130  getRoleAdmin(role) */\n      jump\t// in\n    tag_184:\n        /* \"dependencies/openzeppelin/contracts/AccessControl.sol\":2353:2383  _checkRole(role, _msgSender()) */\n      tag_186\n        /* \"dependencies/openzeppelin/contracts/AccessControl.sol\":2364:2368  role */\n      dup2\n        /* \"dependencies/openzeppelin/contracts/AccessControl.sol\":2370:2382  _msgSender() */\n      tag_187\n        /* \"dependencies/openzeppelin/contracts/AccessControl.sol\":2370:2380  _msgSender */\n      tag_172\n        /* \"dependencies/openzeppelin/contracts/AccessControl.sol\":2370:2382  _msgSender() */\n      jump\t// in\n    tag_187:\n        /* \"dependencies/openzeppelin/contracts/AccessControl.sol\":2353:2363  _checkRole */\n      tag_173\n        /* \"dependencies/openzeppelin/contracts/AccessControl.sol\":2353:2383  _checkRole(role, _msgSender()) */\n      jump\t// in\n    tag_186:\n        /* \"dependencies/openzeppelin/contracts/AccessControl.sol\":4140:4165  _grantRole(role, account) */\n      tag_189\n        /* \"dependencies/openzeppelin/contracts/AccessControl.sol\":4151:4155  role */\n      dup4\n        /* \"dependencies/openzeppelin/contracts/AccessControl.sol\":4157:4164  account */\n      dup4\n        /* \"dependencies/openzeppelin/contracts/AccessControl.sol\":4140:4150  _grantRole */\n      tag_190\n        /* \"dependencies/openzeppelin/contracts/AccessControl.sol\":4140:4165  _grantRole(role, account) */\n      jump\t// in\n    tag_189:\n        /* \"dependencies/openzeppelin/contracts/AccessControl.sol\":4013:4170  function grantRole(bytes32 role, address account)... */\n      pop\n      pop\n      pop\n      jump\t// out\n        /* \"dependencies/openzeppelin/contracts/AccessControl.sol\":5004:5208  function renounceRole(bytes32 role, address account) public virtual override {... */\n    tag_90:\n        /* \"dependencies/openzeppelin/contracts/AccessControl.sol\":5106:5118  _msgSender() */\n      tag_192\n        /* \"dependencies/openzeppelin/contracts/AccessControl.sol\":5106:5116  _msgSender */\n      tag_172\n        /* \"dependencies/openzeppelin/contracts/AccessControl.sol\":5106:5118  _msgSender() */\n      jump\t// in\n    tag_192:\n        /* \"dependencies/openzeppelin/contracts/AccessControl.sol\":5095:5118  account == _msgSender() */\n      0xffffffffffffffffffffffffffffffffffffffff\n      and\n        /* \"dependencies/openzeppelin/contracts/AccessControl.sol\":5095:5102  account */\n      dup2\n        /* \"dependencies/openzeppelin/contracts/AccessControl.sol\":5095:5118  account == _msgSender() */\n      0xffffffffffffffffffffffffffffffffffffffff\n      and\n      eq\n        /* \"dependencies/openzeppelin/contracts/AccessControl.sol\":5087:5170  require(account == _msgSender(), 'AccessControl: can only renounce roles for self') */\n      tag_193\n      jumpi\n      mload(0x40)\n      0x08c379a000000000000000000000000000000000000000000000000000000000\n      dup2\n      mstore\n      0x04\n      add\n      tag_194\n      swap1\n      tag_195\n      jump\t// in\n    tag_194:\n      mload(0x40)\n      dup1\n      swap2\n      sub\n      swap1\n      revert\n    tag_193:\n        /* \"dependencies/openzeppelin/contracts/AccessControl.sol\":5177:5203  _revokeRole(role, account) */\n      tag_196\n        /* \"dependencies/openzeppelin/contracts/AccessControl.sol\":5189:5193  role */\n      dup3\n        /* \"dependencies/openzeppelin/contracts/AccessControl.sol\":5195:5202  account */\n      dup3\n        /* \"dependencies/openzeppelin/contracts/AccessControl.sol\":5177:5188  _revokeRole */\n      tag_197\n        /* \"dependencies/openzeppelin/contracts/AccessControl.sol\":5177:5203  _revokeRole(role, account) */\n      jump\t// in\n    tag_196:\n        /* \"dependencies/openzeppelin/contracts/AccessControl.sol\":5004:5208  function renounceRole(bytes32 role, address account) public virtual override {... */\n      pop\n      pop\n      jump\t// out\n        /* \"protocol/configuration/ACLManager.sol\":2770:2873  function removeRiskAdmin(address admin) external override {... */\n    tag_93:\n        /* \"protocol/configuration/ACLManager.sol\":2834:2868  revokeRole(RISK_ADMIN_ROLE, admin) */\n      tag_199\n        /* \"protocol/configuration/ACLManager.sol\":759:782  keccak256('RISK_ADMIN') */\n      0x8aa855a911518ecfbe5bc3088c8f3dda7badf130faaf8ace33fdc33828e18167\n        /* \"protocol/configuration/ACLManager.sol\":2862:2867  admin */\n      dup3\n        /* \"protocol/configuration/ACLManager.sol\":2834:2844  revokeRole */\n      tag_151\n        /* \"protocol/configuration/ACLManager.sol\":2834:2868  revokeRole(RISK_ADMIN_ROLE, admin) */\n      jump\t// in\n    tag_199:\n        /* \"protocol/configuration/ACLManager.sol\":2770:2873  function removeRiskAdmin(address admin) external override {... */\n      pop\n      jump\t// out\n        /* \"protocol/configuration/ACLManager.sol\":708:782  bytes32 public constant override RISK_ADMIN_ROLE = keccak256('RISK_ADMIN') */\n    tag_95:\n        /* \"protocol/configuration/ACLManager.sol\":759:782  keccak256('RISK_ADMIN') */\n      0x8aa855a911518ecfbe5bc3088c8f3dda7badf130faaf8ace33fdc33828e18167\n        /* \"protocol/configuration/ACLManager.sol\":708:782  bytes32 public constant override RISK_ADMIN_ROLE = keccak256('RISK_ADMIN') */\n      dup2\n      jump\t// out\n        /* \"protocol/configuration/ACLManager.sol\":786:868  bytes32 public constant override FLASH_BORROWER_ROLE = keccak256('FLASH_BORROWER') */\n    tag_98:\n        /* \"protocol/configuration/ACLManager.sol\":841:868  keccak256('FLASH_BORROWER') */\n      0x939b8dfb57ecef2aea54a93a15e86768b9d4089f1ba61c245e6ec980695f4ca4\n        /* \"protocol/configuration/ACLManager.sol\":786:868  bytes32 public constant override FLASH_BORROWER_ROLE = keccak256('FLASH_BORROWER') */\n      dup2\n      jump\t// out\n        /* \"protocol/configuration/ACLManager.sol\":2637:2736  function addRiskAdmin(address admin) external override {... */\n    tag_102:\n        /* \"protocol/configuration/ACLManager.sol\":2698:2731  grantRole(RISK_ADMIN_ROLE, admin) */\n      tag_201\n        /* \"protocol/configuration/ACLManager.sol\":759:782  keccak256('RISK_ADMIN') */\n      0x8aa855a911518ecfbe5bc3088c8f3dda7badf130faaf8ace33fdc33828e18167\n        /* \"protocol/configuration/ACLManager.sol\":2725:2730  admin */\n      dup3\n        /* \"protocol/configuration/ACLManager.sol\":2698:2707  grantRole */\n      tag_87\n        /* \"protocol/configuration/ACLManager.sol\":2698:2731  grantRole(RISK_ADMIN_ROLE, admin) */\n      jump\t// in\n    tag_201:\n        /* \"protocol/configuration/ACLManager.sol\":2637:2736  function addRiskAdmin(address admin) external override {... */\n      pop\n      jump\t// out\n        /* \"protocol/configuration/ACLManager.sol\":2907:3030  function isRiskAdmin(address admin) external view override returns (bool) {... */\n    tag_105:\n        /* \"protocol/configuration/ACLManager.sol\":2975:2979  bool */\n      0x00\n        /* \"protocol/configuration/ACLManager.sol\":2994:3025  hasRole(RISK_ADMIN_ROLE, admin) */\n      tag_203\n        /* \"protocol/configuration/ACLManager.sol\":759:782  keccak256('RISK_ADMIN') */\n      0x8aa855a911518ecfbe5bc3088c8f3dda7badf130faaf8ace33fdc33828e18167\n        /* \"protocol/configuration/ACLManager.sol\":3019:3024  admin */\n      dup4\n        /* \"protocol/configuration/ACLManager.sol\":2994:3001  hasRole */\n      tag_126\n        /* \"protocol/configuration/ACLManager.sol\":2994:3025  hasRole(RISK_ADMIN_ROLE, admin) */\n      jump\t// in\n    tag_203:\n        /* \"protocol/configuration/ACLManager.sol\":2987:3025  return hasRole(RISK_ADMIN_ROLE, admin) */\n      swap1\n      pop\n        /* \"protocol/configuration/ACLManager.sol\":2907:3030  function isRiskAdmin(address admin) external view override returns (bool) {... */\n      swap2\n      swap1\n      pop\n      jump\t// out\n        /* \"protocol/configuration/ACLManager.sol\":620:704  bytes32 public constant override EMERGENCY_ADMIN_ROLE = keccak256('EMERGENCY_ADMIN') */\n    tag_108:\n        /* \"protocol/configuration/ACLManager.sol\":676:704  keccak256('EMERGENCY_ADMIN') */\n      0x5c91514091af31f62f596a314af7d5be40146b2f2355969392f055e12e0982fb\n        /* \"protocol/configuration/ACLManager.sol\":620:704  bytes32 public constant override EMERGENCY_ADMIN_ROLE = keccak256('EMERGENCY_ADMIN') */\n      dup2\n      jump\t// out\n        /* \"protocol/configuration/ACLManager.sol\":3793:3911  function isBridge(address bridge) external view override returns (bool) {... */\n    tag_112:\n        /* \"protocol/configuration/ACLManager.sol\":3859:3863  bool */\n      0x00\n        /* \"protocol/configuration/ACLManager.sol\":3878:3906  hasRole(BRIDGE_ROLE, bridge) */\n      tag_205\n        /* \"protocol/configuration/ACLManager.sol\":919:938  keccak256('BRIDGE') */\n      0x08fb31c3e81624356c3314088aa971b73bcc82d22bc3e3b184b4593077ae3278\n        /* \"protocol/configuration/ACLManager.sol\":3899:3905  bridge */\n      dup4\n        /* \"protocol/configuration/ACLManager.sol\":3878:3885  hasRole */\n      tag_126\n        /* \"protocol/configuration/ACLManager.sol\":3878:3906  hasRole(BRIDGE_ROLE, bridge) */\n      jump\t// in\n    tag_205:\n        /* \"protocol/configuration/ACLManager.sol\":3871:3906  return hasRole(BRIDGE_ROLE, bridge) */\n      swap1\n      pop\n        /* \"protocol/configuration/ACLManager.sol\":3793:3911  function isBridge(address bridge) external view override returns (bool) {... */\n      swap2\n      swap1\n      pop\n      jump\t// out\n        /* \"protocol/configuration/ACLManager.sol\":942:1034  bytes32 public constant override ASSET_LISTING_ADMIN_ROLE = keccak256('ASSET_LISTING_ADMIN') */\n    tag_115:\n        /* \"protocol/configuration/ACLManager.sol\":1002:1034  keccak256('ASSET_LISTING_ADMIN') */\n      0x19c860a63258efbd0ecb7d55c626237bf5c2044c26c073390b74f0c13c857433\n        /* \"protocol/configuration/ACLManager.sol\":942:1034  bytes32 public constant override ASSET_LISTING_ADMIN_ROLE = keccak256('ASSET_LISTING_ADMIN') */\n      dup2\n      jump\t// out\n        /* \"protocol/configuration/ACLManager.sol\":2323:2436  function removeEmergencyAdmin(address admin) external override {... */\n    tag_119:\n        /* \"protocol/configuration/ACLManager.sol\":2392:2431  revokeRole(EMERGENCY_ADMIN_ROLE, admin) */\n      tag_207\n        /* \"protocol/configuration/ACLManager.sol\":676:704  keccak256('EMERGENCY_ADMIN') */\n      0x5c91514091af31f62f596a314af7d5be40146b2f2355969392f055e12e0982fb\n        /* \"protocol/configuration/ACLManager.sol\":2425:2430  admin */\n      dup3\n        /* \"protocol/configuration/ACLManager.sol\":2392:2402  revokeRole */\n      tag_151\n        /* \"protocol/configuration/ACLManager.sol\":2392:2431  revokeRole(EMERGENCY_ADMIN_ROLE, admin) */\n      jump\t// in\n    tag_207:\n        /* \"protocol/configuration/ACLManager.sol\":2323:2436  function removeEmergencyAdmin(address admin) external override {... */\n      pop\n      jump\t// out\n        /* \"protocol/configuration/ACLManager.sol\":2023:2146  function isPoolAdmin(address admin) external view override returns (bool) {... */\n    tag_122:\n        /* \"protocol/configuration/ACLManager.sol\":2091:2095  bool */\n      0x00\n        /* \"protocol/configuration/ACLManager.sol\":2110:2141  hasRole(POOL_ADMIN_ROLE, admin) */\n      tag_209\n        /* \"protocol/configuration/ACLManager.sol\":593:616  keccak256('POOL_ADMIN') */\n      0x12ad05bde78c5ab75238ce885307f96ecd482bb402ef831f99e7018a0f169b7b\n        /* \"protocol/configuration/ACLManager.sol\":2135:2140  admin */\n      dup4\n        /* \"protocol/configuration/ACLManager.sol\":2110:2117  hasRole */\n      tag_126\n        /* \"protocol/configuration/ACLManager.sol\":2110:2141  hasRole(POOL_ADMIN_ROLE, admin) */\n      jump\t// in\n    tag_209:\n        /* \"protocol/configuration/ACLManager.sol\":2103:2141  return hasRole(POOL_ADMIN_ROLE, admin) */\n      swap1\n      pop\n        /* \"protocol/configuration/ACLManager.sol\":2023:2146  function isPoolAdmin(address admin) external view override returns (bool) {... */\n      swap2\n      swap1\n      pop\n      jump\t// out\n        /* \"dependencies/openzeppelin/contracts/AccessControl.sol\":2729:2860  function hasRole(bytes32 role, address account) public view override returns (bool) {... */\n    tag_126:\n        /* \"dependencies/openzeppelin/contracts/AccessControl.sol\":2807:2811  bool */\n      0x00\n        /* \"dependencies/openzeppelin/contracts/AccessControl.sol\":2826:2832  _roles */\n      dup1\n        /* \"dependencies/openzeppelin/contracts/AccessControl.sol\":2826:2838  _roles[role] */\n      0x00\n        /* \"dependencies/openzeppelin/contracts/AccessControl.sol\":2833:2837  role */\n      dup5\n        /* \"dependencies/openzeppelin/contracts/AccessControl.sol\":2826:2838  _roles[role] */\n      dup2\n      mstore\n      0x20\n      add\n      swap1\n      dup2\n      mstore\n      0x20\n      add\n      0x00\n      keccak256\n        /* \"dependencies/openzeppelin/contracts/AccessControl.sol\":2826:2846  _roles[role].members */\n      0x00\n      add\n        /* \"dependencies/openzeppelin/contracts/AccessControl.sol\":2826:2855  _roles[role].members[account] */\n      0x00\n        /* \"dependencies/openzeppelin/contracts/AccessControl.sol\":2847:2854  account */\n      dup4\n        /* \"dependencies/openzeppelin/contracts/AccessControl.sol\":2826:2855  _roles[role].members[account] */\n      0xffffffffffffffffffffffffffffffffffffffff\n      and\n      0xffffffffffffffffffffffffffffffffffffffff\n      and\n      dup2\n      mstore\n      0x20\n      add\n      swap1\n      dup2\n      mstore\n      0x20\n      add\n      0x00\n      keccak256\n      0x00\n      swap1\n      sload\n      swap1\n      0x0100\n      exp\n      swap1\n      div\n      0xff\n      and\n        /* \"dependencies/openzeppelin/contracts/AccessControl.sol\":2819:2855  return _roles[role].members[account] */\n      swap1\n      pop\n        /* \"dependencies/openzeppelin/contracts/AccessControl.sol\":2729:2860  function hasRole(bytes32 role, address account) public view override returns (bool) {... */\n      swap3\n      swap2\n      pop\n      pop\n      jump\t// out\n        /* \"protocol/configuration/ACLManager.sol\":3533:3627  function addBridge(address bridge) external override {... */\n    tag_130:\n        /* \"protocol/configuration/ACLManager.sol\":3592:3622  grantRole(BRIDGE_ROLE, bridge) */\n      tag_212\n        /* \"protocol/configuration/ACLManager.sol\":919:938  keccak256('BRIDGE') */\n      0x08fb31c3e81624356c3314088aa971b73bcc82d22bc3e3b184b4593077ae3278\n        /* \"protocol/configuration/ACLManager.sol\":3615:3621  bridge */\n      dup3\n        /* \"protocol/configuration/ACLManager.sol\":3592:3601  grantRole */\n      tag_87\n        /* \"protocol/configuration/ACLManager.sol\":3592:3622  grantRole(BRIDGE_ROLE, bridge) */\n      jump\t// in\n    tag_212:\n        /* \"protocol/configuration/ACLManager.sol\":3533:3627  function addBridge(address bridge) external override {... */\n      pop\n      jump\t// out\n        /* \"protocol/configuration/ACLManager.sol\":3945:4061  function addAssetListingAdmin(address admin) external override {... */\n    tag_133:\n        /* \"protocol/configuration/ACLManager.sol\":4014:4056  grantRole(ASSET_LISTING_ADMIN_ROLE, admin) */\n      tag_214\n        /* \"protocol/configuration/ACLManager.sol\":1002:1034  keccak256('ASSET_LISTING_ADMIN') */\n      0x19c860a63258efbd0ecb7d55c626237bf5c2044c26c073390b74f0c13c857433\n        /* \"protocol/configuration/ACLManager.sol\":4050:4055  admin */\n      dup3\n        /* \"protocol/configuration/ACLManager.sol\":4014:4023  grantRole */\n      tag_87\n        /* \"protocol/configuration/ACLManager.sol\":4014:4056  grantRole(ASSET_LISTING_ADMIN_ROLE, admin) */\n      jump\t// in\n    tag_214:\n        /* \"protocol/configuration/ACLManager.sol\":3945:4061  function addAssetListingAdmin(address admin) external override {... */\n      pop\n      jump\t// out\n        /* \"protocol/configuration/ACLManager.sol\":3064:3177  function addFlashBorrower(address borrower) external override {... */\n    tag_136:\n        /* \"protocol/configuration/ACLManager.sol\":3132:3172  grantRole(FLASH_BORROWER_ROLE, borrower) */\n      tag_216\n        /* \"protocol/configuration/ACLManager.sol\":841:868  keccak256('FLASH_BORROWER') */\n      0x939b8dfb57ecef2aea54a93a15e86768b9d4089f1ba61c245e6ec980695f4ca4\n        /* \"protocol/configuration/ACLManager.sol\":3163:3171  borrower */\n      dup3\n        /* \"protocol/configuration/ACLManager.sol\":3132:3141  grantRole */\n      tag_87\n        /* \"protocol/configuration/ACLManager.sol\":3132:3172  grantRole(FLASH_BORROWER_ROLE, borrower) */\n      jump\t// in\n    tag_216:\n        /* \"protocol/configuration/ACLManager.sol\":3064:3177  function addFlashBorrower(address borrower) external override {... */\n      pop\n      jump\t// out\n        /* \"dependencies/openzeppelin/contracts/AccessControl.sol\":1901:1950  bytes32 public constant DEFAULT_ADMIN_ROLE = 0x00 */\n    tag_138:\n        /* \"dependencies/openzeppelin/contracts/AccessControl.sol\":1946:1950  0x00 */\n      0x00\n        /* \"dependencies/openzeppelin/contracts/AccessControl.sol\":1901:1950  bytes32 public constant DEFAULT_ADMIN_ROLE = 0x00 */\n      dup1\n      shl\n      dup2\n      jump\t// out\n        /* \"protocol/configuration/ACLManager.sol\":4095:4215  function removeAssetListingAdmin(address admin) external override {... */\n    tag_142:\n        /* \"protocol/configuration/ACLManager.sol\":4167:4210  revokeRole(ASSET_LISTING_ADMIN_ROLE, admin) */\n      tag_218\n        /* \"protocol/configuration/ACLManager.sol\":1002:1034  keccak256('ASSET_LISTING_ADMIN') */\n      0x19c860a63258efbd0ecb7d55c626237bf5c2044c26c073390b74f0c13c857433\n        /* \"protocol/configuration/ACLManager.sol\":4204:4209  admin */\n      dup3\n        /* \"protocol/configuration/ACLManager.sol\":4167:4177  revokeRole */\n      tag_151\n        /* \"protocol/configuration/ACLManager.sol\":4167:4210  revokeRole(ASSET_LISTING_ADMIN_ROLE, admin) */\n      jump\t// in\n    tag_218:\n        /* \"protocol/configuration/ACLManager.sol\":4095:4215  function removeAssetListingAdmin(address admin) external override {... */\n      pop\n      jump\t// out\n        /* \"protocol/configuration/ACLManager.sol\":872:938  bytes32 public constant override BRIDGE_ROLE = keccak256('BRIDGE') */\n    tag_144:\n        /* \"protocol/configuration/ACLManager.sol\":919:938  keccak256('BRIDGE') */\n      0x08fb31c3e81624356c3314088aa971b73bcc82d22bc3e3b184b4593077ae3278\n        /* \"protocol/configuration/ACLManager.sol\":872:938  bytes32 public constant override BRIDGE_ROLE = keccak256('BRIDGE') */\n      dup2\n      jump\t// out\n        /* \"protocol/configuration/ACLManager.sol\":542:616  bytes32 public constant override POOL_ADMIN_ROLE = keccak256('POOL_ADMIN') */\n    tag_147:\n        /* \"protocol/configuration/ACLManager.sol\":593:616  keccak256('POOL_ADMIN') */\n      0x12ad05bde78c5ab75238ce885307f96ecd482bb402ef831f99e7018a0f169b7b\n        /* \"protocol/configuration/ACLManager.sol\":542:616  bytes32 public constant override POOL_ADMIN_ROLE = keccak256('POOL_ADMIN') */\n      dup2\n      jump\t// out\n        /* \"dependencies/openzeppelin/contracts/AccessControl.sol\":4384:4543  function revokeRole(bytes32 role, address account)... */\n    tag_151:\n        /* \"dependencies/openzeppelin/contracts/AccessControl.sol\":4484:4502  getRoleAdmin(role) */\n      tag_219\n        /* \"dependencies/openzeppelin/contracts/AccessControl.sol\":4497:4501  role */\n      dup3\n        /* \"dependencies/openzeppelin/contracts/AccessControl.sol\":4484:4496  getRoleAdmin */\n      tag_74\n        /* \"dependencies/openzeppelin/contracts/AccessControl.sol\":4484:4502  getRoleAdmin(role) */\n      jump\t// in\n    tag_219:\n        /* \"dependencies/openzeppelin/contracts/AccessControl.sol\":2353:2383  _checkRole(role, _msgSender()) */\n      tag_221\n        /* \"dependencies/openzeppelin/contracts/AccessControl.sol\":2364:2368  role */\n      dup2\n        /* \"dependencies/openzeppelin/contracts/AccessControl.sol\":2370:2382  _msgSender() */\n      tag_222\n        /* \"dependencies/openzeppelin/contracts/AccessControl.sol\":2370:2380  _msgSender */\n      tag_172\n        /* \"dependencies/openzeppelin/contracts/AccessControl.sol\":2370:2382  _msgSender() */\n      jump\t// in\n    tag_222:\n        /* \"dependencies/openzeppelin/contracts/AccessControl.sol\":2353:2363  _checkRole */\n      tag_173\n        /* \"dependencies/openzeppelin/contracts/AccessControl.sol\":2353:2383  _checkRole(role, _msgSender()) */\n      jump\t// in\n    tag_221:\n        /* \"dependencies/openzeppelin/contracts/AccessControl.sol\":4512:4538  _revokeRole(role, account) */\n      tag_224\n        /* \"dependencies/openzeppelin/contracts/AccessControl.sol\":4524:4528  role */\n      dup4\n        /* \"dependencies/openzeppelin/contracts/AccessControl.sol\":4530:4537  account */\n      dup4\n        /* \"dependencies/openzeppelin/contracts/AccessControl.sol\":4512:4523  _revokeRole */\n      tag_197\n        /* \"dependencies/openzeppelin/contracts/AccessControl.sol\":4512:4538  _revokeRole(role, account) */\n      jump\t// in\n    tag_224:\n        /* \"dependencies/openzeppelin/contracts/AccessControl.sol\":4384:4543  function revokeRole(bytes32 role, address account)... */\n      pop\n      pop\n      pop\n      jump\t// out\n        /* \"protocol/configuration/ACLManager.sol\":1886:1989  function removePoolAdmin(address admin) external override {... */\n    tag_154:\n        /* \"protocol/configuration/ACLManager.sol\":1950:1984  revokeRole(POOL_ADMIN_ROLE, admin) */\n      tag_226\n        /* \"protocol/configuration/ACLManager.sol\":593:616  keccak256('POOL_ADMIN') */\n      0x12ad05bde78c5ab75238ce885307f96ecd482bb402ef831f99e7018a0f169b7b\n        /* \"protocol/configuration/ACLManager.sol\":1978:1983  admin */\n      dup3\n        /* \"protocol/configuration/ACLManager.sol\":1950:1960  revokeRole */\n      tag_151\n        /* \"protocol/configuration/ACLManager.sol\":1950:1984  revokeRole(POOL_ADMIN_ROLE, admin) */\n      jump\t// in\n    tag_226:\n        /* \"protocol/configuration/ACLManager.sol\":1886:1989  function removePoolAdmin(address admin) external override {... */\n      pop\n      jump\t// out\n        /* \"protocol/configuration/ACLManager.sol\":3362:3499  function isFlashBorrower(address borrower) external view override returns (bool) {... */\n    tag_157:\n        /* \"protocol/configuration/ACLManager.sol\":3437:3441  bool */\n      0x00\n        /* \"protocol/configuration/ACLManager.sol\":3456:3494  hasRole(FLASH_BORROWER_ROLE, borrower) */\n      tag_228\n        /* \"protocol/configuration/ACLManager.sol\":841:868  keccak256('FLASH_BORROWER') */\n      0x939b8dfb57ecef2aea54a93a15e86768b9d4089f1ba61c245e6ec980695f4ca4\n        /* \"protocol/configuration/ACLManager.sol\":3485:3493  borrower */\n      dup4\n        /* \"protocol/configuration/ACLManager.sol\":3456:3463  hasRole */\n      tag_126\n        /* \"protocol/configuration/ACLManager.sol\":3456:3494  hasRole(FLASH_BORROWER_ROLE, borrower) */\n      jump\t// in\n    tag_228:\n        /* \"protocol/configuration/ACLManager.sol\":3449:3494  return hasRole(FLASH_BORROWER_ROLE, borrower) */\n      swap1\n      pop\n        /* \"protocol/configuration/ACLManager.sol\":3362:3499  function isFlashBorrower(address borrower) external view override returns (bool) {... */\n      swap2\n      swap1\n      pop\n      jump\t// out\n        /* \"dependencies/openzeppelin/contracts/ERC165.sol\":755:904  function supportsInterface(bytes4 interfaceId) public view virtual override returns (bool) {... */\n    tag_162:\n        /* \"dependencies/openzeppelin/contracts/ERC165.sol\":840:844  bool */\n      0x00\n        /* \"dependencies/openzeppelin/contracts/ERC165.sol\":874:899  type(IERC165).interfaceId */\n      0x01ffc9a700000000000000000000000000000000000000000000000000000000\n        /* \"dependencies/openzeppelin/contracts/ERC165.sol\":859:899  interfaceId == type(IERC165).interfaceId */\n      not(0xffffffffffffffffffffffffffffffffffffffffffffffffffffffff)\n      and\n        /* \"dependencies/openzeppelin/contracts/ERC165.sol\":859:870  interfaceId */\n      dup3\n        /* \"dependencies/openzeppelin/contracts/ERC165.sol\":859:899  interfaceId == type(IERC165).interfaceId */\n      not(0xffffffffffffffffffffffffffffffffffffffffffffffffffffffff)\n      and\n      eq\n        /* \"dependencies/openzeppelin/contracts/ERC165.sol\":852:899  return interfaceId == type(IERC165).interfaceId */\n      swap1\n      pop\n        /* \"dependencies/openzeppelin/contracts/ERC165.sol\":755:904  function supportsInterface(bytes4 interfaceId) public view virtual override returns (bool) {... */\n      swap2\n      swap1\n      pop\n      jump\t// out\n        /* \"dependencies/openzeppelin/contracts/Context.sol\":587:694  function _msgSender() internal view virtual returns (address payable) {... */\n    tag_172:\n        /* \"dependencies/openzeppelin/contracts/Context.sol\":640:655  address payable */\n      0x00\n        /* \"dependencies/openzeppelin/contracts/Context.sol\":678:688  msg.sender */\n      caller\n        /* \"dependencies/openzeppelin/contracts/Context.sol\":663:689  return payable(msg.sender) */\n      swap1\n      pop\n        /* \"dependencies/openzeppelin/contracts/Context.sol\":587:694  function _msgSender() internal view virtual returns (address payable) {... */\n      swap1\n      jump\t// out\n        /* \"dependencies/openzeppelin/contracts/AccessControl.sol\":3125:3503  function _checkRole(bytes32 role, address account) internal view {... */\n    tag_173:\n        /* \"dependencies/openzeppelin/contracts/AccessControl.sol\":3201:3223  hasRole(role, account) */\n      tag_232\n        /* \"dependencies/openzeppelin/contracts/AccessControl.sol\":3209:3213  role */\n      dup3\n        /* \"dependencies/openzeppelin/contracts/AccessControl.sol\":3215:3222  account */\n      dup3\n        /* \"dependencies/openzeppelin/contracts/AccessControl.sol\":3201:3208  hasRole */\n      tag_126\n        /* \"dependencies/openzeppelin/contracts/AccessControl.sol\":3201:3223  hasRole(role, account) */\n      jump\t// in\n    tag_232:\n        /* \"dependencies/openzeppelin/contracts/AccessControl.sol\":3196:3499  if (!hasRole(role, account)) {... */\n      tag_233\n      jumpi\n        /* \"dependencies/openzeppelin/contracts/AccessControl.sol\":3336:3377  Strings.toHexString(uint160(account), 20) */\n      tag_234\n        /* \"dependencies/openzeppelin/contracts/AccessControl.sol\":3364:3371  account */\n      dup2\n        /* \"dependencies/openzeppelin/contracts/AccessControl.sol\":3336:3377  Strings.toHexString(uint160(account), 20) */\n      0xffffffffffffffffffffffffffffffffffffffff\n      and\n        /* \"dependencies/openzeppelin/contracts/AccessControl.sol\":3374:3376  20 */\n      0x14\n        /* \"dependencies/openzeppelin/contracts/AccessControl.sol\":3336:3355  Strings.toHexString */\n      tag_235\n        /* \"dependencies/openzeppelin/contracts/AccessControl.sol\":3336:3377  Strings.toHexString(uint160(account), 20) */\n      jump\t// in\n    tag_234:\n        /* \"dependencies/openzeppelin/contracts/AccessControl.sol\":3424:3462  Strings.toHexString(uint256(role), 32) */\n      tag_236\n        /* \"dependencies/openzeppelin/contracts/AccessControl.sol\":3452:3456  role */\n      dup4\n        /* \"dependencies/openzeppelin/contracts/AccessControl.sol\":3444:3457  uint256(role) */\n      0x00\n      shr\n        /* \"dependencies/openzeppelin/contracts/AccessControl.sol\":3459:3461  32 */\n      0x20\n        /* \"dependencies/openzeppelin/contracts/AccessControl.sol\":3424:3443  Strings.toHexString */\n      tag_235\n        /* \"dependencies/openzeppelin/contracts/AccessControl.sol\":3424:3462  Strings.toHexString(uint256(role), 32) */\n      jump\t// in\n    tag_236:\n        /* \"dependencies/openzeppelin/contracts/AccessControl.sol\":3267:3474  abi.encodePacked(... */\n      add(0x20, mload(0x40))\n      tag_237\n      swap3\n      swap2\n      swap1\n      tag_238\n      jump\t// in\n    tag_237:\n      mload(0x40)\n      0x20\n      dup2\n      dup4\n      sub\n      sub\n      dup2\n      mstore\n      swap1\n      0x40\n      mstore\n        /* \"dependencies/openzeppelin/contracts/AccessControl.sol\":3233:3492  revert(... */\n      mload(0x40)\n      0x08c379a000000000000000000000000000000000000000000000000000000000\n      dup2\n      mstore\n      0x04\n      add\n      tag_239\n      swap2\n      swap1\n      tag_240\n      jump\t// in\n    tag_239:\n      mload(0x40)\n      dup1\n      swap2\n      sub\n      swap1\n      revert\n        /* \"dependencies/openzeppelin/contracts/AccessControl.sol\":3196:3499  if (!hasRole(role, account)) {... */\n    tag_233:\n        /* \"dependencies/openzeppelin/contracts/AccessControl.sol\":3125:3503  function _checkRole(bytes32 role, address account) internal view {... */\n      pop\n      pop\n      jump\t// out\n        /* \"dependencies/openzeppelin/contracts/AccessControl.sol\":5956:6189  function _setRoleAdmin(bytes32 role, bytes32 adminRole) internal virtual {... */\n    tag_176:\n        /* \"dependencies/openzeppelin/contracts/AccessControl.sol\":6035:6060  bytes32 previousAdminRole */\n      0x00\n        /* \"dependencies/openzeppelin/contracts/AccessControl.sol\":6063:6081  getRoleAdmin(role) */\n      tag_242\n        /* \"dependencies/openzeppelin/contracts/AccessControl.sol\":6076:6080  role */\n      dup4\n        /* \"dependencies/openzeppelin/contracts/AccessControl.sol\":6063:6075  getRoleAdmin */\n      tag_74\n        /* \"dependencies/openzeppelin/contracts/AccessControl.sol\":6063:6081  getRoleAdmin(role) */\n      jump\t// in\n    tag_242:\n        /* \"dependencies/openzeppelin/contracts/AccessControl.sol\":6035:6081  bytes32 previousAdminRole = getRoleAdmin(role) */\n      swap1\n      pop\n        /* \"dependencies/openzeppelin/contracts/AccessControl.sol\":6112:6121  adminRole */\n      dup2\n        /* \"dependencies/openzeppelin/contracts/AccessControl.sol\":6087:6093  _roles */\n      0x00\n        /* \"dependencies/openzeppelin/contracts/AccessControl.sol\":6087:6099  _roles[role] */\n      dup1\n        /* \"dependencies/openzeppelin/contracts/AccessControl.sol\":6094:6098  role */\n      dup6\n        /* \"dependencies/openzeppelin/contracts/AccessControl.sol\":6087:6099  _roles[role] */\n      dup2\n      mstore\n      0x20\n      add\n      swap1\n      dup2\n      mstore\n      0x20\n      add\n      0x00\n      keccak256\n        /* \"dependencies/openzeppelin/contracts/AccessControl.sol\":6087:6109  _roles[role].adminRole */\n      0x01\n      add\n        /* \"dependencies/openzeppelin/contracts/AccessControl.sol\":6087:6121  _roles[role].adminRole = adminRole */\n      dup2\n      swap1\n      sstore\n      pop\n        /* \"dependencies/openzeppelin/contracts/AccessControl.sol\":6174:6183  adminRole */\n      dup2\n        /* \"dependencies/openzeppelin/contracts/AccessControl.sol\":6155:6172  previousAdminRole */\n      dup2\n        /* \"dependencies/openzeppelin/contracts/AccessControl.sol\":6149:6153  role */\n      dup5\n        /* \"dependencies/openzeppelin/contracts/AccessControl.sol\":6132:6184  RoleAdminChanged(role, previousAdminRole, adminRole) */\n      0xbd79b86ffe0ab8e8776151514217cd7cacd52c909f66475c3af44e129f0b00ff\n      mload(0x40)\n      mload(0x40)\n      dup1\n      swap2\n      sub\n      swap1\n      log4\n        /* \"dependencies/openzeppelin/contracts/AccessControl.sol\":6029:6189  {... */\n      pop\n        /* \"dependencies/openzeppelin/contracts/AccessControl.sol\":5956:6189  function _setRoleAdmin(bytes32 role, bytes32 adminRole) internal virtual {... */\n      pop\n      pop\n      jump\t// out\n        /* \"dependencies/openzeppelin/contracts/AccessControl.sol\":6193:6395  function _grantRole(bytes32 role, address account) private {... */\n    tag_190:\n        /* \"dependencies/openzeppelin/contracts/AccessControl.sol\":6263:6285  hasRole(role, account) */\n      tag_244\n        /* \"dependencies/openzeppelin/contracts/AccessControl.sol\":6271:6275  role */\n      dup3\n        /* \"dependencies/openzeppelin/contracts/AccessControl.sol\":6277:6284  account */\n      dup3\n        /* \"dependencies/openzeppelin/contracts/AccessControl.sol\":6263:6270  hasRole */\n      tag_126\n        /* \"dependencies/openzeppelin/contracts/AccessControl.sol\":6263:6285  hasRole(role, account) */\n      jump\t// in\n    tag_244:\n        /* \"dependencies/openzeppelin/contracts/AccessControl.sol\":6258:6391  if (!hasRole(role, account)) {... */\n      tag_245\n      jumpi\n        /* \"dependencies/openzeppelin/contracts/AccessControl.sol\":6327:6331  true */\n      0x01\n        /* \"dependencies/openzeppelin/contracts/AccessControl.sol\":6295:6301  _roles */\n      0x00\n        /* \"dependencies/openzeppelin/contracts/AccessControl.sol\":6295:6307  _roles[role] */\n      dup1\n        /* \"dependencies/openzeppelin/contracts/AccessControl.sol\":6302:6306  role */\n      dup5\n        /* \"dependencies/openzeppelin/contracts/AccessControl.sol\":6295:6307  _roles[role] */\n      dup2\n      mstore\n      0x20\n      add\n      swap1\n      dup2\n      mstore\n      0x20\n      add\n      0x00\n      keccak256\n        /* \"dependencies/openzeppelin/contracts/AccessControl.sol\":6295:6315  _roles[role].members */\n      0x00\n      add\n        /* \"dependencies/openzeppelin/contracts/AccessControl.sol\":6295:6324  _roles[role].members[account] */\n      0x00\n        /* \"dependencies/openzeppelin/contracts/AccessControl.sol\":6316:6323  account */\n      dup4\n        /* \"dependencies/openzeppelin/contracts/AccessControl.sol\":6295:6324  _roles[role].members[account] */\n      0xffffffffffffffffffffffffffffffffffffffff\n      and\n      0xffffffffffffffffffffffffffffffffffffffff\n      and\n      dup2\n      mstore\n      0x20\n      add\n      swap1\n      dup2\n      mstore\n      0x20\n      add\n      0x00\n      keccak256\n      0x00\n        /* \"dependencies/openzeppelin/contracts/AccessControl.sol\":6295:6331  _roles[role].members[account] = true */\n      0x0100\n      exp\n      dup2\n      sload\n      dup2\n      0xff\n      mul\n      not\n      and\n      swap1\n      dup4\n      iszero\n      iszero\n      mul\n      or\n      swap1\n      sstore\n      pop\n        /* \"dependencies/openzeppelin/contracts/AccessControl.sol\":6371:6383  _msgSender() */\n      tag_246\n        /* \"dependencies/openzeppelin/contracts/AccessControl.sol\":6371:6381  _msgSender */\n      tag_172\n        /* \"dependencies/openzeppelin/contracts/AccessControl.sol\":6371:6383  _msgSender() */\n      jump\t// in\n    tag_246:\n        /* \"dependencies/openzeppelin/contracts/AccessControl.sol\":6344:6384  RoleGranted(role, account, _msgSender()) */\n      0xffffffffffffffffffffffffffffffffffffffff\n      and\n        /* \"dependencies/openzeppelin/contracts/AccessControl.sol\":6362:6369  account */\n      dup2\n        /* \"dependencies/openzeppelin/contracts/AccessControl.sol\":6344:6384  RoleGranted(role, account, _msgSender()) */\n      0xffffffffffffffffffffffffffffffffffffffff\n      and\n        /* \"dependencies/openzeppelin/contracts/AccessControl.sol\":6356:6360  role */\n      dup4\n        /* \"dependencies/openzeppelin/contracts/AccessControl.sol\":6344:6384  RoleGranted(role, account, _msgSender()) */\n      0x2f8788117e7eff1d82e926ec794901d17c78024a50270940304540a733656f0d\n      mload(0x40)\n      mload(0x40)\n      dup1\n      swap2\n      sub\n      swap1\n      log4\n        /* \"dependencies/openzeppelin/contracts/AccessControl.sol\":6258:6391  if (!hasRole(role, account)) {... */\n    tag_245:\n        /* \"dependencies/openzeppelin/contracts/AccessControl.sol\":6193:6395  function _grantRole(bytes32 role, address account) private {... */\n      pop\n      pop\n      jump\t// out\n        /* \"dependencies/openzeppelin/contracts/AccessControl.sol\":6399:6602  function _revokeRole(bytes32 role, address account) private {... */\n    tag_197:\n        /* \"dependencies/openzeppelin/contracts/AccessControl.sol\":6469:6491  hasRole(role, account) */\n      tag_248\n        /* \"dependencies/openzeppelin/contracts/AccessControl.sol\":6477:6481  role */\n      dup3\n        /* \"dependencies/openzeppelin/contracts/AccessControl.sol\":6483:6490  account */\n      dup3\n        /* \"dependencies/openzeppelin/contracts/AccessControl.sol\":6469:6476  hasRole */\n      tag_126\n        /* \"dependencies/openzeppelin/contracts/AccessControl.sol\":6469:6491  hasRole(role, account) */\n      jump\t// in\n    tag_248:\n        /* \"dependencies/openzeppelin/contracts/AccessControl.sol\":6465:6598  if (hasRole(role, account)) {... */\n      iszero\n      tag_249\n      jumpi\n        /* \"dependencies/openzeppelin/contracts/AccessControl.sol\":6533:6538  false */\n      0x00\n        /* \"dependencies/openzeppelin/contracts/AccessControl.sol\":6501:6507  _roles */\n      dup1\n        /* \"dependencies/openzeppelin/contracts/AccessControl.sol\":6501:6513  _roles[role] */\n      0x00\n        /* \"dependencies/openzeppelin/contracts/AccessControl.sol\":6508:6512  role */\n      dup5\n        /* \"dependencies/openzeppelin/contracts/AccessControl.sol\":6501:6513  _roles[role] */\n      dup2\n      mstore\n      0x20\n      add\n      swap1\n      dup2\n      mstore\n      0x20\n      add\n      0x00\n      keccak256\n        /* \"dependencies/openzeppelin/contracts/AccessControl.sol\":6501:6521  _roles[role].members */\n      0x00\n      add\n        /* \"dependencies/openzeppelin/contracts/AccessControl.sol\":6501:6530  _roles[role].members[account] */\n      0x00\n        /* \"dependencies/openzeppelin/contracts/AccessControl.sol\":6522:6529  account */\n      dup4\n        /* \"dependencies/openzeppelin/contracts/AccessControl.sol\":6501:6530  _roles[role].members[account] */\n      0xffffffffffffffffffffffffffffffffffffffff\n      and\n      0xffffffffffffffffffffffffffffffffffffffff\n      and\n      dup2\n      mstore\n      0x20\n      add\n      swap1\n      dup2\n      mstore\n      0x20\n      add\n      0x00\n      keccak256\n      0x00\n        /* \"dependencies/openzeppelin/contracts/AccessControl.sol\":6501:6538  _roles[role].members[account] = false */\n      0x0100\n      exp\n      dup2\n      sload\n      dup2\n      0xff\n      mul\n      not\n      and\n      swap1\n      dup4\n      iszero\n      iszero\n      mul\n      or\n      swap1\n      sstore\n      pop\n        /* \"dependencies/openzeppelin/contracts/AccessControl.sol\":6578:6590  _msgSender() */\n      tag_250\n        /* \"dependencies/openzeppelin/contracts/AccessControl.sol\":6578:6588  _msgSender */\n      tag_172\n        /* \"dependencies/openzeppelin/contracts/AccessControl.sol\":6578:6590  _msgSender() */\n      jump\t// in\n    tag_250:\n        /* \"dependencies/openzeppelin/contracts/AccessControl.sol\":6551:6591  RoleRevoked(role, account, _msgSender()) */\n      0xffffffffffffffffffffffffffffffffffffffff\n      and\n        /* \"dependencies/openzeppelin/contracts/AccessControl.sol\":6569:6576  account */\n      dup2\n        /* \"dependencies/openzeppelin/contracts/AccessControl.sol\":6551:6591  RoleRevoked(role, account, _msgSender()) */\n      0xffffffffffffffffffffffffffffffffffffffff\n      and\n        /* \"dependencies/openzeppelin/contracts/AccessControl.sol\":6563:6567  role */\n      dup4\n        /* \"dependencies/openzeppelin/contracts/AccessControl.sol\":6551:6591  RoleRevoked(role, account, _msgSender()) */\n      0xf6391f5c32d9c69d2a47ea670b442974b53935d1edc7fd64eb21e047a839171b\n      mload(0x40)\n      mload(0x40)\n      dup1\n      swap2\n      sub\n      swap1\n      log4\n        /* \"dependencies/openzeppelin/contracts/AccessControl.sol\":6465:6598  if (hasRole(role, account)) {... */\n    tag_249:\n        /* \"dependencies/openzeppelin/contracts/AccessControl.sol\":6399:6602  function _revokeRole(bytes32 role, address account) private {... */\n      pop\n      pop\n      jump\t// out\n        /* \"dependencies/openzeppelin/contracts/Strings.sol\":1375:1774  function toHexString(uint256 value, uint256 length) internal pure returns (string memory) {... */\n    tag_235:\n        /* \"dependencies/openzeppelin/contracts/Strings.sol\":1450:1463  string memory */\n      0x60\n        /* \"dependencies/openzeppelin/contracts/Strings.sol\":1471:1490  bytes memory buffer */\n      0x00\n        /* \"dependencies/openzeppelin/contracts/Strings.sol\":1516:1517  2 */\n      0x02\n        /* \"dependencies/openzeppelin/contracts/Strings.sol\":1507:1513  length */\n      dup4\n        /* \"dependencies/openzeppelin/contracts/Strings.sol\":1503:1504  2 */\n      0x02\n        /* \"dependencies/openzeppelin/contracts/Strings.sol\":1503:1513  2 * length */\n      tag_252\n      swap2\n      swap1\n      tag_253\n      jump\t// in\n    tag_252:\n        /* \"dependencies/openzeppelin/contracts/Strings.sol\":1503:1517  2 * length + 2 */\n      tag_254\n      swap2\n      swap1\n      tag_255\n      jump\t// in\n    tag_254:\n        /* \"dependencies/openzeppelin/contracts/Strings.sol\":1493:1518  new bytes(2 * length + 2) */\n      0xffffffffffffffff\n      dup2\n      gt\n      iszero\n      tag_256\n      jumpi\n      tag_257\n      tag_258\n      jump\t// in\n    tag_257:\n    tag_256:\n      mload(0x40)\n      swap1\n      dup1\n      dup3\n      mstore\n      dup1\n      0x1f\n      add\n      not(0x1f)\n      and\n      0x20\n      add\n      dup3\n      add\n      0x40\n      mstore\n      dup1\n      iszero\n      tag_259\n      jumpi\n      dup2\n      0x20\n      add\n      0x01\n      dup3\n      mul\n      dup1\n      calldatasize\n      dup4\n      calldatacopy\n      dup1\n      dup3\n      add\n      swap2\n      pop\n      pop\n      swap1\n      pop\n    tag_259:\n      pop\n        /* \"dependencies/openzeppelin/contracts/Strings.sol\":1471:1518  bytes memory buffer = new bytes(2 * length + 2) */\n      swap1\n      pop\n        /* \"dependencies/openzeppelin/contracts/Strings.sol\":1524:1539  buffer[0] = '0' */\n      0x3000000000000000000000000000000000000000000000000000000000000000\n        /* \"dependencies/openzeppelin/contracts/Strings.sol\":1524:1530  buffer */\n      dup2\n        /* \"dependencies/openzeppelin/contracts/Strings.sol\":1531:1532  0 */\n      0x00\n        /* \"dependencies/openzeppelin/contracts/Strings.sol\":1524:1533  buffer[0] */\n      dup2\n      mload\n      dup2\n      lt\n      tag_260\n      jumpi\n      tag_261\n      tag_262\n      jump\t// in\n    tag_261:\n    tag_260:\n      0x20\n      add\n      add\n        /* \"dependencies/openzeppelin/contracts/Strings.sol\":1524:1539  buffer[0] = '0' */\n      swap1\n      not(0xffffffffffffffffffffffffffffffffffffffffffffffffffffffffffffff)\n      and\n      swap1\n      dup2\n      0x00\n      byte\n      swap1\n      mstore8\n      pop\n        /* \"dependencies/openzeppelin/contracts/Strings.sol\":1545:1560  buffer[1] = 'x' */\n      0x7800000000000000000000000000000000000000000000000000000000000000\n        /* \"dependencies/openzeppelin/contracts/Strings.sol\":1545:1551  buffer */\n      dup2\n        /* \"dependencies/openzeppelin/contracts/Strings.sol\":1552:1553  1 */\n      0x01\n        /* \"dependencies/openzeppelin/contracts/Strings.sol\":1545:1554  buffer[1] */\n      dup2\n      mload\n      dup2\n      lt\n      tag_263\n      jumpi\n      tag_264\n      tag_262\n      jump\t// in\n    tag_264:\n    tag_263:\n      0x20\n      add\n      add\n        /* \"dependencies/openzeppelin/contracts/Strings.sol\":1545:1560  buffer[1] = 'x' */\n      swap1\n      not(0xffffffffffffffffffffffffffffffffffffffffffffffffffffffffffffff)\n      and\n      swap1\n      dup2\n      0x00\n      byte\n      swap1\n      mstore8\n      pop\n        /* \"dependencies/openzeppelin/contracts/Strings.sol\":1571:1580  uint256 i */\n      0x00\n        /* \"dependencies/openzeppelin/contracts/Strings.sol\":1596:1597  1 */\n      0x01\n        /* \"dependencies/openzeppelin/contracts/Strings.sol\":1587:1593  length */\n      dup5\n        /* \"dependencies/openzeppelin/contracts/Strings.sol\":1583:1584  2 */\n      0x02\n        /* \"dependencies/openzeppelin/contracts/Strings.sol\":1583:1593  2 * length */\n      tag_268\n      swap2\n      swap1\n      tag_253\n      jump\t// in\n    tag_268:\n        /* \"dependencies/openzeppelin/contracts/Strings.sol\":1583:1597  2 * length + 1 */\n      tag_269\n      swap2\n      swap1\n      tag_255\n      jump\t// in\n    tag_269:\n        /* \"dependencies/openzeppelin/contracts/Strings.sol\":1571:1597  uint256 i = 2 * length + 1 */\n      swap1\n      pop\n        /* \"dependencies/openzeppelin/contracts/Strings.sol\":1566:1682  for (uint256 i = 2 * length + 1; i > 1; --i) {... */\n    tag_265:\n        /* \"dependencies/openzeppelin/contracts/Strings.sol\":1603:1604  1 */\n      0x01\n        /* \"dependencies/openzeppelin/contracts/Strings.sol\":1599:1600  i */\n      dup2\n        /* \"dependencies/openzeppelin/contracts/Strings.sol\":1599:1604  i > 1 */\n      gt\n        /* \"dependencies/openzeppelin/contracts/Strings.sol\":1566:1682  for (uint256 i = 2 * length + 1; i > 1; --i) {... */\n      iszero\n      tag_266\n      jumpi\n        /* \"dependencies/openzeppelin/contracts/Strings.sol\":1631:1643  _HEX_SYMBOLS */\n      0x3031323334353637383961626364656600000000000000000000000000000000\n        /* \"dependencies/openzeppelin/contracts/Strings.sol\":1652:1655  0xf */\n      0x0f\n        /* \"dependencies/openzeppelin/contracts/Strings.sol\":1644:1649  value */\n      dup7\n        /* \"dependencies/openzeppelin/contracts/Strings.sol\":1644:1655  value & 0xf */\n      and\n        /* \"dependencies/openzeppelin/contracts/Strings.sol\":1631:1656  _HEX_SYMBOLS[value & 0xf] */\n      0x10\n      dup2\n      lt\n      tag_270\n      jumpi\n      tag_271\n      tag_262\n      jump\t// in\n    tag_271:\n    tag_270:\n      byte\n      0xf8\n      shl\n        /* \"dependencies/openzeppelin/contracts/Strings.sol\":1619:1625  buffer */\n      dup3\n        /* \"dependencies/openzeppelin/contracts/Strings.sol\":1626:1627  i */\n      dup3\n        /* \"dependencies/openzeppelin/contracts/Strings.sol\":1619:1628  buffer[i] */\n      dup2\n      mload\n      dup2\n      lt\n      tag_272\n      jumpi\n      tag_273\n      tag_262\n      jump\t// in\n    tag_273:\n    tag_272:\n      0x20\n      add\n      add\n        /* \"dependencies/openzeppelin/contracts/Strings.sol\":1619:1656  buffer[i] = _HEX_SYMBOLS[value & 0xf] */\n      swap1\n      not(0xffffffffffffffffffffffffffffffffffffffffffffffffffffffffffffff)\n      and\n      swap1\n      dup2\n      0x00\n      byte\n      swap1\n      mstore8\n      pop\n        /* \"dependencies/openzeppelin/contracts/Strings.sol\":1674:1675  4 */\n      0x04\n        /* \"dependencies/openzeppelin/contracts/Strings.sol\":1664:1675  value >>= 4 */\n      dup6\n      swap1\n      shr\n      swap5\n      pop\n        /* \"dependencies/openzeppelin/contracts/Strings.sol\":1606:1609  --i */\n      dup1\n      tag_274\n      swap1\n      tag_275\n      jump\t// in\n    tag_274:\n      swap1\n      pop\n        /* \"dependencies/openzeppelin/contracts/Strings.sol\":1566:1682  for (uint256 i = 2 * length + 1; i > 1; --i) {... */\n      jump(tag_265)\n    tag_266:\n      pop\n        /* \"dependencies/openzeppelin/contracts/Strings.sol\":1704:1705  0 */\n      0x00\n        /* \"dependencies/openzeppelin/contracts/Strings.sol\":1695:1700  value */\n      dup5\n        /* \"dependencies/openzeppelin/contracts/Strings.sol\":1695:1705  value == 0 */\n      eq\n        /* \"dependencies/openzeppelin/contracts/Strings.sol\":1687:1742  require(value == 0, 'Strings: hex length insufficient') */\n      tag_276\n      jumpi\n      mload(0x40)\n      0x08c379a000000000000000000000000000000000000000000000000000000000\n      dup2\n      mstore\n      0x04\n      add\n      tag_277\n      swap1\n      tag_278\n      jump\t// in\n    tag_277:\n      mload(0x40)\n      dup1\n      swap2\n      sub\n      swap1\n      revert\n    tag_276:\n        /* \"dependencies/openzeppelin/contracts/Strings.sol\":1762:1768  buffer */\n      dup1\n        /* \"dependencies/openzeppelin/contracts/Strings.sol\":1748:1769  return string(buffer) */\n      swap2\n      pop\n      pop\n        /* \"dependencies/openzeppelin/contracts/Strings.sol\":1375:1774  function toHexString(uint256 value, uint256 length) internal pure returns (string memory) {... */\n      swap3\n      swap2\n      pop\n      pop\n      jump\t// out\n        /* \"#utility.yul\":88:205   */\n    tag_280:\n        /* \"#utility.yul\":197:198   */\n      0x00\n        /* \"#utility.yul\":194:195   */\n      dup1\n        /* \"#utility.yul\":187:199   */\n      revert\n        /* \"#utility.yul\":334:483   */\n    tag_282:\n        /* \"#utility.yul\":370:377   */\n      0x00\n        /* \"#utility.yul\":410:476   */\n      0xffffffff00000000000000000000000000000000000000000000000000000000\n        /* \"#utility.yul\":403:408   */\n      dup3\n        /* \"#utility.yul\":399:477   */\n      and\n        /* \"#utility.yul\":388:477   */\n      swap1\n      pop\n        /* \"#utility.yul\":334:483   */\n      swap2\n      swap1\n      pop\n      jump\t// out\n        /* \"#utility.yul\":489:609   */\n    tag_283:\n        /* \"#utility.yul\":561:584   */\n      tag_323\n        /* \"#utility.yul\":578:583   */\n      dup2\n        /* \"#utility.yul\":561:584   */\n      tag_282\n      jump\t// in\n    tag_323:\n        /* \"#utility.yul\":554:559   */\n      dup2\n        /* \"#utility.yul\":551:585   */\n      eq\n        /* \"#utility.yul\":541:603   */\n      tag_324\n      jumpi\n        /* \"#utility.yul\":599:600   */\n      0x00\n        /* \"#utility.yul\":596:597   */\n      dup1\n        /* \"#utility.yul\":589:601   */\n      revert\n        /* \"#utility.yul\":541:603   */\n    tag_324:\n        /* \"#utility.yul\":489:609   */\n      pop\n      jump\t// out\n        /* \"#utility.yul\":615:752   */\n    tag_284:\n        /* \"#utility.yul\":660:665   */\n      0x00\n        /* \"#utility.yul\":698:704   */\n      dup2\n        /* \"#utility.yul\":685:705   */\n      calldataload\n        /* \"#utility.yul\":676:705   */\n      swap1\n      pop\n        /* \"#utility.yul\":714:746   */\n      tag_326\n        /* \"#utility.yul\":740:745   */\n      dup2\n        /* \"#utility.yul\":714:746   */\n      tag_283\n      jump\t// in\n    tag_326:\n        /* \"#utility.yul\":615:752   */\n      swap3\n      swap2\n      pop\n      pop\n      jump\t// out\n        /* \"#utility.yul\":758:1085   */\n    tag_45:\n        /* \"#utility.yul\":816:822   */\n      0x00\n        /* \"#utility.yul\":865:867   */\n      0x20\n        /* \"#utility.yul\":853:862   */\n      dup3\n        /* \"#utility.yul\":844:851   */\n      dup5\n        /* \"#utility.yul\":840:863   */\n      sub\n        /* \"#utility.yul\":836:868   */\n      slt\n        /* \"#utility.yul\":833:952   */\n      iszero\n      tag_328\n      jumpi\n        /* \"#utility.yul\":871:950   */\n      tag_329\n      tag_280\n      jump\t// in\n    tag_329:\n        /* \"#utility.yul\":833:952   */\n    tag_328:\n        /* \"#utility.yul\":991:992   */\n      0x00\n        /* \"#utility.yul\":1016:1068   */\n      tag_330\n        /* \"#utility.yul\":1060:1067   */\n      dup5\n        /* \"#utility.yul\":1051:1057   */\n      dup3\n        /* \"#utility.yul\":1040:1049   */\n      dup6\n        /* \"#utility.yul\":1036:1058   */\n      add\n        /* \"#utility.yul\":1016:1068   */\n      tag_284\n      jump\t// in\n    tag_330:\n        /* \"#utility.yul\":1006:1068   */\n      swap2\n      pop\n        /* \"#utility.yul\":962:1078   */\n      pop\n        /* \"#utility.yul\":758:1085   */\n      swap3\n      swap2\n      pop\n      pop\n      jump\t// out\n        /* \"#utility.yul\":1091:1181   */\n    tag_285:\n        /* \"#utility.yul\":1125:1132   */\n      0x00\n        /* \"#utility.yul\":1168:1173   */\n      dup2\n        /* \"#utility.yul\":1161:1174   */\n      iszero\n        /* \"#utility.yul\":1154:1175   */\n      iszero\n        /* \"#utility.yul\":1143:1175   */\n      swap1\n      pop\n        /* \"#utility.yul\":1091:1181   */\n      swap2\n      swap1\n      pop\n      jump\t// out\n        /* \"#utility.yul\":1187:1296   */\n    tag_286:\n        /* \"#utility.yul\":1268:1289   */\n      tag_333\n        /* \"#utility.yul\":1283:1288   */\n      dup2\n        /* \"#utility.yul\":1268:1289   */\n      tag_285\n      jump\t// in\n    tag_333:\n        /* \"#utility.yul\":1263:1266   */\n      dup3\n        /* \"#utility.yul\":1256:1290   */\n      mstore\n        /* \"#utility.yul\":1187:1296   */\n      pop\n      pop\n      jump\t// out\n        /* \"#utility.yul\":1302:1512   */\n    tag_48:\n        /* \"#utility.yul\":1389:1393   */\n      0x00\n        /* \"#utility.yul\":1427:1429   */\n      0x20\n        /* \"#utility.yul\":1416:1425   */\n      dup3\n        /* \"#utility.yul\":1412:1430   */\n      add\n        /* \"#utility.yul\":1404:1430   */\n      swap1\n      pop\n        /* \"#utility.yul\":1440:1505   */\n      tag_335\n        /* \"#utility.yul\":1502:1503   */\n      0x00\n        /* \"#utility.yul\":1491:1500   */\n      dup4\n        /* \"#utility.yul\":1487:1504   */\n      add\n        /* \"#utility.yul\":1478:1484   */\n      dup5\n        /* \"#utility.yul\":1440:1505   */\n      tag_286\n      jump\t// in\n    tag_335:\n        /* \"#utility.yul\":1302:1512   */\n      swap3\n      swap2\n      pop\n      pop\n      jump\t// out\n        /* \"#utility.yul\":1518:1644   */\n    tag_287:\n        /* \"#utility.yul\":1555:1562   */\n      0x00\n        /* \"#utility.yul\":1595:1637   */\n      0xffffffffffffffffffffffffffffffffffffffff\n        /* \"#utility.yul\":1588:1593   */\n      dup3\n        /* \"#utility.yul\":1584:1638   */\n      and\n        /* \"#utility.yul\":1573:1638   */\n      swap1\n      pop\n        /* \"#utility.yul\":1518:1644   */\n      swap2\n      swap1\n      pop\n      jump\t// out\n        /* \"#utility.yul\":1650:1746   */\n    tag_288:\n        /* \"#utility.yul\":1687:1694   */\n      0x00\n        /* \"#utility.yul\":1716:1740   */\n      tag_338\n        /* \"#utility.yul\":1734:1739   */\n      dup3\n        /* \"#utility.yul\":1716:1740   */\n      tag_287\n      jump\t// in\n    tag_338:\n        /* \"#utility.yul\":1705:1740   */\n      swap1\n      pop\n        /* \"#utility.yul\":1650:1746   */\n      swap2\n      swap1\n      pop\n      jump\t// out\n        /* \"#utility.yul\":1752:1874   */\n    tag_289:\n        /* \"#utility.yul\":1825:1849   */\n      tag_340\n        /* \"#utility.yul\":1843:1848   */\n      dup2\n        /* \"#utility.yul\":1825:1849   */\n      tag_288\n      jump\t// in\n    tag_340:\n        /* \"#utility.yul\":1818:1823   */\n      dup2\n        /* \"#utility.yul\":1815:1850   */\n      eq\n        /* \"#utility.yul\":1805:1868   */\n      tag_341\n      jumpi\n        /* \"#utility.yul\":1864:1865   */\n      0x00\n        /* \"#utility.yul\":1861:1862   */\n      dup1\n        /* \"#utility.yul\":1854:1866   */\n      revert\n        /* \"#utility.yul\":1805:1868   */\n    tag_341:\n        /* \"#utility.yul\":1752:1874   */\n      pop\n      jump\t// out\n        /* \"#utility.yul\":1880:2019   */\n    tag_290:\n        /* \"#utility.yul\":1926:1931   */\n      0x00\n        /* \"#utility.yul\":1964:1970   */\n      dup2\n        /* \"#utility.yul\":1951:1971   */\n      calldataload\n        /* \"#utility.yul\":1942:1971   */\n      swap1\n      pop\n        /* \"#utility.yul\":1980:2013   */\n      tag_343\n        /* \"#utility.yul\":2007:2012   */\n      dup2\n        /* \"#utility.yul\":1980:2013   */\n      tag_289\n      jump\t// in\n    tag_343:\n        /* \"#utility.yul\":1880:2019   */\n      swap3\n      swap2\n      pop\n      pop\n      jump\t// out\n        /* \"#utility.yul\":2025:2354   */\n    tag_51:\n        /* \"#utility.yul\":2084:2090   */\n      0x00\n        /* \"#utility.yul\":2133:2135   */\n      0x20\n        /* \"#utility.yul\":2121:2130   */\n      dup3\n        /* \"#utility.yul\":2112:2119   */\n      dup5\n        /* \"#utility.yul\":2108:2131   */\n      sub\n        /* \"#utility.yul\":2104:2136   */\n      slt\n        /* \"#utility.yul\":2101:2220   */\n      iszero\n      tag_345\n      jumpi\n        /* \"#utility.yul\":2139:2218   */\n      tag_346\n      tag_280\n      jump\t// in\n    tag_346:\n        /* \"#utility.yul\":2101:2220   */\n    tag_345:\n        /* \"#utility.yul\":2259:2260   */\n      0x00\n        /* \"#utility.yul\":2284:2337   */\n      tag_347\n        /* \"#utility.yul\":2329:2336   */\n      dup5\n        /* \"#utility.yul\":2320:2326   */\n      dup3\n        /* \"#utility.yul\":2309:2318   */\n      dup6\n        /* \"#utility.yul\":2305:2327   */\n      add\n        /* \"#utility.yul\":2284:2337   */\n      tag_290\n      jump\t// in\n    tag_347:\n        /* \"#utility.yul\":2274:2337   */\n      swap2\n      pop\n        /* \"#utility.yul\":2230:2347   */\n      pop\n        /* \"#utility.yul\":2025:2354   */\n      swap3\n      swap2\n      pop\n      pop\n      jump\t// out\n        /* \"#utility.yul\":2360:2420   */\n    tag_291:\n        /* \"#utility.yul\":2388:2391   */\n      0x00\n        /* \"#utility.yul\":2409:2414   */\n      dup2\n        /* \"#utility.yul\":2402:2414   */\n      swap1\n      pop\n        /* \"#utility.yul\":2360:2420   */\n      swap2\n      swap1\n      pop\n      jump\t// out\n        /* \"#utility.yul\":2426:2568   */\n    tag_292:\n        /* \"#utility.yul\":2476:2485   */\n      0x00\n        /* \"#utility.yul\":2509:2562   */\n      tag_350\n        /* \"#utility.yul\":2527:2561   */\n      tag_351\n        /* \"#utility.yul\":2536:2560   */\n      tag_352\n        /* \"#utility.yul\":2554:2559   */\n      dup5\n        /* \"#utility.yul\":2536:2560   */\n      tag_287\n      jump\t// in\n    tag_352:\n        /* \"#utility.yul\":2527:2561   */\n      tag_291\n      jump\t// in\n    tag_351:\n        /* \"#utility.yul\":2509:2562   */\n      tag_287\n      jump\t// in\n    tag_350:\n        /* \"#utility.yul\":2496:2562   */\n      swap1\n      pop\n        /* \"#utility.yul\":2426:2568   */\n      swap2\n      swap1\n      pop\n      jump\t// out\n        /* \"#utility.yul\":2574:2700   */\n    tag_293:\n        /* \"#utility.yul\":2624:2633   */\n      0x00\n        /* \"#utility.yul\":2657:2694   */\n      tag_354\n        /* \"#utility.yul\":2688:2693   */\n      dup3\n        /* \"#utility.yul\":2657:2694   */\n      tag_292\n      jump\t// in\n    tag_354:\n        /* \"#utility.yul\":2644:2694   */\n      swap1\n      pop\n        /* \"#utility.yul\":2574:2700   */\n      swap2\n      swap1\n      pop\n      jump\t// out\n        /* \"#utility.yul\":2706:2863   */\n    tag_294:\n        /* \"#utility.yul\":2787:2796   */\n      0x00\n        /* \"#utility.yul\":2820:2857   */\n      tag_356\n        /* \"#utility.yul\":2851:2856   */\n      dup3\n        /* \"#utility.yul\":2820:2857   */\n      tag_293\n      jump\t// in\n    tag_356:\n        /* \"#utility.yul\":2807:2857   */\n      swap1\n      pop\n        /* \"#utility.yul\":2706:2863   */\n      swap2\n      swap1\n      pop\n      jump\t// out\n        /* \"#utility.yul\":2869:3062   */\n    tag_295:\n        /* \"#utility.yul\":2987:3055   */\n      tag_358\n        /* \"#utility.yul\":3049:3054   */\n      dup2\n        /* \"#utility.yul\":2987:3055   */\n      tag_294\n      jump\t// in\n    tag_358:\n        /* \"#utility.yul\":2982:2985   */\n      dup3\n        /* \"#utility.yul\":2975:3056   */\n      mstore\n        /* \"#utility.yul\":2869:3062   */\n      pop\n      pop\n      jump\t// out\n        /* \"#utility.yul\":3068:3352   */\n    tag_56:\n        /* \"#utility.yul\":3192:3196   */\n      0x00\n        /* \"#utility.yul\":3230:3232   */\n      0x20\n        /* \"#utility.yul\":3219:3228   */\n      dup3\n        /* \"#utility.yul\":3215:3233   */\n      add\n        /* \"#utility.yul\":3207:3233   */\n      swap1\n      pop\n        /* \"#utility.yul\":3243:3345   */\n      tag_360\n        /* \"#utility.yul\":3342:3343   */\n      0x00\n        /* \"#utility.yul\":3331:3340   */\n      dup4\n        /* \"#utility.yul\":3327:3344   */\n      add\n        /* \"#utility.yul\":3318:3324   */\n      dup5\n        /* \"#utility.yul\":3243:3345   */\n      tag_295\n      jump\t// in\n    tag_360:\n        /* \"#utility.yul\":3068:3352   */\n      swap3\n      swap2\n      pop\n      pop\n      jump\t// out\n        /* \"#utility.yul\":3358:3435   */\n    tag_296:\n        /* \"#utility.yul\":3395:3402   */\n      0x00\n        /* \"#utility.yul\":3424:3429   */\n      dup2\n        /* \"#utility.yul\":3413:3429   */\n      swap1\n      pop\n        /* \"#utility.yul\":3358:3435   */\n      swap2\n      swap1\n      pop\n      jump\t// out\n        /* \"#utility.yul\":3441:3563   */\n    tag_297:\n        /* \"#utility.yul\":3514:3538   */\n      tag_363\n        /* \"#utility.yul\":3532:3537   */\n      dup2\n        /* \"#utility.yul\":3514:3538   */\n      tag_296\n      jump\t// in\n    tag_363:\n        /* \"#utility.yul\":3507:3512   */\n      dup2\n        /* \"#utility.yul\":3504:3539   */\n      eq\n        /* \"#utility.yul\":3494:3557   */\n      tag_364\n      jumpi\n        /* \"#utility.yul\":3553:3554   */\n      0x00\n        /* \"#utility.yul\":3550:3551   */\n      dup1\n        /* \"#utility.yul\":3543:3555   */\n      revert\n        /* \"#utility.yul\":3494:3557   */\n    tag_364:\n        /* \"#utility.yul\":3441:3563   */\n      pop\n      jump\t// out\n        /* \"#utility.yul\":3569:3708   */\n    tag_298:\n        /* \"#utility.yul\":3615:3620   */\n      0x00\n        /* \"#utility.yul\":3653:3659   */\n      dup2\n        /* \"#utility.yul\":3640:3660   */\n      calldataload\n        /* \"#utility.yul\":3631:3660   */\n      swap1\n      pop\n        /* \"#utility.yul\":3669:3702   */\n      tag_366\n        /* \"#utility.yul\":3696:3701   */\n      dup2\n        /* \"#utility.yul\":3669:3702   */\n      tag_297\n      jump\t// in\n    tag_366:\n        /* \"#utility.yul\":3569:3708   */\n      swap3\n      swap2\n      pop\n      pop\n      jump\t// out\n        /* \"#utility.yul\":3714:4188   */\n    tag_66:\n        /* \"#utility.yul\":3782:3788   */\n      0x00\n        /* \"#utility.yul\":3790:3796   */\n      dup1\n        /* \"#utility.yul\":3839:3841   */\n      0x40\n        /* \"#utility.yul\":3827:3836   */\n      dup4\n        /* \"#utility.yul\":3818:3825   */\n      dup6\n        /* \"#utility.yul\":3814:3837   */\n      sub\n        /* \"#utility.yul\":3810:3842   */\n      slt\n        /* \"#utility.yul\":3807:3926   */\n      iszero\n      tag_368\n      jumpi\n        /* \"#utility.yul\":3845:3924   */\n      tag_369\n      tag_280\n      jump\t// in\n    tag_369:\n        /* \"#utility.yul\":3807:3926   */\n    tag_368:\n        /* \"#utility.yul\":3965:3966   */\n      0x00\n        /* \"#utility.yul\":3990:4043   */\n      tag_370\n        /* \"#utility.yul\":4035:4042   */\n      dup6\n        /* \"#utility.yul\":4026:4032   */\n      dup3\n        /* \"#utility.yul\":4015:4024   */\n      dup7\n        /* \"#utility.yul\":4011:4033   */\n      add\n        /* \"#utility.yul\":3990:4043   */\n      tag_298\n      jump\t// in\n    tag_370:\n        /* \"#utility.yul\":3980:4043   */\n      swap3\n      pop\n        /* \"#utility.yul\":3936:4053   */\n      pop\n        /* \"#utility.yul\":4092:4094   */\n      0x20\n        /* \"#utility.yul\":4118:4171   */\n      tag_371\n        /* \"#utility.yul\":4163:4170   */\n      dup6\n        /* \"#utility.yul\":4154:4160   */\n      dup3\n        /* \"#utility.yul\":4143:4152   */\n      dup7\n        /* \"#utility.yul\":4139:4161   */\n      add\n        /* \"#utility.yul\":4118:4171   */\n      tag_298\n      jump\t// in\n    tag_371:\n        /* \"#utility.yul\":4108:4171   */\n      swap2\n      pop\n        /* \"#utility.yul\":4063:4181   */\n      pop\n        /* \"#utility.yul\":3714:4188   */\n      swap3\n      pop\n      swap3\n      swap1\n      pop\n      jump\t// out\n        /* \"#utility.yul\":4194:4523   */\n    tag_73:\n        /* \"#utility.yul\":4253:4259   */\n      0x00\n        /* \"#utility.yul\":4302:4304   */\n      0x20\n        /* \"#utility.yul\":4290:4299   */\n      dup3\n        /* \"#utility.yul\":4281:4288   */\n      dup5\n        /* \"#utility.yul\":4277:4300   */\n      sub\n        /* \"#utility.yul\":4273:4305   */\n      slt\n        /* \"#utility.yul\":4270:4389   */\n      iszero\n      tag_373\n      jumpi\n        /* \"#utility.yul\":4308:4387   */\n      tag_374\n      tag_280\n      jump\t// in\n    tag_374:\n        /* \"#utility.yul\":4270:4389   */\n    tag_373:\n        /* \"#utility.yul\":4428:4429   */\n      0x00\n        /* \"#utility.yul\":4453:4506   */\n      tag_375\n        /* \"#utility.yul\":4498:4505   */\n      dup5\n        /* \"#utility.yul\":4489:4495   */\n      dup3\n        /* \"#utility.yul\":4478:4487   */\n      dup6\n        /* \"#utility.yul\":4474:4496   */\n      add\n        /* \"#utility.yul\":4453:4506   */\n      tag_298\n      jump\t// in\n    tag_375:\n        /* \"#utility.yul\":4443:4506   */\n      swap2\n      pop\n        /* \"#utility.yul\":4399:4516   */\n      pop\n        /* \"#utility.yul\":4194:4523   */\n      swap3\n      swap2\n      pop\n      pop\n      jump\t// out\n        /* \"#utility.yul\":4529:4647   */\n    tag_299:\n        /* \"#utility.yul\":4616:4640   */\n      tag_377\n        /* \"#utility.yul\":4634:4639   */\n      dup2\n        /* \"#utility.yul\":4616:4640   */\n      tag_296\n      jump\t// in\n    tag_377:\n        /* \"#utility.yul\":4611:4614   */\n      dup3\n        /* \"#utility.yul\":4604:4641   */\n      mstore\n        /* \"#utility.yul\":4529:4647   */\n      pop\n      pop\n      jump\t// out\n        /* \"#utility.yul\":4653:4875   */\n    tag_76:\n        /* \"#utility.yul\":4746:4750   */\n      0x00\n        /* \"#utility.yul\":4784:4786   */\n      0x20\n        /* \"#utility.yul\":4773:4782   */\n      dup3\n        /* \"#utility.yul\":4769:4787   */\n      add\n        /* \"#utility.yul\":4761:4787   */\n      swap1\n      pop\n        /* \"#utility.yul\":4797:4868   */\n      tag_379\n        /* \"#utility.yul\":4865:4866   */\n      0x00\n        /* \"#utility.yul\":4854:4863   */\n      dup4\n        /* \"#utility.yul\":4850:4867   */\n      add\n        /* \"#utility.yul\":4841:4847   */\n      dup5\n        /* \"#utility.yul\":4797:4868   */\n      tag_299\n      jump\t// in\n    tag_379:\n        /* \"#utility.yul\":4653:4875   */\n      swap3\n      swap2\n      pop\n      pop\n      jump\t// out\n        /* \"#utility.yul\":4881:5355   */\n    tag_86:\n        /* \"#utility.yul\":4949:4955   */\n      0x00\n        /* \"#utility.yul\":4957:4963   */\n      dup1\n        /* \"#utility.yul\":5006:5008   */\n      0x40\n        /* \"#utility.yul\":4994:5003   */\n      dup4\n        /* \"#utility.yul\":4985:4992   */\n      dup6\n        /* \"#utility.yul\":4981:5004   */\n      sub\n        /* \"#utility.yul\":4977:5009   */\n      slt\n        /* \"#utility.yul\":4974:5093   */\n      iszero\n      tag_381\n      jumpi\n        /* \"#utility.yul\":5012:5091   */\n      tag_382\n      tag_280\n      jump\t// in\n    tag_382:\n        /* \"#utility.yul\":4974:5093   */\n    tag_381:\n        /* \"#utility.yul\":5132:5133   */\n      0x00\n        /* \"#utility.yul\":5157:5210   */\n      tag_383\n        /* \"#utility.yul\":5202:5209   */\n      dup6\n        /* \"#utility.yul\":5193:5199   */\n      dup3\n        /* \"#utility.yul\":5182:5191   */\n      dup7\n        /* \"#utility.yul\":5178:5200   */\n      add\n        /* \"#utility.yul\":5157:5210   */\n      tag_298\n      jump\t// in\n    tag_383:\n        /* \"#utility.yul\":5147:5210   */\n      swap3\n      pop\n        /* \"#utility.yul\":5103:5220   */\n      pop\n        /* \"#utility.yul\":5259:5261   */\n      0x20\n        /* \"#utility.yul\":5285:5338   */\n      tag_384\n        /* \"#utility.yul\":5330:5337   */\n      dup6\n        /* \"#utility.yul\":5321:5327   */\n      dup3\n        /* \"#utility.yul\":5310:5319   */\n      dup7\n        /* \"#utility.yul\":5306:5328   */\n      add\n        /* \"#utility.yul\":5285:5338   */\n      tag_290\n      jump\t// in\n    tag_384:\n        /* \"#utility.yul\":5275:5338   */\n      swap2\n      pop\n        /* \"#utility.yul\":5230:5348   */\n      pop\n        /* \"#utility.yul\":4881:5355   */\n      swap3\n      pop\n      swap3\n      swap1\n      pop\n      jump\t// out\n        /* \"#utility.yul\":5361:5530   */\n    tag_300:\n        /* \"#utility.yul\":5445:5456   */\n      0x00\n        /* \"#utility.yul\":5479:5485   */\n      dup3\n        /* \"#utility.yul\":5474:5477   */\n      dup3\n        /* \"#utility.yul\":5467:5486   */\n      mstore\n        /* \"#utility.yul\":5519:5523   */\n      0x20\n        /* \"#utility.yul\":5514:5517   */\n      dup3\n        /* \"#utility.yul\":5510:5524   */\n      add\n        /* \"#utility.yul\":5495:5524   */\n      swap1\n      pop\n        /* \"#utility.yul\":5361:5530   */\n      swap3\n      swap2\n      pop\n      pop\n      jump\t// out\n        /* \"#utility.yul\":5536:5770   */\n    tag_301:\n        /* \"#utility.yul\":5676:5710   */\n      0x416363657373436f6e74726f6c3a2063616e206f6e6c792072656e6f756e6365\n        /* \"#utility.yul\":5672:5673   */\n      0x00\n        /* \"#utility.yul\":5664:5670   */\n      dup3\n        /* \"#utility.yul\":5660:5674   */\n      add\n        /* \"#utility.yul\":5653:5711   */\n      mstore\n        /* \"#utility.yul\":5745:5762   */\n      0x20726f6c657320666f722073656c660000000000000000000000000000000000\n        /* \"#utility.yul\":5740:5742   */\n      0x20\n        /* \"#utility.yul\":5732:5738   */\n      dup3\n        /* \"#utility.yul\":5728:5743   */\n      add\n        /* \"#utility.yul\":5721:5763   */\n      mstore\n        /* \"#utility.yul\":5536:5770   */\n      pop\n      jump\t// out\n        /* \"#utility.yul\":5776:6142   */\n    tag_302:\n        /* \"#utility.yul\":5918:5921   */\n      0x00\n        /* \"#utility.yul\":5939:6006   */\n      tag_388\n        /* \"#utility.yul\":6003:6005   */\n      0x2f\n        /* \"#utility.yul\":5998:6001   */\n      dup4\n        /* \"#utility.yul\":5939:6006   */\n      tag_300\n      jump\t// in\n    tag_388:\n        /* \"#utility.yul\":5932:6006   */\n      swap2\n      pop\n        /* \"#utility.yul\":6015:6108   */\n      tag_389\n        /* \"#utility.yul\":6104:6107   */\n      dup3\n        /* \"#utility.yul\":6015:6108   */\n      tag_301\n      jump\t// in\n    tag_389:\n        /* \"#utility.yul\":6133:6135   */\n      0x40\n        /* \"#utility.yul\":6128:6131   */\n      dup3\n        /* \"#utility.yul\":6124:6136   */\n      add\n        /* \"#utility.yul\":6117:6136   */\n      swap1\n      pop\n        /* \"#utility.yul\":5776:6142   */\n      swap2\n      swap1\n      pop\n      jump\t// out\n        /* \"#utility.yul\":6148:6567   */\n    tag_195:\n        /* \"#utility.yul\":6314:6318   */\n      0x00\n        /* \"#utility.yul\":6352:6354   */\n      0x20\n        /* \"#utility.yul\":6341:6350   */\n      dup3\n        /* \"#utility.yul\":6337:6355   */\n      add\n        /* \"#utility.yul\":6329:6355   */\n      swap1\n      pop\n        /* \"#utility.yul\":6401:6410   */\n      dup2\n        /* \"#utility.yul\":6395:6399   */\n      dup2\n        /* \"#utility.yul\":6391:6411   */\n      sub\n        /* \"#utility.yul\":6387:6388   */\n      0x00\n        /* \"#utility.yul\":6376:6385   */\n      dup4\n        /* \"#utility.yul\":6372:6389   */\n      add\n        /* \"#utility.yul\":6365:6412   */\n      mstore\n        /* \"#utility.yul\":6429:6560   */\n      tag_391\n        /* \"#utility.yul\":6555:6559   */\n      dup2\n        /* \"#utility.yul\":6429:6560   */\n      tag_302\n      jump\t// in\n    tag_391:\n        /* \"#utility.yul\":6421:6560   */\n      swap1\n      pop\n        /* \"#utility.yul\":6148:6567   */\n      swap2\n      swap1\n      pop\n      jump\t// out\n        /* \"#utility.yul\":6573:6721   */\n    tag_303:\n        /* \"#utility.yul\":6675:6686   */\n      0x00\n        /* \"#utility.yul\":6712:6715   */\n      dup2\n        /* \"#utility.yul\":6697:6715   */\n      swap1\n      pop\n        /* \"#utility.yul\":6573:6721   */\n      swap3\n      swap2\n      pop\n      pop\n      jump\t// out\n        /* \"#utility.yul\":6727:6900   */\n    tag_304:\n        /* \"#utility.yul\":6867:6892   */\n      0x416363657373436f6e74726f6c3a206163636f756e7420000000000000000000\n        /* \"#utility.yul\":6863:6864   */\n      0x00\n        /* \"#utility.yul\":6855:6861   */\n      dup3\n        /* \"#utility.yul\":6851:6865   */\n      add\n        /* \"#utility.yul\":6844:6893   */\n      mstore\n        /* \"#utility.yul\":6727:6900   */\n      pop\n      jump\t// out\n        /* \"#utility.yul\":6906:7308   */\n    tag_305:\n        /* \"#utility.yul\":7066:7069   */\n      0x00\n        /* \"#utility.yul\":7087:7172   */\n      tag_395\n        /* \"#utility.yul\":7169:7171   */\n      0x17\n        /* \"#utility.yul\":7164:7167   */\n      dup4\n        /* \"#utility.yul\":7087:7172   */\n      tag_303\n      jump\t// in\n    tag_395:\n        /* \"#utility.yul\":7080:7172   */\n      swap2\n      pop\n        /* \"#utility.yul\":7181:7274   */\n      tag_396\n        /* \"#utility.yul\":7270:7273   */\n      dup3\n        /* \"#utility.yul\":7181:7274   */\n      tag_304\n      jump\t// in\n    tag_396:\n        /* \"#utility.yul\":7299:7301   */\n      0x17\n        /* \"#utility.yul\":7294:7297   */\n      dup3\n        /* \"#utility.yul\":7290:7302   */\n      add\n        /* \"#utility.yul\":7283:7302   */\n      swap1\n      pop\n        /* \"#utility.yul\":6906:7308   */\n      swap2\n      swap1\n      pop\n      jump\t// out\n        /* \"#utility.yul\":7314:7413   */\n    tag_306:\n        /* \"#utility.yul\":7366:7372   */\n      0x00\n        /* \"#utility.yul\":7400:7405   */\n      dup2\n        /* \"#utility.yul\":7394:7406   */\n      mload\n        /* \"#utility.yul\":7384:7406   */\n      swap1\n      pop\n        /* \"#utility.yul\":7314:7413   */\n      swap2\n      swap1\n      pop\n      jump\t// out\n        /* \"#utility.yul\":7419:7726   */\n    tag_307:\n        /* \"#utility.yul\":7487:7488   */\n      0x00\n        /* \"#utility.yul\":7497:7610   */\n    tag_399:\n        /* \"#utility.yul\":7511:7517   */\n      dup4\n        /* \"#utility.yul\":7508:7509   */\n      dup2\n        /* \"#utility.yul\":7505:7518   */\n      lt\n        /* \"#utility.yul\":7497:7610   */\n      iszero\n      tag_401\n      jumpi\n        /* \"#utility.yul\":7596:7597   */\n      dup1\n        /* \"#utility.yul\":7591:7594   */\n      dup3\n        /* \"#utility.yul\":7587:7598   */\n      add\n        /* \"#utility.yul\":7581:7599   */\n      mload\n        /* \"#utility.yul\":7577:7578   */\n      dup2\n        /* \"#utility.yul\":7572:7575   */\n      dup5\n        /* \"#utility.yul\":7568:7579   */\n      add\n        /* \"#utility.yul\":7561:7600   */\n      mstore\n        /* \"#utility.yul\":7533:7535   */\n      0x20\n        /* \"#utility.yul\":7530:7531   */\n      dup2\n        /* \"#utility.yul\":7526:7536   */\n      add\n        /* \"#utility.yul\":7521:7536   */\n      swap1\n      pop\n        /* \"#utility.yul\":7497:7610   */\n      jump(tag_399)\n    tag_401:\n        /* \"#utility.yul\":7628:7634   */\n      dup4\n        /* \"#utility.yul\":7625:7626   */\n      dup2\n        /* \"#utility.yul\":7622:7635   */\n      gt\n        /* \"#utility.yul\":7619:7720   */\n      iszero\n      tag_402\n      jumpi\n        /* \"#utility.yul\":7708:7709   */\n      0x00\n        /* \"#utility.yul\":7699:7705   */\n      dup5\n        /* \"#utility.yul\":7694:7697   */\n      dup5\n        /* \"#utility.yul\":7690:7706   */\n      add\n        /* \"#utility.yul\":7683:7710   */\n      mstore\n        /* \"#utility.yul\":7619:7720   */\n    tag_402:\n        /* \"#utility.yul\":7468:7726   */\n      pop\n        /* \"#utility.yul\":7419:7726   */\n      pop\n      pop\n      pop\n      jump\t// out\n        /* \"#utility.yul\":7732:8109   */\n    tag_308:\n        /* \"#utility.yul\":7838:7841   */\n      0x00\n        /* \"#utility.yul\":7866:7905   */\n      tag_404\n        /* \"#utility.yul\":7899:7904   */\n      dup3\n        /* \"#utility.yul\":7866:7905   */\n      tag_306\n      jump\t// in\n    tag_404:\n        /* \"#utility.yul\":7921:8010   */\n      tag_405\n        /* \"#utility.yul\":8003:8009   */\n      dup2\n        /* \"#utility.yul\":7998:8001   */\n      dup6\n        /* \"#utility.yul\":7921:8010   */\n      tag_303\n      jump\t// in\n    tag_405:\n        /* \"#utility.yul\":7914:8010   */\n      swap4\n      pop\n        /* \"#utility.yul\":8019:8071   */\n      tag_406\n        /* \"#utility.yul\":8064:8070   */\n      dup2\n        /* \"#utility.yul\":8059:8062   */\n      dup6\n        /* \"#utility.yul\":8052:8056   */\n      0x20\n        /* \"#utility.yul\":8045:8050   */\n      dup7\n        /* \"#utility.yul\":8041:8057   */\n      add\n        /* \"#utility.yul\":8019:8071   */\n      tag_307\n      jump\t// in\n    tag_406:\n        /* \"#utility.yul\":8096:8102   */\n      dup1\n        /* \"#utility.yul\":8091:8094   */\n      dup5\n        /* \"#utility.yul\":8087:8103   */\n      add\n        /* \"#utility.yul\":8080:8103   */\n      swap2\n      pop\n        /* \"#utility.yul\":7842:8109   */\n      pop\n        /* \"#utility.yul\":7732:8109   */\n      swap3\n      swap2\n      pop\n      pop\n      jump\t// out\n        /* \"#utility.yul\":8115:8282   */\n    tag_309:\n        /* \"#utility.yul\":8255:8274   */\n      0x206973206d697373696e6720726f6c6520000000000000000000000000000000\n        /* \"#utility.yul\":8251:8252   */\n      0x00\n        /* \"#utility.yul\":8243:8249   */\n      dup3\n        /* \"#utility.yul\":8239:8253   */\n      add\n        /* \"#utility.yul\":8232:8275   */\n      mstore\n        /* \"#utility.yul\":8115:8282   */\n      pop\n      jump\t// out\n        /* \"#utility.yul\":8288:8690   */\n    tag_310:\n        /* \"#utility.yul\":8448:8451   */\n      0x00\n        /* \"#utility.yul\":8469:8554   */\n      tag_409\n        /* \"#utility.yul\":8551:8553   */\n      0x11\n        /* \"#utility.yul\":8546:8549   */\n      dup4\n        /* \"#utility.yul\":8469:8554   */\n      tag_303\n      jump\t// in\n    tag_409:\n        /* \"#utility.yul\":8462:8554   */\n      swap2\n      pop\n        /* \"#utility.yul\":8563:8656   */\n      tag_410\n        /* \"#utility.yul\":8652:8655   */\n      dup3\n        /* \"#utility.yul\":8563:8656   */\n      tag_309\n      jump\t// in\n    tag_410:\n        /* \"#utility.yul\":8681:8683   */\n      0x11\n        /* \"#utility.yul\":8676:8679   */\n      dup3\n        /* \"#utility.yul\":8672:8684   */\n      add\n        /* \"#utility.yul\":8665:8684   */\n      swap1\n      pop\n        /* \"#utility.yul\":8288:8690   */\n      swap2\n      swap1\n      pop\n      jump\t// out\n        /* \"#utility.yul\":8696:9663   */\n    tag_238:\n        /* \"#utility.yul\":9078:9081   */\n      0x00\n        /* \"#utility.yul\":9100:9248   */\n      tag_412\n        /* \"#utility.yul\":9244:9247   */\n      dup3\n        /* \"#utility.yul\":9100:9248   */\n      tag_305\n      jump\t// in\n    tag_412:\n        /* \"#utility.yul\":9093:9248   */\n      swap2\n      pop\n        /* \"#utility.yul\":9265:9360   */\n      tag_413\n        /* \"#utility.yul\":9356:9359   */\n      dup3\n        /* \"#utility.yul\":9347:9353   */\n      dup6\n        /* \"#utility.yul\":9265:9360   */\n      tag_308\n      jump\t// in\n    tag_413:\n        /* \"#utility.yul\":9258:9360   */\n      swap2\n      pop\n        /* \"#utility.yul\":9377:9525   */\n      tag_414\n        /* \"#utility.yul\":9521:9524   */\n      dup3\n        /* \"#utility.yul\":9377:9525   */\n      tag_310\n      jump\t// in\n    tag_414:\n        /* \"#utility.yul\":9370:9525   */\n      swap2\n      pop\n        /* \"#utility.yul\":9542:9637   */\n      tag_415\n        /* \"#utility.yul\":9633:9636   */\n      dup3\n        /* \"#utility.yul\":9624:9630   */\n      dup5\n        /* \"#utility.yul\":9542:9637   */\n      tag_308\n      jump\t// in\n    tag_415:\n        /* \"#utility.yul\":9535:9637   */\n      swap2\n      pop\n        /* \"#utility.yul\":9654:9657   */\n      dup2\n        /* \"#utility.yul\":9647:9657   */\n      swap1\n      pop\n        /* \"#utility.yul\":8696:9663   */\n      swap4\n      swap3\n      pop\n      pop\n      pop\n      jump\t// out\n        /* \"#utility.yul\":9669:9771   */\n    tag_311:\n        /* \"#utility.yul\":9710:9716   */\n      0x00\n        /* \"#utility.yul\":9761:9763   */\n      0x1f\n        /* \"#utility.yul\":9757:9764   */\n      not\n        /* \"#utility.yul\":9752:9754   */\n      0x1f\n        /* \"#utility.yul\":9745:9750   */\n      dup4\n        /* \"#utility.yul\":9741:9755   */\n      add\n        /* \"#utility.yul\":9737:9765   */\n      and\n        /* \"#utility.yul\":9727:9765   */\n      swap1\n      pop\n        /* \"#utility.yul\":9669:9771   */\n      swap2\n      swap1\n      pop\n      jump\t// out\n        /* \"#utility.yul\":9777:10141   */\n    tag_312:\n        /* \"#utility.yul\":9865:9868   */\n      0x00\n        /* \"#utility.yul\":9893:9932   */\n      tag_418\n        /* \"#utility.yul\":9926:9931   */\n      dup3\n        /* \"#utility.yul\":9893:9932   */\n      tag_306\n      jump\t// in\n    tag_418:\n        /* \"#utility.yul\":9948:10019   */\n      tag_419\n        /* \"#utility.yul\":10012:10018   */\n      dup2\n        /* \"#utility.yul\":10007:10010   */\n      dup6\n        /* \"#utility.yul\":9948:10019   */\n      tag_300\n      jump\t// in\n    tag_419:\n        /* \"#utility.yul\":9941:10019   */\n      swap4\n      pop\n        /* \"#utility.yul\":10028:10080   */\n      tag_420\n        /* \"#utility.yul\":10073:10079   */\n      dup2\n        /* \"#utility.yul\":10068:10071   */\n      dup6\n        /* \"#utility.yul\":10061:10065   */\n      0x20\n        /* \"#utility.yul\":10054:10059   */\n      dup7\n        /* \"#utility.yul\":10050:10066   */\n      add\n        /* \"#utility.yul\":10028:10080   */\n      tag_307\n      jump\t// in\n    tag_420:\n        /* \"#utility.yul\":10105:10134   */\n      tag_421\n        /* \"#utility.yul\":10127:10133   */\n      dup2\n        /* \"#utility.yul\":10105:10134   */\n      tag_311\n      jump\t// in\n    tag_421:\n        /* \"#utility.yul\":10100:10103   */\n      dup5\n        /* \"#utility.yul\":10096:10135   */\n      add\n        /* \"#utility.yul\":10089:10135   */\n      swap2\n      pop\n        /* \"#utility.yul\":9869:10141   */\n      pop\n        /* \"#utility.yul\":9777:10141   */\n      swap3\n      swap2\n      pop\n      pop\n      jump\t// out\n        /* \"#utility.yul\":10147:10460   */\n    tag_240:\n        /* \"#utility.yul\":10260:10264   */\n      0x00\n        /* \"#utility.yul\":10298:10300   */\n      0x20\n        /* \"#utility.yul\":10287:10296   */\n      dup3\n        /* \"#utility.yul\":10283:10301   */\n      add\n        /* \"#utility.yul\":10275:10301   */\n      swap1\n      pop\n        /* \"#utility.yul\":10347:10356   */\n      dup2\n        /* \"#utility.yul\":10341:10345   */\n      dup2\n        /* \"#utility.yul\":10337:10357   */\n      sub\n        /* \"#utility.yul\":10333:10334   */\n      0x00\n        /* \"#utility.yul\":10322:10331   */\n      dup4\n        /* \"#utility.yul\":10318:10335   */\n      add\n        /* \"#utility.yul\":10311:10358   */\n      mstore\n        /* \"#utility.yul\":10375:10453   */\n      tag_423\n        /* \"#utility.yul\":10448:10452   */\n      dup2\n        /* \"#utility.yul\":10439:10445   */\n      dup5\n        /* \"#utility.yul\":10375:10453   */\n      tag_312\n      jump\t// in\n    tag_423:\n        /* \"#utility.yul\":10367:10453   */\n      swap1\n      pop\n        /* \"#utility.yul\":10147:10460   */\n      swap3\n      swap2\n      pop\n      pop\n      jump\t// out\n        /* \"#utility.yul\":10466:10543   */\n    tag_313:\n        /* \"#utility.yul\":10503:10510   */\n      0x00\n        /* \"#utility.yul\":10532:10537   */\n      dup2\n        /* \"#utility.yul\":10521:10537   */\n      swap1\n      pop\n        /* \"#utility.yul\":10466:10543   */\n      swap2\n      swap1\n      pop\n      jump\t// out\n        /* \"#utility.yul\":10549:10729   */\n    tag_314:\n        /* \"#utility.yul\":10597:10674   */\n      0x4e487b7100000000000000000000000000000000000000000000000000000000\n        /* \"#utility.yul\":10594:10595   */\n      0x00\n        /* \"#utility.yul\":10587:10675   */\n      mstore\n        /* \"#utility.yul\":10694:10698   */\n      0x11\n        /* \"#utility.yul\":10691:10692   */\n      0x04\n        /* \"#utility.yul\":10684:10699   */\n      mstore\n        /* \"#utility.yul\":10718:10722   */\n      0x24\n        /* \"#utility.yul\":10715:10716   */\n      0x00\n        /* \"#utility.yul\":10708:10723   */\n      revert\n        /* \"#utility.yul\":10735:11083   */\n    tag_253:\n        /* \"#utility.yul\":10775:10782   */\n      0x00\n        /* \"#utility.yul\":10798:10818   */\n      tag_427\n        /* \"#utility.yul\":10816:10817   */\n      dup3\n        /* \"#utility.yul\":10798:10818   */\n      tag_313\n      jump\t// in\n    tag_427:\n        /* \"#utility.yul\":10793:10818   */\n      swap2\n      pop\n        /* \"#utility.yul\":10832:10852   */\n      tag_428\n        /* \"#utility.yul\":10850:10851   */\n      dup4\n        /* \"#utility.yul\":10832:10852   */\n      tag_313\n      jump\t// in\n    tag_428:\n        /* \"#utility.yul\":10827:10852   */\n      swap3\n      pop\n        /* \"#utility.yul\":11020:11021   */\n      dup2\n        /* \"#utility.yul\":10952:11018   */\n      0xffffffffffffffffffffffffffffffffffffffffffffffffffffffffffffffff\n        /* \"#utility.yul\":10948:11022   */\n      div\n        /* \"#utility.yul\":10945:10946   */\n      dup4\n        /* \"#utility.yul\":10942:11023   */\n      gt\n        /* \"#utility.yul\":10937:10938   */\n      dup3\n        /* \"#utility.yul\":10930:10939   */\n      iszero\n        /* \"#utility.yul\":10923:10940   */\n      iszero\n        /* \"#utility.yul\":10919:11024   */\n      and\n        /* \"#utility.yul\":10916:11047   */\n      iszero\n      tag_429\n      jumpi\n        /* \"#utility.yul\":11027:11045   */\n      tag_430\n      tag_314\n      jump\t// in\n    tag_430:\n        /* \"#utility.yul\":10916:11047   */\n    tag_429:\n        /* \"#utility.yul\":11075:11076   */\n      dup3\n        /* \"#utility.yul\":11072:11073   */\n      dup3\n        /* \"#utility.yul\":11068:11077   */\n      mul\n        /* \"#utility.yul\":11057:11077   */\n      swap1\n      pop\n        /* \"#utility.yul\":10735:11083   */\n      swap3\n      swap2\n      pop\n      pop\n      jump\t// out\n        /* \"#utility.yul\":11089:11394   */\n    tag_255:\n        /* \"#utility.yul\":11129:11132   */\n      0x00\n        /* \"#utility.yul\":11148:11168   */\n      tag_432\n        /* \"#utility.yul\":11166:11167   */\n      dup3\n        /* \"#utility.yul\":11148:11168   */\n      tag_313\n      jump\t// in\n    tag_432:\n        /* \"#utility.yul\":11143:11168   */\n      swap2\n      pop\n        /* \"#utility.yul\":11182:11202   */\n      tag_433\n        /* \"#utility.yul\":11200:11201   */\n      dup4\n        /* \"#utility.yul\":11182:11202   */\n      tag_313\n      jump\t// in\n    tag_433:\n        /* \"#utility.yul\":11177:11202   */\n      swap3\n      pop\n        /* \"#utility.yul\":11336:11337   */\n      dup3\n        /* \"#utility.yul\":11268:11334   */\n      0xffffffffffffffffffffffffffffffffffffffffffffffffffffffffffffffff\n        /* \"#utility.yul\":11264:11338   */\n      sub\n        /* \"#utility.yul\":11261:11262   */\n      dup3\n        /* \"#utility.yul\":11258:11339   */\n      gt\n        /* \"#utility.yul\":11255:11362   */\n      iszero\n      tag_434\n      jumpi\n        /* \"#utility.yul\":11342:11360   */\n      tag_435\n      tag_314\n      jump\t// in\n    tag_435:\n        /* \"#utility.yul\":11255:11362   */\n    tag_434:\n        /* \"#utility.yul\":11386:11387   */\n      dup3\n        /* \"#utility.yul\":11383:11384   */\n      dup3\n        /* \"#utility.yul\":11379:11388   */\n      add\n        /* \"#utility.yul\":11372:11388   */\n      swap1\n      pop\n        /* \"#utility.yul\":11089:11394   */\n      swap3\n      swap2\n      pop\n      pop\n      jump\t// out\n        /* \"#utility.yul\":11400:11580   */\n    tag_258:\n        /* \"#utility.yul\":11448:11525   */\n      0x4e487b7100000000000000000000000000000000000000000000000000000000\n        /* \"#utility.yul\":11445:11446   */\n      0x00\n        /* \"#utility.yul\":11438:11526   */\n      mstore\n        /* \"#utility.yul\":11545:11549   */\n      0x41\n        /* \"#utility.yul\":11542:11543   */\n      0x04\n        /* \"#utility.yul\":11535:11550   */\n      mstore\n        /* \"#utility.yul\":11569:11573   */\n      0x24\n        /* \"#utility.yul\":11566:11567   */\n      0x00\n        /* \"#utility.yul\":11559:11574   */\n      revert\n        /* \"#utility.yul\":11586:11766   */\n    tag_262:\n        /* \"#utility.yul\":11634:11711   */\n      0x4e487b7100000000000000000000000000000000000000000000000000000000\n        /* \"#utility.yul\":11631:11632   */\n      0x00\n        /* \"#utility.yul\":11624:11712   */\n      mstore\n        /* \"#utility.yul\":11731:11735   */\n      0x32\n        /* \"#utility.yul\":11728:11729   */\n      0x04\n        /* \"#utility.yul\":11721:11736   */\n      mstore\n        /* \"#utility.yul\":11755:11759   */\n      0x24\n        /* \"#utility.yul\":11752:11753   */\n      0x00\n        /* \"#utility.yul\":11745:11760   */\n      revert\n        /* \"#utility.yul\":11772:11943   */\n    tag_275:\n        /* \"#utility.yul\":11811:11814   */\n      0x00\n        /* \"#utility.yul\":11834:11858   */\n      tag_439\n        /* \"#utility.yul\":11852:11857   */\n      dup3\n        /* \"#utility.yul\":11834:11858   */\n      tag_313\n      jump\t// in\n    tag_439:\n        /* \"#utility.yul\":11825:11858   */\n      swap2\n      pop\n        /* \"#utility.yul\":11880:11884   */\n      0x00\n        /* \"#utility.yul\":11873:11878   */\n      dup3\n        /* \"#utility.yul\":11870:11885   */\n      eq\n        /* \"#utility.yul\":11867:11908   */\n      iszero\n      tag_440\n      jumpi\n        /* \"#utility.yul\":11888:11906   */\n      tag_441\n      tag_314\n      jump\t// in\n    tag_441:\n        /* \"#utility.yul\":11867:11908   */\n    tag_440:\n        /* \"#utility.yul\":11935:11936   */\n      0x01\n        /* \"#utility.yul\":11928:11933   */\n      dup3\n        /* \"#utility.yul\":11924:11937   */\n      sub\n        /* \"#utility.yul\":11917:11937   */\n      swap1\n      pop\n        /* \"#utility.yul\":11772:11943   */\n      swap2\n      swap1\n      pop\n      jump\t// out\n        /* \"#utility.yul\":11949:12131   */\n    tag_315:\n        /* \"#utility.yul\":12089:12123   */\n      0x537472696e67733a20686578206c656e67746820696e73756666696369656e74\n        /* \"#utility.yul\":12085:12086   */\n      0x00\n        /* \"#utility.yul\":12077:12083   */\n      dup3\n        /* \"#utility.yul\":12073:12087   */\n      add\n        /* \"#utility.yul\":12066:12124   */\n      mstore\n        /* \"#utility.yul\":11949:12131   */\n      pop\n      jump\t// out\n        /* \"#utility.yul\":12137:12503   */\n    tag_316:\n        /* \"#utility.yul\":12279:12282   */\n      0x00\n        /* \"#utility.yul\":12300:12367   */\n      tag_444\n        /* \"#utility.yul\":12364:12366   */\n      0x20\n        /* \"#utility.yul\":12359:12362   */\n      dup4\n        /* \"#utility.yul\":12300:12367   */\n      tag_300\n      jump\t// in\n    tag_444:\n        /* \"#utility.yul\":12293:12367   */\n      swap2\n      pop\n        /* \"#utility.yul\":12376:12469   */\n      tag_445\n        /* \"#utility.yul\":12465:12468   */\n      dup3\n        /* \"#utility.yul\":12376:12469   */\n      tag_315\n      jump\t// in\n    tag_445:\n        /* \"#utility.yul\":12494:12496   */\n      0x20\n        /* \"#utility.yul\":12489:12492   */\n      dup3\n        /* \"#utility.yul\":12485:12497   */\n      add\n        /* \"#utility.yul\":12478:12497   */\n      swap1\n      pop\n        /* \"#utility.yul\":12137:12503   */\n      swap2\n      swap1\n      pop\n      jump\t// out\n        /* \"#utility.yul\":12509:12928   */\n    tag_278:\n        /* \"#utility.yul\":12675:12679   */\n      0x00\n        /* \"#utility.yul\":12713:12715   */\n      0x20\n        /* \"#utility.yul\":12702:12711   */\n      dup3\n        /* \"#utility.yul\":12698:12716   */\n      add\n        /* \"#utility.yul\":12690:12716   */\n      swap1\n      pop\n        /* \"#utility.yul\":12762:12771   */\n      dup2\n        /* \"#utility.yul\":12756:12760   */\n      dup2\n        /* \"#utility.yul\":12752:12772   */\n      sub\n        /* \"#utility.yul\":12748:12749   */\n      0x00\n        /* \"#utility.yul\":12737:12746   */\n      dup4\n        /* \"#utility.yul\":12733:12750   */\n      add\n        /* \"#utility.yul\":12726:12773   */\n      mstore\n        /* \"#utility.yul\":12790:12921   */\n      tag_447\n        /* \"#utility.yul\":12916:12920   */\n      dup2\n        /* \"#utility.yul\":12790:12921   */\n      tag_316\n      jump\t// in\n    tag_447:\n        /* \"#utility.yul\":12782:12921   */\n      swap1\n      pop\n        /* \"#utility.yul\":12509:12928   */\n      swap2\n      swap1\n      pop\n      jump\t// out\n\n    auxdata: 0xa2646970667358221220e5224ca9a494c76f31a19cd26c57c322a094c93f6b77659799b92540d42a768064736f6c634300080a0033\n}\n",
        "bytecode": {
          "linkReferences": {},
          "object": "60a06040523480156200001157600080fd5b5060405162001e6e38038062001e6e8339818101604052810190620000379190620003a1565b8073ffffffffffffffffffffffffffffffffffffffff1660808173ffffffffffffffffffffffffffffffffffffffff168152505060008173ffffffffffffffffffffffffffffffffffffffff16630e67178c6040518163ffffffff1660e01b8152600401602060405180830381865afa158015620000b9573d6000803e3d6000fd5b505050506040513d601f19601f82011682018060405250810190620000df919062000404565b9050600073ffffffffffffffffffffffffffffffffffffffff168173ffffffffffffffffffffffffffffffffffffffff1614156040518060400160405280600281526020017f3735000000000000000000000000000000000000000000000000000000000000815250906200018c576040517f08c379a0000000000000000000000000000000000000000000000000000000008152600401620001839190620004da565b60405180910390fd5b50620001a26000801b82620001aa60201b60201c565b5050620004fe565b620001bc8282620001c060201b60201c565b5050565b620001d28282620002b160201b60201c565b620002ad57600160008084815260200190815260200160002060000160008373ffffffffffffffffffffffffffffffffffffffff1673ffffffffffffffffffffffffffffffffffffffff16815260200190815260200160002060006101000a81548160ff021916908315150217905550620002526200031b60201b60201c565b73ffffffffffffffffffffffffffffffffffffffff168173ffffffffffffffffffffffffffffffffffffffff16837f2f8788117e7eff1d82e926ec794901d17c78024a50270940304540a733656f0d60405160405180910390a45b5050565b600080600084815260200190815260200160002060000160008373ffffffffffffffffffffffffffffffffffffffff1673ffffffffffffffffffffffffffffffffffffffff16815260200190815260200160002060009054906101000a900460ff16905092915050565b600033905090565b600080fd5b600073ffffffffffffffffffffffffffffffffffffffff82169050919050565b6000620003558262000328565b9050919050565b6000620003698262000348565b9050919050565b6200037b816200035c565b81146200038757600080fd5b50565b6000815190506200039b8162000370565b92915050565b600060208284031215620003ba57620003b962000323565b5b6000620003ca848285016200038a565b91505092915050565b620003de8162000348565b8114620003ea57600080fd5b50565b600081519050620003fe81620003d3565b92915050565b6000602082840312156200041d576200041c62000323565b5b60006200042d84828501620003ed565b91505092915050565b600081519050919050565b600082825260208201905092915050565b60005b838110156200047257808201518184015260208101905062000455565b8381111562000482576000848401525b50505050565b6000601f19601f8301169050919050565b6000620004a68262000436565b620004b2818562000441565b9350620004c481856020860162000452565b620004cf8162000488565b840191505092915050565b60006020820190508181036000830152620004f6818462000499565b905092915050565b6080516119546200051a600039600061070901526119546000f3fe608060405234801561001057600080fd5b50600436106101fb5760003560e01c8063674b5e4d1161011a5780639a2b96f7116100ad578063b5bfddea1161007c578063b5bfddea146105bc578063b8f6dba7146105da578063d547741f146105f8578063f83695cb14610614578063fa50f29714610630576101fb565b80639a2b96f71461054a5780639ac9d80b14610566578063a217fddf14610582578063a21bce15146105a0576101fb565b80637a9a93f4116100e95780637a9a93f4146104b25780637be53ca1146104ce57806391d14854146104fe5780639712fdf81461052e576101fb565b8063674b5e4d146104165780636e76fc8f14610446578063726600ce1461046457806378bb0a4314610494576101fb565b80632500f2b6116101925780633c5a08e5116101615780633c5a08e5146103a25780634f16b425146103be5780635577b7a9146103dc5780635b9a94e4146103fa576101fb565b80632500f2b61461031e578063253cf9801461034e5780632f2ff15d1461036a57806336568abe14610386576101fb565b8063179efb09116101ce578063179efb091461029a5780631e4e0091146102b657806322650caf146102d2578063248a9ca3146102ee576101fb565b806301ffc9a71461020057806304df017d146102305780630542975c1461024c57806313ee32e01461026a575b600080fd5b61021a60048036038101906102159190611271565b610660565b60405161022791906112b9565b60405180910390f35b61024a60048036038101906102459190611332565b6106da565b005b610254610707565b60405161026191906113be565b60405180910390f35b610284600480360381019061027f9190611332565b61072b565b60405161029191906112b9565b60405180910390f35b6102b460048036038101906102af9190611332565b61075e565b005b6102d060048036038101906102cb919061140f565b61078b565b005b6102ec60048036038101906102e79190611332565b6107af565b005b6103086004803603810190610303919061144f565b6107dc565b604051610315919061148b565b60405180910390f35b61033860048036038101906103339190611332565b6107fb565b60405161034591906112b9565b60405180910390f35b61036860048036038101906103639190611332565b61082e565b005b610384600480360381019061037f91906114a6565b61085b565b005b6103a0600480360381019061039b91906114a6565b610884565b005b6103bc60048036038101906103b79190611332565b610907565b005b6103c6610934565b6040516103d3919061148b565b60405180910390f35b6103e4610958565b6040516103f1919061148b565b60405180910390f35b610414600480360381019061040f9190611332565b61097c565b005b610430600480360381019061042b9190611332565b6109a9565b60405161043d91906112b9565b60405180910390f35b61044e6109dc565b60405161045b919061148b565b60405180910390f35b61047e60048036038101906104799190611332565b610a00565b60405161048b91906112b9565b60405180910390f35b61049c610a33565b6040516104a9919061148b565b60405180910390f35b6104cc60048036038101906104c79190611332565b610a57565b005b6104e860048036038101906104e39190611332565b610a84565b6040516104f591906112b9565b60405180910390f35b610518600480360381019061051391906114a6565b610ab7565b60405161052591906112b9565b60405180910390f35b61054860048036038101906105439190611332565b610b21565b005b610564600480360381019061055f9190611332565b610b4e565b005b610580600480360381019061057b9190611332565b610b7b565b005b61058a610ba8565b604051610597919061148b565b60405180910390f35b6105ba60048036038101906105b59190611332565b610baf565b005b6105c4610bdc565b6040516105d1919061148b565b60405180910390f35b6105e2610c00565b6040516105ef919061148b565b60405180910390f35b610612600480360381019061060d91906114a6565b610c24565b005b61062e60048036038101906106299190611332565b610c4d565b005b61064a60048036038101906106459190611332565b610c7a565b60405161065791906112b9565b60405180910390f35b60007f7965db0b000000000000000000000000000000000000000000000000000000007bffffffffffffffffffffffffffffffffffffffffffffffffffffffff1916827bffffffffffffffffffffffffffffffffffffffffffffffffffffffff191614806106d357506106d282610cad565b5b9050919050565b6107047f08fb31c3e81624356c3314088aa971b73bcc82d22bc3e3b184b4593077ae327882610c24565b50565b7f000000000000000000000000000000000000000000000000000000000000000081565b60006107577f19c860a63258efbd0ecb7d55c626237bf5c2044c26c073390b74f0c13c85743383610ab7565b9050919050565b6107887f5c91514091af31f62f596a314af7d5be40146b2f2355969392f055e12e0982fb8261085b565b50565b6000801b6107a08161079b610d17565b610d1f565b6107aa8383610dbc565b505050565b6107d97f12ad05bde78c5ab75238ce885307f96ecd482bb402ef831f99e7018a0f169b7b8261085b565b50565b6000806000838152602001908152602001600020600101549050919050565b60006108277f5c91514091af31f62f596a314af7d5be40146b2f2355969392f055e12e0982fb83610ab7565b9050919050565b6108587f939b8dfb57ecef2aea54a93a15e86768b9d4089f1ba61c245e6ec980695f4ca482610c24565b50565b610864826107dc565b61087581610870610d17565b610d1f565b61087f8383610e17565b505050565b61088c610d17565b73ffffffffffffffffffffffffffffffffffffffff168173ffffffffffffffffffffffffffffffffffffffff16146108f9576040517f08c379a00000000000000000000000000000000000000000000000000000000081526004016108f090611569565b60405180910390fd5b6109038282610ef7565b5050565b6109317f8aa855a911518ecfbe5bc3088c8f3dda7badf130faaf8ace33fdc33828e1816782610c24565b50565b7f8aa855a911518ecfbe5bc3088c8f3dda7badf130faaf8ace33fdc33828e1816781565b7f939b8dfb57ecef2aea54a93a15e86768b9d4089f1ba61c245e6ec980695f4ca481565b6109a67f8aa855a911518ecfbe5bc3088c8f3dda7badf130faaf8ace33fdc33828e181678261085b565b50565b60006109d57f8aa855a911518ecfbe5bc3088c8f3dda7badf130faaf8ace33fdc33828e1816783610ab7565b9050919050565b7f5c91514091af31f62f596a314af7d5be40146b2f2355969392f055e12e0982fb81565b6000610a2c7f08fb31c3e81624356c3314088aa971b73bcc82d22bc3e3b184b4593077ae327883610ab7565b9050919050565b7f19c860a63258efbd0ecb7d55c626237bf5c2044c26c073390b74f0c13c85743381565b610a817f5c91514091af31f62f596a314af7d5be40146b2f2355969392f055e12e0982fb82610c24565b50565b6000610ab07f12ad05bde78c5ab75238ce885307f96ecd482bb402ef831f99e7018a0f169b7b83610ab7565b9050919050565b600080600084815260200190815260200160002060000160008373ffffffffffffffffffffffffffffffffffffffff1673ffffffffffffffffffffffffffffffffffffffff16815260200190815260200160002060009054906101000a900460ff16905092915050565b610b4b7f08fb31c3e81624356c3314088aa971b73bcc82d22bc3e3b184b4593077ae32788261085b565b50565b610b787f19c860a63258efbd0ecb7d55c626237bf5c2044c26c073390b74f0c13c8574338261085b565b50565b610ba57f939b8dfb57ecef2aea54a93a15e86768b9d4089f1ba61c245e6ec980695f4ca48261085b565b50565b6000801b81565b610bd97f19c860a63258efbd0ecb7d55c626237bf5c2044c26c073390b74f0c13c85743382610c24565b50565b7f08fb31c3e81624356c3314088aa971b73bcc82d22bc3e3b184b4593077ae327881565b7f12ad05bde78c5ab75238ce885307f96ecd482bb402ef831f99e7018a0f169b7b81565b610c2d826107dc565b610c3e81610c39610d17565b610d1f565b610c488383610ef7565b505050565b610c777f12ad05bde78c5ab75238ce885307f96ecd482bb402ef831f99e7018a0f169b7b82610c24565b50565b6000610ca67f939b8dfb57ecef2aea54a93a15e86768b9d4089f1ba61c245e6ec980695f4ca483610ab7565b9050919050565b60007f01ffc9a7000000000000000000000000000000000000000000000000000000007bffffffffffffffffffffffffffffffffffffffffffffffffffffffff1916827bffffffffffffffffffffffffffffffffffffffffffffffffffffffff1916149050919050565b600033905090565b610d298282610ab7565b610db857610d4e8173ffffffffffffffffffffffffffffffffffffffff166014610fd8565b610d5c8360001c6020610fd8565b604051602001610d6d92919061169b565b6040516020818303038152906040526040517f08c379a0000000000000000000000000000000000000000000000000000000008152600401610daf919061171f565b60405180910390fd5b5050565b6000610dc7836107dc565b905081600080858152602001908152602001600020600101819055508181847fbd79b86ffe0ab8e8776151514217cd7cacd52c909f66475c3af44e129f0b00ff60405160405180910390a4505050565b610e218282610ab7565b610ef357600160008084815260200190815260200160002060000160008373ffffffffffffffffffffffffffffffffffffffff1673ffffffffffffffffffffffffffffffffffffffff16815260200190815260200160002060006101000a81548160ff021916908315150217905550610e98610d17565b73ffffffffffffffffffffffffffffffffffffffff168173ffffffffffffffffffffffffffffffffffffffff16837f2f8788117e7eff1d82e926ec794901d17c78024a50270940304540a733656f0d60405160405180910390a45b5050565b610f018282610ab7565b15610fd457600080600084815260200190815260200160002060000160008373ffffffffffffffffffffffffffffffffffffffff1673ffffffffffffffffffffffffffffffffffffffff16815260200190815260200160002060006101000a81548160ff021916908315150217905550610f79610d17565b73ffffffffffffffffffffffffffffffffffffffff168173ffffffffffffffffffffffffffffffffffffffff16837ff6391f5c32d9c69d2a47ea670b442974b53935d1edc7fd64eb21e047a839171b60405160405180910390a45b5050565b606060006002836002610feb919061177a565b610ff591906117d4565b67ffffffffffffffff81111561100e5761100d61182a565b5b6040519080825280601f01601f1916602001820160405280156110405781602001600182028036833780820191505090505b5090507f30000000000000000000000000000000000000000000000000000000000000008160008151811061107857611077611859565b5b60200101907effffffffffffffffffffffffffffffffffffffffffffffffffffffffffffff1916908160001a9053507f7800000000000000000000000000000000000000000000000000000000000000816001815181106110dc576110db611859565b5b60200101907effffffffffffffffffffffffffffffffffffffffffffffffffffffffffffff1916908160001a9053506000600184600261111c919061177a565b61112691906117d4565b90505b60018111156111c6577f3031323334353637383961626364656600000000000000000000000000000000600f86166010811061116857611167611859565b5b1a60f81b82828151811061117f5761117e611859565b5b60200101907effffffffffffffffffffffffffffffffffffffffffffffffffffffffffffff1916908160001a905350600485901c9450806111bf90611888565b9050611129565b506000841461120a576040517f08c379a0000000000000000000000000000000000000000000000000000000008152600401611201906118fe565b60405180910390fd5b8091505092915050565b600080fd5b60007fffffffff0000000000000000000000000000000000000000000000000000000082169050919050565b61124e81611219565b811461125957600080fd5b50565b60008135905061126b81611245565b92915050565b60006020828403121561128757611286611214565b5b60006112958482850161125c565b91505092915050565b60008115159050919050565b6112b38161129e565b82525050565b60006020820190506112ce60008301846112aa565b92915050565b600073ffffffffffffffffffffffffffffffffffffffff82169050919050565b60006112ff826112d4565b9050919050565b61130f816112f4565b811461131a57600080fd5b50565b60008135905061132c81611306565b92915050565b60006020828403121561134857611347611214565b5b60006113568482850161131d565b91505092915050565b6000819050919050565b600061138461137f61137a846112d4565b61135f565b6112d4565b9050919050565b600061139682611369565b9050919050565b60006113a88261138b565b9050919050565b6113b88161139d565b82525050565b60006020820190506113d360008301846113af565b92915050565b6000819050919050565b6113ec816113d9565b81146113f757600080fd5b50565b600081359050611409816113e3565b92915050565b6000806040838503121561142657611425611214565b5b6000611434858286016113fa565b9250506020611445858286016113fa565b9150509250929050565b60006020828403121561146557611464611214565b5b6000611473848285016113fa565b91505092915050565b611485816113d9565b82525050565b60006020820190506114a0600083018461147c565b92915050565b600080604083850312156114bd576114bc611214565b5b60006114cb858286016113fa565b92505060206114dc8582860161131d565b9150509250929050565b600082825260208201905092915050565b7f416363657373436f6e74726f6c3a2063616e206f6e6c792072656e6f756e636560008201527f20726f6c657320666f722073656c660000000000000000000000000000000000602082015250565b6000611553602f836114e6565b915061155e826114f7565b604082019050919050565b6000602082019050818103600083015261158281611546565b9050919050565b600081905092915050565b7f416363657373436f6e74726f6c3a206163636f756e7420000000000000000000600082015250565b60006115ca601783611589565b91506115d582611594565b601782019050919050565b600081519050919050565b60005b838110156116095780820151818401526020810190506115ee565b83811115611618576000848401525b50505050565b6000611629826115e0565b6116338185611589565b93506116438185602086016115eb565b80840191505092915050565b7f206973206d697373696e6720726f6c6520000000000000000000000000000000600082015250565b6000611685601183611589565b91506116908261164f565b601182019050919050565b60006116a6826115bd565b91506116b2828561161e565b91506116bd82611678565b91506116c9828461161e565b91508190509392505050565b6000601f19601f8301169050919050565b60006116f1826115e0565b6116fb81856114e6565b935061170b8185602086016115eb565b611714816116d5565b840191505092915050565b6000602082019050818103600083015261173981846116e6565b905092915050565b6000819050919050565b7f4e487b7100000000000000000000000000000000000000000000000000000000600052601160045260246000fd5b600061178582611741565b915061179083611741565b9250817fffffffffffffffffffffffffffffffffffffffffffffffffffffffffffffffff04831182151516156117c9576117c861174b565b5b828202905092915050565b60006117df82611741565b91506117ea83611741565b9250827fffffffffffffffffffffffffffffffffffffffffffffffffffffffffffffffff0382111561181f5761181e61174b565b5b828201905092915050565b7f4e487b7100000000000000000000000000000000000000000000000000000000600052604160045260246000fd5b7f4e487b7100000000000000000000000000000000000000000000000000000000600052603260045260246000fd5b600061189382611741565b915060008214156118a7576118a661174b565b5b600182039050919050565b7f537472696e67733a20686578206c656e67746820696e73756666696369656e74600082015250565b60006118e86020836114e6565b91506118f3826118b2565b602082019050919050565b60006020820190508181036000830152611917816118db565b905091905056fea2646970667358221220e5224ca9a494c76f31a19cd26c57c322a094c93f6b77659799b92540d42a768064736f6c634300080a0033",
          "opcodes": "PUSH1 0xA0 PUSH1 0x40 MSTORE CALLVALUE DUP1 ISZERO PUSH3 0x11 JUMPI PUSH1 0x0 DUP1 REVERT JUMPDEST POP PUSH1 0x40 MLOAD PUSH3 0x1E6E CODESIZE SUB DUP1 PUSH3 0x1E6E DUP4 CODECOPY DUP2 DUP2 ADD PUSH1 0x40 MSTORE DUP2 ADD SWAP1 PUSH3 0x37 SWAP2 SWAP1 PUSH3 0x3A1 JUMP JUMPDEST DUP1 PUSH20 0xFFFFFFFFFFFFFFFFFFFFFFFFFFFFFFFFFFFFFFFF AND PUSH1 0x80 DUP2 PUSH20 0xFFFFFFFFFFFFFFFFFFFFFFFFFFFFFFFFFFFFFFFF AND DUP2 MSTORE POP POP PUSH1 0x0 DUP2 PUSH20 0xFFFFFFFFFFFFFFFFFFFFFFFFFFFFFFFFFFFFFFFF AND PUSH4 0xE67178C PUSH1 0x40 MLOAD DUP2 PUSH4 0xFFFFFFFF AND PUSH1 0xE0 SHL DUP2 MSTORE PUSH1 0x4 ADD PUSH1 0x20 PUSH1 0x40 MLOAD DUP1 DUP4 SUB DUP2 DUP7 GAS STATICCALL ISZERO DUP1 ISZERO PUSH3 0xB9 JUMPI RETURNDATASIZE PUSH1 0x0 DUP1 RETURNDATACOPY RETURNDATASIZE PUSH1 0x0 REVERT JUMPDEST POP POP POP POP PUSH1 0x40 MLOAD RETURNDATASIZE PUSH1 0x1F NOT PUSH1 0x1F DUP3 ADD AND DUP3 ADD DUP1 PUSH1 0x40 MSTORE POP DUP2 ADD SWAP1 PUSH3 0xDF SWAP2 SWAP1 PUSH3 0x404 JUMP JUMPDEST SWAP1 POP PUSH1 0x0 PUSH20 0xFFFFFFFFFFFFFFFFFFFFFFFFFFFFFFFFFFFFFFFF AND DUP2 PUSH20 0xFFFFFFFFFFFFFFFFFFFFFFFFFFFFFFFFFFFFFFFF AND EQ ISZERO PUSH1 0x40 MLOAD DUP1 PUSH1 0x40 ADD PUSH1 0x40 MSTORE DUP1 PUSH1 0x2 DUP2 MSTORE PUSH1 0x20 ADD PUSH32 0x3735000000000000000000000000000000000000000000000000000000000000 DUP2 MSTORE POP SWAP1 PUSH3 0x18C JUMPI PUSH1 0x40 MLOAD PUSH32 0x8C379A000000000000000000000000000000000000000000000000000000000 DUP2 MSTORE PUSH1 0x4 ADD PUSH3 0x183 SWAP2 SWAP1 PUSH3 0x4DA JUMP JUMPDEST PUSH1 0x40 MLOAD DUP1 SWAP2 SUB SWAP1 REVERT JUMPDEST POP PUSH3 0x1A2 PUSH1 0x0 DUP1 SHL DUP3 PUSH3 0x1AA PUSH1 0x20 SHL PUSH1 0x20 SHR JUMP JUMPDEST POP POP PUSH3 0x4FE JUMP JUMPDEST PUSH3 0x1BC DUP3 DUP3 PUSH3 0x1C0 PUSH1 0x20 SHL PUSH1 0x20 SHR JUMP JUMPDEST POP POP JUMP JUMPDEST PUSH3 0x1D2 DUP3 DUP3 PUSH3 0x2B1 PUSH1 0x20 SHL PUSH1 0x20 SHR JUMP JUMPDEST PUSH3 0x2AD JUMPI PUSH1 0x1 PUSH1 0x0 DUP1 DUP5 DUP2 MSTORE PUSH1 0x20 ADD SWAP1 DUP2 MSTORE PUSH1 0x20 ADD PUSH1 0x0 KECCAK256 PUSH1 0x0 ADD PUSH1 0x0 DUP4 PUSH20 0xFFFFFFFFFFFFFFFFFFFFFFFFFFFFFFFFFFFFFFFF AND PUSH20 0xFFFFFFFFFFFFFFFFFFFFFFFFFFFFFFFFFFFFFFFF AND DUP2 MSTORE PUSH1 0x20 ADD SWAP1 DUP2 MSTORE PUSH1 0x20 ADD PUSH1 0x0 KECCAK256 PUSH1 0x0 PUSH2 0x100 EXP DUP2 SLOAD DUP2 PUSH1 0xFF MUL NOT AND SWAP1 DUP4 ISZERO ISZERO MUL OR SWAP1 SSTORE POP PUSH3 0x252 PUSH3 0x31B PUSH1 0x20 SHL PUSH1 0x20 SHR JUMP JUMPDEST PUSH20 0xFFFFFFFFFFFFFFFFFFFFFFFFFFFFFFFFFFFFFFFF AND DUP2 PUSH20 0xFFFFFFFFFFFFFFFFFFFFFFFFFFFFFFFFFFFFFFFF AND DUP4 PUSH32 0x2F8788117E7EFF1D82E926EC794901D17C78024A50270940304540A733656F0D PUSH1 0x40 MLOAD PUSH1 0x40 MLOAD DUP1 SWAP2 SUB SWAP1 LOG4 JUMPDEST POP POP JUMP JUMPDEST PUSH1 0x0 DUP1 PUSH1 0x0 DUP5 DUP2 MSTORE PUSH1 0x20 ADD SWAP1 DUP2 MSTORE PUSH1 0x20 ADD PUSH1 0x0 KECCAK256 PUSH1 0x0 ADD PUSH1 0x0 DUP4 PUSH20 0xFFFFFFFFFFFFFFFFFFFFFFFFFFFFFFFFFFFFFFFF AND PUSH20 0xFFFFFFFFFFFFFFFFFFFFFFFFFFFFFFFFFFFFFFFF AND DUP2 MSTORE PUSH1 0x20 ADD SWAP1 DUP2 MSTORE PUSH1 0x20 ADD PUSH1 0x0 KECCAK256 PUSH1 0x0 SWAP1 SLOAD SWAP1 PUSH2 0x100 EXP SWAP1 DIV PUSH1 0xFF AND SWAP1 POP SWAP3 SWAP2 POP POP JUMP JUMPDEST PUSH1 0x0 CALLER SWAP1 POP SWAP1 JUMP JUMPDEST PUSH1 0x0 DUP1 REVERT JUMPDEST PUSH1 0x0 PUSH20 0xFFFFFFFFFFFFFFFFFFFFFFFFFFFFFFFFFFFFFFFF DUP3 AND SWAP1 POP SWAP2 SWAP1 POP JUMP JUMPDEST PUSH1 0x0 PUSH3 0x355 DUP3 PUSH3 0x328 JUMP JUMPDEST SWAP1 POP SWAP2 SWAP1 POP JUMP JUMPDEST PUSH1 0x0 PUSH3 0x369 DUP3 PUSH3 0x348 JUMP JUMPDEST SWAP1 POP SWAP2 SWAP1 POP JUMP JUMPDEST PUSH3 0x37B DUP2 PUSH3 0x35C JUMP JUMPDEST DUP2 EQ PUSH3 0x387 JUMPI PUSH1 0x0 DUP1 REVERT JUMPDEST POP JUMP JUMPDEST PUSH1 0x0 DUP2 MLOAD SWAP1 POP PUSH3 0x39B DUP2 PUSH3 0x370 JUMP JUMPDEST SWAP3 SWAP2 POP POP JUMP JUMPDEST PUSH1 0x0 PUSH1 0x20 DUP3 DUP5 SUB SLT ISZERO PUSH3 0x3BA JUMPI PUSH3 0x3B9 PUSH3 0x323 JUMP JUMPDEST JUMPDEST PUSH1 0x0 PUSH3 0x3CA DUP5 DUP3 DUP6 ADD PUSH3 0x38A JUMP JUMPDEST SWAP2 POP POP SWAP3 SWAP2 POP POP JUMP JUMPDEST PUSH3 0x3DE DUP2 PUSH3 0x348 JUMP JUMPDEST DUP2 EQ PUSH3 0x3EA JUMPI PUSH1 0x0 DUP1 REVERT JUMPDEST POP JUMP JUMPDEST PUSH1 0x0 DUP2 MLOAD SWAP1 POP PUSH3 0x3FE DUP2 PUSH3 0x3D3 JUMP JUMPDEST SWAP3 SWAP2 POP POP JUMP JUMPDEST PUSH1 0x0 PUSH1 0x20 DUP3 DUP5 SUB SLT ISZERO PUSH3 0x41D JUMPI PUSH3 0x41C PUSH3 0x323 JUMP JUMPDEST JUMPDEST PUSH1 0x0 PUSH3 0x42D DUP5 DUP3 DUP6 ADD PUSH3 0x3ED JUMP JUMPDEST SWAP2 POP POP SWAP3 SWAP2 POP POP JUMP JUMPDEST PUSH1 0x0 DUP2 MLOAD SWAP1 POP SWAP2 SWAP1 POP JUMP JUMPDEST PUSH1 0x0 DUP3 DUP3 MSTORE PUSH1 0x20 DUP3 ADD SWAP1 POP SWAP3 SWAP2 POP POP JUMP JUMPDEST PUSH1 0x0 JUMPDEST DUP4 DUP2 LT ISZERO PUSH3 0x472 JUMPI DUP1 DUP3 ADD MLOAD DUP2 DUP5 ADD MSTORE PUSH1 0x20 DUP2 ADD SWAP1 POP PUSH3 0x455 JUMP JUMPDEST DUP4 DUP2 GT ISZERO PUSH3 0x482 JUMPI PUSH1 0x0 DUP5 DUP5 ADD MSTORE JUMPDEST POP POP POP POP JUMP JUMPDEST PUSH1 0x0 PUSH1 0x1F NOT PUSH1 0x1F DUP4 ADD AND SWAP1 POP SWAP2 SWAP1 POP JUMP JUMPDEST PUSH1 0x0 PUSH3 0x4A6 DUP3 PUSH3 0x436 JUMP JUMPDEST PUSH3 0x4B2 DUP2 DUP6 PUSH3 0x441 JUMP JUMPDEST SWAP4 POP PUSH3 0x4C4 DUP2 DUP6 PUSH1 0x20 DUP7 ADD PUSH3 0x452 JUMP JUMPDEST PUSH3 0x4CF DUP2 PUSH3 0x488 JUMP JUMPDEST DUP5 ADD SWAP2 POP POP SWAP3 SWAP2 POP POP JUMP JUMPDEST PUSH1 0x0 PUSH1 0x20 DUP3 ADD SWAP1 POP DUP2 DUP2 SUB PUSH1 0x0 DUP4 ADD MSTORE PUSH3 0x4F6 DUP2 DUP5 PUSH3 0x499 JUMP JUMPDEST SWAP1 POP SWAP3 SWAP2 POP POP JUMP JUMPDEST PUSH1 0x80 MLOAD PUSH2 0x1954 PUSH3 0x51A PUSH1 0x0 CODECOPY PUSH1 0x0 PUSH2 0x709 ADD MSTORE PUSH2 0x1954 PUSH1 0x0 RETURN INVALID PUSH1 0x80 PUSH1 0x40 MSTORE CALLVALUE DUP1 ISZERO PUSH2 0x10 JUMPI PUSH1 0x0 DUP1 REVERT JUMPDEST POP PUSH1 0x4 CALLDATASIZE LT PUSH2 0x1FB JUMPI PUSH1 0x0 CALLDATALOAD PUSH1 0xE0 SHR DUP1 PUSH4 0x674B5E4D GT PUSH2 0x11A JUMPI DUP1 PUSH4 0x9A2B96F7 GT PUSH2 0xAD JUMPI DUP1 PUSH4 0xB5BFDDEA GT PUSH2 0x7C JUMPI DUP1 PUSH4 0xB5BFDDEA EQ PUSH2 0x5BC JUMPI DUP1 PUSH4 0xB8F6DBA7 EQ PUSH2 0x5DA JUMPI DUP1 PUSH4 0xD547741F EQ PUSH2 0x5F8 JUMPI DUP1 PUSH4 0xF83695CB EQ PUSH2 0x614 JUMPI DUP1 PUSH4 0xFA50F297 EQ PUSH2 0x630 JUMPI PUSH2 0x1FB JUMP JUMPDEST DUP1 PUSH4 0x9A2B96F7 EQ PUSH2 0x54A JUMPI DUP1 PUSH4 0x9AC9D80B EQ PUSH2 0x566 JUMPI DUP1 PUSH4 0xA217FDDF EQ PUSH2 0x582 JUMPI DUP1 PUSH4 0xA21BCE15 EQ PUSH2 0x5A0 JUMPI PUSH2 0x1FB JUMP JUMPDEST DUP1 PUSH4 0x7A9A93F4 GT PUSH2 0xE9 JUMPI DUP1 PUSH4 0x7A9A93F4 EQ PUSH2 0x4B2 JUMPI DUP1 PUSH4 0x7BE53CA1 EQ PUSH2 0x4CE JUMPI DUP1 PUSH4 0x91D14854 EQ PUSH2 0x4FE JUMPI DUP1 PUSH4 0x9712FDF8 EQ PUSH2 0x52E JUMPI PUSH2 0x1FB JUMP JUMPDEST DUP1 PUSH4 0x674B5E4D EQ PUSH2 0x416 JUMPI DUP1 PUSH4 0x6E76FC8F EQ PUSH2 0x446 JUMPI DUP1 PUSH4 0x726600CE EQ PUSH2 0x464 JUMPI DUP1 PUSH4 0x78BB0A43 EQ PUSH2 0x494 JUMPI PUSH2 0x1FB JUMP JUMPDEST DUP1 PUSH4 0x2500F2B6 GT PUSH2 0x192 JUMPI DUP1 PUSH4 0x3C5A08E5 GT PUSH2 0x161 JUMPI DUP1 PUSH4 0x3C5A08E5 EQ PUSH2 0x3A2 JUMPI DUP1 PUSH4 0x4F16B425 EQ PUSH2 0x3BE JUMPI DUP1 PUSH4 0x5577B7A9 EQ PUSH2 0x3DC JUMPI DUP1 PUSH4 0x5B9A94E4 EQ PUSH2 0x3FA JUMPI PUSH2 0x1FB JUMP JUMPDEST DUP1 PUSH4 0x2500F2B6 EQ PUSH2 0x31E JUMPI DUP1 PUSH4 0x253CF980 EQ PUSH2 0x34E JUMPI DUP1 PUSH4 0x2F2FF15D EQ PUSH2 0x36A JUMPI DUP1 PUSH4 0x36568ABE EQ PUSH2 0x386 JUMPI PUSH2 0x1FB JUMP JUMPDEST DUP1 PUSH4 0x179EFB09 GT PUSH2 0x1CE JUMPI DUP1 PUSH4 0x179EFB09 EQ PUSH2 0x29A JUMPI DUP1 PUSH4 0x1E4E0091 EQ PUSH2 0x2B6 JUMPI DUP1 PUSH4 0x22650CAF EQ PUSH2 0x2D2 JUMPI DUP1 PUSH4 0x248A9CA3 EQ PUSH2 0x2EE JUMPI PUSH2 0x1FB JUMP JUMPDEST DUP1 PUSH4 0x1FFC9A7 EQ PUSH2 0x200 JUMPI DUP1 PUSH4 0x4DF017D EQ PUSH2 0x230 JUMPI DUP1 PUSH4 0x542975C EQ PUSH2 0x24C JUMPI DUP1 PUSH4 0x13EE32E0 EQ PUSH2 0x26A JUMPI JUMPDEST PUSH1 0x0 DUP1 REVERT JUMPDEST PUSH2 0x21A PUSH1 0x4 DUP1 CALLDATASIZE SUB DUP2 ADD SWAP1 PUSH2 0x215 SWAP2 SWAP1 PUSH2 0x1271 JUMP JUMPDEST PUSH2 0x660 JUMP JUMPDEST PUSH1 0x40 MLOAD PUSH2 0x227 SWAP2 SWAP1 PUSH2 0x12B9 JUMP JUMPDEST PUSH1 0x40 MLOAD DUP1 SWAP2 SUB SWAP1 RETURN JUMPDEST PUSH2 0x24A PUSH1 0x4 DUP1 CALLDATASIZE SUB DUP2 ADD SWAP1 PUSH2 0x245 SWAP2 SWAP1 PUSH2 0x1332 JUMP JUMPDEST PUSH2 0x6DA JUMP JUMPDEST STOP JUMPDEST PUSH2 0x254 PUSH2 0x707 JUMP JUMPDEST PUSH1 0x40 MLOAD PUSH2 0x261 SWAP2 SWAP1 PUSH2 0x13BE JUMP JUMPDEST PUSH1 0x40 MLOAD DUP1 SWAP2 SUB SWAP1 RETURN JUMPDEST PUSH2 0x284 PUSH1 0x4 DUP1 CALLDATASIZE SUB DUP2 ADD SWAP1 PUSH2 0x27F SWAP2 SWAP1 PUSH2 0x1332 JUMP JUMPDEST PUSH2 0x72B JUMP JUMPDEST PUSH1 0x40 MLOAD PUSH2 0x291 SWAP2 SWAP1 PUSH2 0x12B9 JUMP JUMPDEST PUSH1 0x40 MLOAD DUP1 SWAP2 SUB SWAP1 RETURN JUMPDEST PUSH2 0x2B4 PUSH1 0x4 DUP1 CALLDATASIZE SUB DUP2 ADD SWAP1 PUSH2 0x2AF SWAP2 SWAP1 PUSH2 0x1332 JUMP JUMPDEST PUSH2 0x75E JUMP JUMPDEST STOP JUMPDEST PUSH2 0x2D0 PUSH1 0x4 DUP1 CALLDATASIZE SUB DUP2 ADD SWAP1 PUSH2 0x2CB SWAP2 SWAP1 PUSH2 0x140F JUMP JUMPDEST PUSH2 0x78B JUMP JUMPDEST STOP JUMPDEST PUSH2 0x2EC PUSH1 0x4 DUP1 CALLDATASIZE SUB DUP2 ADD SWAP1 PUSH2 0x2E7 SWAP2 SWAP1 PUSH2 0x1332 JUMP JUMPDEST PUSH2 0x7AF JUMP JUMPDEST STOP JUMPDEST PUSH2 0x308 PUSH1 0x4 DUP1 CALLDATASIZE SUB DUP2 ADD SWAP1 PUSH2 0x303 SWAP2 SWAP1 PUSH2 0x144F JUMP JUMPDEST PUSH2 0x7DC JUMP JUMPDEST PUSH1 0x40 MLOAD PUSH2 0x315 SWAP2 SWAP1 PUSH2 0x148B JUMP JUMPDEST PUSH1 0x40 MLOAD DUP1 SWAP2 SUB SWAP1 RETURN JUMPDEST PUSH2 0x338 PUSH1 0x4 DUP1 CALLDATASIZE SUB DUP2 ADD SWAP1 PUSH2 0x333 SWAP2 SWAP1 PUSH2 0x1332 JUMP JUMPDEST PUSH2 0x7FB JUMP JUMPDEST PUSH1 0x40 MLOAD PUSH2 0x345 SWAP2 SWAP1 PUSH2 0x12B9 JUMP JUMPDEST PUSH1 0x40 MLOAD DUP1 SWAP2 SUB SWAP1 RETURN JUMPDEST PUSH2 0x368 PUSH1 0x4 DUP1 CALLDATASIZE SUB DUP2 ADD SWAP1 PUSH2 0x363 SWAP2 SWAP1 PUSH2 0x1332 JUMP JUMPDEST PUSH2 0x82E JUMP JUMPDEST STOP JUMPDEST PUSH2 0x384 PUSH1 0x4 DUP1 CALLDATASIZE SUB DUP2 ADD SWAP1 PUSH2 0x37F SWAP2 SWAP1 PUSH2 0x14A6 JUMP JUMPDEST PUSH2 0x85B JUMP JUMPDEST STOP JUMPDEST PUSH2 0x3A0 PUSH1 0x4 DUP1 CALLDATASIZE SUB DUP2 ADD SWAP1 PUSH2 0x39B SWAP2 SWAP1 PUSH2 0x14A6 JUMP JUMPDEST PUSH2 0x884 JUMP JUMPDEST STOP JUMPDEST PUSH2 0x3BC PUSH1 0x4 DUP1 CALLDATASIZE SUB DUP2 ADD SWAP1 PUSH2 0x3B7 SWAP2 SWAP1 PUSH2 0x1332 JUMP JUMPDEST PUSH2 0x907 JUMP JUMPDEST STOP JUMPDEST PUSH2 0x3C6 PUSH2 0x934 JUMP JUMPDEST PUSH1 0x40 MLOAD PUSH2 0x3D3 SWAP2 SWAP1 PUSH2 0x148B JUMP JUMPDEST PUSH1 0x40 MLOAD DUP1 SWAP2 SUB SWAP1 RETURN JUMPDEST PUSH2 0x3E4 PUSH2 0x958 JUMP JUMPDEST PUSH1 0x40 MLOAD PUSH2 0x3F1 SWAP2 SWAP1 PUSH2 0x148B JUMP JUMPDEST PUSH1 0x40 MLOAD DUP1 SWAP2 SUB SWAP1 RETURN JUMPDEST PUSH2 0x414 PUSH1 0x4 DUP1 CALLDATASIZE SUB DUP2 ADD SWAP1 PUSH2 0x40F SWAP2 SWAP1 PUSH2 0x1332 JUMP JUMPDEST PUSH2 0x97C JUMP JUMPDEST STOP JUMPDEST PUSH2 0x430 PUSH1 0x4 DUP1 CALLDATASIZE SUB DUP2 ADD SWAP1 PUSH2 0x42B SWAP2 SWAP1 PUSH2 0x1332 JUMP JUMPDEST PUSH2 0x9A9 JUMP JUMPDEST PUSH1 0x40 MLOAD PUSH2 0x43D SWAP2 SWAP1 PUSH2 0x12B9 JUMP JUMPDEST PUSH1 0x40 MLOAD DUP1 SWAP2 SUB SWAP1 RETURN JUMPDEST PUSH2 0x44E PUSH2 0x9DC JUMP JUMPDEST PUSH1 0x40 MLOAD PUSH2 0x45B SWAP2 SWAP1 PUSH2 0x148B JUMP JUMPDEST PUSH1 0x40 MLOAD DUP1 SWAP2 SUB SWAP1 RETURN JUMPDEST PUSH2 0x47E PUSH1 0x4 DUP1 CALLDATASIZE SUB DUP2 ADD SWAP1 PUSH2 0x479 SWAP2 SWAP1 PUSH2 0x1332 JUMP JUMPDEST PUSH2 0xA00 JUMP JUMPDEST PUSH1 0x40 MLOAD PUSH2 0x48B SWAP2 SWAP1 PUSH2 0x12B9 JUMP JUMPDEST PUSH1 0x40 MLOAD DUP1 SWAP2 SUB SWAP1 RETURN JUMPDEST PUSH2 0x49C PUSH2 0xA33 JUMP JUMPDEST PUSH1 0x40 MLOAD PUSH2 0x4A9 SWAP2 SWAP1 PUSH2 0x148B JUMP JUMPDEST PUSH1 0x40 MLOAD DUP1 SWAP2 SUB SWAP1 RETURN JUMPDEST PUSH2 0x4CC PUSH1 0x4 DUP1 CALLDATASIZE SUB DUP2 ADD SWAP1 PUSH2 0x4C7 SWAP2 SWAP1 PUSH2 0x1332 JUMP JUMPDEST PUSH2 0xA57 JUMP JUMPDEST STOP JUMPDEST PUSH2 0x4E8 PUSH1 0x4 DUP1 CALLDATASIZE SUB DUP2 ADD SWAP1 PUSH2 0x4E3 SWAP2 SWAP1 PUSH2 0x1332 JUMP JUMPDEST PUSH2 0xA84 JUMP JUMPDEST PUSH1 0x40 MLOAD PUSH2 0x4F5 SWAP2 SWAP1 PUSH2 0x12B9 JUMP JUMPDEST PUSH1 0x40 MLOAD DUP1 SWAP2 SUB SWAP1 RETURN JUMPDEST PUSH2 0x518 PUSH1 0x4 DUP1 CALLDATASIZE SUB DUP2 ADD SWAP1 PUSH2 0x513 SWAP2 SWAP1 PUSH2 0x14A6 JUMP JUMPDEST PUSH2 0xAB7 JUMP JUMPDEST PUSH1 0x40 MLOAD PUSH2 0x525 SWAP2 SWAP1 PUSH2 0x12B9 JUMP JUMPDEST PUSH1 0x40 MLOAD DUP1 SWAP2 SUB SWAP1 RETURN JUMPDEST PUSH2 0x548 PUSH1 0x4 DUP1 CALLDATASIZE SUB DUP2 ADD SWAP1 PUSH2 0x543 SWAP2 SWAP1 PUSH2 0x1332 JUMP JUMPDEST PUSH2 0xB21 JUMP JUMPDEST STOP JUMPDEST PUSH2 0x564 PUSH1 0x4 DUP1 CALLDATASIZE SUB DUP2 ADD SWAP1 PUSH2 0x55F SWAP2 SWAP1 PUSH2 0x1332 JUMP JUMPDEST PUSH2 0xB4E JUMP JUMPDEST STOP JUMPDEST PUSH2 0x580 PUSH1 0x4 DUP1 CALLDATASIZE SUB DUP2 ADD SWAP1 PUSH2 0x57B SWAP2 SWAP1 PUSH2 0x1332 JUMP JUMPDEST PUSH2 0xB7B JUMP JUMPDEST STOP JUMPDEST PUSH2 0x58A PUSH2 0xBA8 JUMP JUMPDEST PUSH1 0x40 MLOAD PUSH2 0x597 SWAP2 SWAP1 PUSH2 0x148B JUMP JUMPDEST PUSH1 0x40 MLOAD DUP1 SWAP2 SUB SWAP1 RETURN JUMPDEST PUSH2 0x5BA PUSH1 0x4 DUP1 CALLDATASIZE SUB DUP2 ADD SWAP1 PUSH2 0x5B5 SWAP2 SWAP1 PUSH2 0x1332 JUMP JUMPDEST PUSH2 0xBAF JUMP JUMPDEST STOP JUMPDEST PUSH2 0x5C4 PUSH2 0xBDC JUMP JUMPDEST PUSH1 0x40 MLOAD PUSH2 0x5D1 SWAP2 SWAP1 PUSH2 0x148B JUMP JUMPDEST PUSH1 0x40 MLOAD DUP1 SWAP2 SUB SWAP1 RETURN JUMPDEST PUSH2 0x5E2 PUSH2 0xC00 JUMP JUMPDEST PUSH1 0x40 MLOAD PUSH2 0x5EF SWAP2 SWAP1 PUSH2 0x148B JUMP JUMPDEST PUSH1 0x40 MLOAD DUP1 SWAP2 SUB SWAP1 RETURN JUMPDEST PUSH2 0x612 PUSH1 0x4 DUP1 CALLDATASIZE SUB DUP2 ADD SWAP1 PUSH2 0x60D SWAP2 SWAP1 PUSH2 0x14A6 JUMP JUMPDEST PUSH2 0xC24 JUMP JUMPDEST STOP JUMPDEST PUSH2 0x62E PUSH1 0x4 DUP1 CALLDATASIZE SUB DUP2 ADD SWAP1 PUSH2 0x629 SWAP2 SWAP1 PUSH2 0x1332 JUMP JUMPDEST PUSH2 0xC4D JUMP JUMPDEST STOP JUMPDEST PUSH2 0x64A PUSH1 0x4 DUP1 CALLDATASIZE SUB DUP2 ADD SWAP1 PUSH2 0x645 SWAP2 SWAP1 PUSH2 0x1332 JUMP JUMPDEST PUSH2 0xC7A JUMP JUMPDEST PUSH1 0x40 MLOAD PUSH2 0x657 SWAP2 SWAP1 PUSH2 0x12B9 JUMP JUMPDEST PUSH1 0x40 MLOAD DUP1 SWAP2 SUB SWAP1 RETURN JUMPDEST PUSH1 0x0 PUSH32 0x7965DB0B00000000000000000000000000000000000000000000000000000000 PUSH28 0xFFFFFFFFFFFFFFFFFFFFFFFFFFFFFFFFFFFFFFFFFFFFFFFFFFFFFFFF NOT AND DUP3 PUSH28 0xFFFFFFFFFFFFFFFFFFFFFFFFFFFFFFFFFFFFFFFFFFFFFFFFFFFFFFFF NOT AND EQ DUP1 PUSH2 0x6D3 JUMPI POP PUSH2 0x6D2 DUP3 PUSH2 0xCAD JUMP JUMPDEST JUMPDEST SWAP1 POP SWAP2 SWAP1 POP JUMP JUMPDEST PUSH2 0x704 PUSH32 0x8FB31C3E81624356C3314088AA971B73BCC82D22BC3E3B184B4593077AE3278 DUP3 PUSH2 0xC24 JUMP JUMPDEST POP JUMP JUMPDEST PUSH32 0x0 DUP2 JUMP JUMPDEST PUSH1 0x0 PUSH2 0x757 PUSH32 0x19C860A63258EFBD0ECB7D55C626237BF5C2044C26C073390B74F0C13C857433 DUP4 PUSH2 0xAB7 JUMP JUMPDEST SWAP1 POP SWAP2 SWAP1 POP JUMP JUMPDEST PUSH2 0x788 PUSH32 0x5C91514091AF31F62F596A314AF7D5BE40146B2F2355969392F055E12E0982FB DUP3 PUSH2 0x85B JUMP JUMPDEST POP JUMP JUMPDEST PUSH1 0x0 DUP1 SHL PUSH2 0x7A0 DUP2 PUSH2 0x79B PUSH2 0xD17 JUMP JUMPDEST PUSH2 0xD1F JUMP JUMPDEST PUSH2 0x7AA DUP4 DUP4 PUSH2 0xDBC JUMP JUMPDEST POP POP POP JUMP JUMPDEST PUSH2 0x7D9 PUSH32 0x12AD05BDE78C5AB75238CE885307F96ECD482BB402EF831F99E7018A0F169B7B DUP3 PUSH2 0x85B JUMP JUMPDEST POP JUMP JUMPDEST PUSH1 0x0 DUP1 PUSH1 0x0 DUP4 DUP2 MSTORE PUSH1 0x20 ADD SWAP1 DUP2 MSTORE PUSH1 0x20 ADD PUSH1 0x0 KECCAK256 PUSH1 0x1 ADD SLOAD SWAP1 POP SWAP2 SWAP1 POP JUMP JUMPDEST PUSH1 0x0 PUSH2 0x827 PUSH32 0x5C91514091AF31F62F596A314AF7D5BE40146B2F2355969392F055E12E0982FB DUP4 PUSH2 0xAB7 JUMP JUMPDEST SWAP1 POP SWAP2 SWAP1 POP JUMP JUMPDEST PUSH2 0x858 PUSH32 0x939B8DFB57ECEF2AEA54A93A15E86768B9D4089F1BA61C245E6EC980695F4CA4 DUP3 PUSH2 0xC24 JUMP JUMPDEST POP JUMP JUMPDEST PUSH2 0x864 DUP3 PUSH2 0x7DC JUMP JUMPDEST PUSH2 0x875 DUP2 PUSH2 0x870 PUSH2 0xD17 JUMP JUMPDEST PUSH2 0xD1F JUMP JUMPDEST PUSH2 0x87F DUP4 DUP4 PUSH2 0xE17 JUMP JUMPDEST POP POP POP JUMP JUMPDEST PUSH2 0x88C PUSH2 0xD17 JUMP JUMPDEST PUSH20 0xFFFFFFFFFFFFFFFFFFFFFFFFFFFFFFFFFFFFFFFF AND DUP2 PUSH20 0xFFFFFFFFFFFFFFFFFFFFFFFFFFFFFFFFFFFFFFFF AND EQ PUSH2 0x8F9 JUMPI PUSH1 0x40 MLOAD PUSH32 0x8C379A000000000000000000000000000000000000000000000000000000000 DUP2 MSTORE PUSH1 0x4 ADD PUSH2 0x8F0 SWAP1 PUSH2 0x1569 JUMP JUMPDEST PUSH1 0x40 MLOAD DUP1 SWAP2 SUB SWAP1 REVERT JUMPDEST PUSH2 0x903 DUP3 DUP3 PUSH2 0xEF7 JUMP JUMPDEST POP POP JUMP JUMPDEST PUSH2 0x931 PUSH32 0x8AA855A911518ECFBE5BC3088C8F3DDA7BADF130FAAF8ACE33FDC33828E18167 DUP3 PUSH2 0xC24 JUMP JUMPDEST POP JUMP JUMPDEST PUSH32 0x8AA855A911518ECFBE5BC3088C8F3DDA7BADF130FAAF8ACE33FDC33828E18167 DUP2 JUMP JUMPDEST PUSH32 0x939B8DFB57ECEF2AEA54A93A15E86768B9D4089F1BA61C245E6EC980695F4CA4 DUP2 JUMP JUMPDEST PUSH2 0x9A6 PUSH32 0x8AA855A911518ECFBE5BC3088C8F3DDA7BADF130FAAF8ACE33FDC33828E18167 DUP3 PUSH2 0x85B JUMP JUMPDEST POP JUMP JUMPDEST PUSH1 0x0 PUSH2 0x9D5 PUSH32 0x8AA855A911518ECFBE5BC3088C8F3DDA7BADF130FAAF8ACE33FDC33828E18167 DUP4 PUSH2 0xAB7 JUMP JUMPDEST SWAP1 POP SWAP2 SWAP1 POP JUMP JUMPDEST PUSH32 0x5C91514091AF31F62F596A314AF7D5BE40146B2F2355969392F055E12E0982FB DUP2 JUMP JUMPDEST PUSH1 0x0 PUSH2 0xA2C PUSH32 0x8FB31C3E81624356C3314088AA971B73BCC82D22BC3E3B184B4593077AE3278 DUP4 PUSH2 0xAB7 JUMP JUMPDEST SWAP1 POP SWAP2 SWAP1 POP JUMP JUMPDEST PUSH32 0x19C860A63258EFBD0ECB7D55C626237BF5C2044C26C073390B74F0C13C857433 DUP2 JUMP JUMPDEST PUSH2 0xA81 PUSH32 0x5C91514091AF31F62F596A314AF7D5BE40146B2F2355969392F055E12E0982FB DUP3 PUSH2 0xC24 JUMP JUMPDEST POP JUMP JUMPDEST PUSH1 0x0 PUSH2 0xAB0 PUSH32 0x12AD05BDE78C5AB75238CE885307F96ECD482BB402EF831F99E7018A0F169B7B DUP4 PUSH2 0xAB7 JUMP JUMPDEST SWAP1 POP SWAP2 SWAP1 POP JUMP JUMPDEST PUSH1 0x0 DUP1 PUSH1 0x0 DUP5 DUP2 MSTORE PUSH1 0x20 ADD SWAP1 DUP2 MSTORE PUSH1 0x20 ADD PUSH1 0x0 KECCAK256 PUSH1 0x0 ADD PUSH1 0x0 DUP4 PUSH20 0xFFFFFFFFFFFFFFFFFFFFFFFFFFFFFFFFFFFFFFFF AND PUSH20 0xFFFFFFFFFFFFFFFFFFFFFFFFFFFFFFFFFFFFFFFF AND DUP2 MSTORE PUSH1 0x20 ADD SWAP1 DUP2 MSTORE PUSH1 0x20 ADD PUSH1 0x0 KECCAK256 PUSH1 0x0 SWAP1 SLOAD SWAP1 PUSH2 0x100 EXP SWAP1 DIV PUSH1 0xFF AND SWAP1 POP SWAP3 SWAP2 POP POP JUMP JUMPDEST PUSH2 0xB4B PUSH32 0x8FB31C3E81624356C3314088AA971B73BCC82D22BC3E3B184B4593077AE3278 DUP3 PUSH2 0x85B JUMP JUMPDEST POP JUMP JUMPDEST PUSH2 0xB78 PUSH32 0x19C860A63258EFBD0ECB7D55C626237BF5C2044C26C073390B74F0C13C857433 DUP3 PUSH2 0x85B JUMP JUMPDEST POP JUMP JUMPDEST PUSH2 0xBA5 PUSH32 0x939B8DFB57ECEF2AEA54A93A15E86768B9D4089F1BA61C245E6EC980695F4CA4 DUP3 PUSH2 0x85B JUMP JUMPDEST POP JUMP JUMPDEST PUSH1 0x0 DUP1 SHL DUP2 JUMP JUMPDEST PUSH2 0xBD9 PUSH32 0x19C860A63258EFBD0ECB7D55C626237BF5C2044C26C073390B74F0C13C857433 DUP3 PUSH2 0xC24 JUMP JUMPDEST POP JUMP JUMPDEST PUSH32 0x8FB31C3E81624356C3314088AA971B73BCC82D22BC3E3B184B4593077AE3278 DUP2 JUMP JUMPDEST PUSH32 0x12AD05BDE78C5AB75238CE885307F96ECD482BB402EF831F99E7018A0F169B7B DUP2 JUMP JUMPDEST PUSH2 0xC2D DUP3 PUSH2 0x7DC JUMP JUMPDEST PUSH2 0xC3E DUP2 PUSH2 0xC39 PUSH2 0xD17 JUMP JUMPDEST PUSH2 0xD1F JUMP JUMPDEST PUSH2 0xC48 DUP4 DUP4 PUSH2 0xEF7 JUMP JUMPDEST POP POP POP JUMP JUMPDEST PUSH2 0xC77 PUSH32 0x12AD05BDE78C5AB75238CE885307F96ECD482BB402EF831F99E7018A0F169B7B DUP3 PUSH2 0xC24 JUMP JUMPDEST POP JUMP JUMPDEST PUSH1 0x0 PUSH2 0xCA6 PUSH32 0x939B8DFB57ECEF2AEA54A93A15E86768B9D4089F1BA61C245E6EC980695F4CA4 DUP4 PUSH2 0xAB7 JUMP JUMPDEST SWAP1 POP SWAP2 SWAP1 POP JUMP JUMPDEST PUSH1 0x0 PUSH32 0x1FFC9A700000000000000000000000000000000000000000000000000000000 PUSH28 0xFFFFFFFFFFFFFFFFFFFFFFFFFFFFFFFFFFFFFFFFFFFFFFFFFFFFFFFF NOT AND DUP3 PUSH28 0xFFFFFFFFFFFFFFFFFFFFFFFFFFFFFFFFFFFFFFFFFFFFFFFFFFFFFFFF NOT AND EQ SWAP1 POP SWAP2 SWAP1 POP JUMP JUMPDEST PUSH1 0x0 CALLER SWAP1 POP SWAP1 JUMP JUMPDEST PUSH2 0xD29 DUP3 DUP3 PUSH2 0xAB7 JUMP JUMPDEST PUSH2 0xDB8 JUMPI PUSH2 0xD4E DUP2 PUSH20 0xFFFFFFFFFFFFFFFFFFFFFFFFFFFFFFFFFFFFFFFF AND PUSH1 0x14 PUSH2 0xFD8 JUMP JUMPDEST PUSH2 0xD5C DUP4 PUSH1 0x0 SHR PUSH1 0x20 PUSH2 0xFD8 JUMP JUMPDEST PUSH1 0x40 MLOAD PUSH1 0x20 ADD PUSH2 0xD6D SWAP3 SWAP2 SWAP1 PUSH2 0x169B JUMP JUMPDEST PUSH1 0x40 MLOAD PUSH1 0x20 DUP2 DUP4 SUB SUB DUP2 MSTORE SWAP1 PUSH1 0x40 MSTORE PUSH1 0x40 MLOAD PUSH32 0x8C379A000000000000000000000000000000000000000000000000000000000 DUP2 MSTORE PUSH1 0x4 ADD PUSH2 0xDAF SWAP2 SWAP1 PUSH2 0x171F JUMP JUMPDEST PUSH1 0x40 MLOAD DUP1 SWAP2 SUB SWAP1 REVERT JUMPDEST POP POP JUMP JUMPDEST PUSH1 0x0 PUSH2 0xDC7 DUP4 PUSH2 0x7DC JUMP JUMPDEST SWAP1 POP DUP2 PUSH1 0x0 DUP1 DUP6 DUP2 MSTORE PUSH1 0x20 ADD SWAP1 DUP2 MSTORE PUSH1 0x20 ADD PUSH1 0x0 KECCAK256 PUSH1 0x1 ADD DUP2 SWAP1 SSTORE POP DUP2 DUP2 DUP5 PUSH32 0xBD79B86FFE0AB8E8776151514217CD7CACD52C909F66475C3AF44E129F0B00FF PUSH1 0x40 MLOAD PUSH1 0x40 MLOAD DUP1 SWAP2 SUB SWAP1 LOG4 POP POP POP JUMP JUMPDEST PUSH2 0xE21 DUP3 DUP3 PUSH2 0xAB7 JUMP JUMPDEST PUSH2 0xEF3 JUMPI PUSH1 0x1 PUSH1 0x0 DUP1 DUP5 DUP2 MSTORE PUSH1 0x20 ADD SWAP1 DUP2 MSTORE PUSH1 0x20 ADD PUSH1 0x0 KECCAK256 PUSH1 0x0 ADD PUSH1 0x0 DUP4 PUSH20 0xFFFFFFFFFFFFFFFFFFFFFFFFFFFFFFFFFFFFFFFF AND PUSH20 0xFFFFFFFFFFFFFFFFFFFFFFFFFFFFFFFFFFFFFFFF AND DUP2 MSTORE PUSH1 0x20 ADD SWAP1 DUP2 MSTORE PUSH1 0x20 ADD PUSH1 0x0 KECCAK256 PUSH1 0x0 PUSH2 0x100 EXP DUP2 SLOAD DUP2 PUSH1 0xFF MUL NOT AND SWAP1 DUP4 ISZERO ISZERO MUL OR SWAP1 SSTORE POP PUSH2 0xE98 PUSH2 0xD17 JUMP JUMPDEST PUSH20 0xFFFFFFFFFFFFFFFFFFFFFFFFFFFFFFFFFFFFFFFF AND DUP2 PUSH20 0xFFFFFFFFFFFFFFFFFFFFFFFFFFFFFFFFFFFFFFFF AND DUP4 PUSH32 0x2F8788117E7EFF1D82E926EC794901D17C78024A50270940304540A733656F0D PUSH1 0x40 MLOAD PUSH1 0x40 MLOAD DUP1 SWAP2 SUB SWAP1 LOG4 JUMPDEST POP POP JUMP JUMPDEST PUSH2 0xF01 DUP3 DUP3 PUSH2 0xAB7 JUMP JUMPDEST ISZERO PUSH2 0xFD4 JUMPI PUSH1 0x0 DUP1 PUSH1 0x0 DUP5 DUP2 MSTORE PUSH1 0x20 ADD SWAP1 DUP2 MSTORE PUSH1 0x20 ADD PUSH1 0x0 KECCAK256 PUSH1 0x0 ADD PUSH1 0x0 DUP4 PUSH20 0xFFFFFFFFFFFFFFFFFFFFFFFFFFFFFFFFFFFFFFFF AND PUSH20 0xFFFFFFFFFFFFFFFFFFFFFFFFFFFFFFFFFFFFFFFF AND DUP2 MSTORE PUSH1 0x20 ADD SWAP1 DUP2 MSTORE PUSH1 0x20 ADD PUSH1 0x0 KECCAK256 PUSH1 0x0 PUSH2 0x100 EXP DUP2 SLOAD DUP2 PUSH1 0xFF MUL NOT AND SWAP1 DUP4 ISZERO ISZERO MUL OR SWAP1 SSTORE POP PUSH2 0xF79 PUSH2 0xD17 JUMP JUMPDEST PUSH20 0xFFFFFFFFFFFFFFFFFFFFFFFFFFFFFFFFFFFFFFFF AND DUP2 PUSH20 0xFFFFFFFFFFFFFFFFFFFFFFFFFFFFFFFFFFFFFFFF AND DUP4 PUSH32 0xF6391F5C32D9C69D2A47EA670B442974B53935D1EDC7FD64EB21E047A839171B PUSH1 0x40 MLOAD PUSH1 0x40 MLOAD DUP1 SWAP2 SUB SWAP1 LOG4 JUMPDEST POP POP JUMP JUMPDEST PUSH1 0x60 PUSH1 0x0 PUSH1 0x2 DUP4 PUSH1 0x2 PUSH2 0xFEB SWAP2 SWAP1 PUSH2 0x177A JUMP JUMPDEST PUSH2 0xFF5 SWAP2 SWAP1 PUSH2 0x17D4 JUMP JUMPDEST PUSH8 0xFFFFFFFFFFFFFFFF DUP2 GT ISZERO PUSH2 0x100E JUMPI PUSH2 0x100D PUSH2 0x182A JUMP JUMPDEST JUMPDEST PUSH1 0x40 MLOAD SWAP1 DUP1 DUP3 MSTORE DUP1 PUSH1 0x1F ADD PUSH1 0x1F NOT AND PUSH1 0x20 ADD DUP3 ADD PUSH1 0x40 MSTORE DUP1 ISZERO PUSH2 0x1040 JUMPI DUP2 PUSH1 0x20 ADD PUSH1 0x1 DUP3 MUL DUP1 CALLDATASIZE DUP4 CALLDATACOPY DUP1 DUP3 ADD SWAP2 POP POP SWAP1 POP JUMPDEST POP SWAP1 POP PUSH32 0x3000000000000000000000000000000000000000000000000000000000000000 DUP2 PUSH1 0x0 DUP2 MLOAD DUP2 LT PUSH2 0x1078 JUMPI PUSH2 0x1077 PUSH2 0x1859 JUMP JUMPDEST JUMPDEST PUSH1 0x20 ADD ADD SWAP1 PUSH31 0xFFFFFFFFFFFFFFFFFFFFFFFFFFFFFFFFFFFFFFFFFFFFFFFFFFFFFFFFFFFFFF NOT AND SWAP1 DUP2 PUSH1 0x0 BYTE SWAP1 MSTORE8 POP PUSH32 0x7800000000000000000000000000000000000000000000000000000000000000 DUP2 PUSH1 0x1 DUP2 MLOAD DUP2 LT PUSH2 0x10DC JUMPI PUSH2 0x10DB PUSH2 0x1859 JUMP JUMPDEST JUMPDEST PUSH1 0x20 ADD ADD SWAP1 PUSH31 0xFFFFFFFFFFFFFFFFFFFFFFFFFFFFFFFFFFFFFFFFFFFFFFFFFFFFFFFFFFFFFF NOT AND SWAP1 DUP2 PUSH1 0x0 BYTE SWAP1 MSTORE8 POP PUSH1 0x0 PUSH1 0x1 DUP5 PUSH1 0x2 PUSH2 0x111C SWAP2 SWAP1 PUSH2 0x177A JUMP JUMPDEST PUSH2 0x1126 SWAP2 SWAP1 PUSH2 0x17D4 JUMP JUMPDEST SWAP1 POP JUMPDEST PUSH1 0x1 DUP2 GT ISZERO PUSH2 0x11C6 JUMPI PUSH32 0x3031323334353637383961626364656600000000000000000000000000000000 PUSH1 0xF DUP7 AND PUSH1 0x10 DUP2 LT PUSH2 0x1168 JUMPI PUSH2 0x1167 PUSH2 0x1859 JUMP JUMPDEST JUMPDEST BYTE PUSH1 0xF8 SHL DUP3 DUP3 DUP2 MLOAD DUP2 LT PUSH2 0x117F JUMPI PUSH2 0x117E PUSH2 0x1859 JUMP JUMPDEST JUMPDEST PUSH1 0x20 ADD ADD SWAP1 PUSH31 0xFFFFFFFFFFFFFFFFFFFFFFFFFFFFFFFFFFFFFFFFFFFFFFFFFFFFFFFFFFFFFF NOT AND SWAP1 DUP2 PUSH1 0x0 BYTE SWAP1 MSTORE8 POP PUSH1 0x4 DUP6 SWAP1 SHR SWAP5 POP DUP1 PUSH2 0x11BF SWAP1 PUSH2 0x1888 JUMP JUMPDEST SWAP1 POP PUSH2 0x1129 JUMP JUMPDEST POP PUSH1 0x0 DUP5 EQ PUSH2 0x120A JUMPI PUSH1 0x40 MLOAD PUSH32 0x8C379A000000000000000000000000000000000000000000000000000000000 DUP2 MSTORE PUSH1 0x4 ADD PUSH2 0x1201 SWAP1 PUSH2 0x18FE JUMP JUMPDEST PUSH1 0x40 MLOAD DUP1 SWAP2 SUB SWAP1 REVERT JUMPDEST DUP1 SWAP2 POP POP SWAP3 SWAP2 POP POP JUMP JUMPDEST PUSH1 0x0 DUP1 REVERT JUMPDEST PUSH1 0x0 PUSH32 0xFFFFFFFF00000000000000000000000000000000000000000000000000000000 DUP3 AND SWAP1 POP SWAP2 SWAP1 POP JUMP JUMPDEST PUSH2 0x124E DUP2 PUSH2 0x1219 JUMP JUMPDEST DUP2 EQ PUSH2 0x1259 JUMPI PUSH1 0x0 DUP1 REVERT JUMPDEST POP JUMP JUMPDEST PUSH1 0x0 DUP2 CALLDATALOAD SWAP1 POP PUSH2 0x126B DUP2 PUSH2 0x1245 JUMP JUMPDEST SWAP3 SWAP2 POP POP JUMP JUMPDEST PUSH1 0x0 PUSH1 0x20 DUP3 DUP5 SUB SLT ISZERO PUSH2 0x1287 JUMPI PUSH2 0x1286 PUSH2 0x1214 JUMP JUMPDEST JUMPDEST PUSH1 0x0 PUSH2 0x1295 DUP5 DUP3 DUP6 ADD PUSH2 0x125C JUMP JUMPDEST SWAP2 POP POP SWAP3 SWAP2 POP POP JUMP JUMPDEST PUSH1 0x0 DUP2 ISZERO ISZERO SWAP1 POP SWAP2 SWAP1 POP JUMP JUMPDEST PUSH2 0x12B3 DUP2 PUSH2 0x129E JUMP JUMPDEST DUP3 MSTORE POP POP JUMP JUMPDEST PUSH1 0x0 PUSH1 0x20 DUP3 ADD SWAP1 POP PUSH2 0x12CE PUSH1 0x0 DUP4 ADD DUP5 PUSH2 0x12AA JUMP JUMPDEST SWAP3 SWAP2 POP POP JUMP JUMPDEST PUSH1 0x0 PUSH20 0xFFFFFFFFFFFFFFFFFFFFFFFFFFFFFFFFFFFFFFFF DUP3 AND SWAP1 POP SWAP2 SWAP1 POP JUMP JUMPDEST PUSH1 0x0 PUSH2 0x12FF DUP3 PUSH2 0x12D4 JUMP JUMPDEST SWAP1 POP SWAP2 SWAP1 POP JUMP JUMPDEST PUSH2 0x130F DUP2 PUSH2 0x12F4 JUMP JUMPDEST DUP2 EQ PUSH2 0x131A JUMPI PUSH1 0x0 DUP1 REVERT JUMPDEST POP JUMP JUMPDEST PUSH1 0x0 DUP2 CALLDATALOAD SWAP1 POP PUSH2 0x132C DUP2 PUSH2 0x1306 JUMP JUMPDEST SWAP3 SWAP2 POP POP JUMP JUMPDEST PUSH1 0x0 PUSH1 0x20 DUP3 DUP5 SUB SLT ISZERO PUSH2 0x1348 JUMPI PUSH2 0x1347 PUSH2 0x1214 JUMP JUMPDEST JUMPDEST PUSH1 0x0 PUSH2 0x1356 DUP5 DUP3 DUP6 ADD PUSH2 0x131D JUMP JUMPDEST SWAP2 POP POP SWAP3 SWAP2 POP POP JUMP JUMPDEST PUSH1 0x0 DUP2 SWAP1 POP SWAP2 SWAP1 POP JUMP JUMPDEST PUSH1 0x0 PUSH2 0x1384 PUSH2 0x137F PUSH2 0x137A DUP5 PUSH2 0x12D4 JUMP JUMPDEST PUSH2 0x135F JUMP JUMPDEST PUSH2 0x12D4 JUMP JUMPDEST SWAP1 POP SWAP2 SWAP1 POP JUMP JUMPDEST PUSH1 0x0 PUSH2 0x1396 DUP3 PUSH2 0x1369 JUMP JUMPDEST SWAP1 POP SWAP2 SWAP1 POP JUMP JUMPDEST PUSH1 0x0 PUSH2 0x13A8 DUP3 PUSH2 0x138B JUMP JUMPDEST SWAP1 POP SWAP2 SWAP1 POP JUMP JUMPDEST PUSH2 0x13B8 DUP2 PUSH2 0x139D JUMP JUMPDEST DUP3 MSTORE POP POP JUMP JUMPDEST PUSH1 0x0 PUSH1 0x20 DUP3 ADD SWAP1 POP PUSH2 0x13D3 PUSH1 0x0 DUP4 ADD DUP5 PUSH2 0x13AF JUMP JUMPDEST SWAP3 SWAP2 POP POP JUMP JUMPDEST PUSH1 0x0 DUP2 SWAP1 POP SWAP2 SWAP1 POP JUMP JUMPDEST PUSH2 0x13EC DUP2 PUSH2 0x13D9 JUMP JUMPDEST DUP2 EQ PUSH2 0x13F7 JUMPI PUSH1 0x0 DUP1 REVERT JUMPDEST POP JUMP JUMPDEST PUSH1 0x0 DUP2 CALLDATALOAD SWAP1 POP PUSH2 0x1409 DUP2 PUSH2 0x13E3 JUMP JUMPDEST SWAP3 SWAP2 POP POP JUMP JUMPDEST PUSH1 0x0 DUP1 PUSH1 0x40 DUP4 DUP6 SUB SLT ISZERO PUSH2 0x1426 JUMPI PUSH2 0x1425 PUSH2 0x1214 JUMP JUMPDEST JUMPDEST PUSH1 0x0 PUSH2 0x1434 DUP6 DUP3 DUP7 ADD PUSH2 0x13FA JUMP JUMPDEST SWAP3 POP POP PUSH1 0x20 PUSH2 0x1445 DUP6 DUP3 DUP7 ADD PUSH2 0x13FA JUMP JUMPDEST SWAP2 POP POP SWAP3 POP SWAP3 SWAP1 POP JUMP JUMPDEST PUSH1 0x0 PUSH1 0x20 DUP3 DUP5 SUB SLT ISZERO PUSH2 0x1465 JUMPI PUSH2 0x1464 PUSH2 0x1214 JUMP JUMPDEST JUMPDEST PUSH1 0x0 PUSH2 0x1473 DUP5 DUP3 DUP6 ADD PUSH2 0x13FA JUMP JUMPDEST SWAP2 POP POP SWAP3 SWAP2 POP POP JUMP JUMPDEST PUSH2 0x1485 DUP2 PUSH2 0x13D9 JUMP JUMPDEST DUP3 MSTORE POP POP JUMP JUMPDEST PUSH1 0x0 PUSH1 0x20 DUP3 ADD SWAP1 POP PUSH2 0x14A0 PUSH1 0x0 DUP4 ADD DUP5 PUSH2 0x147C JUMP JUMPDEST SWAP3 SWAP2 POP POP JUMP JUMPDEST PUSH1 0x0 DUP1 PUSH1 0x40 DUP4 DUP6 SUB SLT ISZERO PUSH2 0x14BD JUMPI PUSH2 0x14BC PUSH2 0x1214 JUMP JUMPDEST JUMPDEST PUSH1 0x0 PUSH2 0x14CB DUP6 DUP3 DUP7 ADD PUSH2 0x13FA JUMP JUMPDEST SWAP3 POP POP PUSH1 0x20 PUSH2 0x14DC DUP6 DUP3 DUP7 ADD PUSH2 0x131D JUMP JUMPDEST SWAP2 POP POP SWAP3 POP SWAP3 SWAP1 POP JUMP JUMPDEST PUSH1 0x0 DUP3 DUP3 MSTORE PUSH1 0x20 DUP3 ADD SWAP1 POP SWAP3 SWAP2 POP POP JUMP JUMPDEST PUSH32 0x416363657373436F6E74726F6C3A2063616E206F6E6C792072656E6F756E6365 PUSH1 0x0 DUP3 ADD MSTORE PUSH32 0x20726F6C657320666F722073656C660000000000000000000000000000000000 PUSH1 0x20 DUP3 ADD MSTORE POP JUMP JUMPDEST PUSH1 0x0 PUSH2 0x1553 PUSH1 0x2F DUP4 PUSH2 0x14E6 JUMP JUMPDEST SWAP2 POP PUSH2 0x155E DUP3 PUSH2 0x14F7 JUMP JUMPDEST PUSH1 0x40 DUP3 ADD SWAP1 POP SWAP2 SWAP1 POP JUMP JUMPDEST PUSH1 0x0 PUSH1 0x20 DUP3 ADD SWAP1 POP DUP2 DUP2 SUB PUSH1 0x0 DUP4 ADD MSTORE PUSH2 0x1582 DUP2 PUSH2 0x1546 JUMP JUMPDEST SWAP1 POP SWAP2 SWAP1 POP JUMP JUMPDEST PUSH1 0x0 DUP2 SWAP1 POP SWAP3 SWAP2 POP POP JUMP JUMPDEST PUSH32 0x416363657373436F6E74726F6C3A206163636F756E7420000000000000000000 PUSH1 0x0 DUP3 ADD MSTORE POP JUMP JUMPDEST PUSH1 0x0 PUSH2 0x15CA PUSH1 0x17 DUP4 PUSH2 0x1589 JUMP JUMPDEST SWAP2 POP PUSH2 0x15D5 DUP3 PUSH2 0x1594 JUMP JUMPDEST PUSH1 0x17 DUP3 ADD SWAP1 POP SWAP2 SWAP1 POP JUMP JUMPDEST PUSH1 0x0 DUP2 MLOAD SWAP1 POP SWAP2 SWAP1 POP JUMP JUMPDEST PUSH1 0x0 JUMPDEST DUP4 DUP2 LT ISZERO PUSH2 0x1609 JUMPI DUP1 DUP3 ADD MLOAD DUP2 DUP5 ADD MSTORE PUSH1 0x20 DUP2 ADD SWAP1 POP PUSH2 0x15EE JUMP JUMPDEST DUP4 DUP2 GT ISZERO PUSH2 0x1618 JUMPI PUSH1 0x0 DUP5 DUP5 ADD MSTORE JUMPDEST POP POP POP POP JUMP JUMPDEST PUSH1 0x0 PUSH2 0x1629 DUP3 PUSH2 0x15E0 JUMP JUMPDEST PUSH2 0x1633 DUP2 DUP6 PUSH2 0x1589 JUMP JUMPDEST SWAP4 POP PUSH2 0x1643 DUP2 DUP6 PUSH1 0x20 DUP7 ADD PUSH2 0x15EB JUMP JUMPDEST DUP1 DUP5 ADD SWAP2 POP POP SWAP3 SWAP2 POP POP JUMP JUMPDEST PUSH32 0x206973206D697373696E6720726F6C6520000000000000000000000000000000 PUSH1 0x0 DUP3 ADD MSTORE POP JUMP JUMPDEST PUSH1 0x0 PUSH2 0x1685 PUSH1 0x11 DUP4 PUSH2 0x1589 JUMP JUMPDEST SWAP2 POP PUSH2 0x1690 DUP3 PUSH2 0x164F JUMP JUMPDEST PUSH1 0x11 DUP3 ADD SWAP1 POP SWAP2 SWAP1 POP JUMP JUMPDEST PUSH1 0x0 PUSH2 0x16A6 DUP3 PUSH2 0x15BD JUMP JUMPDEST SWAP2 POP PUSH2 0x16B2 DUP3 DUP6 PUSH2 0x161E JUMP JUMPDEST SWAP2 POP PUSH2 0x16BD DUP3 PUSH2 0x1678 JUMP JUMPDEST SWAP2 POP PUSH2 0x16C9 DUP3 DUP5 PUSH2 0x161E JUMP JUMPDEST SWAP2 POP DUP2 SWAP1 POP SWAP4 SWAP3 POP POP POP JUMP JUMPDEST PUSH1 0x0 PUSH1 0x1F NOT PUSH1 0x1F DUP4 ADD AND SWAP1 POP SWAP2 SWAP1 POP JUMP JUMPDEST PUSH1 0x0 PUSH2 0x16F1 DUP3 PUSH2 0x15E0 JUMP JUMPDEST PUSH2 0x16FB DUP2 DUP6 PUSH2 0x14E6 JUMP JUMPDEST SWAP4 POP PUSH2 0x170B DUP2 DUP6 PUSH1 0x20 DUP7 ADD PUSH2 0x15EB JUMP JUMPDEST PUSH2 0x1714 DUP2 PUSH2 0x16D5 JUMP JUMPDEST DUP5 ADD SWAP2 POP POP SWAP3 SWAP2 POP POP JUMP JUMPDEST PUSH1 0x0 PUSH1 0x20 DUP3 ADD SWAP1 POP DUP2 DUP2 SUB PUSH1 0x0 DUP4 ADD MSTORE PUSH2 0x1739 DUP2 DUP5 PUSH2 0x16E6 JUMP JUMPDEST SWAP1 POP SWAP3 SWAP2 POP POP JUMP JUMPDEST PUSH1 0x0 DUP2 SWAP1 POP SWAP2 SWAP1 POP JUMP JUMPDEST PUSH32 0x4E487B7100000000000000000000000000000000000000000000000000000000 PUSH1 0x0 MSTORE PUSH1 0x11 PUSH1 0x4 MSTORE PUSH1 0x24 PUSH1 0x0 REVERT JUMPDEST PUSH1 0x0 PUSH2 0x1785 DUP3 PUSH2 0x1741 JUMP JUMPDEST SWAP2 POP PUSH2 0x1790 DUP4 PUSH2 0x1741 JUMP JUMPDEST SWAP3 POP DUP2 PUSH32 0xFFFFFFFFFFFFFFFFFFFFFFFFFFFFFFFFFFFFFFFFFFFFFFFFFFFFFFFFFFFFFFFF DIV DUP4 GT DUP3 ISZERO ISZERO AND ISZERO PUSH2 0x17C9 JUMPI PUSH2 0x17C8 PUSH2 0x174B JUMP JUMPDEST JUMPDEST DUP3 DUP3 MUL SWAP1 POP SWAP3 SWAP2 POP POP JUMP JUMPDEST PUSH1 0x0 PUSH2 0x17DF DUP3 PUSH2 0x1741 JUMP JUMPDEST SWAP2 POP PUSH2 0x17EA DUP4 PUSH2 0x1741 JUMP JUMPDEST SWAP3 POP DUP3 PUSH32 0xFFFFFFFFFFFFFFFFFFFFFFFFFFFFFFFFFFFFFFFFFFFFFFFFFFFFFFFFFFFFFFFF SUB DUP3 GT ISZERO PUSH2 0x181F JUMPI PUSH2 0x181E PUSH2 0x174B JUMP JUMPDEST JUMPDEST DUP3 DUP3 ADD SWAP1 POP SWAP3 SWAP2 POP POP JUMP JUMPDEST PUSH32 0x4E487B7100000000000000000000000000000000000000000000000000000000 PUSH1 0x0 MSTORE PUSH1 0x41 PUSH1 0x4 MSTORE PUSH1 0x24 PUSH1 0x0 REVERT JUMPDEST PUSH32 0x4E487B7100000000000000000000000000000000000000000000000000000000 PUSH1 0x0 MSTORE PUSH1 0x32 PUSH1 0x4 MSTORE PUSH1 0x24 PUSH1 0x0 REVERT JUMPDEST PUSH1 0x0 PUSH2 0x1893 DUP3 PUSH2 0x1741 JUMP JUMPDEST SWAP2 POP PUSH1 0x0 DUP3 EQ ISZERO PUSH2 0x18A7 JUMPI PUSH2 0x18A6 PUSH2 0x174B JUMP JUMPDEST JUMPDEST PUSH1 0x1 DUP3 SUB SWAP1 POP SWAP2 SWAP1 POP JUMP JUMPDEST PUSH32 0x537472696E67733A20686578206C656E67746820696E73756666696369656E74 PUSH1 0x0 DUP3 ADD MSTORE POP JUMP JUMPDEST PUSH1 0x0 PUSH2 0x18E8 PUSH1 0x20 DUP4 PUSH2 0x14E6 JUMP JUMPDEST SWAP2 POP PUSH2 0x18F3 DUP3 PUSH2 0x18B2 JUMP JUMPDEST PUSH1 0x20 DUP3 ADD SWAP1 POP SWAP2 SWAP1 POP JUMP JUMPDEST PUSH1 0x0 PUSH1 0x20 DUP3 ADD SWAP1 POP DUP2 DUP2 SUB PUSH1 0x0 DUP4 ADD MSTORE PUSH2 0x1917 DUP2 PUSH2 0x18DB JUMP JUMPDEST SWAP1 POP SWAP2 SWAP1 POP JUMP INVALID LOG2 PUSH5 0x6970667358 0x22 SLT KECCAK256 0xE5 0x22 0x4C 0xA9 LOG4 SWAP5 0xC7 PUSH16 0x31A19CD26C57C322A094C93F6B776597 SWAP10 0xB9 0x25 BLOCKHASH 0xD4 0x2A PUSH23 0x8064736F6C634300080A00330000000000000000000000 "
        },
        "gasEstimates": {
          "creation": {
            "codeDepositCost": "1296800",
            "executionCost": "infinite",
            "totalCost": "infinite"
          },
          "external": {
            "ADDRESSES_PROVIDER()": "infinite",
            "ASSET_LISTING_ADMIN_ROLE()": "441",
            "BRIDGE_ROLE()": "373",
            "DEFAULT_ADMIN_ROLE()": "424",
            "EMERGENCY_ADMIN_ROLE()": "397",
            "FLASH_BORROWER_ROLE()": "418",
            "POOL_ADMIN_ROLE()": "395",
            "RISK_ADMIN_ROLE()": "396",
            "addAssetListingAdmin(address)": "infinite",
            "addBridge(address)": "infinite",
            "addEmergencyAdmin(address)": "infinite",
            "addFlashBorrower(address)": "infinite",
            "addPoolAdmin(address)": "infinite",
            "addRiskAdmin(address)": "infinite",
            "getRoleAdmin(bytes32)": "infinite",
            "grantRole(bytes32,address)": "infinite",
            "hasRole(bytes32,address)": "3229",
            "isAssetListingAdmin(address)": "3128",
            "isBridge(address)": "3105",
            "isEmergencyAdmin(address)": "3061",
            "isFlashBorrower(address)": "3147",
            "isPoolAdmin(address)": "3082",
            "isRiskAdmin(address)": "3061",
            "removeAssetListingAdmin(address)": "infinite",
            "removeBridge(address)": "infinite",
            "removeEmergencyAdmin(address)": "infinite",
            "removeFlashBorrower(address)": "infinite",
            "removePoolAdmin(address)": "infinite",
            "removeRiskAdmin(address)": "infinite",
            "renounceRole(bytes32,address)": "infinite",
            "revokeRole(bytes32,address)": "infinite",
            "setRoleAdmin(bytes32,bytes32)": "infinite",
            "supportsInterface(bytes4)": "774"
          }
        },
        "methodIdentifiers": {
          "ADDRESSES_PROVIDER()": "0542975c",
          "ASSET_LISTING_ADMIN_ROLE()": "78bb0a43",
          "BRIDGE_ROLE()": "b5bfddea",
          "DEFAULT_ADMIN_ROLE()": "a217fddf",
          "EMERGENCY_ADMIN_ROLE()": "6e76fc8f",
          "FLASH_BORROWER_ROLE()": "5577b7a9",
          "POOL_ADMIN_ROLE()": "b8f6dba7",
          "RISK_ADMIN_ROLE()": "4f16b425",
          "addAssetListingAdmin(address)": "9a2b96f7",
          "addBridge(address)": "9712fdf8",
          "addEmergencyAdmin(address)": "179efb09",
          "addFlashBorrower(address)": "9ac9d80b",
          "addPoolAdmin(address)": "22650caf",
          "addRiskAdmin(address)": "5b9a94e4",
          "getRoleAdmin(bytes32)": "248a9ca3",
          "grantRole(bytes32,address)": "2f2ff15d",
          "hasRole(bytes32,address)": "91d14854",
          "isAssetListingAdmin(address)": "13ee32e0",
          "isBridge(address)": "726600ce",
          "isEmergencyAdmin(address)": "2500f2b6",
          "isFlashBorrower(address)": "fa50f297",
          "isPoolAdmin(address)": "7be53ca1",
          "isRiskAdmin(address)": "674b5e4d",
          "removeAssetListingAdmin(address)": "a21bce15",
          "removeBridge(address)": "04df017d",
          "removeEmergencyAdmin(address)": "7a9a93f4",
          "removeFlashBorrower(address)": "253cf980",
          "removePoolAdmin(address)": "f83695cb",
          "removeRiskAdmin(address)": "3c5a08e5",
          "renounceRole(bytes32,address)": "36568abe",
          "revokeRole(bytes32,address)": "d547741f",
          "setRoleAdmin(bytes32,bytes32)": "1e4e0091",
          "supportsInterface(bytes4)": "01ffc9a7"
        }
      },
      "storageLayout": {
        "storage": [
          {
            "astId": 24,
            "contract": "protocol/configuration/ACLManager.sol:ACLManager",
            "label": "_roles",
            "offset": 0,
            "slot": "0",
            "type": "t_mapping(t_bytes32,t_struct(RoleData)19_storage)"
          }
        ],
        "types": {
          "t_address": {
            "encoding": "inplace",
            "label": "address",
            "numberOfBytes": "20"
          },
          "t_bool": {
            "encoding": "inplace",
            "label": "bool",
            "numberOfBytes": "1"
          },
          "t_bytes32": {
            "encoding": "inplace",
            "label": "bytes32",
            "numberOfBytes": "32"
          },
          "t_mapping(t_address,t_bool)": {
            "encoding": "mapping",
            "key": "t_address",
            "label": "mapping(address => bool)",
            "numberOfBytes": "32",
            "value": "t_bool"
          },
          "t_mapping(t_bytes32,t_struct(RoleData)19_storage)": {
            "encoding": "mapping",
            "key": "t_bytes32",
            "label": "mapping(bytes32 => struct AccessControl.RoleData)",
            "numberOfBytes": "32",
            "value": "t_struct(RoleData)19_storage"
          },
          "t_struct(RoleData)19_storage": {
            "encoding": "inplace",
            "label": "struct AccessControl.RoleData",
            "members": [
              {
                "astId": 16,
                "contract": "protocol/configuration/ACLManager.sol:ACLManager",
                "label": "members",
                "offset": 0,
                "slot": "0",
                "type": "t_mapping(t_address,t_bool)"
              },
              {
                "astId": 18,
                "contract": "protocol/configuration/ACLManager.sol:ACLManager",
                "label": "adminRole",
                "offset": 0,
                "slot": "1",
                "type": "t_bytes32"
              }
            ],
            "numberOfBytes": "64"
          }
        }
      },
      "userdoc": {
        "kind": "user",
        "methods": {
          "ADDRESSES_PROVIDER()": {
            "notice": "Returns the contract address of the PoolAddressesProvider"
          },
          "ASSET_LISTING_ADMIN_ROLE()": {
            "notice": "Returns the identifier of the AssetListingAdmin role"
          },
          "BRIDGE_ROLE()": {
            "notice": "Returns the identifier of the Bridge role"
          },
          "EMERGENCY_ADMIN_ROLE()": {
            "notice": "Returns the identifier of the EmergencyAdmin role"
          },
          "FLASH_BORROWER_ROLE()": {
            "notice": "Returns the identifier of the FlashBorrower role"
          },
          "POOL_ADMIN_ROLE()": {
            "notice": "Returns the identifier of the PoolAdmin role"
          },
          "RISK_ADMIN_ROLE()": {
            "notice": "Returns the identifier of the RiskAdmin role"
          },
          "addAssetListingAdmin(address)": {
            "notice": "Adds a new admin as AssetListingAdmin"
          },
          "addBridge(address)": {
            "notice": "Adds a new address as Bridge"
          },
          "addEmergencyAdmin(address)": {
            "notice": "Adds a new admin as EmergencyAdmin"
          },
          "addFlashBorrower(address)": {
            "notice": "Adds a new address as FlashBorrower"
          },
          "addPoolAdmin(address)": {
            "notice": "Adds a new admin as PoolAdmin"
          },
          "addRiskAdmin(address)": {
            "notice": "Adds a new admin as RiskAdmin"
          },
          "isAssetListingAdmin(address)": {
            "notice": "Returns true if the address is AssetListingAdmin, false otherwise"
          },
          "isBridge(address)": {
            "notice": "Returns true if the address is Bridge, false otherwise"
          },
          "isEmergencyAdmin(address)": {
            "notice": "Returns true if the address is EmergencyAdmin, false otherwise"
          },
          "isFlashBorrower(address)": {
            "notice": "Returns true if the address is FlashBorrower, false otherwise"
          },
          "isPoolAdmin(address)": {
            "notice": "Returns true if the address is PoolAdmin, false otherwise"
          },
          "isRiskAdmin(address)": {
            "notice": "Returns true if the address is RiskAdmin, false otherwise"
          },
          "removeAssetListingAdmin(address)": {
            "notice": "Removes an admin as AssetListingAdmin"
          },
          "removeBridge(address)": {
            "notice": "Removes an address as Bridge"
          },
          "removeEmergencyAdmin(address)": {
            "notice": "Removes an admin as EmergencyAdmin"
          },
          "removeFlashBorrower(address)": {
            "notice": "Removes an admin as FlashBorrower"
          },
          "removePoolAdmin(address)": {
            "notice": "Removes an admin as PoolAdmin"
          },
          "removeRiskAdmin(address)": {
            "notice": "Removes an admin as RiskAdmin"
          },
          "setRoleAdmin(bytes32,bytes32)": {
            "notice": "Set the role as admin of a specific role."
          }
        },
        "notice": "Access Control List Manager. Main registry of system roles and permissions.",
        "version": 1
      }
    }
  }
}