{
  "_format": "hh-sol-artifact-1",
  "contractName": "WadRayMathWrapper",
  "sourceName": "contracts/contractsAave/mocks/tests/WadRayMathWrapper.sol",
  "abi": [
    {
      "inputs": [],
      "name": "halfRay",
      "outputs": [
        {
          "internalType": "uint256",
          "name": "",
          "type": "uint256"
        }
      ],
      "stateMutability": "pure",
      "type": "function"
    },
    {
      "inputs": [],
      "name": "halfWad",
      "outputs": [
        {
          "internalType": "uint256",
          "name": "",
          "type": "uint256"
        }
      ],
      "stateMutability": "pure",
      "type": "function"
    },
    {
      "inputs": [],
      "name": "ray",
      "outputs": [
        {
          "internalType": "uint256",
          "name": "",
          "type": "uint256"
        }
      ],
      "stateMutability": "pure",
      "type": "function"
    },
    {
      "inputs": [
        {
          "internalType": "uint256",
          "name": "a",
          "type": "uint256"
        },
        {
          "internalType": "uint256",
          "name": "b",
          "type": "uint256"
        }
      ],
      "name": "rayDiv",
      "outputs": [
        {
          "internalType": "uint256",
          "name": "",
          "type": "uint256"
        }
      ],
      "stateMutability": "pure",
      "type": "function"
    },
    {
      "inputs": [
        {
          "internalType": "uint256",
          "name": "a",
          "type": "uint256"
        },
        {
          "internalType": "uint256",
          "name": "b",
          "type": "uint256"
        }
      ],
      "name": "rayMul",
      "outputs": [
        {
          "internalType": "uint256",
          "name": "",
          "type": "uint256"
        }
      ],
      "stateMutability": "pure",
      "type": "function"
    },
    {
      "inputs": [
        {
          "internalType": "uint256",
          "name": "a",
          "type": "uint256"
        }
      ],
      "name": "rayToWad",
      "outputs": [
        {
          "internalType": "uint256",
          "name": "",
          "type": "uint256"
        }
      ],
      "stateMutability": "pure",
      "type": "function"
    },
    {
      "inputs": [],
      "name": "wad",
      "outputs": [
        {
          "internalType": "uint256",
          "name": "",
          "type": "uint256"
        }
      ],
      "stateMutability": "pure",
      "type": "function"
    },
    {
      "inputs": [
        {
          "internalType": "uint256",
          "name": "a",
          "type": "uint256"
        },
        {
          "internalType": "uint256",
          "name": "b",
          "type": "uint256"
        }
      ],
      "name": "wadDiv",
      "outputs": [
        {
          "internalType": "uint256",
          "name": "",
          "type": "uint256"
        }
      ],
      "stateMutability": "pure",
      "type": "function"
    },
    {
      "inputs": [
        {
          "internalType": "uint256",
          "name": "a",
          "type": "uint256"
        },
        {
          "internalType": "uint256",
          "name": "b",
          "type": "uint256"
        }
      ],
      "name": "wadMul",
      "outputs": [
        {
          "internalType": "uint256",
          "name": "",
          "type": "uint256"
        }
      ],
      "stateMutability": "pure",
      "type": "function"
    },
    {
      "inputs": [
        {
          "internalType": "uint256",
          "name": "a",
          "type": "uint256"
        }
      ],
      "name": "wadToRay",
      "outputs": [
        {
          "internalType": "uint256",
          "name": "",
          "type": "uint256"
        }
      ],
      "stateMutability": "pure",
      "type": "function"
    }
  ],
  "bytecode": "0x608060405234801561001057600080fd5b5061035b806100206000396000f3fe608060405234801561001057600080fd5b506004361061009e5760003560e01c80637df38c5b116100665780637df38c5b146101125780639c34d88014610120578063d2e3058514610133578063e304e1d314610146578063e57b6d3b1461015457600080fd5b806310de27b9146100a35780631fa89fc6146100c857806329cb5aa4146100da578063416a8b20146100ed578063761fdad6146100ff575b600080fd5b6100b66100b13660046102ea565b610167565b60405190815260200160405180910390f35b6b019d971e4fe8401e740000006100b6565b6100b66100e83660046102ea565b610178565b6b033b2e3c9fd0803ce80000006100b6565b6100b661010d366004610303565b610183565b670de0b6b3a76400006100b6565b6100b661012e366004610303565b610196565b6100b6610141366004610303565b6101a2565b6706f05b59d3b200006100b6565b6100b6610162366004610303565b6101ae565b6000610172826101ba565b92915050565b6000610172826101d5565b600061018f83836101f8565b9392505050565b600061018f8383610230565b600061018f838361026f565b600061018f83836102b3565b633b9aca0081810290810482146101d057600080fd5b919050565b633b9aca00808204908206631dcd650081106101f2576001820191505b50919050565b600081156706f05b59d3b20000198390048411151761021657600080fd5b50670de0b6b3a764000091026706f05b59d3b20000010490565b600081156b033b2e3c9fd0803ce80000006002840419048411171561025457600080fd5b506b033b2e3c9fd0803ce80000009190910260028204010490565b600081156b019d971e4fe8401e74000000198390048411151761029157600080fd5b506b033b2e3c9fd0803ce800000091026b019d971e4fe8401e74000000010490565b60008115670de0b6b3a7640000600284041904841117156102d357600080fd5b50670de0b6b3a76400009190910260028204010490565b6000602082840312156102fc57600080fd5b5035919050565b6000806040838503121561031657600080fd5b5050803592602090910135915056fea2646970667358221220616163c7e7f85b241cbcb05dac14a3407cdf462a30152ea930d1831d15a82c8e64736f6c634300080a0033",
  "linkReferences": {},
  "deployedLinkReferences": {}
}