{
  "_format": "hh-sol-artifact-1",
  "contractName": "MockInitializableImple",
  "sourceName": "contracts/contractsAave/mocks/upgradeability/MockInitializableImplementation.sol",
  "abi": [
    {
      "inputs": [],
      "name": "REVISION",
      "outputs": [
        {
          "internalType": "uint256",
          "name": "",
          "type": "uint256"
        }
      ],
      "stateMutability": "view",
      "type": "function"
    },
    {
      "inputs": [
        {
          "internalType": "uint256",
          "name": "val",
          "type": "uint256"
        },
        {
          "internalType": "string",
          "name": "txt",
          "type": "string"
        },
        {
          "internalType": "uint256[]",
          "name": "vals",
          "type": "uint256[]"
        }
      ],
      "name": "initialize",
      "outputs": [],
      "stateMutability": "nonpayable",
      "type": "function"
    },
    {
      "inputs": [
        {
          "internalType": "uint256",
          "name": "newValue",
          "type": "uint256"
        }
      ],
      "name": "setValue",
      "outputs": [],
      "stateMutability": "nonpayable",
      "type": "function"
    },
    {
      "inputs": [
        {
          "internalType": "uint256",
          "name": "newValue",
          "type": "uint256"
        }
      ],
      "name": "setValueViaProxy",
      "outputs": [],
      "stateMutability": "nonpayable",
      "type": "function"
    },
    {
      "inputs": [],
      "name": "text",
      "outputs": [
        {
          "internalType": "string",
          "name": "",
          "type": "string"
        }
      ],
      "stateMutability": "view",
      "type": "function"
    },
    {
      "inputs": [],
      "name": "value",
      "outputs": [
        {
          "internalType": "uint256",
          "name": "",
          "type": "uint256"
        }
      ],
      "stateMutability": "view",
      "type": "function"
    },
    {
      "inputs": [
        {
          "internalType": "uint256",
          "name": "",
          "type": "uint256"
        }
      ],
      "name": "values",
      "outputs": [
        {
          "internalType": "uint256",
          "name": "",
          "type": "uint256"
        }
      ],
      "stateMutability": "view",
      "type": "function"
    }
  ],
  "bytecode": "0x60806040526000805534801561001457600080fd5b506105ca806100246000396000f3fe608060405234801561001057600080fd5b506004361061007d5760003560e01c80635dd216101161005b5780635dd21610146100b75780635e383d21146100cc578063d31f8b6b146100df578063dde43cba146100f257600080fd5b80631f1bd692146100825780633fa4f245146100a057806355241077146100b7575b600080fd5b61008a6100fa565b6040516100979190610364565b60405180910390f35b6100a960345481565b604051908152602001610097565b6100ca6100c53660046103b9565b603455565b005b6100a96100da3660046103b9565b610188565b6100ca6100ed366004610499565b6101a9565b6100a9600181565b6035805461010790610559565b80601f016020809104026020016040519081016040528092919081815260200182805461013390610559565b80156101805780601f1061015557610100808354040283529160200191610180565b820191906000526020600020905b81548152906001019060200180831161016357829003601f168201915b505050505081565b6036818154811061019857600080fd5b600091825260209091200154905081565b6001805460ff16806101ba5750303b155b806101c6575060005481115b61022d5760405162461bcd60e51b815260206004820152602e60248201527f436f6e747261637420696e7374616e63652068617320616c726561647920626560448201526d195b881a5b9a5d1a585b1a5e995960921b606482015260840160405180910390fd5b60015460ff1615801561024c576001805460ff19168117905560008290555b60348590558351610264906035906020870190610291565b508251610278906036906020860190610315565b50801561028a576001805460ff191690555b5050505050565b82805461029d90610559565b90600052602060002090601f0160209004810192826102bf5760008555610305565b82601f106102d857805160ff1916838001178555610305565b82800160010185558215610305579182015b828111156103055782518255916020019190600101906102ea565b5061031192915061034f565b5090565b82805482825590600052602060002090810192821561030557916020028201828111156103055782518255916020019190600101906102ea565b5b808211156103115760008155600101610350565b600060208083528351808285015260005b8181101561039157858101830151858201604001528201610375565b818111156103a3576000604083870101525b50601f01601f1916929092016040019392505050565b6000602082840312156103cb57600080fd5b5035919050565b634e487b7160e01b600052604160045260246000fd5b604051601f8201601f1916810167ffffffffffffffff81118282101715610411576104116103d2565b604052919050565b600082601f83011261042a57600080fd5b8135602067ffffffffffffffff821115610446576104466103d2565b8160051b6104558282016103e8565b928352848101820192828101908785111561046f57600080fd5b83870192505b8483101561048e57823582529183019190830190610475565b979650505050505050565b6000806000606084860312156104ae57600080fd5b8335925060208085013567ffffffffffffffff808211156104ce57600080fd5b818701915087601f8301126104e257600080fd5b8135818111156104f4576104f46103d2565b610506601f8201601f191685016103e8565b818152898583860101111561051a57600080fd5b81858501868301376000918101909401529193506040860135918083111561054157600080fd5b505061054f86828701610419565b9150509250925092565b600181811c9082168061056d57607f821691505b6020821081141561058e57634e487b7160e01b600052602260045260246000fd5b5091905056fea26469706673582212209d80b508e2d21007364b918e2f815e907a7155a7ae8f5e2672b75785dfde83fc64736f6c634300080a0033",
  "linkReferences": {},
  "deployedLinkReferences": {}
}