{
  "_format": "hh-sol-artifact-1",
  "contractName": "MockInitializableImpleV2",
  "sourceName": "contracts/contractsAave/mocks/upgradeability/MockInitializableImplementation.sol",
  "abi": [
    {
      "inputs": [],
      "name": "REVISION",
      "outputs": [
        {
          "internalType": "uint256",
          "name": "",
          "type": "uint256"
        }
      ],
      "stateMutability": "view",
      "type": "function"
    },
    {
      "inputs": [
        {
          "internalType": "uint256",
          "name": "val",
          "type": "uint256"
        },
        {
          "internalType": "string",
          "name": "txt",
          "type": "string"
        },
        {
          "internalType": "uint256[]",
          "name": "vals",
          "type": "uint256[]"
        }
      ],
      "name": "initialize",
      "outputs": [],
      "stateMutability": "nonpayable",
      "type": "function"
    },
    {
      "inputs": [
        {
          "internalType": "uint256",
          "name": "newValue",
          "type": "uint256"
        }
      ],
      "name": "setValue",
      "outputs": [],
      "stateMutability": "nonpayable",
      "type": "function"
    },
    {
      "inputs": [
        {
          "internalType": "uint256",
          "name": "newValue",
          "type": "uint256"
        }
      ],
      "name": "setValueViaProxy",
      "outputs": [],
      "stateMutability": "nonpayable",
      "type": "function"
    },
    {
      "inputs": [],
      "name": "text",
      "outputs": [
        {
          "internalType": "string",
          "name": "",
          "type": "string"
        }
      ],
      "stateMutability": "view",
      "type": "function"
    },
    {
      "inputs": [],
      "name": "value",
      "outputs": [
        {
          "internalType": "uint256",
          "name": "",
          "type": "uint256"
        }
      ],
      "stateMutability": "view",
      "type": "function"
    },
    {
      "inputs": [
        {
          "internalType": "uint256",
          "name": "",
          "type": "uint256"
        }
      ],
      "name": "values",
      "outputs": [
        {
          "internalType": "uint256",
          "name": "",
          "type": "uint256"
        }
      ],
      "stateMutability": "view",
      "type": "function"
    }
  ],
  "bytecode": "0x60806040526000805534801561001457600080fd5b506105cc806100246000396000f3fe608060405234801561001057600080fd5b506004361061007d5760003560e01c80635dd216101161005b5780635dd21610146100b75780635e383d21146100cc578063d31f8b6b146100df578063dde43cba146100f257600080fd5b80631f1bd692146100825780633fa4f245146100a057806355241077146100b7575b600080fd5b61008a6100fa565b6040516100979190610366565b60405180910390f35b6100a960345481565b604051908152602001610097565b6100ca6100c53660046103bb565b603455565b005b6100a96100da3660046103bb565b610188565b6100ca6100ed36600461049b565b6101a9565b6100a9600281565b603580546101079061055b565b80601f01602080910402602001604051908101604052809291908181526020018280546101339061055b565b80156101805780601f1061015557610100808354040283529160200191610180565b820191906000526020600020905b81548152906001019060200180831161016357829003601f168201915b505050505081565b6036818154811061019857600080fd5b600091825260209091200154905081565b60015460029060ff16806101bc5750303b155b806101c8575060005481115b61022f5760405162461bcd60e51b815260206004820152602e60248201527f436f6e747261637420696e7374616e63652068617320616c726561647920626560448201526d195b881a5b9a5d1a585b1a5e995960921b606482015260840160405180910390fd5b60015460ff1615801561024e576001805460ff19168117905560008290555b60348590558351610266906035906020870190610293565b50825161027a906036906020860190610317565b50801561028c576001805460ff191690555b5050505050565b82805461029f9061055b565b90600052602060002090601f0160209004810192826102c15760008555610307565b82601f106102da57805160ff1916838001178555610307565b82800160010185558215610307579182015b828111156103075782518255916020019190600101906102ec565b50610313929150610351565b5090565b82805482825590600052602060002090810192821561030757916020028201828111156103075782518255916020019190600101906102ec565b5b808211156103135760008155600101610352565b600060208083528351808285015260005b8181101561039357858101830151858201604001528201610377565b818111156103a5576000604083870101525b50601f01601f1916929092016040019392505050565b6000602082840312156103cd57600080fd5b5035919050565b634e487b7160e01b600052604160045260246000fd5b604051601f8201601f1916810167ffffffffffffffff81118282101715610413576104136103d4565b604052919050565b600082601f83011261042c57600080fd5b8135602067ffffffffffffffff821115610448576104486103d4565b8160051b6104578282016103ea565b928352848101820192828101908785111561047157600080fd5b83870192505b8483101561049057823582529183019190830190610477565b979650505050505050565b6000806000606084860312156104b057600080fd5b8335925060208085013567ffffffffffffffff808211156104d057600080fd5b818701915087601f8301126104e457600080fd5b8135818111156104f6576104f66103d4565b610508601f8201601f191685016103ea565b818152898583860101111561051c57600080fd5b81858501868301376000918101909401529193506040860135918083111561054357600080fd5b50506105518682870161041b565b9150509250925092565b600181811c9082168061056f57607f821691505b6020821081141561059057634e487b7160e01b600052602260045260246000fd5b5091905056fea2646970667358221220d86ca27f29aa3d375771cff415053b7e83f118727575f7b0a3f905378c46162364736f6c634300080a0033",
  "linkReferences": {},
  "deployedLinkReferences": {}
}