{
  "_format": "hh-sol-artifact-1",
  "contractName": "MockReentrantInitializableImple",
  "sourceName": "contracts/contractsAave/mocks/upgradeability/MockInitializableImplementation.sol",
  "abi": [
    {
      "inputs": [],
      "name": "REVISION",
      "outputs": [
        {
          "internalType": "uint256",
          "name": "",
          "type": "uint256"
        }
      ],
      "stateMutability": "view",
      "type": "function"
    },
    {
      "inputs": [
        {
          "internalType": "uint256",
          "name": "val",
          "type": "uint256"
        }
      ],
      "name": "initialize",
      "outputs": [],
      "stateMutability": "nonpayable",
      "type": "function"
    },
    {
      "inputs": [],
      "name": "value",
      "outputs": [
        {
          "internalType": "uint256",
          "name": "",
          "type": "uint256"
        }
      ],
      "stateMutability": "view",
      "type": "function"
    }
  ],
  "bytecode": "0x60806040526000805534801561001457600080fd5b506101ce806100246000396000f3fe608060405234801561001057600080fd5b50600436106100415760003560e01c80633fa4f24514610046578063dde43cba14610061578063fe4b84df14610069575b600080fd5b61004f60345481565b60405190815260200160405180910390f35b61004f600281565b61007c610077366004610159565b61007e565b005b60015460029060ff16806100915750303b155b8061009d575060005481115b6101045760405162461bcd60e51b815260206004820152602e60248201527f436f6e747261637420696e7374616e63652068617320616c726561647920626560448201526d195b881a5b9a5d1a585b1a5e995960921b606482015260840160405180910390fd5b60015460ff16158015610123576001805460ff19168117905560008290555b603483905560028310156101435761014360345460016100779190610172565b8015610154576001805460ff191690555b505050565b60006020828403121561016b57600080fd5b5035919050565b6000821982111561019357634e487b7160e01b600052601160045260246000fd5b50019056fea2646970667358221220f9dcc9da2da5266830dadaf7091a6e9b8c6ef27ccb8bf1231cad10055dee357a64736f6c634300080a0033",
  "linkReferences": {},
  "deployedLinkReferences": {}
}