{
  "_format": "hh-sol-artifact-1",
  "contractName": "MockInitializableFromConstructorImple",
  "sourceName": "contracts/contractsAave/mocks/upgradeability/MockInitializableImplementation.sol",
  "abi": [
    {
      "inputs": [
        {
          "internalType": "uint256",
          "name": "val",
          "type": "uint256"
        }
      ],
      "stateMutability": "nonpayable",
      "type": "constructor"
    },
    {
      "inputs": [],
      "name": "REVISION",
      "outputs": [
        {
          "internalType": "uint256",
          "name": "",
          "type": "uint256"
        }
      ],
      "stateMutability": "view",
      "type": "function"
    },
    {
      "inputs": [
        {
          "internalType": "uint256",
          "name": "val",
          "type": "uint256"
        }
      ],
      "name": "initialize",
      "outputs": [],
      "stateMutability": "nonpayable",
      "type": "function"
    },
    {
      "inputs": [],
      "name": "value",
      "outputs": [
        {
          "internalType": "uint256",
          "name": "",
          "type": "uint256"
        }
      ],
      "stateMutability": "view",
      "type": "function"
    }
  ],
  "bytecode": "0x60806040526000805534801561001457600080fd5b506040516102b73803806102b783398101604081905261003391610102565b61003c81610042565b5061011b565b60015460029060ff16806100555750303b155b80610061575060005481115b6100c85760405162461bcd60e51b815260206004820152602e60248201527f436f6e747261637420696e7374616e63652068617320616c726561647920626560448201526d195b881a5b9a5d1a585b1a5e995960921b606482015260840160405180910390fd5b60015460ff161580156100e7576001805460ff19168117905560008290555b603483905580156100fd576001805460ff191690555b505050565b60006020828403121561011457600080fd5b5051919050565b61018d8061012a6000396000f3fe608060405234801561001057600080fd5b50600436106100415760003560e01c80633fa4f24514610046578063dde43cba14610061578063fe4b84df14610069575b600080fd5b61004f60345481565b60405190815260200160405180910390f35b61004f600281565b61007c61007736600461013e565b61007e565b005b60015460029060ff16806100915750303b155b8061009d575060005481115b6101045760405162461bcd60e51b815260206004820152602e60248201527f436f6e747261637420696e7374616e63652068617320616c726561647920626560448201526d195b881a5b9a5d1a585b1a5e995960921b606482015260840160405180910390fd5b60015460ff16158015610123576001805460ff19168117905560008290555b60348390558015610139576001805460ff191690555b505050565b60006020828403121561015057600080fd5b503591905056fea2646970667358221220b6c79dab6f4845e7fcc03b58bda561308c0db89531370c9eaedc675dc003b56b64736f6c634300080a0033",
  "linkReferences": {},
  "deployedLinkReferences": {}
}