{
  "_format": "hh-sol-artifact-1",
  "contractName": "MintableDelegationERC20",
  "sourceName": "contracts/contractsAave/mocks/tokens/MintableDelegationERC20.sol",
  "abi": [
    {
      "inputs": [
        {
          "internalType": "string",
          "name": "name",
          "type": "string"
        },
        {
          "internalType": "string",
          "name": "symbol",
          "type": "string"
        },
        {
          "internalType": "uint8",
          "name": "decimals",
          "type": "uint8"
        }
      ],
      "stateMutability": "nonpayable",
      "type": "constructor"
    },
    {
      "anonymous": false,
      "inputs": [
        {
          "indexed": true,
          "internalType": "address",
          "name": "owner",
          "type": "address"
        },
        {
          "indexed": true,
          "internalType": "address",
          "name": "spender",
          "type": "address"
        },
        {
          "indexed": false,
          "internalType": "uint256",
          "name": "value",
          "type": "uint256"
        }
      ],
      "name": "Approval",
      "type": "event"
    },
    {
      "anonymous": false,
      "inputs": [
        {
          "indexed": true,
          "internalType": "address",
          "name": "from",
          "type": "address"
        },
        {
          "indexed": true,
          "internalType": "address",
          "name": "to",
          "type": "address"
        },
        {
          "indexed": false,
          "internalType": "uint256",
          "name": "value",
          "type": "uint256"
        }
      ],
      "name": "Transfer",
      "type": "event"
    },
    {
      "inputs": [
        {
          "internalType": "address",
          "name": "owner",
          "type": "address"
        },
        {
          "internalType": "address",
          "name": "spender",
          "type": "address"
        }
      ],
      "name": "allowance",
      "outputs": [
        {
          "internalType": "uint256",
          "name": "",
          "type": "uint256"
        }
      ],
      "stateMutability": "view",
      "type": "function"
    },
    {
      "inputs": [
        {
          "internalType": "address",
          "name": "spender",
          "type": "address"
        },
        {
          "internalType": "uint256",
          "name": "amount",
          "type": "uint256"
        }
      ],
      "name": "approve",
      "outputs": [
        {
          "internalType": "bool",
          "name": "",
          "type": "bool"
        }
      ],
      "stateMutability": "nonpayable",
      "type": "function"
    },
    {
      "inputs": [
        {
          "internalType": "address",
          "name": "account",
          "type": "address"
        }
      ],
      "name": "balanceOf",
      "outputs": [
        {
          "internalType": "uint256",
          "name": "",
          "type": "uint256"
        }
      ],
      "stateMutability": "view",
      "type": "function"
    },
    {
      "inputs": [],
      "name": "decimals",
      "outputs": [
        {
          "internalType": "uint8",
          "name": "",
          "type": "uint8"
        }
      ],
      "stateMutability": "view",
      "type": "function"
    },
    {
      "inputs": [
        {
          "internalType": "address",
          "name": "spender",
          "type": "address"
        },
        {
          "internalType": "uint256",
          "name": "subtractedValue",
          "type": "uint256"
        }
      ],
      "name": "decreaseAllowance",
      "outputs": [
        {
          "internalType": "bool",
          "name": "",
          "type": "bool"
        }
      ],
      "stateMutability": "nonpayable",
      "type": "function"
    },
    {
      "inputs": [
        {
          "internalType": "address",
          "name": "delegateeAddress",
          "type": "address"
        }
      ],
      "name": "delegate",
      "outputs": [],
      "stateMutability": "nonpayable",
      "type": "function"
    },
    {
      "inputs": [],
      "name": "delegatee",
      "outputs": [
        {
          "internalType": "address",
          "name": "",
          "type": "address"
        }
      ],
      "stateMutability": "view",
      "type": "function"
    },
    {
      "inputs": [
        {
          "internalType": "address",
          "name": "spender",
          "type": "address"
        },
        {
          "internalType": "uint256",
          "name": "addedValue",
          "type": "uint256"
        }
      ],
      "name": "increaseAllowance",
      "outputs": [
        {
          "internalType": "bool",
          "name": "",
          "type": "bool"
        }
      ],
      "stateMutability": "nonpayable",
      "type": "function"
    },
    {
      "inputs": [
        {
          "internalType": "uint256",
          "name": "value",
          "type": "uint256"
        }
      ],
      "name": "mint",
      "outputs": [
        {
          "internalType": "bool",
          "name": "",
          "type": "bool"
        }
      ],
      "stateMutability": "nonpayable",
      "type": "function"
    },
    {
      "inputs": [],
      "name": "name",
      "outputs": [
        {
          "internalType": "string",
          "name": "",
          "type": "string"
        }
      ],
      "stateMutability": "view",
      "type": "function"
    },
    {
      "inputs": [],
      "name": "symbol",
      "outputs": [
        {
          "internalType": "string",
          "name": "",
          "type": "string"
        }
      ],
      "stateMutability": "view",
      "type": "function"
    },
    {
      "inputs": [],
      "name": "totalSupply",
      "outputs": [
        {
          "internalType": "uint256",
          "name": "",
          "type": "uint256"
        }
      ],
      "stateMutability": "view",
      "type": "function"
    },
    {
      "inputs": [
        {
          "internalType": "address",
          "name": "recipient",
          "type": "address"
        },
        {
          "internalType": "uint256",
          "name": "amount",
          "type": "uint256"
        }
      ],
      "name": "transfer",
      "outputs": [
        {
          "internalType": "bool",
          "name": "",
          "type": "bool"
        }
      ],
      "stateMutability": "nonpayable",
      "type": "function"
    },
    {
      "inputs": [
        {
          "internalType": "address",
          "name": "sender",
          "type": "address"
        },
        {
          "internalType": "address",
          "name": "recipient",
          "type": "address"
        },
        {
          "internalType": "uint256",
          "name": "amount",
          "type": "uint256"
        }
      ],
      "name": "transferFrom",
      "outputs": [
        {
          "internalType": "bool",
          "name": "",
          "type": "bool"
        }
      ],
      "stateMutability": "nonpayable",
      "type": "function"
    }
  ],
  "bytecode": "0x60806040523480156200001157600080fd5b5060405162000d0338038062000d038339810160408190526200003491620001f1565b8251839083906200004d9060039060208501906200007e565b508051620000639060049060208401906200007e565b50506005805460ff191660ff841617905550505050620002b3565b8280546200008c9062000276565b90600052602060002090601f016020900481019282620000b05760008555620000fb565b82601f10620000cb57805160ff1916838001178555620000fb565b82800160010185558215620000fb579182015b82811115620000fb578251825591602001919060010190620000de565b50620001099291506200010d565b5090565b5b808211156200010957600081556001016200010e565b634e487b7160e01b600052604160045260246000fd5b600082601f8301126200014c57600080fd5b81516001600160401b038082111562000169576200016962000124565b604051601f8301601f19908116603f0116810190828211818310171562000194576200019462000124565b81604052838152602092508683858801011115620001b157600080fd5b600091505b83821015620001d55785820183015181830184015290820190620001b6565b83821115620001e75760008385830101525b9695505050505050565b6000806000606084860312156200020757600080fd5b83516001600160401b03808211156200021f57600080fd5b6200022d878388016200013a565b945060208601519150808211156200024457600080fd5b5062000253868287016200013a565b925050604084015160ff811681146200026b57600080fd5b809150509250925092565b600181811c908216806200028b57607f821691505b60208210811415620002ad57634e487b7160e01b600052602260045260246000fd5b50919050565b610a4080620002c36000396000f3fe608060405234801561001057600080fd5b50600436106100ea5760003560e01c80635c19a95c1161008c578063a0712d6811610066578063a0712d6814610216578063a457c2d714610229578063a9059cbb1461023c578063dd62ed3e1461024f57600080fd5b80635c19a95c146101ad57806370a08231146101e557806395d89b411461020e57600080fd5b80631e31d053116100c85780631e31d0531461014257806323b872dd14610172578063313ce56714610185578063395093511461019a57600080fd5b806306fdde03146100ef578063095ea7b31461010d57806318160ddd14610130575b600080fd5b6100f7610288565b6040516101049190610817565b60405180910390f35b61012061011b366004610888565b61031a565b6040519015158152602001610104565b6002545b604051908152602001610104565b60055461015a9061010090046001600160a01b031681565b6040516001600160a01b039091168152602001610104565b6101206101803660046108b2565b610331565b60055460405160ff9091168152602001610104565b6101206101a8366004610888565b61039a565b6101e36101bb3660046108ee565b600580546001600160a01b0390921661010002610100600160a81b0319909216919091179055565b005b6101346101f33660046108ee565b6001600160a01b031660009081526020819052604090205490565b6100f76103d0565b610120610224366004610910565b6103df565b610120610237366004610888565b6103f3565b61012061024a366004610888565b610442565b61013461025d366004610929565b6001600160a01b03918216600090815260016020908152604080832093909416825291909152205490565b6060600380546102979061095c565b80601f01602080910402602001604051908101604052809291908181526020018280546102c39061095c565b80156103105780601f106102e557610100808354040283529160200191610310565b820191906000526020600020905b8154815290600101906020018083116102f357829003601f168201915b5050505050905090565b600061032733848461044f565b5060015b92915050565b600061033e848484610579565b610390843361038b856040518060600160405280602881526020016109be602891396001600160a01b038a16600090815260016020908152604080832033845290915290205491906106fc565b61044f565b5060019392505050565b3360008181526001602090815260408083206001600160a01b0387168452909152812054909161032791859061038b9086610729565b6060600480546102979061095c565b60006103eb3383610739565b506001919050565b6000610327338461038b856040518060600160405280602581526020016109e6602591393360009081526001602090815260408083206001600160a01b038d16845290915290205491906106fc565b6000610327338484610579565b6001600160a01b0383166104b65760405162461bcd60e51b8152602060048201526024808201527f45524332303a20617070726f76652066726f6d20746865207a65726f206164646044820152637265737360e01b60648201526084015b60405180910390fd5b6001600160a01b0382166105175760405162461bcd60e51b815260206004820152602260248201527f45524332303a20617070726f766520746f20746865207a65726f206164647265604482015261737360f01b60648201526084016104ad565b6001600160a01b0383811660008181526001602090815260408083209487168084529482529182902085905590518481527f8c5be1e5ebec7d5bd14f71427d1e84f3dd0314c0f7b2291e5b200ac8c7c3b92591015b60405180910390a3505050565b6001600160a01b0383166105dd5760405162461bcd60e51b815260206004820152602560248201527f45524332303a207472616e736665722066726f6d20746865207a65726f206164604482015264647265737360d81b60648201526084016104ad565b6001600160a01b03821661063f5760405162461bcd60e51b815260206004820152602360248201527f45524332303a207472616e7366657220746f20746865207a65726f206164647260448201526265737360e81b60648201526084016104ad565b61067c81604051806060016040528060268152602001610998602691396001600160a01b03861660009081526020819052604090205491906106fc565b6001600160a01b0380851660009081526020819052604080822093909355908416815220546106ab9082610729565b6001600160a01b038381166000818152602081815260409182902094909455518481529092918616917fddf252ad1be2c89b69c2b068fc378daa952ba7f163c4a11628f55a4df523b3ef910161056c565b81830381848211156107215760405162461bcd60e51b81526004016104ad9190610817565b509392505050565b8082018281101561032b57600080fd5b6001600160a01b03821661078f5760405162461bcd60e51b815260206004820152601f60248201527f45524332303a206d696e7420746f20746865207a65726f20616464726573730060448201526064016104ad565b60025461079c9082610729565b6002556001600160a01b0382166000908152602081905260409020546107c29082610729565b6001600160a01b038316600081815260208181526040808320949094559251848152919290917fddf252ad1be2c89b69c2b068fc378daa952ba7f163c4a11628f55a4df523b3ef910160405180910390a35050565b600060208083528351808285015260005b8181101561084457858101830151858201604001528201610828565b81811115610856576000604083870101525b50601f01601f1916929092016040019392505050565b80356001600160a01b038116811461088357600080fd5b919050565b6000806040838503121561089b57600080fd5b6108a48361086c565b946020939093013593505050565b6000806000606084860312156108c757600080fd5b6108d08461086c565b92506108de6020850161086c565b9150604084013590509250925092565b60006020828403121561090057600080fd5b6109098261086c565b9392505050565b60006020828403121561092257600080fd5b5035919050565b6000806040838503121561093c57600080fd5b6109458361086c565b91506109536020840161086c565b90509250929050565b600181811c9082168061097057607f821691505b6020821081141561099157634e487b7160e01b600052602260045260246000fd5b5091905056fe45524332303a207472616e7366657220616d6f756e7420657863656564732062616c616e636545524332303a207472616e7366657220616d6f756e74206578636565647320616c6c6f77616e636545524332303a2064656372656173656420616c6c6f77616e63652062656c6f77207a65726fa264697066735822122058db9f23f9b488d64b8be5d82bc112cb9186a68b758e3e300ab8822cf044202d64736f6c634300080a0033",
  "linkReferences": {},
  "deployedLinkReferences": {}
}