{
  "_format": "hh-sol-artifact-1",
  "contractName": "MockReserveConfiguration",
  "sourceName": "contracts/contractsAave/mocks/helpers/MockReserveConfiguration.sol",
  "abi": [
    {
      "inputs": [],
      "name": "configuration",
      "outputs": [
        {
          "internalType": "uint256",
          "name": "data",
          "type": "uint256"
        }
      ],
      "stateMutability": "view",
      "type": "function"
    },
    {
      "inputs": [],
      "name": "getBorrowCap",
      "outputs": [
        {
          "internalType": "uint256",
          "name": "",
          "type": "uint256"
        }
      ],
      "stateMutability": "view",
      "type": "function"
    },
    {
      "inputs": [],
      "name": "getBorrowingEnabled",
      "outputs": [
        {
          "internalType": "bool",
          "name": "",
          "type": "bool"
        }
      ],
      "stateMutability": "view",
      "type": "function"
    },
    {
      "inputs": [],
      "name": "getCaps",
      "outputs": [
        {
          "internalType": "uint256",
          "name": "",
          "type": "uint256"
        },
        {
          "internalType": "uint256",
          "name": "",
          "type": "uint256"
        }
      ],
      "stateMutability": "view",
      "type": "function"
    },
    {
      "inputs": [],
      "name": "getDecimals",
      "outputs": [
        {
          "internalType": "uint256",
          "name": "",
          "type": "uint256"
        }
      ],
      "stateMutability": "view",
      "type": "function"
    },
    {
      "inputs": [],
      "name": "getEModeCategory",
      "outputs": [
        {
          "internalType": "uint256",
          "name": "",
          "type": "uint256"
        }
      ],
      "stateMutability": "view",
      "type": "function"
    },
    {
      "inputs": [],
      "name": "getFlags",
      "outputs": [
        {
          "internalType": "bool",
          "name": "",
          "type": "bool"
        },
        {
          "internalType": "bool",
          "name": "",
          "type": "bool"
        },
        {
          "internalType": "bool",
          "name": "",
          "type": "bool"
        },
        {
          "internalType": "bool",
          "name": "",
          "type": "bool"
        },
        {
          "internalType": "bool",
          "name": "",
          "type": "bool"
        }
      ],
      "stateMutability": "view",
      "type": "function"
    },
    {
      "inputs": [],
      "name": "getFlashLoanEnabled",
      "outputs": [
        {
          "internalType": "bool",
          "name": "",
          "type": "bool"
        }
      ],
      "stateMutability": "view",
      "type": "function"
    },
    {
      "inputs": [],
      "name": "getFrozen",
      "outputs": [
        {
          "internalType": "bool",
          "name": "",
          "type": "bool"
        }
      ],
      "stateMutability": "view",
      "type": "function"
    },
    {
      "inputs": [],
      "name": "getLiquidationBonus",
      "outputs": [
        {
          "internalType": "uint256",
          "name": "",
          "type": "uint256"
        }
      ],
      "stateMutability": "view",
      "type": "function"
    },
    {
      "inputs": [],
      "name": "getLiquidationProtocolFee",
      "outputs": [
        {
          "internalType": "uint256",
          "name": "",
          "type": "uint256"
        }
      ],
      "stateMutability": "view",
      "type": "function"
    },
    {
      "inputs": [],
      "name": "getLiquidationThreshold",
      "outputs": [
        {
          "internalType": "uint256",
          "name": "",
          "type": "uint256"
        }
      ],
      "stateMutability": "view",
      "type": "function"
    },
    {
      "inputs": [],
      "name": "getLtv",
      "outputs": [
        {
          "internalType": "uint256",
          "name": "",
          "type": "uint256"
        }
      ],
      "stateMutability": "view",
      "type": "function"
    },
    {
      "inputs": [],
      "name": "getParams",
      "outputs": [
        {
          "internalType": "uint256",
          "name": "",
          "type": "uint256"
        },
        {
          "internalType": "uint256",
          "name": "",
          "type": "uint256"
        },
        {
          "internalType": "uint256",
          "name": "",
          "type": "uint256"
        },
        {
          "internalType": "uint256",
          "name": "",
          "type": "uint256"
        },
        {
          "internalType": "uint256",
          "name": "",
          "type": "uint256"
        },
        {
          "internalType": "uint256",
          "name": "",
          "type": "uint256"
        }
      ],
      "stateMutability": "view",
      "type": "function"
    },
    {
      "inputs": [],
      "name": "getReserveFactor",
      "outputs": [
        {
          "internalType": "uint256",
          "name": "",
          "type": "uint256"
        }
      ],
      "stateMutability": "view",
      "type": "function"
    },
    {
      "inputs": [],
      "name": "getStableRateBorrowingEnabled",
      "outputs": [
        {
          "internalType": "bool",
          "name": "",
          "type": "bool"
        }
      ],
      "stateMutability": "view",
      "type": "function"
    },
    {
      "inputs": [],
      "name": "getSupplyCap",
      "outputs": [
        {
          "internalType": "uint256",
          "name": "",
          "type": "uint256"
        }
      ],
      "stateMutability": "view",
      "type": "function"
    },
    {
      "inputs": [],
      "name": "getUnbackedMintCap",
      "outputs": [
        {
          "internalType": "uint256",
          "name": "",
          "type": "uint256"
        }
      ],
      "stateMutability": "view",
      "type": "function"
    },
    {
      "inputs": [
        {
          "internalType": "uint256",
          "name": "borrowCap",
          "type": "uint256"
        }
      ],
      "name": "setBorrowCap",
      "outputs": [],
      "stateMutability": "nonpayable",
      "type": "function"
    },
    {
      "inputs": [
        {
          "internalType": "bool",
          "name": "enabled",
          "type": "bool"
        }
      ],
      "name": "setBorrowingEnabled",
      "outputs": [],
      "stateMutability": "nonpayable",
      "type": "function"
    },
    {
      "inputs": [
        {
          "internalType": "uint256",
          "name": "decimals",
          "type": "uint256"
        }
      ],
      "name": "setDecimals",
      "outputs": [],
      "stateMutability": "nonpayable",
      "type": "function"
    },
    {
      "inputs": [
        {
          "internalType": "uint256",
          "name": "categoryId",
          "type": "uint256"
        }
      ],
      "name": "setEModeCategory",
      "outputs": [],
      "stateMutability": "nonpayable",
      "type": "function"
    },
    {
      "inputs": [
        {
          "internalType": "bool",
          "name": "enabled",
          "type": "bool"
        }
      ],
      "name": "setFlashLoanEnabled",
      "outputs": [],
      "stateMutability": "nonpayable",
      "type": "function"
    },
    {
      "inputs": [
        {
          "internalType": "bool",
          "name": "frozen",
          "type": "bool"
        }
      ],
      "name": "setFrozen",
      "outputs": [],
      "stateMutability": "nonpayable",
      "type": "function"
    },
    {
      "inputs": [
        {
          "internalType": "uint256",
          "name": "bonus",
          "type": "uint256"
        }
      ],
      "name": "setLiquidationBonus",
      "outputs": [],
      "stateMutability": "nonpayable",
      "type": "function"
    },
    {
      "inputs": [
        {
          "internalType": "uint256",
          "name": "liquidationProtocolFee",
          "type": "uint256"
        }
      ],
      "name": "setLiquidationProtocolFee",
      "outputs": [],
      "stateMutability": "nonpayable",
      "type": "function"
    },
    {
      "inputs": [
        {
          "internalType": "uint256",
          "name": "threshold",
          "type": "uint256"
        }
      ],
      "name": "setLiquidationThreshold",
      "outputs": [],
      "stateMutability": "nonpayable",
      "type": "function"
    },
    {
      "inputs": [
        {
          "internalType": "uint256",
          "name": "ltv",
          "type": "uint256"
        }
      ],
      "name": "setLtv",
      "outputs": [],
      "stateMutability": "nonpayable",
      "type": "function"
    },
    {
      "inputs": [
        {
          "internalType": "uint256",
          "name": "reserveFactor",
          "type": "uint256"
        }
      ],
      "name": "setReserveFactor",
      "outputs": [],
      "stateMutability": "nonpayable",
      "type": "function"
    },
    {
      "inputs": [
        {
          "internalType": "bool",
          "name": "enabled",
          "type": "bool"
        }
      ],
      "name": "setStableRateBorrowingEnabled",
      "outputs": [],
      "stateMutability": "nonpayable",
      "type": "function"
    },
    {
      "inputs": [
        {
          "internalType": "uint256",
          "name": "supplyCap",
          "type": "uint256"
        }
      ],
      "name": "setSupplyCap",
      "outputs": [],
      "stateMutability": "nonpayable",
      "type": "function"
    },
    {
      "inputs": [
        {
          "internalType": "uint256",
          "name": "unbackedMintCap",
          "type": "uint256"
        }
      ],
      "name": "setUnbackedMintCap",
      "outputs": [],
      "stateMutability": "nonpayable",
      "type": "function"
    }
  ],
  "bytecode": "0x608060405234801561001057600080fd5b50610c96806100206000396000f3fe608060405234801561001057600080fd5b50600436106101f05760003560e01c80638c8885c81161010f578063c37bdcec116100a2578063ead8aa0211610071578063ead8aa0214610518578063f0141d8414610539578063f1514a1a14610556578063fa573d071461056957600080fd5b8063c37bdcec146104a5578063d0b0c816146104c3578063d1c11f18146104d6578063e08a28a3146104f957600080fd5b8063a55102f7116100de578063a55102f71461044b578063a62006351461045e578063aede7b7614610471578063b6a3f59a1461049257600080fd5b80638c8885c8146103d957806392dfb2fb146103ec5780639d706d31146103ff578063a37e52e31461043857600080fd5b80636c70bee9116101875780637495b353116101565780637495b3531461036157806379750bc41461038c5780637e932d32146103ab5780638145bd2e146103be57600080fd5b80636c70bee9146102f75780636cc7149d14610301578063717186d11461033b57806371cb13321461034e57600080fd5b80634ae9b8bc116101c35780634ae9b8bc1461026a57806359aa9e72146102885780635e615a6b146102a65780635f558e53146102db57600080fd5b80631c446983146101f5578063203618141461020a57806328842d4f1461023a578063356f235c1461024d575b600080fd5b610208610203366004610bc9565b61057c565b005b60408051602081019091526000549081905260741c640fffffffff165b6040519081526020015b60405180910390f35b610208610248366004610bc9565b61059d565b60408051602081019091526000549081905260a81c60ff16610227565b60408051602081019091526000549081905260101c61ffff16610227565b60408051602080820190925260005490819052901c61ffff16610227565b6102ae6105b7565b604080519687526020870195909552938501929092526060840152608083015260a082015260c001610231565b6040805160208101825260005490819052901c61ffff16610227565b6000546102279081565b610309610620565b60408051951515865293151560208601529115159284019290925290151560608301521515608082015260a001610231565b610208610349366004610bc9565b61068f565b61020861035c366004610be2565b6106a9565b604080516020810190915260005490819052600160391b1615155b6040519015158152602001610231565b6040805160208101909152600054908190526001603a1b16151561037c565b6102086103b9366004610be2565b6106c3565b60408051602081019091526000549081905261ffff16610227565b6102086103e7366004610bc9565b6106dd565b6102086103fa366004610bc9565b6106f7565b604080516020810190915260005490819052640fffffffff605082901c81169160741c1660408051928352602083019190915201610231565b610208610446366004610bc9565b610711565b610208610459366004610be2565b61072b565b61020861046c366004610bc9565b610745565b60408051602081019091526000549081905260501c640fffffffff16610227565b6102086104a0366004610bc9565b61075f565b60408051602081019091526000549081905260981c61ffff16610227565b6102086104d1366004610bc9565b610779565b60408051602081019091526000549081905267800000000000000016151561037c565b6040805160208101909152600054908190526001603b1b16151561037c565b60408051602081019091526000549081905260b01c640fffffffff16610227565b60408051602081019091526000549081905260301c60ff16610227565b610208610564366004610be2565b610793565b610208610577366004610bc9565b6107ad565b6040805160208101909152600054815261059681836107c7565b5160005550565b604080516020810190915260005481526105968183610827565b60008060008060008061060d60006040518060200160405290816000820154815250505161ffff80821692601083901c821692602081901c831692603082901c60ff90811693604084901c9092169260a81c1690565b949b939a50919850965094509092509050565b600080600080600061067e6000604051806020016040529081600082015481525050516701000000000000008116151591600160391b82161515916001603a1b81161515916001603b1b821615159167100000000000000016151590565b945094509450945094509091929394565b60408051602081019091526000548152610596818361087a565b6040805160208101909152600054815261059681836108d2565b604080516020810190915260005481526105968183610900565b60408051602081019091526000548152610596818361092e565b604080516020810190915260005481526105968183610981565b6040805160208101909152600054815261059681836109d9565b604080516020810190915260005481526105968183610a22565b604080516020810190915260005481526105968183610a50565b604080516020810190915260005481526105968183610aa2565b604080516020810190915260005481526105968183610afa565b604080516020810190915260005481526105968183610b4b565b604080516020810190915260005481526105968183610b79565b604080518082019091526002815261363760f01b602082015261ffff82111561080c5760405162461bcd60e51b81526004016108039190610c0b565b60405180910390fd5b50815169ffff0000000000000000191660409190911b179052565b604080518082019091526002815261363560f01b602082015261ffff8211156108635760405162461bcd60e51b81526004016108039190610c0b565b50815165ffff00000000191660209190911b179052565b60408051808201909152600281526106c760f31b6020820152640fffffffff8211156108b95760405162461bcd60e51b81526004016108039190610c0b565b508151640fffffffff60501b191660509190911b179052565b603b816108e05760006108e3565b60015b8351670800000000000000191660ff9190911690911b1790915250565b60398161090e576000610911565b60015b8351670200000000000000191660ff9190911690911b1790915250565b6040805180820190915260028152611b1b60f11b602082015260ff8211156109695760405162461bcd60e51b81526004016108039190610c0b565b50815166ff000000000000191660309190911b179052565b6040805180820190915260028152611b9960f11b6020820152640fffffffff8211156109c05760405162461bcd60e51b81526004016108039190610c0b565b508151640fffffffff60b01b191660b09190911b179052565b604080518082019091526002815261363360f01b602082015261ffff821115610a155760405162461bcd60e51b81526004016108039190610c0b565b50815161ffff1916179052565b603f81610a30576000610a33565b60015b8351678000000000000000191660ff9190911690911b1790915250565b604080518082019091526002815261037360f41b602082015261ffff821115610a8c5760405162461bcd60e51b81526004016108039190610c0b565b50815161ffff60981b191660989190911b179052565b604080518082019091526002815261363960f01b6020820152640fffffffff821115610ae15760405162461bcd60e51b81526004016108039190610c0b565b508151640fffffffff60741b191660749190911b179052565b6040805180820190915260028152610d8d60f21b602082015261ffff821115610b365760405162461bcd60e51b81526004016108039190610c0b565b50815163ffff0000191660109190911b179052565b603a81610b59576000610b5c565b60015b8351670400000000000000191660ff9190911690911b1790915250565b604080518082019091526002815261373160f01b602082015260ff821115610bb45760405162461bcd60e51b81526004016108039190610c0b565b50815160ff60a81b191660a89190911b179052565b600060208284031215610bdb57600080fd5b5035919050565b600060208284031215610bf457600080fd5b81358015158114610c0457600080fd5b9392505050565b600060208083528351808285015260005b81811015610c3857858101830151858201604001528201610c1c565b81811115610c4a576000604083870101525b50601f01601f191692909201604001939250505056fea2646970667358221220a24af82fc6ae327d63afad323306532d1d434c76d7988921646ab2d5cd4efda164736f6c634300080a0033",
  "linkReferences": {},
  "deployedLinkReferences": {}
}